:0400000081EF00F09C
:100008001F271F271F271F2740001F2740001F27C4
:100018001F271F271F271F271F271F271F271F27A8
:100028001F274000400040001F271F271F271F27AA
:100038001F271F271F271F271F271F271F274B295A
:100048001F271F271F271F27400040001F271F2784
:100058001F271F271F2740001F271F271F271F276E
:100068001F271F271F271F271F271F271F271F2758
:100078001F271F271F271F2740001F271F271F274E
:100088001F271F271F271F271F271F271F271F2738
:100098001F271F271F271F2740001F27400040003A
:1000A8001F271F271F271F271F271F271F271F2718
:1000B8001F271F271F271F271F271F271F271F2708
:1000C8001F271F271F271F271F271F271F271F27F8
:1000D8001F271F271F271F271F271F271F271F27E8
:1000E80040001F271F271F274000400040004000F6
:1000F8001F271F271F271F27FF0026EF20F000C9F3
:100108004BF501C94CF502C94DF503C94EF53BC580
:100118004BF53CC54CF53DC54DF53EC54EF5810E3C
:100128003F6EFF0E406E4BC541F54CC542F54DC5BF
:1001380043F54EC544F5180E05D0D89044324332E5
:1001480042324132E82EF9D741503F24496E000E21
:1001580040204A6E4ABE0FD04A5004E1170E495C4F
:10016800D8A009D03BC53BF53CC53CF53DC53DF5A0
:100178003EC53EF512004ABE5BD049C53FF5FF0EAD
:10018800406EFF0E416E7F0E426E000E436E3F665C
:1001980001D007D0433443324232413240323F2EFD
:1001A800F6D740C545F541C546F542C547F543C5AF
:1001B80048F545504B143F6E46504C14406E47501E
:1001C8004D14416E48504E14426E3F50401041103D
:1001D8004210D8B4C7D74BC53FF54CC540F54DC5FF
:1001E80041F54EC542F5200E05D0D8904232413235
:1001F80040323F32E82EF9D73F50D8B408D04550A6
:100208004B2646504C2247504D2248504E22451C02
:100218003F6E461C406E471C416E481C426E3F5064
:100228004B1640504C1641504D1642504E1632D087
:100238004BC53FF54CC540F54DC541F54EC542F59A
:10024800200E05D0D8904232413240323F32E82E5B
:10025800F9D73F6608D0000E4B6E000E4C6E000EAC
:100268004D6E000E16D0D8904B343F6E4C34406E15
:100278004D34416E4E34426E3F5040104110421092
:10028800D8B408D0000E4B6E000E4C6E800E4D6E2A
:10029800BF0E4E6E4BC53BF54CC53CF54DC53DF507
:1002A8004EC53EF51200000E0501EC6F400EEB6FD7
:1002B80044EC24F0EBC572F6ECC573F65650060113
:1002C8006E6F57506F6F706B716B6FC671F66EC63D
:1002D80070F66F6B6E6B0901765106016E25080189
:1002E8009A6F0901775106016F2108019B6F000E73
:1002F8000601702108019C6F000E0601712108019A
:100308009D6FC351C411D8B439D0C307D8A0C4074E
:100318003CECF3F09AC856F69BC857F69CC858F6BA
:100328009DC859F672C65AF673C65BF6000E0601EA
:100338005D6F400E5C6FC8EC03F0BF0E0501F16FF6
:10034800D20EF26F9AC8F3F59BC8F4F59CC8F5F580
:100358009DC8F6F572C6F7F573C6F8F5000EFA6F84
:10036800400EF96F000EFC6F010EFB6F000EFD6F63
:10037800000EFE6F000EFF6FA0EC0DF009017C511E
:10038800D8A45DD00801D951D8B459D0010E96250A
:1003980006016E6F000E0801972106016F6F000EAF
:1003A800080198210601706F000E080199210601C5
:1003B800716F08019A5106016E1941E108019B51BC
:1003C80006016F193CE108019C510601701937E1DB
:1003D80008019D5106017119D8A431D0DF0E05011D
:1003E800C76FF30EC86F96C8C9F597C8CAF598C8FD
:1003F800CBF599C8CCF530EC51F096C856F697C8AD
:1004080057F698C858F699C859F6E00E06015A6F7B
:10041800080E5B6F000E5D6F010E5C6FFDEC02F065
:1004280009017607D8A07707000E0801D96F96C88A
:100438009AF897C89BF898C89CF899C89DF872C60E
:10044800EBF573C6ECF5B5EC34F0120068C513F59E
:1004580069C514F57EEC48F0090137513811D8A464
:1004680006D0000E0501776F1F0E766F04D037C9CE
:1004780076F538C977F5000E0501796F000E786FAB
:1004880057D068C50AF569C50BF595EC27F00AC57C
:100498007AF50BC57BF505017A2912E17B29D8A4E9
:1004A8000FD0090137513811D8A405D0050178516A
:1004B8007911D8A405D07AC568F57BC569F512000D
:1004C80078517911D8A418D02B0E7A197B11D8B489
:1004D80005D02D0E7A197B11D8A40ED0920E78254E
:1004E800D96E0B0E7921DA6E7AC5DFF4784B792B49
:1004F8000901334B342B1CD0D00E7A256C6FFF0EBC
:100508007B216D6F6D5104E10A0E6C5DD8A0E6D7B2
:100518007A2903E17B29D8B41CD07AC508F57BC5B4
:1005280009F568C50AF569C50BF5E2EC3DF011D08F
:1005380005017651785D7951800A6C6F7751800A90
:100548006C59D8B006D0795104E11F0E785DD8A057
:1005580098D7920E05017825D96E0B0E7921DA6E9F
:10056800000EDF6E920E606F0B0E616F740E626F7D
:10057800050E636F000E656F0A0E646F7BEC4DF01D
:1005880060C56CF561C56DF562C56EF563C56FF53F
:1005980064C570F565C571F566C572F567C573F50F
:1005A8006AC5D9F46BC5DAF46CC5DEF46DC5DEF442
:1005B8006EC5DEF46FC5DEF470C5DEF471C5DEF419
:1005C80072C5DEF473C5DEF409013B513C11D8A4B1
:1005D8000AD0050178517911D8B405D0000E696F99
:1005E800010E686F1200FF0E0501696FFE0E686F3D
:1005F800120001D80BD00500FA6E0901D251FD6E28
:10060800D351FE6ED451FF6EFA50120008C568F639
:1006180009C569F60AC56AF60BC56BF60601681DB9
:100628005E6F691D5F6F56515E15666F57515F1596
:10063800676F000E6D6F000E6C6F66515C255E6F04
:1006480067515D215F6F606BD8B0602B616B68C6C6
:1006580062F669C663F66AC664F66BC665F6621F1B
:10066800631F641F651F622B000E632364236523C9
:100678005E51625D5F5163596051645961516559BA
:10068800D8B00CD05C5166255E6F5D5167215F6FF5
:1006980068515E256C6F69515F216D6F56C6E3F531
:1006A80057C6E4F558C6E5F559C6E6F501D80BD0A6
:1006B8000500FA6E0801EA51FD6EEB51FE6EEC5131
:1006C800FF6EFA50120056C640F657C641F658C695
:1006D80042F659C643F65AC644F65BC645F60601C5
:1006E8006C515C5D466F6D515D59476FA0EC11F020
:1006F80006016C516D11D8B412006C515C5D5E6FCF
:100708006D515D595F6F606BD8A060076051616F74
:1007180056515E250501E36F060157515F2105011A
:10072800E46F0601585160210501E56F0601595132
:1007380061210501E66F01D80BD00500FA6E0801AA
:10074800EA51FD6EEB51FE6EEC51FF6EFA5012004D
:1007580056C640F657C641F658C642F659C643F63D
:1007680006016C515A5D5E6F6D515B595F6F5C514C
:100778005E25446F5D515F21456F6CC646F66DC6B8
:1007880047F6A0EC11F0120001D80BD00500FA6E64
:100798000901D251FD6ED351FE6ED451FF6EFA504D
:1007A800120008C568F609C569F60AC56AF60BC5D8
:1007B8006BF60601681D5E6F691D5F6F56515E1509
:1007C800666F57515F15676F000E6D6F000E6C6F87
:1007D80066515C255E6F67515D215F6F606BD8B0B5
:1007E800602B616B68C662F669C663F66AC664F612
:1007F8006BC665F6621F631F641F651F622B000EC0
:100808006323642365235E51625D5F5163596051C0
:10081800645961516559D8B00CD05C5166255E6F3A
:100828005D5167215F6F68515E256C6F69515F216B
:100838006D6F56C6E3F557C6E4F558C6E5F559C6D3
:10084800E6F501D80BD00500FA6E0801EA51FD6EF5
:10085800EB51FE6EEC51FF6EFA50120056C640F690
:1008680057C641F658C642F659C643F65AC644F624
:100878005BC645F606016C515C5D466F6D515D596E
:10088800476F46EC12F006016C516D11D8B4120096
:100898006C515C5D5E6F6D515D595F6F606BD8A088
:1008A80060076051616F56515E250501E36F0601CF
:1008B80057515F210501E46F060158516021050178
:1008C800E56F0601595161210501E66F01D80BD08A
:1008D8000500FA6E0801EA51FD6EEB51FE6EEC510F
:1008E800FF6EFA50120056C640F657C641F658C673
:1008F80042F659C643F606016C515A5D5E6F6D515A
:100908005B595F6F5C515E25446F5D515F21456F98
:100918006CC646F66DC647F646EC12F01200AF0EEE
:10092800086E090E096E000E0A6E000E0B6E79EC49
:1009380015F038C5D9F439C5DAF4DF50D8A409D090
:10094800000E386E000E396E000E3A6E000E3B6EC9
:10095800120038C5D9F439C5DAF4300EDE18D8A437
:1009680023D020EE01F03850D9263950DA22780EFB
:10097800DE18D8A419D0020E3824326E000E3920A1
:10098800336E000E346E000E356E000E376E100E8C
:10099800366EC0EC4FF032C538F533C539F534C57D
:1009A8003AF535C53BF5120038C508F539C509F5DE
:1009B80038EC4DF0085038243C6E095039203D6E13
:1009C800FF0E3C24D96EFF0E3D20DA6E680EDE184D
:1009D800D8B416D038C508F539C509F538EC4DF046
:1009E800085038243C6E095039203D6EFF0E3C24D7
:1009F800D96EFF0E3D20DA6E480EDE18D8A417D047
:100A080038C532F539C533F5000E346E000E356E33
:100A1800000E376E100E366EC0EC4FF032C538F54A
:100A280033C539F534C53AF535C53BF5120038C537
:100A3800D9F439C5DAF4270EDE18D8A423D0010E6C
:100A480038243F6E000E3920406E3F0E086E050EAA
:100A5800096E410E0A6E050E0B6E79EC15F0085002
:100A68000910D8B406D04150386E396A3A6A3B6AE0
:100A78001200270E386E000E396E000E3A6E000E08
:100A88003B6E120038C532F539C533F5000E346EA9
:100A9800000E356E000E376E0A0E366EC0EC4FF043
:100AA80032C538F533C539F534C53AF535C53BF5A2
:100AB800120001D80CD00500FA6E0801ED51FD6E48
:100AC800EE51FE6EEF51FF6EFA50000E1200000E4E
:100AD8000601056F000E046FAAD004C608F505C606
:100AE80009F5000E0B6E060E0A6E44EC51F0085024
:100AF8000501ED25F36F0950EE21F46F020EF32581
:100B0800D96E000EF421DA6EDEC4F5F5DDC4F6F513
:100B1800F151F76FF251F86FF96BFA6BF8C5FAF506
:100B2800F7C5F9F5F86BF76BF551F7250601006F76
:100B38000501F651F8210601016F000E0501F921A2
:100B48000601026F000E0501FA210601036F00C6B7
:100B5800E3F501C6E4F502C6E5F503C6E6F501D8F6
:100B68000BD00500FA6E0801EA51FD6EEB51FE6EDE
:100B7800EC51FF6EFA50120004C608F505C609F5D7
:100B8800000E0B6E060E0A6E44EC51F0085005017B
:100B9800ED25F36F0950EE21F46F020EF325D96E9F
:100BA800000EF421DA6EDEC40EF5DDC40FF504C6BE
:100BB80008F505C609F5000E0B6E060E0A6E44EC24
:100BC80051F008500501ED25D96E0950EE21DA6E75
:100BD800DEC410F5DDC411F504C608F505C609F52F
:100BE800000E0B6E060E0A6E44EC51F0085005011B
:100BF800ED25F56F0950EE21F66F040EF525D96E37
:100C0800000EF621DA6EDEC412F5DDC413F501D844
:100C18000BD00500FA6E0901D551FD6ED651FE6E56
:100C2800D751FF6EFA5012000601044B052B05013F
:100C3800EF510601045D0501F05106010559D8B0D0
:100C480012004BD701D80CD00500FA6E0801ED51FF
:100C5800FD6EEE51FE6EEF51FF6EFA50FF0E120060
:100C6800000E0601056F000E046FAAD004C608F531
:100C780005C609F5000E0B6E060E0A6E44EC51F01F
:100C880008500501ED25F36F0950EE21F46F020EAF
:100C9800F325D96E000EF421DA6EDEC4F5F5DDC455
:100CA800F6F5F151F76FF251F86FF96BFA6BF8C579
:100CB800FAF5F7C5F9F5F86BF76BF551F725060165
:100CC800006F0501F651F8210601016F000E0501BC
:100CD800F9210601026F000E0501FA210601036FD2
:100CE80000C6E3F501C6E4F502C6E5F503C6E6F578
:100CF80001D80BD00500FA6E0801EA51FD6EEB51E0
:100D0800FE6EEC51FF6EFA50120004C608F505C6D7
:100D180009F5000E0B6E060E0A6E44EC51F00850F1
:100D28000501ED25F36F0950EE21F46F020EF3254E
:100D3800D96E000EF421DA6EDEC40EF5DDC40FF5AF
:100D480004C608F505C609F5000E0B6E060E0A6EF8
:100D580044EC51F008500501ED25D96E0950EE21FB
:100D6800DA6EDEC410F5DDC411F504C608F505C653
:100D780009F5000E0B6E060E0A6E44EC51F0085091
:100D88000501ED25F56F0950EE21F66F040EF525E6
:100D9800D96E000EF621DA6EDEC412F5DDC413F545
:100DA80001D80BD00500FA6E0901CF51FD6ED05164
:100DB800FE6ED151FF6EFA5012000601044B052B4E
:100DC8000501EF510601045D0501F05106010559C1
:100DD800D8B012004BD75AC64CF65BC64DF6000E7B
:100DE8004E6F000E4F6F000E506F000E516F24ECC7
:100DF800EEF04CC674F64DC675F6020E74197511F0
:100E0800D8B40FD0755108E1030E745DD8B004D082
:100E18005C515D11D8A405D074C65AF675C65BF648
:100E28001200000E776F000E766F76C65EF677C6F4
:100E38005FF65E3B5F3BF00E5F175E510F0B5F1373
:100E4800F00E5E175E515A25606F5F515B21616F2E
:100E5800FA0E6025086E010E6121096EFEEC33F072
:100E6800640E0601626F060E636FD8907635D96EF0
:100E78007735DA6ED890D936DA366251D926635189
:100E8800DA2208C5DEF409C5DEF40AC5DEF40BC5AE
:100E9800DEF4764B772B775104E1040E765DD8A00B
:100EA800C4D75C515D11D8A405D0000E776F000E31
:100EB800766F06D0FF0E5C25766FFF0E5D21776F8B
:100EC800640E5E6F060E5F6FD8907635D96E7735F3
:100ED800DA6ED890D936DA365E51D9265F51DA22E1
:100EE800DE50DE10DE10DE10D8A405D0000E756FBF
:100EF800030E746F22D05AC64CF65BC64DF6640ECC
:100F08005E6F060E5F6FD8907635D96E7735DA6EDC
:100F1800D890D936DA365E51D9265F51DA22DEC446
:100F28004EF6DEC44FF6DEC450F6DEC451F624ECAD
:100F3800EEF04CC674F64DC675F65C515D11D8A43A
:100F48006BD7755104E1020E745DD8A065D7764B56
:100F5800772B775105E1040E765DD8B05DD7B0D711
:100F68005BD7C6EC3CF0000EC16E400EC96EC28461
:100F7800CA94BE84C694000E0201036FBE88C69848
:100F8800000E056F87EC49F08C0E0501F26F090E13
:100F9800F36F000EF56F010EF46F000EF66FA9ECFB
:100FA8000FF08C0E086E090E096EA2EC52F0085074
:100FB8000910D8B407D04E0E08019E6FA40E9F6F7B
:100FC800000EA06F8C0E356E090E366E000E386E50
:100FD800000E376E000E3A6E010E396E49EC23F0A2
:100FE8008C0E356E090E366E000E386E000E376E9A
:100FF800000E3A6E000E396ECBEC22F08C0E356E78
:10100800090E366E000E386E010E376E000E3A6EFF
:10101800010E396E49EC23F08C0E356E090E366ED2
:10102800000E386E010E376E000E3A6E000E396EE5
:10103800CBEC22F08C0E356E090E366E000E386E33
:10104800040E376E000E3A6E010E396E49EC23F02D
:101058008C0E356E090E366E000E386E040E376E25
:10106800000E3A6E000E396ECBEC22F0000E416E87
:10107800000E426E000E436E000E446E01D80BD077
:101088000500FA6E0901CC51FD6ECD51FE6ECE51B0
:10109800FF6EFA5012008C0E356E090E366E000E79
:1010A800386E070E376E000E3A6E000E396ECBECB6
:1010B80022F08C0E356E090E366E000E386E020E5A
:1010C800376E000E3A6E000E396ECBEC22F08C0EA5
:1010D800356E090E366E000E386E030E376E000E32
:1010E8003A6E000E396ECBEC22F01200000E0701AA
:1010F800806F000E7F6F7FC708F580C709F5000E67
:101108000B6E0C0E0A6E44EC51F00A0E0826000E07
:101118000922C30E0824F66ED60E0920F76EF86A67
:10112800000EF8220900F5500900F510D8B491D046
:101138007FC708F580C709F5000E0B6E0C0E0A6E06
:1011480044EC51F0C30E0824F66ED60E0920F76E53
:10115800F86A000EF8220900F5C47DF70A00F5C404
:101168007EF7AD0E0501C76FFF0EC86F7DC7C9F5C5
:101178007EC7CAF530EC51F07FC708F580C709F57E
:10118800000E0B6E0C0E0A6E44EC51F0080E082689
:10119800000E0922C30E0824F66ED60E0920F76E3B
:1011A800F86A000EF8220900F5500900F510D8B4C5
:1011B80028D07FC708F580C709F5000E0B6E0C0E06
:1011C8000A6E44EC51F0080E0826000E0922C30EE0
:1011D8000824F66ED60E0920F76EF86A000EF8227B
:1011E8000900F5C47DF70A00F5C47EF7B00E0501C5
:1011F800C76FFF0EC86F7DC7C9F57EC7CAF530EC4B
:1012080051F07FC708F580C709F5000E0B6E0C0E6C
:101218000A6E44EC51F00A0E0826000E0922C30E8D
:101228000824F66ED60E0920F76EF86A000EF8222A
:101238000900F5C47DF70A00F5C47EF7770E0501AD
:10124800C76FF70EC86F7DC7C9F57EC7CAF530EC02
:1012580051F007017F4B802B805104E1170E7F5D11
:10126800D8A049D7000E7A6F000E796F120020EED1
:1012780004F03550D9263650DA22DEC43DF5DDC4F7
:101288003EF520EE02F03550D9263650DA22DE50EF
:10129800DE10D8B416D020EE04F03550D9263650DA
:1012A800DA2237503810D8B402D0010E01D0000E1F
:1012B8003B6E3C6ADE503B1809E1DE503C18D8A46E
:1012C80005D03DC535F53EC536F512003750381006
:1012D800D8B41DD020EE07F03550D9263650DA2282
:1012E80010EE09F03550E1263650E222DFC4E7F46B
:1012F80020EE08F03550D9263650DA2210EE0AF0E2
:101308003550E1263650E222DFC4E7F45CD020EE07
:1013180007F03550D9263650DA2210EE09F035504C
:10132800E1263650E222DE50E618D8B41ED020EE70
:1013380009F03550D9263650DA2210EE07F035502C
:10134800E1263650E222DFC4E7F435C52BF536C571
:101358002CF5000E2D6E20EE07F03550D9263650AC
:10136800DA22DF502E6EB0EC45F020EE08F0355052
:10137800D9263650DA2210EE0AF03550E1263650DA
:10138800E222DE50E618D8B41ED020EE0AF035501E
:10139800D9263650DA2210EE08F03550E1263650BC
:1013A800E222DFC4E7F435C52BF536C52CF50A0E65
:1013B8002D6E20EE08F03550D9263650DA22DF504F
:1013C8002E6EB0EC45F037503810D8B402D0010E6C
:1013D80001D0000E396E3A6A20EE04F03550D92655
:1013E8003650DA2239C5DEF43AC5DDF46AD7000E84
:1013F8000501F16F050EF06F89D0010E71EC53F005
:10140800050120EE01F0EA51D926EB51DA22DF502E
:1014180071EC53F0050120EE01F0EA51D926EB51A9
:10142800DA22DF50FF0A71EC53F0000E0501F56F68
:10143800000EF46F20EE02F0EA51D926EB51DA22C1
:10144800DEC4ECF5DDC4EDF5F451EC25D96EF551AB
:10145800ED21DA6EDF5071EC53F00501F44BF52BFA
:10146800F55104E1800EF45DD8A0E4D7000E096EB2
:10147800000E086E20EE02F0EA51D926EB51DA226E
:10148800DEC40AF5DDC40BF5000E0D6E800E0C6E81
:1014980071EC36F008C5F2F509C5F3F50501F3510D
:1014A80071EC53F00501F25171EC53F0F60E1B6E1E
:1014B800050E1C6E000E1E6E010E1D6E130E206EA4
:1014C800880E1F6E16EC46F01BC5EEF51CC5EFF531
:1014D8000501EE05EF11D8A419D0060EF619D8A407
:1014E8000CD020EE01F0EA51D926EB51DA22DF2A9E
:1014F800000EEB6F000EEA6F1200180EF619D8A452
:1015080005D0000EEB6F010EEA6F1200F051EC6F80
:10151800F151ED6F010EF05F000EF15BEDBF05D0EC
:10152800ED5102E1EC05D8B068D7000E0601016F55
:10153800020E006F840E026FF10E036F050120EE9C
:1015480001F0EA51D926EB51DA22DF50EC6FEC5169
:101558000601046F056BD10E066FF00E076FE6ECFF
:1015680032F0000E0501EB6F020EEA6F1200000E5A
:101578000601406F20EE04F02E51D9262F51DA22B1
:10158800DF50D8B4AED0340E2E251F6F000E2F2199
:10159800206F20EE30F02E51D9262F51DA22DEC4EA
:1015A80021F6DEC422F6DEC423F6DEC424F6000EDD
:1015B800266F010E256F20EE01F02E51D9262F51EE
:1015C800DA22DF505AEC17F00009D8A487D00601B8
:1015D80020EE04F02E51D9262F51DA22000EDF6EAC
:1015E80020EE1CF02E51D9262F51DA2210EE24F0CD
:1015F8002E51E1262F51E222E6C434F6E6C435F630
:10160800E6C436F6E6C437F610EE30F02E51E12681
:101618002F51E222E6C438F6E6C439F6E6C43AF6B3
:10162800E6C43BF63451385D3C6F355139593D6F4E
:1016380036513A593E6F37513B593F6FDE503C5D4A
:10164800DE503D59DE503E59DE503F59D8B049D0A2
:1016580020EE03F02E51D9262F51DA22020EDE1881
:10166800D8A43FD0340E2E251F6F000E2F21206FD7
:1016780020EE1CF02E51D9262F51DA22DEC430F686
:10168800DEC431F6DEC432F6DEC433F620EE30F0C6
:101698002E51D9262F51DA22DEC434F6DEC435F6AF
:1016A800DEC436F6DEC437F630513425216F3151A9
:1016B8003521226F32513621236F33513721246F60
:1016C800000E266F010E256F20EE01F02E51D9264F
:1016D8002F51DA22DF505AEC17F003D0010E060121
:1016E800406F06014051120053AE589253BE05D0C8
:1016F800535008E15204D8B005D0000E396E010EDF
:10170800386E04D052C538F553C539F5A3C83BF532
:10171800A4C83CF528C53DF529C53EF52AC53FF5C1
:101728002BC540F52CC541F52DC542F52EC543F511
:101738002FC544F5000E466E4F0E456E000E0A0189
:101748004F6F000E3A6E42D04506D8A046063D506F
:10175800070B3A6E000E4524D96E0A0E4620DA6E43
:101768003A50300FDF6E3806D8A039063B06D8A0AD
:101778003C063DC530F53EC531F53FC532F540C59F
:1017880033F541C534F542C535F543C536F544C58D
:1017980037F5040E09D0D890373236323532343224
:1017A8003332323231323032E82EF5D730C53DF59A
:1017B80031C53EF532C53FF533C540F534C541F571
:1017C80035C542F536C543F537C544F546BE1FD085
:1017D800465003E14504D8A01AD03D503E103F10B2
:1017E80040104110421043104410D8A4ADD739BE60
:1017F80005D03950A9E13804D8B0A6D73CBE07D0E7
:101808003C5003E13B04D8A002D058B29DD73A50CF
:10181800D8A458A80ED04506D8A04606000E4524E0
:10182800D96E0A0E4620DA6E300EDF6E3B06D8A05F
:101838003C0626C51BF527C51CF5000E45241D6E64
:101848000A0E46201E6E3BC51FF53CC520F531EC3F
:101858003CF01BC526F51CC527F51200000EC56F08
:10186800000EC46FB4511CE1100EB35DD8B018D08F
:10187800B30EBD6F0A0EBE6F020EBD27000EBE234B
:10188800D890B335D96EB435DA6ED890D936DA3601
:10189800BD51D926BE51DA22DE50DE10D8A40FD0B1
:1018A800D00E0501C76FF10EC86FB3C6C9F5B4C62F
:1018B800CAF530EC51F00601B369B4691200B30EF1
:1018C800BD6F0A0EBE6F020EBD27000EBE23D89054
:1018D800B335D96EB435DA6ED890D936DA36BD510B
:1018E800D926BE51DA22DEC4C1F6DDC4C2F6C1C6AD
:1018F8008AF6C2C68BF6B5C6BDF6B6C6BEF6B7C67C
:10190800BFF6B8C6C0F6070ED890BD37BE37BF378A
:10191800C037E82EF9D7BDC68CF6BEC68DF6BFC651
:101928008EF6C0C68FF6BCECADF0C36FC351D8B409
:1019380045D0A70E0501C76FEF0EC86FC3C6C9F51E
:10194800CA6B30EC51F0B7D7C1C666F6C2C667F6A7
:10195800B9C668F6BAC669F6000E6B6F800E6A6F74
:10196800C60E6C6F060E6D6F41ECB4F0C36FC351B9
:10197800D8A405D0800EC619C711D8B413D0A20EAA
:101988000501C76FE90EC86FC3C6C9F5CA6BC6C6DD
:10199800CBF5C7C6CCF530EC51F0C4C6B3F6C5C616
:1019A800B4F61200800EB96F000EBA6F010EB5279B
:1019B800000EB623B723B823C44BC52BBB51C45D57
:1019C800BC51C559D8B0E9D7BFD7000E0501F06F93
:1019D800000EEF6F75D0F10E1B6E050E1C6E000E1B
:1019E8001E6E010E1D6E030E206EE80E1F6E16ECA5
:1019F80046F01BC5EDF51CC5EEF50501ED05EE112C
:101A0800D8A45ED0430EF119D8A406D0000E060162
:101A1800476F000E466F1200180EF119D8A425D092
:101A2800000E0601016F020E006F830E026FE90EB1
:101A3800036F20EE01F04651D9264751DA22DF50D4
:101A48000501EA6FEA510601046F056BFF0E066F88
:101A5800EF0E076FF1C508F6096BE6EC32F0000EE1
:101A68000601476F010E466F1200F151D8B408D035
:101A7800030EF119D8B404D01A0EF119D8A420D045
:101A8800000E0601016F020E006F7F0E026FE80E56
:101A9800036F20EE01F04651D9264751DA22DF5074
:101AA8000501EA6FEA510601046F056BFF0E066F28
:101AB800EF0E076FF1C508F6096BE6EC32F0CFD7E9
:101AC800060148514911D8B486D70501EF51EA6F8C
:101AD800F051EB6FEF4BF02B060148510501EA5D21
:101AE800EB51800AEC6F06014951800A0501EC5957
:101AF800D8A071D7000E0601016F020E006F840E88
:101B0800026FF10E036F20EE01F04651D9264751BE
:101B1800DA22DF500501EA6FEA510601046F056B0E
:101B2800FF0E066FEF0E076FE6EC32F0000E0601AF
:101B3800476F020E466F1200000E0601666F000E18
:101B4800656F95D0F1C5DCF5F2C5DDF5F7C5DEF5B5
:101B5800F8C5DFF5060165510501F95DE06F06017D
:101B680066510501FA59E16F010EE26F060EE36F47
:101B7800000EE56F640EE46F15ECEDF0DCC569F658
:101B8800DDC56AF6060169516A11D8B47FD005012E
:101B9800FD51FE11FF11D8A44FD0FF0EC76FFD0EE7
:101BA800C86FF3C5C9F5F4C5CAF5F5C5CBF5F6C5D3
:101BB800CCF530EC51F0000E0601686F000E676F2F
:101BC8006951675D6A516859D8B019D0260E050168
:101BD800C76FFF0EC86F060167510501F725D96E5B
:101BE800060168510501F821DA6EDF500601006F21
:101BF80000510501C96FCA6B30EC51F007D0E70EF0
:101C08000501C76FF90EC86F30EC51F00601674B3C
:101C1800682B68BFD5D7685104E1040E675DD8A06A
:101C2800CFD77D0E0501C76FF70EC86F010EC96FBC
:101C3800060ECA6F30EC51F00601695165276A51EA
:101C4800662369510501F32706016A510501F4234A
:101C5800000EF523000EF623060169510501F7274A
:101C680006016A510501F823FB07D8A0FC07050106
:101C7800F9510601655D0501FA5106016659D8B0AA
:101C880005D00501FB51FC11D8A45CD765C6F1F558
:101C980066C6F2F51200E551E611D8B408D0E5C5DC
:101CA800D9F4E6C5DAF4AD0EDE6EDE0EDD6EE75170
:101CB800E811D8B408D0E7C5D9F4E8C5DAF4EF0ECE
:101CC800DE6EBE0EDD6EE4511CE1100EE35DD8B091
:101CD80018D0B30EED6F0A0EEE6F020EED27000E50
:101CE800EE23D890E335D96EE435DA6ED890D9363C
:101CF800DA36ED51D926EE51DA22DE50DE10D8A4BC
:101D08000ED0D00EC76FF10EC86FE3C5C9F5E4C594
:101D1800CAF530EC51F00501E369E4691200E551B8
:101D2800E611D8B42CD0E9C514F5EAC515F5EBC50C
:101D380016F5ECC517F5B30EED6F0A0EEE6FD890D9
:101D4800E335D96EE435DA6ED890D936DA36ED5106
:101D5800D926EE51DA22DEC4EFF5DDC4F0F5EFC581
:101D680018F5F0C519F51A6A1B6A74EC3FF0E5C559
:101D7800D9F4E6C5DAF414C5DEF415C5DDF40501B9
:101D8800E751E811D8B430D0E9C508F5EAC509F536
:101D9800EBC50AF5ECC50BF5B30EED6F0A0EEE6F49
:101DA800D890E335D96EE435DA6ED890D936DA367C
:101DB800ED51D926EE51DA22DEC4EFF5DDC4F0F597
:101DC800EFC50CF5F0C50DF50E6A0F6A4AEC45F043
:101DD800010E0826000E0922E7C5D9F4E8C5DAF491
:101DE80008C5DEF409C5DDF4000EE46F000EE36FEC
:101DF80012000901F151F211D8B429D0000E0501E1
:101E0800E315E76FC00EE415E86FFF0EE515E96FFF
:101E1800FF0EE615EA6FE751E811E911EA11D8B4A7
:101E280016D0000E0901F26F000EF16F8C0E086ECD
:101E3800090E096EA2EC52F008500910D8A407D078
:101E4800F00E0501C76FDE0EC86F30EC51F08C0E36
:101E5800356E090E366E000E386E010E376E3BEC8D
:101E680009F035C5EBF536C5ECF58C0E356E090E67
:101E7800366E000E386E050E376EE3C5E7F5E4C51D
:101E8800E8F50E0E0501E96FE835E833E733E92F89
:101E9800FBD7010EE715396E3A6A49EC23F08C0E30
:101EA800356E090E366E000E386E050E376E000E52
:101EB8003A6E000E396ECBEC22F08C0E356E090EA0
:101EC800366E000E386E060E376EE3C5E7F5E4C5CC
:101ED800E8F50F0E0501E96FE835E833E733E92F38
:101EE800FBD7010EE715396E3A6A49EC23F08C0EE0
:101EF800356E090E366E000E386E060E376E000E01
:101F08003A6E000E396ECBEC22F0E3C541F5E4C51C
:101F180042F5E5C543F5E6C544F501D80BD0050003
:101F2800FA6E0901CC51FD6ECD51FE6ECE51FF6E99
:101F3800FA5012008C0E356E090E366EEBC537F569
:101F4800ECC538F53BEC09F01200F2C5EDF5F3C528
:101F5800EEF5F4C5EFF5F5C5F0F5F6C5F1F54DEC80
:101F680022F0F2C52EF5F3C52FF5000E306E80EC89
:101F780042F00601006FF2C52EF5F3C52FF5060EE7
:101F8800306E80EC42F00601016FF2C52EF5F3C504
:101F98002FF50A0E306E80EC42F00601026F000E3B
:101FA800096F000E086FD8900835D96E0935DA6EBA
:101FB8008A0ED9260A0EDA22DF50066FD890083525
:101FC800D96E0935DA6E8B0ED9260A0EDA22DF5061
:101FD800076FF2C52BF5F3C52CF506C62DF507C618
:101FE8002EF5B0EC45F0F2C52EF5F3C52FF506C673
:101FF80030F580EC42F00601036F07510319D8B49D
:1020080007D0010E0825046F000E0921056F0CD0BA
:10201800084B092B095104E1090E085DD8A0C3D764
:10202800000E056F000E046FF2C52BF5F3C52CF5F5
:102038000A0E2D6E02C62EF5B0EC45F0F2C52BF552
:10204800F3C52CF5060E2D6E01C62EF5B0EC45F045
:10205800F2C52BF5F3C52CF5000E2D6E00C62EF536
:10206800B0EC45F0F2C508F5F3C509F5870E0A6E20
:10207800F80E0B6E8AEC53F0060104510511D8B422
:102088001200050120EE02F0F251D926F351DA22AE
:10209800000EDE6E000EDD6E1200E9C511F6EAC50F
:1020A80012F60F0EEB25ED6F000EEC21EE6FF00E21
:1020B800ED15EB6FFF0EEE15EC6F000E0601146FB9
:1020C800000E136F87D013C6EDF50F0E0501ED173F
:1020D800D8A41AD0D00EC76FF90EC86FE3C5C9F5DA
:1020E800E4C5CAF5060113510501E525CB6F0601C4
:1020F80014510501E621CC6F000EE721CD6F000ECB
:10210800E821CE6F30EC51F00C0E0501C76FFE0EC2
:10211800C86F060113511125D96E14511221DA6EB8
:10212800DF500501ED6FED51C96FCA6B30EC51F00E
:10213800060113511125D96E14511221DA6E1F0EA2
:10214800DF6421D013511125D96E14511221DA6E92
:102158007F0EDF6018D013511125D96E145112214A
:10216800DA6E0F0E13150501ED6F000E060114153A
:102178000501EE6F000EED25E16E060EEE21E26E12
:10218800DFC4E7F411D00F0E13150501ED6F000E33
:10219800060114150501EE6F000EED25D96E060E29
:1021A800EE21DA6E2E0EDF6E060113510F0B0F0AA9
:1021B800D8A40DD0000E106F7C0E0501C76FF70E66
:1021C800C86F000EC96F060ECA6F30EC51F00601D9
:1021D800134B142B0501EB510601135D0501EC515E
:1021E80006011459D8B012006ED7360E086EFF0ECD
:1021F800096E38EC4DF008C53BF809C53CF8000EEF
:1022080008013B25336F080E3C21346F000E050191
:10221800C76F080EC86FAD0EC96FFF0ECA6F360EB6
:10222800CB6FFF0ECC6F2BEC4AF0000EE36F080E5D
:10223800E46F000EE66F300EE56F3BC8E7F53CC86B
:10224800E8F53BC8E9F53CC8EAF545ECCEF08C0E5C
:10225800C76FDD0EC86F30EC51F033C8E3F534C8F2
:10226800E4F5390E0501E56F080EE66F3D0EE76FE0
:10227800080EE86FE9ECB9F0E3C535F8E4C536F8BF
:10228800080136AF0DD0900E0501C76FDF0EC86F7D
:1022980030EC51F0000E0701CA6F000EC96F120032
:1022A80039C808F53AC809F5000E0B6E0C0E0A6E0F
:1022B80044EC51F0030E0826000E0922C30E082430
:1022C800F66ED60E0920F76EF86A000EF82209009D
:1022D800F5C430F80900F5C431F80A00F5C432F83D
:1022E80035C879F736C87AF73D0E07017B6F080EB7
:1022F8007C6F01D80BD00500FA6E08013051FD6ED5
:102308003151FE6E3251FF6EFA50120079C737F81C
:102318007AC738F8080137290AE13829D8A407D03C
:10232800C50E0501C76FFA0EC86F30EC51F037C8FB
:10233800C9F738C8CAF7120001D80BD00500FA6EE1
:102348000901D851FD6ED951FE6EDA51FF6EFA506F
:102358001200081C06014E6F091C4F6F40C652F64A
:1023680041C653F642C64CF643C64DF64E51521579
:10237800486F4F515315496F48514911D8A43BD064
:1023880046515225486F47515321496FFF0E482542
:102398004A6FFF0E49214B6F4E514A174F514B1749
:1023A8004A514B11D8A427D001D80CD00500FA6E99
:1023B8000801ED51FD6EEE51FE6EEF51FF6EFA50C1
:1023C800000E120052C60EF553C60FF544C610F59E
:1023D80045C611F546C612F547C613F501D81200D1
:1023E8000500FA6E0901D551FD6ED651FE6ED75122
:1023F800FF6EFA501200500E0C6F060E0D6F39EC7E
:10240800F0F00C510D11D8A4120031D0475109E158
:10241800810E465DD8B005D046C654F647C655F677
:1024280004D0000E556F800E546F52C61FF653C667
:1024380020F6000E226F1C0E216F44C623F645C6F7
:1024480024F654C625F655C626F64CC627F64DC6BC
:1024580028F6B2EC20F05451465F5551475B545171
:10246800522755515323545144275551452346511A
:102478004711D8A4CBD7500E106F060E116FC1ECC0
:1024880029F0120001D80BD00500FA6E0901D851C5
:10249800FD6ED951FE6EDA51FF6EFA501200081C1B
:1024A80006014E6F091C4F6F40C652F641C653F6DF
:1024B80042C64CF643C64DF64E515215486F4F5121
:1024C8005315496F48514911D8A43BD0465152255C
:1024D800486F47515321496FFF0E48254A6FFF0E39
:1024E80049214B6F4E514A174F514B174A514B11C7
:1024F800D8A427D001D80CD00500FA6E0801ED51F8
:10250800FD6EEE51FE6EEF51FF6EFA50FF0E120097
:1025180052C60EF553C60FF544C610F545C611F55B
:1025280046C612F547C613F501D812000500FA6E23
:102538000901CF51FD6ED051FE6ED151FF6EFA5098
:102548001200500E0C6F060E0D6F39ECF0F00C51A6
:102558000D11D8A4120031D0475109E1810E465D12
:10256800D8B005D046C654F647C655F604D0000E76
:10257800556F800E546F000E206F1C0E1F6F52C6D1
:1025880021F653C622F644C623F645C624F654C699
:1025980025F655C626F64CC627F64DC628F6B2ECE3
:1025A80020F05451465F5551475B545152275551BD
:1025B8005323545144275551452346514711D8A414
:1025C800CBD7500E106F060E116FC1EC29F0120018
:1025D8001168126808C5D9F409C5DAF4DEC413F520
:1025E800DDC414F513C50FF514C510F513501410F8
:1025F800D8A403D00868096812000FC5F6F410C5FE
:10260800F7F4000EF86E250EF76403D00800F550B5
:1026180005D0F6C4E9F4F7C4EAF4EF500E6E0F4A99
:10262800102A200E0E6404D03A0E0E18D8A4E5D74E
:102638003A0E0E18D8A46BD0000E0D6E010E0C6E5B
:1026480013C5F6F414C5F7F4000EF86E250EF764FA
:1026580003D00800F55005D0F6C4E9F4F7C4EAF44D
:10266800EF500A6E2F0E0A643AD013C5F6F414C55B
:10267800F7F4000EF86E250EF76403D00800F55045
:1026880005D0F6C4E9F4F7C4EAF4EF500A6E3A0E3E
:102698000A6025D0020E13240A6E000E14200B6E59
:1026A8000F500A181CE110500B18D8A418D013C5E5
:1026B800F6F414C5F7F4000EF86E250EF76403D08F
:1026C8000800F55005D0F6C4E9F4F7C4EAF4EF5071
:1026D8000A6ED00E0A240C6E0D6AFF0E0D220DBE76
:1026E80005D00D500FE10C04D8B00CD00CC511F575
:1026F8000DC512F508C5D9F409C5DAF40FC5DEF41D
:1027080010C5DDF411C508F512C509F51200000E53
:10271800096E000E086E1200000E196E17AE12D068
:10272800171E161E151E141E131E121E111E106CC7
:10273800000E112212221322142215221622172209
:10274800010E196E0FAE12D00F1E0E1E0D1E0C1E9E
:102758000B1E0A1E091E086C000E09220A220B22F3
:102768000C220D220E220F22010E191A21EE1AF147
:10277800070EDE6AE806FDE2105011101210131061
:102788001410151016101710D8B446D0010E186E74
:102798000AD0D8901036113612361336143615363C
:1027A80016361736182A17AEF4D7D8901A361B36AD
:1027B8001C361D361E361F36203621361050085C52
:1027C8001150095812500A5813500B5814500C58ED
:1027D80015500D5816500E5817500F58D8A011D034
:1027E8001050085E1150095A12500A5A13500B5AC9
:1027F80014500C5A15500D5A16500E5A17500F5A9D
:102808001A80D89017321632153214321332123217
:1028180011321032182EC9D71950D8B410D0211E31
:10282800201E1F1E1E1E1D1E1C1E1B1E1A6C000EA7
:102838001B221C221D221E221F22202221221AC5F1
:1028480008F51BC509F51CC50AF51DC50BF51EC500
:102858000CF51FC50DF520C50EF521C50FF51200A5
:10286800FEC87DF77BC7D9F47CC7DAF4DE50DE10EA
:10287800D8B479D07BC7D9F47CC7DAF4DEC4FEF6C5
:10288800DDC4FFF6FEC6D9F4FFC6DAF4DF50D8B4CB
:102898006AD0D951D8B416D096C856F697C857F604
:1028A80098C858F699C859F6E00E06015A6F080EEE
:1028B8005B6F000E5D6F010E5C6FFDEC02F0000EA9
:1028C8000801D96F7BC7D9F47CC7DAF4DEC438F5C0
:1028D800DDC439F593EC04F038C596F839C597F896
:1028E8003AC598F83BC599F8630E0501C76FED0E18
:1028F800C86F96C8C9F597C8CAF598C8CBF599C8DE
:10290800CCF530EC51F096C856F697C857F698C8EB
:1029180058F699C859F6E00E06015A6F080E5B6F13
:10292800000E5D6F010E5C6FC8EC03F096C856F69A
:1029380097C857F698C858F699C859F67D0E0601F3
:102948005A6F070E5B6F000E5D6F010E5C6FFDEC3A
:1029580002F0010E0801D96F56C5F5F557C5F6F511
:102968008AEC4CF01AD0D951D8B410D0BD0E05015C
:10297800C76FEF0EC86F96C8C9F597C8CAF598C84B
:10298800CBF599C8CCF530EC51F007D0A70E05016E
:10299800C76FEE0EC86F30EC51F0000E07017A6F6A
:1029A800000E796F12000501F76F0701FDA316D01D
:1029B8005F0E0501C76FE20EC86FF7C5C9F5CA6B90
:1029C80030C6CBF531C6CCF532C6CDF533C6CEF51B
:1029D80034C6CFF535C6D0F530EC51F0000E050100
:1029E800F96F000EF86F75D0060130510801F32514
:1029F8000601156F31510801F4210601166F325195
:102A08000801F5210601176F33510801F621060167
:102A1800186F000E1A6F000E196F2EC61BF62FC600
:102A28001CF6020E1E6F000E1D6F69ECDBF006012E
:102A380015511611D8B416D00701FD51FE11D8B49E
:102A48000FD07B0E0501C76FEB0EC86F30C6C9F5F6
:102A580031C6CAF532C6CBF533C6CCF530EC51F0E9
:102A6800010E12000701FDB3FDA727D0120E0501C4
:102A7800E36FFE0EE46F30C6F3F531C6F4F532C6E7
:102A8800F5F533C6F6F5090ED890F337F437F53770
:102A9800F637E82EF9D7F3C5E5F5F4C5E6F5F5C53B
:102AA800E7F5F6C5E8F52EC6E9F52FC6EAF5020EF4
:102AB800EC6F000EEB6F51EC10F0010E06013027A1
:102AC800000E312332233323020E2F270501F84B42
:102AD800F92B060134510501F85D06013551050150
:102AE800F959D8A081D7000E120008500910D8B49F
:102AF80009D008C5D9F409C5DAF4DEC410F5DDC477
:102B080011F504D057C910F558C911F51050111016
:102B1800D8B407D010C5D9F411C5DAF4DF50D8A459
:102B280002D0000E1ED010C5D9F411C5DAF4270E54
:102B3800DE18D8A405D0000E0E6E104A112A58D0FF
:102B480010C5D9F411C5DAF45C0EDE18D8B40BD070
:102B580010C5D9F411C5DAF4DF500F6E104A112AE6
:102B6800010E0E6E45D020EE01F01050D9261150FE
:102B7800DA22DF50D8B4DFD715D05C0E11D0270E7B
:102B88000FD0220E0DD0090E0BD00A0E09D00D0E53
:102B980007D020EE01F01050D9261150DA22DF506C
:102BA8000F6E21D020EE01F01050D9261150DA22F4
:102BB800DF500C6E0D6A0D50000AD8A4EAD70C50ED
:102BC800220AD8B4DED7050AD8B4D9D77B0AD8B434
:102BD800D4D7320AD8B4D9D71C0AD8B4D8D7060A59
:102BE800D8B4D1D7D6D7020E1026000E1122B8D7E6
:102BF8000A500B10D8B406D00AC5D9F40BC5DAF4BC
:102C08000FC5DFF408500910D8B408D008C5D9F4A6
:102C180009C5DAF410C5DEF411C5DDF410C557F99D
:102C280011C558F90EC508F5096A120022EEACF272
:102C380011EE19F1060EDBC4E3F4E806FCE216C552
:102C480024F517C525F524502510D8A404D0190E4D
:102C5800246E050E256E24C508F525C509F538EC42
:102C68004DF008C528F509C529F552C526F553C5FF
:102C780027F527BE0ED02850265C2750800A186EEC
:102C88002950800A1858D8B004D026C528F527C579
:102C980029F528C526F529C527F5A3C822F5A4C80E
:102CA80023F558A00DD016D0000E0C6E200E0B6E1A
:102CB80014C50DF515C50EF510EC3AF0284A292A69
:102CC8002250285C2950800A186E2350800A185810
:102CD800D8A0EAD7000E216E000E206E1FD024C5A2
:102CE800F6F425C5F7F4000EF86E250EF76403D048
:102CF8000800F55005D0F6C4E9F4F7C4EAF4EF503B
:102D0800186E18500B6E0C6A14C50DF515C50EF526
:102D180010EC3AF0244A252A204A212A2650205C21
:102D28002150800A186E2750800A1858D8A0D7D783
:102D380058B00DD016D0000E0C6E200E0B6E14C5B8
:102D48000DF515C50EF510EC3AF0284A292A22503F
:102D5800285C2950800A186E2350800A1858D8A079
:102D6800EAD728C514F529C515F512001C6E1C50A4
:102D7800D8A417AE1AD014C518F515C519F516C577
:102D88001AF517C51BF5181E191E1A1E1B1E182A20
:102D9800000E19221A221B2218C51EF519C51FF587
:102DA8001AC520F51BC521F508D014C51EF515C593
:102DB8001FF516C520F517C521F514501510161066
:102DC8001710D8A409D0000E146E000E156E000E50
:102DD800166E000E176E1200960E1D6E06D01D2A76
:102DE800D890213220321F321E32000E1E14186E67
:102DF800000E1F14196E000E20141A6EFE0E2114F8
:102E08001B6E185019101A101B10D8B40DD0E7D724
:102E18001D2A010E1E26000E1F2220222122D890D4
:102E2800213220321F321E32000E1E14186E000E80
:102E38001F14196E000E20141A6EFF0E21141B6E3B
:102E4800185019101A101B10D8B407D0E1D71D0656
:102E5800D8901E361F362036213620BE03D0020EEB
:102E68001D60F5D71DA0209ED8901D321DC518F5F0
:102E7800196A1A6A1B6A18C51BF51A6A196A186A48
:102E880018501E1219501F121A5020121B502112CE
:102E98001C50D8A417AE01D0218E1EC514F51FC52D
:102EA80015F520C516F521C517F512002B6F07017A
:102EB800FDA516D08B0E0501C76FE20EC86F2BC695
:102EC800C9F5CA6B21C6CBF522C6CCF523C6CDF50C
:102ED80024C6CEF525C6CFF526C6D0F530EC51F080
:102EE800000E06012D6F000E2C6F75D021510801C0
:102EF800F3250601156F22510801F4210601166F0A
:102F080023510801F5210601176F24510801F62104
:102F18000601186F000E1A6F000E196F1FC61BF6F8
:102F280020C61CF6020E1E6F000E1D6F0EECD0F0B0
:102F3800060115511611D8B416D00701FD51FE111E
:102F4800D8B40FD0940E0501C76FEA0EC86F21C61A
:102F5800C9F522C6CAF523C6CBF524C6CCF530EC94
:102F680051F0010E12000701FDB5FDA729D0120E80
:102F78000501E36FFE0EE46F21C627F622C628F688
:102F880023C629F624C62AF6090ED8900601273743
:102F9800283729372A37E82EF8D727C6E5F528C66F
:102FA800E6F529C6E7F52AC6E8F51FC6E9F520C6FD
:102FB800EAF5020E0501EC6F000EEB6F51EC10F014
:102FC800010E06012127000E222323232423020EAB
:102FD80020272C4B2D2B25512C5D26512D59D8A05F
:102FE80085D7000E12000EC517F50FC518F5000E8F
:102FF800166E20EE04F01750D9261850DA22DE0497
:10300800D8A404D0105058EC4FF0106E20EE03F006
:103018001750D9261850DA22DF50D8B402D0010E42
:1030280001D0000E146E156A000E136E000E126E9B
:1030380010A002D0C08601D0C096D890103220EEE1
:1030480002F01750D9261850DA22DF50D8B414D01D
:10305800010E141A14A002D0C08801D0C09820EE26
:1030680006F01750D9261850DA22DF50196E01D011
:1030780019061950D8A4FCD7010E141A14A002D0AE
:10308800C08801D0C098D0AA03D0116A112A01D0F3
:10309800116A165016241110166E20EE06F01750FD
:1030A800D9261850DA22DF501A6E01D01A061A50A3
:1030B800D8A4FCD720EE02F01750D9261850DA22EF
:1030C800DF50D8A414D0010E141A14A002D0C0885E
:1030D80001D0C09820EE06F01750D9261850DA22F1
:1030E800DF501B6E01D01B061B50D8A4FCD7124A18
:1030F800132A13BE9DD7135004E1080E125CD8A002
:1031080097D720EE04F01750D9261850DA22DE049B
:10311800D8B404D0165058EC4FF0166E1650120062
:10312800E3C5EBF5E4C5ECF520EE02F0EB51D9264A
:10313800EC51DA22E851010BDF6E20EE03F0EB517F
:10314800D926EC51DA22E851020BDF6E20EE04F0AA
:10315800EB51D926EC51DA22E7C5DFF422D020EE74
:1031680006F0EB51D926EC51DA220A0E07D020EEF0
:1031780006F0EB51D926EC51DA22000EDE6E000E75
:10318800DD6E1FD0AC0EC76FE10EC86FF90EC96FA8
:10319800F00ECA6FE5C5CBF5E6C5CCF530EC51F0BD
:1031A80010D0E5C5E9F5E6C5EAF5EA51000AD8A464
:1031B800E9D7E951000AD8B4D2D7010AD8B4D7D789
:1031C800E1D70501E851D8A426D0E705D8A423D033
:1031D80020EE06F0EB51D926EC51DA22DE50DE1053
:1031E800D8A419D020EE08F0EB51D926EC51DA22F8
:1031F800200EDE6E6A0EDE6E000EDE6E20EE0BF026
:10320800EB51D926EC51DA22D60EDE6E510EDE6E67
:10321800000EDE6E1200000EE96F000EEA6F20EE5F
:1032280008F0EB51D926EC51DA22E9C5DEF4EAC5FB
:10323800DEF4200EDD6E000EE96F000EEA6F20EE60
:103248000BF0EB51D926EC51DA22E9C5DEF4EAC5D8
:10325800DEF4200EDD6E12000801D551D8A404D08A
:103268000601C769C8691200000E0601D06F000E7A
:10327800CF6F89D00801D751D819D8A44BD0500E98
:103288000601A76F0A0EA86FD10EA96F060EAA6FC6
:1032980000ECB1F0A7C6CDF6A8C6CEF6CD51CE113A
:1032A800D8A404D0D151D211D8A42FD0CD51CE1149
:1032B800D8B40ED0000E016F000E006FE30E026F3F
:1032C800E50E036FCDC604F6CEC605F6E6EC32F081
:1032D800000E0801D56F0601D0BF0AD0D05103E116
:1032E800CF05D8A005D0CFC6C7F6D0C6C8F61200FD
:1032F800D151D211D8A405D0000EC86F000EC76FE7
:103308001200010E0801D36FABD7000E0801D86F69
:10331800D1C6D7F8D851D7C8CBF60601CC6BCB5F4E
:10332800000ECC5BC951CB5DCA51CC59D8A005D091
:10333800C9C6D1F6CAC6D2F608D00801D851D75D99
:103348000601D16FD26BD8A0D207C7C608F5C8C688
:1033580009F50801D851BF250A6E000EC0210B6E71
:10336800D1C60CF5D2C60DF5F6EC47F00601D151E1
:103378000801D8270601D151C95FD251CA5BD15182
:10338800CF27D251D023C951CA11D8B4ACD772D7DC
:103398009AC87DF79BC87EF79CC87FF79DC880F7C1
:1033A8007BC7D9F47CC7DAF4DE50DE10D8B421D05C
:1033B8007BC7D9F47CC7DAF4DEC4FEF6DDC4FFF6B9
:1033C800FEC6D9F4FFC6DAF4DF50D8B412D07BC7F2
:1033D800D9F47CC7DAF4DEC438F5DDC439F593ECEA
:1033E80004F038C57DF739C57EF73AC57FF73BC588
:1033F80080F7070120EE02F07B51D9267C51DA22B2
:10340800DE50DE10D8B411D020EE02F07B51D92660
:103418007C51DA22DEC4FEF6DDC4FFF6FEC6D9F41E
:10342800FFC6DAF4DF50D8A40DD01C0E0501C76F13
:10343800F20EC86F30EC51F0000E07017A6F000EE3
:10344800796F120020EE02F07B51D9267C51DA22E6
:10345800DEC438F5DDC439F593EC04F038500701C3
:10346800816F7DC756F67EC757F67FC758F680C767
:1034780059F6810E06015A6F070E5B6F000E5D6FDD
:10348800010E5C6FFDEC02F0010E07017D27000EB6
:103498007E237F238023000E086E000E096E810EA6
:1034A8000A6E070E0B6E79EC15F008500910D8A4B7
:1034B800D8D77DC79AF87EC79BF87FC79CF880C786
:1034C8009DF8BAD708C512F509C513F50C500D10AB
:1034D800D8B4120012C5D9F413C5DAF40AC5DFF45A
:1034E8000C5012240E6E0D5013200F6EFF0E0E247A
:1034F800D96EFF0E0F20DA6E0AC5DFF40D5004E115
:10350800030E0C5CD8A0120020EE01F01250D92650
:103518001350DA220AC5DFF420EE02F01250D92641
:103528001350DA220AC5DFF40C5012240E6E0D5027
:1035380013200F6EFE0E0E24D96EFF0E0F20DA6ECA
:103548000AC5DFF40C5012240E6E0D5013200F6EB6
:10355800FD0E0E24D96EFF0E0F20DA6E0AC5DFF4B9
:103568000D5004E1070E0C5CD8A0120020EE03F009
:103578001250D9261350DA220AC5DFF40C5012244F
:103588000E6E0D5013200F6EFC0E0E24D96EFF0E1A
:103598000F20DA6E0AC5DFF40D5004E1090E0C5C49
:1035A800D8A0120012C50EF513C50FF50E1E0F1E7A
:1035B8000E4A0F2A030E0E14106E116A10501226AE
:1035C8001150132210500C5E11500D5AFC0E0C169F
:1035D800FF0E0D160BD012C5D9F413C5DAF40AC5BF
:1035E800DFF40C06D8A00D06124A132A0C500D1051
:1035F800D8B41200F0D7A4C6D9F4A5C6DAF4DEC44C
:10360800A8F6DDC4A9F6A4C666F6A5C667F6000E38
:10361800686F000E696F000E6A6F000E6B6FDBEC4F
:10362800DCF0AB6FAB51D8B403D00601AB5112003C
:10363800A8C641F6A9C642F620EE16F0A451D9262E
:10364800A551DA22DEC443F6DEC444F6DEC445F6EC
:10365800DEC446F6CCEC37F0AB6FAB51D8A4E5D757
:1036680020EE1AF0A451D926A551DA22DEC4A6F616
:10367800DDC4A7F6A6C6D9F4A7C6DAF4DF50AA6F48
:10368800AA51D8A403D0040EAB6FCFD720EE04F014
:10369800A451D926A551DA2210EE1AF0A451E12638
:1036A800A551E22200EE0BF0E650E926E550EA22A9
:1036B800EF503F0BDF6E20EE1AF0A451D926A5512A
:1036C800DA2210EE0BF0DE50E126DD50E222E7B6FA
:1036D8001AD020EE1AF0A451D926A551DA22DEC458
:1036E80008F5DDC409F51C0EA4250A6E000EA521F7
:1036F8000B6E000E0D6E0B0E0C6E22EC38F008509F
:103708000910D8B492D7A4C68AF6A5C68BF6000EBF
:1037180006018D6F000E8C6F8AECD3F0AB6FAB5146
:10372800D8A483D785D7040EB06FA4C6D9F4A5C68C
:10373800DAF4DEC4ACF6DDC4ADF670D0ACC641F642
:10374800ADC642F620EE16F0A451D926A551DA22CC
:10375800DEC443F6DEC444F6DEC445F6DEC446F6EF
:10376800CCEC37F0B06FB051D8A464D020EE1AF08A
:10377800A451D926A551DA22DEC4A8F6DDC4A9F6DB
:10378800A8C6D9F4A9C6DAF4DF50AF6FAF51D8A4F0
:1037980003D0040EB06F4ED020EE1AF0A451D926F3
:1037A800A551DA2210EE0BF0DE50E126DD50E222C0
:1037B800E7503F0BAE6F20EE04F0A451D926A55177
:1037C800DA22AEC6DFF4E50EAF19D8B419D02E0E42
:1037D800AF19D8B415D00F0EAE19D8B411D0AE5158
:1037E800DF0B080AD8A402D0010E01D0000EA86F82
:1037F800A96BA651A81904E1A751A919D8B41AD0E0
:10380800A4C68AF6A5C68BF6000E8D6F000E8C6FC7
:103818008AECD3F0B06FB051D8A40CD020EE16F0DB
:10382800A451D926A551DA22DE50DE10DE10DE10B2
:10383800D8A484D7B051D8B40AD020EE16F0A45139
:10384800D926A551DA22DE6ADE6ADE6ADD6AB0515F
:1038580012000801CA51D8B409D0000ECA6FD3C6E5
:10386800D9F4D4C6DAF40A0EDF6E1200040ECC19AD
:10387800D8B433D0000ECA6F000E0601016F030ED4
:10388800006F7E0E026FF80E036F220E046FF50EA6
:10389800056F010E076F220E066FE6EC32F0970EE9
:1038A8000601B06F090EB16FAFEC4BF053EC4AF064
:1038B800AF51B011D8B40ED08F0E0501C76FEC0E02
:1038C800C86F30EC51F0D3C6D9F4D4C6DAF41A0E66
:1038D800DF6E1200040E0801CC6F970E216E090EE0
:1038E800226E940E236EA50E246E000E256E130E06
:1038F800276E880E266EA2EC33F0D3C6C7F6D4C660
:10390800C8F6000E0601CA6F010EC96F30EC19F037
:10391800C7C6D5F6C8C6D6F6D505D611D8B411D0BF
:10392800D6AF07D0910E0501C76FEF0EC86F30EC08
:1039380051F0970E0601B06F090EB16FAFEC4BF066
:10394800C2D7970E216E090E226E940E236EA50E15
:10395800246E000E256E270E276E100E266EA2EC22
:1039680033F0000E0801CB6FD3C608F5D4C609F5AD
:10397800BDEC4DF008500910D8A46BD71200E151E6
:10398800E211D8A402D0090E1200E30EB36F060E9E
:10399800B46FE50EB56F060EB66F000EB76F14EC78
:1039A8009FF00601E76FE751D8A470D0E1C6D9F4BB
:1039B800E2C6DAF4E5C6DEF4E6C6DDF4E1C6ACF646
:1039C800E2C6ADF6E3C6AEF6E4C6AFF6CEECE9F075
:1039D800E76FE751D8A454D020EE27F0E151D9265B
:1039E800E251DA22DFBE2AD020EE04F0E151D926D6
:1039F800E251DA22DFA820D0E5C60FF5E6C610F5B9
:103A080020EE1AF0E151D926E251DA22DEC411F58E
:103A1800DDC412F597EC41F0060120EE06F0E15105
:103A2800D926E251DA220FC5DEF410C5DEF411C53D
:103A3800DEF412C5DEF402D0050EE76FE751D8A414
:103A48001FD020EE06F0E551D926E651DA2210EE15
:103A580002F0E151E126E251E222DEC4E6F4DDC4DF
:103A6800E5F4E1C666F6E2C667F6000E686F000E7A
:103A7800696F000E6A6F000E6B6FDBECDCF0E76FAE
:103A8800040EE719D8A402D0050EE76FE751D8B4A1
:103A980008D0E1C6D9F4E2C6DAF4000EDE6E000EF4
:103AA800DD6EE751120041C62EF642C62FF6BBEC7A
:103AB8000AF00009D8B402D0010E120041C61BF565
:103AC80042C61CF543C61DF544C61EF545C61FF57E
:103AD80046C620F527EC32F01BC54BF61CC54CF644
:103AE8001DC54DF61EC54EF6060120EE30F04151BB
:103AF800D9264251DA224BC6DEF44CC6DEF44DC656
:103B0800DEF44EC6DEF4340E4125086E000E422166
:103B1800096E000E0B6E000E0A6E020E0D6E000E80
:103B28000C6E66EC1AF0340E06014125496F000E42
:103B380042214A6F000E506F010E4F6F000E526FF8
:103B4800000E516F05D006014F5151275051522395
:103B580020EE0AF04151D9264251DA22DE50515D59
:103B6800DE505259D8B020D049C61FF64AC620F6B2
:103B780051514B25216F52514C21226F000E4D217E
:103B8800236F000E4E21246F4FC625F650C626F629
:103B980020EE01F04151D9264251DA22DF505AEC89
:103BA80017F00009D8B4CFD7060120EE0AF041512A
:103BB800D9264251DA225151DE1804E15251DE1859
:103BC800D8B402D0010E1200000E1200000E196EB9
:103BD8000FAE12D00F1E0E1E0D1E0C1E0B1E0A1E3F
:103BE800091E086C000E09220A220B220C220D2243
:103BF8000E220F22010E196E17AE10D0171E161EB8
:103C0800151E141E131E121E111E106C000E1122FA
:103C180012221322142215221622172210501110D4
:103C2800121013101410151016101710D8B43CD019
:103C3800010E186E0AD0D890103611361236133687
:103C48001436153616361736182A17AEF4D710500C
:103C5800085C1150095812500A5813500B58145048
:103C68000C5815500D5816500E5817500F58D8A00C
:103C780010D01050085E1150095A12500A5A1350A9
:103C88000B5A14500C5A15500D5A16500E5A1750FC
:103C98000F5AD890173216321532143213321232A4
:103CA80011321032182ED3D71950D8B410D00F1E95
:103CB8000E1E0D1E0C1E0B1E0A1E091E086C000E81
:103CC80009220A220B220C220D220E220F2208C5DD
:103CD80008F509C509F50AC50AF50BC50BF50CC5A4
:103CE8000CF50DC50DF50EC50EF50FC50FF5120037
:103CF800000E166E000E156E000E146E000E136E7A
:103D080002D00E4A0F2A0EC5F6F40FC5F7F4000EBE
:103D1800F86E0800F550200AD8B4F3D70EC5F6F4AB
:103D28000FC5F7F4000EF86E0800F5C410F5F70E8D
:103D38001024116E126AFF0E122212500CE1050EA9
:103D4800115CD8B008D0DDD7000E146E010E136ECA
:103D58000E4A0F2A32D00EC5F6F40FC5F7F4000E3E
:103D6800F86E0800F550106E116A1150000AD8A4B8
:103D780024D010502B0AD8B4EBD7060AD8B4E4D70D
:103D88001CD015C508F516C509F5000E0B6E0A0EF0
:103D98000A6E44EC51F00EC5F6F40FC5F7F4000EA8
:103DA800F86E0800F550085E000E095A300E082417
:103DB800156E000E0920166ECBD70EC5F6F40FC58A
:103DC800F7F4000EF86E0800F5C410F5D00E1024B4
:103DD800116E126AFF0E1222125004E10A0E115CD3
:103DE800D8A0CFD713501410D8A40DD015C510F5EE
:103DF80016C511F5101E111E104A112A10C50EF510
:103E080011C50FF5120015C50EF516C50FF51200F0
:103E180056500801F91958E15750FA19D8A454D046
:103E280009015D515E11D8B44FD07A517B11D8A4E5
:103E38004BD056500601086F5750096F0A6B0B6B31
:103E480009C60BF608C60AF6096B086B08C6EDF535
:103E580009C6EEF50AC6EFF50BC6F0F5AC0E05017E
:103E6800F16FD90EF26F000EF46F290EF36FA9EC03
:103E780040F056500601086F5750096F0A6B0B6BDC
:103E880009C60BF608C60AF6096B086B290E082541
:103E98000501ED6F000E060109210501EE6F000E08
:103EA80006010A210501EF6F000E06010B2105012D
:103EB800F06F680EF16F090EF26F000EF46F160EB8
:103EC800F36FA9EC40F0120056C5FDF557C5FEF595
:103ED800B5EC3FF056500601086F5750096F0A6B52
:103EE8000B6B09C60BF608C60AF6096B086BA10E20
:103EF80008250501ED6F000E060109210501EE6F89
:103F0800000E06010A210501EF6F000E06010B21C4
:103F18000501F06F680EF16F090EF26F000EF46F75
:103F2800160EF36FA9EC40F01200E5C5FCF5E6C5E6
:103F3800FDF50F0E0501E725E96F000EE821EA6F90
:103F4800F00EE915E76FFF0EEA15E86F000EFF6F38
:103F5800000EFE6F70D0FEC5E9F50F0EE917D8A464
:103F68000ED09D0EC76FFA0EC86FE3C5C9F5E4C53C
:103F7800CAF5FEC5CBF5FFC5CCF530EC51F00C0EFB
:103F88000501C76FFE0EC86FFE51FC25D96EFF51A3
:103F9800FD21DA6EDF50E96FE951C96FCA6B30EC69
:103FA80051F00501FE51FC25D96EFF51FD21DA6E55
:103FB8001F0EDF641ED0FE51FC25D96EFF51FD2176
:103FC800DA6E7F0EDF6015D0FE51FC25D96EFF51E9
:103FD800FD21DA6E0F0EFE15E96F000EFF15EA6F70
:103FE800EB0EE925E16E050EEA21E26EDFC4E7F487
:103FF8000ED00F0EFE15E96F000EFF15EA6FEB0EDF
:10400800E925D96E050EEA21DA6E2E0EDF6EFE5115
:104018000F0B0F0AD8A40CD0000EFB6F7C0EC76FD5
:10402800F70EC86FEB0EC96F050ECA6F30EC51F072
:104038000501FE4BFF2BE751FE5DE851FF59D8B053
:10404800120089D7B80EF66E9C0EF76E000EF86E49
:1040580002EEB2F310EE3AF00900F5C4EEF4E550C2
:10406800E150FAE12A0EF66E8A0EF76E000EF86E2F
:1040780002EE8AF210EE69F00900F5C4EEF4E5509C
:10408800E150FAE16E0EF66EA50EF76E000EF86EB0
:1040980002EEEDF110EE13F00900F5C4EEF4E55070
:1040A800E150FAE1600EF66EA60EF76E000EF86E9D
:1040B80002EEF3F010EE0DF00900F5C4EEF4E55051
:1040C800E150FAE103EE00F314EE00F1EE6AE55078
:1040D800E150FCE1E250FAE103EE00F210EE00F1EB
:1040E800EE6AE550E150FCE1E250FAE103EE00F13E
:1040F800C00EEE6AE806FDE103EE00F0B00EEE6ACF
:10410800E806FDE102EE00F3B20EEE6AE806FDE114
:1041180002EE00F28A0EEE6AE806FDE102EE00F118
:10412800B10EEE6AE806FDE102EE91F0500EEE6A7D
:10413800E806FDE10701FF6BFE6BFD6B01EE52F136
:10414800070EEE6AE806FDE10401080E5D6F000E39
:104158005E6F000E5F6F0001CFEFF9F021EE2EF2D7
:10416800110EDE6AE806FDE2EB0E2E6FD90E2F6FF8
:10417800000E316F000E306F000E336F1C0E326F61
:10418800290E346F060E356F000E376F040E366F2A
:10419800000E396F050E386F2505010E2659D8A077
:1041A80013D0DA0E0501E36FF70EE46F800EE56FAA
:1041B800DE0EE66F000EE86F960EE76F8E0EE96F63
:1041C800F20EEA6FD9EC4FF021C629F622C62AF67C
:1041D8001FC62BF620C62CF625C62DF61C0E06018A
:1041E80021192211D8A423D023C63AF624C63BF6B7
:1041F80021C63CF622C63DF625C63EF626C63FF643
:104208002E0E066F060E076F000E096F030E086F5D
:10421800000E0A6F000E0B6F000E0D6F000E0C6F74
:1042280027C60EF628C60FF649ECFDF0120023C685
:104238003AF624C63BF61FC63CF620C63DF625C610
:104248003EF626C63FF62E0E066F060E076F000EC8
:10425800096F020E086F3A0E0A6F060E0B6F000EFA
:104268000D6F010E0C6F27C60EF628C60FF649EC27
:10427800FDF0120065D0F351F411D8B4120043C414
:104288001CF944C41DF945C41EF9000E0401436F0E
:10429800000E446F000E456F000E436F000E446F12
:1042A800000E456F000E0901F46F000EF36F040154
:1042B80046AB1200040146B902D046891200040137
:1042C80046991200F351F411D8A412001CC943F402
:1042D8001DC944F41EC945F41CC943F41DC944F45E
:1042E8001EC945F4000EF46F010EF36F12000401AD
:1042F80046BB1200DFD709BE1200095011E10804BD
:10430800D8A012000DD0040146B902D0468902D0C7
:104318000401469946B902D0468902D0040146995B
:1043280008500A6E09500B6E010E085E000E095AFD
:104338000BBE12000B50E7E10A04D8A01200E3D725
:1043480008C50AF509C50BF50B50000AD8B404D006
:10435800FF0AD8B406D0CFD70A50000AD8B48BD7F2
:10436800CAD70A50FB0AD8B4A5D7070AD8B49FD72A
:10437800010AD8B4BCD7030AD8B41200010AD8B4C9
:10438800A1D7B9D7000E136E000E126E0DC5D9F461
:104398000EC5DAF4DEC40FF5DDC410F50FC5D9F487
:1043A80010C5DAF4300EDE18D8A416D00DC5D9F42D
:1043B8000EC5DAF410EE01F0DE50E126DD50E222FF
:1043C800780EE618D8A408D0020E0DC5D9F40EC58B
:1043D800DAF4DE26000EDD220DC5D9F40EC5DAF4B6
:1043E800DEC40FF5DDC410F50FC5D9F410C5DAF435
:1043F800DF50146E600E146405D0670E146002D08E
:10440800200E145E2F0E146403D0390E146407D0E6
:10441800400E14640CD0460E146401D008D0124A21
:10442800132A0DC5D9F40EC5DAF4DE2AD3D70DC583
:10443800D9F40EC5DAF4DEC40FF5DDC410F50FC5E6
:10444800D9F410C5DAF4680EDE18D8B410D00DC54A
:10445800D9F40EC5DAF4DEC40FF5DDC410F50FC5C6
:10446800D9F410C5DAF4480EDE18D8A407D00DC563
:10447800D9F40EC5DAF4DE2A000EDD220DC508F5E2
:104488000EC509F5A7EC4FF012C50DF513C50EF5CD
:104498001200EDC5D9F4EEC5DAF46F0EDE6E0A0E21
:1044A800DD6E20EE06F0ED51D926EE51DA22F1C587
:1044B800DFF420EE07F0ED51D926EE51DA22FF0E97
:1044C800DF6E20EE08F0ED51D926EE51DA22000E0B
:1044D800DF6EEDC5D9F4EEC5DAF4DEC408F5DDC447
:1044E80009F567EC53F0EDC5D9F4EEC5DAF4DEC48E
:1044F800E3F5DDC4E4F5EFC5E5F5F0C5E6F5010E35
:104508000501E76F000EE86F94EC18F020EE04F058
:10451800ED51D926EE51DA22000EDE6E000EDD6E68
:10452800EDC52BF5EEC52CF5000E2D6E20EE07F02F
:10453800ED51D926EE51DA22DF502E6EB0EC45F05F
:10454800EDC52BF5EEC52CF50A0E2D6E050120EEF6
:1045580008F0ED51D926EE51DA22DF502E6EB0EC7C
:1045680045F0EDC508F5EEC509F5870E0A6EF80E9B
:104578000B6E8AEC53F0050120EE02F0ED51D926BE
:10458800EE51DA22010EDE6E000EDD6E120020EE14
:1045980002F03550D9263650DA22DE50DE10D8B473
:1045A800120020EE04F03550D9263650DA22DE50BB
:1045B800DE10D8B42DD039503A10D8A416D037C54B
:1045C8003BF5010E3C6E3B2A02D0D8903C363B2E80
:1045D800FCD73C50FF0A3D6E20EE09F03550D92635
:1045E8003650DA223D50DF16120037C53BF5010E72
:1045F8003C6E3B2A02D0D8903C363B2EFCD720EEAE
:1046080009F03550D9263650DA223C50DF12120014
:1046180039503A10D8A416D037C53BF5010E3C6E78
:104628003B2A02D0D8903C363B2EFCD73C50FF0AA0
:104638003D6E20EE07F03550D9263650DA223D502F
:10464800DF1612D037C53BF5010E3C6E3B2A02D06F
:10465800D8903C363B2EFCD720EE07F03550D926B3
:104668003650DA223C50DF1235C52BF536C52CF50D
:10467800000E2D6E20EE07F03550D9263650DA227E
:10468800DF502E6EB0EC45F0120020EE02F03550EF
:10469800D9263650DA22DE50DE10D8B4120020EEC9
:1046A80004F03550D9263650DA22DE50DE10D8B460
:1046B8002DD039503A10D8B413D037C53BF5010E78
:1046C8003C6E3B2A02D0D8903C363B2EFCD720EEDD
:1046D8000AF03550D9263650DA223C50DF12120043
:1046E80037C53BF5010E3C6E3B2A02D0D8903C36CC
:1046F8003B2EFCD73C50FF0A3D6E20EE0AF03550A9
:10470800D9263650DA223D50DF16120039503A10B9
:10471800D8B413D037C53BF5010E3C6E3B2A02D006
:10472800D8903C363B2EFCD720EE08F03550D926E1
:104738003650DA223C50DF1215D037C53BF5010E52
:104748003C6E3B2A02D0D8903C363B2EFCD73C50DE
:10475800FF0A3D6E20EE08F03550D9263650DA2291
:104768003D50DF1635C52BF536C52CF50A0E2D6ED6
:1047780020EE08F03550D9263650DA22DF502E6E5A
:10478800B0EC45F01200A4C6D9F4A5C6DAF4DEC42C
:10479800ABF6DDC4ACF6A4C666F6A5C667F6000E91
:1047A800686F000E696F000E6A6F000E6B6FDBECAE
:1047B800DCF0AF6FAF51D8A45BD0000EAE6F000E27
:1047C800AD6FABC641F6ACC642F620EE16F0A4516A
:1047D800D926A551DA22DEC443F6DEC444F6DEC487
:1047E80045F6DEC446F6CCEC37F0AF6FAF51D8A42F
:1047F8003FD020EE1AF0A451D926A551DA22DEC402
:10480800A8F6DDC4A9F6A8C6D9F4A9C6DAF4E50E57
:10481800DE18D8B411D020EE1AF0A451D926A5512B
:10482800DA22DEC4A8F6DDC4A9F6A8C6D9F4A9C65A
:10483800DAF4DF50D8A40AD0AD4BAE2BA651AD198F
:1048480009E1A751AE19D8B413D004D0000EAE6F49
:10485800000EAD6FA4C68AF6A5C68BF6000E8D6F46
:10486800010E8C6F8AECD3F0AF6FAF51D8B4A9D7D3
:10487800040EAF19D8A402D0070EAF6FAF511200C3
:104888000801A951AA11D8A413D0140E0501E36F89
:10489800F00EE46F080EE56FDD0EE66F000EE86FB0
:1048A8003D0EE76F4F0EE96FF50EEA6FD9EC4FF04A
:1048B8000501EB510801A7250501ED6FEC51080131
:1048C800A8210501EE6F0801A551A9250501EF6F83
:1048D8000801A651AA210501F06FED51EF5DEE51D7
:1048E800F059D8B039D08F0EC76FDD0EC86F4F0E94
:1048F800C96FF50ECA6FEBC5CBF5ECC5CCF5A7C8EB
:10490800CDF5A8C8CEF5CF6BD06B0801A751A95D2E
:104918000501ED6F0801A851AA590501EE6F0801BC
:10492800A5510501ED25D16F0801A6510501EE211C
:10493800D26F30EC51F04B0E0501C76FE50EC86F12
:104948004F0EC96FF50ECA6F30EC51F0000E05011D
:10495800EB6F000EEC6F1200A7C8F1F5A8C8F2F5CE
:10496800EB510801A7270501EC510801A823F1C55F
:10497800EBF5F2C5ECF512000CC513F50DC514F5F1
:104988000EC515F50FC516F51006D8A01106102886
:104998000FE11128D8A40CD0000E0D6E000E0C6E7D
:1049A8001200134A142A154A162A1006D8A011060E
:1049B80013C5F6F414C5F7F4000EF86E250EF76467
:1049C80003D00800F55005D0F6C4E9F4F7C4EAF4BA
:1049D800EF500009D8B42CD015C5F6F416C5F7F475
:1049E800000EF86E0800F5500009D8B421D0105018
:1049F8001110D8B41DD015C5F6F416C5F7F4000E7D
:104A0800F86E0800F5C412F513C5F6F414C5F7F4EA
:104A1800000EF86E250EF76403D00800F55005D097
:104A2800F6C4E9F4F7C4EAF4EF501218D8B4B9D7C9
:104A380013C5F6F414C5F7F4000EF86E250EF764E6
:104A480003D00800F55005D0F6C4E9F4F7C4EAF439
:104A5800EF50126E15C5F6F416C5F7F4000EF86E91
:104A68000800F550125C0C6E0D6AD8A00D061200F5
:104A78008C0E0901E16F790EE26F000EE36F2C0EC8
:104A8800DB6F9A0EDC6F000EDD6F820ED26FA50E03
:104A9800D36F000ED46FEC0ED86FA60ED96F000E30
:104AA800DA6F720ED56F850ED66F000ED76F8C0E2B
:104AB800CF6F840ED06F000ED16F7C0EB46F420E94
:104AC800B56F000EB66F6C0EC96FA40ECA6F000EDC
:104AD800CB6F0C0EC36FA70EC46F000EC56F000E10
:104AE8000A01F66F000EF76F000EF86F080E090145
:104AF800C06FA70EC16F000EC26FF40E0801E16F00
:104B0800A60EE26F000EE36FFC0EED6FA60EEE6FC1
:104B1800000EEF6FAA0E0901B76FA60EB86F000E50
:104B2800B96F000E0A01F36F000EF46F000EF56FF7
:104B38009E0E0801E76FA60EE86F000EE96F520E91
:104B4800E46FA60EE56F000EE66F280E0901B16F3F
:104B5800A60EB26F000EB36F440EBA6FA60EBB6FEF
:104B6800000EBC6F1200000184838481000E886FE0
:104B7800000E8B6F8599868386810501E705D8A489
:104B880003D00001849502D0000184850501E85115
:104B9800D8A405D00001859F858D859B0ED0970EE2
:104BA800C76FE50EC86F790EC96FF30ECA6FE8C5F7
:104BB800CBF5CC6B30EC51F0FFD7000E8C6F2DD0BD
:104BC800020E00018C6F020E896F12000F0E000199
:104BD800896F1200070E0001896F1200050E00018F
:104BE800896F1200040E0001896F1200030E000184
:104BF800896F1200020E0001896F1200AC0EC76F98
:104C0800E10EC86F790EC96FF30ECA6FE5C5CBF513
:104C1800E6C5CCF530EC51F01200E5C5E9F5E6C57E
:104C2800EAF50501EA51000AD8A4E8D7E951000AD3
:104C3800D8B4C6D7010AD8B4C9D7030AD8B4CAD7D2
:104C4800010AD8B4CBD7070AD8B4CCD7010AD8B44C
:104C5800CDD7030AD8B4CED7D1D7E951EA11D8B401
:104C68000CD0E9C5D9F4EAC5DAF4EF0EDE6EBE0E53
:104C7800DE6EAD0EDE6EDE0EDD6EE4511CE1100E52
:104C8800E35DD8B018D0B30EEB6F0A0EEC6F020ECE
:104C9800EB27000EEC23D890E335D96EE435DA6EB5
:104CA800D890D936DA36EB51D926EC51DA22DE50D3
:104CB800DE10D8A40ED0D00EC76FF10EC86FE3C5B2
:104CC800C9F5E4C5CAF530EC51F00501E369E469BA
:104CD8001200E951EA11D8B433D0B30EEB6F0A0EC3
:104CE800EC6FD890E335D96EE435DA6ED890D936C2
:104CF800DA36EB51D926EC51DA22DEC408F5DDC4E8
:104D080009F5E5C50AF5E6C50BF544EC51F00501D2
:104D1800E7510826E8510922FF0E0824ED6FFF0E1F
:104D28000920EE6FEF6BF06BE9C5D9F4EAC5DAF448
:104D3800EDC5DEF4EEC5DEF4EFC5DEF4F0C5DEF455
:104D4800000EE46F000EE36F1200DA0E1D6E080EFF
:104D58001E6E0EC508F50FC509F556EC3DF00EC5DB
:104D6800D9F40FC5DAF413C5DEF414C5DEF415C59D
:104D7800DEF416C5DEF420EE04F00E50D9260F50EE
:104D8800DA2210C5DEF411C5DEF412C5DEF441D016
:104D98001DC5D9F41EC5DAF4DEC417F5DDC418F54F
:104DA80017C5D9F418C5DAF41350DE5C1450DE5870
:104DB8001550DE581650DE58D8A01DD01DC5D9F4A0
:104DC8001EC5DAF410EE07F0DE50E126DD50E222CF
:104DD80020EE07F00E50D9260F50DA22E6C4DEF492
:104DE800E5C4DDF41DC5D9F41EC5DAF40EC5DEF43C
:104DF8000FC5DDF412001DC5D9F41EC5DAF4DEC4F2
:104E080017F5DDC418F5070E17241D6E000E1820BF
:104E18001E6E1DC5D9F41EC5DAF4DE50DE10D8A406
:104E2800B7D720EE07F00E50D9260F50DA22000E21
:104E3800DE6E000EDD6ED6D70601B76FB70E06011F
:104E4800B46F060EB56FB0EC49F0B451B511D8A4E3
:104E58001200030E0801CC19D8B432D0970E0601FF
:104E6800B06F090EB16FAFEC4BF0470E0501C76F7D
:104E7800DE0EC86F30EC51F0AF0E0601AF6FF60EC4
:104E8800B06FFF0EB16FFF0EB26FFF0EB36FFF0E64
:104E9800B46F6CEC2BF0AF51B011D8B40ED0080140
:104EA800CB51D8A41200010ECB6F740E0501C76F49
:104EB800EC0EC86F30EC51F01200030E0801CC6FF5
:104EC800B70E0601486F060E496F000E4B6F010EB4
:104ED8004A6F0AEC28F048054911D8B40ED00801E9
:104EE800CB51D8A40DD0010ECB6F350E0501C76F7D
:104EF800EF0EC86F30EC51F003D0000E0801CB6FF5
:104F0800970E216E090E226E940E236EA50E246E46
:104F1800000E256E030E276EE80E266EA2EC33F007
:104F280012000A500B10D8A416D00801C751D8B4E3
:104F38000BD0C707310EC725D96EDA6A090EDA22F7
:104F4800DF500C6E0C502DD061EC53F008C511F5F4
:104F580009C512F556D020EE07F00A50D9260B5095
:104F6800DA22DE50DE10D8B41FD020EE07F00A5047
:104F7800D9260B50DA22DE06000EDD5ADEC40CF507
:104F8800DDC40DF50C500A240E6E0D500B200F6E6B
:104F9800050E0E24D96E000E0F20DA6EDF50106E4B
:104FA8001050116E126A2DD020EE03F00A50D92647
:104FB8000B50DA22DEC40CF5DDC40DF50AC5D9F4B0
:104FC8000BC5DAF4DEC40EF5DDC40FF50C500E2463
:104FD800D96E0D500F20DA6EDF50106E1050116E22
:104FE800126A11501210D8A403D01168126809D09F
:104FF80020EE03F00A50D9260B50DA22DE2A000EE2
:10500800DD2211C50AF512C50BF512000801D551AC
:10501800D8A404D00601486949691200000E0601A7
:105028004D6F000E4C6F61D0800E0501FD6F000EB4
:10503800FE6F0801D8510501FD5F000EFE5B0601F9
:105048004A510501FD5D06014B510501FE59D8A0E5
:1050580005D04AC64EF64BC64FF60CD00801D851BB
:10506800800806014E6F0801000ED8A0E82A000843
:1050780006014F6F0801D851BF25086E000EC021E8
:10508800096E48C60AF549C60BF54EC60CF54FC65B
:105098000DF5F6EC47F006014E510801D827800EB1
:1050A800D819D8A419D051EC48F046514711D8B4B2
:1050B80010D04DBF0AD04D5103E14C05D8A005D002
:1050C8004CC648F64DC649F61200010E0801D36FCA
:1050D800A1D7000E0801D86F06014E514A5F4F5103
:1050E8004B5B4E514C274F514D234A514B11D8B46D
:1050F800E7D79AD7000E1A6E000E196E12C5D9F4AA
:1051080013C5DAF4DEC414F5DDC415F514C5D9F4F5
:1051180015C5DAF4270EDE18D8A432D012C5D9F492
:1051280013C5DAF4DE2A000EDD22DEC417F5DDC46D
:1051380018F512C508F513C509F5000E0A6E000E1C
:105148000B6E79EC15F008500910D8A4F2D712C5E7
:10515800D9F413C5DAF4DEC414F5DDC415F5175017
:10516800145C196E185015581A6E12C508F513C537
:1051780009F51EEC4CF019C512F51AC513F5120005
:1051880012C5D9F413C5DAF4DEC414F5DDC415F577
:1051980014C5D9F415C5DAF4DF501B6E200E1B18A0
:1051A800D8B4E3D72C0E1B18D8B4DFD73D0E1B1884
:1051B800D8B4DBD71B50D8B4D8D7194A1A2A12C585
:1051C800D9F413C5DAF4DE2A000EDD22D9D70AC5D0
:1051D80010F50BC511F50C5010240E6E0D50112052
:1051E8000F6EC08658D0000E126EC088D0AA02D0AA
:1051F800010E01D0000E1212C098D8901236C08845
:10520800D0AA02D0010E01D0000E1212C098D89078
:105218001236C088D0AA02D0010E01D0000E121298
:10522800C098D8901236C088D0AA02D0010E01D0FA
:10523800000E1212C098D8901236C088D0AA02D098
:10524800010E01D0000E1212C098D8901236C088F4
:10525800D0AA02D0010E01D0000E1212C098D89028
:105268001236C088D0AA02D0010E01D0000E121248
:10527800C098D8901236C088D0AA02D0010E01D0AA
:10528800000E1212C09810C5D9F411C5DAF412C56F
:10529800DFF4104A112A0E50105C0F501158D8B084
:1052A8001200A1D706010351561804E104515718FA
:1052B800D8B4120009015F510601035D0451800A48
:1052C800056F09016051800A06010559D8A015D05B
:1052D8000801FF51D8B411D0000EFF6F910E0501DF
:1052E800C76FE70EC86F03C6C9F504C6CAF530EC28
:1052F80051F0000EC66F010EC56F09012851291122
:105308002A11D8B414D056C5FBF557C5FCF503C609
:10531800FDF504C6FEF501D80AD00500FA6E28513D
:10532800FD6E2951FE6E2A51FF6EFA50120003C617
:1053380056F504C657F556500601056F5750066FC7
:10534800076B086B06C608F605C607F6066B056BFD
:1053580005C641F506C642F507C643F508C644F535
:1053680001D812000500FA6E0901CC51FD6ECD512D
:10537800FE6ECE51FF6EFA50120010C6D9F411C657
:10538800DAF45A0EDE18DE10D8B4120010C6D9F4BA
:1053980011C6DAF4DE50DE10D8B412006CEC53F00B
:1053A8005A0E08180910D8B413D07B0E0501E36F04
:1053B800DB0EE46F260EE56FDF0EE66F030EE86F77
:1053C800970EE76F1D0EE96FEA0EEA6FD9EC4FF002
:1053D80066EC4CF0000E0901546F460E536F000E38
:1053E8000501EB6F000EEC6F1A0EAFECC2F03DEC4E
:1053F80030F0000E0901546F320E536F10C6D9F405
:1054080011C6DAF40A0EDE18DE10D8A418D001D8B6
:105418000BD00500FA6EB151FD6EB251FE6EB3515C
:10542800FF6EFA50000E1200000E446E010E436E1D
:10543800D4EC51F0000E0901546F0A0E536F10C6D8
:10544800D9F411C6DAF4000EDE6E000EDD6E12001D
:10545800000E0501F16F000EF06FF0C508F5F1C5FB
:1054680009F5020E0B6E220E0A6E44EC51F0000E86
:1054780008240501ED6F0F0E0920EE6FED51EB19B1
:1054880046E1EE51EC19D8A442D0F0C5EDF5010E75
:10549800EE6F000EEF6FED2B03D0D890EE37EF379D
:1054A800ED2FFBD70901FD510501EE170901FE514A
:1054B8000501EF17EE51EF11D8B412D0590EE36F72
:1054C800EA0EE46FD00EE56FDD0EE66F000EE86FB2
:1054D800880EE76F840EE96FFA0EEA6FD9EC4FF089
:1054E800F0C5EDF5010E0501EE6F000EEF6FED2B27
:1054F80003D0D890EE37EF37ED2FFBD70501EE51EB
:105508000901FD130501EF510901FE131200F04BCB
:10551800F12BF1BFA2D7F15105E1060EF05DD8B02D
:1055280012009BD71200E3C6E7F6E4C6E8F6E70EDA
:10553800086E060E096EECEC12F008C5EBF609C50C
:10554800ECF60601ECAF02D00B0E1200D890EB354A
:10555800D96EEC35DA6EAB0ED926080EDA22DEC427
:10556800E9F6DDC4EAF6E951EA11D8B413D0D890C7
:10557800EB35D96EEC35DA6EAB0ED926080EDA2289
:10558800000EDE6E000EDD6EE9C6D9F4EAC6DAF466
:10559800000EDF6EE151E211D8B41BD020EE01F00D
:1055A800E151D926E251DA22EBC6DFF4E1C6D9F49B
:1055B800E2C6DAF4000EDF6ED890EB35D96EEC3522
:1055C800DA6EAB0ED926080EDA22E1C6DEF4E2C6A0
:1055D800DDF4E551D8A402D0000E1200E30EB36F3B
:1055E800060EB46FE10EB56F060EB66F000EB76FFC
:1055F80014EC9FF00601E66FE651120006012C6FCD
:1056080022EEB2F311EE00F2290EDBC4E3F4E80651
:10561800FCE2000E06012E6F000E2D6F2DC608F558
:105628002EC609F5000E0B6E030E0A6E44EC51F0FF
:10563800000E0824D96E060E0920DA6E06012C51D8
:10564800DE18D8B408D02D4B2E2B2E5104E10E0EA7
:105658002D5DD8A0E3D72E512CE10E0E2D5DD8B0CC
:1056680028D02DC608F52EC609F5000E0B6E030EC0
:105678000A6E44EC51F0010E0826000E0922000EB5
:105688000824D96E060E0920DA6EDEC42AF6DDC4B7
:105698002BF6C70E0501C76FF90EC86FE3C5C9F52C
:1056A800E4C5CAF52AC6CBF52BC6CCF530EC51F0CB
:1056B8001200BE0E0501C76FF90EC86FE3C5C9F524
:1056C800E4C5CAF52CC6CBF5CC6B30EC51F0120012
:1056D8000FEC2DF0ADC6B5F6AEC6B6F6B551B6119F
:1056E800D8B405D0B5C6AFF6B6C6B0F61200000EEF
:1056F8000801D46F500E086E0A0E096EBFC80AF56D
:10570800C0C80BF524EC48F0500E06014A6F0A0E8B
:105718004B6FAFC64CF6B0C64DF6B1C64EF6B2C624
:105728004FF6B3C650F6B4C651F610ECE5F04AC6CB
:10573800B5F64BC6B6F60601B551B611D8B426D0A3
:10574800000E016F000E006FF80E026FE70E036F78
:10575800B5C604F6B6C605F6E6EC32F0010E080149
:10576800D36F3CECF2F09B0E0501C76FF30EC86FC8
:10577800650EC96FF40ECA6F000ECC6F680ECB6F42
:1057880030EC51F00601AF69B0691200010E080152
:10579800D56F000ED86F000E0601B06F000EAF6F08
:1057A8001200FCC54AF6FDC54BF6870E06014C6F84
:1057B800F80E4D6F000E4E6F000E4F6F000E506FBB
:1057C800000E516F10ECE5F04AC654F64BC655F67C
:1057D800060154515511D8B406D0FCC5EAF5FDC5EB
:1057E800EBF5B2EC4EF0050120EE04F0FC51D926A1
:1057F800FD51DA22010EDBBE07D0010EDB5009E1B4
:10580800020EDE5CD8B005D0870E0601526FF80E86
:1058180004D0AE0E0601526FFF0E536F000E016FDB
:10582800020E006F5E0E026FE80E036F050120EE98
:1058380004F0FC51D926FD51DA22DEC404F6DDC499
:1058480005F652C606F653C607F620EE1BF0FC51C5
:10585800D926FD51DA22DEC408F6DEC409F6DEC414
:105868000AF6DEC40BF6E6EC32F054C6FCF555C673
:10587800FDF51200000E2B6E050E2A6E50D0040E98
:1058880071EC53F02E0E1B6E050E1C6E000E1E6E74
:10589800010E1D6E130E206E880E1F6E16EC46F05C
:1058A8001BC52CF51CC52DF52C042D10D8A437D0FC
:1058B800060E2E18D8A405D0000E276E000E266EF0
:1058C8001200180E2E18D8A405D0000E276E010E4F
:1058D800266E1200150E2E18D8A421D0040E71ECD5
:1058E80053F02E0E1B6E050E1C6E000E1E6E010E62
:1058F8001D6E130E206E880E1F6E16EC46F01BC52B
:105908002CF51CC52DF52C042D10D8A408D0180E84
:105918002E18D8B4DAD7060E2E18D8B4CDD72A50F8
:10592800286E2B50296E010E2A5E000E2B5A29BEB6
:1059380005D02950A4E12804D8B0A1D7000E276EBD
:10594800020E266E1200000E2114296E000E22147B
:105958002A6E800E23142B6E7F0E24142C6E295071
:105968002A102B102C10D8A408D0000E216E000E7F
:10597800226E000E236E000E246E000E2514296E72
:10598800000E26142A6E800E27142B6E7F0E281404
:105998002C6E29502A102B102C10D8A408D0000ED9
:1059A800256E000E266E000E276E000E286E24AEA1
:1059B80009D0216C221ED8B0222A231ED8B0232A4F
:1059C800800E245628AE09D0256C261ED8B0262A6B
:1059D800271ED8B0272A800E2856000E211A000E3E
:1059E800221A000E231A800E241A000E251A000E01
:1059F800261A000E271A800E281A2550215C2650D8
:105A080022582750235828502458D8B002D0D8906C
:105A18001200D88012000801D651D8B40FD00D0E4C
:105A28000501C76FF10EC86F1F0EC96FF60ECA6F5A
:105A380030EC51F00601AD69AE691200010ED66F67
:105A4800000ED36F010E0501EC6F000EEB6F44ECF6
:105A580024F0EBC5BBF8ECC5BCF8000E0501EC6FF3
:105A6800800EEB6F44EC24F0EBC5B7F8ECC5B8F842
:105A7800000E0501EC6F800EEB6F44EC24F0EBC5D3
:105A8800BFF8ECC5C0F80801BB51BC11D8B408D0A8
:105A9800B751B811D8B404D0BF51C011D8A410D090
:105AA800010ED36F3CECF2F0E00E0501C76FE90E72
:105AB800C86F1F0EC96FF60ECA6F30EC51F0BAD717
:105AC800000E096E010E086EADEC52F008C555F9CE
:105AD80009C556F9010ED26F000E0601AE6F000E11
