:0400000081EF00F09C
:100008000C0C0C0C0C0C0C0C40000C0C40000C0CD8
:100018000C0C0C0C0C0C0C0C0C0C0C0C0C0C0C0C18
:100028000C0C4000400040000C0C0C0C0C0C0C0C90
:100038000C0C0C0C0C0C0C0C0C0C0C0C0C0C0C0CF8
:100048000C0C0C0C0C0C0C0C400040000C0C0C0C98
:100058000C0C0C0C0C0C40000C0C0C0C0C0C0C0CB0
:100068000C0C0C0C0C0C0C0C0C0C0C0C0C0C0C0CC8
:100078000C0C0C0C0C0C0C0C40000C0C0C0C0C0C90
:100088000C0C0C0C0C0C0C0C0C0C0C0C0C0C0C0CA8
:100098000C0C0C0C0C0C0C0C40000C0C4000400020
:1000A8000C0C0C0C0C0C0C0C0C0C0C0C0C0C0C0C88
:1000B8000C0C0C0C0C0C0C0C0C0C0C0C0C0C0C0C78
:1000C8000C0C0C0C0C0C0C0C0C0C0C0C0C0C0C0C68
:1000D8000C0C0C0C0C0C0C0C0C0C0C0C0C0C0C0C58
:1000E80040000C0C0C0C0C0C400040004000400080
:1000F8000C0C0C0C0C0C0C0CFF002BEFFCF004C8C7
:1001080012F505C813F506C814F507C815F508C58E
:1001180012F509C513F50AC514F50BC515F512C571
:100128000CF513C50DF514C50EF515C50FF5180E0C
:1001380005D0D8900F320E320D320C32E82EF9D796
:100148000C50106E116A10501110D8A419D0D89004
:1001580012340C6E13340D6E14340E6E15340F6E8B
:100168000C500D100E100F10D8A405D0000E096EFB
:10017800020E086E1200000E096E030E086E1200C1
:1001880010281110D8A41CD012C50CF513C50DF5F4
:1001980014C50EF515C50FF5090ED8900C360D3699
:1001A8000E360F36E82EF9D70C500D100E100F1022
:1001B800D8A402D0010E01D0000E086E096A120000
:1001C800000E096E040E086E1200A4C6D9F4A5C666
:1001D800DAF4DEC4A6F6DDC4A7F6A4C698F6A5C66A
:1001E80099F6000E9B6F010E9A6FC7ECF8F0A86F96
:1001F800A851D8A44BD0A6C635F6A7C636F620EE29
:1002080016F0A451D926A551DA22DEC437F6DEC489
:1002180038F6DEC439F6DEC43AF651EC05F0A86FBC
:10022800A851D8A433D020EE1AF0A451D926A5514C
:10023800DA22DEC408F5DDC409F5000E0B6E000EE7
:100248000A6E000E0D6E200E0C6E18ECF2F020EE09
:100258001AF0A451D926A551DA22DEC408F5DDC466
:1002680009F51C0EA4250A6E000EA5210B6E000EC2
:100278000D6E0B0E0C6EADEC15F0060120EE04F0C1
:10028800A651D926A751DA22010EDF6EA851120015
:1002980007014A514B11D8B4120001D80AD0050001
:1002A800FA6ED851FD6ED951FE6EDA51FF6EFA50D2
:1002B8001200D8B0120001D80CD00500FA6E070160
:1002C800D551FD6ED651FE6ED751FF6EFA50000E15
:1002D80012006A0EE82EFED700D001D80BD0050018
:1002E800FA6E0701D851FD6ED951FE6EDA51FF6ED4
:1002F800FA501200D8A00ED001D812000500FA6EEC
:100308000701D551FD6ED651FE6ED751FF6EFA50DA
:10031800010E1200000E07014B6F000E4A6F000E0F
:10032800446E010E436E74EC19F0C7EC19F0000E20
:10033800446E000E436E74EC19F001D812000500EB
:10034800FA6E0701D551FD6ED651FE6ED751FF6E7C
:10035800FA50010E1200D2EC11F030EC12F0665196
:100368006711D8A451D056C5EAF557C5EBF522EC6C
:1003780015F007016851D8B424D056500501F06F24
:100388005750F16FF26BF36BF1C5F3F5F0C5F2F569
:10039800F16BF06B0B0EF025E26F000EF121E36FAD
:1003A800000EF221E46F000EF321E56F050EE66FF3
:1003B800E40EE76F000EE96F030EE86F1FEC0CF018
:1003C80023D056500501F06F5750F16FF26BF36B65
:1003D800F1C5F3F5F0C5F2F5F16BF06B0B0EF025F6
:1003E800E26F000EF121E36F000EF221E46F000EC0
:1003F800F321E56F080EE66FE40EE76F000EE96F74
:10040800030EE86F1FEC0CF0070146514711D8B4F2
:100418001200000E4B6F010E4A6F1200090EE26FB8
:10042800D851D911D8B441D0D8C5D9F4D9C5DAF43E
:10043800DE50DE10D8B439D0D8C5D9F4D9C5DAF42D
:10044800DEC4DCF5DDC4DDF5DCC5D9F4DDC5DAF4E0
:10045800DF50D8B42AD0D8C5D9F4D9C5DAF410EE0B
:1004680006F0DE50E126DD50E22220EE02F0D851FF
:10047800D926D951DA22E650DE1817E1E650DE18FF
:10048800D8A413D0D8C5D9F4D9C5DAF410EE01F040
:10049800DE50E126DD50E222E750E1EC12F00501E2
:1004A800DC6FDCB102D0000EE26FE251D8B405D0A7
:1004B800000EE06F000EE16F08D0D8C5D9F4D9C599
:1004C800DAF4DEC4E0F5DDC4E1F5DAC5D9F4DBC55C
:1004D800DAF4E0C5DEF4E1C5DDF4E2511200000E05
:1004E800096E000E086EF2EC19F008C50CF509C586
:1004F8000DF50CC508F50DC509F5F2EC19F00CA0C1
:1005080002D0010E01D0000E08016F6F0CA202D0BC
:10051800010E01D0000E706F0CA402D0010E01D0A4
:10052800000E716F0CA602D0010E01D0000E726F82
:10053800000E096E000E086EFFEC19F008C50CF5E8
:1005480009C50DF50CC508F50DC509F5FFEC19F041
:100558000CA002D0010E01D0000E0801736F0CA28E
:1005680002D0010E01D0000E746F0CA402D0010E4F
:1005780001D0000E756F0CA602D0010E01D0000E3E
:10058800766F040143510801776F04014451080153
:10059800786F040145510801796F7A6B1200020ED9
:1005A800165E000E175A185A195A20EE14F01450F5
:1005B800D9261550DA22FE0EDE241A6EFF0EDE2032
:1005C8001B6EFF0EDE201C6EFF0EDE201D6E1A5005
:1005D800165C1B5017581C5018581D501958D8A095
:1005E80009D0000E146E000E156E000E166E000E69
:1005F800176E120020EE28F01450D9261550DA2272
:10060800DEC41AF5DEC41BF5DEC41CF5DEC41DF518
:1006180020EE0AF01450D9261550DA22DEC41EF551
:10062800DDC41FF51EC508F51FC509F50A6A0B6A62
:1006380016C50CF517C50DF518C50EF519C50FF536
:10064800B6EC12F01A500824146E1B500920156ECF
:100658001C500A20166E1D500B20176E12000A340B
:100668000B34116E1150D8A409D0000E086E000E7C
:10067800096E000E0A6E000E0B6E120008C50CF50E
:1006880009C50DF50AC50EF50BC50FF5200E05D0E9
:10069800D8900F320E320D320C32E82EF9D70C50AA
:1006A800106E0A8EFF0E0816FF0E0916FF0E0A16A8
:1006B800000E0B16960E115E11AE0DD01150800A69
:1006C800970FD8A0D2D7D8900B320A320932083205
:1006D800113EF9D70DD01F0E116407D0C6D7D89098
:1006E800083609360A360B3611061150D8A4F7D742
:1006F8001050D8B408D00B1E0A1E091E086C000E34
:1007080009220A220B2208C508F509C509F50AC5F8
:100718000AF50BC50BF5120020EE03F00850D92698
:100728000950DA22DF500C6E0C50116E126A136AEF
:10073800146A20EE02F00850D9260950DA22DF5058
:100748000C6E0C5011C50EF512C50FF513C510F53A
:100758000D6A0D10116E0E50126E0F50136E105060
:10076800146E20EE01F00850D9260950DA22DF5025
:100778000C6E0C5011C50EF512C50FF513C510F50A
:100788000D6A0D10116E0E50126E0F50136E105030
:10079800146E08C5D9F409C5DAF4DF500C6E0C5094
:1007A80011C50EF512C50FF513C510F50D6A0D101C
:1007B800116E0E50126E0F50136E1050146E11C53C
:1007C80008F512C509F513C50AF514C50BF512008D
:1007D8008BEC15F0010E0201616F000E626F1E0EA8
:1007E800636F050E656F010E056F020E036F030E32
:1007F800206F000E0001D56F000ED86F020ED96F62
:10080800040EDA6F7F0EDB6F010EDC6F080EDD6FF2
:10081800100EDE6F400EDF6F800ED76F820ED66F20
:10082800010ED56F000ED86F020ED96F040EDA6F65
:100838007F0EDB6F010EDC6F080EDD6F200EDE6FA2
:10084800400EDF6F800ED76F820ED66F020ED56F07
:10085800010ED86F7F0ED96F7F0EDA6F7F0EDB6FB8
:10086800010EDC6F000EDD6F000EDE6F000EDF6F15
:10087800820ED76F8C0ED66F000ED46FB59AA59ADC
:10088800C280C28212000AC510F50BC511F50C50C2
:1008980010240E6E0D5011200F6E48D010C5D9F4DB
:1008A80011C5DAF4DF50126E104A112A12AE02D0C6
:1008B800C08601D0C096C08800F0C09812AC02D0A3
:1008C800C08601D0C096C08800F0C09812AA02D095
:1008D800C08601D0C096C08800F0C09812A802D087
:1008E800C08601D0C096C08800F0C09812A602D079
:1008F800C08601D0C096C08800F0C09812A402D06B
:10090800C08601D0C096C08800F0C09812A202D05C
:10091800C08601D0C096C08800F0C09812A002D04E
:10092800C08601D0C096C08800F0C0980E50105CF8
:100938000F501158D8B01200B1D720EE02F0355040
:10094800D9263650DA22DE50DE10D8B412003750DD
:10095800381039103A10D8B4120020EE04F035508F
:10096800D9263650DA22DE50DE10D8B417D020EE61
:100978000AF03550D9263650DA2237503B143F6EEC
:1009880010EE0AF03550E1263650E222E750406E6C
:100998003750FF0A40143F10DF6E120020EE08F0B7
:1009A8003550D9263650DA2237503B143F6E10EEB8
:1009B80008F03550E1263650E222E750406E3750B5
:1009C800FF0A40143F10DF6E35C52BF536C52CF5F0
:1009D8000A0E2D6E20EE08F03550D9263650DA2250
:1009E800DF502E6E77EC10F012000501606F00C723
:1009F80068F501C769F5050160514009616F47C590
:100A080062F546C563F545C564F544C565F5610EEF
:100A1800086E050E096E000E0B6E050E0A6E71EC5F
:100A280011F00109666F68C542F569C543F596EC92
:100A380019F068C512F569C513F5000E156E010E9B
:100A4800146E0AEC13F068C508F569C509F5610E5E
:100A58000A6E050E0B6E000E0D6E060E0C6EAAECDD
:100A680010F002C719F503C71AF5FF0EE7EC17F0E7
:100A78000501676F48C5D9F449C5DAF467C5DFF4DD
:100A88006729D8A405D0000E456E010E446E1200E9
:100A9800000E456E000E446E1200000E06013F6FF8
:100AA80020EE2CF03551D9263651DA223751DE188E
:100AB8000AE13851DE1807E13951DE1804E13A51EC
:100AC800DE18D8B43FD035C623F636C624F68AECED
:100AD800E4F006013F6F3F51D8A434D0300E3525DD
:100AE800196F000E36211A6F37C61BF638C61CF66A
:100AF80039C61DF63AC61EF6000E206F010E1F6F8E
:100B080020EE01F03551D9263651DA22DF50CCECEF
:100B1800EDF00009D8B407D006013769386939699A
:100B28003A69010E3F6F060120EE2CF03551D926A7
:100B38003651DA2237C6DEF438C6DEF439C6DEF4BA
:100B48003AC6DEF43F511200105011101210131063
:100B58001410151016101710D8B43CD0010E186ECA
:100B68000AD0D89010361136123613361436153688
:100B780016361736182A17AEF4D71050085C1150DD
:100B8800095812500A5813500B5814500C58155045
:100B98000D5816500E5817500F58D8A010D0105096
:100BA800085E1150095A12500A5A13500B5A145021
:100BB8000C5A15500D5A16500E5A17500F5AD890F5
:100BC80017321632153214321332123211321032F1
:100BD800182ED3D708C508F509C509F50AC50AF5B9
:100BE8000BC50BF50CC50CF50DC50DF50EC50EF5B1
:100BF8000FC50FF512000AC513F50BC514F50C50F7
:100C08001324116E0D501420126E41D008C50EF534
:100C180009C508F50EC509F513C5D9F414C5DAF4E4
:100C2800DF500E6E0E50081A134A142A08C50EF526
:100C380009C50FF5040E106ED8900F320E32102E23
:100C4800FBD70F0E0E16000E0F160E50081A0F5077
:100C5800091A08C50EF509C50FF50C0ED8900E3601
:100C68000F36E82EFBD70E50081A0F50091AFF0E40
:100C780008140E6E000E09140F6E050ED8900E366D
:100C88000F36E82EFBD70E50081A0F50091A1150CC
:100C9800135C12501458D8A0B9D708C508F509C56F
:100CA80009F51200A5C6D8F5A6C6D9F5A90E0501FD
:100CB800DA6F060EDB6F12EC02F00601AB6FAB5178
:100CC800D8A444D0A751A811D8A40FD0A5C65AF6C5
:100CD800A6C65BF6000E5C6F000E5D6F000E5E6FC1
:100CE800000E5F6F3EECC3F030D0A5C698F6A6C6DE
:100CF80099F6000E9B6F000E9A6FB1ECF2F0AB6F95
:100D0800040EAB19D8A402D0000EAB6FAB51D8A417
:100D18001DD0A5C615F5A6C616F5A7C617F5A8C60B
:100D280018F534ECD7F0A5C67EF6A6C67FF6000EF9
:100D38000601816F000E806F65ECBBF00601AB6F9A
:100D4800040EAB19D8A402D0000EAB6FAB51120041
:100D580008C510F509C511F50AC512F50BC513F537
:100D680007D00C06D8A00D06104A112A124A132AD9
:100D78000C500D10D8B41AD010C5D9F411C5DAF436
:100D8800DF500E6E12C5F6F413C5F7F4000EF86EB8
:100D9800250EF76403D00800F55005D0F6C4E9F431
:100DA800F7C4EAF4EF500E18D8B4DBD70C500D1086
:100DB800D8A405D0000E096E000E086E120010C5EA
:100DC800D9F411C5DAF4DF500E6E12C5F6F413C566
:100DD800F7F4000EF86E250EF76403D00800F550FE
:100DE80005D0F6C4E9F4F7C4EAF4EF500F6E0F50DB
:100DF8000E5C086E096AD8A009061200000E496E3A
:100E0800000E4A6E000E4B6E000E4C6E000E4D6EBC
:100E1800000E4E6E000E4F6E000E506E498E43B09F
:100E28004D8E498441C545F542C546F543C547F54C
:100E380044C548F5120E05D0D8904832473246329C
:100E48004532E82EF9D745A04D84498641C545F578
:100E580042C546F543C547F544C548F5130E05D0C8
:100E6800D8904832473246324532E82EF9D745B055
:100E78004D866C0E356E070E366E49C537F54AC578
:100E880038F54BC539F54CC53AF54DC53BF54EC55A
:100E98003CF54FC53DF550C53EF5A1EC04F01200F8
:100EA8009FECFCF06E0E0801FB6F310EFC6F000E1C
:100EB800FD6F960E0701E76F310EE86F000EE96FC0
:100EC800260E0801F26FBD0EF36F010EF46F5A0E75
:100ED800EF6F1C0EF06F000EF16F580EF56F2D0EB0
:100EE800F66F000EF76FD80EEC6F070EED6F000E61
:100EF800EE6F040E0701DE6F0E0EDF6F000EE06F5F
:100F0800AA0EE16FCE0EE26F010EE36F460ED86FA8
:100F1800350ED96F000EDA6F9C0E0801F86F340E8B
:100F2800F96F000EFA6F980E0701CF6F350ED06F6C
:100F3800000ED16FAC0ECC6F340ECD6F000ECE6F9D
:100F48001200F629F711D8A430EC12F00501EE5181
:100F5800F06FEF51F16FF26BF36BF1C5F3F5F0C57C
:100F6800F2F5F16BF06B660EF025E26F000EF121E1
:100F7800E36F000EF221E46F000EF321E56F7F0EA0
:100F8800E66F080EE76F000EE96F030EE86F5BEC83
:100F98000CF00501EE51F06FEF51F16FF26BF36B4E
:100FA800F1C5F3F5F0C5F2F5F16BF06B660EF025BF
:100FB800E26F000EF121E36F000EF221E46F000EE4
:100FC800F321E56F600EE66FE30EE76F000EE96F41
:100FD800030EE86F1FEC0CF0EEC5F6F7EFC5F7F758
:100FE80012000D500E10D8B404D00D500E10D8A415
:100FF80004D00B505EEC1AF0120020EE09F00D50F0
:10100800D9260E50DA22DE50DE10D8B416D020EEE3
:1010180009F00D50D9260E50DA2210EE03F00D50CB
:10102800E1260E50E222DE50E65CE650800A136E9E
:10103800DE50800A1358D8B0120020EE03F00D508D
:10104800D9260E50DA22DEC40FF5DDC410F50DC521
:10105800D9F40EC5DAF4DEC411F5DDC412F50F506B
:101068001124D96E10501220DA6E0BC5DFF420EE71
:1010780003F00D50D9260E50DA22DE2A000EDD22AA
:1010880012001CC529F51DC52AF520EE0BF02950C4
:10109800D9262A50DA22DE50DE10DE10D8B41ED04F
:1010A8001CC508F51DC509F51EC50AF51FC50BF5B4
:1010B80020C50CF521C50DF520EE0BF02950D926D9
:1010C8002A50DA2201D812000500FA6EDE50FD6EB1
:1010D800DE50FE6EDE50FF6EFA5012001EC525F57A
:1010E8001FC526F5000E286E000E276E11D01CC5F0
:1010F8000EF51DC50FF5FF0E106EADECEFF025C512
:10110800D9F426C5DAF4DF6E254A262A274A282A82
:101118002050275C21502858D8B01200E8D7070182
:1011280020512111D8A405D020C71AF521C71BF5D5
:1011380006D0FF0E20251A6EFF0E21211B6E58A027
:1011480009D016C50BF50C6A14C50DF515C50EF5B5
:10115800F5EC07F01BAE04D0000E1B6E000E1A6EE5
:10116800000E196E000E186E0CD0000E0C6E200EBC
:101178000B6E14C50DF515C50EF5F5EC07F0184AFC
:10118800192A1A50185C1950800A176E1B50800AC9
:101198001758D8A0EAD758B009D016C50BF50C6A6D
:1011A80014C50DF515C50EF5F5EC07F0010E18245C
:1011B800146E000E1920156E12000A6E050EF66EDA
:1011C800DD0EF76E000EF86E0900F5500A5CD8A027
:1011D8003CD0060EF66EDD0EF76E000EF86E0A5065
:1011E8000900F55CD8A005D0000E096E010E086E46
:1011F8001200070EF66EDD0EF76E000EF86E09008F
:10120800F5500A5CD8A00BD0080EF66EDD0EF76E0E
:10121800000EF86E0A500900F55CD8B0E5D7090E43
:10122800F66EDD0EF76E000EF86E0900F5500A5CDA
:10123800D8A00BD00A0EF66EDD0EF76E000EF86E13
:101248000A500900F55CD8B0CFD7000E096E000E21
:10125800086E12001CC529F51DC52AF520EE08F0F8
:101268002950D9262A50DA22DE50DE10DE10D8B4F2
:101278001ED01CC508F51DC509F51EC50AF51FC5F4
:101288000BF520C50CF521C50DF520EE08F0295009
:10129800D9262A50DA2201D812000500FA6EDE504B
:1012A800FD6EDE50FE6EDE50FF6EFA5012001EC557
:1012B80025F51FC526F5000E286E000E276E10D0E6
:1012C8001CC50EF51DC50FF525C5D9F426C5DAF4DC
:1012D800DF50106EADECEFF0254A262A274A282A5F
:1012E8002050275C21502858D8B01200E9D758A0C0
:1012F8000AD01DC514F51EC515F51BC516F51CC568
:1013080017F5E4EC16F020BE05D01FC524F520C55E
:1013180025F504D0000E256E000E246E000E236EF7
:10132800000E226E0CD0000E0C6E200E0B6E1BC52C
:101338000DF51CC50EF5F5EC07F0224A232A2450BA
:10134800225C2350800A216E2550800A2158D8A09B
:10135800EAD758B00AD01DC514F51EC515F51BC52A
:1013680016F51CC517F5E4EC16F01DC508F51EC5E5
:1013780009F5CFEC15F0245008241B6E25500920E0
:101388001C6E1200F829F911D8A413D0500E0501CB
:10139800D86FEC0ED96F800EDA6FE60EDB6F000E99
:1013A800DD6FC20EDC6F7F0EDE6FF30EDF6F9CEC1D
:1013B80017F0F8C7F2F5F9C7F3F5000E0501F56F58
:1013C800B70EF46F90EC16F0F8510501F66F0701AF
:1013D800F9510501F76FF86BF96BF7C5F9F5F6C523
:1013E800F8F5F76BF66BF6C5E2F5F7C5E3F5F8C562
:1013F800E4F5F9C5E5F5F50EE66FE10EE76F000EC9
:10140800E96FB70EE86F1FEC0CF0000E0701436F91
:10141800000E426F12000501DD6F010E0501DE6F3F
:1014280010D0000EDE6F23D0A10EBE6FEA0EBF6F84
:10143800DDC5C0F5C16BD8C5C2F5C36BF3EC18F0B8
:1014480016D0D851DB6FDC6BDC51000AD8A4ECD77E
:10145800DB51000AD8B4E5D7010AD8B4E5D7030AA6
:10146800D8B4E2D7010AD8B4DFD7070ADDD752507B
:101478005310D8B415D0650EBE6FE80EBF6FDDC52A
:10148800C0F5C16BD8C5C2F5C36BD9C5C4F5DAC5FB
:10149800C5F5C66BC76BDEC5C8F5C96BF3EC18F0AC
:1014A800DE511200000E0814106E000E0914116EA1
:1014B800800E0A14126E7F0E0B14136E105011104A
:1014C80012101310D8A408D0000E086E000E096E72
:1014D800000E0A6E000E0B6E000E0C14106E000E3D
:1014E8000D14116E800E0E14126E7F0E0F14136EF3
:1014F8001050111012101310D8A408D0000E0C6E42
:10150800000E0D6E000E0E6E000E0F6E0C500818B9
:101518000AE10D50091807E10E500A1804E10F50AE
:101528000B18D8B402D0D8901200D8801200000E40
:101538000D6E000E0C6E08016F51D8B402D0010E6A
:1015480001D0000E0C127051D8A40C827151D8A48D
:101558000C847251D8A40C860CC508F50DC509F584
:10156800F2EC19F0000E0D6E000E0C6E08017351AE
:10157800D8B402D0010E01D0000E0C127451D8A4B8
:101588000C827551D8A40C847651D8A40C860CC54D
:1015980008F50DC509F5FFEC19F077C843F478C8CC
:1015A80044F479C845F477C843F478C844F479C852
:1015B80045F412000501EC510701445D0501ED51A8
:1015C80007014559D8B012000501EA51EE6FEB51F9
:1015D800EF6FF06BF16BEFC5F1F5EEC5F0F5EF6B62
:1015E800EE6B070144510501EE25E26F07014551F5
:1015F8000501EF21E36F000EF021E46F000EF121E9
:10160800E56F000E070144250501E66F0C0E070182
:1016180045210501E76F070144510501EC5DE86FBD
:10162800070145510501ED59E96F5BEC0CF0ECC57C
:1016380044F7EDC545F712000DC7C2F60EC7C3F64D
:101648000FC7C4F610C7C5F6BEC6D9F4BFC6DAF4CC
:10165800DE50DE10D8B421D0BEC6D9F4BFC6DAF445
:10166800DEC4C0F6DDC4C1F6C0C6D9F4C1C6DAF41A
:10167800DF50D8B412D0BEC6D9F4BFC6DAF4DEC47F
:1016880038F5DDC439F503ECDDF038C5C2F639C5E7
:10169800C3F63AC5C4F63BC5C5F6C4C6F7F5C5C614
:1016A800F8F57FECFDF0C2C662F7C3C663F7000E1B
:1016B8000601BD6F010EBC6F1200000E106E000E09
:1016C800116E000E126E000E136E0C500D100E10DF
:1016D8000F10D8B42AD0010E146E06D0D8900C364C
:1016E8000D360E360F36142A0FAEF8D7D8901036AE
:1016F8001136123613360C50085C0D5009580E502E
:101708000A580F500B58D8A009D00C50085E0D503D
:10171800095A0E500A5A0F500B5A1080D8900F329F
:101728000E320D320C32142EE1D710C508F511C552
:1017380009F512C50AF513C50BF51200080E0001CC
:10174800B16F000E0401006F000E086F000E106FDD
:10175800000E186F209120932095000E086F000E40
:10176800106F000E186FC292CA92010E0201D56F57
:10177800A00ED46FD189D18BC68E070E766FBE8C22
:10178800C69C260E076FD28FC290CA90000EBF6EFD
:10179800000EC76E000EC06E000EC86E3F0E046FBE
:1017A800C696320E0401436F330E446F030E456F25
:1017B800000E476F4691468F12000701F829F9116C
:1017C800D8A4D2EC11F0F6C5F2F5F7C5F3F5000E82
:1017D8000501F56FA60EF46F90EC16F00501F651B1
:1017E800F86FF751F96FFA6BFB6BF9C5FBF5F8C5A4
:1017F800FAF5F96BF86B660EF825E26F000EF92121
:10180800E36F000EFA21E46F000EFB21E56F600E16
:10181800E66FE30EE76F000EE96F2A0EE86F1FEC24
:101828000CF0F6C5F8F7F7C5F9F7000E0701436F96
:10183800010E426F1200E2C5D8F5E3C5D9F5E4C53B
:10184800DAF5E5C5DBF501D80BD00500FA6E07011E
:10185800E151FD6EE251FE6EE351FF6EFA50120047
:1018680001D80CD00500FA6E0701E451FD6EE55170
:10187800FE6EE651FF6EFA50000E1200E2C50EF53C
:10188800E3C50FF5E6C510F5E7C511F5E8C512F58E
:10189800E9C513F501D812000500FA6E0801E651F2
:1018A800FD6EE751FE6EE851FF6EFA501200E2C578
:1018B800D8F5E3C5D9F5E4C5DAF5E5C5DBF501D812
:1018C8000BD00500FA6E0701E151FD6EE251FE6E84
:1018D800E351FF6EFA50120001D80CD00500FA6EE1
:1018E8000701E451FD6EE551FE6EE651FF6EFA50B8
:1018F800FF0E1200E2C50EF5E3C50FF5E6C510F5BB
:10190800E7C511F5E8C512F5E9C513F501D81200C8
:101918000500FA6E0801E051FD6EE151FE6EE251DC
:10192800FF6EFA5012001A0E1124086E000E1220D3
:10193800096EC8EC16F008C517F509C518F5196A37
:101948001A6A0FC5D9F410C5DAF4030EDE18D8A444
:101958001CD0140E1124086E000E1220096EC8EC5B
:1019680016F00850136E0950146E156A166A14C5DD
:1019780016F513C515F5146A136A13501712145087
:1019880018121550191216501A1217C50FF518C546
:1019980010F519C511F51AC512F51200F5C5D8F5D7
:1019A800F6C5D9F5F7C5DAF5F8C5DBF5F9C5DCF5FF
:1019B800FAC5DDF539ECF7F0000EFF6FF7C5FBF55A
:1019C800F8C5FCF5000EFE6F000EFD6F0AD0FBC5D2
:1019D800D9F4FCC5DAF4DF50FF27FB4BFC2BFD4B99
:1019E800FE2BF951FD5DFA51FE59D8A0F0D7160E1D
:1019F800BE6FF20EBF6FF5C5C0F5F6C5C1F52B0E6B
:101A0800C26FEF0EC36FFFC5C4F5C56BF3EC18F0DA
:101A180012005351D8B41200F2C5F4F5010E0501B5
:101A2800F56F000EF66FF42B03D0D890F537F63724
:101A3800F42FFBD707013E510501F51707013F5168
:101A48000501F617F551F611D8A41200F2C5EAF50A
:101A5800F3C5EBF522EC15F0F2C5F4F5010E05011E
:101A6800F56F000EF66FF42B03D0D890F537F637E4
:101A7800F42FFBD70501F55107013E130501F65177
:101A880007013F1312000701F829F911D8A4D2EC75
:101A980011F0F6C5F2F5F7C5F3F5000E0501F56F7F
:101AA800B70EF46F90EC16F00501F651F86FF75188
:101AB800F96FFA6BFB6BF9C5FBF5F8C5FAF5F96B2D
:101AC800F86BF8C5E2F5F9C5E3F5FAC5E4F5FBC529
:101AD800E5F5F50EE66FE10EE76F000EE96FB70E5C
:101AE800E86F1FEC0CF0F6C5F8F7F7C5F9F7000E2C
:101AF8000701436F000E426F12000EC518F50FC59F
:101B080019F519C5C1F418C5BFF4000E176E000EFB
:101B1800166E26D0BE9816501024146E1750112039
:101B2800156E14C5F6F415C5F7F4000EF86E250EFB
:101B3800F76404D0D0C4F5F40C0006D0F6C4E9F478
:101B4800F7C4EAF4D0C4EFF4BE88182A18C5BFF465
:101B58001850D8A403D0192A19C5C1F4164A172A4F
:101B68001250165C13501758D8B01200D3D72EC590
:101B7800D9F42FC5DAF4DEC435F5DDC436F520EE28
:101B880006F02E50D9262F50DA22DF50316ED89029
:101B980031344109326E30C533F535C50CF536C5DB
:101BA8000DF5A9EC13F035C51CF536C51DF5320E3B
:101BB8001E6E050E1F6E000E216E020E206E2EEC9C
:101BC80009F035C52BF536C52CF563EC19F0346EE4
:101BD80035C50CF536C50DF575EC18F03450120006
:101BE8000EC518F50FC519F519C5C1F418C5BFF408
:101BF800000E176E000E166E25D0BE9416501024D7
:101C0800146E17501120156E14C5F6F415C5F7F4A7
:101C1800000EF86E250EF76403D00800F55005D0C5
:101C2800F6C4E9F4F7C4EAF4EF50C06EBE84182A8B
:101C380018C5BFF41850D8A403D0192A19C5C1F47F
:101C4800164A172A1250165C13501758D8B01200AB
:101C5800D4D7000E0701296F000E286F29BF0ED0B8
:101C6800295104E1140E285DD8A008D04C0E0501B6
:101C7800BE6FF60EBF6FF3EC18F0FFD7000E05012C
:101C8800E16F000EE06F000EE36F030EE26F000ECF
:101C9800E56F640EE46F20ECB6F0E051E111D8B4C2
:101CA8001200110E0501F06F3C0EEF6FCB0EE82EFF
:101CB800FED7EF2FFCD7F02FFAD70701284B292B97
:101CC800CDD70A6E010EF66EDD0EF76E000EF86EB9
:101CD8000900F5500A5CD8A026D0020EF66EDD0E7B
:101CE800F76E000EF86E0A500900F55CD8A005D012
:101CF800000E096E010E086E1200030EF66EDD0E60
:101D0800F76E000EF86E0900F5500A5CD8A00BD0EB
:101D1800040EF66EDD0EF76E000EF86E0A5009001E
:101D2800F55CD8B0E5D7000E096E000E086E1200FB
:101D38005351D8B426D05A0E0501BE6FF00EBF6FAE
:101D480009C7C0F50AC7C1F50BC7C2F50CC7C3F56B
:101D5800F3EC18F009C746F60AC747F60BC748F66A
:101D68000CC749F6830E06014A6F070E4B6F000E2B
:101D78004D6F010E4C6F6DECDBF0000E0701536FD9
:101D880007D0460E0501BE6FF20EBF6FF3EC18F0D8
:101D9800000E0601BD6F000EBC6F1200D69E070133
:101DA80038513911D8B41FD0000E3625D96E0A0E15
:101DB8003721DA6EDF500E6E010E3625086E000EE2
:101DC8003721096E000E0B6E500E0A6EF1EC15F0FD
:101DD80008C536F709C537F73807D8A03907A780E7
:101DE800D68E0E5012004A514B11D8B403D0D68E5D
:101DF800000E1200D68E150E0D6EC60EE82EFED7FA
:101E08000D2EFCD700D0CAD708C5D9F409C5DAF415
:101E18000AC5DFF4084A092A0B500A6E0C500B6EEB
:101E28000D500C6E0D6A08C5D9F409C5DAF40AC557
:101E3800DFF4084A092A0B500A6E0C500B6E0D503D
:101E48000C6E0D6A08C5D9F409C5DAF40AC5DFF4C1
:101E5800084A092A0B500A6E0C500B6E0D500C6E76
:101E68000D6A08C5D9F409C5DAF40AC5DFF4084AC9
:101E7800092A12004A6E00C74BF501C74CF56EC51A
:101E88004FF56FC550F56AC544F56BC545F56CC58A
:101E980046F56DC547F54FC548F550C549F54A5053
:101EA800F9EC04F044C54DF545C54EF54D504E10BE
:101EB800D8B403D0A2EC18F012004BC508F54CC5F5
:101EC80009F5010E4F240A6E000E50200B6EFF0E0E
:101ED80070250C6EFF0E71210D6EA0ECC9F0EAD7CB
:101EE80010C5F6F411C5F7F4000EF86E0800F550A9
:101EF8000C6E0D6A8CEC18F00CC517F50DC518F5AD
:101F0800104A112A12C5D9F413C5DAF4DF50146E39
:101F180014500C6E0D6A8CEC18F00CC515F50DC537
:101F280016F5124A132A1550171808E116501818F2
:101F3800D8A404D017501810D8A4D2D71550175CBD
:101F4800106E16501858116E12006C0E356E070E72
:101F5800366E000E386E010E376E18ECE0F035C59F
:101F68003FF536C540F56C0E356E070E366E000E21
:101F7800386E050E376E000E3A6E010E396E45EC5E
:101F8800F9F06C0E356E070E366E000E386E060EC2
:101F9800376E000E3A6E010E396E45ECF9F06C0E94
:101FA800356E070E366E3FC537F540C538F518EC67
:101FB800E0F012000C500D100E100F10D8B424D001
:101FC800010E106E06D0D8900C360D360E360F3630
:101FD800102A0FAEF8D70C50085C0D5009580E5057
:101FE8000A580F500B58D8A008D00C50085E0D5056
:101FF800095A0E500A5A0F500B5AD8900F320E3207
:102008000D320C32102EE7D708C508F509C509F5B9
:102018000AC50AF50BC50BF5120056500501FA6FF3
:102028005750FB6FFC6BFD6BFBC5FDF5FAC5FCF566
:10203800FB6BFA6B900EFA25E26F000EFB21E36F43
:10204800000EFC21E46F000EFD21E56F540EE66FD3
:10205800070EE76F000EE96F160EE86F5BEC0CF0E9
:1020680007016305D8B007D0020E676F000E666FD0
:10207800C6EC09F01200000E676F000E666F1200C2
:102088003EC540F53FC541F520EE02F04050D92647
:102098004150DA22000EDF6E000E0001846F000E40
:1020A800856F110E02016A6F120E6B6F6C0E086E4F
:1020B800070E096E0CEC1AF008500910D8B40FD0AE
:1020C8006C0E356E070E366E000E386E000E376ECB
:1020D800000E3A6E010E396EC3ECF9F001D0CA94C5
:1020E8000001848F12002BC5D9F42CC5DAF4DEC4A4
:1020F80033F5DDC434F520EE06F02B50D9262C50EC
:10210800DA22DF502F6ED8902F344009306E2DC55B
:1021180031F52EC532F533C50CF534C50DF5A9ECEE
:1021280013F033C51CF534C51DF5300E1E6E050EB3
:102138001F6E000E216E030E206E2EEC09F033C5C3
:102148000CF534C50DF575EC18F012000AC510F53C
:102158000BC511F50C500D10D8B412000DC583F045
:102168000CC582F010C5D9F411C5DAF4DF500001AE
:10217800816F104A112A000E0F6E010E0E6E0ED0DE
:1021880010C5D9F411C5DAF4DF50816F104A112A4D
:10219800B1A0FED7000180510E4A0F2A0C500E5CE8
:1021A8000D500F58D8A0ECD7B1A0FED70001805130
:1021B8001200B8C5BCF5B9C5BDF5000E07011F6F03
:1021C800000E1E6F17D0B6C593F5B7C594F5BC0EB3
:1021D8000501956F050E966FBAC597F5BBC598F5BD
:1021E8004CEC87F00501935107011E270501945116
:1021F80007011F23BCC5F6F4BDC5F7F4000EF86E41
:102208000800F5500009D8A4DED7000E0501B76F05
:10221800000EB66F120004D0084A092A0A4A0B2A8F
:1022280008C5D9F409C5DAF4DF500C6E0AC5F6F40E
:102238000BC5F7F4000EF86E0800F5500C18D8A47A
:1022480007D008C5D9F409C5DAF4DF50D8A4E4D713
:1022580008C5D9F409C5DAF4DF500C6E0AC5F6F4DE
:102268000BC5F7F4000EF86E0800F5500C5C086E0C
:10227800096AD8A00906120056500501EA6F57509E
:10228800EB6FEC6BED6BEBC5EDF5EAC5ECF5EB6BC5
:10229800EA6BA10EEA25E26F000EEB21E36F000E58
:1022A800EC21E46F000EED21E56F540EE66F070E8A
:1022B800E76F000EE96F160EE86F5BEC0CF0070194
:1022C8006305D8B005D0020E676F000E666F120066
:1022D800000E676F000E666F1200000E106E08C5C4
:1022E80011F509C512F50A5011240C6E0B50122075
:1022F8000D6E1CD011C5D9F412C5DAF4DF50101ACE
:10230800114A122A000E0F6E000E0E6E10AE02D089
:10231800890E101AD89010360E4A0F2A0FBEF6D71B
:102328000F5004E1080E0E5CD8A0F0D70C50115CD9
:102338000D501258D8A0DED710501200BEC6D9F4DE
:10234800BFC6DAF4DE50DE10D8B41ED0BEC6D9F44B
:10235800BFC6DAF4DEC4C0F6DDC4C1F6C0C6D9F41F
:10236800C1C6DAF4DF50D8B40FD0BEC6D9F4BFC6A0
:10237800DAF4DEC438F5DDC439F503ECDDF038C530
:1023880046F739C547F704D0000E476F010E466F70
:10239800000E0601BD6F000EBC6F12000701F82980
:1023A800F911D8B41200F8510501EA6F0701F95183
:1023B8000501EB6FEC6BED6BEBC5EDF5EAC5ECF5E4
:1023C800EB6BEA6BEAC5E2F5EBC5E3F5ECC5E4F5C2
:1023D800EDC5E5F5000EE66F0C0EE76F44C7E8F5AE
:1023E80045C7E9F51FEC0CF0000E0701F96FF86915
:1023F800000E456F000E446F120001D80BD0050087
:10240800FA6E0801EF51FD6EF051FE6EF151FF6E4C
:10241800FA501200CC0E0601CC6F190ECD6FAC0E1F
:10242800CE6FFF0ECF6F010ED06FC1ECFEF000092A
:10243800D8B40DD0E30E0501BE6FF00EBF6FF3ECFC
:1024480018F0FF0E0601D96FFE0ED86F1200000EAD
:10245800D96F000ED86F1200F629F711D8B4120000
:10246800F6510501EA6F0701F7510501EB6FEC6BB7
:10247800ED6BEBC5EDF5EAC5ECF5EB6BEA6B660EBB
:10248800EA25E26F000EEB21E36F000EEC21E46F0A
:10249800000EED21E56F7F0EE66F080EE76F000E68
:1024A800E96F030EE86F1FEC0CF0000E0701F76FE1
:1024B800F6691200516E0701FC51D8B404D0AA0E77
:1024C8005118D8A41200AA0E5118D8A403D0000E8F
:1024D800FC6F120051AC0CD0AD0E0501BE6FF00EB2
:1024E800BF6F000EC16FA00EC06FF3EC18F0FF00B5
:1024F80051AE1200330E0501BE6FF10EBF6F000E14
:10250800C16FA00EC06FF3EC18F0FFD70BBE07D059
:102518000B500A1009101DE10804D8B01AD008C5DC
:102528000CF509C50DF50AC50EF50BC50FF50C1E02
:102538000D1E0E1E0F1E0C2A000E0D220E220F223B
:102548000CC508F50DC509F50EC50AF50FC50BF53F
:10255800120008C508F509C509F50AC50AF50BC52D
:102568000BF51200000E106E000E116E000E126EAA
:10257800000E136E08A008D00C5010260D50112222
:102588000E5012220F501322D8900C360D360E36EC
:102598000F36D8900B320A32093208320850091027
:1025A8000A100B10D8A4E6D710C508F511C509F50F
:1025B80012C50AF513C50BF51200516E5150D8B467
:1025C8000DD052505310D8B407D08E0E0501BE6FEF
:1025D800F20EBF6FF3EC18F0020E12000701EA29A1
:1025E80013E1EB2911E1EC290FE1ED29D8A40CD076
:1025F80052505310D8B4F0D7CC0E0501BE6FF40E6C
:10260800BF6FF3EC18F0E8D7000E1200186812C577
:1026180008F513C509F5B5EC14F0000E176E000E99
:10262800166E10D012C508F513C509F5180E0A6EF6
:10263800050E0B6E000E0D6E010E0C6EAAEC10F05E
:10264800164A172A1450165C15501758D8A0EAD7FE
:1026580012C508F513C509F500EC17F01200286E2D
:10266800756C6C290061087B086C0761FF1A000013
:10267800001A0000001A0000001A00000000000004
:1026880000000000000000000000000000800000C2
:1026980000800000008000000080000000000000B2
:0D26A8000000000000000000006440000081
:1026B6007D0E0501BE6FE60EBF6FF3EC18F0CB0E74
:1026C600BE6FF10EBF6FF3EC18F0110E0501D96F56
:1026D6003C0ED86FCB0EE82EFED7D82FFCD7D92FBD
:1026E600FAD7B20E0501BE6FF10EBF6FF3EC18F00C
:1026F6007D0EBE6FE60EBF6FF3EC18F01200C20E31
:10270600D16F050ED26FBEC5C6F5BFC5C7F5000EA3
:10271600CA6F000EC96F000ED06F000ECF6FC60EC7
:10272600B66F050EB76FC0C5B8F5C1C5B9F5D10E00
:10273600BA6F050EBB6FDDEC10F0C951BE25D96E20
:10274600CA51BF21DA6E000EDF6E12000CC50EF5FF
:102756000DC50FF520EE05F00E50D9260F50DA22E2
:10276600C8C4DFF4C896C898C88A20EE03F00E5095
:10277600D9260F50DA22DF50D8B402D0C08801D053
:10278600C098C0860CC508F50DC509F5000E0B6E80
:10279600010E0A6E66EC1AF01200066ED69E07014E
:1027A60039511AE1500E385DD8B016D03851362559
:1027B600016E39513721026E000E046E500E036E03
:1027C60033EC16F0000E0124D96E0A0E0220DA6EE2
:1027D60006C5DFF4384B392B395103E1400E385D1D
:1027E600D8B0A790D68E1200010E146E200E0E10D1
:1027F600106E000E0F10116E9F0E1024126EFF0E3B
:102806001120136E135004E11A0E125CD8A00ED0DC
:10281600D00E0E24106EFF0E0F20116E115004E123
:102826000A0E105CD8A002D0000E146E14C50EF568
:102836000F6A12000D6ED69E0701355104E1500E47
:10284600345DD8A004D0B7A2FED743EC14F03451BF
:102856003225086E35513321096E000E0B6E500E6F
:102866000A6EF1EC15F0000E0824D96E090E092047
:10287600DA6E0DC5DFF4344B352BA782D68E1200E7
:102886001DD0000E3225D96E090E3321DA6EDF50C7
:102896000201C96F010E07013225086E000E3321B1
:1028A600096E000E0B6E500E0A6EF1EC15F008C59F
:1028B60032F709C533F73407D8A035070701345175
:1028C6003511D8B41200B7A21200DBD76C0E086E11
:1028D600070E096E0CEC1AF008500910D8B414D083
:1028E6006C0E356E070E366E000E386E000E376EA5
:1028F60040504110D8A402D0010E01D0000E396E0E
:102906003A6AC3ECF9F0120040504110D8A402D044
:10291600C2841200C29412001DD0000E3225D96E58
:10292600090E3321DA6EDF500201C96F010E07016D
:102936003225016E000E3321026E000E046E500E1B
:10294600036E33EC16F001C532F702C533F73407D0
:10295600D8A03507070134513511D8B41200B7A2F3
:102966001200DBD708C50AF509C50BF520EE02F003
:102976000A50D9260B50DA22DF50D8A410D0310ED7
:102986000201126F320E116F20EE03F00A50D926A3
:102996000B50DA22C8C4DFF4C890C892C88420EE6F
:1029A60002F00A50D9260B50DA22DF2A120012D082
:1029B60008C5D9F409C5DAF4DFC40AF5010EDE2626
:1029C600DFC40BF5000EDD220AC5D9F40BC5DAF417
:1029D600000EDF6E08C5D9F409C5DAF4DEC40AF5BF
:1029E600DDC40BF50AC5D9F40BC5DAF4200EDE18E2
:1029F600D8A41200DDD741ECFAF056500601006F5C
:102A06005750016F026B036B01C603F600C602F650
:102A1600016B006B00C641F501C642F502C643F5DF
:102A260003C644F501D812000500FA6E0701DE510F
:102A3600FD6EDF51FE6EE051FF6EFA501200050189
:102A4600EA51EC6FEB51ED6FEE6BEF6BEDC5EFF509
:102A5600ECC5EEF5ED6BEC6B080EEC25E26F000EA7
:102A6600ED21E36F000EEE21E46F000EEF21E56F1E
:102A7600FD0EE66FE10EE76F000EE96F060EE86FDA
:102A86001FEC0CF01200000E251A000E261A000E7E
:102A9600271A800E281A21C508F522C509F523C56F
:102AA6000AF524C50BF525C50CF526C50DF527C574
:102AB6000EF528C50FF546ECC0F008C521F509C589
:102AC60022F50AC523F50BC524F5120008C5F6F450
:102AD60009C5F7F4000EF86E0800F5500A18D8A4D8
:102AE60005D008C508F509C509F5120008C5F6F4AC
:102AF60009C5F7F4084A092A000EF86E0800F550D1
:102B06000009D8A4E3D7000E086E000E096E120065
:102B160004011969C9680969C7681169C86801812A
:102B2600C6800183C682018BC68A198DC98CC18E67
:102B3600C99E550E596FAA0E596F5991080E5D6FB1
:102B4600000E5E6F000E5F6F550E596FAA0E596F1D
:102B5600598112000AC511F50BC512F508C50FF506
:102B660009C510F510D011C5D9F412C5DAF4DF5035
:102B76000E6E114A122A0FC5D9F410C5DAF40EC525
:102B8600DFF40F4A102A0C06D8A00D060C28EBE13C
:102B96000D28D8B41200E7D708C50AF509C50BF504
:102BA60002D0084A092A08C5F6F409C5F7F4000E4A
:102BB600F86E250EF76403D00800F55005D0F6C46C
:102BC600E9F4F7C4EAF4EF500009D8A4EAD70A50AA
:102BD600085C086E0B500958096E12000A500B105B
:102BE600D8B418D0010E0C6E04D0D8900A360B3625
:102BF6000C2A0BAEFAD70A50085C0B500958D8A01D
:102C060004D00A50085E0B50095AD8900B320A328B
:102C16000C2EF1D708C508F509C509F512001A0EDC
:102C26000E24086E000E0F20096E10C50AF511C598
:102C36000BF5DFEC18F00CC5D9F40DC5DAF4030E6C
:102C4600DE18D8A41200140E0E24086E000E0F20F3
:102C5600096E12C50AF513C50BF5DFEC18F0120064
:102C660003500410D8B418D0010E056E04D0D890C5
:102C760003360436052A04AEFAD70350015C045025
:102C86000258D8A004D00350015E0450025AD890CE
:102C960004320332052EF1D701C501F502C502F54E
:102CA60012000701185119111A11D8B40DD001D804
:102CB60012000500FA6E1851FD6E1951FE6E1A517A
:102CC600FF6EFA50000E1200A50E0501BE6FF20E41
:102CD600BF6FA90EC06FF30EC16FF3EC18F01200B0
:102CE6000AC50CF50BC50DF508C50EF509C50FF59A
:102CF6000CC5F6F40DC5F7F40C4A0D2A000EF86E55
:102D06000EC5D9F40FC5DAF40E4A0F2A0800F5C429
:102D1600DFF4DF50D8B41200EBD70501F2510701FA
:102D2600F81905E10501F3510701F919D8A4D2EC08
:102D360011F0F2C5EAF5F3C5EBF5F4C5ECF5F5C50A
:102D4600EDF5DEEC0AF0000E0701436F010E426F4F
:102D5600120041504210D8B40CD0000E0201056F8B
:102D6600000E036FBE88BE84400EC96E000EC76E8D
:102D76001200A9EC0FF07F0EC96EC768C868010E75
:102D86000201056F020E036F120020EE01F00850DB
:102D9600D9260950DA22DF500A6E0A500D6E0E6AE5
:102DA60008C5D9F409C5DAF4DF500A6E0D500B6E6A
:102DB6000A500D6E0BC50EF50DC508F50EC509F5C5
:102DC6001200000E1A6E000E196E0BD018C50BF508
:102DD6000C6A16C50DF517C50EF5F5EC07F0194A80
:102DE6001A2A19501424D96E1A501520DA6EDF509B
:102DF600186E1850D8B41200E9D708C50AF509C5E7
:102E06000BF520EE02F00A50D9260B50DA22DF0627
:102E1600DF50D8A41200000E0201126F000E116FCF
:102E260020EE03F00A50D9260B50DA22DF50C86E86
:102E360012000D6E0D500F0B086E096AC40E0824A1
:102E4600D96E090E0920DA6EDF500A6E0D380F0BA7
:102E56000F0B0B6E0C6AD40E0B24D96E090E0C20C8
:102E6600DA6EDF500A1012000701185119111A11F3
:102E7600D8B40DD001D80BD00500FA6E1851FD6EEE
:102E86001951FE6E1A51FF6EFA50010E120056C508
:102E9600F6F557C5F7F5E1EC0BF0120000FF06005A
:102EA60006A5065A06FF0A000AA50A5A0AFF008066
:102EB60040C020A060E0109050D030B070F0000804
:102EC600040C020A060E0109050D030B070F07D0B5
:102ED60008C5D9F409C5DAF4DE2A000EDD2208C5D4
:102EE600D9F409C5DAF4DEC40AF5DDC40BF50AC562
:102EF600D9F40BC5DAF4200EDE18D8A41200E8D7F0
:102F060032C515F533C516F534C517F535C518F5AB
:102F160036C519F537C51AF5000E1B6E17ECBDF050
:102F260015C532F516C533F517C534F518C535F58B
:102F36001200180EBE6FEE0EBF6FD8C5C0F5D9C50C
:102F4600C1F5DAC5C2F5DBC5C3F5DEC5C4F5DFC517
:102F5600C5F5DCC5C6F5DDC5C7F5F3EC18F0B5EC6F
:102F66001AF012001BBE05D01B5010E11A04D8B08F
:102F76000DD01AC51CF51BC51DF51C1E1D1E1C4AB1
:102F86001D2A1CC51AF51DC51BF512001AC51AF512
:102F96001BC51BF51200010E0C6E200E0818091039
:102FA600D8B40ED0F70E08240A6EFF0E09200B6E59
:102FB6000B5004E1050E0A5CD8A002D0000E0C6E80
:102FC6000CC508F5096A12001B6E00C71CF501C77F
:102FD6001DF51CC516F51DC517F585EC19F01E6EF9
:102FE6001B501E18D8A407D01906D8A01A061950C7
:102FF6001A10D8A4EED71E501200200E08100A6E22
:10300600000E09100B6E9F0E0A240C6EFF0E0B208D
:103016000D6E0D5006E11A0E0C5CD8B002D0010EF2
:1030260001D0000E086E096A1200B7A00ED0C7C202
:1030360007F50750D8B404D00750D0EC13F005D0EC
:10304600000E07014B6F010E4A6F8FEC14F03451DE
:103056003511D8A41100A7921100E3C5D8F5E4C52F
:10306600D9F5E50EDA6F050EDB6F12EC02F0E76FAD
:10307600E751D8A41200E3C5D9F4E4C5DAF4000E8A
:10308600DE6E000EDD6E1200D8510701485D495113
:10309600800A516E0501D951800A5158D8B01200E4
:1030A600950EBE6FE70EBF6FD8C5C0F5D9C5C1F581
:1030B600F3EC18F01200085009100A100B10D8B4DF
:1030C60008D0000E081A000E091A000E0A1A800E01
:1030D6000B1A08C508F509C509F50AC50AF50BC591
:1030E6000BF512000CC50EF50DC50FF50CC508F550
:1030F6000DC509F5000E0B6E000E0A6E66EC1AF091
:1031060020EE05F00E50D9260F50DA22DF50C86E99
:1031160012009F0E0C240E6EFF0E0D200F6E0F5028
:1031260009E11A0E0E5CD8B005D05F0E0C140C6EB9
:103136000D6A12000CC50CF50DC50DF5120000C781
:1031460044F501C745F544C542F545C543F5A7EC29
:1031560019F044C512F545C513F5000E156E010E9E
:10316600146E0AEC13F012006C0E086E070E096E50
:103176000CEC1AF008500910D8B405D0C60E0A6E29
:10318600EE0E0B6E12001F0E0A6EF60E0B6E12007E
:103196006C0E086E070E096E0CEC1AF0085009103A
:1031A600D8B405D02B0E0A6EEF0E0B6E1200BD0EB4
:1031B6000A6EFF0E0B6E120008C5D9F409C5DAF4C3
:1031C6000AC5DFF4084A092A0BC50AF50B6A08C5C1
:1031D600D9F409C5DAF40AC5DFF4084A092A120047
:1031E600C00E0501D66F050ED76F000EB66F000E26
:1031F600B76FBEC5B8F5BFC5B9F5D60EBA6F050E21
:10320600BB6FDDEC10F012000CD0050E096E0F0E30
:10321600086EF10EE82EFED7082EFCD7092EFAD737
:1032260000F0070134513511D8B41200EED708501A
:103236000A02F3C40CF5F4C40DF508500B02F35062
:103246000D2609500A02F3500D260CC508F50DC5CA
:1032560009F512009F0E08240A6EFF0E09200B6E58
:103266000B5006E11A0E0A5CD8B002D0010E01D04E
:10327600000E086E096A1200BF0E08240A6EFF0EC1
:1032860009200B6E0B5006E11A0E0A5CD8B002D06C
:10329600010E01D0000E086E096A1200D00E082435
:1032A6000A6EFF0E09200B6E0B5006E10A0E0A5C31
:1032B600D8B002D0010E01D0000E086E096A1200C5
:1032C6002D682BC51CF52CC51DF52D0E1E6E050E85
:1032D6001F6E000E216E010E206E45EC08F02D507B
:1032E600120043C541F544C542F501D81200050058
:1032F600FA6E0801F551FD6EF651FE6EF751FF6E3E
:10330600FA501200186816C508F517C509F5180E03
:103316000A6E050E0B6E000E0D6E010E0C6EA0EC05
:10332600C9F01850120042C508F543C509F5B5ECB9
:1033360014F042C53EF543C53FF5000E416E010E41
:10334600406E69EC14F0120042C53EF543C53FF5E8
:10335600000E416E000E406E69EC14F042C508F591
:1033660043C509F500EC17F0120054EC07F001D83C
:1033760012000500FA6E0801F251FD6EF351FE6E61
:10338600F451FF6EFA5012000701185119111A1163
:10339600D8B406D056C5EEF557C5EFF5A5EC07F03F
:1033A60054EC16F012003E6E6C0E356E070E366E3D
:1033B600000E386E040E376E3EC539F53A6AC3EC18
:1033C600F9F0120001D812000500FA6E0801EC515E
:1033D600FD6EED51FE6EEE51FF6EFA50120052C5B3
:1033E6000AF553C50BF508C552F509C553F50AC5C7
:1033F60008F50BC509F5120054C50AF555C50BF5B8
:1034060008C554F509C555F50AC508F50BC509F5EE
:10341600120020EE02F00850D9260950DA22DEC446
:1034260008F5DDC409F51200FFFFFFFF01000100EA
:0D343600FFFF0F00FF00FF00FF01FFCF01AF
:103444002BEC1AF00AC508F50BC509F5D5EC1AF0F2
:10345400120001D04E0707014E51800A7F0FD8A0F9
:103464001200F8D7000E086EC00E096EFF0E0A6E29
:10347400FF0E0B6E1200000E086E000E096E210E78
:103484000A6E000E0B6E12001A0E07011B6F1A0E45
:103494001C6F000E1D6F1200B5BA120007014A51CD
:1034A4004B11D8A41200F8D7086E0804D8A412004F
:1034B4000001D785D79512000A6E07EC19F0B7A260
:1034C400FED70AC5C9F212000A500B10D8A402D0C4
:1034D400C2841200C2941200FF00000E0601BD6FE8
:1034E400000EBC6F1200086E08A002D0C282120047
:1034F400C292120056C5F6F557C5F7F547EC0DF024
:103504001200086E08A002D0C18E1200C19E1200E3
:10351400086E08A002D0C2801200C2901200000EF1
:1035240007013B6F0A0E3A6F1200000E0601BD6FD1
:10353400010EBC6F1200086E08C5F2F70701F36BA9
:103544001200B5BA02D0D8901200D8801200CEBAB8
:1035540002D0D8901200D8801200CEB002D0D890F9
:103564001200D8801200FF0E0B6E0A6822EC1AF0CB
:1035740012003AC708F53BC709F512003F0E096E61
:1035840008681200086E08C5C0F41200086E08C569
:10359400C8F41200B59A1200D0501200CF50120095
:0835A400FC5112001200FFD7D8
:10DCBA000080F8770700D0F57807007DF57907002E
:10DCCA0080F47A0700E0F57B070176F66F08006DAD
:10DCDA00F4700800D2F371080015F3720800F4F624
:10DCEA0073080014F574080093F475080094F37629
:10DCFA000800F0F4770802819FE0FC407E80FC0077
:10DD0A000090002900A10010000000E1FF0201A616
:10DD1A00F7000246FB000314FD000490FE00058A8A
:10DD2A00FE0106C2F800077FFF000839F90009C59D
:10DD3A00F9000A43F9000B0DFD000CAEFE000DA818
:10DD4A00FE010E33FA000F84FF01104EFC0211BED1
:10DD5A00F700129DF9001392FD0014D2FE0015CCB3
:10DD6A00FE0116CDF80017CDFF011850FF0019E388
:10DD7A00F9001A4DF9001B8BFD001CF0FE001DEA8C
:10DD8A00FE011E3DFA001FD1FF0120E2FA0221D650
:10DD9A00F70222E6F6002317FE00240EFF002508EC
:10DDAA00FF0126D8F80027C9FF012846FC00291FD1
:10DDBA00FA022A84F6002B10FE002C2CFF002D26D6
:10DDCA00FF012E47FA002FDDFF0130D9FA0231EEAA
:10DDDA00F7023228F7003333FE00349AFA003591FD
:10DDEA00FA0136A0F60037D9FF01383EFC0039297E
:10DDFA00FA023A1BF7003B2CFE003C72FE003D6C17
:10DE0A00FE013EB7F8003FD5FF0040B2FC0041E3F7
:10DE1A00FC004230FD004361FD0044B5FD0045E6CB
:10DE2A00FD004661F9004781FC0048B9FC0049EA57
:10DE3A00FC004A37FD004B68FD004CBCFD004DED6F
:10DE4A00FD004E6BF9004F88FC0050C0FC0051F1F8
:10DE5A00FC00523EFD00536FFD0054C3FD0055F413
:10DE6A00FD005675F900578FFC0058C7FC0059F899
:10DE7A00FC005A45FD005B76FD005CCAFD005DFBB7
:10DE8A00FD005E7FF9005F96FC0060CEFC0061FF3A
:10DE9A00FC00624CFD00637DFD0064D1FD0065025B
:10DEAA00FE006689F900679DFC0068D5FC006906DA
:10DEBA00FD006A53FD006B84FD006CD8FD006D09FE
:10DECA00FE006E93F9006FA4FC0070B1F90071BBFB
:10DEDA00F90072CFF90073D9F90074EDF9007515DC
:10DEEA00FA0076A7FF0077A7F90078ABFC0079DC87
:10DEFA00FC007A29FD007B5AFD007CAEFD007DDF27
:10DF0A00FD007E57F9007F7AFC00805EFB00817677
:10DF1A00FB008296FB0083AEFB0084D6FB00852EB5
:10DF2A00FC0086ACF800873EFB008856FB00896E31
:10DF3A00FB008A8EFB008BA6FB008CCEFB008D2695
:10DF4A00FC008EA1F8008F36FB009084FE0091A29F
:10DF5A00FE0092C6FE0093E4FE009402FF009520A4
:10DF6A00FF009688FA009766FE00984EFB009966B5
:10DF7A00FB009A86FB009B9EFB009CC6FB009D1E35
:10DF8A00FC009E96F8009F2EFB00A096FE00A1B40E
:10DF9A00FE00A2D8FE00A3F6FE00A414FF00A532DC
:10DFAA00FF00A6A3FA00A778FE00A89CFE00A9BA63
:10DFBA00FE00AADEFE00ABFCFE00AC1AFF00AD3884
:10DFCA00FF00AEACFA00AF7EFE00B09DFE00B1BB12
:10DFDA00FE00B2DFFE00B3FDFE00B41BFF00B53940
:10DFEA00FF00B6ADFA00B77FFE00B889FF00B98E10
:10DFFA00FF00BA93FF00BB98FF00BC9DFF00BDA2C3
:10E00A00FF00BE1EFB00BF7AFF00C03AFE00C11B24
:10E01A00FD02C2FAF702C3BEFA02C4D8F600C57EF0
:10E02A00FB01C69AF700C7DEFB00C84AFF00C9E534
:10E03A00FF02CA0FF900CB000002CC5CF702CDE365
:10E04A00F801CE8EF700CFFEFB00D022FD00D19959
:10E05A00FD02D2B2F701D392F602D4AEF600D5B6DB
:10E06A00FB01D6F7F900D7E6FB00D8C0FE00D9E9D4
:10E07A00FF02DAEEF801DB0EF702DC4FF700DD00F3
:10E08A000001DE82F700DF06FC00E025FE00E11E4B
:10E09A00FE02E2E2F700E31AF902E4CAF600E53604
:10E0AA00FC01E601FA00E7EEFB00E8A0FD00E92624
:10E0BA00FB02EACAF700EBC7FA02ECBCF600ED0075
:10E0CA000001EE0BFA00EF0EFC00F044FF00F1A78E
:10E0DA00FD02F204F900F3F8FF02F442F700F5BE7C
:10E0EA00FB01F60CFA00F7F6FB00F83EFF00F9D048
:10E0FA00FA02FAF9F800FBFBFF02FC35F700FD0013
:10E10A000001FEB5FA00FF16FCF0000000C39600FD
:10E11A0043502F4D20626F6F742D6C6F616465726E
:10E12A0020666F72205A38302D53696D756C617490
:10E13A006F720D0A000000000000000000000000DD
:10E14A0000000000000000000000000000000000C5
:10E15A0000000000000000000000000000000000B5
:10E16A0000000000000000000000000000000000A5
:10E17A000000000000000000000000000000000095
:10E18A0000000000000000000000000000424F4FA5
:10E19A00543A206572726F7220626F6F74696E678B
:10E1AA000D0A002103007ED30123B7C29900ED4670
:10E1BA00FB010100210000AFD30A78D30B79D30CFD
:10E1CA007DD30F7CD310AFD30DDB0EB7CA0000C6C8
:10E1DA0030D3013E0DD3013E0AD3012180007EB720
:10E1EA00CADC00D30123C3D100F376D31C1827312C
:10E1FA00000000D31B00C30E00ED73B10031AD0067
:10E20A00F5AF32B500C5D5E5DDE5FDE5ED7BB1003D
:10E21A00E122AF0018D52AB3007DB42843110000CB
:10E22A00060E1A77231310FA2AB3001104001922D2
:10E23A00AD00182C000000000000000000000000E3
:10E24A0000000000000000000000000000000000C4
:10E25A0000D31B00ED73B10031AD00F53E0118A2E9
:10E26A00DD2AB3003E1ADD77092AB100DD7505DD26
:10E27A0074063AA000DD770B2323F92AAF00E531B3
:10E28A00A100FDE1DDE1E1D1C1F1FBC9000000001F
:10E29A000000000000000000040000000000000070
:10E2AA000000F5F501CED701000025F95EF2F0F580
:10E2BA0000381D0000002BEF26F57FFA002E3500EE
:10E2CA0000002BEFF4ED76F702A89B010000C0F5E1
:10E2DA0051EBF5FF02A89B0100000000000076FA4E
:10E2EA0004EC640100002DE915ED70FF0212A9018A
:10E2FA000000C0F5E8EE75FF01401600000065FC5D
:10E30A00BDE960FE00DC34000000A6F400006CFCED
:10E31A0002AAC40100002EF6EEEC62FE0276340177
:10E32A0001005AF4A8EB66FF01442300000002F53D
:10E33A0076F073FC009A8E0100002BEF05F0A0F432
:10E34A0002CAE101020001F7FDEB6BFF00AEBE015C
:10E35A0000006AF30000D31E00ED73A000319C0098
:10E36A00F53E0132A400C5D5E5DDE5FDE5ED7BA06E
:10E37A0000E1229E0021000036D323361FC300008D
:10E38A000000000000000000000000000000000083
:10E39A00000000000000D31C180A31000000D31A44
:10E3AA0000FBED4D2A3900310700E52323F92A370E
:10E3BA0000E5312900FDE1DDE1E1D1C1F118DB0021
:10E3CA00000000000000000000000004000000003F
:10E3DA000000000000D31D180500000000002A04F8
:10E3EA0000ED5B06003A08004FAF47EDB03E00185B
:10E3FA00E43100083E00D31D7618F600ED45FBED2A
:10E40A004D696F5F737461742829203D3D20494F1F
:10E41A005F535441545F4E4F545F535441525445D5
:10E42A0044207C7C20696F5F737461742829203DC5
:10E43A003D20494F5F535441545F53544F50504508
:10E44A0044207C7C20696F5F737461742829203DA5
:10E45A003D20494F5F535441545F494E54455252EF
:10E46A005550544544207C7C20696F5F73746174F5
:10E47A002829203D3D20494F5F535441545F505253
:10E48A004550494E564F4B45207C7C20696F5F733F
:10E49A007461742829203D3D20494F5F53544154EB
:10E4AA005F4D4F4E49544F5200696F5F73746174E8
:10E4BA002829203D3D20494F5F535441545F4E4F18
:10E4CA00545F53544152544544207C7C20696F5F09
:10E4DA00737461742829203D3D20494F5F5354418C
:10E4EA00545F53544F50504544207C7C20696F5FE1
:10E4FA00737461742829203D3D20494F5F5354416C
:10E50A00545F4D4F4E49544F52004449534B3A20A1
:10E51A004F503D2530327820442F542F533D2564E7
:10E52A002F2533642F25336420202020202020200B
:10E53A0020202020414444523D2530317825303274
:10E54A007825303278202852442049474E4F524588
:10E55A0044290A0D004449534B3A204F503D253077
:10E56A00327820442F542F533D25642F2533642FAE
:10E57A002533642020202020202020202020204114
:10E58A004444523D2530317825303278253032786E
:10E59A00202857522049474E4F524544290A0D0018
:10E5AA0025733A204552524F523A20492F4F20257F
:10E5BA003573202533642C202533642028253032F6
:10E5CA0058482C20253032584829207768696C65CC
:10E5DA002077616974696E6720666F7220256420EE
:10E5EA00282530325848290A0D004449534B3A200D
:10E5FA004F503D2530327820442F542F533D256407
:10E60A002F2533642F25336420782533643D25353F
:10E61A006C6420414444523D2530317825303278AB
:10E62A0025303278202E2E2E2053543D2530327834
:10E63A000A0D004449534B3A204F503D2530327859
:10E64A0020442F542F533D25642F2533642F25331F
:10E65A006420202020202020202020202041444403
:10E66A00523D253031782530327825303278202EC7
:10E67A002E2E200A0D002F55736572732F74616B4D
:10E68A00656D7572612F776F726B73706163652F39
:10E69A006769746875622F53757065724D455A388B
:10E6AA00302F7372632F6D6F6E69746F722E6300F1
:10E6BA002F55736572732F74616B656D7572612F57
:10E6CA00776F726B73706163652F676974687562BF
:10E6DA002F53757065724D455A38302F7372632FF8
:10E6EA006D656D6F72792E630053442043617264C5
:10E6FA003A20726561643531323A204352432065CB
:10E70A0072726F7220282530347820213D202530FE
:10E71A0034782C2072657472793D2564290A0D00BB
:10E72A005741524E494E473A206E6F204750494F43
:10E73A0020657870616E64657220746F20636F6EF5
:10E74A0074726F6C206869676865722061646472AC
:10E75A006573730A0D002F55736572732F74616B9D
:10E76A00656D7572612F776F726B73706163652F58
:10E77A006769746875622F53757065724D455A38AA
:10E78A00302F7372632F696F2E63005741524E49BF
:10E79A004E473A20746F6F206D616E792062616E08
:10E7AA006B73207265717565737465642E202872A7
:10E7BA00657175657374206973202564290A0D00D3
:10E7CA0074797065202768656C702720746F2073D0
:10E7DA00656520746865206C697374206F662061B2
:10E7EA007661696C61626C6520636F6D6D616E64E0
:10E7FA00730A0D00496D6167652066696C6520259D
:10E80A00732F445249564525632E44534B2069734E
:10E81A002061737369676E656420746F206472691E
:10E82A0076652025630A0D005741524E494E473AF4
:10E83A0020756E6B6E6F776E20492F4F2077726945
:10E84A0074652025642C20256420282530325848F8
:10E85A002C202530325848290A0D006469736B5FF1
:10E86A00696F63746C3A20706472763D25642C205B
:10E87A00636D643D25642C20627566663D3078259B
:10E88A006C783A207265733D25640A0D0053442062
:10E89A00436172643A2020726561643531323A20EC
:10E8AA00616464723D25386C642C206F6666733D22
:10E8BA0025642C20636F756E743D25640A0D005320
:10E8CA004420436172643A20777269746535313243
:10E8DA003A20616464723D25386C642C206F666648
:10E8EA00733D25642C20636F756E743D25640A0D93
:10E8FA0000534420436172643A2077726974653523
:10E90A0031323A206661696C656420746F206765EC
:10E91A007420746F6B656E2C2074696D656F7574E5
:10E92A000A0D005B64726976655D5B2C74726163C3
:10E93A006B5D5B2C736563746F725D5B2C6C656ECB
:10E94A006774685D206F72205B64726976652C5DFE
:10E95A004C4241004449534B3A202072656164207D
:10E96A00442F542F533D25642F2533642F253364B8
:10E97A0020782533643D25356C643A204552524F40
:10E98A00520A0D00534420436172643A2077726937
:10E99A0074653531323A2074696D656F75742C204F
:10E9AA00726573706F6E73652069732025303278D3
:10E9BA000A0D004A756D7020746F20737065636963
:10E9CA0066696564206164647265737320616E644C
:10E9DA0020737461727420657865637574696F6EEB
:10E9EA002000534420436172643A20434D44353831
:10E9FA002C2052333D25303278202530327820259C
:10EA0A00303278202530327820253032780A0D00CD
:10EA1A0025733A204552524F523A20636C6F636B0A
:10EA2A00207370656564202564206973206E6F7495
:10EA3A0020737570706F727465640A0D00534420F8
:10EA4A00436172643A20434D44382C2052373D25A5
:10EA5A00303278202530327820253032782025301F
:10EA6A00327820253032780A0D004449534B3A2037
:10EA7A00207265616420442F542F533D25642F254D
:10EA8A0033642F25336420782533643D25356C643F
:10EA9A003A204F4B0A0D006469736B5F696F6374A8
:10EAAA006C3A20706472763D25642C20636D643D57
:10EABA0025643A204E6F742068616E646C65642E1A
:10EACA000A0D006469736B5F726561643A20207095
:10EADA006472763D25642C20736563746F723D25DC
:10EAEA006C642C20636F756E743D25640A0D006496
:10EAFA0069736B5F77726974653A20706472763DE8
:10EB0A0025642C20736563746F723D256C642C2018
:10EB1A00636F756E743D25640A0D005741524E4964
:10EB2A004E473A2025733A206E6F20696E746572DB
:10EB3A007275707473206C696E6520617661696C98
:10EB4A0061626C650A0D005472616E736C61746562
:10EB5A00206D616368696E6520636F6465206F6EFE
:10EB6A002074686520746172676574206D656D6FC5
:10EB7A00727900534420436172643A20434353201C
:10EB8A002843617264204361706163697479205318
:10EB9A0074617475732920697320300A0D00446901
:10EBAA0073706C6179206F72206368616E6765208B
:10EBBA007370656369666965642064656275672058
:10EBCA007661726961626C650053442043617264C4
:10EBDA003A2077726974653531323A2043524320BC
:10EBEA006572726F72202872657472793D25642984
:10EBFA000A0D0057726974652062797465206F7214
:10EC0A0020737472696E6720746F2074686520744B
:10EC1A006172676574206D656D6F72790053442067
:10EC2A00436172643A204361726420706F7765723F
:10EC3A00207570207374617475732062697320691A
:10EC4A007320300A0D007472616D706F6C696E65A5
:10EC5A005F696E7374616C6C656420213D204D4D53
:10EC6A00555F494E56414C49445F42414E4B0072F2
:10EC7A00656164204D425220706172746974696FD3
:10EC8A006E207461626C6520617420736563746FB1
:10EC9A007220300A0D005741524E494E473A2075AC
:10ECAA006E6B6E6F776E20492F4F207265616420FC
:10ECBA00256420282530325848290A0D005344205B
:10ECCA00436172643A2020726561643531323A20B8
:10ECDA00736563746F723D256C643A204552524FD6
:10ECEA00520A0D00446973706C6179206461746121
:10ECFA0020626C6F636B2873292066726F6D2074B3
:10ED0A006865205344204361726400446973706CDF
:10ED1A00617920736563746F722873292066726F34
:10ED2A006D206469736B20696D6167652066696C23
:10ED3A006500534420436172643A20534448432097
:10ED4A006F7220534458432063617264206465746F
:10ED5A0065637465640A0D0025733A204552524F63
:10ED6A00523A206D6F6465202564206973206E6FA6
:10ED7A007420737570706F727465640A0D00534461
:10ED8A0020436172643A20696E697469616C697AB8
:10ED9A0065202E2E2E207375636365656465640A8B
:10EDAA000D00534420436172643A20756E65787091
:10EDBA00656374656420726573706F6E7365202570
:10EDCA003032780A0D00534420436172643A20209D
:10EDDA00726561643531323A20736563746F723DCE
:10EDEA00256C643A204F4B0A0D0045786974206DF2
:10EDFA006F6E69746F7220616E6420636F6E7469DE
:10EE0A006E756520657865637574696F6E00417308
:10EE1A0073657274696F6E206661696C65643A2005
:10EE2A002573202825733A2025733A202564290A58
:10EE3A0000534420436172643A2041434D443431C3
:10EE4A0020726573706F6E73652069732025303286
:10EE5A00780A0D00534420436172643A207772693C
:10EE6A0074653531323A20746F6B656E2069732090
:10EE7A00253032780A0D004552524F523A206261CB
:10EE8A006E6B202564206973206E6F742061766131
:10EE9A00696C61626C652E0A0D00534420436172ED
:10EEAA00643A20434D44353920726573706F6E732E
:10EEBA006520697320253032780A0D005375706514
:10EECA00724D455A38302B5350492077697468205F
:10EEDA004750494F20657870616E646572004469D5
:10EEEA0073706C61792064617461206F6E2074683C
:10EEFA006520746172676574206D656D6F72790043
:10EF0A004D656D6F727920303030303030202D20D1
:10EF1A002530366C5848202564204B42204F4B0D33
:10EF2A000A00706172746974696F6E207374617219
:10EF3A00747320617420736563746F7220256C6426
:10EF4A000A0D0025733A20696E74657272757074C1
:10EF5A00206973206E6F7420617661696C61626CDE
:10EF6A00650A0D00665F777269746528293A20453B
:10EF7A0052524F52207265733D25642C206E3D25F6
:10EF8A00640A0D00665F7265616428293A20455259
:10EF9A00524F52207265733D25642C206E3D2564C4
:10EFAA000A0D00696F5F696E766F6B655F746172D7
:10EFBA006765745F6370755F74656172646F776E9D
:10EFCA00006661696C656420746F20777269746584
:10EFDA0020736563746F7220256C640A0D00696F73
:10EFEA005F696E766F6B655F7461726765745F6384
:10EFFA0070755F7072657061726500446973706CD8
:10F00A00617920737461747573206F662074686502
:10F01A0020746172676574006661696C6564207446
:10F02A006F207265616420736563746F7220256C4A
:10F03A00640A0D000A0D534420436172643A206940
:10F04A006E697469616C697A65202E2E2E0A0D002C
:10F05A00436C65617220627265616B706F696E7470
:10F06A00206174202530346C580A0D004578656398
:10F07A00757465206E65787420696E737472756331
:10F08A0074696F6E28732900534420436172643A8D
:10F09A002041434D4434312C2052313D25303278C1
:10F0AA000A0D000A0D526573657420627920494F72
:10F0BA0020706F72742025303258480A0D0046615C
:10F0CA00696C656420746F206F70656E20534420EC
:10F0DA00436172642E2E0A0D004661696C656420D4
:10F0EA00746F206D6F756E7420534420436172648F
:10F0FA002E0A0D0050726566657272656420646935
:10F10A00736B20696D6167653A2025730A0D006685
:10F11A0061696C656420746F20726561642073652F
:10F12A0063746F7220300A0D000A0D48414C542056
:10F13A00627920494F20706F727420253032584806
:10F14A000A0D0053657420627265616B706F696E97
:10F15A0074206174202530346C580A0D0064697378
:10F16A006B5F696E697469616C697A6528256429BF
:10F17A002E2E2E0A0D00534420436172643A206EEB
:10F18A006F74207375706F70727465640A0D005322
:10F19A004420436172643A20434D44302C2052315A
:10F1AA003D253032780A0D00202020202020202002
:10F1BA002020202020202020202020202020200D58
:10F1CA00007761697420666F722070726F6772616E
:10F1DA006D6D6572202E2E2E0D00496E76616C695A
:10F1EA006420617267756D656E743A2027257327EE
:10F1FA000A0D005354415455533A2025632563257B
:10F20A0063256325632563256325630025732535F7
:10F21A00337320434845434B53554D3A20253032EA
:10F22A00780A0D00556E6B6E6F776E207661726983
:10F23A0061626C6520272573270A0D004272656199
:10F24A006B706F696E74206973206E6F74207365BA
:10F25A00740A0D00536574206F722073686F7720EB
:10F26A00627265616B20706F696E74004D656D6FB7
:10F27A00727920303030303030202D202530366CF5
:10F28A0058480D00706879736963616C206472690B
:10F29A0076657220213D20300A0D0025733A206ED2
:10F2AA006F20696E746572727570742070696E0A67
:10F2BA000D00416D626967756F757320636F6D6DBF
:10F2CA00616E642025730A0D00665F6C7365656B59
:10F2DA0028293A204552524F522025640A0D0042ED
:10F2EA007265616B706F696E7420697320253034A2
:10F2FA006C580A0D00556E6B6E6F776E20636F6DDA
:10F30A006D616E643A2025730A0D00646562756743
:10F31A005F6661746469736B5F766572626F736549
:10F32A00006E6F20464154333220706172746974E2
:10F33A00696F6E0A0D00665F73796E6328293A2039
:10F34A004552524F522025640A0D00696F5F696E5B
:10F35A00766F6B655F7461726765745F6370750061
:10F36A00446973706C61792074686973206D657380
:10F37A0073616765007265696E7374616C6C5F7442
:10F38A0072616D706F6C696E650064656275675F46
:10F39A007364636172645F766572626F7365006D30
:10F3AA006F6E5F6173736572745F696E7465727292
:10F3BA00757074005350495F494F4558505F636FE9
:10F3CA006E6669677572650064656275675F666116
:10F3DA00746469736B5F77726974650073697A65BF
:10F3EA006F6628706172616D7329203D3D2035007A
:10F3FA004D3A204D6F6E69746F722070726F6D7026
:10F40A00740A0D006E6F204D4252207369676E6157
:10F41A00747572650A0D00534420436172643A2080
:10F42A0074696D656F75740A0D00696E76616C6931
:10F43A00642064726976652025640A0D0077726912
:10F44A007465205B616464725D2C76616C0A0D00E0
:10F45A005B7661726961626C655D5B3D76616C7554
:10F46A00655D0064656275675F6661746469736B84
:10F47A005F726561640064656275675F6469736B76
:10F48A005F766572626F73650064656275675F7344
:10F49A0064636172645F777269746500526573743C
:10F4AA00617274207468652073797374656D005F86
:10F4BA005F6D656D6370795F6F6E5F7461726765AA
:10F4CA0074006E6F2076616C696420766F6C756D5E
:10F4DA00650A0D00534420436172643A20726561E3
:10F4EA0064792E0A0D007A38305F636C6F636B5F44
:10F4FA004E434F31494E43005B6E756D6265722013
:10F50A006F662073746570735D0064656275675F0A
:10F51A007364636172645F7265616400436C656100
:10F52A007220627265616B20706F696E7400257358
:10F53A002069732073656C65637465642E0A0D0017
:10F54A005350495F53445F636F6E666967757265AE
:10F55A0000427265616B206174202530346C580A50
:10F56A000D004D4D553A2062616E6B2025303258A0
:10F57A0020200064656275675F6469736B5F7772E8
:10F58A00697465004E434F313A20252E3266204B6E
:10F59A00487A0A0D004E434F313A20252E32662012
:10F5AA004D487A0A0D0025733D256C642028256C88
:10F5BA005868290A0D005B616464725D5B2C6C6596
:10F5CA006E6774685D0064656275675F6469736B12
:10F5DA005F726561640064656275675F6469736B15
:10F5EA005F6D61736B00636C656172627265616BFA
:10F5FA00706F696E74004E6F20626F6F7420646959
:10F60A00736B2E0A0D002A2B2C3A3B3C3D3E5B5D68
:10F61A007C223F7F0053757065724D455A38302BF6
:10F62A00535049005B4C42415D5B2C6C656E6774BC
:10F63A00685D0025732F445249564525632E44536D
:10F64A004B004E6F20534420436172643F0A0D0001
:10F65A00696F5F776169745F777269746500257392
:10F66A003D25642028255868290A0D0064656275BD
:10F67A00675F6661746469736B004C4420484C2C64
:10F68A0028253034584829004F555420282530322F
:10F69A005848292C41004C442028484C292C253014
:10F6AA003258480043414C4C204E432C25303458A4
:10F6BA00480043414C4C2050452C253034584800D2
:10F6CA0043414C4C20504F2C25303458480043417C
:10F6DA004C4C204E5A2C2530345848004C44202893
:10F6EA002530345848292C484C0064656275675F98
:10F6FA00736463617264005B616464725D2C766139
:10F70A006C756500494E20412C282530325848290D
:10F71A00004C4420412C28253034584829004C44B8
:10F72A0020282530345848292C410043414C4C208C
:10F73A004D2C25303458480043414C4C20502C2540
:10F74A00303458480043414C4C20582C253034580A
:10F75A00480043414C4C205A2C2530345848005319
:10F76A00656C6563745B25645D3A20006469736146
:10F77A007373656D626C650053424320412C2530DA
:10F78A003258480041444320412C25303258480021
:10F79A0041444420412C2530325848004C442042F0
:10F7AA00432C2530345848004A50204E432C2530EB
:10F7BA00345848004C442044452C253034584800DD
:10F7CA004A502050452C2530345848004C44204893
:10F7DA004C2C2530345848004A5020504F2C2530A4
:10F7EA00345848004C442053502C25303458480093
:10F7FA004A50204E5A2C253034584800426F6172C4
:10F80A00643A2025730A0D0070726F6772616D3A4F
:10F81A000A0D0049593A20253034580A0D000A0DBC
:10F82A002020202025730A0D0042433A2025303437
:10F83A005820200050433A202530345820200044D4
:10F84A00453A202530345820200041463A202530B8
:10F85A003458202000484C3A2025303458202000C3
:10F86A0053503A202530345820200049583A202550
:10F87A0030345820200064656275675F6469736B71
:10F88A00006C656E203C3D203235360053424320E1
:10F89A00412C28484C290041444320412C28484CFB
:10F8AA00290041444420412C28484C29004C44203A
:10F8BA00412C2530325848004C4420422C25303205
:10F8CA005848004C4420442C2530325848004C44B7
:10F8DA0020482C25303258480043414C4C202530D2
:10F8EA00345848004A5020432C2530345848004A9E
:10F8FA0050204D2C2530345848004A5020502C2591
:10F90A0030345848004A50205A2C25303458480080
:10F91A00455820285350292C484C005B6164647276
:10F92A006573735D006D6F6E5F7365747570004506
:10F93A00582041462C414627004C4420412C28425D
:10F94A004329004C4420412C28444529004C44209A
:10F95A00412C28484C29004C4420422C28484C2948
:10F96A00004C4420432C28484C29004C4420442C69
:10F97A0028484C29004C4420452C28484C29004C46
:10F98A004420482C28484C29004C44204C2C284818
:10F99A004C29004C4420284445292C41004C442041
:10F9AA0028484C292C41004C442028484C292C42F8
:10F9BA00004C442028484C292C4300414444204808
:10F9CA004C2C4243004C442028484C292C44004CDF
:10F9DA00442028484C292C450041444420484C2CBA
:10F9EA004445004C442028484C292C480053554291
:10F9FA0020253032584800414E442025303258489C
:10FA0A0000584F52202530325848004C442028488C
:10FA1A004C292C4C0041444420484C2C484C004171
:10FA2A00444420484C2C5350004C4420432C25304D
:10FA3A003258004C4420452C25303258004C442082
:10FA4A004C2C253032580043504D4449534B532EC9
:10FA5A000025732530366C783A00464154333220FB
:10FA6A00202000737461636B3A0A0D006469736B3A
:10FA7A007265616400636F6E74696E7565005355D3
:10FA8A00422028484C29004445432028484C290054
:10FA9A00494E432028484C2900414E442028484CCE
:10FAAA002900584F522028484C290043502025301D
:10FABA00325848004A5020253034584800455820CA
:10FACA0044452C484C004C442053502C484C004A86
:10FADA0052204E432C2564004A52204E5A2C25644B
:10FAEA000025643A2025730A0D0053656C6563741A
:10FAFA003A200043504D4449534B53002573253057
:10FB0A0034783A004572726F720A0D000D2573251A
:10FB1A00730A0D0043502028484C29004A502028D7
:10FB2A00484C290053424320412C41004144432080
:10FB3A00412C410041444420412C41004C44204284
:10FB4A00432C410053424320412C4200414443206C
:10FB5A00412C420041444420412C4200534243205C
:10FB6A00412C430041444320412C4300414444205A
:10FB7A00412C4300505553482042430053424320EE
:10FB8A00412C440041444320412C44004144442038
:10FB9A00412C440053424320412C45004144432018
:10FBAA00412C450041444420412C450050555348BE
:10FBBA0020444500505553482041460053424320B3
:10FBCA00412C480041444320412C480041444420F0
:10FBDA00412C48005253542030304800525354208C
:10FBEA003130480052535420323048005253542086
:10FBFA00333048005253542030384800525354206E
:10FC0A003138480052535420323848005253542055
:10FC1A003338480053424320412C4C00414443208E
:10FC2A00412C4C0041444420412C4C00505553482F
:10FC3A0020484C004A5220432C2564004A52205A3C
:10FC4A002C256400444A4E5A2C25640043504D44E6
:10FC5A0049537E003C25643E0A0D005B6164647270
:10FC6A005D00736472656164007374617475730016
:10FC7A004C4420412C41004C4420422C41004C442D
:10FC8A0020432C41004C4420442C41004C44204544
:10FC9A002C41004C4420482C41004C44204C2C411F
:10FCAA00004C4420412C42004C4420422C42004C3F
:10FCBA004420432C42004C4420442C42004C442013
:10FCCA00452C42004C4420482C42004C44204C2CE9
:10FCDA0042004C4420412C43004C4420422C430017
:10FCEA004C4420432C43004C4420442C43004C44B5
:10FCFA0020452C43004C4420482C43004C44204CC3
:10FD0A002C430044454320424300494E432042438A
:10FD1A0000504F5020424300524554204E43004C5D
:10FD2A004420412C44004C4420422C44004C4420A2
:10FD3A00432C44004C4420442C44004C4420452C81
:10FD4A0044004C4420482C44004C44204C2C440091
:10FD5A004C4420412C45004C4420422C45004C4444
:10FD6A0020432C45004C4420442C45004C4420455B
:10FD7A002C45004C4420482C45004C44204C2C4532
:10FD8A000044454320444500494E43204445005021
:10FD9A004F502044450052455420504500504F5082
:10FDAA00204146004C4420412C48004C4420422C1F
:10FDBA0048004C4420432C48004C4420442C480022
:10FDCA004C4420452C48004C4420482C48004C44C4
:10FDDA00204C2C48004C4420412C4C004C442042DE
:10FDEA002C4C004C4420432C4C004C4420442C4CBA
:10FDFA00004C4420452C4C004C4420482C4C004CD0
:10FE0A0044204C2C4C0044454320484C00494E4366
:10FE1A0020484C00504F5020484C00524554205026
:10FE2A004F0044454320535000494E43205350004D
:10FE3A00524554204E5A002530366C582000202551
:10FE4A00303278006661743A20006275663A2000A2
:10FE5A000D2573200D007265736574005355422099
:10FE6A004100444543204100494E43204100414E50
:10FE7A0044204100584F522041005355422042002D
:10FE8A00444543204200494E43204200414E44200B
:10FE9A004200584F522042005355422043004445E5
:10FEAA0043204300494E43204300414E442043002F
:10FEBA00584F522043005245542043005355422084
:10FECA004400444543204400494E43204400414EE7
:10FEDA0044204400584F52204400535542204500C4
:10FEEA00444543204500494E43204500414E4420A5
:10FEFA004500584F5220450053554220480044457A
:10FF0A0043204800494E43204800414E44204800BF
:10FF1A00584F52204800535542204C004445432034
:10FF2A004C00494E43204C00414E44204C00584F4F
:10FF3A0052204C00524554204D0052455420500046
:10FF4A00524554205A004A5220256400253032581E
:10FF5A00200053443A20004D4F4E3E0073746570A2
:10FF6A000068656C700064756D70006A756D70006C
:10FF7A004350204100524C434100525243410043F6
:10FF8A005020420043502043004350204400435035
:10FF9A0020450043502048004350204C0048414C23
:10FFAA005400303A2F2F00696E66006E616E006C45
:10FFBA006C730050494F000D2573002025730044CF
:10FFCA00414100524C4100525241004343460053C2
:10FFDA0043460043504C004E4F5000524554004592
:10FFEA005858003F3F3F004D0A0D006469004449DC
:05FFFA00004549000074
:020000040001F9
:100000004CEC01F001D80BD00500FA6E0701D85175
:10001000FD6ED951FE6EDA51FF6EFA501200D8A073
:100020001200000E0601F66F000EF56F01D80BD01E
:100030000500FA6E0801DD51FD6EDE51FE6EDF51E6
:10004000FF6EFA5012000601FC6F01D80BD00500BC
:10005000FA6E0801DA51FD6EDB51FE6EDC51FF6E67
:10006000FA5012000601FD6F0701DB51DC11DD11B2
:10007000D8A406D0000E0601E86F010EE76F14D079
:1000800001D80AD00500FA6EDB51FD6EDC51FE6E20
:10009000DD51FF6EFA501200D8A002D0010E01D03F
:1000A000000E0601E76FE86BE751E811D8B426D0DF
:1000B0000701F3BF23D0000E3B6F230E3A6F01D828
:1000C0000BD00500FA6EE451FD6EE551FE6EE6516F
:1000D000FF6EFA50000E120001D80CD00500FA6E27
:1000E0000701D251FD6ED351FE6ED451FF6EFA500E
:1000F000F25112000701F269F3691BD10701DB51CC
:10010000DC11DD11D8A406D0000E0601EA6F010E45
:10011000E96F14D001D80AD00500FA6EDB51FD6EEC
:10012000DC51FE6EDD51FF6EFA501200D8A002D0F5
:10013000010E01D0000E0601E96FEA6BE951EA11E8
:10014000D8B406D0000E07013B6F280E3A6F58D284
:10015000000E07013B6F1E0E3A6F01D8CBD0050091
:10016000FA6EE451FD6EE551FE6EE651FF6EFA50F7
:10017000000E1200070138513911D8B405D001D84A
:10018000D2D00500FA6EADD001D8CDD00500FA6E00
:10019000D251FD6ED351FE6ED451FF6EFA50000E57
:1001A000120007EC19F0D2EC0EF00601E66F01D850
:1001B000BAD00500FA6E0701D251FD6ED351FE6E22
:1001C000D451FF6EFA500601E651120007012E517C
:1001D0002F11D8B427D0500E2E5D0601D46F0A0E11
