:0400000081EF00F09C
:10000800DA05DA05DA05DA054000DA054000DA052E
:10001800DA05DA05DA05DA05DA05DA05DA05DA05E0
:10002800DA05400040004000DA05DA05DA05DA05AD
:10003800DA05DA05DA05DA05DA05DA05DA05DA05C0
:10004800DA05DA05DA05DA0540004000DA05DA05EE
:10005800DA05DA05DA054000DA05DA05DA05DA053F
:10006800DA05DA05DA05DA05DA05DA05DA05DA0590
:10007800DA05DA05DA05DA054000DA05DA05DA051F
:10008800DA05DA05DA05DA05DA05DA05DA05DA0570
:10009800DA05DA05DA05DA054000DA05400040003D
:1000A800DA05DA05DA05DA05DA05DA05DA05DA0550
:1000B800DA05DA05DA05DA05DA05DA05DA05DA0540
:1000C800DA05DA05DA05DA05DA05DA05DA05DA0530
:1000D800DA05DA05DA05DA05DA05DA05DA05DA0520
:1000E8004000DA05DA05DA0540004000400040002B
:1000F800DA05DA05DA05DA05FF0049EFF7F0000E50
:100108000D6E000E0C6E08015E51D8B402D0010EBF
:1001180001D0000E0C125F51D8A40C826051D8A4F3
:100128000C846151D8A40C860CC508F50DC509F5D9
:100138005DEC0DF0000E0D6E000E0C6E08016251A4
:10014800D8B402D0010E01D0000E0C126351D8A40D
:100158000C826451D8A40C846551D8A40C860CC5B3
:1001680008F50DC509F56AEC0DF066C843F467C8D3
:1001780044F468C845F466C843F467C844F468C8DA
:1001880045F41200080E0001B16F000E0401006F63
:10019800000E086F000E106F000E186F209120934C
:1001A8002095000E086F000E286F000E186FC2927F
:1001B800CA92010E0201D56FA00ED46FD189D18BDE
:1001C800C68E070E766FBE8CC69C260E076FD28F22
:1001D800C290CA90C284CA94000EBF6E000EC76E49
:1001E800000EC36E000ECB6E3F0E046FC696320E25
:1001F8000401436F330E446F030E456F000E476FC3
:100208004691468F120011C7C2F612C7C3F613C72C
:10021800C4F614C7C5F6BEC6D9F4BFC6DAF4DE50B4
:10022800DE10D8B421D0BEC6D9F4BFC6DAF4DEC415
:10023800C0F6DDC4C1F6C0C6D9F4C1C6DAF4DF50D1
:10024800D8B412D0BEC6D9F4BFC6DAF4DEC438F5C5
:10025800DDC439F555ECD9F038C5C2F639C5C3F651
:100268003AC5C4F63BC5C5F6C4C6D8F5C5C6D9F562
:10027800D2ECF4F0C2C663F7C3C664F7000E0601F9
:10028800BD6F010EBC6F1200000E106E000E116ED5
:10029800000E126E000E136E0C500D100E100F1083
:1002A800D8B42AD0010E146E06D0D8900C360D366C
:1002B8000E360F36142A0FAEF8D7D89010361136EE
:1002C800123613360C50085C0D5009580E500A5857
:1002D8000F500B58D8A009D00C50085E0D50095A81
:1002E8000E500A5A0F500B5A1080D8900F320E3207
:1002F8000D320C32142EE1D710C508F511C509F5D9
:1003080012C50AF513C50BF5120056500701F91965
:1003180008E15750FA19D8A404D045514611D8B469
:1003280012005650F91904E15750FA19D8B407D0F9
:1003380056C520F557C521F552ECFEF01ED0565093
:10034800266E5750276E286A296A27C529F526C5BB
:1003580028F5276A266A26C514F527C515F528C580
:1003680016F529C517F59F0E186EE30E196E000EC7
:100378001B6EB70E1A6EC7EC01F0000E0701466F30
:10038800000E456F120014C50CF515C50DF516C500
:100398000EF517C50FF501D80BD00500FA6E070149
:1003A800E351FD6EE451FE6EE551FF6EFA50120006
:1003B80001D80CD00500FA6E0701E651FD6EE75131
:1003C800FE6EE851FF6EFA50000E120014C508F5D3
:1003D80015C509F518C50AF519C50BF51AC50CF5A3
:1003E8001BC50DF501D812000500FA6E0801CA51A7
:1003F800FD6ECB51FE6ECC51FF6EFA50120014C543
:100408000CF515C50DF516C50EF517C50FF501D870
:100418000BD00500FA6E0701E351FD6EE451FE6E44
:10042800E551FF6EFA50120001D80CD00500FA6EA3
:100438000701E651FD6EE751FE6EE851FF6EFA5076
:10044800FF0E120014C508F515C509F518C50AF5FB
:1004580019C50BF51AC50CF51BC50DF501D8120009
:100468000500FA6E0801C451FD6EC551FE6EC651F5
:10047800FF6EFA501200BE9208C512F509C513F5B1
:1004880013C5C1F412C5BFF4000E116E000E106E34
:1004980026D0BE9A10500A240E6E11500B200F6EF3
:1004A8000EC5F6F40FC5F7F4000EF86E250EF764C6
:1004B80004D0D3C4F5F40C0006D0F6C4E9F4F7C4AC
:1004C800EAF4D3C4EFF4BE8A122A12C5BFF412505C
:1004D800D8A403D0132A13C5C1F4104A112A0C500A
:1004E800105C0D501158D8A0D4D7BE8212001A0E35
:1004F8001124086E000E1220096E7DEC0AF008C562
:1005080017F509C518F5196A1A6A0FC5D9F410C57F
:10051800DAF4030EDE18D8A41CD0140E1124086EC9
:10052800000E1220096E7DEC0AF00850136E095077
:10053800146E156A166A14C516F513C515F5146AEE
:10054800136A135017121450181215501912165016
:100558001A1217C50FF518C510F519C511F51AC5E2
:1005680012F51200F5C5D8F5F6C5D9F5F7C5DAF5CF
:10057800F8C5DBF5F9C5DCF5FAC5DDF561ECF0F099
:10058800000EFF6FF7C5FBF5F8C5FCF5000EFE6F12
:10059800000EFD6F0AD0FBC5D9F4FCC5DAF4DF50B4
:1005A800FF27FB4BFC2BFD4BFE2BF951FD5DFA5150
:1005B800FE59D8A0F0D7800EBE6FF20EBF6FF5C5FA
:1005C800C0F5F6C5C1F56E0EC26FEF0EC36FFFC55D
:1005D800C4F5C56B7AEC0CF01200BE9208C512F592
:1005E80009C513F513C5C1F412C5BFF4000E116E89
:1005F800000E106E25D0C09A10500A240E6E1150AD
:100608000B200F6E0EC5F6F40FC5F7F4000EF86E4A
:10061800250EF76403D00800F55005D0F6C4E9F4B8
:10062800F7C4EAF4EF50C36EC08A122A12C5BFF4A9
:100638001250D8A403D0132A13C5C1F4104A112AA2
:100648000C50105C0D501158D8A0D5D7BE8212009E
:10065800376E00C738F501C739F533C53CF534C5E1
:100668003DF52FC51FF530C520F531C521F532C53B
:1006780022F53CC523F53DC524F53750C3ECFCF005
:100688001FC53AF520C53BF53A503B10D8B403D006
:100698003DEC0CF0120038C508F539C509F5010E16
:1006A8003C240A6E000E3D200B6EFF0E35240C6EA6
:1006B800FF0E36200D6E53ECCAF03DEC0CF0120024
:1006C8000A6EAF0EF66EDE0EF76E000EF86E0900BB
:1006D800F5500A5CD8A026D0B00EF66EDE0EF76E86
:1006E800000EF86E0A500900F55CD8A005D0000E7F
:1006F800096E010E086E1200B10EF66EDE0EF76E70
:10070800000EF86E0900F5500A5CD8A00BD0B20EA6
:10071800F66EDE0EF76E000EF86E0A500900F55CF4
:10072800D8B0E5D7000E096E000E086E12005451BD
:10073800D8B426D0DF0E0501BE6FF00EBF6F09C713
:10074800C0F50AC7C1F50BC7C2F50CC7C3F57AECEB
:100758000CF009C73DF60AC73EF60BC73FF60CC7B3
:1007680040F67C0E0601416F070E426F000E446F83
:10077800010E436FE5ECDAF0000E0701546F07D065
:10078800B00E0501BE6FF20EBF6F7AEC0CF0000ED2
:100798000601BD6F000EBC6F1200D69E07013951CD
:1007A8003A11D8B41FD0B00E3725D96E0A0E3821A9
:1007B800DA6EDF500E6E010E3725086E000E3821F6
:1007C800096E000E0B6E500E0A6EDFEC09F008C5BC
:1007D80037F709C538F73907D8A03A07A780D68E62
:1007E8000E50120049514A11D8B403D0D68E000ECB
:1007F8001200D68E150E0D6EC60EE82EFED70D2EE3
:10080800FCD700D0CAD708C5D9F409C5DAF40AC597
:10081800DFF4084A092A0B500A6E0C500B6E0D5073
:100828000C6E0D6A08C5D9F409C5DAF40AC5DFF4F7
:10083800084A092A0B500A6E0C500B6E0D500C6EAC
:100848000D6A08C5D9F409C5DAF40AC5DFF4084AFF
:10085800092A0B500A6E0C500B6E0D500C6E0D6A67
:1008680008C5D9F409C5DAF40AC5DFF4084A092A23
:10087800120010C5F6F411C5F7F4000EF86E080062
:10088800F5500C6E0D6A27EC0CF00CC517F50DC56C
:1008980018F5104A112A12C5D9F413C5DAF4DF5035
:1008A800146E14500C6E0D6A27EC0CF00CC515F57F
:1008B8000DC516F5124A132A1550171808E11650D7
:1008C8001818D8A404D017501810D8A4D2D7155087
:1008D800175C106E16501858116E12000C500D103F
:1008E8000E100F10D8B424D0010E106E06D0D89078
:1008F8000C360D360E360F36102A0FAEF8D70C50C0
:10090800085C0D5009580E500A580F500B58D8A0C3
:1009180008D00C50085E0D50095A0E500A5A0F5054
:100928000B5AD8900F320E320D320C32102EE7D7F8
:1009380008C508F509C509F50AC50AF50BC50BF57B
:1009480012000AC510F50BC511F50C500D10D8B4DE
:1009580012000DC583F00CC582F010C5D9F411C57D
:10096800DAF4DF500001816F104A112A000E0F6E71
:10097800010E0E6E0ED010C5D9F411C5DAF4DF5091
:10098800816F104A112AB1A0FED7000180510E4A8A
:100998000F2A0C500E5C0D500F58D8A0ECD7B1A000
:1009A800FED70001805112005451D8B4120024C55A
:1009B80026F5010E276E000E286E262A03D0D89041
:1009C80027362836262EFBD707013F5127164051D8
:1009D800281627502810D8A4120024C51CF525C5B0
:1009E8001DF5EFEC08F024C526F5010E276E000E64
:1009F800286E262A03D0D89027362836262EFBD7ED
:100A0800275007013F13285040131200B8C5BCF502
:100A1800B9C5BDF5000E0701226F000E216F17D072
:100A2800B6C593F5B7C594F5BC0E0501956F050ECF
:100A3800966FBAC597F5BBC598F574EC87F00501B4
:100A48009351070121270501945107012223BCC5B1
:100A5800F6F4BDC5F7F4000EF86E0800F55000096D
:100A6800D8A4DED7000E0501B76F000EB66F1200CE
:100A780004D0084A092A0A4A0B2A08C5D9F409C524
:100A8800DAF4DF500C6E0AC5F6F40BC5F7F4000E65
:100A9800F86E0800F5500C18D8A407D008C5D9F48A
:100AA80009C5DAF4DF50D8A4E4D708C5D9F409C5D4
:100AB800DAF4DF500C6E0AC5F6F40BC5F7F4000E35
:100AC800F86E0800F5500C5C086E096AD8A0090693
:100AD8001200000E106E08C511F509C512F50A506E
:100AE80011240C6E0B5012200D6E1CD011C5D9F4B8
:100AF80012C5DAF4DF50101A114A122A000E0F6ECE
:100B0800000E0E6E10AE02D0890E101AD890103654
:100B18000E4A0F2A0FBEF6D70F5004E1080E0E5CDE
:100B2800D8A0F0D70C50115C0D501258D8A0DED7C1
:100B380010501200BEC6D9F4BFC6DAF4DE50DE107B
:100B4800D8B41ED0BEC6D9F4BFC6DAF4DEC4C0F627
:100B5800DDC4C1F6C0C6D9F4C1C6DAF4DF50D8B4D2
:100B68000FD0BEC6D9F4BFC6DAF4DEC438F5DDC48A
:100B780039F555ECD9F038C543F739C544F704D0F1
:100B8800000E446F010E436F000E0601BD6F000E8C
:100B9800BC6F120056501C6E57501D6E1E6A1F6A9D
:100BA8001DC51FF51CC51EF51D6A1C6AA10E1C2457
:100BB800146E000E1D20156E000E1E20166E000EFF
:100BC8001F20176E550E186E070E196E000E1B6E3D
:100BD800160E1A6E03EC02F007016405D8B005D0B2
:100BE800020E686F000E676F1200000E686F000E2D
:100BF800676F1200516E0701FC51D8B404D0AA0ED9
:100C08005118D8A41200AA0E5118D8A403D0000E67
:100C1800FC6F120051AC0CD0320E0501BE6FF10E04
:100C2800BF6F000EC16FA00EC06F7AEC0CF0FF0012
:100C380051AE12009D0E0501BE6FF10EBF6F000E82
:100C4800C16FA00EC06F7AEC0CF0FFD70BBE07D0B7
:100C58000B500A1009101DE10804D8B01AD008C5B5
:100C68000CF509C50DF50AC50EF50BC50FF50C1EDB
:100C78000D1E0E1E0F1E0C2A000E0D220E220F2214
:100C88000CC508F50DC509F50EC50AF50FC50BF518
:100C9800120008C508F509C509F50AC50AF50BC506
:100CA8000BF51200F729F811D8B41200F7511C6E91
:100CB800F8511D6E1E6A1F6A1DC51FF51CC51EF55D
:100CC8001D6A1C6A660E1C24146E000E1D20156E0B
:100CD800000E1E20166E000E1F20176E730E186E63
:100CE800070E196E000E1B6E030E1A6EC7EC01F08C
:100CF800000E0701F86FF7691200516E5150D8B411
:100D08000ED00601EF51F011D8B407D0F80E050146
:100D1800BE6FF20EBF6F7AEC0CF0020E12000701E4
:100D2800E92914E1EA2912E1EB2910E1EC29D8A418
:100D38000DD00601EF51F011D8B4EFD70D0E050113
:100D4800BE6FF50EBF6F7AEC0CF0E7D7000E1200FD
:100D5800000E106E000E116E000E126E000E136E55
:100D680008A008D00C5010260D5011220E50122247
:100D78000F501322D8900C360D360E360F36D890F9
:100D88000B320A3209320832085009100A100B10C7
:100D9800D8A4E6D710C508F511C509F512C50AF596
:100DA80013C50BF51200186812C508F513C509F527
:100DB80082EC08F0000E176E000E166E10D012C5E9
:100DC80008F513C509F5180E0A6E050E0B6E000E10
:100DD8000D6E010E0C6EA5EC04F0164A172A14507D
:100DE800165C15501758D8A0EAD712C508F513C5D0
:100DF80009F5B5EC0AF012000701DD51DE11DF112B
:100E0800D8B41FD0DA51DB11DC11D8B405D0D751D2
:100E1800D811D911D8A40CD0900E0501BE6FEF0ED1
:100E2800BF6F3D0EC06FF90EC16F7AEC0CF0120067
:100E380056C51CF557C51DF5EFEC08F0CF0EFDECB7
:100E48000DF042EC0AF012000701F929FA11D8B4A2
:100E58001200F9511C6EFA511D6E1E6A1F6A1DC5DB
:100E68001FF51CC51EF51D6A1C6A1CC514F51DC599
:100E780015F51EC516F51FC517F5000E186E0B0ED5
:100E8800196E010E1B6E000E1A6EC7EC01F0000EF3
:100E98000701FA6FF9691200A70E0501BE6FE70E88
:100EA800BF6F7AEC0CF0350EBE6FF20EBF6F7AECA6
:100EB8000CF0110E0501D96F3C0ED86FCB0EE82E41
:100EC800FED7D82FFCD7D92FFAD71C0E0501BE6F35
:100ED800F20EBF6F7AEC0CF0A70EBE6FE70EBF6F75
:100EE8007AEC0CF01200C20ED16F050ED26FBEC59F
:100EF800C6F5BFC5C7F5000ECA6F000EC96F000E54
:100F0800D06F000ECF6FC60EB66F050EB76FC0C597
:100F1800B8F5C1C5B9F5D10EBA6F050EBB6F0AECAD
:100F280005F0C951BE25D96ECA51BF21DA6E000E2F
:100F3800DF6E1200066ED69E07013A511AE1500E76
:100F4800395DD8B016D039513725016E3A5138215C
:100F5800026E000E046E500E036E21EC0AF0B00E05
:100F68000124D96E0A0E0220DA6E06C5DFF4394B69
:100F78003A2B3A5103E1400E395DD8B0A790D68E8E
:100F88001200010E146E200E0E10106E000E0F10BF
:100F9800116E9F0E1024126EFF0E1120136E135047
:100FA80004E11A0E125CD8A00ED0D00E0E24106EDA
:100FB800FF0E0F20116E115004E10A0E105CD8A02C
:100FC80002D0000E146E14C50EF50F6A12000D6ED5
:100FD800D69E0701365104E1500E355DD8A004D0E5
:100FE800B7A2FED711EC08F035513325086E3651FB
:100FF8003421096E000E0B6E500E0A6EDFEC09F0FC
:10100800600E0824D96E0A0E0920DA6E0DC5DFF4C9
:10101800354B362BA782D68E12001DD0600E332595
:10102800D96E0A0E3421DA6EDF500201C96F010E43
:1010380007013325086E000E3421096E000E0B6E71
:10104800500E0A6EDFEC09F008C533F709C534F70E
:101058003507D8A03607070135513611D8B4120024
:10106800B7A21200DBD71DD0600E3325D96E0A0E49
:101078003421DA6EDF500201C96F010E07013325F2
:10108800016E000E3421026E000E046E500E036EC7
:1010980021EC0AF001C533F702C534F73507D8A0AB
:1010A8003607070135513611D8B41200B7A212001D
:1010B800DBD757EC09F0000E0001D56F000ED66F94
:1010C800000ED86F7F0ED96F7F0EDA6F7F0EDB6F41
:1010D800010EDC6F000EDD6F000EDE6F000EDF6F9D
:1010E800820ED76F8C0ED66F000ED46FAE9A9E9A72
:1010F800010E0201056FC280C282120008C50AF5FE
:1011080009C50BF520EE02F00A50D9260B50DA2259
:10111800DF50D8A410D0310E0201116F320E126FB9
:1011280020EE03F00A50D9260B50DA22CBC4DFF4A4
:10113800C892C890C88420EE02F00A50D9260B50F5
:10114800DA22DF2A120012D008C5D9F409C5DAF468
:10115800DFC40AF5010EDE26DFC40BF5000EDD2222
:101168000AC5D9F40BC5DAF4000EDF6E08C5D9F448
:1011780009C5DAF4DEC40AF5DDC40BF50AC5D9F4ED
:101188000BC5DAF4200EDE18D8A41200DDD7286EBD
:10119800756C6C29001A0000001A0000001A000083
:1011A800001A00000000000000000000000000001D
:1011B80000000000008000000080000000800000A7
:1011C8000080000000000000000000000000000097
:0511D80000644000006E
:1011DE001C501E6E1D501F6E206A216A1FC521F500
:1011EE001EC520F51F6A1E6A080E1E24146E000E00
:1011FE001F20156E000E2020166E000E2120176E79
:10120E00A70E186EE30E196E000E1B6E060E1A6EEA
:10121E00C7EC01F01200000E251A000E261A000E61
:10122E00271A800E281A21C508F522C509F523C5EF
:10123E000AF524C50BF525C50CF526C50DF527C5F4
:10124E000EF528C50FF5D6ECBFF008C521F509C57A
:10125E0022F50AC523F50BC524F5120008C5F6F4D0
:10126E0009C5F7F4000EF86E0800F5500A18D8A458
:10127E0005D008C508F509C509F5120008C5F6F42C
:10128E0009C5F7F4084A092A000EF86E0800F55051
:10129E000009D8A4E3D7000E086E000E096E1200E6
:1012AE0004011969C9680969C7682969CB68018190
:1012BE00C6800183C682018BC68A118BC88ABE88FE
:1012CE00C698550E596FAA0E596F5991080E5D6F3B
:1012DE00000E5E6F000E5F6F550E596FAA0E596F9E
:1012EE0059811200CC0E0601CC6F180ECD6FB00EC8
:1012FE00CE6FFF0ECF6F010ED06FA9ECF5F0000987
:10130E00D8B40DD0680E0501BE6FF10EBF6F7AEC2A
:10131E000CF0FF0E0601D96FFE0ED86F1200000EF4
:10132E00D96F000ED86F12000AC511F50BC512F554
:10133E0008C50FF509C510F510D011C5D9F412C5A1
:10134E00DAF4DF500E6E114A122A0FC5D9F410C509
:10135E00DAF40EC5DFF40F4A102A0C06D8A00D06DB
:10136E000C28EBE10D28D8B41200E7D708C50AF512
:10137E0009C50BF502D0084A092A08C5F6F409C5B5
:10138E00F7F4000EF86E250EF76403D00800F55042
:10139E0005D0F6C4E9F4F7C4EAF4EF500009D8A476
:1013AE00EAD70A50085C086E0B500958096E1200F5
:1013BE000A500B10D8B418D0010E0C6E04D0D89071
:1013CE000A360B360C2A0BAEFAD70A50085C0B50B5
:1013DE000958D8A004D00A50085E0B50095AD8906C
:1013EE000B320A320C2EF1D708C508F509C509F5DE
:1013FE0012001A0E0E24086E000E0F20096E10C574
:10140E000AF511C50BF566EC0CF00CC5D9F40DC53B
:10141E00DAF4030EDE18D8A41200140E0E24086E91
:10142E00000E0F20096E12C50AF513C50BF566ECFA
:10143E000CF0120003500410D8B418D0010E056E33
:10144E0004D0D89003360436052A04AEFAD70350DA
:10145E00015C04500258D8A004D00350015E045021
:10146E00025AD89004320332052EF1D701C501F588
:10147E0002C502F51200DD51DE11DF11D8B40DD018
:10148E0001D812000500FA6EDD51FD6EDE51FE6EC2
:10149E00DF51FF6EFA50000E12000F0E0501BE6FE7
:1014AE00F30EBF6FFE0EC06FF30EC16F7AEC0CF031
:1014BE0012000AC50CF50BC50DF508C50EF509C5CC
:1014CE000FF50CC5F6F40DC5F7F40C4A0D2A000EF7
:1014DE00F86E0EC5D9F40FC5DAF40E4A0F2A0800BD
:1014EE00F5C4DFF4DF50D8B41200EBD720EE01F0D4
:1014FE000850D9260950DA22DF500A6E0A500D6EB6
:10150E000E6A08C5D9F409C5DAF4DF500A6E0D501B
:10151E000B6E0A500D6E0BC50EF50DC508F50EC5FA
:10152E0009F51200000E1A6E000E196E0BD018C5BA
:10153E000BF50C6A16C50DF517C50EF518ECFDF07A
:10154E00194A1A2A19501424D96E1A501520DA6E17
:10155E00DF50186E1850D8B41200E9D708C50AF536
:10156E0009C50BF520EE02F00A50D9260B50DA22EF
:10157E00DF06DF50D8A41200000E0201116F000E1C
:10158E00126F20EE03F00A50D9260B50DA22DF50EC
:10159E00CB6E120008C50AF509C50BF520EE02F058
:1015AE000A50D9260B50DA22000EDF6E000E000113
:1015BE00846F000E856F100E02016A6F120E6B6F34
:1015CE00C8980001848F12000701DD51DE11DF1172
:1015DE00D8B40DD001D80BD00500FA6EDD51FD6EDA
:1015EE00DE51FE6EDF51FF6EFA50010E120056C52F
:1015FE0020F557C521F552ECFEF0120007D008C5B4
:10160E00D9F409C5DAF4DE2A000EDD2208C5D9F4B4
:10161E0009C5DAF4DEC40AF5DDC40BF50AC5D9F442
:10162E000BC5DAF4200EDE18D8A41200E8D732C5A6
:10163E0015F533C516F534C517F535C518F536C588
:10164E0019F537C51AF5000E1B6EA7ECBCF015C5C3
:10165E0032F516C533F517C534F518C535F5120034
:10166E007D0EBE6FEE0EBF6FD8C5C0F5D9C5C1F5E4
:10167E00DAC5C2F5DBC5C3F5DEC5C4F5DFC5C5F5F4
:10168E00DCC5C6F5DDC5C7F57AEC0CF015EC0EF031
:10169E0012001BBE05D01B5010E11A04D8B00DD09D
:1016AE001AC51CF51BC51DF51C1E1D1E1C4A1D2A28
:1016BE001CC51AF51DC51BF512001AC51AF51BC55A
:1016CE001BF51200010E0C6E200E08180910D8B46E
:1016DE000ED0F70E08240A6EFF0E09200B6E0B506B
:1016EE0004E1050E0A5CD8A002D0000E0C6E0CC5EB
:1016FE0008F5096A12001B6E00C71CF501C71DF51F
:10170E001CC516F51DC517F50EEC0DF01E6E1B5003
:10171E001E18D8A407D01906D8A01A0619501A10E8
:10172E00D8A4EED71E501200200E08100A6E000E1E
:10173E0009100B6E9F0E0A240C6EFF0E0B200D6E01
:10174E000D5006E11A0E0C5CD8B002D0010E01D07D
:08175E00000E086E096A12007A
:10176800B7A00ED0C7C207F50750D8B404D00750A9
:101778009EEC07F005D0000E07014A6F010E496F75
:1017880037EC08F035513611D8A41100A792110092
:10179800E3C5D8F5E4C5D9F5E50EDA6F050EDB6FBC
:1017A80038ECF9F0E76FE751D8A41200E3C5D9F493
:1017B800E4C5DAF4000EDE6E000EDD6E1200D851BC
:1017C8000701475D4851800A516E0501D951800AC9
:1017D8005158D8B012004F0EBE6FE80EBF6FD8C573
:1017E800C0F5D9C5C1F57AEC0CF012000850091003
:1017F8000A100B10D8B408D0000E081A000E091AE7
:10180800000E0A1A800E0B1A08C508F509C509F555
:101818000AC50AF50BC50BF5120008500910D8B413
:101828000BD0000EC76E000EC96EBE82BE8AC08A7B
:10183800C692C69AC89A1200C768C968CB68C68299
:10184800C68AC88A12009F0E0C240E6EFF0E0D2049
:101858000F6E0F5009E11A0E0E5CD8B005D05F0E5E
:101868000C140C6E0D6A12000CC50CF50DC50DF5A7
:10187800120000C719F501C71AF519C50CF51AC5E4
:101888000DF530EC0DF019C512F51AC513F5000E5B
:10189800156E010E146ED7EC06F012000CC508F593
:1018A8000DC509F50EC50AF50FC50BF501D81200CF
:1018B8000500FA6EE051FD6EE151FE6EE251FF6ED9
:1018C800FA50120008C5D9F409C5DAF40AC5DFF4DC
:1018D800084A092A0BC50AF50B6A08C5D9F409C5CF
:1018E800DAF40AC5DFF4084A092A1200C00E050115
:1018F800D66F050ED76F000EB66F000EB76FBEC558
:10190800B8F5BFC5B9F5D60EBA6F050EBB6F0AECB0
:1019180005F0120026500701F91904E12750FA19B9
:10192800D8B406D026C520F527C521F552ECFEF01F
:10193800000E466F010E456F12000CD0050E096EA1
:101948000F0E086EF10EE82EFED7082EFCD7092ED2
:10195800FAD700F0070135513611D8B41200EED786
:1019680008500A02F3C40CF5F4C40DF508500B0234
:10197800F3500D2609500A02F3500D260CC508F540
:101988000DC509F512009F0E08240A6EFF0E0920E6
:101998000B6E0B5006E11A0E0A5CD8B002D0010E8D
:1019A80001D0000E086E096A1200BF0E08240A6EE4
:1019B800FF0E09200B6E0B5006E11A0E0A5CD8B018
:1019C80002D0010E01D0000E086E096A1200D00E76
:1019D80008240A6EFF0E09200B6E0B5006E10A0E52
:1019E8000A5CD8B002D0010E01D0000E086E096A58
:1019F80012000AC508F50BC509F501D81200050043
:101A0800FA6E0801D651FD6ED751FE6ED851FF6EA1
:101A1800FA501200186816C508F517C509F5180E0A
:101A28000A6E050E0B6E000E0D6E010E0C6E53EC59
:101A3800CAF0185012000CC508F50DC509F582EC5E
:101A480008F00CC508F50DC509F5000E0B6E010E62
:101A58000A6EC6EC0DF012000CC508F50DC509F5A7
:101A6800000E0B6E000E0A6EC6EC0DF00CC508F5E4
:101A78000DC509F5B5EC0AF01200BDECFFF001D870
:101A880012000500FA6E0801D351FD6ED451FE6EA6
:101A9800D551FF6EFA50120001D812000500FA6EF7
:101AA8000801D051FD6ED151FE6ED251FF6EFA5031
:101AB8001200EFC60AF5F0C60BF508C5EFF609C522
:101AC800F0F60AC508F50BC509F5120054C50AF564
:101AD80055C50BF508C554F509C555F50AC508F5EA
:101AE8000BC509F51200FFFFFFFF6A080100FFFFA1
:101AF8000F0065FFFF00FF0001FFCF018BEC0DF029
:101B08000AC508F50BC509F53FEC0EF0120001D027
:101B18004F0707014F51800A7F0FD8A01200F8D74E
:101B2800000E086E000E096EF00E0A6EFF0E0B6EA8
:101B38001200000E086E000E096E210E0A6E000ECD
:101B48000B6E1200B00E07011C6F090E1D6F000E00
:101B58001E6F1200086E0804D8A412000001D78571
:101B6800D7951200AEBA1200070149514A11D8A4FC
:101B78001200F8D70A6EA1EC0CF0B7A2FED70AC57E
:101B8800C9F212000A500B10D8A402D0C088120063
:101B9800C0981200FF00000E0601BD6F000EBC6F5A
:101BA8001200086E08A002D0C2821200C29212006F
:101BB800086E08A002D0C2841200C2941200086EF7
:101BC80008A002D0BE881200BE981200086E08A0B5
:101BD80002D0C2801200C2901200000E07013C6FB2
:101BE8000A0E3B6F1200000E0601BD6F010EBC6F9E
:101BF8001200086E08C5F1F70701F26B1200CEBAA1
:101C080002D0D8901200D8801200CEB002D0D8905E
:101C18001200D8801200AEBA02D0D8901200D88034
:101C28001200FF0E0B6E0A6882EC0DF01200D0BA9B
:101C380002D0D8901200D88012003BC708F53CC7E4
:101C480009F51200150E086EF80E096E1200086EDE
:101C580008C5C3F41200086E08C5CBF41200086862
:101C680009681200D3501200CF501200AE9A120029
:081C7800FC5112001200FFD71D
:10DE6800008EF86D0700EFF56E0700BEF56F07002E
:10DE7800C1F4700700FFF571070186F65E0800AE71
:10DE8800F45F080013F46008007FF361080004F7EA
:10DE980062080055F5630800D4F4640800E9F365E6
:10DEA800080031F5660802819FE0FC407E80FC0096
:10DEB80000A10010000000E1FF0201A9F700024ADA
:10DEC800FB000318FD000494FE00058EFE0106D039
:10DED800F8000783FF000847F90009D3F9000A5141
:10DEE800F9000B11FD000CB2FE000DACFE010E4155
:10DEF800FA000F88FF011052FC0211C1F70012ABA3
:10DF0800F9001396FD0014D6FE0015D0FE0116DBAD
:10DF1800F80017CDFF011854FF0019F1F9001A5B3A
:10DF2800F9001B8FFD001CF4FE001DEEFE011E4BC8
:10DF3800FA001FD1FF0120E6FA0221D9F70222F6E2
:10DF4800F600231BFE002412FF00250CFF0126E625
:10DF5800F80027C9FF01284AFC00292DFA022A9453
:10DF6800F6002B14FE002C30FF002D2AFF012E5541
:10DF7800FA002FDDFF0130DDFA0231F1F702323805
:10DF8800F7003337FE00349EFA003595FA0136B0B3
:10DF9800F60037D9FF013842FC003937FA023A2B2C
:10DFA800F7003B30FE003C76FE003D70FE013EC5AA
:10DFB800F8003FD5FF0040B6FC0041E7FC004234C2
:10DFC800FD004365FD0044B9FD0045EAFD00466FCC
:10DFD800F9004785FC0048BDFC0049EEFC004A3BBF
:10DFE800FD004B6CFD004CC0FD004DF1FD004E796D
:10DFF800F9004F8CFC0050C4FC0051F5FC00524263
:10E00800FD005373FD0054C7FD0055F8FD0056830D
:10E01800F9005793FC0058CBFC0059FCFC005A4906
:10E02800FD005B7AFD005CCEFD005DFFFD005E8DAE
:10E03800F9005F9AFC0060D2FC006103FD006250A9
:10E04800FD006381FD0064D5FD006506FE0066974E
:10E05800F90067A1FC0068D9FC00690AFD006A574D
:10E06800FD006B88FD006CDCFD006D0DFE006EA1EF
:10E07800F9006FA8FC0070BFF90071C9F90072DDE2
:10E08800F90073E7F90074FBF9007523FA0076AB21
:10E09800FF0077B5F90078AFFC0079E0FC007A2D35
:10E0A800FD007B5EFD007CB2FD007DE3FD007E652A
:10E0B800F9007F7EFC008062FB00817AFB00829A77
:10E0C800FB0083B2FB0084DAFB008532FC0086BAD1
:10E0D800F8008742FB00885AFB008972FB008A928D
:10E0E800FB008BAAFB008CD2FB008D2AFC008EAFB4
:10E0F800F8008F3AFB009088FE0091A6FE0092CAB5
:10E10800FE0093E8FE009406FF009524FF00968C1D
:10E11800FA00976AFE009852FB00996AFB009A8AF7
:10E12800FB009BA2FB009CCAFB009D22FC009EA456
:10E13800F8009F32FB00A09AFE00A1B8FE00A2DC06
:10E14800FE00A3FAFE00A418FF00A536FF00A6A74C
:10E15800FA00A77CFE00A8A0FE00A9BEFE00AAE265
:10E16800FE00AB00FF00AC1EFF00AD3CFF00AEB0F0
:10E17800FA00AF82FE00B0A1FE00B1BFFE00B2E31C
:10E18800FE00B301FF00B41FFF00B53DFF00B6B1AC
:10E19800FA00B783FE00B88DFF00B992FF00BA9766
:10E1A800FF00BB9CFF00BCA1FF00BDA6FF00BE2274
:10E1B800FB00BF7EFF00C03EFE00C11FFD02C2FD86
:10E1C800F702C3C2FA02C4E8F600C582FB01C69D85
:10E1D800F700C7E2FB00C84EFF00C9E5FF02CA1DF1
:10E1E800F900CB000002CC6CF702CDF1F801CE911A
:10E1F800F700CF02FC00D026FD00D19DFD02D2B56C
:10E20800F701D3A2F602D4BEF600D5BAFB01D605B3
:10E21800FA00D7EAFB00D8C4FE00D9E9FF02DAFC0D
:10E22800F801DB1EF702DC5FF700DD000001DE8588
:10E23800F700DF0AFC00E029FE00E122FE02E2E529
:10E24800F700E328F902E4DAF600E53AFC01E60F04
:10E25800FA00E7F2FB00E8A4FD00E92AFB02EACD98
:10E26800F700EBCBFA02ECCCF600ED000001EE195A
:10E27800FA00EF12FC00F048FF00F1ABFD02F212C9
:10E28800F900F3F8FF02F452F700F5C2FB01F61AA1
:10E29800FA00F7FAFB00F842FF00F9D4FA02FA078D
:10E2A800F900FBFBFF02FC45F700FD000001FEB989
:10E2B800FA00FF1AFCF0000000C3960043502F4DEF
:10E2C80020626F6F742D6C6F6164657220666F7267
:10E2D800205A38302D53696D756C61746F720D0A50
:10E2E8000000000000000000000000000000000026
:10E2F8000000000000000000000000000000000016
:10E308000000000000000000000000000000000005
:10E3180000000000000000000000000000000000F5
:10E3280000000000000000000000000000000000E5
:10E33800000000000000000000424F4F543A2065E2
:10E3480072726F7220626F6F74696E670D0A0021B6
:10E3580003007ED30123B7C29900ED46FB010100FB
:10E36800210000AFD30A78D30B79D30C7DD30F7C6F
:10E37800D310AFD30DDB0EB7CA0000C630D3013EB1
:10E388000DD3013E0AD3012180007EB7CADC00D339
:10E398000123C3D100F376D3AC182731000000D392
:10E3A800AB00C30E00ED73B10031AD00F5AF32B56F
:10E3B80000C5D5E5DDE5FDE5ED7BB100E122AF0067
:10E3C80018D52AB3007DB7B42842110000060E1AEA
:10E3D80077231310FA2AB3001104001922AD00188C
:10E3E8002B000000000000000000000000000000FA
:10E3F80000000000000000000000000000D3AB0097
:10E40800ED73B10031AD00F53E0118A2DD2AB3006D
:10E418003EAADD77092AB100DD7505DD74063AA04C
:10E4280000DD770B2323F92AAF00E531A100FDE1D8
:10E43800DDE1E1D1C1F1FBC90000000000000000EE
:10E44800000000000400000000000000000014F6B6
:10E45800019ECD01000033F9C8F20FF6003607001F
:10E4680000006EEF67F583FA00EE1B0000006EEF08
:10E4780059EE79F702109D010000DFF5DFEBF5FF9B
:10E4880002109D010000000000007AFA04106401E7
:10E498000000E7E97AED74FF02A6A6010000DFF5A7
:10E4A8002BEF79FF010E0200000069FC77EA64FE99
:10E4B800009C1B000000E7F4000070FC02DABB01BE
:10E4C80000003EF653ED66FE02C2340101009BF4E3
:10E4D80036EC6AFF013C0B00000043F5FBF077FCCB
:10E4E80000BA8D0100006EEF8AF0E1F4022ED5012A
:10E4F800020011F78BEC6FFF00DAB8010000D4F3CB
:10E508000000D3AD180500000000002A0400ED5BF0
:10E5180006003A0800477E12231310FA3E0018E25C
:10E528003E00D3AD7618F900ED45FBED4D696F5F00
:10E53800737461742829203D3D20494F5F5354412D
:10E54800545F4E4F545F53544152544544207C7C91
:10E5580020696F5F737461742829203D3D20494FFD
:10E568005F535441545F53544F50504544207C7C72
:10E5780020696F5F737461742829203D3D20494FDD
:10E588005F535441545F494E544552525550544577
:10E5980044207C7C20696F5F737461742829203D56
:10E5A8003D20494F5F535441545F50524550494EA6
:10E5B800564F4B45207C7C20696F5F7374617428CB
:10E5C80029203D3D20494F5F535441545F4D4F4EE4
:10E5D80049544F5200696F5F737461742829203D54
:10E5E8003D20494F5F535441545F4E4F545F53543D
:10E5F8004152544544207C7C20696F5F7374617478
:10E608002829203D3D20494F5F535441545F5354BE
:10E618004F50504544207C7C20696F5F737461744F
:10E628002829203D3D20494F5F535441545F4D4FA9
:10E638004E49544F52004449534B3A204F503D25C0
:10E6480030327820442F542F533D25642F253364CE
:10E658002F25336420202020202020202020202047
:10E66800414444523D2530317825303278253032C6
:10E6780078202852442049474E4F524544290A0DD4
:10E68800004449534B3A204F503D253032782044BE
:10E698002F542F533D25642F2533642F25336420B1
:10E6A8002020202020202020202020414444523DAA
:10E6B8002530317825303278253032782028575265
:10E6C8002049474E4F524544290A0D0025733A20E8
:10E6D8004552524F523A20492F4F20253573202555
:10E6E80033642C20253364202825303258482C20C8
:10E6F800253032584829207768696C652077616928
:10E7080074696E6720666F72202564202825303270
:10E718005848290A0D004449534B3A204F503D258B
:10E7280030327820442F542F533D25642F253364ED
:10E738002F25336420782533643D25356C642041CA
:10E748004444523D253031782530327825303278AE
:10E75800202E2E2E2053543D253032780A0D0044A9
:10E7680049534B3A204F503D2530327820442F549E
:10E778002F533D25642F2533642F25336420202013
:10E78800202020202020202020414444523D2530B4
:10E7980031782530327825303278202E2E2E200AF6
:10E7A8000D002F55736572732F74616B656D7572EB
:10E7B800612F776F726B73706163652F6769746817
:10E7C80075622F53757065724D455A38302F7372C4
:10E7D800632F6D656D6F72792E630053442043611A
:10E7E80072643A20726561643531323A204352438B
:10E7F800206572726F7220282530347820213D20E0
:10E80800253034782C2072657472793D2564290A84
:10E818000D002F55736572732F74616B656D75727A
:10E82800612F776F726B73706163652F67697468A6
:10E8380075622F53757065724D455A38302F737253
:10E84800632F696F2E63005741524E494E473A2055
:10E85800746F6F206D616E792062616E6B732072C8
:10E8680065717565737465642E20287265717565A8
:10E878007374206973202564290A0D007479706502
:10E88800202768656C702720746F20736565207475
:10E898006865206C697374206F6620617661696CA5
:10E8A80061626C6520636F6D6D616E64730A0D0043
:10E8B800496D6167652066696C652025732F445230
:10E8C80049564525632E44534B2069732061737361
:10E8D80069676E656420746F2064726976652025A7
:10E8E800630A0D005741524E494E473A20756E6BE8
:10E8F8006E6F776E20492F4F2077726974652025D7
:10E90800642C202564202825303258482C202530B6
:10E91800325848290A0D006469736B5F696F637424
:10E928006C3A20706472763D25642C20636D643DDA
:10E9380025642C20627566663D3078256C783A200F
:10E948007265733D25640A0D005344204361726467
:10E958003A2020726561643531323A20616464720C
:10E968003D25386C642C206F6666733D25642C2029
:10E97800636F756E743D25640A0D0053442043612E
:10E9880072643A2077726974653531323A2061646D
:10E9980064723D25386C642C206F6666733D25646F
:10E9A8002C20636F756E743D25640A0D0053442056
:10E9B800436172643A2077726974653531323A205E
:10E9C8006661696C656420746F2067657420746F74
:10E9D8006B656E2C2074696D656F75740A0D005B2C
:10E9E80064726976655D5B2C747261636B5D5B2C28
:10E9F800736563746F725D5B2C6C656E6774685DBC
:10EA0800206F72205B64726976652C5D4C42410010
:10EA18004449534B3A20207265616420442F542F97
:10EA2800533D25642F2533642F25336420782533FF
:10EA3800643D25356C643A204552524F520A0D0008
:10EA4800534420436172643A2077726974653531A2
:10EA5800323A2074696D656F75742C207265737015
:10EA68006F6E736520697320253032780A0D004A6D
:10EA7800756D7020746F207370656369666965646D
:10EA8800206164647265737320616E6420737461BD
:10EA9800727420657865637574696F6E20005344DD
:10EAA80020436172643A20434D4435382C20523358
:10EAB8003D253032782025303278202530327820B4
:10EAC8002530327820253032780A0D0025733A2017
:10EAD8004552524F523A20636C6F636B20737065D6
:10EAE8006564202564206973206E6F7420737570C7
:10EAF800706F727465640A0D005344204361726438
:10EB08003A20434D44382C2052373D253032782066
:10EB1800253032782025303278202530327820256B
:10EB28003032780A0D004449534B3A20207265610F
:10EB38006420442F542F533D25642F2533642F25FB
:10EB4800336420782533643D25356C643A204F4B77
:10EB58000A0D006469736B5F696F63746C3A2070A7
:10EB68006472763D25642C20636D643D25643A20EB
:10EB78004E6F742068616E646C65642E0A0D0064C3
:10EB880069736B5F726561643A2020706472763DC8
:10EB980025642C20736563746F723D256C642C208A
:10EBA800636F756E743D25640A0D006469736B5F4D
:10EBB80077726974653A20706472763D25642C20FA
:10EBC800736563746F723D256C642C20636F756E7A
:10EBD800743D25640A0D005472616E736C6174652E
:10EBE800206D616368696E6520636F6465206F6E70
:10EBF8002074686520746172676574206D656D6F37
:10EC0800727900534420436172643A20434353208D
:10EC18002843617264204361706163697479205389
:10EC280074617475732920697320300A0D00446972
:10EC380073706C6179206F72206368616E676520FC
:10EC480073706563696669656420646562756720C9
:10EC58007661726961626C65005344204361726435
:10EC68003A2077726974653531323A20435243202D
:10EC78006572726F72202872657472793D256429F5
:10EC88000A0D0057726974652062797465206F7285
:10EC980020737472696E6720746F207468652074BD
:10ECA8006172676574206D656D6F727900534420D9
:10ECB800436172643A204361726420706F776572B1
:10ECC800207570207374617475732062697320698C
:10ECD8007320300A0D0072656164204D4252207025
:10ECE8006172746974696F6E207461626C65206109
:10ECF8007420736563746F7220300A0D0057415297
:10ED08004E494E473A20756E6B6E6F776E20492FCD
:10ED18004F207265616420256420282530325848C8
:10ED2800290A0D00534420436172643A2020726519
:10ED380061643531323A20736563746F723D256CB6
:10ED4800643A204552524F520A0D00446973706C60
:10ED58006179206461746120626C6F636B28732928
:10ED68002066726F6D207468652053442043617279
:10ED78006400446973706C617920736563746F72A1
:10ED88002873292066726F6D206469736B20696D22
:10ED98006167652066696C6500534420436172644D
:10EDA8003A2053444843206F722053445843206309
:10EDB8006172642064657465637465640A0D002576
:10EDC800733A204552524F523A206D6F64652025A0
:10EDD80064206973206E6F7420737570706F72741D
:10EDE80065640A0D00534420436172643A20696ED9
:10EDF800697469616C697A65202E2E2E207375639B
:10EE08006365656465640A0D005344204361726458
:10EE18003A20756E657870656374656420726573F1
:10EE2800706F6E736520253032780A0D00534420C8
:10EE3800436172643A2020726561643531323A2048
:10EE4800736563746F723D256C643A204F4B0A0DED
:10EE58000045786974206D6F6E69746F7220616EF9
:10EE68006420636F6E74696E756520657865637577
:10EE780074696F6E00417373657274696F6E206692
:10EE880061696C65643A202573202825733A20252A
:10EE9800733A202564290A00534420436172643A76
:10EEA8002041434D44343120726573706F6E736531
:10EEB80020697320253032780A0D005344204361BD
:10EEC80072643A2077726974653531323A20746F0A
:10EED8006B656E20697320253032780A0D00455223
:10EEE800524F523A2062616E6B202564206973206C
:10EEF8006E6F7420617661696C61626C652E0A0DB3
:10EF080000534420436172643A20434D443539200C
:10EF1800726573706F6E736520697320253032785F
:10EF28000A0D00446973706C617920646174612012
:10EF38006F6E2074686520746172676574206D65F2
:10EF48006D6F7279004D656D6F7279203030303099
:10EF58003030202D202530366C5848202564204B31
:10EF680042204F4B0D0A00706172746974696F6EAC
:10EF78002073746172747320617420736563746F95
:10EF88007220256C640A0D0025733A20696E746539
:10EF98007272757074206973206E6F742061766167
:10EFA800696C61626C650A0D0055736520524133C6
:10EFB8002065787465726E616C20636C6F636B207A
:10EFC800666F72205A38300A0D00557365204E431B
:10EFD8004F20252E3266204D487A20666F72205ABF
:10EFE800383020636C6F636B0A0D00665F77726957
:10EFF800746528293A204552524F52207265733D54
:10F0080025642C206E3D25640A0D00665F726561DB
:10F018006428293A204552524F52207265733D2583
:10F02800642C206E3D25640A0D00696F5F696E7659
:10F038006F6B655F7461726765745F6370755F7429
:10F04800656172646F776E006661696C65642074CF
:10F058006F20777269746520736563746F722025F9
:10F068006C640A0D00696F5F696E766F6B655F741B
:10F0780061726765745F6370755F707265706172E5
:10F088006500446973706C61792073746174757379
:10F09800206F662074686520746172676574006605
:10F0A80061696C656420746F2072656164207365A2
:10F0B80063746F7220256C640A0D000A0D53442096
:10F0C800436172643A20696E697469616C697A6532
:10F0D800202E2E2E0A0D00436C6561722062726527
:10F0E800616B706F696E74206174202530346C58C0
:10F0F8000A0D0045786563757465206E657874201F
:10F10800696E737472756374696F6E28732900531E
:10F118004420436172643A2041434D4434312C20E9
:10F1280052313D253032780A0D000A0D526573655B
:10F138007420627920494F20706F72742025303214
:10F1480058480A0D004661696C656420746F206F29
:10F1580070656E20534420436172642E2E0A0D00A0
:10F168004661696C656420746F206D6F756E7420DC
:10F17800534420436172642E0A0D006661696C6510
:10F188006420746F207265616420736563746F72A4
:10F1980020300A0D000A0D48414C5420627920495C
:10F1A8004F20706F72742025303258480A0D005372
:10F1B800657420627265616B706F696E742061742A
:10F1C800202530346C580A0D006469736B5F696ED2
:10F1D800697469616C697A65282564292E2E2E0A5E
:10F1E8000D00534420436172643A206E6F7420739B
:10F1F80075706F70727465640A0D00534420436122
:10F2080072643A20434D44302C2052313D2530322F
:10F21800780A0D00202020202020202020202020D7
:10F2280020202020202020202020200D0077616928
:10F238007420666F722070726F6772616D6D65728F
:10F24800202E2E2E0D00496E76616C696420617245
:10F2580067756D656E743A20272573270A0D00536C
:10F2680054415455533A2025632563256325632566
:10F278006325632563256300257325353373204390
:10F288004845434B53554D3A20253032780A0D00F6
:10F29800556E6B6E6F776E207661726961626C6510
:10F2A80020272573270A0D00427265616B706F690C
:10F2B8006E74206973206E6F74207365740A0D0074
:10F2C800536574206F722073686F7720627265616E
:10F2D8006B20706F696E74004D656D6F72792030A8
:10F2E8003030303030202D202530366C58480D0015
:10F2F800706879736963616C2064726976657220DD
:10F30800213D20300A0D0025733A206E6F20696E6A
:10F31800746572727570742070696E0A0D00416DA3
:10F32800626967756F757320636F6D6D616E6420B8
:10F3380025730A0D00665F6C7365656B28293A2092
:10F348004552524F522025640A0D00427265616B86
:10F35800706F696E74206973202530346C580A0DFB
:10F3680000556E6B6E6F776E20636F6D6D616E64A6
:10F378003A2025730A0D0064656275675F666174DB
:10F388006469736B5F766572626F7365006E6F2078
:10F39800464154333220706172746974696F6E0A21
:10F3A8000D00665F73796E6328293A204552524FE3
:10F3B800522025640A0D00696F5F696E766F6B6570
:10F3C8005F7461726765745F637075004469737018
:10F3D8006C61792074686973206D65737361676502
:10F3E8000064656275675F7364636172645F766504
:10F3F80072626F7365006D6F6E5F617373657274AF
:10F408005F696E74657272757074006465627567A1
:10F418005F6661746469736B5F77726974650073A2
:10F42800697A656F6628706172616D7329203D3D48
:10F438002035004D3A204D6F6E69746F72207072DE
:10F448006F6D70740A0D006E6F204D425220736903
:10F45800676E61747572650A0D00534420436172CA
:10F46800643A2074696D656F75740A0D00696E766B
:10F47800616C69642064726976652025640A0D00F0
:10F488007772697465205B616464725D2C76616C67
:10F498000A0D005B7661726961626C655D5B3D7641
:10F4A800616C75655D0064656275675F666174644B
:10F4B80069736B5F726561640064656275675F6438
:10F4C80069736B5F766572626F73650064656275F8
:10F4D800675F7364636172645F7772697465005211
:10F4E80065737461727420746865207379737465C8
:10F4F8006D005F5F6D656D6370795F6F6E5F7461DE
:10F5080072676574006E6F2076616C696420766F2F
:10F518006C756D650A0D00534420436172643A208E
:10F5280072656164792E0A0D007A38305F636C6FFA
:10F53800636B5F4E434F31494E43005B6E756D629E
:10F548006572206F662073746570735D0064656210
:10F5580075675F7364636172645F726561640043B9
:10F568006C65617220627265616B20706F696E7480
:10F578000025732069732073656C65637465642E58
:10F588000A0D005350495F53445F636F6E666967A5
:10F5980075726500427265616B2061742025303494
:10F5A8006C580A0D004D4D553A2062616E6B20254E
:10F5B80030325820200064656275675F6469736B38
:10F5C8005F77726974650025733D256C6420282572
:10F5D8006C5868290A0D005B616464725D5B2C6C71
:10F5E800656E6774685D0064656275675F646973FA
:10F5F8006B5F726561640064656275675F646973F7
:10F608006B5F6D61736B00636C65617262726561DB
:10F618006B706F696E74004E6F20626F6F74206438
:10F6280069736B2E0A0D002A2B2C3A3B3C3D3E5B3E
:10F638005D7C223F7F005B4C42415D5B2C6C656EBC
:10F648006774685D0025732F445249564525632E1B
:10F6580044534B004E6F20534420436172643F0A69
:10F668000D00696F5F776169745F7772697465000F
:10F6780025733D25642028255868290A0D006465EE
:10F688006275675F6661746469736B004C442048F7
:10F698004C2C28253034584829004F55542028250B
:10F6A80030325848292C41004C442028484C292CF9
:10F6B80025303258480043414C4C204E432C2530CD
:10F6C8003458480043414C4C2050452C2530345880
:10F6D800480043414C4C20504F2C253034584800AA
:10F6E80043414C4C204E5A2C2530345848004C4449
:10F6F80020282530345848292C484C006465627508
:10F70800675F736463617264005B616464725D2C3B
:10F7180076616C756500494E20412C282530325899
:10F728004829004C4420412C2825303458482900C9
:10F738004C4420282530345848292C410043414C5A
:10F748004C204D2C25303458480043414C4C205017
:10F758002C25303458480043414C4C20582C253037
:10F768003458480043414C4C205A2C2530345848D2
:10F7780000646973617373656D626C65005342431D
:10F7880020412C25303258480041444320412C2543
:10F79800303258480041444420412C2530325848E2
:10F7A800004C442042432C2530345848004A50200D
:10F7B8004E432C2530345848004C442044452C25D1
:10F7C80030345848004A502050452C253034584889
:10F7D800004C4420484C2C2530345848004A5020CE
:10F7E800504F2C2530345848004C442053502C2579
:10F7F80030345848004A50204E5A2C253034584846
:10F8080000426F6172643A2025730A0D00454D5518
:10F818005A38302D3537510070726F6772616D3A02
:10F828000A0D0049593A20253034580A0D000A0DAE
:10F838002020202025730A0D0042433A2025303429
:10F848005820200050433A202530345820200044C6
:10F85800453A202530345820200041463A202530AA
:10F868003458202000484C3A2025303458202000B5
:10F8780053503A202530345820200049583A202542
:10F8880030345820200064656275675F6469736B63
:10F89800006C656E203C3D203235360053424320D3
:10F8A800412C28484C290041444320412C28484CED
:10F8B800290041444420412C28484C29004C44202C
:10F8C800412C2530325848004C4420422C253032F7
:10F8D8005848004C4420442C2530325848004C44A9
:10F8E80020482C25303258480043414C4C202530C4
:10F8F800345848004A5020432C2530345848004A90
:10F9080050204D2C2530345848004A5020502C2582
:10F9180030345848004A50205A2C25303458480072
:10F92800455820285350292C484C005B6164647268
:10F938006573735D006D6F6E5F73657475700045F8
:10F94800582041462C414627004C4420412C28424F
:10F958004329004C4420412C28444529004C44208C
:10F96800412C28484C29004C4420422C28484C293A
:10F97800004C4420432C28484C29004C4420442C5B
:10F9880028484C29004C4420452C28484C29004C38
:10F998004420482C28484C29004C44204C2C28480A
:10F9A8004C29004C4420284445292C41004C442033
:10F9B80028484C292C41004C442028484C292C42EA
:10F9C800004C442028484C292C43004144442048FA
:10F9D8004C2C4243004C442028484C292C44004CD1
:10F9E800442028484C292C450041444420484C2CAC
:10F9F8004445004C442028484C292C480053554283
:10FA080020253032584800414E442025303258488D
:10FA180000584F52202530325848004C442028487E
:10FA28004C292C4C0041444420484C2C484C004163
:10FA3800444420484C2C5350004C4420432C25303F
:10FA48003258004C4420452C25303258004C442074
:10FA58004C2C253032580025732530366C783A0006
:10FA6800464154333220202000737461636B3A0A94
:10FA78000D006469736B7265616400636F6E74690D
:10FA88006E7565005355422028484C29004445436B
:10FA98002028484C2900494E432028484C29004139
:10FAA8004E442028484C2900584F522028484C29B9
:10FAB800004350202530325848004A502025303421
:10FAC80058480045582044452C484C004C44205385
:10FAD800502C484C004A52204E432C2564004A5270
:10FAE800204E5A2C25640025643A2025730A0D00FF
:10FAF80053656C6563743A200043504D4449534B39
:10FB080053002573253034783A004572726F720AB3
:10FB18000D000D257325730A0D0043502028484C0D
:10FB280029004A502028484C290053424320412CA0
:10FB3800410041444320412C410041444420412C90
:10FB480041004C442042432C410053424320412C65
:10FB5800420041444320412C420041444420412C6E
:10FB6800420053424320412C430041444320412C4E
:10FB7800430041444420412C4300505553482042FF
:10FB8800430053424320412C440041444320412C2C
:10FB9800440041444420412C440053424320412C1A
:10FBA800450041444320412C450041444420412C18
:10FBB800450050555348204445005055534820416E
:10FBC800460053424320412C480041444320412CE5
:10FBD800480041444420412C4800525354203030BE
:10FBE8004800525354203130480052535420323088
:10FBF8004800525354203330480052535420303870
:10FC08004800525354203138480052535420323857
:10FC18004800525354203338480053424320412C63
:10FC28004C0041444320412C4C0041444420412C89
:10FC38004C005055534820484C004A5220432C252C
:10FC480064004A52205A2C256400444A4E5A2C25F6
:10FC5800640043504D4449537E003C25643E0A0DE0
:10FC6800005B616464725D00736472656164007353
:10FC78007461747573004C4420412C41004C44203D
:10FC8800422C41004C4420432C41004C4420442C3D
:10FC980041004C4420452C41004C4420482C410054
:10FCA8004C44204C2C41004C4420412C42004C44F4
:10FCB80020422C42004C4420432C42004C44204417
:10FCC8002C42004C4420452C42004C4420482C42F5
:10FCD800004C44204C2C42004C4420412C43004C06
:10FCE8004420422C43004C4420432C43004C4420E5
:10FCF800442C43004C4420452C43004C4420482CC1
:10FD080043004C44204C2C430044454320424300CC
:10FD1800494E4320424300504F5020424300524531
:10FD280054204E43004C4420412C44004C44204273
:10FD38002C44004C4420432C44004C4420442C4484
:10FD4800004C4420452C44004C4420482C44004C92
:10FD580044204C2C44004C4420412C45004C442069
:10FD6800422C45004C4420432C45004C4420442C54
:10FD780045004C4420452C45004C4420482C450067
:10FD88004C44204C2C450044454320444500494EF2
:10FD98004320444500504F502044450052455420CC
:10FDA800504500504F50204146004C4420412C48BB
:10FDB800004C4420422C48004C4420432C48004C22
:10FDC8004420442C48004C4420452C48004C4420F6
:10FDD800482C48004C44204C2C48004C4420412CD2
:10FDE8004C004C4420422C4C004C4420432C4C00EA
:10FDF8004C4420442C4C004C4420452C4C004C4492
:10FE080020482C4C004C44204C2C4C0044454320AA
:10FE1800484C00494E4320484C00504F5020484C15
:10FE28000052455420504F00444543205350004948
:10FE38004E4320535000524554204E5A0025303628
:10FE48006C5820002025303278006661743A200012
:10FE58006275663A20000D2573200D007265736582
:10FE68007400535542204100444543204100494E07
:10FE780043204100414E44204100584F5220410048
:10FE8800535542204200444543204200494E4320F6
:10FE98004200414E44204200584F522042005355E0
:10FEA80042204300444543204300494E4320430039
:10FEB800414E44204300584F52204300524554209D
:10FEC8004300535542204400444543204400494ED2
:10FED80043204400414E44204400584F52204400DF
:10FEE800535542204500444543204500494E432090
:10FEF8004500414E44204500584F52204500535577
:10FF080042204800444543204800494E43204800C9
:10FF1800414E44204800584F522048005355422033
:10FF28004C00444543204C00494E43204C00414E70
:10FF380044204C00584F52204C00524554204D004C
:10FF4800524554205000524554205A004A52202508
:10FF5800640025303258200053443A20004D4F4E5B
:10FF68003E00737465700068656C700064756D7030
:10FF7800006A756D70004350204100524C434100A7
:10FF88005252434100435020420043502043004313
:10FF9800502044004350204500435020480043501F
:10FFA800204C0048414C5400303A2F2F00696E66AF
:10FFB800006E616E006C6C73000D25730020257354
:10FFC8000044414100524C410052524100434346D3
:10FFD800005343460043504C004E4F500052455486
:10FFE80000455858003F3F3F004D0A0D0064690026
:07FFF80044490045490000E7
:020000040001F9
:1000000074ECF8F001D80BD00500FA6E0701D4515A
:10001000FD6ED551FE6ED651FF6EFA501200D8A07B
:100020001200000E0901EA6F000EE96F01D80BD033
:100030000500FA6E0801C151FD6EC251FE6EC3513A
:10004000FF6EFA5012000901EE6F01D80BD00500C7
:10005000FA6E0801BE51FD6EBF51FE6EC051FF6EBB
:10006000FA5012000901F16F0701DA51DB11DC11BE
:10007000D8A406D0000E0901DA6F010ED96F14D092
:1000800001D80AD00500FA6EDA51FD6EDB51FE6E22
:10009000DC51FF6EFA501200D8A002D0010E01D040
:1000A000000E0901D96FDA6BD951DA11D8B44AD0F0
:1000B0000701D751D811D911D8A406D0000E0901D3
:1000C000DC6F010EDB6F14D001D80AD00500FA6E88
:1000D000D751FD6ED851FE6ED951FF6EFA50120005
:1000E000D8A002D0010E01D0000E0901DB6FDC6B3D
:1000F000DB51DC11D8B426D00701F2BF23D0000EAB
:100100003C6F230E3B6F01D80BD00500FA6EE65111
:10011000FD6EE751FE6EE851FF6EFA50000E1200C0
:1001200001D80CD00500FA6E0701CE51FD6ECF51FB
:10013000FE6ED051FF6EFA50F15112000701F169C5
:10014000F2691CD10701DA51DB11DC11D8A406D009
:10015000000E0901DE6F010EDD6F14D001D80AD048
:100160000500FA6EDA51FD6EDB51FE6EDC51FF6E5A
:10017000FA501200D8A002D0010E01D0000E0901E1
:10018000DD6FDE6BDD51DE11D8B406D0000E070145
:100190003C6F280E3B6F61D2000E07013C6F1E0EB4
:1001A0003B6F01D8CBD00500FA6EE651FD6EE751EA
:1001B000FE6EE851FF6EFA50000E12000701395131
:1001C0003A11D8B405D001D8D3D00500FA6EADD01D
:1001D00001D8CED00500FA6ECE51FD6ECF51FE6E25
:1001E000D051FF6EFA50000E1200A1EC0CF0D1ECD1
:1001F00003F00901D86F01D8BBD00500FA6E0701E2
:10020000CE51FD6ECF51FE6ED051FF6EFA500901F6
:10021000D851120007012F513011D8B427D0000E49
:100220002F5D0601D46F090E070130590601D56F05
:10023000D5BF06D0D5511AE1800ED45DD8B016D006
:1002400001D810D00500FA6E0701CE51FD6ECF51D6
:10025000FE6ED051FF6EFA502FC7D9F430C7DAF4D2
:10026000DF50120007012F4B302B82D007016D5158
:10027000D8A409D06E51D8A406D06F51D8A403D009
:100280007051D8B475D03E0E0501BE6FE60EBF6F3B
:10029000F1C6C0F5C16B53C7C2F5C36B52C7C4F5F5
:1002A000C56B31C7C6F532C7C7F556C5C8F557C5C2
:1002B000C9F550C7CAF5CB6B51C7CCF5CD6B7AECFD
:1002C0000CF056D001D854D00500FA6E0701CE517B
:1002D000FD6ECF51FE6ED051FF6EFA50FB511200F1
:1002E00001D846D00500FA6E0701CE51FD6ECF5100
:1002F000FE6ED051FF6EFA503CEC0EF01200050E6F
:100300000501BE6FED0EBF6FEEC9C0F5C16BEEC942
:10031000C2F5C36B7AEC0CF0000E07014A6F010EB8
:10032000496F01D825D00500FA6ECE51FD6ECF5130
:10033000FE6ED051FF6EFA50FF0E12000901EE5111
:100340000601D46FD56BD551000AD8A4D8D7D451A3
:10035000000AD8B433D7010AD8B447D7090AD8B4A9
:1003600059D7060AD8B4AED7AE0AD8B4B9D7C7D7CA
:10037000070149514A11D8A442EC0AF001D80CD027
:100380000500FA6E0701D151FD6ED251FE6ED351B8
:10039000FF6EFA50000E120001D80BD00500FA6E65
:1003A0000701CB51FD6ECC51FE6ECD51FF6EFA5060
:1003B000120001D80CD00500FA6E0701C851FD6E7D
:1003C000C951FE6ECA51FF6EFA50010E120001D8DB
:1003D0000BD00500FA6E0701C551FD6EC651FE6EC9
:1003E000C751FF6EFA501200D8A0F1D701D80CD037
:1003F0000500FA6E0701E651FD6EE751FE6EE85109
:10040000FF6EFA50FF0E1200070149514A11D8A49D
:10041000A3D160EF87F00901F151EBEC07F02B4B12
:100420002C2B53D107012F513011D8B42ED0000EF0
:100430002F5D0601D46F090E070130590601D56FF3
:10044000D5BF06D0D55121E1800ED45DD8B01DD0E6
:100450002FC7D9F430C7DAF4F1C9DFF407012F4B05
:10046000302B000E2F5D0601D46F090E07013059A5
:100470000601D56F800ED419D511D8A426D1000E4F
:100480000901EA6F010EE96F20D107016D51D8A46F
:1004900009D06E51D8A406D06F51D8A403D07051A2
:1004A000D8B413D1890E0501BE6FE60EBF6FF1C639
:1004B000C0F5C16B53C7C2F5C36B52C7C4F5C56B5A
:1004C00031C7C6F532C7C7F556C5C8F557C5C9F512
:1004D00050C7CAF5CB6B51C7CCF5CD6B7AEC0CF09D
:1004E000F4D0F1C953F7F1D0F1C952F7EED0000EB4
:1004F000070131150601D46FFF0E07013215060101
:10050000D56F0901F1510601D4110701316F0601C0
:10051000D55116D00901F1510601D56FD46BFF0EEC
:10052000070131150601D66F000E070132150601CD
:10053000D76FD451D6110701316F0601D551D711AC
:100540000701326FC2D0F1C9F1F6030EF119D8A438
:1005500006D0000E07012F6F090E306F05D0000E78
:100560000901EA6F010EE96F07016E51D8B408D096
:100570000601F151D8B410D0020EF119D8B40CD044
:1005800007016F51D8B4A1D00601F105D8B404D049
:10059000030EF119D8A499D007017051D8B495D0A1
:1005A00053C7D4F6010E0601D56F000ED66FD42BBB
:1005B00003D0D890D537D637D42FFBD70701715148
:1005C0000601D517070172510601D617D551D6116C
:1005D000D8A47BD0670E0501BE6FE70EBF6FF1C6D2
:1005E000C0F5C16B53C7C2F5C36B52C7C4F5C56B29
:1005F00031C7C6F532C7C7F556C5C8F557C5C9F5E1
:1006000050C7CAF5CB6B51C7CCF5CD6B7AEC0CF06B
:100610005CD0F1C951F759D0F1C950F756D0090152
:10062000F151FEEC05F051D0EC0E0501BE6FE80E65
:10063000BF6FEEC9C0F5C16BF1C9C2F5C36BEEC99E
:10064000C4F5C56BF1C9C6F5C76B7AEC0CF0000EAA
:1006500007014A6F010E496F38D00901EE510601BA
:10066000D46FD56BD551000AD8A4DED7D451010A76
:10067000D8B4D1D6090AD8B4D5D6020AD8B431D75D
:10068000010AD8B431D7070AD8B431D7010AD8B48F
:100690005AD7020AD8B4BDD71F0AD8B4BDD7010AA9
:1006A000D8B438D7050AD8B4EAD6010AD8B4E7D600
:1006B000B50AD8B4B4D70A0AD8B4E1D6010AD8B476
:1006C000DED6070AD8B4DBD6AFD701D80CD00500E8
:1006D000FA6E0701D151FD6ED251FE6ED351FF6EFD
:1006E000FA50000E120001D80BD00500FA6E070177
:1006F000CB51FD6ECC51FE6ECD51FF6EFA50120003
:1007000001D80CD00500FA6E0701C851FD6EC95121
:10071000FE6ECA51FF6EFA50010E120001D80BD0C6
:100720000500FA6E0701C551FD6EC651FE6EC75138
:10073000FF6EFA501200D8A0F1D7000E07013C6FEF
:10074000320E3B6F0901E951EA11D8A405D0070127
:1007500049514A11D8B4B4D3000E0B6E010E0A6E83
:10076000FDEC0CF00901E951EA11D8B493D311D191
:10077000F1C9D8F50501D96BE3EC0BF08BD3F1C9C6
:10078000D8F50501D96BD2ECF4F084D3EBEC0AF088
:10079000000E07013C6F460E3B6F7CD3000E070135
:1007A0003C6F460E3B6F2B512D1904E12C512E1935
:1007B000D8B40BD0A70E0501BE6FE70EBF6F7AEC61
:1007C0000CF02BC72DF72CC72EF7CEEC05F0000E42
:1007D0003C6F5A0E3B6F2EECDDF007014351441184
:1007E000D8A407D0E1ECE4F00601D205D311D8A4D7
:1007F000F4D733ECFFF0CCD7000E07013C6F460E68
:100800003B6FD7ECF8F0000E3C6F320E3B6F495156
:100810004A11D8B43FD3000E096E000E086E01D8FD
:100820000AD00500FA6EC251FD6EC351FE6EC4516E
:10083000FF6EFA501200000E0B6E000E0A6EFDECF9
:100840000CF001D80CD00500FA6E0701D151FD6EF5
:10085000D251FE6ED351FF6EFA50010E1200000EFF
:100860000901E46F010EE36F000EE06F050EDF6F0C
:100870005CD0E351E411D8A427D00701DA51DB1191
:10088000DC11D8A406D0000E0901E26F010EE16F61
:1008900014D001D80AD00500FA6EDA51FD6EDB5192
:1008A000FE6EDC51FF6EFA501200D8A002D0010E8D
:1008B00001D0000E0901E16FE26BE105E211D8A45D
:1008C00003D0DF07D8A0E0070701DA51DB11DC1104
:1008D000D8A406D0000E0901E46F010EE36F14D016
:1008E00001D80AD00500FA6EDA51FD6EDB51FE6EBA
:1008F000DC51FF6EFA501200D8A002D0010E01D0D8
:10090000000E0901E36FE46BFF0E096EFB0E086E2B
:1009100001D80BD00500FA6E0701C251FD6EC3511C
:10092000FE6EC451FF6EFA5012000901E0BF05D0FF
:10093000E0519FE1DF05D8B09CD701D80CD005006D
:10094000FA6E0701D151FD6ED251FE6ED351FF6E8A
:10095000FA50000E1200FF0E096E086801D80BD085
:100960000500FA6E0701C251FD6EC351FE6EC451FF
:10097000FF6EFA501200E40E00D000D0E82EFCD733
:1009800000D000D0000E0B6E010E0A6EFDEC0CF0D4
:1009900081D2EE510601D46FD56BD551000AD8A48F
:1009A00010D0D451140AD8B4E3D6010AD8B4E7D68B
:1009B000BF0AD8B421D7010AD8B4E8D6070AD8B4F8
:1009C000EDD6000E07014C6F010E4B6F000E0901B2
:1009D000E56F000EE66F000EE76F000EE86F100E79
:1009E000070153610CD05351040D770EF324D96ED7
:1009F000080EF420DA6EDE50DE10D8A404D0010E0A
:100A00000701FB6FDBD152C708F5096A5351040D8A
:100A1000750EF324D96E080EF420DA6EDEC40AF5E2
:100A2000DDC40BF5B4EC0CF007013151082632514E
:100A30000922FF0E08240601D46FFF0E0920D56F8E
:100A4000D4C6E5F9D5C6E6F90901E76BE86B0701FD
:100A50005351040D770EF324D96E080EF420DA6E8C
:100A6000DEC4EBF9DDC4ECF9EBC97EF6ECC97FF628
:100A7000E5C9D4F6E6C9D5F6E7C9D6F6E8C9D7F68A
:100A8000070ED8900601D437D537D637D737E82E9A
:100A9000F8D7D4C680F6D5C681F6D6C682F6D7C6B4
:100AA00083F614ECA1F00901ED6FED51D8B40BD031
:100AB0003D0E0501BE6FF30EBF6FEDC9C0F5C16BF2
:100AC0007AEC0CF09CD70601F151D8B404D0020E98
:100AD000F119D8A4AFD0EBC95AF6ECC95BF6000EF9
:100AE0005C6F090E5D6F000E5F6F800E5E6FEF0E24
:100AF000606F090E616F58ECA4F00901ED6FED51C4
:100B0000D8A405D0800EEF19F011D8B40FD0130E71
:100B10000501BE6FF00EBF6FEDC9C0F5C16BEFC927
:100B2000C2F5F0C9C3F57AEC0CF069D707016E5134
:100B3000D8B42CD07051D8B429D053C7D4F6010EF4
:100B40000601D56F000ED66FD42B03D0D890D537C1
:100B5000D637D42FFBD7070171510601D5170701EE
:100B600072510601D617D551D611D8A40FD0580E00
:100B70000501F56FFE0EF66F000EF76F090EF86FA8
:100B8000000EFA6F800EF96FB6EC02F0000E07014E
:100B9000FB6F0601F151D8A447D00701505106015F
:100BA000D56FD46B5650D66F5750D76FD86BD96B63
:100BB000D7C6D9F6D6C6D8F6D76BD66BD451D611D0
:100BC000DA6FD551D711DB6F000ED811DC6F000E34
:100BD000D911DD6F070151510601DA110901D06FFA
:100BE0000601DB510901D16F0601DC510901D26F09
:100BF0000601DD510901D36FD0C93DF6D1C93EF6DA
:100C0000D2C93FF6D3C940F6000E0601416F090E66
:100C1000426F000E446F800E436FE5ECDAF0000E79
:100C200007012F6F000E04D0000E07012F6F090E71
:100C3000306FC4D0F105D8B404D0030EF119D8A494
:100C4000B9D0F105D8A442D0070150510601D56FA3
:100C5000D46B5650D66F5750D76FD86BD96BD7C659
:100C6000D9F6D6C6D8F6D76BD66BD451D611DA6F73
:100C7000D551D711DB6F000ED811DC6F000ED911E2
:100C8000DD6F070151510601DA110901D46F060128
:100C9000DB510901D56F0601DC510901D66F060150
:100CA000DD510901D76FD4C93DF6D5C93EF6D6C985
:100CB0003FF6D7C940F6000E0601416F090E426F9C
:100CC000000E446F800E436FA9ECDBF007016F51FB
:100CD000D8B42CD07051D8B429D053C7D4F6010E53
:100CE0000601D56F000ED66FD42B03D0D890D53720
:100CF000D637D42FFBD7070171510601D51707014D
:100D000072510601D617D551D611D8A40FD0580E5E
:100D10000501F56FFE0EF66F000EF76F090EF86F06
:100D2000000EFA6F800EF96FB6EC02F0EBC97EF69A
:100D3000ECC97FF6000E0601806F090E816F000E70
:100D4000836F800E826FEF0E846F090E856FEDEC5E
:100D500096F00901ED6FED51D8A405D0800EEF1982
:100D6000F011D8B40FD0F30E0501BE6FEF0EBF6FB8
:100D7000EDC9C0F5C16BEFC9C2F5F0C9C3F57AEC96
:100D80000CF03DD6EBC940F6ECC941F665ECD2F06B
:100D90000901ED6FED51D8B40BD0AA0E0501BE6F5D
:100DA000F30EBF6FEDC9C0F5C16B7AEC0CF027D61E
:100DB000000E01D0010E0701FB6F31D76E51D8B480
:100DC00008D00601F151D8B410D0020EF119D8B4F0
:100DD0000CD007016F51D8B458D00601F105D8B432
:100DE00004D0030EF119D8A450D053C7D4F6010E85
:100DF000D56F000ED66FD42B03D0D890D537D63709
:100E0000D42FFBD7070171510601D5170701725185
:100E10000601D617D551D611D8A437D01E0E05011C
:100E2000BE6FE70EBF6FF1C6C0F5C16B53C7C2F509
:100E3000C36B52C7C4F5C56B31C7C6F532C7C7F51A
:100E400007015351040D750EF324D96E080EF420DA
:100E5000DA6EDEC4C8F5DDC4C9F5E5C9CAF5E6C970
:100E6000CBF5E7C9CCF5E8C9CDF556C5CEF557C5E4
:100E7000CFF550C7D0F50501D16B51C7D2F5D36B73
:100E8000FBC7D4F5D56B7AEC0CF0000E07014C6F64
:100E9000000E4B6F070149514A11D8B406D0000E1D
:100EA0004A6F000E496F00EC07F0000E07013C6F1F
:100EB0003C0E3B6F000E0B6E000E0A6EFDEC0CF04C
:100EC00001D80CD00500FA6E0701D151FD6ED25148
:100ED000FE6ED351FF6EFA50010E1200000E070194
:100EE0003C6F140E3B6F120095C5D9F496C5DAF429
:100EF000DEC4F6F4DDC4F7F4000EF86E0800F55019
:100F0000250AD8A4D2EF8DF095C5D9F496C5DAF4A8
:100F1000DE2A000EDD22000E0701246F000E236F73
:100F200023C758F552685368000E0501A86F000EDC
:100F300014D0588095C5D9F496C5DAF4DE2A000E8F
:100F4000DD2230D05882F6D75884F4D75886F2D7AD
:100F50005888F0D7000EA86F010EA76F23D095C553
:100F6000D9F496C5DAF4DEC4F6F4DDC4F7F4000E65
:100F7000F86E0800F550996F9A6B9A51000AD8A440
:100F8000E9D79951200AD8B4E1D7030AD8B4E0D7F9
:100F9000080AD8B4D9D7060AD8B4CBD71D0AD8B412
:100FA000D1D7D8D7A751A811D8B4D9D758B058920B
:100FB00095C5D9F496C5DAF4DEC4F6F4DDC4F7F4C9
:100FC000000EF86E0800F5502A0AD8A424D095C562
:100FD000D9F496C5DAF4DE2A000EDD2297C5D9F4DD
:100FE00098C5DAF4DFC499F5020EDE26DFC49AF55F
:100FF000000EDD2299C5D9F49AC5DAF4DEC423F7D0
:10100000DDC424F7070124AF36D05880236D241F98
:10101000D8B0242B30D095C5D9F496C5DAF4DEC407
:101020000EF5DDC40FF543ECEFF00EC523F70FC549
:1010300024F707D095C5D9F496C5DAF4DE2A000E58
:10104000DD2295C5D9F496C5DAF4DEC4F6F4DDC424
:10105000F7F4000EF86E0800F5C499F5D00E0501FE
:1010600099259A6F9B6BFF0E9B239B5104E10A0EFF
:101070009A5DD8A0DFD795C5D9F496C5DAF4DEC459
:10108000F6F4DDC4F7F4000EF86E0800F5502E0AF1
:10109000D8A466D0000E536E000E526E95C5D9F4DA
:1010A00096C5DAF4DE2A000EDD2295C5D9F496C580
:1010B000DAF4DEC4F6F4DDC4F7F4000EF86E0800CE
:1010C000F5502A0AD8A41CD095C5D9F496C5DAF4EF
:1010D000DE2A000EDD2297C5D9F498C5DAF4DFC404
:1010E00099F5020EDE26DFC49AF5000EDD2299C5C1
:1010F000D9F49AC5DAF4DEC452F5DDC453F530D024
:1011000095C5D9F496C5DAF4DEC40EF5DDC40FF545
:1011100043ECEFF00EC552F50FC553F507D095C55A
:10112000D9F496C5DAF4DE2A000EDD2295C5D9F48D
:1011300096C5DAF4DEC4F6F4DDC4F7F4000EF86EFA
:101140000800F5C499F5D00E050199259A6F9B6B9F
:10115000FF0E9B239B5104E10A0E9A5DD8A0DFD7B6
:1011600095C5D9F496C5DAF4DEC4F6F4DDC4F7F417
:10117000000EF86E0800F550630AD8A427D095C574
:10118000D9F496C5DAF4DE2A000EDD2297C5D9F42B
:1011900098C5DAF4DFC499F5020EDE26DFC49AF5AD
:1011A000000EDD2299C5D9F49AC5DAF4DF500501A5
:1011B000B36F93C514F594C515F5B3C516F5B7EC23
:1011C000FDF014C593F515C594F5120095C5D9F435
:1011D00096C5DAF4DEC4B4F5DDC4B5F5B4C5F6F4ED
:1011E000B5C5F7F4000EF86E0800F5C4B3F517D0D6
:1011F000B44BB52BB4C5F6F4B5C5F7F4000EF86ED4
:101200000800F550680AD8A435D0480EB36FB44B27
:10121000B52B30D0690E01D0000EB36F2BD0050175
:10122000B351996F9A6B9A51000AD8A4F5D7995186
:10123000580AD8B4EFD73C0AD8B4ECD70C0AD8B4C3
:10124000D7D7010AD8B4E6D7050AD8B4E0D7020A3E
:10125000D8B4E0D7010AD8B4DDD71B0AD8B4D7D7A1
:10126000010AD8B4D7D70D0AD8B4D4D7020AD8B453
:10127000CED7D2D7B4C5F6F4B5C5F7F4000EF86EE4
:101280000800F550640AD8B49AD0B4C5F6F4B5C5D0
:10129000F7F4000EF86E0800F550690AD8B48FD044
:1012A000D1D097C5D9F498C5DAF4DFC499F5020E08
:1012B000DE26DFC49AF5000EDD2299C5D9F49AC561
:1012C000DAF4DF50AB6F000EABBFFF0EAC6F51D046
:1012D00097C5D9F498C5DAF4DFC499F5040EDE2673
:1012E000DFC49AF5000EDD2299C5D9F49AC5DAF467
:1012F000DEC49BF5DEC49CF5DEC49DF5DEC49EF520
:101300009BC59FF59CC5A0F59DC5A1F59EC5A2F501
:10131000A36BA2BFA369A3C5A4F5A3C5A5F5A3C5E7
:10132000A6F59FC5ABF5A0C5ACF5A1C5ADF5A2C5A9
:10133000AEF5A3C5AFF5A4C5B0F5A5C5B1F5A6C575
:10134000B2F557D097C5D9F498C5DAF4DFC499F54A
:10135000020EDE26DFC49AF5000EDD2299C5D9F40F
:101360009AC5DAF4DEC4ABF5DDC4ACF5000EACBF53
:10137000FF0EAD6FAE6FAF6FB06FB16FB26F39D0A0
:1013800097C5D9F498C5DAF4DFC499F5020EDE26C4
:10139000DFC49AF5000EDD2299C5D9F49AC5DAF4B6
:1013A000DEC49BF5DDC49CF59BC5ABF59CC5ACF5D7
:1013B000AD6BAE6BAF6BB06BB16BB26B1AD0B351A0
:1013C000996F9A6B9A51000AD8A413D09951480A80
:1013D000D8B467D7200AD8B4B5D7010AD8B4B2D7E1
:1013E000050AD8B475D7180AD8B4ACD70E0AD8B441
:1013F000C7D7010EB425996F000EB5219A6F95C518
:10140000D9F496C5DAF499C5DEF49AC5DDF493C52E
:1014100026F594C527F5ABC528F5ACC529F5ADC5AE
:101420002AF5AEC52BF5AFC52CF5B0C52DF5B1C568
:101430002EF5B2C52FF52FECC9F026C593F527C5BB
:1014400094F51200B4C5F6F4B5C5F7F4000EF86EC5
:101450000800F550780AD8B496D0B4C5F6F4B5C5EE
:10146000F7F4000EF86E0800F550580AD8B48BD087
:10147000B4C5F6F4B5C5F7F4000EF86E0800F550E3
:101480006F0AD8B480D0B4C5F6F4B5C5F7F4000E31
:10149000F86E0800F550750AD8B475D012D197C50A
:1014A000D9F498C5DAF4DFC499F5020EDE26DFC45C
:1014B0009AF5000EDD2299C5D9F49AC5DAF4DF5009
:1014C0009B6F9B51AB6FAC6B57D097C5D9F498C548
:1014D000DAF4DFC499F5040EDE26DFC49AF5000EB7
:1014E000DD2299C5D9F49AC5DAF4DEC49BF5DEC4D1
:1014F0009CF5DEC49DF5DEC49EF59B51AB6F9C51FF
:10150000AC6F9D51AD6F9E51AE6F38D097C5D9F479
:1015100098C5DAF4DFC499F5020EDE26DFC49AF529
:10152000000EDD2299C5D9F49AC5DAF4DEC4ABF514
:10153000DDC4ACF5000EACBFFF0EAD6FAE6FAF6F8C
:10154000B06FB16FB26F39D097C5D9F498C5DAF4DE
:10155000DFC499F5020EDE26DFC49AF5000EDD2207
:1015600099C5D9F49AC5DAF4DEC49BF5DDC49CF5BF
:101570009BC5ABF59CC5ACF5AD6BAE6BAF6BB06B03
:10158000B16BB26B1AD0B351996F9A6B9A51000A32
:10159000D8A413D09951480AD8B481D7200AD8B416
:1015A000D3D7010AD8B4D0D7050AD8B48ED7180A31
:1015B000D8B4ACD70E0AD8B4C7D7010EB425996FEA
:1015C000000EB5219A6F95C5D9F496C5DAF499C580
:1015D000DEF49AC5DDF45AD093C526F594C527F5F7
:1015E000ABC528F5ACC529F5ADC52AF5AEC52BF5BB
:1015F000AFC52CF5B0C52DF5B1C52EF5B2C52FF58B
:1016000064ECDFF026C593F527C594F5120093C569
:1016100026F594C527F5ABC528F5ACC529F5ADC5AC
:101620002AF5AEC52BF5AFC52CF5B0C52DF5B1C566
:101630002EF5B2C52FF5D7ECD6F026C593F527C504
:1016400094F5120093C526F594C527F5ABC528F58A
:10165000ACC529F5ADC52AF5AEC52BF5AFC52CF542
:10166000B0C52DF5B1C52EF5B2C52FF5B4C5F6F44C
:10167000B5C5F7F4000EF86E0800F5C430F589EC36
:10168000CFF026C593F527C594F51200B4C5F6F43E
:10169000B5C5F7F4000EF86E0800F550996F9A6B17
:1016A0009A51000AD8A40DD09951580AD8B4CAD773
:1016B000370AD8B491D71A0AD8B4A9D70D0AD8B422
:1016C000C1D7B4C5F6F4B5C5F7F4000EF86E08003E
:1016D000F5506E0AD8B408D135D197C5D9F498C55C
:1016E000DAF4DFC499F5020EDE26DFC49AF5000EA7
:1016F000DD2299C5D9F49AC5DAF4DEC49BF5DDC4C0
:101700009CF59BC5F6F49CC5F7F4000EF86E250E0B
:10171000F76407D021C7F5F40D0022C7F5F40C00DB
:1017200001D0D9D0FBD097C5D9F498C5DAF4DFC47D
:1017300099F5020EDE26DFC49AF5000EDD2299C56A
:10174000D9F49AC5DAF4DEC49BF5DDC49CF59BC5DB
:10175000F6F49CC5F7F4000EF86E250EF76407D07A
:1017600021C7F5F40D0022C7F5F40C0001D0B3D069
:10177000D5D097C5D9F498C5DAF4DFC499F5020E2F
:10178000DE26DFC49AF5000EDD2299C5D9F49AC58C
:10179000DAF4DEC49BF5DDC49CF59BC5F6F49CC56C
:1017A000F7F4000EF86E250EF76404D021C7F5F4A7
:1017B0000C0006D0F6C4E9F4F7C4EAF421C7EFF44C
:1017C000ADD021C799F522C79AF5000E9ABFFF0E3A
:1017D0009B6F9C6F97C5D9F498C5DAF4DFC49DF56B
:1017E000020EDE26DFC49EF5000EDD229DC5D9F473
:1017F0009EC5DAF4DEC49FF5DDC4A0F59FC5F6F4FE
:10180000A0C5F7F4000EF86E250EF7640DD099C54B
:10181000F5F40D009AC5F5F40D009BC5F5F40D0027
:101820009CC5F5F40C000CD0F6C4E9F4F7C4EAF456
:1018300099C5EEF49AC5EEF49BC5EEF49CC5EFF4A1
:101840006DD097C5D9F498C5DAF4DFC499F5020EC6
:10185000DE26DFC49AF5000EDD2299C5D9F49AC5BB
:10186000DAF4DEC49BF5DDC49CF59BC5F6F49CC59B
:10187000F7F4000EF86E250EF76407D021C7F5F4D3
:101880000D0022C7F5F40C0001D025D047D097C534
:10189000D9F498C5DAF4DFC499F5020EDE26DFC468
:1018A0009AF5000EDD2299C5D9F49AC5DAF4DEC4A2
:1018B0009BF5DDC49CF59BC5F6F49CC5F7F4000EC2
:1018C000F86E250EF76407D021C7F5F40D0022C786
:1018D000F5F40C0008D0F6C4E9F4F7C4EAF421C723
:1018E000EEF422C7EFF41AD0B351996F9A6B9A5164
:1018F000000AD8A413D09951480AD8B43AD7200A7C
:10190000D8B411D7010AD8B4E8D6050AD8B459D743
:10191000180AD8B496D70E0AD8B4B9D7010E050163
:10192000B425996F000EB5219A6F95C5D9F496C567
:10193000DAF499C5DEF49AC5DDF4000E946F000E5A
:10194000936F120095C5D9F496C5DAF4DEC4F6F4A7
:10195000DDC4F7F4000EF86E0800F550730AD8B431
:1019600016D095C5D9F496C5DAF4DEC408F5DDC401
:1019700009F5BD0E0A6EFF0E0B6E000E0D6E030E06
:101980000C6EF8ECF2F008500910D8A440D095C5C0
:10199000D9F496C5DAF4DEC4F6F4DDC4F7F4000E2B
:1019A000F86E0800F550730AD8B405D0000E050192
:1019B000AA6F030E04D0000E0501AA6F010EA96FD5
:1019C00095C5D9F496C5DAF4A951DE26AA51DD22CF
:1019D00093C514F594C515F597C5D9F498C5DAF4EF
:1019E000DFC499F5020EDE26DFC49AF5000EDD2273
:1019F00099C5D9F49AC5DAF4DEC416F5DDC417F535
:101A000057ECE9F014C593F515C594F5120095C58A
:101A1000D9F496C5DAF4DEC4B4F5DDC4B5F5B4C5C1
:101A2000F6F4B5C5F7F4000EF86E0800F5C4B3F58A
:101A300008D0B44BB52B18D06C0E01D0000EB36F8C
:101A400013D00501B351996F9A6B9A51000AD8A42B
:101A5000F5D799514C0AD8B4ECD72A0AD8B4ECD7A8
:101A60000A0AD8B4E6D7EAD7B4C5F6F4B5C5F7F490
:101A7000000EF86E0800F550660AD8B41AD064D08B
:101A800097C5D9F498C5DAF4DFC499F5040EDE26BB
:101A9000DFC49AF5000EDD2299C5D9F49AC5DAF4AF
:101AA000DEC4ABF5DEC4ACF5DEC4ADF5DEC4AEF528
:101AB0000ED0B351996F9A6B9A51000AD8A407D0EF
:101AC00099514C0AD8B4DCD7200AD8B4D9D7010E22
:101AD000B425996F000EB5219A6F95C5D9F496C5B6
:101AE000DAF499C5DEF49AC5DDF41CD093C560F52F
:101AF00094C561F5ABC562F5ACC563F5ADC564F5DC
:101B0000AEC565F5B4C5F6F4B5C5F7F4000EF86ECC
:101B10000800F5C466F5EEEC8DF060C593F561C57F
:101B200094F51200B4C5F6F4B5C5F7F4000EF86EDE
:101B30000800F550996F9A6B9A51000AD8A404D006
:101B40009951660AD8B4D2D795C5D9F496C5DAF4B6
:101B5000DEC4F6F4DDC4F7F4000EF86E0800F550AC
:101B6000250AD8A417D095C5D9F496C5DAF4DE2A8B
:101B7000000EDD22000E0C6E250E0B6E93C50DF5CA
:101B800094C50EF518ECFDF0000E0501946F010EE2
:101B9000936F120095C5D9F496C5DAF4DE2A000ECB
:101BA000DD22CBD695C5D9F496C5DAF4DEC4F6F4B9
:101BB000DDC4F7F4000EF86E0800F5500B6E0C6AE9
:101BC00093C50DF594C50EF518ECFDF095C5D9F447
:101BD00096C5DAF4DE2A000EDD22D6D7000E886F15
:101BE00062C589F563C58AF564C58BF565C58CF555
:101BF0008CAF14D0010E886F89C508F58AC509F528
:101C00008BC50AF58CC50BF5FAEC0BF008C589F508
:101C100009C58AF50AC58BF50BC58CF5000E8E6FCC
:101C2000000E8D6F23C77CF524C77DF58851D8A49D
:101C300002D058A40ED08851D8A404D0000E6E6FE4
:101C40002B0E03D0000E6E6F2D0E6D6F6DC588F5D7
:101C500004D058A602D0200E886F89C508F58AC521
:101C600009F58BC50AF58CC50BF5E3ECF6F0080415
:101C70000910D8A431D005018851D8B409D088C53D
:101C800080F97C07D8A07D07000E8E6F010E8D6F46
:101C9000800E8D25086E090E8E21096EB50E0A6E16
:101CA000FF0E0B6E60EC0AF00501FD0E7C27FF0EA7
:101CB0007D2360C51BF561C51CF5800E1D6E090EE8
