:0400000081EF00F09C
:100008000207020702070207400002074000020732
:100018000207020702070207020702070207020790
:1000280002074000400040000207020702070207DB
:100038000207020702070207020702070207020770
:1000480002070207020702074000400002070207F2
:100058000207020702074000020702070207020719
:100068000207020702070207020702070207020740
:1000780002070207020702074000020702070207F9
:100088000207020702070207020702070207020720
:10009800020702070207020740000207400040006B
:1000A8000207020702070207020702070207020700
:1000B80002070207020702070207020702070207F0
:1000C80002070207020702070207020702070207E0
:1000D80002070207020702070207020702070207D0
:1000E80040000207020702074000400040004000AD
:1000F8000207020702070207FF0007EFF9F00A6E7E
:10010800B70EF66EDD0EF76E000EF86E0900F550AC
:100118000A5CD8A03CD0B80EF66EDD0EF76E000E65
:10012800F86E0A500900F55CD8A005D0000E096EDB
:10013800010E086E1200B90EF66EDD0EF76E000E97
:10014800F86E0900F5500A5CD8A00BD0BA0EF66E0E
:10015800DD0EF76E000EF86E0A500900F55CD8B097
:10016800E5D7BB0EF66EDD0EF76E000EF86E0900D1
:10017800F5500A5CD8A00BD0BC0EF66EDD0EF76EFB
:10018800000EF86E0A500900F55CD8B0CFD7000E03
:10019800096E000E086E120058A00AD01DC514F58D
:1001A8001EC515F51BC516F51CC517F5D0EC0CF0CA
:1001B80020BE05D01FC524F520C525F504D0000EA6
:1001C800256E000E246E000E236E000E226E0CD0DB
:1001D800000E0C6E200E0B6E1BC50DF51CC50EF522
:1001E800D6ECFEF0224A232A2450225C2350800AAF
:1001F800216E2550800A2158D8A0EAD758B00AD0D5
:100208001DC514F51EC515F51BC516F51CC517F536
:10021800D0EC0CF01DC508F51EC509F5F4EC0BF083
:10022800245008241B6E255009201C6E120005015D
:10023800DD6F010E0501DE6F10D0000EDE6F23D0DA
:100248001D0EBE6FEB0EBF6FDDC5C0F5C16BD8C507
:10025800C2F5C36BCAEC0EF016D0D851DB6FDC6B5D
:10026800DC51000AD8A4ECD7DB51000AD8B4E5D792
:10027800010AD8B4E5D7030AD8B4E2D7010AD8B43A
:10028800DFD7070ADDD70601EF51F011D8B416D031
:10029800E10E0501BE6FE80EBF6FDDC5C0F5C16B8D
:1002A800D8C5C2F5C36BD9C5C4F5DAC5C5F5C66BE3
:1002B800C76BDEC5C8F5C96BCAEC0EF00501DE5187
:1002C8001200FA29FB11D8A413D0A00E0501D86F8B
:1002D800EC0ED96F320EDA6FE70EDB6F000EDD6FB2
:1002E800C00EDC6FD40EDE6FF30EDF6F87EC0DF0FF
:1002F800FAC72AF5FBC72BF5000E2D6EB70E2C6E2C
:100308006EEC0DF0FA510501E06F0701FB51050194
:10031800E16FE26BE36BE1C5E3F5E0C5E2F5E16BA4
:10032800E06BE0C51AF5E1C51BF5E2C51CF5E3C5B0
:100338001DF5A70E1E6EE20E1F6E000E216EB70E83
:10034800206E3BEC03F0000E0701426F000E416F78
:100358001200000E0814106E000E0914116E800EA3
:100368000A14126E7F0E0B14136E10501110121017
:100378001310D8A408D0000E086E000E096E000EE7
:100388000A6E000E0B6E000E0C14106E000E0D148B
:10039800116E800E0E14126E7F0E0F14136E105015
:1003A800111012101310D8A408D0000E0C6E000EF5
:1003B8000D6E000E0E6E000E0F6E0C5008180AE13E
:1003C8000D50091807E10E500A1804E10F500B18D8
:1003D800D8B402D0D8901200D88012003DECF3F0C7
:1003E800D40E0801E36F200EE46F000EE56FD60E01
:1003F800DA6FF20EDB6F010EDC6FC20EDD6F1C0EC2
:10040800DE6F000EDF6FE20ED76F140ED86F000E8E
:10041800D96F040E0701DB6F210EDC6F000EDD6F54
:10042800440EE16F1D0EE26F000EE36FA60ECF6F54
:10043800200ED06F000ED16FE60E0801E06F1F0E80
:10044800E16F000EE26FFC0E0701C66F200EC76F4A
:10045800000EC86FD60EC36F1F0EC46F000EC56F97
:100468001200000E0D6E000E0C6E08016851D8B413
:1004780002D0010E01D0000E0C126951D8A40C82D2
:100488006A51D8A40C846B51D8A40C860CC508F505
:100498000DC509F59AEC0FF0000E0D6E000E0C6EEE
:1004A80008016C51D8B402D0010E01D0000E0C1214
:1004B8006D51D8A40C826E51D8A40C846F51D8A465
:1004C8000C860CC508F50DC509F5A7EC0FF070C82A
:1004D80043F471C844F472C845F470C843F471C851
:1004E80044F472C845F41200080E0001B16F000E02
:1004F8000401006F000E086F000E106F000E186FD9
:10050800209120932095000E086F000E286F000E92
:10051800186FC292CA92010E0201D56FA00ED46F55
:10052800D189D18BC68E070E766FBE8CC69C260EDF
:10053800076FD28FC290CA90C284CA94000EBF6E51
:10054800000EC76E000EC36E000ECB6E3F0E046F1A
:10055800C696320E0401436F330E446F030E456F87
:10056800000E476F4691468F12000DC7C2F60EC7A0
:10057800C3F60FC7C4F610C7C5F6BEC6D9F4BFC6C2
:10058800DAF4DE50DE10D8B421D0BEC6D9F4BFC626
:10059800DAF4DEC4C0F6DDC4C1F6C0C6D9F4C1C6FB
:1005A800DAF4DF50D8B412D0BEC6D9F4BFC6DAF434
:1005B800DEC438F5DDC439F53AECD9F038C5C2F6F1
:1005C80039C5C3F63AC5C4F63BC5C5F6C4C6D8F5A1
:1005D800C5C6D9F590ECF6F0C2C661F7C3C662F796
:1005E800000E0601BD6F010EBC6F1200000E106EEA
:1005F800000E116E000E126E000E136E0C500D10D0
:100608000E100F10D8B42AD0010E146E06D0D89050
:100618000C360D360E360F36142A0FAEF8D7D89092
:1006280010361136123613360C50085C0D50095826
:100638000E500A580F500B58D8A009D00C50085E1D
:100648000D50095A0E500A5A0F500B5A1080D89064
:100658000F320E320D320C32142EE1D710C508F5C8
:1006680011C509F512C50AF513C50BF512001AC50F
:100678000EF51BC50FF51CC510F51DC511F501D8E4
:100688000BD00500FA6E0701E151FD6EE251FE6ED6
:10069800E351FF6EFA50120001D80CD00500FA6E33
:1006A8000701E751FD6EE851FE6EE951FF6EFA5001
:1006B800000E12001AC50EF51BC50FF51EC510F564
:1006C8001FC511F520C512F521C513F501D8120073
:1006D8000500FA6E0701E451FD6EE551FE6EE65124
:1006E800FF6EFA5012001AC50EF51BC50FF51CC592
:1006F80010F51DC511F501D80BD00500FA6E0701DC
:10070800E151FD6EE251FE6EE351FF6EFA501200A8
:1007180001D80CD00500FA6E0701E751FD6EE851CB
:10072800FE6EE951FF6EFA50FF0E12001AC50EF563
:100738001BC50FF51EC510F51FC511F520C512F50F
:1007480021C513F501D812000500FA6E0701DE5124
:10075800FD6EDF51FE6EE051FF6EFA501200BE9240
:100768000EC518F50FC519F519C5C1F418C5BFF49C
:10077800000E176E000E166E26D0BE9A1650102464
:10078800146E17501120156E14C5F6F415C5F7F43C
:10079800000EF86E250EF76404D0D3C4F5F40C00EF
:1007A80006D0F6C4E9F4F7C4EAF4D3C4EFF4BE8A79
:1007B800182A18C5BFF41850D8A403D0192A19C587
:1007C800C1F4164A172A1250165C13501758D8A0AD
:1007D800D4D7BE8212001A0E1124086E000E122001
:1007E800096EB4EC0CF008C517F509C518F5196AB7
:1007F8001A6A0FC5D9F410C5DAF4030EDE18D8A4A6
:100808001CD0140E1124086E000E1220096EB4ECD0
:100818000CF00850136E0950146E156A166A14C548
:1008280016F513C515F5146A136A135017121450E8
:1008380018121550191216501A1217C50FF518C5A7
:1008480010F519C511F51AC512F51200F5C5D8F538
:10085800F6C5D9F5F7C5DAF5F8C5DBF5F9C5DCF560
:10086800FAC5DDF5A5ECF1F0000EFF6FF7C5FBF555
:10087800F8C5FCF5000EFE6F000EFD6F0AD0FBC533
:10088800D9F4FCC5DAF4DF50FF27FB4BFC2BFD4BFA
:10089800FE2BF951FD5DFA51FE59D8A0F0D76B0E29
:1008A800BE6FF20EBF6FF5C5C0F5F6C5C1F5590E9E
:1008B800C26FEF0EC36FFFC5C4F5C56BCAEC0EF06F
:1008C8001200BE920EC518F50FC519F519C5C1F469
:1008D80018C5BFF4000E176E000E166E25D0C09A0C
:1008E80016501024146E17501120156E14C5F6F406
:1008F80015C5F7F4000EF86E250EF76403D008004E
:10090800F55005D0F6C4E9F4F7C4EAF4EF50C36E25
:10091800C08A182A18C5BFF41850D8A403D0192AB9
:1009280019C5C1F4164A172A1250165C13501758E5
:10093800D8A0D5D7BE821200376E00C738F501C7D8
:1009480039F533C53CF534C53DF52FC51FF530C520
:1009580020F531C521F532C522F53CC523F53DC545
:1009680024F5375081ECFEF01FC53AF520C53BF55C
:100978003A503B10D8B403D08DEC0EF0120038C5B5
:1009880008F539C509F5010E3C240A6E000E3D2014
:100998000B6EFF0E35240C6EFF0E36200D6E4BECE1
:1009A800C9F08DEC0EF012000701FA29FB11D8A44A
:1009B8000EEC08F02EC52AF52FC52BF5000E2D6E6E
:1009C800B70E2C6E6EEC0DF02E50306E2F50316E2F
:1009D800326A336A31C533F530C532F5316A306A67
:1009E80030C51AF531C51BF532C51CF533C51DF5E3
:1009F800A70E1E6EE20E1F6E000E216EB70E206E41
:100A08003BEC03F02EC5FAF72FC5FBF7000E0701E4
:100A1800426F000E416F12000A6EB30EF66EDD0EC5
:100A2800F76E000EF86E0900F5500A5CD8A026D0C3
:100A3800B40EF66EDD0EF76E000EF86E0A50090061
:100A4800F55CD8A005D0000E096E010E086E1200E4
:100A5800B50EF66EDD0EF76E000EF86E0900F55055
:100A68000A5CD8A00BD0B60EF66EDD0EF76E000E3F
:100A7800F86E0A500900F55CD8B0E5D7000E096E8B
:100A8800000E086E12005251D8B426D0CA0E0501C5
:100A9800BE6FF00EBF6F09C7C0F50AC7C1F50BC717
:100AA800C2F50CC7C3F5CAEC0EF009C73DF60AC774
:100AB8003EF60BC73FF60CC740F6770E0601416FAE
:100AC800070E426F000E446F010E436FCAECDAF056
:100AD800000E0701526F07D09B0E0501BE6FF20E84
:100AE800BF6FCAEC0EF0000E0601BD6F000EBC6FA2
:100AF8001200D69E070135513611D8B41FD0B00E5A
:100B08003325D96E0A0E3421DA6EDF500E6E010ECF
:100B18003325086E000E3421096E000E0B6E500E40
:100B28000A6E16EC0CF008C533F709C534F735071B
:100B3800D8A03607A780D68E0E501200475148110C
:100B4800D8B403D0D68E000E1200D68E150E0D6EB8
:100B5800C60EE82EFED70D2EFCD700D0CAD708C582
:100B6800D9F409C5DAF40AC5DFF4084A092A0B5092
:100B78000A6E0C500B6E0D500C6E0D6A08C5D9F438
:100B880009C5DAF40AC5DFF4084A092A0B500A6EC7
:100B98000C500B6E0D500C6E0D6A08C5D9F409C5C2
:100BA800DAF40AC5DFF4084A092A0B500A6E0C5019
:100BB8000B6E0D500C6E0D6A08C5D9F409C5DAF430
:100BC8000AC5DFF4084A092A120010C5F6F411C54F
:100BD800F7F4000EF86E0800F5500C6E0D6A77EC0D
:100BE8000EF00CC517F50DC518F5104A112A12C5D7
:100BF800D9F413C5DAF4DF50146E14500C6E0D6A74
:100C080077EC0EF00CC515F50DC516F5124A132A2A
:100C18001550171808E116501818D8A404D0175002
:100C28001810D8A4D2D71550175C106E1650185843
:100C3800116E12000C500D100E100F10D8B424D0E5
:100C4800010E106E06D0D8900C360D360E360F36C3
:100C5800102A0FAEF8D70C50085C0D5009580E50EA
:100C68000A580F500B58D8A008D00C50085E0D50E9
:100C7800095A0E500A5A0F500B5AD8900F320E329A
:100C88000D320C32102EE7D708C508F509C509F54D
:100C98000AC50AF50BC50BF5120056500501E46F9D
:100CA8005750E56FE66BE76BE5C5E7F5E4C5E6F594
:100CB800E56BE46B900EE4251A6E000EE5211B6EC1
:100CC800000EE6211C6E000EE7211D6E530E1E6EEF
:100CD800070E1F6E000E216E160E206E77EC03F0C5
:100CE80007016205D8B007D0020E666F000E656F67
:100CF80065EC01F01200000E666F000E656F1200C1
:100D08000AC510F50BC511F50C500D10D8B412001A
:100D18000DC583F00CC582F010C5D9F411C5DAF4FD
:100D2800DF500001816F104A112A000E0F6E010E6C
:100D38000E6E0ED010C5D9F411C5DAF4DF50816FEC
:100D4800104A112AB1A0FED7000180510E4A0F2A7D
:100D58000C500E5C0D500F58D8A0ECD7B1A0FED7A0
:100D68000001805112005251D8B412002AC52CF546
:100D7800010E2D6E000E2E6E2C2A03D0D8902D3623
:100D88002E362C2EFBD707013B512D163C512E1623
:100D98002D502E10D8A412002AC522F52BC523F5F4
:100DA80026EC0BF02AC52CF5010E2D6E000E2E6ECA
:100DB8002C2A03D0D8902D362E362C2EFBD72D502A
:100DC80007013B132E503C131200B8C5BCF5B9C53A
:100DD800BDF5000E07011E6F000E1D6F17D0B6C5BA
:100DE80093F5B7C594F5BC0E0501956F050E966F82
:100DF800BAC597F5BBC598F590EC87F005019351F6
:100E080007011D270501945107011E23BCC5F6F4EF
:100E1800BDC5F7F4000EF86E0800F5500009D8A417
:100E2800DED7000E0501B76F000EB66F120004D0B2
:100E3800084A092A0A4A0B2A08C5D9F409C5DAF466
:100E4800DF500C6E0AC5F6F40BC5F7F4000EF86E09
:100E58000800F5500C18D8A407D008C5D9F409C55E
:100E6800DAF4DF50D8A4E4D708C5D9F409C5DAF410
:100E7800DF500C6E0AC5F6F40BC5F7F4000EF86ED9
:100E88000800F5500C5C086E096AD8A00906120023
:100E98002450435D25504459D8B012002250266E84
:100EA8002350276E286A296A27C529F526C528F5FB
:100EB800276A266A435126241A6E445127201B6E3E
:100EC800000E28201C6E000E29201D6E000E4325E2
:100ED8001E6E0B0E44211F6E4351245C206E44513C
:100EE8002558216E77EC03F024C543F725C544F750
:100EF8001200000E106E08C511F509C512F50A504A
:100F080011240C6E0B5012200D6E1CD011C5D9F493
:100F180012C5DAF4DF50101A114A122A000E0F6EA9
:100F2800000E0E6E10AE02D0890E101AD890103630
:100F38000E4A0F2A0FBEF6D70F5004E1080E0E5CBA
:100F4800D8A0F0D70C50115C0D501258D8A0DED79D
:100F580010501200BEC6D9F4BFC6DAF4DE50DE1057
:100F6800D8B41ED0BEC6D9F4BFC6DAF4DEC4C0F603
:100F7800DDC4C1F6C0C6D9F4C1C6DAF4DF50D8B4AE
:100F88000FD0BEC6D9F4BFC6DAF4DEC438F5DDC466
:100F980039F53AECD9F038C53FF739C540F704D0F0
:100FA800000E406F010E3F6F000E0601BD6F000E70
:100FB800BC6F12005650226E5750236E246A256A61
:100FC80023C525F522C524F5236A226AA10E222409
:100FD8001A6E000E23201B6E000E24201C6E000EBD
:100FE80025201D6E530E1E6E070E1F6E000E216EFD
:100FF800160E206E77EC03F007016205D8B005D015
:10100800020E666F000E656F1200000E666F000E0E
:10101800656F12000701FA29FB11D8B41200FA51C2
:10102800226EFB51236E246A256A23C525F522C545
:1010380024F5236A226A22C51AF523C51BF524C59F
:101048001CF525C51DF5000E1E6E0B0E1F6E43C741
:1010580020F544C721F53BEC03F0000E0701FB6FB8
:10106800FA69000E446F000E436F1200516E0701BB
:10107800FD51D8B404D0AA0E5118D8A41200AA0E53
:101088005118D8A403D0000EFD6F120051AC0CD03B
:101098001D0E0501BE6FF10EBF6F000EC16FA00ED1
:1010A800C06FCAEC0EF0FF0051AE1200880E0501A9
:1010B800BE6FF10EBF6F000EC16FA00EC06FCAECFD
:1010C8000EF0FFD70BBE07D00B500A1009101DE118
:1010D8000804D8B01AD008C50CF509C50DF50AC51D
:1010E8000EF50BC50FF50C1E0D1E0E1E0F1E0C2A3D
:1010F800000E0D220E220F220CC508F50DC509F5AC
:101108000EC50AF50FC50BF5120008C508F509C587
:1011180009F50AC50AF50BC50BF51200F829F911EE
:10112800D8B41200F851226EF951236E246A256A48
:1011380023C525F522C524F5236A226A660E2224D2
:101148001A6E000E23201B6E000E24201C6E000E4B
:1011580025201D6E780E1E6E080E1F6E000E216E65
:10116800030E206E3BEC03F0000E0701F96FF869DF
:101178001200516E5150D8B40ED00601EF51F01143
:10118800D8B407D0E30E0501BE6FF20EBF6FCAECEC
:101198000EF0020E12000701EA2914E1EB2912E110
:1011A800EC2910E1ED29D8A40DD00601EF51F0117A
:1011B800D8B4EFD70D0E0501BE6FF50EBF6FCAECA0
:1011C8000EF0E7D7000E1200000E106E000E116E22
:1011D800000E126E000E136E08A008D00C501026D8
:1011E8000D5011220E5012220F501322D8900C3697
:1011F8000D360E360F36D8900B320A3209320832C5
:10120800085009100A100B10D8A4E6D710C508F525
:1012180011C509F512C50AF513C50BF512001868B2
:1012280012C508F513C509F596EC0AF0000E176EFD
:10123800000E166E10D012C508F513C509F5180E64
:101248000A6E050E0B6E000E0D6E010E0C6E84EC10
:1012580006F0164A172A1450165C15501758D8A0CD
:10126800EAD712C508F513C509F5ECEC0CF0120025
:101278000701D851D911DA11D8B41FD0D551D611D8
:10128800D711D8B405D0D251D311D411D8A40CD0C9
:101298007B0E0501BE6FEF0EBF6F3D0EC06FF90EDE
:1012A800C16FCAEC0EF0120056C522F557C523F5DA
:1012B80026EC0BF0CF0E41EC10F079EC0CF012009C
:1012C8002F0E0501BE6FE70EBF6FCAEC0EF0200EA1
:1012D800BE6FF20EBF6FCAEC0EF0110E0501D96F8A
:1012E8003C0ED86FCB0EE82EFED7D82FFCD7D92FBF
:1012F800FAD7070E0501BE6FF20EBF6FCAEC0EF0EB
:101308002F0EBE6FE70EBF6FCAEC0EF01200C20EB2
:10131800D16F050ED26FBEC5C6F5BFC5C7F5000EA5
:10132800CA6F000EC96F000ED06F000ECF6FC60EC9
:10133800B66F050EB76FC0C5B8F5C1C5B9F5D10E02
:10134800BA6F050EBB6FE9EC06F0C951BE25D96E20
:10135800CA51BF21DA6E000EDF6E1200066ED69EED
:10136800070136511AE1500E355DD8B016D0355107
:101378003325016E36513421026E000E046E500E74
:10138800036E58EC0CF0B00E0124D96E0A0E022040
:10139800DA6E06C5DFF4354B362B365103E1400EC5
:1013A800355DD8B0A790D68E1200010E146E200EAF
:1013B8000E10106E000E0F10116E9F0E1024126E7C
:1013C800FF0E1120136E135004E11A0E125CD8A000
:1013D8000ED0D00E0E24106EFF0E0F20116E11507D
:1013E80004E10A0E105CD8A002D0000E146E14C5D9
:1013F8000EF50F6A12000D6ED69E0701325104E1F8
:10140800500E315DD8A004D0B7A2FED725EC0AF063
:1014180031512F25086E32513021096E000E0B6EA6
:10142800500E0A6E16EC0CF0600E0824D96E0A0EE7
:101438000920DA6E0DC5DFF4314B322BA782D68E28
:1014480012001DD0600E2F25D96E0A0E3021DA6EDB
:10145800DF500201C96F010E07012F25086E000E2B
:101468003021096E000E0B6E500E0A6E16EC0CF051
:1014780008C52FF709C530F73107D8A0320707018B
:1014880031513211D8B41200B7A21200DBD71DD0E7
:10149800600E2F25D96E0A0E3021DA6EDF50020158
:1014A800C96F010E07012F25016E000E3021026E53
:1014B800000E046E500E036E58EC0CF001C52FF7A9
:1014C80002C530F73107D8A0320707013151321170
:1014D800D8B41200B7A21200DBD78EEC0BF0000EC6
:1014E8000001D56F000ED66F000ED86F7F0ED96F32
:1014F8007F0EDA6F7F0EDB6F010EDC6F000EDD6F83
:10150800000EDE6F000EDF6F820ED76F8C0ED66F67
:10151800000ED46FAE9A9E9A010E0201056FC2802A
:10152800C282120008C50AF509C50BF520EE02F0C3
:101538000A50D9260B50DA22DF50D8A410D0310E29
:101548000201116F320E126F20EE03F00A50D926F5
:101558000B50DA22CBC4DFF4C892C890C88420EEBE
:1015680002F00A50D9260B50DA22DF2A120012D0D4
:1015780008C5D9F409C5DAF4DFC40AF5010EDE2678
:10158800DFC40BF5000EDD220AC5D9F40BC5DAF469
:10159800000EDF6E08C5D9F409C5DAF4DEC40AF511
:1015A800DDC40BF50AC5D9F40BC5DAF4200EDE1834
:1015B800D8A41200DDD7286E756C6C29001A0000BB
:1015C800001A0000001A0000001A000000000000C5
:1015D8000000000000000000000000000080000083
:1015E8000080000000800000008000000000000073
:0D15F8000000000000000000006440000042
:1016060032ECF5F05650386E5750396E3A6A3B6AEE
:1016160039C53BF538C53AF5396A386A38C508F52B
:1016260039C509F53AC50AF53BC50BF501D81200CF
:101636000500FA6E0701DB51FD6EDC51FE6EDD51D1
:10164600FF6EFA5012002250246E2350256E266A31
:10165600276A25C527F524C526F5256A246A080EB6
:1016660024241A6E000E25201B6E000E26201C6EEA
:10167600000E27201D6EAF0E1E6EE20E1F6E000EB0
:10168600216E060E206E3BEC03F01200000E251AAA
:10169600000E261A000E271A800E281A21C508F5F4
:1016A60022C509F523C50AF524C50BF525C50CF594
:1016B60026C50DF527C50EF528C50FF5F2ECBFF0CA
:1016C60008C521F509C522F50AC523F50BC524F57C
:1016D600120008C5F6F409C5F7F4000EF86E080006
:1016E600F5500A18D8A405D008C508F509C509F5A6
:1016F600120008C5F6F409C5F7F4084A092A000ECF
:10170600F86E0800F5500009D8A4E3D7000E086E5D
:10171600000E096E120004011969C9680969C768D3
:101726002969CB680181C6800183C682018BC68A7E
:10173600118BC88ABE88C698550E596FAA0E596F66
:101746005991080E5D6F000E5E6F000E5F6F550EAD
:10175600596FAA0E596F59811200CC0E0601CC6F33
:10176600180ECD6FB00ECE6FFF0ECF6F010ED06F7D
:1017760067ECF7F00009D8B40DD0530E0501BE6F23
:10178600F10EBF6FCAEC0EF0FF0E0601D96FFE0E0A
:10179600D86F1200000ED96F000ED86F12000AC55E
:1017A60011F50BC512F508C50FF509C510F510D0D2
:1017B60011C5D9F412C5DAF4DF500E6E114A122A99
:1017C6000FC5D9F410C5DAF40EC5DFF40F4A102A96
:1017D6000C06D8A00D060C28EBE10D28D8B4120093
:1017E600E7D708C50AF509C50BF502D0084A092A44
:1017F60008C5F6F409C5F7F4000EF86E250EF76471
:1018060003D00800F55005D0F6C4E9F4F7C4EAF4AD
:10181600EF500009D8A4EAD70A50085C086E0B50AE
:101826000958096E12000A500B10D8B418D0010ED0
:101836000C6E04D0D8900A360B360C2A0BAEFAD7AB
:101846000A50085C0B500958D8A004D00A50085E0C
:101856000B50095AD8900B320A320C2EF1D708C514
:1018660008F509C509F512001A0E0E24086E000EB9
:101876000F20096E10C50AF511C50BF5B6EC0EF072
:101886000CC5D9F40DC5DAF4030EDE18D8A412007F
:10189600140E0E24086E000E0F20096E12C50AF5EE
:1018A60013C50BF5B6EC0EF0120003500410D8B4B5
:1018B60018D0010E056E04D0D89003360436052ADA
:1018C60004AEFAD70350015C04500258D8A004D0E5
:1018D6000350015E0450025AD89004320332052E9A
:1018E600F1D701C501F502C502F51200D851D9118B
:1018F600DA11D8B40DD001D812000500FA6ED8510D
:10190600FD6ED951FE6EDA51FF6EFA50000E1200CE
:10191600FA0E0501BE6FF20EBF6FFE0EC06FF30E1C
:10192600C16FCAEC0EF012000AC50CF50BC50DF519
:1019360008C50EF509C50FF50CC5F6F40DC5F7F487
:101946000C4A0D2A000EF86E0EC5D9F40FC5DAF44E
:101956000E4A0F2A0800F5C4DFF4DF50D8B412008F
:10196600EBD720EE01F00850D9260950DA22DF50D5
:101976000A6E0A500D6E0E6A08C5D9F409C5DAF466
:10198600DF500A6E0D500B6E0A500D6E0BC50EF52C
:101996000DC508F50EC509F51200000E1A6E000EEB
:1019A600196E0BD018C50BF50C6A16C50DF517C5C3
:1019B6000EF5D6ECFEF0194A1A2A19501424D96EDF
:1019C6001A501520DA6EDF50186E1850D8B412006F
:1019D600E9D708C50AF509C50BF520EE02F00A504D
:1019E600D9260B50DA22DF06DF50D8A41200000EEB
:1019F6000201116F000E126F20EE03F00A50D92675
:101A06000B50DA22DF50CB6E120008C50AF509C565
:101A16000BF520EE02F00A50D9260B50DA22000E02
:101A2600DF6E000E0001846F000E856F100E02013E
:101A36006A6F120E6B6FC8980001848F120007013F
:101A4600D851D911DA11D8B40DD001D80BD0050070
:101A5600FA6ED851FD6ED951FE6EDA51FF6EFA500C
:101A6600010E120056C52EF557C52FF5D8EC04F019
:101A7600120007D008C5D9F409C5DAF4DE2A000E2B
:101A8600DD2208C5D9F409C5DAF4DEC40AF5DDC4D9
:101A96000BF50AC5D9F40BC5DAF4200EDE18D8A466
:101AA6001200E8D732C515F533C516F534C517F556
:101AB60035C518F536C519F537C51AF5000E1B6E6E
:101AC600C3ECBCF015C532F516C533F517C534F5AC
:101AD60018C535F512002A500701FA1903E12B50F3
:101AE600FB19D8A40EEC08F02AC522F52BC523F560
:101AF6002CC524F52DC525F54CEC07F0000E070185
:101B0600426F010E416F1200680EBE6FEE0EBF6F80
:101B1600D8C5C0F5D9C5C1F5DAC5C2F5DBC5C3F56B
:101B2600DEC5C4F5DFC5C5F5DCC5C6F5DDC5C7F53B
:101B3600CAEC0EF059EC10F012001BBE05D01B507B
:101B460010E11A04D8B00DD01AC51CF51BC51DF539
:101B56001C1E1D1E1C4A1D2A1CC51AF51DC51BF57B
:101B660012001AC51AF51BC51BF51200010E0C6EE4
:101B7600200E08180910D8B40ED0F70E08240A6EE5
:101B8600FF0E09200B6E0B5004E1050E0A5CD8A06F
:101B960002D0000E0C6E0CC508F5096A12001B6E09
:101BA60000C71CF501C71DF51CC516F51DC517F5A3
:101BB6004BEC0FF01E6E1B501E18D8A407D019064A
:101BC600D8A01A0619501A10D8A4EED71E50120023
:101BD600200E08100A6E000E09100B6E9F0E0A24C6
:101BE6000C6EFF0E0B200D6E0D5006E11A0E0C5CEE
:101BF600D8B002D0010E01D0000E086E096A12009C
:101C0800B7A00ED0C7C207F50750D8B404D0075004
:101C1800B2EC09F005D0000E0701486F010E476FBE
:101C28004BEC0AF031513211D8A41100A7921100DF
:101C3800E3C5D8F5E4C5D9F5E50EDA6F050EDB6F17
:101C4800F6ECFAF0E76FE751D8A41200E3C5D9F42F
:101C5800E4C5DAF4000EDE6E000EDD6E1200D85117
:101C68000701455D4651800A516E0501D951800A28
:101C78005158D8B01200110EBE6FE80EBF6FD8C50C
:101C8800C0F5D9C5C1F5CAEC0EF01200085009100C
:101C98000A100B10D8B408D0000E081A000E091A42
:101CA800000E0A1A800E0B1A08C508F509C509F5B1
:101CB8000AC50AF50BC50BF5120008500910D8B46F
:101CC8000BD0000EC76E000EC96EBE82BE8AC08AD7
:101CD800C692C69AC89A1200C768C968CB68C682F5
:101CE800C68AC88A12009F0E0C240E6EFF0E0D20A5
:101CF8000F6E0F5009E11A0E0E5CD8B005D05F0EBA
:101D08000C140C6E0D6A12000CC50CF50DC50DF502
:101D1800120000C719F501C71AF519C50CF51AC53F
:101D28000DF56DEC0FF019C512F51AC513F5000E77
:101D3800156E010E146E13EC09F012000EC508F5AD
:101D48000FC509F510C50AF511C50BF501D8120024
:101D58000500FA6EDB51FD6EDC51FE6EDD51FF6E43
:101D6800FA50120008C5D9F409C5DAF40AC5DFF437
:101D7800084A092A0BC50AF50B6A08C5D9F409C52A
:101D8800DAF40AC5DFF4084A092A1200C00E050170
:101D9800D66F050ED76F000EB66F000EB76FBEC5B3
:101DA800B8F5BFC5B9F5D60EBA6F050EBB6FE9EC2D
:101DB80006F012000CD0050E096E0F0E086EF10E1B
:101DC800E82EFED7082EFCD7092EFAD700F0070117
:101DD80031513211D8B41200EED708500A02F3C4B8
:101DE8000CF5F4C40DF508500B02F3500D260950FC
:101DF8000A02F3500D260CC508F50DC509F51200A9
:101E08009F0E08240A6EFF0E09200B6E0B5006E188
:101E18001A0E0A5CD8B002D0010E01D0000E086E6E
:101E2800096A1200BF0E08240A6EFF0E09200B6E05
:101E38000B5006E11A0E0A5CD8B002D0010E01D090
:101E4800000E086E096A1200D00E08240A6EFF0EF2
:101E580009200B6E0B5006E10A0E0A5CD8B002D0BE
:101E6800010E01D0000E086E096A12000AC508F5B5
:101E78000BC509F501D812000500FA6E0801DD51FD
:101E8800FD6EDE51FE6EDF51FF6EFA5012001868CB
:101E980016C508F517C509F5180E0A6E050E0B6E5E
:101EA800000E0D6E010E0C6E4BECC9F018501200AE
:101EB8000CC508F50DC509F596EC0AF00CC508F532
:101EC8000DC509F5000E0B6E010E0A6E03EC10F03D
:101ED80012000CC508F50DC509F5000E0B6E000EB5
:101EE8000A6E03EC10F00CC508F50DC509F5ECEC0D
:101EF8000CF01200F2EC01F001D812000500FA6EA5
:101F08000801DA51FD6EDB51FE6EDC51FF6EFA50AE
:101F1800120001D812000500FA6E0801D751FD6EB3
:101F2800D851FE6ED951FF6EFA501200EFC60AF56D
:101F3800F0C60BF508C5EFF609C5F0F60AC508F5B1
:101F48000BC509F5120054C50AF555C50BF508C5AA
:101F580054F509C555F50AC508F50BC509F512006C
:101F6800FFFFFFFF74080100FFFF0F0065FFFF0080
:101F7800FF0001FFCF01C8EC0FF00AC508F50BC53B
:101F880009F5FFECFFF0120001D04D0707014D5194
:101F9800800A7F0FD8A01200F8D7000E086E000E36
:101FA800096EF00E0A6EFF0E0B6E1200000E086E20
:101FB800000E096E210E0A6E000E0B6E12006E0ED8
:101FC8000701186F0D0E196F000E1A6F1200086EB8
:101FD8000804D8A412000001D785D7951200AEBA1C
:101FE8001200070147514811D8A41200F8D70A6E09
:101FF800DEEC0EF0B7A2FED70AC5C9F212000A50ED
:102008000B10D8A402D0C0881200C0981200FF009C
:10201800000E0601BD6F000EBC6F1200086E08A00E
:1020280002D0C2821200C292120056C52EF557C5C0
:102038002FF5C3ECFFF01200086E08A002D0C2848E
:102048001200C2941200086E08A002D0BE881200C6
:10205800BE981200086E08A002D0C2801200C2907A
:102068001200000E0701386F0A0E376F1200000EBB
:102078000601BD6F010EBC6F1200086E08C5F2F7AD
:102088000701F36B1200CEBA02D0D8901200D880A4
:102098001200CEB002D0D8901200D8801200AEBA8A
:1020A80002D0D8901200D8801200FF0E0B6E0A687A
:1020B800BFEC0FF01200D0BA02D0D8901200D8802E
:1020C800120037C708F538C709F51200150E086E53
:1020D800F80E096E1200086E08C5C3F41200086EE7
:1020E80008C5CBF41200086809681200D350120022
:0E20F800CF501200AE9A1200FD5112001200DD
:10DD6C00008EF86B0700EFF56C0700BEF56D070031
:10DD7C00C1F46E0700FFF56F070186F6680800AE68
:10DD8C00F469080013F46A08006AF36B080004F7DE
:10DD9C006C080055F56D0800D4F46E0800E9F36FBB
:10DDAC00080031F5700802819FE0FC407E80FC0089
:10DDBC000090002900A10010000000E1FF0201A961
:10DDCC00F700024AFB000318FD000494FE00058EC8
:10DDDC00FE0106D0F8000783FF000847F90009D3BD
:10DDEC00F9000A51F9000B11FD000CB2FE000DAC4C
:10DDFC00FE010E41FA000F88FF011052FC0211C106
:10DE0C00F70012ABF9001396FD0014D6FE0015D0E6
:10DE1C00FE0116DBF80017CDFF011854FF0019F1B5
:10DE2C00F9001A5BF9001B8FFD001CF4FE001DEEBF
:10DE3C00FE011E4BFA001FD1FF0120E6FA0221D988
:10DE4C00F70222F6F600231BFE002412FF00250C1D
:10DE5C00FF0126E6F80027C9FF01284AFC00292DFE
:10DE6C00FA022A94F6002B14FE002C30FF002D2A07
:10DE7C00FF012E55FA002FDDFF0130DDFA0231F1E2
:10DE8C00F7023238F7003337FE00349EFA0035952E
:10DE9C00FA0136B0F60037D9FF013842FC003937A9
:10DEAC00FA023A2BF7003B30FE003C76FE003D7048
:10DEBC00FE013EC5F8003FD5FF0040B6FC0041E72F
:10DECC00FC004234FD004365FD0044B9FD0045EA09
:10DEDC00FD00466FF9004785FC0048BDFC0049EE8B
:10DEEC00FC004A3BFD004B6CFD004CC0FD004DF1AD
:10DEFC00FD004E79F9004F8CFC0050C4FC0051F52C
:10DF0C00FC005242FD005373FD0054C7FD0055F850
:10DF1C00FD005683F9005793FC0058CBFC0059FCCC
:10DF2C00FC005A49FD005B7AFD005CCEFD005DFFF4
:10DF3C00FD005E8DF9005F9AFC0060D2FC0061036D
:10DF4C00FD006250FD006381FD0064D5FD00650697
:10DF5C00FE006697F90067A1FC0068D9FC00690A0D
:10DF6C00FD006A57FD006B88FD006CDCFD006D0D3B
:10DF7C00FE006EA1F9006FA8FC0070BFF90071C91A
:10DF8C00F90072DDF90073E7F90074FBF9007523F1
:10DF9C00FA0076ABFF0077B5F90078AFFC0079E0BA
:10DFAC00FC007A2DFD007B5EFD007CB2FD007DE364
:10DFBC00FD007E65F9007F7EFC008062FB00817AAB
:10DFCC00FB00829AFB0083B2FB0084DAFB008532F3
:10DFDC00FC0086BAF8008742FB00885AFB00897265
:10DFEC00FB008A92FB008BAAFB008CD2FB008D2AD3
:10DFFC00FC008EAFF8008F3AFB009088FE0091A6D3
:10E00C00FE0092CAFE0093E8FE009406FF009524E1
:10E01C00FF00968CFA00976AFE009852FB00996AF2
:10E02C00FB009A8AFB009BA2FB009CCAFB009D2272
:10E03C00FC009EA4F8009F32FB00A09AFE00A1B841
:10E04C00FE00A2DCFE00A3FAFE00A418FF00A53619
:10E05C00FF00A6A7FA00A77CFE00A8A0FE00A9BEA0
:10E06C00FE00AAE2FE00AB00FF00AC1EFF00AD3CC0
:10E07C00FF00AEB0FA00AF82FE00B0A1FE00B1BF4F
:10E08C00FE00B2E3FE00B301FF00B41FFF00B53D7C
:10E09C00FF00B6B1FA00B783FE00B88DFF00B9924D
:10E0AC00FF00BA97FF00BB9CFF00BCA1FF00BDA600
:10E0BC00FF00BE22FB00BF7EFF00C03EFE00C11F62
:10E0CC00FD02C2FDF702C3C2FA02C4E8F600C58223
:10E0DC00FB01C69DF700C7E2FB00C84EFF00C9E577
:10E0EC00FF02CA1DF900CB000002CC6CF702CDF187
:10E0FC00F801CE91F700CF02FC00D026FD00D19D97
:10E10C00FD02D2B5F701D3A2F602D4BEF600D5BA01
:10E11C00FB01D605FA00D7EAFB00D8C4FE00D9E90A
:10E12C00FF02DAFCF801DB1EF702DC5FF700DD0012
:10E13C000001DE85F700DF0AFC00E029FE00E12289
:10E14C00FE02E2E5F700E328F902E4DAF600E53A2C
:10E15C00FC01E60FFA00E7F2FB00E8A4FD00E92A57
:10E16C00FB02EACDF700EBCBFA02ECCCF600ED00AB
:10E17C000001EE19FA00EF12FC00F048FF00F1ABC1
:10E18C00FD02F212F900F3F8FF02F452F700F5C2A7
:10E19C00FB01F61AFA00F7FAFB00F842FF00F9D47B
:10E1AC00FA02FA07F900FBFBFF02FC45F700FD0041
:10E1BC000001FEB9FA00FF1AFCF0000000C3960043
:10E1CC0043502F4D20626F6F742D6C6F61646572BC
:10E1DC0020666F72205A38302D53696D756C6174DE
:10E1EC006F720D0A0000000000000000000000002B
:10E1FC000000000000000000000000000000000013
:10E20C000000000000000000000000000000000002
:10E21C0000000000000000000000000000000000F2
:10E22C0000000000000000000000000000000000E2
:10E23C0000000000000000000000000000424F4FF2
:10E24C00543A206572726F7220626F6F74696E67D8
:10E25C000D0A002103007ED30123B7C29900ED46BD
:10E26C00FB010100210000AFD30A78D30B79D30C4A
:10E27C007DD30F7CD310AFD30DDB0EB7CA0000C615
:10E28C0030D3013E0DD3013E0AD3012180007EB76D
:10E29C00CADC00D30123C3D100F376D3AC182731E9
:10E2AC00000000D3AB00C30E00ED73B10031AD0024
:10E2BC00F5AF32B500C5D5E5DDE5FDE5ED7BB1008B
:10E2CC00E122AF0018D52AB3007DB7B42842110063
:10E2DC0000060E1A77231310FA2AB3001104001942
:10E2EC0022AD00182B000000000000000000000010
:10E2FC000000000000000000000000000000000012
:10E30C0000D3AB00ED73B10031AD00F53E0118A2A6
:10E31C00DD2AB3003EAADD77092AB100DD7505DDE3
:10E32C0074063AA000DD770B2323F92AAF00E53100
:10E33C00A100FDE1DDE1E1D1C1F1FBC9000000006C
:10E34C0000000000000000000400000000000000BD
:10E35C00000014F60126D001000033F9B3F20FF6D9
:10E36C00008E0A00000059EF67F583FA0076200052
:10E37C00000059EF44EE79F702009B010000DFF535
:10E38C00A1EBF5FF02009B010000000000007AFAEF
:10E39C00044864010000A9E965ED74FF0270A60150
:10E3AC000000DFF516EF79FF01720500000069FC33
:10E3BC0039EA64FE001620000000E7F4000070FC4F
:10E3CC0002A4BB0100003EF63EED66FE02FA3401EB
:10E3DC0001009BF4F8EB6AFF015C0F00000043F5B1
:10E3EC00E6F077FC00F28D01000059EF75F0E1F4D6
:10E3FC0002B6D701020011F74DEC6FFF00A4B80173
:10E40C000000BFF30000D3AE00ED73A000319C0000
:10E41C00F53E0132A400C5D5E5DDE5FDE5ED7BA0BB
:10E42C0000E1229E0021000036D32336AFC300004A
:10E43C0000000000000000000000000000000000D0
:10E44C00000000000000D3AC180A31000000D3AA71
:10E45C0000FBED4D2A3900310700E52323F92A375B
:10E46C0000E5312900FDE1DDE1E1D1C1F118DB006E
:10E47C00000000000000000000000004000000008C
:10E48C000000000000D3AD180500000000002A04B5
:10E49C0000ED5B06003A08004FAF47EDB03E0018A8
:10E4AC00E43100083E00D3AD7618F600ED45FBEDE7
:10E4BC004D696F5F737461742829203D3D20494F6D
:10E4CC005F535441545F4E4F545F53544152544523
:10E4DC0044207C7C20696F5F737461742829203D13
:10E4EC003D20494F5F535441545F53544F50504556
:10E4FC0044207C7C20696F5F737461742829203DF3
:10E50C003D20494F5F535441545F494E544552523C
:10E51C005550544544207C7C20696F5F7374617442
:10E52C002829203D3D20494F5F535441545F5052A0
:10E53C004550494E564F4B45207C7C20696F5F738C
:10E54C007461742829203D3D20494F5F5354415438
:10E55C005F4D4F4E49544F5200696F5F7374617435
:10E56C002829203D3D20494F5F535441545F4E4F65
:10E57C00545F53544152544544207C7C20696F5F56
:10E58C00737461742829203D3D20494F5F535441D9
:10E59C00545F53544F50504544207C7C20696F5F2E
:10E5AC00737461742829203D3D20494F5F535441B9
:10E5BC00545F4D4F4E49544F52004449534B3A20EF
:10E5CC004F503D2530327820442F542F533D256435
:10E5DC002F2533642F253364202020202020202059
:10E5EC0020202020414444523D25303178253032C2
:10E5FC007825303278202852442049474E4F5245D6
:10E60C0044290A0D004449534B3A204F503D2530C4
:10E61C00327820442F542F533D25642F2533642FFB
:10E62C002533642020202020202020202020204161
:10E63C004444523D253031782530327825303278BB
:10E64C00202857522049474E4F524544290A0D0065
:10E65C0025733A204552524F523A20492F4F2025CC
:10E66C003573202533642C20253364202825303243
:10E67C0058482C20253032584829207768696C6519
:10E68C002077616974696E6720666F72202564203B
:10E69C00282530325848290A0D004449534B3A205A
:10E6AC004F503D2530327820442F542F533D256454
:10E6BC002F2533642F25336420782533643D25358D
:10E6CC006C6420414444523D2530317825303278F9
:10E6DC0025303278202E2E2E2053543D2530327882
:10E6EC000A0D004449534B3A204F503D25303278A7
:10E6FC0020442F542F533D25642F2533642F25336D
:10E70C006420202020202020202020202041444450
:10E71C00523D253031782530327825303278202E14
:10E72C002E2E200A0D002F55736572732F74616B9A
:10E73C00656D7572612F776F726B73706163652F86
:10E74C006769746875622F53757065724D455A38D8
:10E75C00302F7372632F6D6F6E69746F722E63003E
:10E76C002F55736572732F74616B656D7572612FA4
:10E77C00776F726B73706163652F6769746875620C
:10E78C002F53757065724D455A38302F7372632F45
:10E79C006D656D6F72792E63005344204361726412
:10E7AC003A20726561643531323A20435243206518
:10E7BC0072726F7220282530347820213D2025304C
:10E7CC0034782C2072657472793D2564290A0D0009
:10E7DC002F55736572732F74616B656D7572612F34
:10E7EC00776F726B73706163652F6769746875629C
:10E7FC002F53757065724D455A38302F7372632FD5
:10E80C00696F2E63005741524E494E473A20746F40
:10E81C006F206D616E792062616E6B732072657111
:10E82C007565737465642E202872657175657374D3
:10E83C00206973202564290A0D00747970652027DE
:10E84C0068656C702720746F20736565207468652B
:10E85C00206C697374206F6620617661696C6162EB
:10E86C006C6520636F6D6D616E64730A0D00496D8C
:10E87C006167652066696C652025732F4452495683
:10E88C004525632E44534B2069732061737369676C
:10E89C006E656420746F2064726976652025630A46
:10E8AC000D005741524E494E473A20756E6B6E6FB4
:10E8BC00776E20492F4F2077726974652025642C60
:10E8CC00202564202825303258482C2025303258F9
:10E8DC0048290A0D006469736B5F696F63746C3A45
:10E8EC0020706472763D25642C20636D643D256434
:10E8FC002C20627566663D3078256C783A207265FE
:10E90C00733D25640A0D00534420436172643A2020
:10E91C0020726561643531323A20616464723D2540
:10E92C00386C642C206F6666733D25642C20636FF5
:10E93C00756E743D25640A0D005344204361726466
:10E94C003A2077726974653531323A2061646472A9
:10E95C003D25386C642C206F6666733D25642C2035
:10E96C00636F756E743D25640A0D0053442043613A
:10E97C0072643A2077726974653531323A20666177
:10E98C00696C656420746F2067657420746F6B65A7
:10E99C006E2C2074696D656F75740A0D005B647262
:10E9AC006976655D5B2C747261636B5D5B2C736562
:10E9BC0063746F725D5B2C6C656E6774685D206F41
:10E9CC0072205B64726976652C5D4C42410044494F
:10E9DC00534B3A20207265616420442F542F533DD1
:10E9EC0025642F2533642F25336420782533643D2B
:10E9FC0025356C643A204552524F520A0D0053444F
:10EA0C0020436172643A2077726974653531323A09
:10EA1C002074696D656F75742C20726573706F6EE0
:10EA2C00736520697320253032780A0D004A756DA4
:10EA3C007020746F2073706563696669656420610A
:10EA4C0064647265737320616E6420737461727494
:10EA5C0020657865637574696F6E2000534420439C
:10EA6C006172643A20434D4435382C2052333D2595
:10EA7C0030327820253032782025303278202530FD
:10EA8C00327820253032780A0D0025733A20455211
:10EA9C00524F523A20636C6F636B207370656564E0
:10EAAC00202564206973206E6F7420737570706FED
:10EABC00727465640A0D00534420436172643A20F9
:10EACC00434D44382C2052373D25303278202530A8
:10EADC00327820253032782025303278202530329B
:10EAEC00780A0D004449534B3A202072656164202A
:10EAFC00442F542F533D25642F2533642F25336425
:10EB0C0020782533643D25356C643A204F4B0A0D33
:10EB1C00006469736B5F696F63746C3A2070647224
:10EB2C00763D25642C20636D643D25643A204E6F40
:10EB3C00742068616E646C65642E0A0D00646973E0
:10EB4C006B5F726561643A2020706472763D256457
:10EB5C002C20736563746F723D256C642C20636F7D
:10EB6C00756E743D25640A0D006469736B5F777272
:10EB7C006974653A20706472763D25642C20736547
:10EB8C0063746F723D256C642C20636F756E743DDD
:10EB9C0025640A0D005472616E736C617465206D8E
:10EBAC00616368696E6520636F6465206F6E2074A5
:10EBBC00686520746172676574206D656D6F72791C
:10EBCC0000534420436172643A204343532028434A
:10EBDC00617264204361706163697479205374615C
:10EBEC007475732920697320300A0D0044697370A1
:10EBFC006C6179206F72206368616E676520737039
:10EC0C006563696669656420646562756720766111
:10EC1C00726961626C6500534420436172643A20EE
:10EC2C0077726974653531323A20435243206572EC
:10EC3C00726F72202872657472793D2564290A0DF1
:10EC4C000057726974652062797465206F72207345
:10EC5C007472696E6720746F2074686520746172B9
:10EC6C00676574206D656D6F727900534420436144
:10EC7C0072643A204361726420706F7765722075FC
:10EC8C0070207374617475732062697320697320CA
:10EC9C00300A0D007472616D706F6C696E655F691E
:10ECAC006E7374616C6C656420213D204D4D555F15
:10ECBC00494E56414C49445F42414E4B007265618E
:10ECCC0064204D425220706172746974696F6E20B9
:10ECDC007461626C6520617420736563746F72205B
:10ECEC00300A0D005741524E494E473A20756E6B13
:10ECFC006E6F776E20492F4F2072656164202564FA
:10ED0C0020282530325848290A0D005344204361ED
:10ED1C0072643A2020726561643531323A20736531
:10ED2C0063746F723D256C643A204552524F520AFF
:10ED3C000D00446973706C617920646174612062A8
:10ED4C006C6F636B2873292066726F6D2074686515
:10ED5C00205344204361726400446973706C617980
:10ED6C0020736563746F722873292066726F6D202F
:10ED7C006469736B20696D6167652066696C6500F9
:10ED8C00534420436172643A2053444843206F72C9
:10ED9C002053445843206361726420646574656336
:10EDAC007465640A0D0025733A204552524F523A4D
:10EDBC00206D6F6465202564206973206E6F74204C
:10EDCC00737570706F727465640A0D005344204340
:10EDDC006172643A20696E697469616C697A652044
:10EDEC002E2E2E207375636365656465640A0D00B1
:10EDFC00534420436172643A20756E657870656384
:10EE0C0074656420726573706F6E73652025303283
:10EE1C00780A0D00534420436172643A20207265D5
:10EE2C0061643531323A20736563746F723D256CC1
:10EE3C00643A204F4B0A0D0045786974206D6F6E53
:10EE4C0069746F7220616E6420636F6E74696E7585
:10EE5C006520657865637574696F6E0041737365C1
:10EE6C007274696F6E206661696C65643A202573F3
:10EE7C00202825733A2025733A202564290A00534B
:10EE8C004420436172643A2041434D443431207232
:10EE9C006573706F6E736520697320253032780A44
:10EEAC000D00534420436172643A20777269746593
:10EEBC003531323A20746F6B656E206973202530C2
:10EECC0032780A0D004552524F523A2062616E6BF5
:10EEDC00202564206973206E6F7420617661696CE3
:10EEEC0061626C652E0A0D00534420436172643AD2
:10EEFC0020434D44353920726573706F6E736520F5
:10EF0C00697320253032780A0D00446973706C6186
:10EF1C00792064617461206F6E207468652074615F
:10EF2C0072676574206D656D6F7279004D656D6FDC
:10EF3C00727920303030303030202D202530366C36
:10EF4C005848202564204B42204F4B0D0A0070611D
:10EF5C0072746974696F6E2073746172747320615A
:10EF6C007420736563746F7220256C640A0D002520
:10EF7C00733A20696E7465727275707420697320AF
:10EF8C006E6F7420617661696C61626C650A0D004C
:10EF9C00557365205241332065787465726E616CCF
:10EFAC0020636C6F636B20666F72205A38300A0DC9
:10EFBC0000557365204E434F20252E3266204D4858
:10EFCC007A20666F72205A383020636C6F636B0A3C
:10EFDC000D00665F777269746528293A2045525294
:10EFEC004F52207265733D25642C206E3D25640ABA
:10EFFC000D00665F7265616428293A204552524FB4
:10F00C0052207265733D25642C206E3D25640A0DDB
:10F01C0000696F5F696E766F6B655F7461726765AF
:10F02C00745F6370755F74656172646F776E006690
:10F03C0061696C656420746F2077726974652073E4
:10F04C006563746F7220256C640A0D00696F5F69CB
:10F05C006E766F6B655F7461726765745F637075F4
:10F06C005F7072657061726500446973706C617970
:10F07C0020737461747573206F66207468652074D6
:10F08C006172676574006661696C656420746F20D9
:10F09C007265616420736563746F7220256C640AF9
:10F0AC000D000A0D534420436172643A20696E6965
:10F0BC007469616C697A65202E2E2E0A0D00436CE2
:10F0CC0065617220627265616B706F696E7420612C
:10F0DC0074202530346C580A0D00457865637574BE
:10F0EC0065206E65787420696E73747275637469CB
:10F0FC006F6E28732900534420436172643A204197
:10F10C00434D4434312C2052313D253032780A0D98
:10F11C00000A0D526573657420627920494F207086
:10F12C006F72742025303258480A0D004661696CA4
:10F13C00656420746F206F70656E205344204361AA
:10F14C0072642E2E0A0D004661696C656420746F22
:10F15C00206D6F756E7420534420436172642E0AC7
:10F16C000D006661696C656420746F207265616462
:10F17C0020736563746F7220300A0D000A0D4841CC
:10F18C004C5420627920494F20706F7274202530C6
:10F19C003258480A0D0053657420627265616B70B9
:10F1AC006F696E74206174202530346C580A0D0020
:10F1BC006469736B5F696E697469616C697A6528DF
:10F1CC002564292E2E2E0A0D0053442043617264AF
:10F1DC003A206E6F74207375706F70727465640A68
:10F1EC000D00534420436172643A20434D44302C4B
:10F1FC002052313D253032780A0D0020202020206D
:10F20C0020202020202020202020202020202020F2
:10F21C0020200D007761697420666F722070726F08
:10F22C006772616D6D6572202E2E2E0D00496E7603
:10F23C00616C696420617267756D656E743A202724
:10F24C002573270A0D005354415455533A20256316
:10F25C0025632563256325632563256325630025C5
:10F26C00732535337320434845434B53554D3A2052
:10F27C00253032780A0D00556E6B6E6F776E2076E6
:10F28C0061726961626C6520272573270A0D004243
:10F29C007265616B706F696E74206973206E6F7428
:10F2AC00207365740A0D00536574206F72207368A7
:10F2BC006F7720627265616B20706F696E74004DA0
:10F2CC00656D6F727920303030303030202D202534
:10F2DC0030366C58480D00706879736963616C2026
:10F2EC0064726976657220213D20300A0D00257309
:10F2FC003A206E6F20696E7465727275707420702E
:10F30C00696E0A0D00416D626967756F75732063D4
:10F31C006F6D6D616E642025730A0D00665F6C73F2
:10F32C0065656B28293A204552524F522025640AB4
:10F33C000D00427265616B706F696E742069732089
:10F34C002530346C580A0D00556E6B6E6F776E203D
:10F35C00636F6D6D616E643A2025730A0D006465F0
:10F36C006275675F6661746469736B5F7665726200
:10F37C006F7365006E6F204641543332207061729A
:10F38C00746974696F6E0A0D00665F73796E632819
:10F39C00293A204552524F522025640A0D00696FBC
:10F3AC005F696E766F6B655F7461726765745F63BE
:10F3BC00707500446973706C61792074686973208E
:10F3CC006D657373616765007265696E7374616CEA
:10F3DC006C5F7472616D706F6C696E6500646562F0
:10F3EC0075675F7364636172645F766572626F7375
:10F3FC0065006D6F6E5F6173736572745F696E74B7
:10F40C006572727570740064656275675F666174AD
:10F41C006469736B5F77726974650073697A656F81
:10F42C006628706172616D7329203D3D2035004D59
:10F43C003A204D6F6E69746F722070726F6D7074BC
:10F44C000A0D006E6F204D4252207369676E617415
:10F45C007572650A0D00534420436172643A20743E
:10F46C00696D656F75740A0D00696E76616C6964FF
:10F47C002064726976652025640A0D0077726974C0
:10F48C0065205B616464725D2C76616C0A0D005BB7
:10F49C007661726961626C655D5B3D76616C756508
:10F4AC005D0064656275675F6661746469736B5F48
:10F4BC00726561640064656275675F6469736B5F34
:10F4CC00766572626F73650064656275675F7364FD
:10F4DC00636172645F7772697465005265737461FD
:10F4EC007274207468652073797374656D005F5F46
:10F4FC006D656D6370795F6F6E5F74617267657453
:10F50C00006E6F2076616C696420766F6C756D652A
:10F51C000A0D00534420436172643A2072656164A1
:10F52C00792E0A0D007A38305F636C6F636B5F4E17
:10F53C00434F31494E43005B6E756D626572206FAF
:10F54C00662073746570735D0064656275675F73C4
:10F55C0064636172645F7265616400436C656172BF
:10F56C0020627265616B20706F696E740025732068
:10F57C0069732073656C65637465642E0A0D0053A2
:10F58C0050495F53445F636F6E66696775726500BF
:10F59C00427265616B206174202530346C580A0D01
:10F5AC00004D4D553A2062616E6B2025303258204B
:10F5BC00200064656275675F6469736B5F7772695D
:10F5CC0074650025733D256C642028256C586829CA
:10F5DC000A0D005B616464725D5B2C6C656E677414
:10F5EC00685D0064656275675F6469736B5F726503
:10F5FC0061640064656275675F6469736B5F6D61FC
:10F60C00736B00636C656172627265616B706F69BC
:10F61C006E74004E6F20626F6F74206469736B2E72
:10F62C000A0D002A2B2C3A3B3C3D3E5B5D7C223F75
:10F63C007F005B4C42415D5B2C6C656E6774685D52
:10F64C000025732F445249564525632E44534B00D5
:10F65C004E6F20534420436172643F0A0D00696F62
:10F66C005F776169745F77726974650025733D25F6
:10F67C00642028255868290A0D0064656275675F47
:10F68C006661746469736B004C4420484C2C2825CB
:10F69C003034584829004F555420282530325848CA
:10F6AC00292C41004C442028484C292C2530325818
:10F6BC00480043414C4C204E432C253034584800D4
:10F6CC0043414C4C2050452C253034584800434184
:10F6DC004C4C20504F2C25303458480043414C4C56
:10F6EC00204E5A2C2530345848004C4420282530C4
:10F6FC00345848292C484C0064656275675F736404
:10F70C0063617264005B616464725D2C76616C751C
:10F71C006500494E20412C28253032584829004C90
:10F72C004420412C28253034584829004C442028AA
:10F73C002530345848292C410043414C4C204D2C49
:10F74C0025303458480043414C4C20502C25303443
:10F75C0058480043414C4C20582C25303458480014
:10F76C0043414C4C205A2C25303458480064697362
:10F77C00617373656D626C650053424320412C25A7
:10F78C00303258480041444320412C2530325848EF
:10F79C000041444420412C2530325848004C442030
:10F7AC0042432C2530345848004A50204E432C25D7
:10F7BC0030345848004C442044452C2530345848AB
:10F7CC00004A502050452C2530345848004C4420D9
:10F7DC00484C2C2530345848004A5020504F2C258A
:10F7EC0030345848004C442053502C253034584861
:10F7FC00004A50204E5A2C253034584800426F6134
:10F80C0072643A2025730A0D00454D555A38302D37
:10F81C003537510070726F6772616D3A0A0D00498D
:10F82C00593A20253034580A0D000A0D202020208A
:10F83C0025730A0D0042433A20253034582020000D
:10F84C0050433A202530345820200044453A202596
:10F85C0030345820200041463A202530345820209E
:10F86C0000484C3A202530345820200053503A2080
:10F87C002530345820200049583A2025303458205F
:10F88C00200064656275675F6469736B006C656EFC
:10F89C00203C3D203235360053424320412C284831
:10F8AC004C290041444320412C28484C2900414418
:10F8BC004420412C28484C29004C4420412C253014
:10F8CC00325848004C4420422C2530325848004CC9
:10F8DC004420442C2530325848004C4420482C25D8
:10F8EC00303258480043414C4C20253034584800A5
:10F8FC004A5020432C2530345848004A50204D2C77
:10F90C002530345848004A5020502C253034584863
:10F91C00004A50205A2C253034584800455820288D
:10F92C005350292C484C005B616464726573735DA1
:10F93C00006D6F6E5F73657475700045582041469D
:10F94C002C414627004C4420412C28424329004C92
:10F95C004420412C28444529004C4420412C284863
:10F96C004C29004C4420422C28484C29004C442063
:10F97C00432C28484C29004C4420442C28484C2922
:10F98C00004C4420452C28484C29004C4420482C41
:10F99C0028484C29004C44204C2C28484C29004C1D
:10F9AC004420284445292C41004C442028484C290B
:10F9BC002C41004C442028484C292C42004C44201B
:10F9CC0028484C292C430041444420484C2C4243A9
:10F9DC00004C442028484C292C44004C44202848F6
:10F9EC004C292C450041444420484C2C4445004CA7
:10F9FC00442028484C292C480053554220253032AD
:10FA0C00584800414E4420253032584800584F5237
:10FA1C00202530325848004C442028484C292C4C86
:10FA2C000041444420484C2C484C0041444420485C
:10FA3C004C2C5350004C4420432C25303258004C55
:10FA4C004420452C25303258004C44204C2C253079
:10FA5C0032580025732530366C783A0046415433C1
:10FA6C003220202000737461636B3A0A0D006469C4
:10FA7C00736B7265616400636F6E74696E7565009B
:10FA8C005355422028484C29004445432028484CD3
:10FA9C002900494E432028484C2900414E44202837
:10FAAC00484C2900584F522028484C2900435020DC
:10FABC002530325848004A502025303458480045EB
:10FACC00582044452C484C004C442053502C484C56
:10FADC00004A52204E432C2564004A52204E5A2C88
:10FAEC0025640025643A2025730A0D0053656C6566
:10FAFC0063743A200043504D4449534B53002573D3
:10FB0C00253034783A004572726F720A0D000D255B
:10FB1C007325730A0D0043502028484C29004A5085
:10FB2C002028484C290053424320412C4100414499
:10FB3C004320412C410041444420412C41004C4481
:10FB4C002042432C410053424320412C420041446B
:10FB5C004320412C420041444420412C420053425A
:10FB6C004320412C430041444320412C4300414459
:10FB7C004420412C430050555348204243005342EB
:10FB8C004320412C440041444320412C4400414437
:10FB9C004420412C440053424320412C4500414415
:10FBAC004320412C450041444420412C45005055F4
:10FBBC005348204445005055534820414600534279
:10FBCC004320412C480041444320412C48004144EF
:10FBDC004420412C4800525354203030480052539A
:10FBEC005420313048005253542032304800525384
:10FBFC00542033304800525354203038480052536C
:10FC0C005420313848005253542032384800525353
:10FC1C0054203338480053424320412C4C0041447B
:10FC2C004320412C4C0041444420412C4C00505565
:10FC3C00534820484C004A5220432C2564004A5219
:10FC4C00205A2C256400444A4E5A2C2564004350FB
:10FC5C004D4449537E003C25643E0A0D005B6164B3
:10FC6C0064725D00736472656164007374617475B1
:10FC7C0073004C4420412C41004C4420422C410048
:10FC8C004C4420432C41004C4420442C41004C4417
:10FC9C0020452C41004C4420482C41004C44204C25
:10FCAC002C41004C4420412C42004C4420422C421C
:10FCBC00004C4420432C42004C4420442C42004C29
:10FCCC004420452C42004C4420482C42004C4420FB
:10FCDC004C2C42004C4420412C43004C4420422CE0
:10FCEC0043004C4420432C43004C4420442C430000
:10FCFC004C4420452C43004C4420482C43004C449D
:10FD0C00204C2C430044454320424300494E4320A1
:10FD1C00424300504F5020424300524554204E4322
:10FD2C00004C4420412C44004C4420422C44004CB8
:10FD3C004420432C44004C4420442C44004C44208C
:10FD4C00452C44004C4420482C44004C44204C2C62
:10FD5C0044004C4420412C45004C4420422C45008E
:10FD6C004C4420432C45004C4420442C45004C442E
:10FD7C0020452C45004C4420482C45004C44204C3C
:10FD8C002C450044454320444500494E43204445FE
:10FD9C0000504F50204445005245542050450050CF
:10FDAC004F50204146004C4420412C48004C4420EC
:10FDBC00422C48004C4420432C48004C4420442CFA
:10FDCC0048004C4420452C48004C4420482C48000A
:10FDDC004C44204C2C48004C4420412C4C004C44AE
:10FDEC0020422C4C004C4420432C4C004C442044CE
:10FDFC002C4C004C4420452C4C004C4420482C4CA2
:10FE0C00004C44204C2C4C0044454320484C0049A9
:10FE1C004E4320484C00504F5020484C0052455403
:10FE2C0020504F0044454320535000494E4320532B
:10FE3C005000524554204E5A002530366C58200044
:10FE4C002025303278006661743A20006275663A7B
:10FE5C0020000D2573200D007265736574005355D9
:10FE6C0042204100444543204100494E432041007B
:10FE7C00414E44204100584F5220410053554220DE
:10FE8C004200444543204200494E43204200414E2B
:10FE9C0044204200584F5220420053554220430008
:10FEAC00444543204300494E43204300414E4420E7
:10FEBC004300584F522043005245542043005355A1
:10FECC0042204400444543204400494E4320440012
:10FEDC00414E44204400584F522044005355422078
:10FEEC004500444543204500494E43204500414EC2
:10FEFC0044204500584F522045005355422048009D
:10FF0C00444543204800494E43204800414E44207C
:10FF1C004800584F52204800535542204C0044454D
:10FF2C0043204C00494E43204C00414E44204C0091
:10FF3C00584F52204C00524554204D0052455420ED
:10FF4C005000524554205A004A5220256400253056
:10FF5C003258200053443A20004D4F4E3E007374EB
:10FF6C0065700068656C700064756D70006A756D05
:10FF7C0070004350204100524C43410052524341C7
:10FF8C000043502042004350204300435020440083
:10FF9C00435020450043502048004350204C00481B
:10FFAC00414C5400303A2F2F00696E66006E616E22
:10FFBC00006C6C73000D25730020257300444141C7
:10FFCC0000524C41005252410043434600534346B9
:10FFDC000043504C004E4F50005245540045585869
:10FFEC00003F3F3F004D0A0D006469004449004545
:03FFFC00490000B9
:020000040001F9
:1000000032ECFAF001D80BD00500FA6E0701CF519F
:10001000FD6ED051FE6ED151FF6EFA501200D8A085
:100020001200000E0901EA6F000EE96F01D80BD033
:100030000500FA6E0801CE51FD6ECF51FE6ED05113
:10004000FF6EFA5012000901F06F01D80BD00500C5
:10005000FA6E0801CB51FD6ECC51FE6ECD51FF6E94
:10006000FA5012000901F16F0701D551D611D711CD
:10007000D8A406D0000E0901DA6F010ED96F14D092
:1000800001D80AD00500FA6ED551FD6ED651FE6E2C
:10009000D751FF6EFA501200D8A002D0010E01D045
:1000A000000E0901D96FDA6BD951DA11D8B44AD0F0
:1000B0000701D251D311D411D8A406D0000E0901E2
:1000C000DC6F010EDB6F14D001D80AD00500FA6E88
:1000D000D251FD6ED351FE6ED451FF6EFA50120014
:1000E000D8A002D0010E01D0000E0901DB6FDC6B3D
:1000F000DB51DC11D8B426D00701F3BF23D0000EAA
:10010000386F230E376F01D80BD00500FA6EE75118
:10011000FD6EE851FE6EE951FF6EFA50000E1200BE
:1001200001D80CD00500FA6E0701C951FD6ECA5105
:10013000FE6ECB51FF6EFA50F25112000701F269C8
:10014000F3691CD10701D551D611D711D8A406D017
:10015000000E0901DE6F010EDD6F14D001D80AD048
:100160000500FA6ED551FD6ED651FE6ED751FF6E69
:10017000FA501200D8A002D0010E01D0000E0901E1
:10018000DD6FDE6BDD51DE11D8B406D0000E070145
:10019000386F280E376F61D2000E0701386F1E0EC0
:1001A000376F01D8CBD00500FA6EE751FD6EE851EC
:1001B000FE6EE951FF6EFA50000E12000701355134
:1001C0003611D8B405D001D8D3D00500FA6EADD021
:1001D00001D8CED00500FA6EC951FD6ECA51FE6E2F
:1001E000CB51FF6EFA50000E1200DEEC0EF07DECEB
:1001F00005F00901D86F01D8BBD00500FA6E0701E0
:10020000C951FD6ECA51FE6ECB51FF6EFA50090105
:10021000D851120007012B512C11D8B427D0000E51
:100220002B5D0601D46F090E07012C590601D56F0D
:10023000D5BF06D0D5511AE1800ED45DD8B016D006
:1002400001D810D00500FA6E0701C951FD6ECA51E0
:10025000FE6ECB51FF6EFA502BC7D9F42CC7DAF4DF
:10026000DF50120007012B4B2C2B82D007016B5162
:10027000D8A409D06C51D8A406D06D51D8A403D00D
:100280006E51D8B475D0C60E0501BE6FE50EBF6FB6
:10029000F1C6C0F5C16B51C7C2F5C36B50C7C4F5F9
:1002A000C56B2DC7C6F52EC7C7F556C5C8F557C5CA
:1002B000C9F54EC7CAF5CB6B4FC7CCF5CD6BCAECB1
:1002C0000EF056D001D854D00500FA6E0701C9517E
:1002D000FD6ECA51FE6ECB51FF6EFA50FC511200FA
:1002E00001D846D00500FA6E0701C951FD6ECA510A
:1002F000FE6ECB51FF6EFA5080EC10F01200F00E43
:100300000501BE6FEC0EBF6FF0C9C0F5C16BF0C93F
:10031000C2F5C36BCAEC0EF0000E0701486F010E68
:10032000476F01D825D00500FA6EC951FD6ECA513C
:10033000FE6ECB51FF6EFA50FF0E12000901F05114
:100340000601D46FD56BD551000AD8A4D8D7D451A3
:10035000000AD8B433D7010AD8B447D7090AD8B4A9
:1003600059D7060AD8B4AED7AE0AD8B4B9D7C7D7CA
:10037000070147514811D8A479EC0CF001D80CD0F2
:100380000500FA6E0701CC51FD6ECD51FE6ECE51C7
:10039000FF6EFA50000E120001D80BD00500FA6E65
:1003A0000701C651FD6EC751FE6EC851FF6EFA506F
:1003B000120001D80CD00500FA6E0701C351FD6E82
:1003C000C451FE6EC551FF6EFA50010E120001D8E5
:1003D0000BD00500FA6E0701C051FD6EC151FE6ED3
:1003E000C251FF6EFA501200D8A0F1D701D80CD03C
:1003F0000500FA6E0701E751FD6EE851FE6EE95106
:10040000FF6EFA50FF0E1200070147514811D8A4A1
:10041000A9D17CEF87F00901F151FFEC09F0274BDE
:10042000282B59D107012B512C11D8B42ED0000EF6
:100430002B5D0601D46F090E07012C590601D56FFB
:10044000D5BF06D0D55121E1800ED45DD8B01DD0E6
:100450002BC7D9F42CC7DAF4F1C9DFF407012B4B11
:100460002C2B000E2B5D0601D46F090E07012C59B1
:100470000601D56F800ED419D511D8A42CD1000E49
:100480000901EA6F010EE96F26D107016B51D8A46B
:1004900009D06C51D8A406D06D51D8A403D06E51A8
:1004A000D8B419D1110E0501BE6FE60EBF6FF1C6AB
:1004B000C0F5C16B51C7C2F5C36B50C7C4F5C56B5E
:1004C0002DC7C6F52EC7C7F556C5C8F557C5C9F51A
:1004D0004EC7CAF5CB6B4FC7CCF5CD6BCAEC0EF04F
:1004E000FAD0F1C951F7F7D0F1C950F7F4D0000EA6
:1004F00007012D150601D46FFF0E07012E15060109
:10050000D56F0901F1510601D41107012D6F0601C4
:10051000D55116D00901F1510601D56FD46BFF0EEC
:1005200007012D150601D66F000E07012E150601D5
:10053000D76FD451D61107012D6F0601D551D711B0
:1005400007012E6FC8D0F1C9F1F6030EF119D8A436
:1005500006D0000E07012B6F090E2C6F05D0000E80
:100560000901EA6F010EE96F07016C51D8B408D098
:100570000601F151D8B410D0020EF119D8B40CD044
:1005800007016D51D8B4A7D00601F105D8B404D045
:10059000030EF119D8A49FD007016E51D8B49BD097
:1005A00051C7D4F6010E0601D56F000ED66FD42BBD
:1005B00003D0D890D537D637D42FFBD707016F514A
:1005C0000601D517070170510601D617D551D6116E
:1005D000D8A481D0EF0E0501BE6FE60EBF6FF1C645
:1005E000C0F5C16B51C7C2F5C36B50C7C4F5C56B2D
:1005F0002DC7C6F52EC7C7F556C5C8F557C5C9F5E9
:100600004EC7CAF5CB6B4FC7CCF5CD6BCAEC0EF01D
:1006100062D0F1C94FF75FD0F1C94EF75CD0090144
:10062000F1513AEC08F057D0AE0E0501BE6FE80E5E
:10063000BF6FF0C9C0F5C16BF1C9C2F5C36BF0C99A
:10064000C4F5C56BF1C9C6F5C76BCAEC0EF0000E58
:100650000701486F010E476F3ED00901F0510601B6
:10066000D46FD56BD551000AD8A4DED7D451010A76
:10067000D8B4D1D6090AD8B4D5D6020AD8B431D75D
:10068000010AD8B431D7070AD8B431D7010AD8B48F
:100690005AD7020AD8B4BDD71F0AD8B4BDD7010AA9
:1006A000D8B438D7050AD8B4EAD6010AD8B4E7D600
:1006B000B50AD8B4B4D70A0AD8B4E1D6010AD8B476
:1006C000DED6070AD8B4DBD6020AD8B4D8D6010AD7
:1006D000D8B4D5D6A9D701D80CD00500FA6E070139
:1006E000CC51FD6ECD51FE6ECE51FF6EFA50000E14
:1006F000120001D80BD00500FA6E0701C651FD6E3D
:10070000C751FE6EC851FF6EFA50120001D80CD0CE
:100710000500FA6E0701C351FD6EC451FE6EC5514E
:10072000FF6EFA50010E120001D80BD00500FA6ED0
:100730000701C051FD6EC151FE6EC251FF6EFA50ED
:100740001200D8A0F1D7000E0701386F320E376FB4
:100750000901E951EA11D8A405D007014751481110
:10076000D8B4CAD3000E0B6E010E0A6E3AEC0FF02D
:100770000901E951EA11D8B4A9D321D1F1C9D8F5B9
:100780000501D96B33EC0EF0A1D3F1C9D8F5050101
:10079000D96B90ECF6F09AD3AE0E0901F019D8A4FB
:1007A00003D019EC10F002D022EC0DF0000E07017E
:1007B000386F460E376F8AD3000E0701386F460E2A
:1007C000376F2751291904E128512A19D8B40BD0C1
:1007D0002F0E0501BE6FE70EBF6FCAEC0EF027C7E4
:1007E00029F728C72AF7AF0E0901F019D8A403D0BA
:1007F00051EC06F002D0DEEC07F0000E386F5A0E16
:10080000376F13ECDDF007013F514011D8A407D03A
:1008100025ECE6F00601D205D311D8A4F4D703ECF9
:100820000BF0C4D7000E0701386F460E376F95ECFA
:10083000FAF0000E386F320E376F47514811D8B4B6
:1008400045D3000E096E000E086E01D80AD00500CF
:10085000FA6EBD51FD6EBE51FE6EBF51FF6EFA5075
:100860001200000E0B6E000E0A6E3AEC0FF001D86B
:100870000CD00500FA6E0701CC51FD6ECD51FE6E15
:10088000CE51FF6EFA50010E1200000E0901E46F06
:10089000010EE36F000EE06F050EDF6F5CD0E351D9
:1008A000E411D8A427D00701D551D611D711D8A467
:1008B00006D0000E0901E26F010EE16F14D001D8DD
:1008C0000AD00500FA6ED551FD6ED651FE6ED75195
:1008D000FF6EFA501200D8A002D0010E01D0000E17
:1008E0000901E16FE26BE105E211D8A403D0DF0753
:1008F000D8A0E0070701D551D611D711D8A406D04A
:10090000000E0901E46F010EE36F14D001D80AD084
:100910000500FA6ED551FD6ED651FE6ED751FF6EB1
:10092000FA501200D8A002D0010E01D0000E090129
:10093000E36FE46BFF0E096EFB0E086E01D80BD05F
:100940000500FA6E0701BD51FD6EBE51FE6EBF512E
:10095000FF6EFA5012000901E0BF05D0E0519FE19F
:10096000DF05D8B09CD701D80CD00500FA6E07017E
:10097000CC51FD6ECD51FE6ECE51FF6EFA50000E81
:100980001200FF0E096E086801D80BD00500FA6E40
:100990000701BD51FD6EBE51FE6EBF51FF6EFA5094
:1009A0001200E40E00D000D0E82EFCD700D000D01A
:1009B000000E0B6E010E0A6E3AEC0FF087D2F0516A
:1009C0000601D46FD56BD551000AD8A416D0D451E6
:1009D000140AD8B4D3D6010AD8B4D7D6BF0AD8B42B
:1009E00021D7010AD8B4D8D6070AD8B4E5D6020A66
:1009F000D8B4D2D6010AD8B4DFD6000E07014A6FA8
:100A0000010E496F000E0901E56F000EE66F000E42
:100A1000E76F000EE86F100E070151610CD05151C5
:100A2000040D840EF324D96E080EF420DA6EDE5025
:100A3000DE10D8A404D0010E0701FC6FDBD150C733
:100A400008F5096A5151040D820EF324D96E080E7F
:100A5000F420DA6EDEC40AF5DDC40BF5F1EC0EF01D
:100A600007012D5108262E510922FF0E08240601E8
:100A7000D46FFF0E0920D56FD4C6E5F9D5C6E6F9C7
:100A80000901E76BE86B07015151040D840EF32453
:100A9000D96E080EF420DA6EDEC4EBF9DDC4ECF991
:100AA000EBC97EF6ECC97FF6E5C9D4F6E6C9D5F602
:100AB000E7C9D6F6E8C9D7F6070ED8900601D437AD
:100AC000D537D637D737E82EF8D7D4C680F6D5C66F
:100AD00081F6D6C682F6D7C683F630ECA1F00901BE
:100AE000ED6FED51D8B40BD0280E0501BE6FF30E9B
:100AF000BF6FEDC9C0F5C16BCAEC0EF09CD7060103
:100B0000F151D8B404D0020EF119D8A4AFD0EBC97A
:100B10005AF6ECC95BF6000E5C6F090E5D6F000EB5
:100B20005F6F800E5E6FEE0E606F090E616F74EC8A
:100B3000A4F00901ED6FED51D8A405D0800EEE1997
:100B4000EF11D8B40FD0FE0E0501BE6FEF0EBF6FD0
:100B5000EDC9C0F5C16BEEC9C2F5EFC9C3F5CAEC6A
:100B60000EF069D707016C51D8B42CD06E51D8B4AF
:100B700029D051C7D4F6010E0601D56F000ED66FED
:100B8000D42B03D0D890D537D637D42FFBD7070135
:100B90006F510601D517070170510601D617D551BF
:100BA000D611D8A40FD0580E0501F56FFE0EF66FC2
:100BB000000EF76F090EF86F000EFA6F800EF96FD6
:100BC0002AEC04F0000E0701FC6F0601F151D8A4D5
:100BD00047D007014E510601D56FD46B5650D66FE2
:100BE0005750D76FD86BD96BD7C6D9F6D6C6D8F6BB
:100BF000D76BD66BD451D611DA6FD551D711DB6FC5
:100C0000000ED811DC6F000ED911DD6F07014F51B6
:100C10000601DA110901D06F0601DB510901D16F1C
:100C20000601DC510901D26F0601DD510901D36FC4
:100C3000D0C93DF6D1C93EF6D2C93FF6D3C940F678
:100C4000000E0601416F090E426F000E446F800EC8
:100C5000436FCAECDAF0000E07012B6F000E04D0D0
:100C6000000E07012B6F090E2C6FC4D0F105D8B40C
:100C700004D0030EF119D8A4B9D0F105D8A442D0FC
:100C800007014E510601D56FD46B5650D66F5750A1
:100C9000D76FD86BD96BD7C6D9F6D6C6D8F6D76B6F
:100CA000D66BD451D611DA6FD551D711DB6F000E48
:100CB000D811DC6F000ED911DD6F07014F5106010D
:100CC000DA110901D46F0601DB510901D56F060164
:100CD000DC510901D66F0601DD510901D76FD4C976
:100CE0003DF6D5C93EF6D6C93FF6D7C940F6000E47
:100CF0000601416F090E426F000E446F800E436F74
:100D00008EECDBF007016D51D8B42CD06E51D8B405
:100D100029D051C7D4F6010E0601D56F000ED66F4B
:100D2000D42B03D0D890D537D637D42FFBD7070193
:100D30006F510601D517070170510601D617D5511D
:100D4000D611D8A40FD0580E0501F56FFE0EF66F20
:100D5000000EF76F090EF86F000EFA6F800EF96F34
:100D60002AEC04F0EBC97EF6ECC97FF6000E060112
:100D7000806F090E816F000E836F800E826FEE0E02
:100D8000846F090E856F09EC97F00901ED6FED5145
:100D9000D8A405D0800EEE19EF11D8B40FD0DE0E16
:100DA0000501BE6FEF0EBF6FEDC9C0F5C16BEEC997
:100DB000C2F5EFC9C3F5CAEC0EF03DD6EBC940F65B
:100DC000ECC941F65DECD1F00901ED6FED51D8B4FD
:100DD0000BD0950E0501BE6FF30EBF6FEDC9C0F5C8
:100DE000C16BCAEC0EF027D6000E01D0010E070130
:100DF000FC6F31D76C51D8B408D00601F151D8B48A
:100E000010D0020EF119D8B40CD007016D51D8B42E
:100E100058D00601F105D8B404D0030EF119D8A4B6
:100E200050D051C7D4F6010ED56F000ED66FD42B1B
:100E300003D0D890D537D637D42FFBD707016F51C1
:100E40000601D517070170510601D617D551D611E5
:100E5000D8A437D0A60E0501BE6FE60EBF6FF1C64F
:100E6000C0F5C16B51C7C2F5C36B50C7C4F5C56BA4
:100E70002DC7C6F52EC7C7F507015151040D820EC7
:100E8000F324D96E080EF420DA6EDEC4C8F5DDC492
:100E9000C9F5E5C9CAF5E6C9CBF5E7C9CCF5E8C996
:100EA000CDF556C5CEF557C5CFF54EC7D0F50501E2
:100EB000D16B4FC7D2F5D36BFCC7D4F5D56BCAEC59
:100EC0000EF0000E07014A6F000E496F07014751EF
:100ED0004811D8B406D0000E486F000E476F3CECA6
:100EE00009F0000E0701386F3C0E376F000E0B6ED5
:100EF000000E0A6E3AEC0FF001D80CD00500FA6E25
:100F00000701CC51FD6ECD51FE6ECE51FF6EFA50F1
:100F1000010E1200000E0701386F140E376F120019
:100F200095C5D9F496C5DAF4DEC4F6F4DDC4F7F459
:100F3000000EF86E0800F550250AD8A4EEEF8DF0EB
:100F400095C5D9F496C5DAF4DE2A000EDD22000E2E
:100F50000701206F000E1F6F1FC758F552685368B6
:100F6000000E0501A86F000E14D0588095C5D9F465
:100F700096C5DAF4DE2A000EDD2230D05882F6D78C
:100F80005884F4D75886F2D75888F0D7000EA86F47
:100F9000010EA76F23D095C5D9F496C5DAF4DEC447
:100FA000F6F4DDC4F7F4000EF86E0800F550996F02
:100FB0009A6B9A51000AD8A4E9D79951200AD8B45B
:100FC000E1D7030AD8B4E0D7080AD8B4D9D7060ABB
:100FD000D8B4CBD71D0AD8B4D1D7D8D7A751A81128
:100FE000D8B4D9D758B0589295C5D9F496C5DAF483
:100FF000DEC4F6F4DDC4F7F4000EF86E0800F55018
:101000002A0AD8A424D095C5D9F496C5DAF4DE2AE4
:10101000000EDD2297C5D9F498C5DAF4DFC499F53E
:10102000020EDE26DFC49AF5000EDD2299C5D9F442
:101030009AC5DAF4DEC41FF7DDC420F7070120AF3C
:1010400036D058801F6D201FD8B0202B30D095C5CA
:10105000D9F496C5DAF4DEC40EF5DDC40FF587ECDD
:10106000F0F00EC51FF70FC520F707D095C5D9F4CE
:1010700096C5DAF4DE2A000EDD2295C5D9F496C5B0
:10108000DAF4DEC4F6F4DDC4F7F4000EF86E0800FE
:10109000F5C499F5D00E050199259A6F9B6BFF0E4B
:1010A0009B239B5104E10A0E9A5DD8A0DFD795C51A
:1010B000D9F496C5DAF4DEC4F6F4DDC4F7F4000E14
:1010C000F86E0800F5502E0AD8A466D0000E536EB4
:1010D000000E526E95C5D9F496C5DAF4DE2A000EDC
:1010E000DD2295C5D9F496C5DAF4DEC4F6F4DDC484
:1010F000F7F4000EF86E0800F5502A0AD8A41CD0A8
:1011000095C5D9F496C5DAF4DE2A000EDD2297C51E
:10111000D9F498C5DAF4DFC499F5020EDE26DFC4EF
:101120009AF5000EDD2299C5D9F49AC5DAF4DEC429
:1011300052F5DDC453F530D095C5D9F496C5DAF42F
:10114000DEC40EF5DDC40FF587ECF0F00EC552F5E8
:101150000FC553F507D095C5D9F496C5DAF4DE2A44
:10116000000EDD2295C5D9F496C5DAF4DEC4F6F496
:10117000DDC4F7F4000EF86E0800F5C499F5D00E42
:10118000050199259A6F9B6BFF0E9B239B5104E1F0
:101190000A0E9A5DD8A0DFD795C5D9F496C5DAF4C2
:1011A000DEC4F6F4DDC4F7F4000EF86E0800F55066
:1011B000630AD8A427D095C5D9F496C5DAF4DE2AF7
:1011C000000EDD2297C5D9F498C5DAF4DFC499F58D
:1011D000020EDE26DFC49AF5000EDD2299C5D9F491
:1011E0009AC5DAF4DF500501B36F93C514F594C5C1
:1011F00015F5B3C516F575ECFFF014C593F515C5D7
:1012000094F5120095C5D9F496C5DAF4DEC4B4F5A8
:10121000DDC4B5F5B4C5F6F4B5C5F7F4000EF86E47
:101220000800F5C4B3F517D0B44BB52BB4C5F6F42C
:10123000B5C5F7F4000EF86E0800F550680AD8A49A
:1012400035D0480EB36FB44BB52B30D0690E01D0FA
:10125000000EB36F2BD00501B351996F9A6B9A5161
:10126000000AD8A4F5D79951580AD8B4EFD73C0A48
:10127000D8B4ECD70C0AD8B4D7D7010AD8B4E6D77B
:10128000050AD8B4E0D7020AD8B4E0D7010AD8B426
:10129000DDD71B0AD8B4D7D7010AD8B4D7D70D0ADF
:1012A000D8B4D4D7020AD8B4CED7D2D7B4C5F6F4BE
:1012B000B5C5F7F4000EF86E0800F550640AD8B40E
:1012C0009AD0B4C5F6F4B5C5F7F4000EF86E080070
:1012D000F550690AD8B48FD0D1D097C5D9F498C544
:1012E000DAF4DFC499F5020EDE26DFC49AF5000EAB
:1012F000DD2299C5D9F49AC5DAF4DF50AB6F000E40
:10130000ABBFFF0EAC6F51D097C5D9F498C5DAF4D6
:10131000DFC499F5040EDE26DFC49AF5000EDD2247
:1013200099C5D9F49AC5DAF4DEC49BF5DEC49CF500
:10133000DEC49DF5DEC49EF59BC59FF59CC5A0F55A
:101340009DC5A1F59EC5A2F5A36BA2BFA369A3C5C8
:10135000A4F5A3C5A5F5A3C5A6F59FC5ABF5A0C586
:10136000ACF5A1C5ADF5A2C5AEF5A3C5AFF5A4C555
:10137000B0F5A5C5B1F5A6C5B2F557D097C5D9F456
:1013800098C5DAF4DFC499F5020EDE26DFC49AF5BB
:10139000000EDD2299C5D9F49AC5DAF4DEC4ABF5A6
:1013A000DDC4ACF5000EACBFFF0EAD6FAE6FAF6F1E
:1013B000B06FB16FB26F39D097C5D9F498C5DAF470
:1013C000DFC499F5020EDE26DFC49AF5000EDD2299
:1013D00099C5D9F49AC5DAF4DEC49BF5DDC49CF551
:1013E0009BC5ABF59CC5ACF5AD6BAE6BAF6BB06B95
:1013F000B16BB26B1AD0B351996F9A6B9A51000AC4
:10140000D8A413D09951480AD8B467D7200AD8B4C1
:10141000B5D7010AD8B4B2D7050AD8B475D7180A17
:10142000D8B4ACD70E0AD8B4C7D7010EB425996F7B
:10143000000EB5219A6F95C5D9F496C5DAF499C511
:10144000DEF49AC5DDF493C526F594C527F5ABC542
:1014500028F5ACC529F5ADC52AF5AEC52BF5AFC548
:101460002CF5B0C52DF5B1C52EF5B2C52FF527EC7D
:10147000C8F026C593F527C594F51200B4C5F6F457
:10148000B5C5F7F4000EF86E0800F550780AD8B428
:1014900096D0B4C5F6F4B5C5F7F4000EF86E0800A2
:1014A000F550580AD8B48BD0B4C5F6F4B5C5F7F4E6
:1014B000000EF86E0800F5506F0AD8B480D0B4C59D
:1014C000F6F4B5C5F7F4000EF86E0800F550750A8D
:1014D000D8B475D012D197C5D9F498C5DAF4DFC461
:1014E00099F5020EDE26DFC49AF5000EDD2299C5BD
:1014F000D9F49AC5DAF4DF509B6F9B51AB6FAC6B9C
:1015000057D097C5D9F498C5DAF4DFC499F5040E1D
:10151000DE26DFC49AF5000EDD2299C5D9F49AC5FE
:10152000DAF4DEC49BF5DEC49CF5DEC49DF5DEC4B2
:101530009EF59B51AB6F9C51AC6F9D51AD6F9E5111
:10154000AE6F38D097C5D9F498C5DAF4DFC499F5F1
:10155000020EDE26DFC49AF5000EDD2299C5D9F40D
:101560009AC5DAF4DEC4ABF5DDC4ACF5000EACBF51
:10157000FF0EAD6FAE6FAF6FB06FB16FB26F39D09E
:1015800097C5D9F498C5DAF4DFC499F5020EDE26C2
:10159000DFC49AF5000EDD2299C5D9F49AC5DAF4B4
:1015A000DEC49BF5DDC49CF59BC5ABF59CC5ACF5D5
:1015B000AD6BAE6BAF6BB06BB16BB26B1AD0B3519E
:1015C000996F9A6B9A51000AD8A413D09951480A7E
:1015D000D8B481D7200AD8B4D3D7010AD8B4D0D789
:1015E000050AD8B48ED7180AD8B4ACD70E0AD8B426
:1015F000C7D7010EB425996F000EB5219A6F95C516
:10160000D9F496C5DAF499C5DEF49AC5DDF45AD05A
:1016100093C526F594C527F5ABC528F5ACC529F5C6
:10162000ADC52AF5AEC52BF5AFC52CF5B0C52DF56A
:10163000B1C52EF5B2C52FF549ECDFF026C593F5FF
:1016400027C594F5120093C526F594C527F5ABC5BB
:1016500028F5ACC529F5ADC52AF5AEC52BF5AFC546
:101660002CF5B0C52DF5B1C52EF5B2C52FF5BCECE6
:10167000D6F026C593F527C594F5120093C526F537
:1016800094C527F5ABC528F5ACC529F5ADC52AF538
:10169000AEC52BF5AFC52CF5B0C52DF5B1C52EF5F2
:1016A000B2C52FF5B4C5F6F4B5C5F7F4000EF86E63
:1016B0000800F5C430F581ECCEF026C593F527C5BA
:1016C00094F51200B4C5F6F4B5C5F7F4000EF86E43
:1016D0000800F550996F9A6B9A51000AD8A40DD062
:1016E0009951580AD8B4CAD7370AD8B491D71A0A28
:1016F000D8B4A9D70D0AD8B4C1D7B4C5F6F4B5C5C6
:10170000F7F4000EF86E0800F5506E0AD8B408D150
:1017100035D197C5D9F498C5DAF4DFC499F5020E2E
:10172000DE26DFC49AF5000EDD2299C5D9F49AC5EC
:10173000DAF4DEC49BF5DDC49CF59BC5F6F49CC5CC
