:0400000081EF00F09C
:10000800010401040104010440000104400001044A
:1000180001040104010401040104010401040104B0
:1000280001044000400040000104010401040104EF
:100038000104010401040104010401040104010490
:10004800010401040104010440004000010401040A
:100058000104010401044000010401040104010435
:100068000104010401040104010401040104010460
:100078000104010401040104400001040104010415
:100088000104010401040104010401040104010440
:10009800010401040104010440000104400040007F
:1000A8000104010401040104010401040104010420
:1000B8000104010401040104010401040104010410
:1000C8000104010401040104010401040104010400
:1000D80001040104010401040104010401040104F0
:1000E80040000104010401044000400040004000B9
:1000F8000104010401040104FF00C0EFF1F0D69EE1
:10010800070138513911D8B41FD0B00E3625D96E31
:100118000A0E3721DA6EDF500E6E010E3625086E94
:10012800000E3721096E000E0B6E500E0A6E2CEC75
:1001380006F008C536F709C537F73807D8A03907D4
:10014800A780D68E0E5012000601F351F411D8B4D0
:1001580003D0D68E000E1200D68E150E0D6EC60E6A
:10016800E82EFED70D2EFCD700D0C9D708C5D9F484
:1001780009C5DAF40AC5DFF4084A092A0B500A6EE1
:100188000C500B6E0D500C6E0D6A08C5D9F409C5DC
:10019800DAF40AC5DFF4084A092A0B500A6E0C5033
:1001A8000B6E0D500C6E0D6A08C5D9F409C5DAF44A
:1001B8000AC5DFF4084A092A0B500A6E0C500B6E68
:1001C8000D500C6E0D6A08C5D9F409C5DAF40AC5D4
:1001D800DFF4084A092A120010C5F6F411C5F7F42D
:1001E800000EF86E0800F5500C6E0D6A75EC08F0FC
:1001F8000CC517F50DC518F5104A112A12C5D9F402
:1002080013C5DAF4DF50146E14500C6E0D6A75ECD9
:1002180008F00CC515F50DC516F5124A132A155028
:10022800171808E116501818D8A404D01750181039
:10023800D8A4D2D71550175C106E16501858116EE6
:1002480012000C500D100E100F10D8B424D0010E4F
:10025800106E06D0D8900C360D360E360F36102A92
:100268000FAEF8D70C50085C0D5009580E500A58BC
:100278000F500B58D8A008D00C50085E0D50095AE2
:100288000E500A5A0F500B5AD8900F320E320D32B8
:100298000C32102EE7D708C508F509C509F50AC5B7
:1002A8000AF50BC50BF512000AC510F50BC511F5BB
:1002B8000C500D10D8B412000DC583F00CC582F097
:1002C80010C5D9F411C5DAF4DF500001816F104A66
:1002D800112A000E0F6E010E0E6E0ED010C5D9F445
:1002E80011C5DAF4DF50816F104A112AB1A0FED788
:1002F800000180510E4A0F2A0C500E5C0D500F5809
:10030800D8A0ECD7B1A0FED70001805112004D5102
:10031800D8B4120024C526F5010E276E000E286EEB
:10032800262A03D0D89027362836262EFBD7070151
:100338003E5127163F51281627502810D8A41200DE
:1003480024C51CF525C51DF51AEC05F024C526F5B0
:10035800010E276E000E286E262A03D0D890273665
:100368002836262EFBD7275007013E1328503F1367
:100378001200B8C5BCF5B9C5BDF5000E0701236F5D
:10038800000E226F17D0B6C593F5B7C594F5BC0E0D
:100398000501956F050E966FBAC597F5BBC598F51B
:1003A80000EC80F0050193510701222705019451C3
:1003B80007012323BCC5F6F4BDC5F7F4000EF86E9B
:1003C8000800F5500009D8A4DED7000E0501B76F64
:1003D800000EB66F120004D0084A092A0A4A0B2AEE
:1003E80008C5D9F409C5DAF4DF500C6E0AC5F6F46D
:1003F8000BC5F7F4000EF86E0800F5500C18D8A4D9
:1004080007D008C5D9F409C5DAF4DF50D8A4E4D771
:1004180008C5D9F409C5DAF4DF500C6E0AC5F6F43C
:100428000BC5F7F4000EF86E0800F5500C5C086E6A
:10043800096AD8A009061200000E106E08C511F549
:1004480009C512F50A5011240C6E0B5012200D6EBE
:100458001CD011C5D9F412C5DAF4DF50101A114AAC
:10046800122A000E0F6E000E0E6E10AE02D0890E0C
:10047800101AD89010360E4A0F2A0FBEF6D70F5012
:1004880004E1080E0E5CD8A0F0D70C50115C0D509A
:100498001258D8A0DED710501200516E0701FB5138
:1004A800D8B404D0AA0E5118D8A41200AA0E511814
:1004B800D8A403D0000EFB6F120051AC0CD0A40ED0
:1004C8000501BE6FF10EBF6F000EC16FA00EC06FA9
:1004D800C8EC08F0FF0051AE12000F0E0501BE6F08
:1004E800F20EBF6F000EC16FA00EC06FC8EC08F00F
:1004F800FFD70BBE07D00B500A1009101DE10804E6
:10050800D8B01AD008C50CF509C50DF50AC50EF501
:100518000BC50FF50C1E0D1E0E1E0F1E0C2A000E0D
:100528000D220E220F220CC508F50DC509F50EC5C2
:100538000AF50FC50BF5120008C508F509C509F538
:100548000AC50AF50BC50BF51200F729F811D8B43E
:100558001200F7511C6EF8511D6E1E6A1F6A1DC5E8
:100568001FF51CC51EF51D6A1C6A660E1C24146E38
:10057800000E1D20156E000E1E20166E000E1F2088
:10058800176E6C0E186E070E196E000E1B6E030E9A
:100598001A6E5EECFEF0000E0701F86FF7691200A4
:1005A800516E5150D8B40ED00601F151F211D8B4A1
:1005B80007D0520E0501BE6FF30EBF6FC8EC08F0EE
:1005C800020E12000701EB2914E1EC2912E1ED29D2
:1005D80010E1EE29D8A40DD00601F151F211D8B4DA
:1005E800EFD7670E0501BE6FF50EBF6FC8EC08F0B8
:1005F800E7D7000E1200000E106E000E116E000EEE
:10060800126E000E136E08A008D00C5010260D5064
:1006180011220E5012220F501322D8900C360D368C
:100628000E360F36D8900B320A320932083208508B
:1006380009100A100B10D8A4E6D710C508F511C583
:1006480009F512C50AF513C50BF51200186812C58D
:1006580008F513C509F5ADEC04F0000E176E000E91
:10066800166E10D012C508F513C509F5180E0A6ED6
:10067800050E0B6E000E0D6E010E0C6E58EC01F09F
:10068800164A172A1450165C15501758D8A0EAD7DE
:1006980012C508F513C509F503EC07F012000701A8
:1006A800F929FA11D8B41200F9511C6EFA511D6ECD
:1006B8001E6A1F6A1DC51FF51CC51EF51D6A1C6A2A
:1006C8001CC514F51DC515F51EC516F51FC517F56E
:1006D800000E186E0B0E196E010E1B6E000E1A6EB0
:1006E8005EECFEF0000E0701FA6FF9691200850E44
:1006F8000501BE6FE80EBF6FC8EC08F0A70EBE6F0D
:10070800F20EBF6FC8EC08F0110E0501D96F3C0E50
:10071800D86FCB0EE82EFED7D82FFCD7D92FFAD713
:100728008E0E0501BE6FF20EBF6FC8EC08F0850E85
:10073800BE6FE80EBF6FC8EC08F01200C20ED16F92
:10074800050ED26FBEC5C6F5BFC5C7F5000ECA6F88
:10075800000EC96F000ED06F000ECF6FC60EB66FB9
:10076800050EB76FC0C5B8F5C1C5B9F5D10EBA6FDA
:10077800050EBB6FBDEC01F0C951BE25D96ECA513B
:10078800BF21DA6E000EDF6E1200066ED69E0701DC
:1007980039511AE1500E385DD8B016D03851362587
:1007A800016E39513721026E000E046E500E036E31
:1007B8006EEC06F0B00E0124D96E0A0E0220DA6E35
:1007C80006C5DFF4384B392B395103E1400E385D4B
:1007D800D8B0A790D68E1200010E146E200E0E10FF
:1007E800106E000E0F10116E9F0E1024126EFF0E69
:1007F8001120136E135004E11A0E125CD8A00ED00B
:10080800D00E0E24106EFF0E0F20116E115004E151
:100818000A0E105CD8A002D0000E146E14C50EF596
:100828000F6A12000D6ED69E0701355104E1500E75
:10083800345DD8A004D0B7A2FED73CEC04F0345104
:100848003225086E35513321096E000E0B6E500E9D
:100858000A6E2CEC06F0600E0824D96E0A0E0920E8
:10086800DA6E0DC5DFF4344B352BA782D68E120015
:100878001DD0600E3225D96E0A0E3321DA6EDF5094
:100888000201C96F010E07013225086E000E3321DF
:10089800096E000E0B6E500E0A6E2CEC06F008C5A1
:1008A80032F709C533F73407D8A0350707013451A3
:1008B8003511D8B41200B7A21200DBD71DD0600ED4
:1008C8003225D96E0A0E3321DA6EDF500201C96F64
:1008D800010E07013225016E000E3321026E000E53
:1008E800046E500E036E6EEC06F001C532F702C5B9
:1008F80033F73407D8A03507070134513511D8B478
:100908001200B7A21200DBD7A4EC05F0000E00011C
:10091800D56F000ED66F000ED86F7F0ED96F7F0E81
:10092800DA6F7F0EDB6F010EDC6F000EDD6F000EDD
:10093800DE6F000EDF6F820ED76F8C0ED66F000E43
:10094800D46FAE9A9E9A010E0201056FC280C282D0
:10095800120008C50AF509C50BF520EE02F00A5089
:10096800D9260B50DA22DF50D8A410D0310E02015C
:10097800116F320E126F20EE03F00A50D9260B5079
:10098800DA22CBC4DFF4C892C890C88420EE02F003
:100998000A50D9260B50DA22DF2A120012D008C5D5
:1009A800D9F409C5DAF4DFC40AF5010EDE26DFC47E
:1009B8000BF5000EDD220AC5D9F40BC5DAF4000EDA
:1009C800DF6E08C5D9F409C5DAF4DEC40AF5DDC45A
:1009D8000BF50AC5D9F40BC5DAF4200EDE18D8A435
:1009E8001200DDD7286E756C6C29001A0000001AF9
:1009F8000000001A0000001A0000000000000000BB
:100A080000000000000000000000008000000080DE
:100A180000000080000000800000000000000000CE
:0B0A280000000000000000644000001F
:100A34001C501E6E1D501F6E206A216A1FC521F5B1
:100A44001EC520F51F6A1E6A080E1E24146E000EB1
:100A54001F20156E000E2020166E000E2120176E2A
:100A6400BB0E186EE40E196E000E1B6E060E1A6E87
:100A74005EECFEF01200000E251A000E261A000E7F
:100A8400271A800E281A21C508F522C509F523C5A1
:100A94000AF524C50BF525C50CF526C50DF527C5A6
:100AA4000EF528C50FF572ECBEF008C521F509C591
:100AB40022F50AC523F50BC524F5120008C5F6F482
:100AC40009C5F7F4000EF86E0800F5500A18D8A40A
:100AD40005D008C508F509C509F5120008C5F6F4DE
:100AE40009C5F7F4084A092A000EF86E0800F55003
:100AF4000009D8A4E3D7000E086E000E096E120098
:100B04003EECF6F056502A6E57502B6E2C6A2D6A26
:100B14002BC52DF52AC52CF52B6A2A6A2AC508F59A
:100B24002BC509F52CC50AF52DC50BF501D8120006
:100B34000500FA6ED051FD6ED151FE6ED251FF6E9A
:100B4400FA50120004011969C9680969C76829695A
:100B5400CB680181C6800183C682018BC68A118B52
:100B6400C88ABE88C698550E596FAA0E596F5991F6
:100B7400080E5D6F000E5E6F000E5F6F550E596FAD
:100B8400AA0E596F59811200CC0E0601CC6F180EB3
:100B9400CD6FB00ECE6FFF0ECF6F010ED06F73EC22
:100BA400F3F00009D8B40DD0DA0E0501BE6FF10ED2
:100BB400BF6FC8EC08F0FF0E0601D96FFE0ED86FA8
:100BC4001200000ED96F000ED86F12000AC511F57D
:100BD4000BC512F508C50FF509C510F510D011C5E0
:100BE400D9F412C5DAF4DF500E6E114A122A0FC579
:100BF400D9F410C5DAF40EC5DFF40F4A102A0C0636
:100C0400D8A00D060C28EBE10D28D8B41200E7D7C4
:100C140008C50AF509C50BF502D0084A092A08C512
:100C2400F6F409C5F7F4000EF86E250EF76403D048
:100C34000800F55005D0F6C4E9F4F7C4EAF4EF501F
:100C44000009D8A4EAD70A50085C086E0B5009586A
:100C5400096E12000A500B10D8B418D0010E0C6E95
:100C640004D0D8900A360B360C2A0BAEFAD70A50A9
:100C7400085C0B500958D8A004D00A50085E0B50E9
:100C8400095AD8900B320A320C2EF1D708C508F550
:100C940009C509F512001A0E0E24086E000E0F2065
:100CA400096E10C50AF511C50BF5B4EC08F00CC5B6
:100CB400D9F40DC5DAF4030EDE18D8A41200140E0C
:100CC4000E24086E000E0F20096E12C50AF513C516
:100CD4000BF5B4EC08F0120003500410D8B418D08B
:100CE400010E056E04D0D89003360436052A04AEEE
:100CF400FAD70350015C04500258D8A004D0035022
:100D0400015E0450025AD89004320332052EF1D702
:100D140001C501F502C502F512000701CD51CE113E
:100D2400CF11D8B40DD001D812000500FA6ECD5100
:100D3400FD6ECE51FE6ECF51FF6EFA50000E1200C2
:100D4400690E0501BE6FF30EBF6F580EC06FF40E2F
:100D5400C16FC8EC08F012000AC50CF50BC50DF5FF
:100D640008C50EF509C50FF50CC5F6F40DC5F7F465
:100D74000C4A0D2A000EF86E0EC5D9F40FC5DAF42C
:100D84000E4A0F2A0800F5C4DFF4DF50D8B412006D
:100D9400EBD720EE01F00850D9260950DA22DF50B3
:100DA4000A6E0A500D6E0E6A08C5D9F409C5DAF444
:100DB400DF500A6E0D500B6E0A500D6E0BC50EF50A
:100DC4000DC508F50EC509F51200000E1A6E000EC9
:100DD400196E0BD018C50BF50C6A16C50DF517C5A1
:100DE4000EF57FECFAF0194A1A2A19501424D96E18
:100DF4001A501520DA6EDF50186E1850D8B412004D
:100E0400E9D708C50AF509C50BF520EE02F00A502A
:100E1400D9260B50DA22DF06DF50D8A41200000EC8
:100E24000201116F000E126F20EE03F00A50D92652
:100E34000B50DA22DF50CB6E120008C50AF509C543
:100E44000BF520EE02F00A50D9260B50DA22000EE0
:100E5400DF6E000E0001846F000E856F100E02011C
:100E64006A6F120E6B6FC8980001848F120007011D
:100E7400CD51CE11CF11D8B40DD001D80BD005006F
:100E8400FA6ECD51FD6ECE51FE6ECF51FF6EFA500B
:100E9400010E120056C520F557C521F5B9ECFBF03B
:100EA400120007D008C5D9F409C5DAF4DE2A000E09
:100EB400DD2208C5D9F409C5DAF4DEC40AF5DDC4B7
:100EC4000BF50AC5D9F40BC5DAF4200EDE18D8A444
:100ED4001200E8D732C515F533C516F534C517F534
:100EE40035C518F536C519F537C51AF5000E1B6E4C
:100EF40043ECBBF015C532F516C533F517C534F50B
:100F040018C535F512002C0EBE6FEF0EBF6FD8C595
:100F1400C0F5D9C5C1F5DAC5C2F5DBC5C3F5DEC573
:100F2400C4F5DFC5C5F5DCC5C6F5DDC5C7F5C8EC38
:100F340008F06AEC0AF012001BBE05D01B5010E149
:100F44001A04D8B00DD01AC51CF51BC51DF51C1EFE
:100F54001D1E1C4A1D2A1CC51AF51DC51BF51200B1
:100F64001AC51AF51BC51BF51200010E0C6E200ED6
:100F740008180910D8B40ED0F70E08240A6EFF0E14
:100F840009200B6E0B5004E1050E0A5CD8A002D0B8
:100F9400000E0C6E0CC508F5096A12001B6E00C722
:100FA4001CF501C71DF51CC516F51DC517F56EEC1E
:100FB40009F01E6E1B501E18D8A407D01906D8A01D
:100FC4001A0619501A10D8A4EED71E501200200E7B
:100FD40008100A6E000E09100B6E9F0E0A240C6E88
:100FE400FF0E0B200D6E0D5006E11A0E0C5CD8B0EE
:0E0FF40002D0010E01D0000E086E096A120034
:10100400B7A00ED0C7C207F50750D8B404D0075014
:10101400C9EC03F005D0000E0601F46F010EF36F66
:1010240062EC04F034513511D8A41100A7921100D8
:10103400E3C5D8F5E4C5D9F5E50EDA6F050EDB6F27
:101044009FECF6F0E76FE751D8A41200E3C5D9F49A
:10105400E4C5DAF4000EDE6E000EDD6E1200D85127
:101064000701465D4751800A516E0501D951800A36
:101074005158D8B012002D0EBE6FE90EBF6FD8C5FF
:10108400C0F5D9C5C1F5C8EC08F012000850091024
:101094000A100B10D8B408D0000E081A000E091A52
:1010A400000E0A1A800E0B1A08C508F509C509F5C1
:1010B4000AC50AF50BC50BF5120008500910D8B47F
:1010C4000BD0000EC76E000EC96EBE82BE8AC08AE7
:1010D400C692C69AC89A1200C768C968CB68C68205
:1010E400C68AC88A12009F0E0C240E6EFF0E0D20B5
:1010F4000F6E0F5009E11A0E0E5CD8B005D05F0ECA
:101104000C140C6E0D6A12000CC50CF50DC50DF512
:10111400120000C719F501C71AF519C50CF51AC54F
:101124000DF590EC09F019C512F51AC513F5000E6A
:10113400156E010E146E2AEC03F012000CC508F5AE
:101144000DC509F50EC50AF50FC50BF501D812003A
:101154000500FA6ED051FD6ED151FE6ED251FF6E74
:10116400FA50120008C5D9F409C5DAF40AC5DFF447
:10117400084A092A0BC50AF50B6A08C5D9F409C53A
:10118400DAF40AC5DFF4084A092A1200C00E050180
:10119400D66F050ED76F000EB66F000EB76FBEC5C3
:1011A400B8F5BFC5B9F5D60EBA6F050EBB6FBDEC69
:1011B40001F0120026500701F91904E12750FA1929
:1011C400D8B406D026C520F527C521F5B9ECFBF027
:1011D400000E456F010E446F12000CD0050E096E0F
:1011E4000F0E086EF10EE82EFED7082EFCD7092E3E
:1011F400FAD700F0070134513511D8B41200EED7F4
:1012040008500A02F3C40CF5F4C40DF508500B029F
:10121400F3500D2609500A02F3500D260CC508F5AB
:101224000DC509F512000701CD51CE11CF11D8B467
:1012340009D056C51CF557C51DF51AEC05F0CF0E9F
:1012440052EC0AF08FEC06F012009F0E08240A6E8E
:10125400FF0E09200B6E0B5006E11A0E0A5CD8B083
:1012640002D0010E01D0000E086E096A1200BF0EF2
:1012740008240A6EFF0E09200B6E0B5006E11A0EAD
:101284000A5CD8B002D0010E01D0000E086E096AC3
:101294001200D00E08240A6EFF0E09200B6E0B50AC
:1012A40006E10A0E0A5CD8B002D0010E01D0000E8D
:1012B400086E096A12000AC508F50BC509F501D8BC
:1012C40012000500FA6E0801C351FD6EC451FE6E92
:1012D400C551FF6EFA501200186816C508F517C5F7
:1012E40009F5180E0A6E050E0B6E000E0D6E010E3A
:1012F4000C6ECBECC7F0185012000CC508F50DC5E8
:1013040009F5ADEC04F00CC508F50DC509F5000EA2
:101314000B6E010E0A6E1BEC0AF012000CC508F5E8
:101324000DC509F5000E0B6E000E0A6E1BEC0AF0DB
:101334000CC508F50DC509F503EC07F0120064ECC3
:10134400FDF001D812000500FA6E0801C051FD6ECF
:10135400C151FE6EC251FF6EFA50120001D8120044
:101364000500FA6E0701E551FD6EE651FE6EE75188
:10137400FF6EFA501200F1C60AF5F2C60BF508C565
:10138400F1F609C5F2F60AC508F50BC509F5120010
:1013940054C50AF555C50BF508C554F509C555F5E9
:1013A4000AC508F50BC509F51200E0EC09F00AC5F9
:1013B40008F50BC509F5FFECFFF0120001D04C074E
:1013C40007014C51800A7F0FD8A01200F8D7000EF5
:1013D400086E000E096EF00E0A6EFF0E0B6E120000
:1013E400000E086E000E096E210E0A6E000E0B6EC2
:1013F4001200160E07011D6F030E1E6F000E1F6FE5
:101404001200086E0804D8A412000001D785D795ED
:101414001200AEBA12000601F351F411D8A412005E
:10142400F8D70A6EEFEC08F0B7A2FED70AC5C9F2E6
:1014340012000A500B10D8A402D0C0881200C09821
:101444001200FF00000E0601BD6F000EBC6F1200FB
:10145400086E08A002D0C2821200C2921200086E66
:1014640008A002D0C2841200C2941200086E08A020
:1014740002D0BE881200BE981200086E08A002D0E6
:10148400C2801200C2901200000E07013B6F0A0EC8
:101494003A6F1200000E0601BD6F010EBC6F120000
:1014A400086E08C5F1F70701F26B1200CEBA02D03C
:1014B400D8901200D8801200CEB002D0D89012007A
:1014C400D8801200AEBA02D0D8901200D880120090
:1014D400FF0E0B6E0A68D7EC09F012003AC708F544
:1014E4003BC709F512003A0E086EF80E096E120099
:1014F400086E08C5C3F41200086E08C5CBF41200C8
:10150400086809681200D3501200CF501200AE9A36
:081514001200FB51120012004D
:10DF7C0000B3F866070024F6670700E3F5680700AE
:10DF8C001BF569070034F66A0701ABF65A0800085E
:10DF9C00F55B08006DF45C0800D9F35D080029F707
:10DFAC005E08009DF55F08002EF560080043F461E3
:10DFBC0008008BF5620802819FE0FC407E80FC002B
:10DFCC0000A00010000000E1FF0201CEF700025B90
:10DFDC00FB000322FD00049EFE000598FE0106F5E1
:10DFEC00F8000783FF000858F90009E4F9000A62F9
:10DFFC00F9000B1BFD000CBCFE000DB6FE010E5211
:10E00C00FA000F88FF011063FC0211E6F70012BC46
:10E01C00F90013A0FD0014E0FE0015DAFE01160055
:10E02C00F90017CDFF01185EFF001902FA001A6CF7
:10E03C00F9001B99FD001CFEFE001DF8FE011E5C84
:10E04C00FA001FD1FF0120F7FA0221FEF702221B72
:10E05C00F7002325FE00241CFF002516FF01260BCC
:10E06C00F90027C9FF01285BFC00293EFA022AB9F6
:10E07C00F6002B1EFE002C3AFF002D34FF012E66FD
:10E08C00FA002FDDFF0130EEFA023116F802325D94
:10E09C00F7003341FE0034AFFA0035A6FA0136D54D
:10E0AC00F60037D9FF013853FC003948FA023A50D0
:10E0BC00F7003B3AFE003C80FE003D7AFE013EEA52
:10E0CC00F8003FD5FF0040C0FC0041F1FC00423E8F
:10E0DC00FD00436FFD0044C3FD0045F4FD00468088
:10E0EC00F900478FFC0048C7FC0049F8FC004A4582
:10E0FC00FD004B76FD004CCAFD004DFBFD004E8A29
:10E10C00F9004F96FC0050CEFC0051FFFC00524C25
:10E11C00FD00537DFD0054D1FD005502FE005694C8
:10E12C00F900579DFC0058D5FC005906FD005A53C8
:10E13C00FD005B84FD005CD8FD005D09FE005E9E69
:10E14C00F9005FA4FC0060DCFC00610DFD00625A6C
:10E15C00FD00638BFD0064DFFD006510FE0066A80A
:10E16C00F90067ABFC0068E3FC006914FD006A6110
:10E17C00FD006B92FD006CE6FD006D17FE006EB2AB
:10E18C00F9006FB2FC0070D0F90071DAF90072EE90
:10E19C00F90073F8F900740CFA007534FA0076ABD8
:10E1AC00FF0077C6F90078B9FC0079EAFC007A37F1
:10E1BC00FD007B68FD007CBCFD007DEDFD007E76E6
:10E1CC00F9007F88FC008073FB00818BFB0082AB25
:10E1DC00FB0083C3FB0084EBFB008543FC0086DF64
:10E1EC00F8008753FB00886BFB008983FB008AA334
:10E1FC00FB008BBBFB008CE3FB008D3BFC008ED447
:10E20C00F8008F4BFB009092FE0091B0FE0092D470
:10E21C00FE0093F2FE009410FF00952EFF00969DD9
:10E22C00FA009774FE009863FB00997BFB009A9BA5
:10E23C00FB009BB3FB009CDBFB009D33FC009EC9E9
:10E24C00F8009F43FB00A0A4FE00A1C2FE00A2E6C2
:10E25C00FE00A304FF00A422FF00A540FF00A6B807
:10E26C00FA00A786FE00A8AAFE00A9C8FE00AAEC28
:10E27C00FE00AB0AFF00AC28FF00AD46FF00AEC1AC
:10E28C00FA00AF8CFE00B0ABFE00B1C9FE00B2EDDF
:10E29C00FE00B30BFF00B429FF00B547FF00B6C268
:10E2AC00FA00B78DFE00B88DFF00B992FF00BA9747
:10E2BC00FF00BB9CFF00BCA1FF00BDA6FF00BE334E
:10E2CC00FB00BF7EFF00C048FE00C129FD02C22238
:10E2DC00F802C3D3FA02C40DF700C593FB01C6C202
:10E2EC00F700C7F3FB00C858FF00C9E5FF02CA429C
:10E2FC00F900CB000002CC91F702CD16F901CEB695
:10E30C00F700CF13FC00D030FD00D1A7FD02D2DA0C
:10E31C00F701D3C7F602D4E3F600D5CBFB01D61632
:10E32C00FA00D7FBFB00D8CEFE00D9E9FF02DA21B8
:10E33C00F901DB43F702DC84F700DD000001DEAA03
:10E34C00F700DF1BFC00E033FE00E12CFE02E20ACA
:10E35C00F800E34DF902E4FFF600E54BFC01E62082
:10E36C00FA00E703FC00E8AEFD00E93BFB02EAF231
:10E37C00F700EBDCFA02ECF1F600ED000001EE2AFE
:10E38C00FA00EF23FC00F052FF00F1B5FD02F2376A
:10E39C00F900F3F8FF02F477F700F5D3FB01F62B45
:10E3AC00FA00F70BFC00F84CFF00F9E5FA02FA2C26
:10E3BC00F900FBFBFF02FC6AF700FD000001FECA3E
:10E3CC00FA00FF2BFCF0000000C3960043502F4DC9
:10E3DC0020626F6F742D6C6F6164657220666F7252
:10E3EC00205A38302D53696D756C61746F720D0A3B
:10E3FC000000000000000000000000000000000011
:10E40C000000000000000000000000000000000000
:10E41C0000000000000000000000000000000000F0
:10E42C0000000000000000000000000000000000E0
:10E43C0000000000000000000000000000000000D0
:10E44C00000000000000000000424F4F543A2065CD
:10E45C0072726F7220626F6F74696E670D0A0021A1
:10E46C0003007ED30123B7C29900ED46FB010100E6
:10E47C00210000AFD30A78D30B79D30C7DD30F7C5A
:10E48C00D310AFD30DDB0EB7CA0000C630D3013E9C
:10E49C000DD3013E0AD3012180007EB7CADC00D324
:10E4AC000123C3D100F376D3AC182731000000D37D
:10E4BC00AB00C30E00ED73B00031AC00F5AF32B45D
:10E4CC0000C5D5E5DDE5FDE5ED7BB000E122AE0054
:10E4DC0018D53AB400219B00B72803219D004E2388
:10E4EC0046ED4399002AB2007DB7B4282F110000E5
:10E4FC00060E1A77231310FA2AB2001104001922FF
:10E50C00AC001818000000000000000000D3AB00A5
:10E51C00ED73B00031AC00F53E0118A2DD2AB2005B
:10E52C003EAADD77092AB000DD7505DD74063A9F39
:10E53C0000DD770B31A000FDE1DDE1E1D1C1F1FBA4
:10E54C00ED45ED4DED45C900000000000000000058
:10E55C000000000400000000000000000094FA001D
:10E56C0098140000001DF008EF9EF702209A01009D
:10E57C000014F68EECF5FF02209A0100000000005A
:10E58C00008BFA04B85D010000C5EA29EE79FF02A0
:10E59C00B6A301000014F6DAEF6EFE00461400007C
:10E5AC000041F500007AFC0224B901000063F60278
:10E5BC00EE70FE026E32010100F5F4E5EC81FC0018
:10E5CC00F28A0100001DF018F13BF5020AD101029C
:10E5DC000036F73AED74FF00A2B70100002EF400EC
:10E5EC0000D3AD180500000000002A0400ED5B0606
:10E5FC00003A0800477E12231310FA3E0018E23E40
:10E60C0000D3AD7618F9C9696F5F737461742829EA
:10E61C00203D3D20494F5F535441545F4E4F545F52
:10E62C0053544152544544207C7C20696F5F737471
:10E63C0061742829203D3D20494F5F535441545F5C
:10E64C0053544F50504544207C7C20696F5F737449
:10E65C0061742829203D3D20494F5F535441545F3C
:10E66C00494E544552525550544544207C7C2069A7
:10E67C006F5F737461742829203D3D20494F5F53AF
:10E68C005441545F50524550494E564F4B45207C97
:10E69C007C20696F5F737461742829203D3D20498B
:10E6AC004F5F535441545F4D4F4E49544F52006984
:10E6BC006F5F737461742829203D3D20494F5F536F
:10E6CC005441545F4E4F545F53544152544544206F
:10E6DC007C7C20696F5F737461742829203D3D2018
:10E6EC00494F5F535441545F53544F50504544204D
:10E6FC007C7C20696F5F737461742829203D3D20F8
:10E70C00494F5F535441545F4D4F4E49544F520043
:10E71C004449534B3A204F503D2530327820442FFA
:10E72C00542F533D25642F2533642F25336420202B
:10E73C0020202020202020202020414444523D2510
:10E74C0030317825303278253032782028524420E8
:10E75C0049474E4F524544290A0D004449534B3A00
:10E76C00204F503D2530327820442F542F533D25D7
:10E77C00642F2533642F2533642020202020202073
:10E78C002020202020414444523D25303178253032
:10E79C00327825303278202857522049474E4F5234
:10E7AC004544290A0D0025733A204552524F523ADE
:10E7BC0020492F4F20253573202533642C202533F9
:10E7CC0064202825303258482C20253032584829CE
:10E7DC00207768696C652077616974696E6720665B
:10E7EC006F7220256420282530325848290A0D00E4
:10E7FC004449534B3A204F503D2530327820442F1A
:10E80C00542F533D25642F2533642F2533642078F2
:10E81C002533643D25356C6420414444523D2530FC
:10E82C0031782530327825303278202E2E2E205318
:10E83C00543D253032780A0D004449534B3A204F51
:10E84C00503D2530327820442F542F533D25642FD2
:10E85C002533642F253364202020202020202020E5
:10E86C00202020414444523D2530317825303278E7
:10E87C0025303278202E2E2E200A0D002F55736550
:10E88C0072732F74616B656D7572612F776F726B1C
:10E89C0073706163652F6769746875622F53757047
:10E8AC0065724D455A38302F7372632F6D656D6FDD
:10E8BC0072792E6300534420436172643A2072656E
:10E8CC0061643531323A20435243206572726F7263
:10E8DC0020282530347820213D20253034782C20F8
:10E8EC0072657472793D2564290A0D002F55736584
:10E8FC0072732F74616B656D7572612F776F726BAC
:10E90C0073706163652F6769746875622F537570D6
:10E91C0065724D455A38302F7372632F696F2E63B1
:10E92C00005741524E494E473A20746F6F206D612B
:10E93C006E792062616E6B7320726571756573748C
:10E94C0065642E2028726571756573742069732057
:10E95C002564290A0D0074797065202768656C7030
:10E96C002720746F2073656520746865206C69734B
:10E97C0074206F6620617661696C61626C652063DE
:10E98C006F6D6D616E64730A0D00496D6167652072
:10E99C0066696C652025732F445249564525632EB4
:10E9AC0044534B2069732061737369676E656420EF
:10E9BC00746F2064726976652025630A0D005741D7
:10E9CC00524E494E473A20756E6B6E6F776E2049EA
:10E9DC002F4F2077726974652025642C20256420C4
:10E9EC002825303258482C202530325848290A0D19
:10E9FC00006469736B5F696F63746C3A2070647246
:10EA0C00763D25642C20636D643D25642C20627555
:10EA1C0066663D3078256C783A207265733D2564C6
:10EA2C000A0D00534420436172643A2020726561E0
:10EA3C00643531323A20616464723D25386C642C43
:10EA4C00206F6666733D25642C20636F756E743D74
:10EA5C0025640A0D00534420436172643A20777296
:10EA6C006974653531323A20616464723D25386CC5
:10EA7C00642C206F6666733D25642C20636F756E65
:10EA8C00743D25640A0D00534420436172643A209E
:10EA9C0077726974653531323A206661696C6564E8
:10EAAC0020746F2067657420746F6B656E2C2074F6
:10EABC00696D656F75740A0D005B64726976655DCE
:10EACC005B2C747261636B5D5B2C736563746F722A
:10EADC005D5B2C6C656E6774685D206F72205B6487
:10EAEC00726976652C5D4C4241004449534B3A2087
:10EAFC00207265616420442F542F533D25642F25CB
:10EB0C0033642F25336420782533643D25356C64BC
:10EB1C003A204552524F520A0D0053442043617221
:10EB2C00643A2077726974653531323A2074696DB4
:10EB3C00656F75742C20726573706F6E73652069C8
:10EB4C007320253032780A0D0053442043617264DF
:10EB5C003A20434D4435382C2052333D2530327801
:10EB6C00202530327820253032782025303278201C
:10EB7C00253032780A0D0025733A204552524F52F7
:10EB8C003A20636C6F636B20737065656420256439
:10EB9C00206973206E6F7420737570706F7274655A
:10EBAC00640A0D00534420436172643A20434D447F
:10EBBC00382C2052373D25303278202530327820C1
:10EBCC0025303278202530327820253032780A0DE5
:10EBDC00004449534B3A20207265616420442F5401
:10EBEC002F533D25642F2533642F2533642078253E
:10EBFC0033643D25356C643A204F4B0A0D00646933
:10EC0C00736B5F696F63746C3A20706472763D2528
:10EC1C00642C20636D643D25643A204E6F7420682B
:10EC2C00616E646C65642E0A0D006469736B5F72AF
:10EC3C006561643A2020706472763D25642C2073E3
:10EC4C006563746F723D256C642C20636F756E74F4
:10EC5C003D25640A0D006469736B5F777269746596
:10EC6C003A20706472763D25642C20736563746F52
:10EC7C00723D256C642C20636F756E743D25640A9F
:10EC8C000D005472616E736C617465206D61636804
:10EC9C00696E6520636F6465206F6E2074686520F3
:10ECAC00746172676574206D656D6F727900534481
:10ECBC0020436172643A20434353202843617264B9
:10ECCC002043617061636974792053746174757346
:10ECDC002920697320300A0D00446973706C6179C6
:10ECEC00206F72206368616E67652073706563695D
:10ECFC006669656420646562756720766172696116
:10ED0C00626C6500534420436172643A20777269E7
:10ED1C0074653531323A20435243206572726F72FA
:10ED2C00202872657472793D2564290A0D0057728A
:10ED3C006974652062797465206F722073747269CE
:10ED4C006E6720746F2074686520746172676574D7
:10ED5C00206D656D6F727900534420436172643A83
:10ED6C00204361726420706F776572207570207318
:10ED7C0074617475732062697320697320300A0D95
:10ED8C000072656164204D42522070617274697426
:10ED9C00696F6E207461626C6520617420736563A9
:10EDAC00746F7220300A0D005741524E494E473A4B
:10EDBC0020756E6B6E6F776E20492F4F20726561D8
:10EDCC006420256420282530325848290A0D005328
:10EDDC004420436172643A2020726561643531329B
:10EDEC003A20736563746F723D256C643A2045520A
:10EDFC00524F520A0D00446973706C617920646142
:10EE0C00746120626C6F636B2873292066726F6D5E
:10EE1C002074686520534420436172640044697314
:10EE2C00706C617920736563746F72287329206626
:10EE3C00726F6D206469736B20696D616765206604
:10EE4C00696C6500534420436172643A2053444812
:10EE5C0043206F72205344584320636172642064D2
:10EE6C00657465637465640A0D0025733A20455218
:10EE7C00524F523A206D6F646520256420697320CF
:10EE8C006E6F7420737570706F727465640A0D0008
:10EE9C00534420436172643A20696E697469616CF1
:10EEAC00697A65202E2E2E20737563636565646503
:10EEBC00640A0D00534420436172643A20756E65F8
:10EECC007870656374656420726573706F6E7365BA
:10EEDC0020253032780A0D00534420436172643A85
:10EEEC002020726561643531323A20736563746F2A
:10EEFC00723D256C643A204F4B0A0D0045786974BD
:10EF0C00206D6F6E69746F7220616E6420636F6E1A
:10EF1C0074696E756520657865637574696F6E00CC
:10EF2C00417373657274696F6E206661696C656498
:10EF3C003A202573202825733A2025733A2025641E
:10EF4C00290A00534420436172643A2041434D44E2
:10EF5C00343120726573706F6E7365206973202570
:10EF6C003032780A0D00534420436172643A2077A2
:10EF7C00726974653531323A20746F6B656E206935
:10EF8C007320253032780A0D004552524F523A20E8
:10EF9C0062616E6B202564206973206E6F74206132
:10EFAC007661696C61626C652E0A0D0053442043D6
:10EFBC006172643A20434D44353920726573706F29
:10EFCC006E736520697320253032780A0D00446910
:10EFDC0073706C61792064617461206F6E20746849
:10EFEC006520746172676574206D656D6F72790050
:10EFFC004D656D6F727920303030303030202D20DF
:10F00C002530366C5848202564204B42204F4B0D40
:10F01C000A00706172746974696F6E207374617226
:10F02C00747320617420736563746F7220256C6433
:10F03C000A0D005573652052413320657874657252
:10F04C006E616C20636C6F636B20666F72205A3834
:10F05C00300A0D00557365204E434F20252E326625
:10F06C00204D487A20666F72205A383020636C6FBE
:10F07C00636B0A0D00665F777269746528293A2004
:10F08C004552524F52207265733D25642C206E3DC3
:10F09C0025640A0D00665F7265616428293A204573
:10F0AC0052524F52207265733D25642C206E3D25C3
:10F0BC00640A0D00696F5F696E766F6B655F7461D2
:10F0CC00726765745F6370755F74656172646F7786
:10F0DC006E006661696C656420746F207772697468
:10F0EC006520736563746F7220256C640A0D00696A
:10F0FC006F5F696E766F6B655F7461726765745F65
:10F10C006370755F707265706172650044697370CD
:10F11C006C617920737461747573206F66207468E8
:10F12C006520746172676574006661696C65642042
:10F13C00746F207265616420736563746F7220252F
:10F14C006C640A0D000A0D534420436172643A202A
:10F15C00696E697469616C697A65202E2E2E0A0DB0
:10F16C0000436C65617220627265616B706F696ED1
:10F17C0074206174202530346C580A0D00534420DF
:10F18C00436172643A2041434D4434312C20523156
:10F19C003D253032780A0D000A0D526573657420D6
:10F1AC00627920494F20706F727420253032584894
:10F1BC000A0D004661696C656420746F206F706580
:10F1CC006E20534420436172642E2E0A0D0046615A
:10F1DC00696C656420746F206D6F756E7420534478
:10F1EC0020436172642E0A0D006661696C656420AF
:10F1FC00746F207265616420736563746F72203064
:10F20C000A0D000A0D48414C5420627920494F20C8
:10F21C00706F72742025303258480A0D0053657493
:10F22C0020627265616B706F696E74206174202549
:10F23C0030346C580A0D006469736B5F696E6974C5
:10F24C0069616C697A65282564292E2E2E0A0D00B9
:10F25C00534420436172643A206E6F74207375704E
:10F26C006F70727465640A0D0053442043617264BC
:10F27C003A20434D44302C2052313D253032780A0F
:10F28C000D002020202020202020202020202020A5
:10F29C002020202020202020200D00776169742060
:10F2AC00666F722070726F6772616D6D6572202E61
:10F2BC002E2E0D00496E76616C6964206172677543
:10F2CC006D656E743A20272573270A0D005354413F
:10F2DC005455533A202563256325632563256325FF
:10F2EC006325632563002573253533732043484517
:10F2FC00434B53554D3A20253032780A0D00556E4C
:10F30C006B6E6F776E207661726961626C65202717
:10F31C002573270A0D00427265616B706F696E74FC
:10F32C00206973206E6F74207365740A0D004D652F
:10F33C006D6F727920303030303030202D202530F8
:10F34C00366C58480D00706879736963616C206481
:10F35C00726976657220213D20300A0D0025733AC2
:10F36C00206E6F20696E746572727570742070698E
:10F37C006E0A0D00416D626967756F757320636F5E
:10F38C006D6D616E642025730A0D00665F6C73658C
:10F39C00656B28293A204552524F522025640A0D9C
:10F3AC0000427265616B706F696E74206973202501
:10F3BC0030346C580A0D00556E6B6E6F776E20638F
:10F3CC006F6D6D616E643A2025730A0D0064656281
:10F3DC0075675F6661746469736B5F766572626F83
:10F3EC007365006E6F204641543332207061727425
:10F3FC006974696F6E0A0D00665F73796E632829F4
:10F40C003A204552524F522025640A0D00696F5F15
:10F41C00696E766F6B655F7461726765745F63703C
:10F42C007500446973706C61792074686973206D20
:10F43C006573736167650064656275675F736463A8
:10F44C006172645F766572626F7365006D6F6E5F7B
:10F45C006173736572745F696E74657272757074C2
:10F46C000064656275675F6661746469736B5F776E
:10F47C00726974650073697A656F66287061726170
:10F48C006D7329203D3D2035004D3A204D6F6E693E
:10F49C00746F722070726F6D70740A0D006E6F2035
:10F4AC004D4252207369676E61747572650A0D0066
:10F4BC00534420436172643A2074696D656F7574AE
:10F4CC000A0D00696E76616C6964206472697665F8
:10F4DC002025640A0D007772697465205B61646491
:10F4EC00725D2C76616C0A0D005B766172696162EB
:10F4FC006C655D5B3D76616C75655D006465627520
:10F50C00675F6661746469736B5F726561640064E4
:10F51C00656275675F6469736B5F766572626F7342
:10F52C00650064656275675F7364636172645F77BD
:10F53C0072697465005265737461727420746865C5
:10F54C002073797374656D005F5F6D656D637079A1
:10F55C005F6F6E5F746172676574006E6F207661A9
:10F56C006C696420766F6C756D650A0D00534420D0
:10F57C00436172643A2072656164792E0A0D007AD7
:10F58C0038305F636C6F636B5F4E434F31494E4352
:10F59C000064656275675F7364636172645F726552
:10F5AC0061640025732069732073656C65637465F1
:10F5BC00642E0A0D005350495F53445F636F6E66AF
:10F5CC006967757265004D4D553A2062616E6B200E
:10F5DC002530325820200064656275675F6469735A
:10F5EC006B5F77726974650025733D256C64202808
:10F5FC00256C5868290A0D00427265616B20617494
:10F60C0020253034580A0D005B616464725D5B2CFC
:10F61C006C656E6774685D0064656275675F6469CC
:10F62C00736B5F726561640064656275675F6469C2
:10F63C00736B5F6D61736B004E6F20626F6F742024
:10F64C006469736B2E0A0D002A2B2C3A3B3C3D3E11
:10F65C005B5D7C223F7F005B4C42415D5B2C6C65AB
:10F66C006E6774685D0025732F44524956452563B7
:10F67C002E44534B004E6F20534420436172643F21
:10F68C000A0D00696F5F776169745F7772697465E1
:10F69C000025733D25642028255868290A0D00642F
:10F6AC00656275675F6661746469736B004C4420B6
:10F6BC00484C2C28253034584829004F55542028C4
:10F6CC002530325848292C41004C442028484C29DC
:10F6DC002C25303258480043414C4C204E432C25AD
:10F6EC00303458480043414C4C2050452C25303484
:10F6FC0058480043414C4C20504F2C25303458482E
:10F70C000043414C4C204E5A2C2530345848004C68
:10F71C004420282530345848292C484C0064656214
:10F72C0075675F736463617264005B616464725DCE
:10F73C002C76616C756500494E20412C28253032A1
:10F74C00584829004C4420412C282530345848294D
:10F75C00004C4420282530345848292C4100434182
:10F76C004C4C204D2C25303458480043414C4C20F7
:10F77C00502C25303458480043414C4C20582C25F3
:10F78C00303458480043414C4C205A2C25303458C6
:10F79C004800646973617373656D626C65005342F4
:10F7AC004320412C25303258480041444320412C01
:10F7BC0025303258480041444420412C25303258E1
:10F7CC0048004C442042432C2530345848004A50C1
:10F7DC00204E432C2530345848004C442044452CB2
:10F7EC002530345848004A502050452C2530345888
:10F7FC0048004C4420484C2C2530345848004A5082
:10F80C0020504F2C2530345848004C442053502C59
:10F81C002530345848004A50204E5A2C2530345844
:10F82C004800426F6172643A2025730A0D00454D01
:10F83C00555A38302D3537510070726F6772616DC3
:10F84C003A0A0D0049593A20253034580A0D000A5D
:10F85C000D2020202025730A0D0042433A2025302C
:10F86C00345820200050433A2025303458202000B2
:10F87C0044453A202530345820200041463A202572
:10F88C00303458202000484C3A2025303458202061
:10F89C000053503A202530345820200049583A2043
:10F8AC002530345820200064656275675F64697385
:10F8BC006B006C656E203C3D203235360053424364
:10F8CC0020412C28484C290041444320412C2848F5
:10F8DC004C290041444420412C28484C29004C44DC
:10F8EC0020412C2530325848004C4420422C2530E5
:10F8FC00325848004C4420442C2530325848004C97
:10F90C004420482C25303258480043414C4C20258B
:10F91C0030345848004A5020432C25303458480085
:10F92C004A50204D2C2530345848004A5020502C39
:10F93C002530345848004A50205A2C253034584829
:10F94C0000455820285350292C484C00455820413C
:10F95C00462C414627004C4420412C284243290088
:10F96C004C4420412C28444529004C4420412C284F
:10F97C00484C29004C4420422C28484C29004C442B
:10F98C0020432C28484C29004C4420442C28484C1B
:10F99C0029004C4420452C28484C29004C44204834
:10F9AC002C28484C29004C44204C2C28484C29002D
:10F9BC004C4420284445292C41004C442028484CD8
:10F9CC00292C41004C442028484C292C42004C4402
:10F9DC002028484C292C430041444420484C2C42BC
:10F9EC0043004C442028484C292C44004C442028EB
:10F9FC00484C292C450041444420484C2C4445009B
:10FA0C004C442028484C292C480053554220253082
:10FA1C0032584800414E4420253032584800584F47
:10FA2C0052202530325848004C442028484C292C70
:10FA3C004C0041444420484C2C484C004144442048
:10FA4C00484C2C5350004C4420432C253032580049
:10FA5C004C4420452C25303258004C44204C2C254D
:10FA6C003032580025732530366C783A00464154B4
:10FA7C00333220202000737461636B3A0A0D0064EA
:10FA8C0069736B7265616400636F6E74696E756522
:10FA9C00005355422028484C29004445432028480F
:10FAAC004C2900494E432028484C2900414E442003
:10FABC0028484C2900584F522028484C29004350C4
:10FACC00202530325848004A502025303458480000
:10FADC0045582044452C484C004C442053502C484D
:10FAEC004C004A52204E432C2564004A52204E5A58
:10FAFC002C25640025643A2025730A0D0053656C8F
:10FB0C006563743A200043504D4449534B530025D0
:10FB1C0073253034783A004572726F720A0D000DFD
:10FB2C00257325730A0D0043502028484C29004AA0
:10FB3C00502028484C290053424320412C4100417D
:10FB4C00444320412C410041444420412C41004C71
:10FB5C00442042432C410053424320412C4200415B
:10FB6C00444320412C420041444420412C42005348
:10FB7C00424320412C430041444320412C4300414B
:10FB8C00444420412C4300505553482042430053D9
:10FB9C00424320412C440041444320412C44004129
:10FBAC00444420412C440053424320412C45004105
:10FBBC00444320412C450041444420412C450050F5
:10FBCC005553482044450050555348204146005356
:10FBDC00424320412C480041444320412C480041E1
:10FBEC00444420412C480052535420303048005299
:10FBFC005354203130480052535420323048005274
:10FC0C00535420333048005253542030384800525B
:10FC1C005354203138480052535420323848005243
:10FC2C005354203338480053424320412C4C00415C
:10FC3C00444320412C4C0041444420412C4C005066
:10FC4C0055534820484C004A5220432C2564004A06
:10FC5C0052205A2C256400444A4E5A2C25640043E9
:10FC6C00504D4449537E003C25643E0A0D0073649C
:10FC7C007265616400737461747573004C44204147
:10FC8C002C41004C4420422C41004C4420432C413C
:10FC9C00004C4420442C41004C4420452C41004C49
:10FCAC004420482C41004C44204C2C41004C442016
:10FCBC00412C42004C4420422C42004C4420432C0A
:10FCCC0042004C4420442C42004C4420452C420021
:10FCDC004C4420482C42004C44204C2C42004C44B8
:10FCEC0020412C43004C4420422C43004C442043E4
:10FCFC002C43004C4420442C43004C4420452C43C2
:10FD0C00004C4420482C43004C44204C2C430044D1
:10FD1C00454320424300494E4320424300504F503C
:10FD2C0020424300524554204E43004C4420412C69
:10FD3C0044004C4420422C44004C4420432C4400AE
:10FD4C004C4420442C44004C4420452C44004C444E
:10FD5C0020482C44004C44204C2C44004C44204162
:10FD6C002C45004C4420422C45004C4420432C454F
:10FD7C00004C4420442C45004C4420452C45004C60
:10FD8C004420482C45004C44204C2C450044454311
:10FD9C0020444500494E4320444500504F502044D8
:10FDAC00450052455420504500504F5020414600CC
:10FDBC004C4420412C48004C4420422C48004C44DC
:10FDCC0020432C48004C4420442C48004C442045F3
:10FDDC002C48004C4420482C48004C44204C2C48C7
:10FDEC00004C4420412C4C004C4420422C4C004CE8
:10FDFC004420432C4C004C4420442C4C004C4420BC
:10FE0C00452C4C004C4420482C4C004C44204C2C91
:10FE1C004C0044454320484C00494E4320484C007C
:10FE2C00504F5020484C0052455420504F004445F0
:10FE3C004320535000494E43205350005245542008
:10FE4C004E5A002530366C58200020253032780070
:10FE5C006661743A20006275663A20000D257320A5
:10FE6C000D00726573657400535542204100444582
:10FE7C0043204100494E43204100414E4420410063
:10FE8C00584F5220410053554220420044454320D4
:10FE9C004200494E43204200414E44204200584FFC
:10FEAC005220420053554220430044454320430016
:10FEBC00494E43204300414E44204300584F5220AA
:10FECC0043005245542043005355422044004445BE
:10FEDC0043204400494E43204400414E44204400FA
:10FEEC00584F52204400535542204500444543206E
:10FEFC004500494E43204500414E44204500584F93
:10FF0C0052204500535542204800444543204800A8
:10FF1C00494E43204800414E44204800584F52203F
:10FF2C004800535542204C00444543204C00494E58
:10FF3C0043204C00414E44204C00584F52204C0062
:10FF4C00524554204D0052455420500052455420E7
:10FF5C005A004A5220256400253032582000534460
:10FF6C003A20004D4F4E3E0068656C700064756D14
:10FF7C0070004350204100524C43410052524341C7
:10FF8C000043502042004350204300435020440083
:10FF9C00435020450043502048004350204C00481B
:10FFAC00414C5400303A2F2F00696E66006E616E22
:10FFBC00006C6C73000D25730020257300444141C7
:10FFCC0000524C41005252410043434600534346B9
:10FFDC000043504C004E4F50005245540045585869
:10FFEC00003F3F3F004D0A0D006469004449004545
:03FFFC00490000B9
:020000040001F9
:1000000095C5D9F496C5DAF4DEC4F6F4DDC4F7F488
:10001000000EF86E0800F550250AD8A45EEF86F0B1
:1000200095C5D9F496C5DAF4DE2A000EDD22000E5D
:100030000601F06F000EEF6FEFC658F55268536877
:10004000000E0501A86F000E14D0588095C5D9F494
:1000500096C5DAF4DE2A000EDD2230D05882F6D7BB
:100060005884F4D75886F2D75888F0D7000EA86F76
:10007000010EA76F23D095C5D9F496C5DAF4DEC476
:10008000F6F4DDC4F7F4000EF86E0800F550996F31
:100090009A6B9A51000AD8A4E9D79951200AD8B48A
:1000A000E1D7030AD8B4E0D7080AD8B4D9D7060AEA
:1000B000D8B4CBD71D0AD8B4D1D7D8D7A751A81157
:1000C000D8B4D9D758B0589295C5D9F496C5DAF4B2
:1000D000DEC4F6F4DDC4F7F4000EF86E0800F55047
:1000E0002A0AD8A424D095C5D9F496C5DAF4DE2A14
:1000F000000EDD2297C5D9F498C5DAF4DFC499F56E
:10010000020EDE26DFC49AF5000EDD2299C5D9F471
:100110009AC5DAF4DEC4EFF6DDC4F0F60601F0AFFE
:1001200036D05880EF6DF01FD8B0F02B30D095C589
:10013000D9F496C5DAF4DEC40EF5DDC40FF531EC62
:10014000EDF00EC5EFF60FC5F0F607D095C5D9F462
:1001500096C5DAF4DE2A000EDD2295C5D9F496C5DF
:10016000DAF4DEC4F6F4DDC4F7F4000EF86E08002D
:10017000F5C499F5D00E050199259A6F9B6BFF0E7A
:100180009B239B5104E10A0E9A5DD8A0DFD795C549
:10019000D9F496C5DAF4DEC4F6F4DDC4F7F4000E43
:1001A000F86E0800F5502E0AD8A466D0000E536EE3
:1001B000000E526E95C5D9F496C5DAF4DE2A000E0B
:1001C000DD2295C5D9F496C5DAF4DEC4F6F4DDC4B3
:1001D000F7F4000EF86E0800F5502A0AD8A41CD0D7
:1001E00095C5D9F496C5DAF4DE2A000EDD2297C54E
:1001F000D9F498C5DAF4DFC499F5020EDE26DFC41F
:100200009AF5000EDD2299C5D9F49AC5DAF4DEC458
:1002100052F5DDC453F530D095C5D9F496C5DAF45E
:10022000DEC40EF5DDC40FF531ECEDF00EC552F570
:100230000FC553F507D095C5D9F496C5DAF4DE2A73
:10024000000EDD2295C5D9F496C5DAF4DEC4F6F4C5
:10025000DDC4F7F4000EF86E0800F5C499F5D00E71
:10026000050199259A6F9B6BFF0E9B239B5104E11F
:100270000A0E9A5DD8A0DFD795C5D9F496C5DAF4F1
:10028000DEC4F6F4DDC4F7F4000EF86E0800F55095
:10029000630AD8A427D095C5D9F496C5DAF4DE2A26
:1002A000000EDD2297C5D9F498C5DAF4DFC499F5BC
:1002B000020EDE26DFC49AF5000EDD2299C5D9F4C0
:1002C0009AC5DAF4DF500501B36F93C514F594C5F0
:1002D00015F5B3C516F51EECFBF014C593F515C561
:1002E00094F5120095C5D9F496C5DAF4DEC4B4F5D8
:1002F000DDC4B5F5B4C5F6F4B5C5F7F4000EF86E77
:100300000800F5C4B3F517D0B44BB52BB4C5F6F45B
:10031000B5C5F7F4000EF86E0800F550680AD8A4C9
:1003200035D0480EB36FB44BB52B30D0690E01D029
:10033000000EB36F2BD00501B351996F9A6B9A5190
:10034000000AD8A4F5D79951580AD8B4EFD73C0A77
:10035000D8B4ECD70C0AD8B4D7D7010AD8B4E6D7AA
:10036000050AD8B4E0D7020AD8B4E0D7010AD8B455
:10037000DDD71B0AD8B4D7D7010AD8B4D7D70D0A0E
:10038000D8B4D4D7020AD8B4CED7D2D7B4C5F6F4ED
:10039000B5C5F7F4000EF86E0800F550640AD8B43D
:1003A0009AD0B4C5F6F4B5C5F7F4000EF86E08009F
:1003B000F550690AD8B48FD0D1D097C5D9F498C573
:1003C000DAF4DFC499F5020EDE26DFC49AF5000EDA
:1003D000DD2299C5D9F49AC5DAF4DF50AB6F000E6F
:1003E000ABBFFF0EAC6F51D097C5D9F498C5DAF406
:1003F000DFC499F5040EDE26DFC49AF5000EDD2277
:1004000099C5D9F49AC5DAF4DEC49BF5DEC49CF52F
:10041000DEC49DF5DEC49EF59BC59FF59CC5A0F589
:100420009DC5A1F59EC5A2F5A36BA2BFA369A3C5F7
:10043000A4F5A3C5A5F5A3C5A6F59FC5ABF5A0C5B5
:10044000ACF5A1C5ADF5A2C5AEF5A3C5AFF5A4C584
:10045000B0F5A5C5B1F5A6C5B2F557D097C5D9F485
:1004600098C5DAF4DFC499F5020EDE26DFC49AF5EA
:10047000000EDD2299C5D9F49AC5DAF4DEC4ABF5D5
:10048000DDC4ACF5000EACBFFF0EAD6FAE6FAF6F4D
:10049000B06FB16FB26F39D097C5D9F498C5DAF49F
:1004A000DFC499F5020EDE26DFC49AF5000EDD22C8
:1004B00099C5D9F49AC5DAF4DEC49BF5DDC49CF580
:1004C0009BC5ABF59CC5ACF5AD6BAE6BAF6BB06BC4
:1004D000B16BB26B1AD0B351996F9A6B9A51000AF3
:1004E000D8A413D09951480AD8B467D7200AD8B4F1
:1004F000B5D7010AD8B4B2D7050AD8B475D7180A47
:10050000D8B4ACD70E0AD8B4C7D7010EB425996FAA
:10051000000EB5219A6F95C5D9F496C5DAF499C540
:10052000DEF49AC5DDF493C526F594C527F5ABC571
:1005300028F5ACC529F5ADC52AF5AEC52BF5AFC577
:100540002CF5B0C52DF5B1C52EF5B2C52FF5A7EC2C
:10055000C6F026C593F527C594F51200B4C5F6F488
:10056000B5C5F7F4000EF86E0800F550780AD8B457
:1005700096D0B4C5F6F4B5C5F7F4000EF86E0800D1
:10058000F550580AD8B48BD0B4C5F6F4B5C5F7F415
:10059000000EF86E0800F5506F0AD8B480D0B4C5CC
:1005A000F6F4B5C5F7F4000EF86E0800F550750ABC
:1005B000D8B475D012D197C5D9F498C5DAF4DFC490
:1005C00099F5020EDE26DFC49AF5000EDD2299C5EC
:1005D000D9F49AC5DAF4DF509B6F9B51AB6FAC6BCB
:1005E00057D097C5D9F498C5DAF4DFC499F5040E4D
:1005F000DE26DFC49AF5000EDD2299C5D9F49AC52E
:10060000DAF4DEC49BF5DEC49CF5DEC49DF5DEC4E1
:100610009EF59B51AB6F9C51AC6F9D51AD6F9E5140
:10062000AE6F38D097C5D9F498C5DAF4DFC499F520
:10063000020EDE26DFC49AF5000EDD2299C5D9F43C
:100640009AC5DAF4DEC4ABF5DDC4ACF5000EACBF80
:10065000FF0EAD6FAE6FAF6FB06FB16FB26F39D0CD
:1006600097C5D9F498C5DAF4DFC499F5020EDE26F1
:10067000DFC49AF5000EDD2299C5D9F49AC5DAF4E3
:10068000DEC49BF5DDC49CF59BC5ABF59CC5ACF504
:10069000AD6BAE6BAF6BB06BB16BB26B1AD0B351CD
:1006A000996F9A6B9A51000AD8A413D09951480AAD
:1006B000D8B481D7200AD8B4D3D7010AD8B4D0D7B8
:1006C000050AD8B48ED7180AD8B4ACD70E0AD8B455
:1006D000C7D7010EB425996F000EB5219A6F95C545
:1006E000D9F496C5DAF499C5DEF49AC5DDF45AD08A
:1006F00093C526F594C527F5ABC528F5ACC529F5F6
:10070000ADC52AF5AEC52BF5AFC52CF5B0C52DF599
:10071000B1C52EF5B2C52FF509ECDEF026C593F56F
:1007200027C594F5120093C526F594C527F5ABC5EA
:1007300028F5ACC529F5ADC52AF5AEC52BF5AFC575
:100740002CF5B0C52DF5B1C52EF5B2C52FF53BEC96
:10075000D6F026C593F527C594F5120093C526F566
:1007600094C527F5ABC528F5ACC529F5ADC52AF567
:10077000AEC52BF5AFC52CF5B0C52DF5B1C52EF521
:10078000B2C52FF5B4C5F6F4B5C5F7F4000EF86E92
:100790000800F5C430F511ECCEF026C593F527C559
:1007A00094F51200B4C5F6F4B5C5F7F4000EF86E72
:1007B0000800F550996F9A6B9A51000AD8A40DD091
:1007C0009951580AD8B4CAD7370AD8B491D71A0A57
:1007D000D8B4A9D70D0AD8B4C1D7B4C5F6F4B5C5F5
:1007E000F7F4000EF86E0800F5506E0AD8B408D180
:1007F00035D197C5D9F498C5DAF4DFC499F5020E5E
:10080000DE26DFC49AF5000EDD2299C5D9F49AC51B
:10081000DAF4DEC49BF5DDC49CF59BC5F6F49CC5FB
:10082000F7F4000EF86E250EF76407D022C7F5F432
:100830000D0023C7F5F40C0001D0D9D0FBD097C52B
:10084000D9F498C5DAF4DFC499F5020EDE26DFC4C8
:100850009AF5000EDD2299C5D9F49AC5DAF4DEC402
:100860009BF5DDC49CF59BC5F6F49CC5F7F4000E22
:10087000F86E250EF76407D022C7F5F40D0023C7E4
:10088000F5F40C0001D0B3D0D5D097C5D9F498C5F4
:10089000DAF4DFC499F5020EDE26DFC49AF5000E05
:1008A000DD2299C5D9F49AC5DAF4DEC49BF5DDC41E
:1008B0009CF59BC5F6F49CC5F7F4000EF86E250E6A
:1008C000F76404D022C7F5F40C0006D0F6C4E9F4AE
:1008D000F7C4EAF422C7EFF4ADD022C799F523C7D5
:1008E0009AF5000E9ABFFF0E9B6F9C6F97C5D9F4C7
:1008F00098C5DAF4DFC49DF5020EDE26DFC49EF54E
:10090000000EDD229DC5D9F49EC5DAF4DEC49FF544
:10091000DDC4A0F59FC5F6F4A0C5F7F4000EF86E8F
:10092000250EF7640DD099C5F5F40D009AC5F5F4C0
:100930000D009BC5F5F40D009CC5F5F40C000CD022
:10094000F6C4E9F4F7C4EAF499C5EEF49AC5EEF4F6
:100950009BC5EEF49CC5EFF46DD097C5D9F498C54E
:10096000DAF4DFC499F5020EDE26DFC49AF5000E34
:10097000DD2299C5D9F49AC5DAF4DEC49BF5DDC44D
:100980009CF59BC5F6F49CC5F7F4000EF86E250E99
:10099000F76407D022C7F5F40D0023C7F5F40C0067
:1009A00001D025D047D097C5D9F498C5DAF4DFC473
:1009B00099F5020EDE26DFC49AF5000EDD2299C5F8
:1009C000D9F49AC5DAF4DEC49BF5DDC49CF59BC569
:1009D000F6F49CC5F7F4000EF86E250EF76407D008
:1009E00022C7F5F40D0023C7F5F40C0008D0F6C4B7
:1009F000E9F4F7C4EAF422C7EEF423C7EFF41AD0FF
:100A0000B351996F9A6B9A51000AD8A413D0995197
:100A1000480AD8B43AD7200AD8B411D7010AD8B4B2
:100A2000E8D6050AD8B459D7180AD8B496D70E0A0A
:100A3000D8B4B9D7010E0501B425996F000EB521C0
:100A40009A6F95C5D9F496C5DAF499C5DEF49AC5BE
:100A5000DDF4000E946F000E936F120095C5D9F46B
:100A600096C5DAF4DEC4F6F4DDC4F7F4000EF86ED1
:100A70000800F550730AD8B416D095C5D9F496C5B8
:100A8000DAF4DEC408F5DDC409F5BD0E0A6EFF0E0A
:100A90000B6E000E0D6E030E0C6EDDECEFF00850C9
:100AA0000910D8A440D095C5D9F496C5DAF4DEC4AF
:100AB000F6F4DDC4F7F4000EF86E0800F550730A82
:100AC000D8B405D0000E0501AA6F030E04D0000EA5
:100AD0000501AA6F010EA96F95C5D9F496C5DAF480
:100AE000A951DE26AA51DD2293C514F594C515F54A
:100AF00097C5D9F498C5DAF4DFC499F5020EDE265D
:100B0000DFC49AF5000EDD2299C5D9F49AC5DAF44E
:100B1000DEC416F5DDC417F545ECE7F014C593F512
:100B200015C594F5120095C5D9F496C5DAF4DEC45E
:100B3000B4F5DDC4B5F5B4C5F6F4B5C5F7F4000EEB
:100B4000F86E0800F5C4B3F508D0B44BB52B18D037
:100B50006C0E01D0000EB36F13D00501B351996F25
:100B60009A6B9A51000AD8A4F5D799514C0AD8B477
:100B7000ECD72A0AD8B4ECD70A0AD8B4E6D7EAD711
:100B8000B4C5F6F4B5C5F7F4000EF86E0800F550DC
:100B9000660AD8B41AD064D097C5D9F498C5DAF4E7
:100BA000DFC499F5040EDE26DFC49AF5000EDD22BF
:100BB00099C5D9F49AC5DAF4DEC4ABF5DEC4ACF558
:100BC000DEC4ADF5DEC4AEF50ED0B351996F9A6BAD
:100BD0009A51000AD8A407D099514C0AD8B4DCD74E
:100BE000200AD8B4D9D7010EB425996F000EB521CB
:100BF0009A6F95C5D9F496C5DAF499C5DEF49AC50D
:100C0000DDF41CD093C560F594C561F5ABC562F504
:100C1000ACC563F5ADC564F5AEC565F5B4C5F6F410
:100C2000B5C5F7F4000EF86E0800F5C466F5C4EC1F
:100C30008CF060C593F561C594F51200B4C5F6F467
:100C4000B5C5F7F4000EF86E0800F550996F9A6B71
:100C50009A51000AD8A404D09951660AD8B4D2D7C0
:100C600095C5D9F496C5DAF4DEC4F6F4DDC4F7F41C
:100C7000000EF86E0800F550250AD8A417D095C5C7
:100C8000D9F496C5DAF4DE2A000EDD22000E0C6ED1
:100C9000250E0B6E93C50DF594C50EF57FECFAF09D
:100CA000000E0501946F010E936F120095C5D9F4E3
:100CB00096C5DAF4DE2A000EDD22CBD695C5D9F42E
:100CC00096C5DAF4DEC4F6F4DDC4F7F4000EF86E6F
:100CD0000800F5500B6E0C6A93C50DF594C50EF522
:100CE0007FECFAF095C5D9F496C5DAF4DE2A000E49
:100CF000DD22D6D777ECF5F001D80BD00500FA6EDF
:100D00000701CA51FD6ECB51FE6ECC51FF6EFA50F9
:100D10001200D8A01200000E0801D76F000ED66F87
:100D200001D80AD00500FA6EBD51FD6EBE51FE6EAF
:100D3000BF51FF6EFA5012000801DB6F01D80AD0D4
:100D40000500FA6EBA51FD6EBB51FE6EBC51FF6ECE
:100D5000FA5012000801DE6F0701F2BF23D0000E27
:100D60003B6F230E3A6F01D80BD00500FA6EDF51AE
:100D7000FD6EE051FE6EE151FF6EFA50000E120062
:100D800001D80CD00500FA6E0701C751FD6EC8519D
:100D9000FE6EC951FF6EFA50F15112000701F16960
:100DA000F26908D101D80AD00500FA6EC451FD6E6F
:100DB000C551FE6EC651FF6EFA501200D8A006D083
:100DC000000E07013B6F280E3A6F63D2000E070139
:100DD0003B6F1E0E3A6F01D8CDD00500FA6EDF5181
:100DE000FD6EE051FE6EE151FF6EFA50000E1200F2
:100DF000070138513911D8B405D001D8D5D0050034
:100E0000FA6EAFD001D8D0D00500FA6EC751FD6E92
:100E1000C851FE6EC951FF6EFA50000E1200EFEC81
:100E200008F083EC00F00801D16F01D8BDD00500B7
:100E3000FA6E0701C751FD6EC851FE6EC951FF6EB3
:100E4000FA500801D151120007012E512F11D8B4C8
:100E500027D0000E2E5D0601D46F090E07012F5911
:100E60000601D56FD5BF06D0D5511AE1800ED45DED
:100E7000D8B016D001D810D00500FA6E0701C751BE
:100E8000FD6EC851FE6EC951FF6EFA502EC7D9F4DF
:100E90002FC7DAF4DF50120007012E4B2F2B84D01E
:100EA00007016651D8A409D06751D8A406D068516B
:100EB000D8A403D06951D8B477D01C0E0501BE6FF9
:100EC000E70EBF6FF7C6C0F5C16BF9C6C2F5C36BBD
:100ED000F8C6C4F5C56B30C7C6F531C7C7F556C5EA
:100EE000C8F557C5C9F5F5C6CAF5CB6BF6C6CCF53E
:100EF000CD6BC8EC08F058D001D856D00500FA6E7A
:100F00000701C751FD6EC851FE6EC951FF6EFA5000
:100F10000601FD51120001D847D00500FA6E070105
:100F2000C751FD6EC851FE6EC951FF6EFA508BEC71
:100F30000AF01200B40E0501BE6FED0EBF6FDBC8E4
:100F4000C0F5C16BDBC8C2F5C36BC8EC08F0000E7E
:100F50000601F46F010EF36F01D826D00500FA6E7A
:100F60000701C751FD6EC851FE6EC951FF6EFA50A0
:100F7000FF0E12000801DB510601D46FD56BD5516D
:100F8000000AD8A4D7D7D451000AD8B431D7010A5F
:100F9000D8B445D7090AD8B457D7060AD8B4ACD7BD
:100FA000AE0AD8B4B8D7C6D70601F351F411D8A405
:100FB0008FEC06F001D80CD00500FA6E0601FA514C
:100FC000FD6EFB51FE6EFC51FF6EFA50000E1200DA
:100FD00001D80BD00500FA6E0701C151FD6EC25158
:100FE000FE6EC351FF6EFA50120001D80CD00500FE
:100FF000FA6E0701BE51FD6EBF51FE6EC051FF6E0D
:10100000FA50010E120001D80BD00500FA6E07014C
:10101000BB51FD6EBC51FE6EBD51FF6EFA50120009
:10102000D8A0F1D701D80CD00500FA6E0701DF5126
:10103000FD6EE051FE6EE151FF6EFA50FF0E1200A0
:101040000601F351F411D8A4A3D1B0EF8CF008013C
:10105000DE5116EC04F02A4B2B2B53D107012E51F5
:101060002F11D8B42ED0000E2E5D0601D46F090EBC
:1010700007012F590601D56FD5BF06D0D55121E103
:10108000800ED45DD8B01DD02EC7D9F42FC7DAF4A6
:10109000DEC8DFF407012E4B2F2B000E2E5D06015C
:1010A000D46F090E07012F590601D56F800ED41990
:1010B000D511D8A426D1000E0801D76F010ED66F26
:1010C00020D107016651D8A409D06751D8A406D011
:1010D0006851D8A403D06951D8B413D1670E050163
:1010E000BE6FE70EBF6FF7C6C0F5C16BF9C6C2F59C
:1010F000C36BF8C6C4F5C56B30C7C6F531C7C7F5B5
:1011000056C5C8F557C5C9F5F5C6CAF5CB6BF6C6C1
:10111000CCF5CD6BC8EC08F0F4D0DEC8F9F6F1D010
:10112000DEC8F8F6EED0000E070130150601D46FC8
:10113000FF0E070131150601D56F0801DE510601CA
:10114000D4110701306F0601D55116D00801DE51C8
:101150000601D56FD46BFF0E070130150601D66F5F
:10116000000E070131150601D76FD451D6110701C2
:10117000306F0601D551D7110701316FC2D0DEC8DB
:10118000F7F6030EF719D8A406D0000E07012E6F4C
:10119000090E2F6F05D0000E0801D76F010ED66F14
:1011A00007016751D8B408D00601F751D8B410D060
:1011B000020EF719D8B40CD007016851D8B4A1D0E9
:1011C0000601F705D8B404D0030EF719D8A499D0B6
:1011D00007016951D8B495D0F9C6D4F6010E0601BD
:1011E000D56F000ED66FD42B03D0D890D537D63715
:1011F000D42FFBD707016A510601D51707016B51A0
:101200000601D617D551D611D8A47BD0450E0501BD
:10121000BE6FE80EBF6FF7C6C0F5C16BF9C6C2F569
:10122000C36BF8C6C4F5C56B30C7C6F531C7C7F583
:1012300056C5C8F557C5C9F5F5C6CAF5CB6BF6C690
:10124000CCF5CD6BC8EC08F05CD0DEC8F6F659D012
:10125000DEC8F5F656D00801DE5151EC02F051D04F
:10126000CA0E0501BE6FE90EBF6FDBC8C0F5C16BCA
:10127000DEC8C2F5C36BDBC8C4F5C56BDEC8C6F5F6
:10128000C76BC8EC08F0000E0601F46F010EF36F97
:1012900038D00801DB510601D46FD56BD551000A57
:1012A000D8A4DED7D451010AD8B4D1D6090AD8B40B
:1012B000D5D6020AD8B431D7010AD8B431D7070A33
:1012C000D8B431D7010AD8B45AD7020AD8B4BDD796
:1012D0001F0AD8B4BDD7010AD8B438D7050AD8B484
:1012E000EAD6010AD8B4E7D6B50AD8B4B4D70A0A00
:1012F000D8B4E1D6010AD8B4DED6070AD8B4DBD612
:10130000AFD701D80CD00500FA6E0601FA51FD6E78
:10131000FB51FE6EFC51FF6EFA50000E120001D818
:101320000BD00500FA6E0701C151FD6EC251FE6E71
:10133000C351FF6EFA50120001D80CD00500FA6EAE
:101340000701BE51FD6EBF51FE6EC051FF6EFA50D7
:10135000010E120001D80BD00500FA6E0701BB5137
:10136000FD6EBC51FE6EBD51FF6EFA501200D8A04A
:10137000F1D7000E07013B6F320E3A6F0801D651CC
:10138000D711D8A405D00601F351F411D8B4E8D28E
:10139000000E0B6E010E0A6E5DEC09F00801D651CD
:1013A000D711D8B4C7D24ED0DEC8D8F50501D96B55
:1013B00031EC08F0BFD2DEC8D8F50501D96B08ECD6
:1013C000F3F0B8D239EC07F0000E07013B6F460E80
:1013D00037D0000E07013B6F460E3A6F2A512C1989
:1013E00004E12B512D19D8B40BD0850E0501BE6F29
:1013F000E80EBF6FC8EC08F02AC72CF72BC72DF7F3
:1014000085ECD4F0000E3B6F5A0E3A6F0701425143
:101410004311D8A407D026ECE2F00601D205D3117F
:10142000D8A4F4D782EC05F0CFD7000E07013B6FAC
:10143000460E3A6F10ECFFF0000E07013B6F320EC4
:101440003A6F78D2DB510601D46FD56BD551000AC3
:10145000D8A410D0D451140AD8B4A6D7010AD8B44D
:10146000AAD7BF0AD8B4E1D7010AD8B4ABD7070AC4
:10147000D8B4AFD7000E0701496F010E486F000EB8
:101480000801D26F000ED36F000ED46F000ED56F1F
:10149000100E0601F9610CD0F951040D730EF324FE
:1014A000D96E080EF420DA6EDE50DE10D8A404D017
:1014B000010E0601FD6FD1D1F8C608F5096AF95190
:1014C000040D710EF324D96E080EF420DA6EDEC41A
:1014D0000AF5DDC40BF502EC09F0070130510826CE
:1014E00031510922FF0E08240601D46FFF0E092096
:1014F000D56FD4C6D2F8D5C6D3F80801D46BD56B56
:101500000601F951040D730EF324D96E080EF42070
:10151000DA6EDEC4D8F8DDC4D9F8D8C87EF6D9C8EA
:101520007FF6D2C8D4F6D3C8D5F6D4C8D6F6D5C877
:10153000D7F6070ED890D437D537D637D737E82E19
:10154000F9D7D4C680F6D5C681F6D6C682F6D7C6F8
:1015500083F6EAEC9FF00801DA6FDA51D8B40BD0C9
:10156000970E0501BE6FF30EBF6FDAC8C0F5C16BF1
:10157000C8EC08F09DD70601F751D8B404D0020E8C
:10158000F719D8A4AAD0D8C85AF6D9C85BF6000E65
:101590005C6F090E5D6F000E5F6F800E5E6FDC0E7C
:1015A000606F080E616F2EECA3F00801DA6FDA515C
:1015B000D8A405D0800EDC19DD11D8B40FD0A10E4F
:1015C0000501BE6FF00EBF6FDAC8C0F5C16BDCC895
:1015D000C2F5DDC8C3F5C8EC08F06AD7070167514A
:1015E000D8B42CD06951D8B429D0F9C6D4F6010E9C
:1015F0000601D56F000ED66FD42B03D0D890D53707
:10160000D637D42FFBD707016A510601D51707013A
:101610006B510601D617D551D611D8A40FD0620E42
:101620000501F56FFE0EF66F000EF76F090EF86FED
:10163000000EFA6F800EF96FD5ECFEF0000E060179
:10164000FD6FF751D8A443D0F551D56FD46B5650E8
:10165000D66F5750D76FD86BD96BD7C6D9F6D6C6C9
:10166000D8F6D76BD66BD451D611DA6FD551D711C6
:10167000DB6F000ED811DC6F000ED911DD6FF65153
:10168000DA110801C96F0601DB510801CA6F0601B2
:10169000DC510801CB6F0601DD510801CC6FC9C8D0
:1016A00080F6CAC881F6CBC882F6CCC883F6000E95
:1016B0000601846F090E856F000E876F800E866F9E
:1016C00049ECDAF0000E07012E6F000E04D0000E78
:1016D00007012E6F090E2F6FC0D0F705D8B404D0C4
:1016E000030EF719D8A4B6D0F705D8A43ED0F5510B
:1016F000D56FD46B5650D66F5750D76FD86BD96B08
:10170000D7C6D9F6D6C6D8F6D76BD66BD451D61174
:10171000DA6FD551D711DB6F000ED811DC6F000ED8
:10172000D911DD6FF651DA110801CD6F0601DB51D9
:101730000801CE6F0601DC510801CF6F0601DD51B3
:101740000801D06FCDC880F6CEC881F6CFC882F62A
:10175000D0C883F6000E0601846F090E856F000E57
:10176000876F800E866F0DECDBF007016851D8B4EF
:101770002CD06951D8B429D0F9C6D4F6010E06018F
:10178000D56F000ED66FD42B03D0D890D537D6376F
:10179000D42FFBD707016A510601D51707016B51FA
:1017A0000601D617D551D611D8A40FD0620E050167
:1017B000F56FFE0EF66F000EF76F090EF86F000E54
:1017C000FA6F800EF96FD5ECFEF0D8C87EF6D9C856
:1017D0007FF6000E0601806F090E816F000E836F89
:1017E000800E826FDC0E846F080E856FC3EC95F05F
:1017F0000801DA6FDA51D8A405D0800EDC19DD11AA
:10180000D8B40FD0810E0501BE6FF00EBF6FDAC8DD
:10181000C0F5C16BDCC8C2F5DDC8C3F5C8EC08F083
:1018200047D6D8C840F6D9C841F6EDECD0F008014B
:10183000DA6FDA51D8B40BD0040E0501BE6FF40E86
:10184000BF6FDAC8C0F5C16BC8EC08F031D6000E26
:10185000060101D0010EFD6F35D707016751D8B4DD
:1018600008D00601F751D8B410D0020EF719D8B439
:101870000CD007016851D8B458D00601F705D8B488
:1018800004D0030EF719D8A450D0F9C6D4F6010E2F
:10189000D56F000ED66FD42B03D0D890D537D6375E
:1018A000D42FFBD707016A510601D51707016B51E9
:1018B0000601D617D551D611D8A437D0FC0E050194
:1018C000BE6FE70EBF6FF7C6C0F5C16BF9C6C2F5B4
:1018D000C36BF8C6C4F5C56B30C7C6F531C7C7F5CD
:1018E0000601F951040D710EF324D96E080EF4208F
:1018F000DA6EDEC4C8F5DDC4C9F5D2C8CAF5D3C8EE
:10190000CBF5D4C8CCF5D5C8CDF556C5CEF557C561
:10191000CFF5F5C6D0F50501D16BF6C6D2F5D36B80
:10192000FDC6D4F5D56BC8EC08F0000E0701496F71
:10193000000E486F0601F351F411D8B406D0000E22
:10194000F46F000EF36F15EC09F0000E07013B6F0A
:101950003C0E3A6F000E0B6E000E0A6E5DEC09F045
:1019600001D80CD00500FA6E0601FA51FD6EFB514C
:10197000FE6EFC51FF6EFA50010E1200000E0701C0
:101980003B6F140E3A6F1200000E886F62C589F526
:1019900063C58AF564C58BF565C58CF58CAF14D02D
:1019A000010E886F89C508F58AC509F58BC50AF54A
:1019B0008CC50BF548EC08F008C589F509C58AF512
:1019C0000AC58BF50BC58CF5000E8E6F000E8D6F62
:1019D000EFC67CF5F0C67DF58851D8A402D058A496
:1019E0000ED08851D8A404D0000E6E6F2B0E03D0F9
:1019F000000E6E6F2D0E6D6F6DC588F504D058A664
:101A000002D0200E886F89C508F58AC509F58BC5F7
:101A10000AF58CC50BF5ADECF4F008040910D8A458
:101A200031D005018851D8B409D088C580F97C0728
:101A3000D8A07D07000E8E6F010E8D6F800E8D2554
:101A4000086E090E8E21096EB50E0A6EFF0E0B6E22
:101A5000AEEC06F00501FD0E7C27FF0E7D2360C570
:101A60001BF561C51CF5800E1D6E090E1E6E7CC532
:101A70001FF57DC520F505ECFCF01BC560F51CC508
:101A800061F5120089C508F58AC509F58BC50AF507
:101A90008CC50BF5ADECF4F008500910D8A41AD0A1
:101AA00005018851D8B409D088C580F97C07D8A031
:101AB0007D07000E8E6F010E8D6F800E8D25086ED6
:101AC000090E8E21096EB90E0A6EFF0E0B6EAEEC7A
:101AD00006F0C0D7000E05018F6F000E906F800ECC
:101AE000916F3F0E926F000E776F000E766F89C573
:101AF00008F58AC509F58BC50AF58CC50BF5000EEE
:101B00000C6E000E0D6E000E0E6E000E0F6E9AEC37
:101B1000FCF0D8A00CD0BED078C58FF579C590F573
:101B20007AC591F57BC592F50501764B772B8FC56C
:101B300008F590C509F591C50AF592C50BF5000E9B
:101B40000C6E000E0D6E200E0E6E410E0F6EDCEC54
:101B5000BCF008C578F509C579F50AC57AF50BC555
:101B60007BF505017851895D086E79518A59096EB6
:101B70007A518B590A6E7B518C590B6E7DEC02F0B9
:101B80000BBECAD70B500A10091004E1020E085C04
:101B9000D8A0C2D778C521F579C522F57AC523F535
:101BA0007BC524F589C525F58AC526F58BC527F59E
:101BB0008CC528F5DEECF3F0D8A0AED705018F5127
:101BC000895D086E90518A59096E91518B590A6E40
:101BD00092518C590B6E7DEC02F00BBE08D00B506D
:101BE0000A10091043E1020E085CD8B03FD08FC53F
:101BF00089F590C58AF591C58BF592C58CF54AD0CB
:101C00008FC522F590C523F591C524F592C525F51C
:101C1000000E266E000E276E200E286E410E296ED5
:101C200035ECC4F022C58FF523C590F524C591F598
:101C300025C592F505017607D8A077078F51895DF4
:101C4000086E90518A59096E91518B590A6E9251C2
:101C50008C590B6E7DEC02F00BBEC9D70B500A10ED
:101C6000091004E1020E085CD8A0C1D789C521F58E
:101C70008AC522F58BC523F58CC524F58FC525F5BE
:101C800090C526F591C527F592C528F5DEECF3F051
:101C9000D8A0B6D766C56FF56FC570F553BE05D031
:101CA00052C569F553C56AF505D0000E05016A6F86
:101CB000060E696F69C574F56AC575F50501744B43
:101CC000752B660E7019D8A416D077AF0CD0000E05
:101CD0008F6F000E906F800E916F3F0E926F000E0F
:101CE000776F000E766F670E6F19D8B404D07651F7
:101CF000742777517523000E876F000E866F89C594
:101D00007EF58AC57FF58BC580F58CC581F58FC5BD
:101D100078F590C579F591C57AF592C57BF57BD0BC
:101D20007EC522F57FC523F580C524F581C525F53F
:101D30008FC526F590C527F591C528F592C529F5DB
:101D400035ECC4F022C53BF523C53CF524C53DF573
:101D500025C53EF512ECD7F03BC582F53CC583F5B1
:101D60003DC584F53EC585F582C508F583C509F5F1
:101D700084C50AF585C50BF5C0ECF7F008C572F50A
:101D800009C573F57EC521F57FC522F580C523F50C
:101D900081C524F582C50CF583C50DF584C50EF506
:101DA00085C50FF58FC508F590C509F591C50AF5EC
:101DB00092C50BF5DCECBCF008C525F509C526F588
:101DC0000AC527F50BC528F53DEC05F021C57EF5C4
:101DD00022C57FF523C580F524C581F58FC522F581
:101DE00090C523F591C524F592C525F5000E266E04
:101DF000000E276E200E286E410E296E35ECC4F0C1
:101E000022C58FF523C590F524C591F525C592F51A
:101E10000501864B872B7451865D8751800A4F6E72
:101E20007551800A4F58D8A07BD78FC508F590C54B
:101E300009F591C50AF592C50BF5000E0C6E000E62
:101E40000D6EA00E0E6E400E0F6EDCECBCF008C5E1
:101E500082F509C583F50AC584F50BC585F57EC5F0
:101E600021F57FC522F580C523F581C524F582C5FE
:101E700025F583C526F584C527F585C528F5DEEC4F
:101E8000F3F0D8B003D0000E050118D07EC508F5D8
:101E90007FC509F580C50AF581C50BF582C50CF52E
:101EA00083C50DF584C50EF585C50FF59AECFCF0DC
:101EB000D8A00BD0050172B108D0000E826F000EC1
:101EC000836F000E846F000E856F89C508F58AC583
:101ED00009F58BC50AF58CC50BF582C50CF583C5D4
:101EE0000DF584C50EF585C50FF572ECBEF008C57D
:101EF0007EF509C57FF50AC580F50BC581F57EC560
:101F000021F57FC522F580C523F581C524F5000E96
:101F10000C6E000E0D6E200E0E6E410E0F6E78C50B
:101F200008F579C509F57AC50AF57BC50BF5DCEC32
:101F3000BCF008C525F509C526F50AC527F50BC56A
:101F400028F5DEECF3F0D8A024D00501764B772BF2
:101F500078C508F579C509F57AC50AF57BC50BF58D
:101F6000000E0C6E000E0D6E200E0E6E410E0F6EEA
:101F7000DCECBCF008C578F509C579F50AC57AF539
:101F80000BC57BF5660E05017019D8A402D0744B01
:101F9000752B78C58FF579C590F57AC591F57BC518
:101FA00092F576C567F577C568F5000E0501716F86
:101FB000000E6C6F000E6B6F000E876F000E866F49
:101FC000CDD07EC522F57FC523F580C524F581C51A
:101FD00025F58FC526F590C527F591C528F592C53D
:101FE00029F535ECC4F022C53BF523C53CF524C5E5
:101FF0003DF525C53EF512ECD7F03BC582F53CC555
:1020000083F53DC584F53EC585F582C508F583C5D4
:1020100009F584C50AF585C50BF5C0ECF7F009BED6
:1020200006D0095013E10A0E085CD8B00FD082C563
:1020300008F583C509F584C50AF585C50BF5C0EC1F
:10204000F7F008C572F509C573F505D0000E050156
:10205000736F090E726F05017151D8B468AF20D04B
:10206000800E8D25D96E090E8E21DA6E2E0EDF6E52
:102070008D4B8E2B7C07D8A07D07010E716F10D081
:10208000800E8D25D96E090E8E21DA6E300EDF6E30
:102090008D4B8E2B7C07D8A07D076B07D8A06C07D3
:1020A0006B516C11D8A4ECD7800E8D25D96E090E1A
:1020B0008E21DA6E7251300FDF6E8D4B8E2B7C07C6
:1020C000D8A07D077EC521F57FC522F580C523F503
:1020D00081C524F582C50CF583C50DF584C50EF5C3
:1020E00085C50FF58FC508F590C509F591C50AF5A9
:1020F00092C50BF5DCECBCF008C525F509C526F545
:102100000AC527F50BC528F53DEC05F021C57EF580
:1021100022C57FF523C580F524C581F58FC522F53D
:1021200090C523F591C524F592C525F5000E266EC0
:10213000000E276E200E286E410E296E35ECC4F07D
:1021400022C58FF523C590F524C591F525C592F5D7
:1021500005016707D8A06807864B872B7451865DF9
:102160008751800A4F6E7551800A4F58D8B008D0F9
:102170008EBF27D78E5104E14B0E8D5DD8A021D79D
:102180007151D8B458A80AD0800E8D25D96E090E89
:102190008E21DA6E2E0EDF6E8D4B8E2B000E876F2A
:1021A0004F0E866F800E8625D96E090E8721DA6E56
:1021B000000EDF6E800E4F6E090E506E8D514F5E19
:1021C0008E51505A86514F24086E87515020096E07
:1021D000800E0A6E090E0B6E8DC50CF58EC50DF5C1
:1021E000E8EC05F005018D51865D8D6F8E518759A4
:1021F0008E6F8851D8B402D0010E01D0000E866FC8
:10220000876B58B20FD022D08D07D8A08E07800ED2
:102210008D25D96E090E8E21DA6E300EDF6E7C07A9
:10222000D8A07D077C51865D8751800A4F6E7D5115
:10223000800A4F58D8B00AD08D51865D8751800AE8
:102240004F6E8E51800A4F58D8A0DED78851D8B42F
:102250000BD08D07D8A08E07800E8D25D96E090E64
:102260008E21DA6E88C5DFF486517C5F87517D5BF5
:1022700060C51BF561C51CF5800E8D251D6E090E10
:102280008E211E6E7CC51FF57DC520F505ECFCF08A
:102290001BC560F51CC561F51200A0C6D9F4A1C626
:1022A000DAF4000EDE6E000EDD6E9EC608F59FC6E7
:1022B00009F518ECE4F008C5AFF609C5B0F606015B
:1022C000B0AF02D00B0E1200D890AF35D96EB0353A
:1022D000DA6E260ED926070EDA22DEC4CAF6DDC46F
:1022E000CBF6CA51CB11D8A402D00C0E1200A0C656
:1022F000D9F4A1C6DAF4CAC6DEF4CBC6DDF4A291E5
:10230000CAC6D9F4CBC6DAF4DF50D8B415D020EE63
:1023100001F0CA51D926CB51DA22DF50D4EC02F0B9
:102320000601BF6FBFB108D0A251D8A4BFA502D08B
:102330000A0E1200000E1200CAC6D9F4CBC6DAF497
:10234000000EDF6E20EE01F0CA51D926CB51DA2201
:10235000DF500DECCCF00601BF6FBFA102D0030E21
:102360001200A251D8B402D0BFB5E2D7CAC64EF609
:10237000CBC64FF6000E516F000E506F83ECD9F0B4
:102380004EC6C8F64FC6C9F6040EC819C911D8A45E
:1023900002D0010E1200C95104E1020EC85DD8A09E
:1023A00002D00D0E120020EE2CF0CA51D926CB51CE
:1023B000DA22DEC4BBF6DEC4BCF6DEC4BDF6DEC483
:1023C000BEF63B0ECA25086E000ECB21096ECBEC83
:1023D00006F0020E09180810D8A4E3D7460E06012D
:1023E000CA25086E000ECB21096ECBEC06F008C59D
:1023F000C4F609C5C5F60601C66BC76BC451C51145
:10240000C611C711D8A410D0540ECA25086E000EEC
:10241000CB21096E1DECF8F008C5C4F609C5C5F658
:102420000AC5C6F60BC5C7F6060120EE18F0CA515C
:10243000D926CB51DA22C4C6DEF4C5C6DEF4C6C640
:10244000DEF4C7C6DEF420EE40F0CA51D926CB51E7
:10245000DA2210EE03F0CA51E126CB51E222DFC4AA
:10246000E7F420EE03F0CA51D926CB51DA22DE047C
:10247000D8B40AD020EE03F0CA51D926CB51DA22C3
:10248000020EDE18D8A48DD7C4C608F5C5C609F556
:10249000C6C60AF5C7C60BF520EE03F0CA51D92609
:1024A000CB51DA22DF50A36FA3510C6E0D6A0E6A76
:1024B0000F6AFFEC02F008C5C4F609C5C5F60AC5E7
:1024C000C6F60BC5C7F6060120EE3DF0CA51D92667
:1024D000CB51DA22DF50A36FA46B20EE0AF0CA5171
:1024E000D926CB51DA22A3C6DEF4A4C6DDF420EE51
:1024F0000AF0CA51D926CB51DA22DE50DE10D8B408
:1025000050D720EE0AF0CA51D926CB51DA22DEC4C8
:10251000A3F6DDC4A4F620EE0AF0CA51D926CB51A9
:10252000DA22DEC4A5F6DDC4A6F6FF0EA525A76F48
:10253000FF0EA621A86FA351A715A96FA451A81536
