:0400000081EF00F09C
:100008007D087D087D087D0840007D0840007D084A
:100018007D087D087D087D087D087D087D087D08B0
:100028007D084000400040007D087D087D087D086F
:100038007D087D087D087D087D087D087D087D0890
:100048007D087D087D087D08400040007D087D080A
:100058007D087D087D0840007D087D087D087D08B5
:100068007D087D087D087D087D087D087D087D0860
:100078007D087D087D087D0840007D087D087D0895
:100088007D087D087D087D087D087D087D087D0840
:100098007D087D087D087D0840007D0840004000FF
:1000A8007D087D087D087D087D087D087D087D0820
:1000B8007D087D087D087D087D087D087D087D0810
:1000C8007D087D087D087D087D087D087D087D0800
:1000D8007D087D087D087D087D087D087D087D08F0
:1000E80040007D087D087D08400040004000400039
:1000F8007D087D087D087D08FF009EEFF7F0000E63
:1001080006013F6F20EE2CF03551D9263651DA2200
:100118003751DE180AE13851DE1807E13951DE1887
:1001280004E13A51DE18D8B43FD035C623F636C6B6
:1001380024F623ECDFF006013F6F3F51D8A434D0FA
:10014800300E3525196F000E36211A6F37C61BF68B
:1001580038C61CF639C61DF63AC61EF6000E206FC4
:10016800010E1F6F20EE01F03551D9263651DA22E3
:10017800DF5027ECE9F00009D8B407D00601376949
:10018800386939693A69010E3F6F060120EE2CF093
:100198003551D9263651DA2237C6DEF438C6DEF4B0
:1001A80039C6DEF43AC6DEF43F5112001050111081
:1001B800121013101410151016101710D8B43CD0C4
:1001C800010E186E0AD0D890103611361236133632
:1001D8001436153616361736182A17AEF4D71050B7
:1001E800085C1150095812500A5813500B581450F3
:1001F8000C5815500D5816500E5817500F58D8A0B7
:1002080010D01050085E1150095A12500A5A135053
:100218000B5A14500C5A15500D5A16500E5A1750A6
:100228000F5AD8901732163215321432133212324E
:1002380011321032182ED3D708C508F509C509F5AB
:100248000AC50AF50BC50BF50CC50CF50DC50DF562
:100258000EC50EF50FC50FF512000AC513F50BC52F
:1002680014F50C501324116E0D501420126E41D049
:1002780008C50EF509C508F50EC509F513C5D9F465
:1002880014C5DAF4DF500E6E0E50081A134A142AF9
:1002980008C50EF509C50FF5040E106ED8900F327B
:1002A8000E32102EFBD70F0E0E16000E0F160E5024
:1002B800081A0F50091A08C50EF509C50FF50C0ED6
:1002C800D8900E360F36E82EFBD70E50081A0F506E
:1002D800091AFF0E08140E6E000E09140F6E050E93
:1002E800D8900E360F36E82EFBD70E50081A0F504E
:1002F800091A1150135C12501458D8A0B9D708C560
:1003080008F509C509F51200A5C6D8F5A6C6D9F598
:10031800A90E0501DA6F060EDB6F88ECFCF006010A
:10032800AB6FAB51D8A444D0A751A811D8A40FD013
:10033800A5C65AF6A6C65BF6000E5C6F000E5D6F8A
:10034800000E5E6F000E5F6F49ECC1F030D0A5C69D
:1003580098F6A6C699F6000E9B6F000E9A6FAEEC43
:10036800EEF0AB6F040EAB19D8A402D0000EAB6F41
:10037800AB51D8A41DD0A5C615F5A6C616F5A7C6B7
:1003880017F5A8C618F5ABECD4F0A5C67EF6A6C638
:100398007FF6000E0601816F000E806F70ECB9F0D9
:1003A8000601AB6F040EAB19D8A402D0000EAB6FD8
:1003B800AB51120008C510F509C511F50AC512F5AB
:1003C8000BC513F507D00C06D8A00D06104A112A44
:1003D800124A132A0C500D10D8B41AD010C5D9F4EB
:1003E80011C5DAF4DF500E6E12C5F6F413C5F7F432
:1003F800000EF86E250EF76403D00800F55005D0FE
:10040800F6C4E9F4F7C4EAF4EF500E18D8B4DBD711
:100418000C500D10D8A405D0000E096E000E086E01
:10042800120010C5D9F411C5DAF4DF500E6E12C5EA
:10043800F6F413C5F7F4000EF86E250EF76403D032
:100448000800F55005D0F6C4E9F4F7C4EAF4EF5013
:100458000F6E0F500E5C086E096AD8A009061200CC
:10046800000E496E000E4A6E000E4B6E000E4C6E6A
:10047800000E4D6E000E4E6E000E4F6E000E506E4A
:10048800498E43B04D8E498441C545F542C546F570
:1004980043C547F544C548F5120E05D0D8904832F3
:1004A800473246324532E82EF9D745A04D84498671
:1004B80041C545F542C546F543C547F544C548F528
:1004C800130E05D0D8904832473246324532E82ECE
:1004D800F9D745B04D86660E356E070E366E49C59E
:1004E80037F54AC538F54BC539F54CC53AF54DC50C
:1004F8003BF54EC53CF54FC53DF550C53EF517ECEF
:10050800FFF012000701F729F811D8A47CEC0BF0D2
:100518000501EE51F06FEF51F16FF26BF36BF1C51E
:10052800F3F5F0C5F2F5F16BF06B660EF025E26FAE
:10053800000EF121E36F000EF221E46F000EF321AB
:10054800E56F770EE66F070EE76F000EE96F030E93
:10055800E86F0BEC07F00501EE51F06FEF51F16F0A
:10056800F26BF36BF1C5F3F5F0C5F2F5F16BF06BD7
:10057800660EF025E26F000EF121E36F000EF22106
:10058800E46F000EF321E56FD70EE66FE40EE76F18
:10059800000EE96F030EE86F47EC07F0EEC5F7F7BA
:1005A800EFC5F8F712000D500E10D8B404D00D5056
:1005B8000E10D8A404D00B504BEC13F0120020EE10
:1005C80009F00D50D9260E50DA22DE50DE10D8B4CC
:1005D80016D020EE09F00D50D9260E50DA2210EE72
:1005E80003F00D50E1260E50E222DE50E65CE650A4
:1005F800800A136EDE50800A1358D8B0120020EE1D
:1006080003F00D50D9260E50DA22DEC40FF5DDC4F2
:1006180010F50DC5D9F40EC5DAF4DEC411F5DDC444
:1006280012F50F501124D96E10501220DA6E0BC536
:10063800DFF420EE03F00D50D9260E50DA22DE2A20
:10064800000EDD2212001CC529F51DC52AF520EE75
:100658000BF02950D9262A50DA22DE50DE10DE109F
:10066800D8B41ED01CC508F51DC509F51EC50AF568
:100678001FC50BF520C50CF521C50DF520EE0BF0B7
:100688002950D9262A50DA2201D812000500FA6E1C
:10069800DE50FD6EDE50FE6EDE50FF6EFA50120028
:1006A8001EC525F51FC526F5000E286E000E276EFF
:1006B80011D01CC50EF51DC50FF5FF0E106EAAEC66
:1006C800EBF025C5D9F426C5DAF4DF6E254A262ACB
:1006D800274A282A2050275C21502858D8B01200D1
:1006E800E8D70701F929FA11D8A402EC0CF00501A2
:1006F800EE51F06FEF51F16FF26BF36BF1C5F3F55B
:10070800F0C5F2F5F16BF06BF0C5E2F5F1C5E3F574
:10071800F2C5E4F5F3C5E5F5000EE66F0B0EE76FDD
:10072800010EE96F000EE86F0BEC07F00501EE51C2
:10073800F06FEF51F16FF26BF36BF1C5F3F5F0C5A4
:10074800F2F5F16BF06BF0C5E2F5F1C5E3F5F2C532
:10075800E4F5F3C5E5F5710EE66FE40EE76F000EFC
:10076800E96FB50EE86F47EC07F0EEC5F9F7EFC58E
:10077800FAF7000E0701456F000E446F12000601DC
:10078800EF51F011D8A405D0EFC61AF5F0C61BF545
:1007980006D0FF0EEF251A6EFF0EF0211B6E58A033
:1007A80009D016C50BF50C6A14C50DF515C50EF55F
:1007B800D7EC02F01BAE04D0000E1B6E000E1A6EB2
:1007C800000E196E000E186E0CD0000E0C6E200E66
:1007D8000B6E14C50DF515C50EF5D7EC02F0184AC9
:1007E800192A1A50185C1950800A176E1B50800A73
:1007F8001758D8A0EAD758B009D016C50BF50C6A17
:1008080014C50DF515C50EF5D7EC02F0010E182428
:10081800146E000E1920156E12000A6E630EF66E25
:10082800DF0EF76E000EF86E0900F5500A5CD8A0CE
:100838003CD0640EF66EDF0EF76E000EF86E0A50AE
:100848000900F55CD8A005D0000E096E010E086EEF
:100858001200650EF66EDF0EF76E000EF86E0900D8
:10086800F5500A5CD8A00BD0660EF66EDF0EF76E58
:10087800000EF86E0A500900F55CD8B0E5D7670E8F
:10088800F66EDF0EF76E000EF86E0900F5500A5C82
:10089800D8A00BD0680EF66EDF0EF76E000EF86E5D
:1008A8000A500900F55CD8B0CFD7000E096E000ECB
:1008B800086E12001CC529F51DC52AF520EE08F0A2
:1008C8002950D9262A50DA22DE50DE10DE10D8B49C
:1008D8001ED01CC508F51DC509F51EC50AF51FC59E
:1008E8000BF520C50CF521C50DF520EE08F02950B3
:1008F800D9262A50DA2201D812000500FA6EDE50F5
:10090800FD6EDE50FE6EDE50FF6EFA5012001EC500
:1009180025F51FC526F5000E286E000E276E10D08F
:100928001CC50EF51DC50FF525C5D9F426C5DAF485
:10093800DF50106EAAECEBF0254A262A274A282A0F
:100948002050275C21502858D8B01200E9D758A069
:100958000AD01DC514F51EC515F51BC516F51CC511
:1009680017F5F8EC0FF020BE05D01FC524F520C5FB
:1009780025F504D0000E256E000E246E000E236EA1
:10098800000E226E0CD0000E0C6E200E0B6E1BC5D6
:100998000DF51CC50EF5D7EC02F0224A232A245087
:1009A800225C2350800A216E2550800A2158D8A045
:1009B800EAD758B00AD01DC514F51EC515F51BC5D4
:1009C80016F51CC517F5F8EC0FF01DC508F51EC582
:1009D80009F51EEC0FF0245008241B6E2550092041
:1009E8001C6E12000501DD6F010E0501DE6F10D0CF
:1009F800000EDE6F23D0FD0EBE6FEB0EBF6FDDC5A0
:100A0800C0F5C16BD8C5C2F5C36BD7EC11F016D0D1
:100A1800D851DB6FDC6BDC51000AD8A4ECD7DB5172
:100A2800000AD8B4E5D7010AD8B4E5D7030AD8B480
:100A3800E2D7010AD8B4DFD7070ADDD70601F1519A
:100A4800F211D8B416D0F00E0501BE6FE90EBF6FD3
:100A5800DDC5C0F5C16BD8C5C2F5C36BD9C5C4F532
:100A6800DAC5C5F5C66BC76BDEC5C8F5C96BD7EC6B
:100A780011F00501DE511200B4ECF5F05E0E08012C
:100A8800FD6F230EFE6F000EFF6FEE0EF76FA30EC5
:100A9800F86F010EF96F800EFA6F1F0EFB6F000ED4
:100AA800FC6FC40E0701E16FFC0EE26F010EE36FED
:100AB800680ED86F040ED96F000EDA6F500EDB6F18
:100AC800C50EDC6F010EDD6F140ED56F270ED66FC5
:100AD800000ED76F760EE46F260EE56F000EE66FF8
:100AE800700ECC6F270ECD6F000ECE6F560E08011C
:100AF800E86F250EE96F000EEA6F860E0701C96FD1
:100B0800260ECA6F000ECB6F1200000E0814106E6E
:100B1800000E0914116E800E0A14126E7F0E0B144B
:100B2800136E1050111012101310D8A408D0000E14
:100B3800086E000E096E000E0A6E000E0B6E000E97
:100B48000C14106E000E0D14116E800E0E14126E21
:100B58007F0E0F14136E1050111012101310D8A41A
:100B680008D0000E0C6E000E0D6E000E0E6E000EFC
:100B78000F6E0C5008180AE10D50091807E10E50C5
:100B88000A1804E10F500B18D8B402D0D8901200FC
:100B9800D8801200000E0D6E000E0C6E0801CC51AC
:100BA800D8B402D0010E01D0000E0C12CD51D8A439
:100BB8000C82CE51D8A40C84CF51D8A40C860CC575
:100BC80008F50DC509F5D5EC12F0000E0D6E000EF6
:100BD8000C6E0801D051D8B402D0010E01D0000E1D
:100BE8000C12D151D8A40C82D251D8A40C84D35160
:100BF800D8A40C860CC508F50DC509F5E2EC12F071
:100C0800D4C843F4D5C844F4D6C845F4D4C843F48A
:100C1800D5C844F4D6C845F41200000E106E000E74
:100C2800116E000E126E000E136E0C500D100E1089
:100C38000F10D8B42AD0010E146E06D0D8900C36F6
:100C48000D360E360F36142A0FAEF8D7D890103658
:100C58001136123613360C50085C0D5009580E50D8
:100C68000A580F500B58D8A009D00C50085E0D50E8
:100C7800095A0E500A5A0F500B5A1080D8900F324A
:100C88000E320D320C32142EE1D710C508F511C5FD
:100C980009F512C50AF513C50BF51200080E000177
:100CA800B16F000E0401006F000E086F000E106F88
:100CB800000E186F209120932095000E086F000EEB
:100CC800106F000E186FC292CA92010E0201D56F02
:100CD800A00ED46FD189D18BC68E070E766FBE8CCD
:100CE800C69C260E076FD28FC290CA90000EBF6EA8
:100CF800000EC76E000EC06E000EC86E3F0E046F69
:100D0800C696320E0401436F330E446F030E456FCF
:100D1800000E476F4691468B468F120000FF060073
:100D280006A5065A06FF0A000AA50A5A0AFF008005
:100D380040C020A060E0109050D030B070F00008A3
:100D4800040C020A060E0109050D030B070F286E95
:100D5800756C6C29001A0000001A0000001A0000C7
:100D6800001A000000000000000000000000000061
:100D780000000000008000000080000000800000EB
:100D880000800000000000000000000000000000DB
:050D98000064400000B2
:100D9E0002EC0CF07CEC0BF060516111D8A429D060
:100DAE0056C5EAF557C5EBF54FEC0EF0565005015A
:100DBE00F06F5750F16FF26BF36BF1C5F3F5F0C5B1
:100DCE00F2F5F16BF06B0B0EF025E26F000EF121D8
:100DDE00E36F000EF221E46F000EF321E56FCF0EEC
:100DEE00E66FE50EE76F000EE96F010EE86F47EC58
:100DFE0007F0070142514311D8B41200000E06014C
:100E0E00F46F010EF36F1200E2C5D8F5E3C5D9F504
:100E1E00E4C5DAF5E5C5DBF501D80BD00500FA6EB1
:100E2E000701DB51FD6EDC51FE6EDD51FF6EFA5097
:100E3E00120001D80CD00500FA6E0701DE51FD6ECE
:100E4E00DF51FE6EE051FF6EFA50FF0E1200E2C54A
:100E5E0008F5E3C509F5E6C50AF5E7C50BF5E8C5DE
:100E6E000CF5E9C50DF501D812000500FA6E080162
:100E7E00EB51FD6EEC51FE6EED51FF6EFA5012000D
:100E8E00E2C5D8F5E3C5D9F5E4C5DAF5E5C5DBF578
:100E9E0001D80BD00500FA6E0701DB51FD6EDC5157
:100EAE00FE6EDD51FF6EFA50120001D80CD0050017
:100EBE00FA6E0701DE51FD6EDF51FE6EE051FF6EE0
:100ECE00FA50000E1200E2C508F5E3C509F5E6C5B5
:100EDE000AF5E7C50BF5E8C50CF5E9C50DF501D822
:100EEE0012000500FA6E0801F151FD6EF251FE6E10
:100EFE00F351FF6EFA5012001A0E1124086E000EF6
:100F0E001220096EDCEC0FF008C517F509C518F5AF
:100F1E00196A1A6A0FC5D9F410C5DAF4030EDE1871
:100F2E00D8A41CD0140E1124086E000E1220096EC7
:100F3E00DCEC0FF00850136E0950146E156A166A29
:100F4E0014C516F513C515F5146A136A1350171246
:100F5E00145018121550191216501A1217C50FF5F3
:100F6E0018C510F519C511F51AC512F51200F5C5FB
:100F7E00D8F5F6C5D9F5F7C5DAF5F8C5DBF5F9C537
:100F8E00DCF5FAC5DDF5ACECF2F0000EFF6FF7C53F
:100F9E00FBF5F8C5FCF5000EFE6F000EFD6F0AD0D6
:100FAE00FBC5D9F4FCC5DAF4DF50FF27FB4BFC2B55
:100FBE00FD4BFE2BF951FD5DFA51FE59D8A0F0D72D
:100FCE00070EBE6FF30EBF6FF5C5C0F5F6C5C1F5C2
:100FDE00320EC26FF00EC36FFFC5C4F5C56BD7ECF2
:100FEE0011F0120008C512F509C513F513C5C1F4A9
:100FFE0012C5BFF4000E116E000E106E26D0BE98F4
:10100E0010500A240E6E11500B200F6E0EC5F6F402
:10101E000FC5F7F4000EF86E250EF76404D0D0C499
:10102E00F5F40C0006D0F6C4E9F4F7C4EAF4D0C423
:10103E00EFF4BE88122A12C5BFF41250D8A403D002
:10104E00132A13C5C1F4104A112A0C50105C0D500E
:10105E001158D8B01200D3D74D51D8B41200F2C5E2
:10106E00F4F5010E0501F56F000EF66FF42B03D0AB
:10107E00D890F537F637F42FFBD707013E5105010F
:10108E00F51707013F510501F617F551F611D8A4D2
:10109E001200F2C5EAF5F3C5EBF54FEC0EF0F2C512
:1010AE00F4F5010E0501F56F000EF66FF42B03D06B
:1010BE00D890F537F637F42FFBD70501F551070118
:1010CE003E130501F65107013F13120008C512F534
:1010DE0009C513F513C5C1F412C5BFF4000E116E88
:1010EE00000E106E25D0BE9410500A240E6E1150B4
:1010FE000B200F6E0EC5F6F40FC5F7F4000EF86E4A
:10110E00250EF76403D00800F55005D0F6C4E9F4B7
:10111E00F7C4EAF4EF50C06EBE84122A12C5BFF4B3
:10112E001250D8A403D0132A13C5C1F4104A112AA1
:10113E000C50105C0D501158D8B01200D4D70A6E56
:10114E005F0EF66EDF0EF76E000EF86E0900F550AC
:10115E000A5CD8A026D0600EF66EDF0EF76E000E7B
:10116E00F86E0A500900F55CD8A005D0000E096E85
:10117E00010E086E1200610EF66EDF0EF76E000E97
:10118E00F86E0900F5500A5CD8A00BD0620EF66E10
:10119E00DF0EF76E000EF86E0A500900F55CD8B03F
:1011AE00E5D7000E096E000E086E1200D69E0701DE
:1011BE0038513911D8B41FD0B00E3625D96E0A0E5B
:1011CE003721DA6EDF500E6E010E3625086E000ED8
:1011DE003721096E000E0B6E500E0A6E40EC0FF0AA
:1011EE0008C536F709C537F73807D8A03907A780DD
:1011FE00D68E0E5012000601F351F411D8B403D05E
:10120E00D68E000E1200D68E150E0D6EC60EE82E60
:10121E00FED70D2EFCD700D0C9D74A6E00C74BF5AE
:10122E0001C74CF56EC54FF56FC550F56AC544F54F
:10123E006BC545F56CC546F56DC547F54FC548F50B
:10124E0050C549F54A506FECFFF044C54DF545C504
:10125E004EF54D504E10D8B403D09AEC11F012004A
:10126E004BC508F54CC509F5010E4F240A6E000E4C
:10127E0050200B6EFF0E70250C6EFF0E71210D6E41
:10128E00F7ECC8F0EAD708C5D9F409C5DAF40AC5EF
:10129E00DFF4084A092A0B500A6E0C500B6E0D50E3
:1012AE000C6E0D6A08C5D9F409C5DAF40AC5DFF467
:1012BE00084A092A0B500A6E0C500B6E0D500C6E1C
:1012CE000D6A08C5D9F409C5DAF40AC5DFF4084A6F
:1012DE00092A0B500A6E0C500B6E0D500C6E0D6AD7
:1012EE0008C5D9F409C5DAF40AC5DFF4084A092A93
:1012FE00120010C5F6F411C5F7F4000EF86E0800D2
:10130E00F5500C6E0D6A84EC11F00CC517F50DC579
:10131E0018F5104A112A12C5D9F413C5DAF4DF50A4
:10132E00146E14500C6E0D6A84EC11F00CC515F58C
:10133E000DC516F5124A132A1550171808E1165046
:10134E001818D8A404D017501810D8A4D2D71550F6
:10135E00175C106E16501858116E1200660E356E10
:10136E00070E366E000E386E010E376EA6ECDDF0EF
:10137E0035C53FF536C540F5660E356E070E366E31
:10138E00000E386E050E376E000E3A6E010E396E77
:10139E00B8ECF4F0660E356E070E366E000E386E33
:1013AE00060E376E000E3A6E010E396EB8ECF4F082
:1013BE00660E356E070E366E3FC537F540C538F5ED
:1013CE00A6ECDDF012003EC540F53FC541F520EE1E
:1013DE0002F04050D9264150DA22000EDF6E000E88
:1013EE000001846F000E856F110E02016A6F120EDE
:1013FE006B6F660E086E070E096EFBEC12F008504E
:10140E000910D8B40FD0660E356E070E366E000E6C
:10141E00386E000E376E000E3A6E010E396E36ECD7
:10142E00F5F001D0CA940001848F12000C500D10FB
:10143E000E100F10D8B424D0010E106E06D0D89016
:10144E000C360D360E360F36102A0FAEF8D70C505E
:10145E00085C0D5009580E500A580F500B58D8A062
:10146E0008D00C50085E0D50095A0E500A5A0F50F3
:10147E000B5AD8900F320E320D320C32102EE7D797
:10148E0008C508F509C509F50AC50AF50BC50BF51A
:10149E0012002BC5D9F42CC5DAF4DEC433F5DDC445
:1014AE0034F520EE06F02B50D9262C50DA22DF50E0
:1014BE002F6ED8902F344009306E2DC531F52EC5C4
:1014CE0032F533C50CF534C50DF5FAEC0CF033C519
:1014DE001CF534C51DF5300E1E6E050E1F6E000E6A
:1014EE00216E030E206E5EEC04F033C50CF534C590
:1014FE000DF557EC11F012000AC510F50BC511F5DC
:10150E000C500D10D8B412000DC583F00CC582F02E
:10151E0010C5D9F411C5DAF4DF500001816F104AFD
:10152E00112A000E0F6E010E0E6E0ED010C5D9F4DC
:10153E0011C5DAF4DF50816F104A112AB1A0FED71F
:10154E00000180510E4A0F2A0C500E5C0D500F58A0
:10155E00D8A0ECD7B1A0FED70001805112005CECF0
:10156E00FBF056500501F86F5750F96FFA6BFB6B95
:10157E00F9C5FBF5F8C5FAF5F96BF86BF8C541F549
:10158E00F9C542F5FAC543F5FBC544F501D80BD0B4
:10159E000500FA6E0701D851FD6ED951FE6EDA5173
:1015AE00FF6EFA50120001D812000500FA6E080103
:1015BE00E851FD6EE951FE6EEA51FF6EFA50010ED2
:1015CE001200B8C5BCF5B9C5BDF5000E0701236FF5
:1015DE00000E226F17D0B6C593F5B7C594F5BC0EA5
:1015EE000501956F050E966FBAC597F5BBC598F5B3
:1015FE0000EC80F00501935107012227050194515B
:10160E0007012323BCC5F6F4BDC5F7F4000EF86E32
:10161E000800F5500009D8A4DED7000E0501B76FFB
:10162E00000EB66F120004D0084A092A0A4A0B2A85
:10163E0008C5D9F409C5DAF4DF500C6E0AC5F6F404
:10164E000BC5F7F4000EF86E0800F5500C18D8A470
:10165E0007D008C5D9F409C5DAF4DF50D8A4E4D709
:10166E0008C5D9F409C5DAF4DF500C6E0AC5F6F4D4
:10167E000BC5F7F4000EF86E0800F5500C5C086E02
:10168E00096AD8A009061200000E106E08C511F5E1
:10169E0009C512F50A5011240C6E0B5012200D6E56
:1016AE001CD011C5D9F412C5DAF4DF50101A114A44
:1016BE00122A000E0F6E000E0E6E10AE02D0890EA4
:1016CE00101AD89010360E4A0F2A0FBEF6D70F50AA
:1016DE0004E1080E0E5CD8A0F0D70C50115C0D5032
:1016EE001258D8A0DED710501200F729F811D8B42E
:1016FE001200F7510501EA6F0701F8510501EB6F72
:10170E00EC6BED6BEBC5EDF5EAC5ECF5EB6BEA6B4F
:10171E00660EEA25E26F000EEB21E36F000EEC2160
:10172E00E46F000EED21E56F770EE66F070EE76FA3
:10173E00000EE96F030EE86F47EC07F0000E07018D
:10174E00F86FF7691200516E0701FB51D8B404D03F
:10175E00AA0E5118D8A41200AA0E5118D8A403D05C
:10176E00000EFB6F120051AC0CD0B90E0501BE6F0E
:10177E00F10EBF6F000EC16FA00EC06FD7EC11F04F
:10178E00FF0051AE1200240E0501BE6FF20EBF6FA8
:10179E00000EC16FA00EC06FD7EC11F0FFD70BBEBD
:1017AE0007D00B500A1009101DE10804D8B01AD04A
:1017BE0008C50CF509C50DF50AC50EF50BC50FF5D7
:1017CE000C1E0D1E0E1E0F1E0C2A000E0D220E22BA
:1017DE000F220CC508F50DC509F50EC50AF50FC586
:1017EE000BF5120008C508F509C509F50AC50AF575
:1017FE000BC50BF512000701F929FA11D8B4120026
:10180E00F9510501EA6F0701FA510501EB6FEC6B17
:10181E00ED6BEBC5EDF5EAC5ECF5EB6BEA6BEAC5E6
:10182E00E2F5EBC5E3F5ECC5E4F5EDC5E5F5000E27
:10183E00E66F0B0EE76F010EE96F000EE86F47ECD7
:10184E0007F0000E0701FA6FF9691200516E515040
:10185E00D8B40ED00601F151F211D8B407D0670EEC
:10186E000501BE6FF30EBF6FD7EC11F0020E120022
:10187E000701E72914E1E82912E1E92910E1EA2933
:10188E00D8A40DD00601F151F211D8B4EFD7640EE1
:10189E000501BE6FF50EBF6FD7EC11F0E7D7000E46
:1018AE001200000E106E000E116E000E126E000E63
:1018BE00136E08A008D00C5010260D5011220E5099
:1018CE0012220F501322D8900C360D360E360F36CC
:1018DE00D8900B320A3209320832085009100A1019
:1018EE000B10D8A4E6D710C508F511C509F512C519
:1018FE000AF513C50BF51200186812C508F513C5C5
:10190E0009F506EC0EF0000E176E000E166E10D0D6
:10191E0012C508F513C509F5180E0A6E050E0B6EE5
:10192E00000E0D6E010E0C6E83EC0AF0164A172A8D
:10193E001450165C15501758D8A0EAD712C508F5E2
:10194E0013C509F514EC10F01200420E0501BE6F1E
:10195E00E80EBF6FD7EC11F0BC0EBE6FF20EBF6F6C
:10196E00D7EC11F0110E0501D96F3C0ED86FCB0ECE
:10197E00E82EFED7D82FFCD7D92FFAD7A30E050104
:10198E00BE6FF20EBF6FD7EC11F0420EBE6FE80EB7
:10199E00BF6FD7EC11F01200C20ED16F050ED26FD1
:1019AE00BEC5C6F5BFC5C7F5000ECA6F000EC96F1E
:1019BE00000ED06F000ECF6FC60EB66F050EB76F4E
:1019CE00C0C5B8F5C1C5B9F5D10EBA6F050EBB6F5E
:1019DE00E8EC0AF0C951BE25D96ECA51BF21DA6EA4
:1019EE00000EDF6E12000CC50EF50DC50FF520EEC4
:1019FE0005F00E50D9260F50DA22C8C4DFF4C8966F
:101A0E00C898C88A20EE03F00E50D9260F50DA225D
:101A1E00DF50D8B402D0C08801D0C098C0860CC5A3
:101A2E0008F50DC509F5000E0B6E010E0A6E53EC8E
:101A3E0013F01200066ED69E070139511AE1500EB0
:101A4E00385DD8B016D038513625016E3951372150
:101A5E00026E000E046E500E036E82EC0FF0B00E8E
:101A6E000124D96E0A0E0220DA6E06C5DFF4384B59
:101A7E00392B395103E1400E385DD8B0A790D68E80
:101A8E001200010E146E200E0E10106E000E0F10AE
:101A9E00116E9F0E1024126EFF0E1120136E135036
:101AAE0004E11A0E125CD8A00ED0D00E0E24106EC9
:101ABE00FF0E0F20116E115004E10A0E105CD8A01B
:101ACE0002D0000E146E14C50EF50F6A12000D6EC4
:101ADE00D69E0701355104E1500E345DD8A004D0D6
:101AEE00B7A2FED794EC0DF034513225086E355165
:101AFE003321096E000E0B6E500E0A6E40EC0FF085
:101B0E00600E0824D96E0A0E0920DA6E0DC5DFF4B8
:101B1E00344B352BA782D68E12001DD0600E322587
:101B2E00D96E0A0E3321DA6EDF500201C96F010E33
:101B3E0007013225086E000E3321096E000E0B6E62
:101B4E00500E0A6E40EC0FF008C532F709C533F798
:101B5E003407D8A03507070134513511D8B4120017
:101B6E00B7A21200DBD7660E086E070E096EFBECED
:101B7E0012F008500910D8B414D0660E356E070E48
:101B8E00366E000E386E000E376E40504110D8A4DF
:101B9E0002D0010E01D0000E396E3A6A36ECF5F025
:101BAE00120040504110D8A402D0C2841200C29438
:101BBE0012001DD0600E3225D96E0A0E3321DA6E58
:101BCE00DF500201C96F010E07013225016E000EB2
:101BDE003321026E000E046E500E036E82EC0FF077
:101BEE0001C532F702C533F73407D8A03507070110
:101BFE0034513511D8B41200B7A21200DBD708C584
:101C0E000AF509C50BF520EE02F00A50D9260B5045
:101C1E00DA22DF50D8A410D0310E0201126F320E2C
:101C2E00116F20EE03F00A50D9260B50DA22C8C4E9
:101C3E00DFF4C890C892C88420EE02F00A50D9266C
:101C4E000B50DA22DF2A120012D008C5D9F409C5CA
:101C5E00DAF4DFC40AF5010EDE26DFC40BF5000E42
:101C6E00DD220AC5D9F40BC5DAF4000EDF6E08C505
:101C7E00D9F409C5DAF4DEC40AF5DDC40BF50AC5DC
:101C8E00D9F40BC5DAF4200EDE18D8A41200DDD775
:101C9E000501EA51EC6FEB51ED6FEE6BEF6BEDC59D
:101CAE00EFF5ECC5EEF5ED6BEC6B080EEC25E26F87
:101CBE00000EED21E36F000EEE21E46F000EEF211A
:101CCE00E56F790EE66FE40EE76F000EE96F060E14
:101CDE00E86F47EC07F01200000E251A000E261AC8
:101CEE00000E271A800E281A21C508F522C509F5FF
:101CFE0023C50AF524C50BF525C50CF526C50DF52E
:101D0E0027C50EF528C50FF551ECBEF008C521F517
:101D1E0009C522F50AC523F50BC524F5120008C521
:101D2E00F6F409C5F7F4000EF86E0800F5500A181F
:101D3E00D8A405D008C508F509C509F5120008C5CF
:101D4E00F6F409C5F7F4084A092A000EF86E0800E1
:101D5E00F5500009D8A4E3D7000E086E000E096EE8
:101D6E00120004011969C9680969C7681169C86850
:101D7E000181C6800183C682018BC68A198DC98CEA
:101D8E00C18EC99E550E596FAA0E596F5991080EE4
:101D9E005D6F000E5E6F000E5F6F550E596FAA0ECF
:101DAE00596F59811200CC0E0601CC6F180ECD6FF3
:101DBE00B10ECE6FFF0ECF6F010ED06FBCECF9F0EF
:101DCE000009D8B40DD0EF0E0501BE6FF10EBF6F36
:101DDE00D7EC11F0FF0E0601D96FFE0ED86F120070
:101DEE00000ED96F000ED86F12000AC511F50BC583
:101DFE0012F508C50FF509C510F510D011C5D9F4A7
:101E0E0012C5DAF4DF500E6E114A122A0FC5D9F43C
:101E1E0010C5DAF40EC5DFF40F4A102A0C06D8A04E
:101E2E000D060C28EBE10D28D8B41200E7D708C533
:101E3E000AF509C50BF502D0084A092A08C5F6F4B9
:101E4E0009C5F7F4000EF86E250EF76403D00800EE
:101E5E00F55005D0F6C4E9F4F7C4EAF4EF500009E2
:101E6E00D8A4EAD70A50085C086E0B500958096EC0
:101E7E0012000A500B10D8B418D0010E0C6E04D0FC
:101E8E00D8900A360B360C2A0BAEFAD70A50085CDD
:101E9E000B500958D8A004D00A50085E0B50095AAE
:101EAE00D8900B320A320C2EF1D708C508F509C5A9
:101EBE0009F512001A0E0E24086E000E0F20096E80
:101ECE0010C50AF511C50BF5C3EC11F00CC5D9F40C
:101EDE000DC5DAF4030EDE18D8A41200140E0E246B
:101EEE00086E000E0F20096E12C50AF513C50BF50C
:101EFE00C3EC11F0120003500410D8B418D0010E28
:101F0E00056E04D0D89003360436052A04AEFAD7EF
:101F1E000350015C04500258D8A004D00350015E57
:101F2E000450025AD89004320332052EF1D701C55F
:101F3E0001F502C502F512000AC50CF50BC50DF52B
:101F4E0008C50EF509C50FF50CC5F6F40DC5F7F469
:101F5E000C4A0D2A000EF86E0EC5D9F40FC5DAF430
:101F6E000E4A0F2A0800F5C4DFF4DF50D8B4120071
:101F7E00EBD741504210D8B40CD0000E0201056FC1
:101F8E00000E036FBE88BE84400EC96E000EC76E73
:101F9E001200B5EC09F07F0EC96EC768C868010E55
:101FAE000201056F020E036F120020EE01F00850C1
:101FBE00D9260950DA22DF500A6E0A500D6E0E6ACB
:101FCE0008C5D9F409C5DAF4DF500A6E0D500B6E50
:101FDE000A500D6E0BC50EF50DC508F50EC509F5AB
:101FEE001200000E1A6E000E196E0BD018C50BF5EE
:101FFE000C6A16C50DF517C50EF5D7EC02F0194A89
:10200E001A2A19501424D96E1A501520DA6EDF5080
:10201E00186E1850D8B41200E9D708C50AF509C5CC
:10202E000BF520EE02F00A50D9260B50DA22DF060D
:10203E00DF50D8A41200000E0201126F000E116FB5
:10204E0020EE03F00A50D9260B50DA22DF50C86E6C
:10205E0012000D6E0D500F0B086E096A120E082439
:10206E00D96E080E0920DA6EDF500A6E0D380F0B8E
:10207E000F0B0B6E0C6A220E0B24D96E080E0C2061
:10208E00DA6EDF500A10120007D008C5D9F409C560
:10209E00DAF4DE2A000EDD2208C5D9F409C5DAF419
:1020AE00DEC40AF5DDC40BF50AC5D9F40BC5DAF4A6
:1020BE00200EDE18D8A41200E8D732C515F533C5A8
:1020CE0016F534C517F535C518F536C519F537C5E6
:1020DE001AF5000E1B6E22ECBBF015C532F516C5B7
:1020EE0033F517C534F518C535F512001F0EBE6F42
:1020FE00EF0EBF6FD8C5C0F5D9C5C1F5DAC5C2F5AB
:10210E00DBC5C3F5DEC5C4F5DFC5C5F5DCC5C6F553
:10211E00DDC5C7F5D7EC11F09CEC13F012001BBE19
:10212E0005D01B5010E11A04D8B00DD01AC51CF5FD
:10213E001BC51DF51C1E1D1E1C4A1D2A1CC51AF58D
:10214E001DC51BF512001AC51AF51BC51BF512008D
:10215E00010E0C6E200E08180910D8B40ED0F70E12
:10216E0008240A6EFF0E09200B6E0B5004E1050EBB
:10217E000A5CD8A002D0000E0C6E0CC508F5096AD8
:10218E0012001B6E00C71CF501C71DF51CC516F508
:10219E001DC517F569EC12F01E6E1B501E18D8A443
:1021AE0007D01906D8A01A0619501A10D8A4EED7BF
:1021BE001E501200200E08100A6E000E09100B6E33
:1021CE009F0E0A240C6EFF0E0B200D6E0D5006E1B5
:1021DE001A0E0C5CD8B002D0010E01D0000E086EA3
:0421EE00096A120068
:1021F400B7A00ED0C7C207F50750D8B404D0075013
:1022040021EC0DF005D0000E0601F46F010EF36F02
:10221400E0EC0DF034513511D8A41100A79211004F
:10222400E3C5D8F5E4C5D9F5E50EDA6F050EDB6F25
:1022340088ECFCF0E76FE751D8A41200E3C5D9F4A9
:10224400E4C5DAF4000EDE6E000EDD6E1200D85125
:102254000701465D4751800A516E0501D951800A34
:102264005158D8B01200200EBE6FE90EBF6FD8C50A
:10227400C0F5D9C5C1F5D7EC11F01200085009100A
:102284000A100B10D8B408D0000E081A000E091A50
:10229400000E0A1A800E0B1A08C508F509C509F5BF
:1022A4000AC50AF50BC50BF512000CC50EF50DC5D4
:1022B4000FF50CC508F50DC509F5000E0B6E000EE3
:1022C4000A6E53EC13F020EE05F00E50D9260F5091
:1022D400DA22DF50C86E12000501F4510701F91922
:1022E40006E10501F5510701FA19D8B406D0F4C581
:1022F400EEF5F5C5EFF575EC03F0000E456F010E34
:10230400446F12009F0E0C240E6EFF0E0D200F6EF4
:102314000F5009E11A0E0E5CD8B005D05F0E0C14F4
:102324000C6E0D6A12000CC50CF50DC50DF51200EE
:1023340000C744F501C745F544C542F545C543F515
:102344008BEC12F044C512F545C513F5000E156E5D
:10235400010E146E83EC0CF01200660E086E070E6C
:10236400096EFBEC12F008500910D8B405D0CD0E5C
:102374000A6EEF0E0B6E1200600E0A6EF60E0B6EF6
:10238400120008C5D9F409C5DAF40AC5DFF4084A0D
:10239400092A0BC50AF50B6A08C5D9F409C5DAF48C
:1023A4000AC5DFF4084A092A1200C00E0501D66FD7
:1023B400050ED76F000EB66F000EB76FBEC5B8F529
:1023C400BFC5B9F5D60EBA6F050EBB6FE8EC0AF0BF
:1023D40012000CD0050E096E0F0E086EF10EE82ED9
:1023E400FED7082EFCD7092EFAD700F00701345186
:1023F4003511D8B41200EED708500A02F3C40CF514
:10240400F4C40DF508500B02F3500D2609500A02CE
:10241400F3500D260CC508F50DC509F512009F0EE5
:1024240008240A6EFF0E09200B6E0B5006E11A0EEB
:102434000A5CD8B002D0010E01D0000E086E096A01
:102444001200BF0E08240A6EFF0E09200B6E0B50FB
:1024540006E11A0E0A5CD8B002D0010E01D0000EBB
:10246400086E096A1200D00E08240A6EFF0E0920B5
:102474000B6E0B5006E10A0E0A5CD8B002D0010EB6
:1024840001D0000E086E096A12002D682BC51CF5D8
:102494002CC51DF52D0E1E6E050E1F6E000E216E31
:1024A400010E206E27EC03F02D50120043C541F5B8
:1024B40044C542F501D812000500FA6E0801FA512C
:1024C400FD6EFB51FE6EFC51FF6EFA50120018684F
:1024D40016C508F517C509F5180E0A6E050E0B6E1C
:1024E400000E0D6E010E0C6EF7ECC8F018501200C1
:1024F40042C508F543C509F506EC0EF042C53EF5A4
:1025040043C53FF5000E416E010E406EBAEC0DF06E
:10251400120042C53EF543C53FF5000E416E000E64
:10252400406EBAEC0DF042C508F543C509F514EC4C
:1025340010F0120040EC05F001D812000500FA6E0C
:102544000801F751FD6EF851FE6EF951FF6EFA5015
:1025540012003E6E660E356E070E366E000E386E35
:10256400040E376E3EC539F53A6A36ECF5F01200C2
:1025740001D812000500FA6E0801E851FD6EE95118
:10258400FE6EEA51FF6EFA50000E120001D81200DE
:102594000500FA6E0701E151FD6EE251FE6EE35152
:1025A400FF6EFA501200F1C60AF5F2C60BF508C523
:1025B400F1F609C5F2F60AC508F50BC509F51200CE
:1025C40054C50AF555C50BF508C554F509C555F5A7
:1025D4000AC508F50BC509F51200FFFFFFFFBE0889
:1025E400D808010066070B0070FFFF00FF00FFCF53
:0125F40001E5
:1025F60020EE02F00850D9260950DA22DEC408F58A
:10260600DDC409F5120056C5EEF557C5EFF586ECA3
:1026160002F0BAEC12F0120018EC13F00AC508F535
:102626000BC509F5C2EC13F0120001D04C070701E7
:102636004C51800A7F0FD8A01200F8D7000E086E02
:10264600C00E096EFF0E0A6EFF0E0B6E1200000E14
:10265600086E000E096E210E0A6E000E0B6E120039
:10266600660E07011D6F100E1E6F000E1F6F120003
:10267600B5BA12000601F351F411D8A41200F8D726
:10268600086E0804D8A412000001D785D795120059
:102696000A6EEBEC11F0B7A2FED70AC5C9F212001A
:1026A6000A500B10D8A402D0C2841200C2941200A1
:1026B600FF00000E0601BD6F000EBC6F1200086E13
:1026C60008A002D0C2821200C292120056C5EEF5D0
:1026D60057C5EFF575EC03F01200086E08A002D09E
:1026E600C18E1200C19E1200086E08A002D0C280E0
:1026F6001200C2901200000E07013B6F0A0E3A6FDD
:102706001200000E0601BD6F010EBC6F1200B5BAB5
:1027160002D0D8901200D8801200CEBA02D0D8903B
:102726001200D8801200CEB002D0D8901200D88005
:102736001200FF0E0B6E0A680FEC13F01200040174
:102746002095C284CA9412003AC708F53BC709F51A
:1027560012003F0E096E08681200086E08C5C0F424
:102766001200086E08C5C8F41200B59A1200D050BF
:102776001200CF501200FB51120012001200FFD7B8
:012786000151
:10DF180000B4F871070021F6720700E0F5730700F6
:10DF280018F574070031F6750701B7F6CC08000537
:10DF3800F5CD08006AF4CE0800D7F3CF080035F70E
:10DF4800D008009AF5D108002BF5D2080041F4D387
:10DF5800080088F5D40802819FE0FC407E80FC0020
:10DF6800009F0010000000E2FF0201DAF700025CE7
:10DF7800FB000323FD00049FFE000599FE0106F641
:10DF8800F8000784FF000859F90009E5F9000A6359
:10DF9800F9000B1CFD000CBDFE000DB7FE010E5371
:10DFA800FA000F89FF011064FC0211F2F70012BD9C
:10DFB800F90013A1FD0014E1FE0015DBFE011601B6
:10DFC800F90017CEFF01185FFF001903FA001A6D58
:10DFD800F9001B9AFD001CFFFE001DF9FE011E5DE5
:10DFE800FA001FD2FF0120F8FA02210AF8022227BC
:10DFF800F7002326FE00241DFF002517FF01260C2D
:10E00800F90027CAFF01285CFC00293FFA022AC54B
:10E01800F6002B1FFE002C3BFF002D35FF012E675D
:10E02800FA002FDEFF0130EFFA023122F8023269DE
:10E03800F7003342FE0034B0FA0035A7FA0136E1A2
:10E04800F60037DAFF013854FC003949FA023A5C25
:10E05800F7003B3BFE003C81FE003D7BFE013EEBB2
:10E06800F8003FD6FF0040C1FC0041F2FC00423FEF
:10E07800FD004370FD0044C4FD0045F5FD004681E8
:10E08800F9004790FC0048C8FC0049F9FC004A46E2
:10E09800FD004B77FD004CCBFD004DFCFD004E8B89
:10E0A800F9004F97FC0050CFFC005100FD00524D85
:10E0B800FD00537EFD0054D2FD005503FE00569529
:10E0C800F900579EFC0058D6FC005907FD005A5429
:10E0D800FD005B85FD005CD9FD005D0AFE005E9FCA
:10E0E800F9005FA5FC0060DDFC00610EFD00625BCD
:10E0F800FD00638CFD0064E0FD006511FE0066A96B
:10E10800F90067ACFC0068E4FC006915FD006A6270
:10E11800FD006B93FD006CE7FD006D18FE006EB30B
:10E12800F9006FB3FC0070D1F90071DBF90072EFF0
:10E13800F90073F9F900740DFA007535FA0076AC38
:10E14800FF0077C7F90078BAFC0079EBFC007A3851
:10E15800FD007B69FD007CBDFD007DEEFD007E7746
:10E16800F9007F89FC008074FB00818CFB0082AC85
:10E17800FB0083C4FB0084ECFB008544FC0086E0C4
:10E18800F8008754FB00886CFB008984FB008AA494
:10E19800FB008BBCFB008CE4FB008D3CFC008ED5A7
:10E1A800F8008F4CFB009093FE0091B1FE0092D5D1
:10E1B800FE0093F3FE009411FF00952FFF00969E3A
:10E1C800FA009775FE009864FB00997CFB009A9C06
:10E1D800FB009BB4FB009CDCFB009D34FC009ECA4A
:10E1E800F8009F44FB00A0A5FE00A1C3FE00A2E723
:10E1F800FE00A305FF00A423FF00A541FF00A6B968
:10E20800FA00A787FE00A8ABFE00A9C9FE00AAED88
:10E21800FE00AB0BFF00AC29FF00AD47FF00AEC20C
:10E22800FA00AF8DFE00B0ACFE00B1CAFE00B2EE3F
:10E23800FE00B30CFF00B42AFF00B548FF00B6C3C8
:10E24800FA00B78EFE00B88EFF00B993FF00BA98A7
:10E25800FF00BB9DFF00BCA2FF00BDA7FF00BE34AE
:10E26800FB00BF7FFF00C049FE00C12AFD02C22E8D
:10E27800F802C3D4FA02C419F700C594FB01C6CE4C
:10E28800F700C7F4FB00C859FF00C9E6FF02CA43FC
:10E29800F900CB000002CC9DF702CD17F901CEC2E0
:10E2A800F700CF14FC00D031FD00D1A8FD02D2E662
:10E2B800F701D3D3F602D4EFF600D5CCFB01D6177D
:10E2C800FA00D7FCFB00D8CFFE00D9EAFF02DA2219
:10E2D800F901DB4FF702DC90F700DD000001DEB644
:10E2E800F700DF1CFC00E034FE00E12DFE02E21620
:10E2F800F800E34EF902E40BF700E54CFC01E621D7
:10E30800FA00E704FC00E8AFFD00E93CFB02EAFE86
:10E31800F700EBDDFA02ECFDF600ED000001EE2B54
:10E32800FA00EF24FC00F053FF00F1B6FD02F238CA
:10E33800F900F3F9FF02F483F700F5D4FB01F62C9A
:10E34800FA00F70CFC00F84DFF00F9E6FA02FA2D86
:10E35800F900FBFCFF02FC76F700FD000001FECB94
:10E36800FA00FF2CFCF0000000C3BB000000000016
:10E378000000000000000000000000000000000095
:10E388000000000000000000000000000000000085
:10E398000000000000000000000000000000000075
:10E3A8000000000000000000000000000000000065
:10E3B8000000000000000000000000000000000055
:10E3C8000000000000000000000000000000000045
:10E3D8000000000000000000000000000000000035
:10E3E800000000000000000000424F4F543A206532
:10E3F80072726F7220626F6F74696E670D0A0043E4
:10E40800502F4D20626F6F742D6C6F6164657220A0
:10E41800666F72205A38302D53696D756C61746F50
:10E42800720D0A002196007ED30123B7C2BE0001F7
:10E438000100210000AFD30A78D30B79D30C7DD328
:10E448000F7CD310AFD30DDB0EB7CA0000C630D394
:10E45800013E0DD3013E0AD3012180007EB7CAFEDA
:10E4680000D30123C3F300F376D3AC18273100009F
:10E4780000D3AB00C30E00ED73AF0031AB00F5AFB6
:10E4880032B300C5D5E5DDE5FDE5ED7BAF00E12262
:10E49800AD0018D53AB300219A00B72803219C0093
:10E4A8004E2346ED4398002AB1007DB7B4282F11BA
:10E4B8000000060E1A77231310FA2AB1001104007F
:10E4C8001922AB001818000000000000000000D35B
:10E4D800AB00ED73AF0031AB00F53E0118A2DD2AA9
:10E4E800B1003EAADD77092AAF00DD7505DD7406A7
:10E4F8003A9E00DD770B319F00FDE1DDE1E1D1C1FE
:10E50800F1ED45ED4DED45C90000000000000000AB
:10E51800000000000400000000000000000095FA60
:10E5280000082700000032F0FBEEAAF702589A0113
:10E53800000011F681ECF6FF02589A010000000075
:10E5480000008CFA04725D010000B8EA1CEE7AFF44
:10E5580002C2A501000011F6EFEF6FFE00B626001B
:10E5680000003EF500007BFC02CCBC0100006FF609
:10E57800F5ED71FE022832010100F2F4D8EC82FCBC
:10E58800004A8D01000032F02DF138F502C4D9019E
:10E59800020042F72DED75FF00CAB90100002CF406
:10E5A8000000D3AD180500000000002A0400ED5B50
:10E5B80006003A0800477E12231310FA3E0018E2BC
:10E5C8003E00D3AD7618F9C9696F5F73746174281A
:10E5D80029203D3D20494F5F535441545F4E4F54CD
:10E5E8005F53544152544544207C7C20696F5F73CB
:10E5F8007461742829203D3D20494F5F535441548C
:10E608005F53544F50504544207C7C20696F5F73A2
:10E618007461742829203D3D20494F5F535441546B
:10E628005F494E544552525550544544207C7C20F5
:10E63800696F5F737461742829203D3D20494F5FDD
:10E64800535441545F50524550494E564F4B452004
:10E658007C7C20696F5F737461742829203D3D209C
:10E66800494F5F535441545F4D4F4E49544F5200E8
:10E67800696F5F737461742829203D3D20494F5F9D
:10E68800535441545F4E4F545F5354415254454480
:10E69800207C7C20696F5F737461742829203D3D5C
:10E6A80020494F5F535441545F53544F5050454491
:10E6B800207C7C20696F5F737461742829203D3D3C
:10E6C80020494F5F535441545F4D4F4E49544F5268
:10E6D800004449534B3A204F503D2530327820446E
:10E6E8002F542F533D25642F2533642F2533642061
:10E6F8002020202020202020202020414444523D5A
:10E708002530317825303278253032782028524427
:10E718002049474E4F524544290A0D004449534B5E
:10E728003A204F503D2530327820442F542F533D06
:10E7380025642F2533642F253364202020202020B2
:10E74800202020202020414444523D253031782586
:10E7580030327825303278202857522049474E4F9A
:10E76800524544290A0D0025733A204552524F520A
:10E778003A20492F4F20253573202533642C202536
:10E788003364202825303258482C20253032584808
:10E7980029207768696C652077616974696E6720DC
:10E7A800666F7220256420282530325848290A0DC2
:10E7B800004449534B3A204F503D2530327820448D
:10E7C8002F542F533D25642F2533642F2533642080
:10E7D800782533643D25356C6420414444523D25F9
:10E7E8003031782530327825303278202E2E2E2080
:10E7F80053543D253032780A0D004449534B3A2092
:10E808004F503D2530327820442F542F533D2564F6
:10E818002F2533642F25336420202020202020201A
:10E8280020202020414444523D2530317825303283
:10E838007825303278202E2E2E200A0D002F557381
:10E848006572732F74616B656D7572612F776F7266
:10E858006B73706163652F6769746875622F537590
:10E868007065724D455A38302F7372632F6D656D20
:10E878006F72792E6300534420436172643A2072A8
:10E888006561643531323A20435243206572726FB4
:10E898007220282530347820213D20253034782CEA
:10E8A8002072657472793D2564290A0D005741521A
:10E8B8004E494E473A206E6F204750494F206578A1
:10E8C80070616E64657220746F20636F6E74726F0E
:10E8D8006C20686967686572206164647265737327
:10E8E8000A0D002F55736572732F74616B656D7512
:10E8F80072612F776F726B73706163652F676974CC
:10E908006875622F53757065724D455A38302F738C
:10E9180072632F696F2E63005741524E494E473A32
:10E9280020746F6F206D616E792062616E6B732049
:10E938007265717565737465642E202872657175CA
:10E94800657374206973202564290A0D0074797031
:10E9580065202768656C702720746F2073656520B3
:10E96800746865206C697374206F662061766169CC
:10E978006C61626C6520636F6D6D616E64730A0D06
:10E9880000496D6167652066696C652025732F44B1
:10E998005249564525632E44534B206973206173B1
:10E9A8007369676E656420746F2064726976652088
:10E9B80025630A0D005741524E494E473A20756E5D
:10E9C8006B6E6F776E20492F4F20777269746520C0
:10E9D80025642C202564202825303258482C2025F1
:10E9E80030325848290A0D006469736B5F696F6398
:10E9F800746C3A20706472763D25642C20636D64D3
:10EA08003D25642C20627566663D3078256C783A21
:10EA1800207265733D25640A0D00534420436172DA
:10EA2800643A2020726561643531323A2061646449
:10EA3800723D25386C642C206F6666733D25642C06
:10EA480020636F756E743D25640A0D00534420439E
:10EA58006172643A2077726974653531323A20619F
:10EA68006464723D25386C642C206F6666733D259E
:10EA7800642C20636F756E743D25640A0D00534441
:10EA880020436172643A2077726974653531323A8D
:10EA9800206661696C656420746F206765742074F2
:10EAA8006F6B656E2C2074696D656F75740A0D0047
:10EAB8005B64726976655D5B2C747261636B5D5B28
:10EAC8002C736563746F725D5B2C6C656E6774681C
:10EAD8005D206F72205B64726976652C5D4C4241E3
:10EAE800004449534B3A20207265616420442F54F6
:10EAF8002F533D25642F2533642F25336420782533
:10EB080033643D25356C643A204552524F520A0D04
:10EB180000534420436172643A2077726974653502
:10EB280031323A2074696D656F75742C2072657383
:10EB3800706F6E736520697320253032780A0D0076
:10EB4800534420436172643A20434D4435382C20A5
:10EB580052333D2530327820253032782025303226
:10EB680078202530327820253032780A0D00257338
:10EB78003A204552524F523A20636C6F636B2073B0
:10EB880070656564202564206973206E6F74207336
:10EB98007570706F727465640A0D00534420436188
:10EBA80072643A20434D44382C2052373D25303288
:10EBB8007820253032782025303278202530327878
:10EBC80020253032780A0D004449534B3A202072F0
:10EBD80065616420442F542F533D25642F253364E9
:10EBE8002F25336420782533643D25356C643A201D
:10EBF8004F4B0A0D006469736B5F696F63746C3AFD
:10EC080020706472763D25642C20636D643D256414
:10EC18003A204E6F742068616E646C65642E0A0D2C
:10EC2800006469736B5F726561643A202070647276
:10EC3800763D25642C20736563746F723D256C6482
:10EC48002C20636F756E743D25640A0D006469732A
:10EC58006B5F77726974653A20706472763D2564DB
:10EC68002C20736563746F723D256C642C20636F70
:10EC7800756E743D25640A0D005472616E736C6183
:10EC88007465206D616368696E6520636F646520D3
:10EC98006F6E2074686520746172676574206D6595
:10ECA8006D6F727900534420436172643A20434384
:10ECB80053202843617264204361706163697479E9
:10ECC800205374617475732920697320300A0D000C
:10ECD800446973706C6179206F72206368616E6734
:10ECE800652073706563696669656420646562752B
:10ECF80067207661726961626C65005344204361E4
:10ED080072643A2077726974653531323A20435219
:10ED180043206572726F72202872657472793D257E
:10ED280064290A0D00577269746520627974652038
:10ED38006F7220737472696E6720746F20746865CF
:10ED480020746172676574206D656D6F7279005308
:10ED58004420436172643A204361726420706F7783
:10ED6800657220757020737461747573206269739D
:10ED780020697320300A0D0072656164204D42528B
:10ED880020706172746974696F6E207461626C6559
:10ED980020617420736563746F7220300A0D005708
:10EDA80041524E494E473A20756E6B6E6F776E2012
:10EDB800492F4F2072656164202564202825303250
:10EDC8005848290A0D00534420436172643A2020B0
:10EDD800726561643531323A20736563746F723DD0
:10EDE800256C643A204552524F520A0D004469730B
:10EDF800706C6179206461746120626C6F636B2848
:10EE080073292066726F6D2074686520534420430F
:10EE180061726400446973706C617920736563740E
:10EE28006F722873292066726F6D206469736B2076
:10EE3800696D6167652066696C65005344204361AC
:10EE480072643A2053444843206F72205344584315
:10EE580020636172642064657465637465640A0D77
:10EE68000025733A204552524F523A206D6F64651F
:10EE7800202564206973206E6F7420737570706F1D
:10EE8800727465640A0D00534420436172643A2029
:10EE9800696E697469616C697A65202E2E2E2073FB
:10EEA80075636365656465640A0D005344204361B6
:10EEB80072643A20756E6578706563746564207253
:10EEC8006573706F6E736520253032780A0D0053B4
:10EED8004420436172643A2020726561643531329E
:10EEE8003A20736563746F723D256C643A204F4B0A
:10EEF8000A0D0045786974206D6F6E69746F722011
:10EF0800616E6420636F6E74696E756520657865DF
:10EF1800637574696F6E00417373657274696F6E9F
:10EF2800206661696C65643A202573202825733A48
:10EF38002025733A202564290A005344204361722E
:10EF4800643A2041434D44343120726573706F6ECA
:10EF5800736520697320253032780A0D00534420E8
:10EF6800436172643A2077726974653531323A20A8
:10EF7800746F6B656E20697320253032780A0D0036
:10EF88004552524F523A2062616E6B2025642069C7
:10EF980073206E6F7420617661696C61626C652E96
:10EFA8000A0D00534420436172643A20434D4435AE
:10EFB8003920726573706F6E736520697320253010
:10EFC80032780A0D0053757065724D455A38302BEA
:10EFD8005350492077697468204750494F20657815
:10EFE80070616E64657200446973706C6179206445
:10EFF800617461206F6E2074686520746172676542
:10F0080074206D656D6F7279004D656D6F72792032
:10F01800303030303030202D202530366C584820A4
:10F028002564204B42204F4B0D0A007061727469B1
:10F0380074696F6E207374617274732061742073C5
:10F048006563746F7220256C640A0D005573652022
:10F058005241332065787465726E616C20636C6F01
:10F06800636B20666F72205A38300A0D005573653D
:10F07800204E434F20252E3266204D487A20666F59
:10F0880072205A383020636C6F636B0A0D00665F1C
:10F09800777269746528293A204552524F52207276
:10F0A80065733D25642C206E3D25640A0D00665F5E
:10F0B8007265616428293A204552524F5220726580
:10F0C800733D25642C206E3D25640A0D00696F5F31
:10F0D800696E766F6B655F7461726765745F637084
:10F0E800755F74656172646F776E006661696C65DF
:10F0F8006420746F20777269746520736563746F18
:10F108007220256C640A0D00696F5F696E766F6BFB
:10F11800655F7461726765745F6370755F7072654F
:10F128007061726500446973706C617920737461F1
:10F13800747573206F6620746865207461726765E2
:10F1480074006661696C656420746F20726561641F
:10F1580020736563746F7220256C640A0D000A0DB4
:10F16800534420436172643A20696E697469616C22
:10F17800697A65202E2E2E0A0D00436C6561722077
:10F18800627265616B706F696E74206174202530DE
:10F19800346C580A0D00534420436172643A20418C
:10F1A800434D4434312C2052313D253032780A0DFC
:10F1B800000A0D526573657420627920494F2070EA
:10F1C8006F72742025303258480A0D004661696C08
:10F1D800656420746F206F70656E2053442043610E
:10F1E80072642E2E0A0D004661696C656420746F86
:10F1F800206D6F756E7420534420436172642E0A2B
:10F208000D006661696C656420746F2072656164C5
:10F2180020736563746F7220300A0D000A0D48412F
:10F228004C5420627920494F20706F727420253029
:10F238003258480A0D0053657420627265616B701C
:10F248006F696E74206174202530346C580A0D0083
:10F258006469736B5F696E697469616C697A652842
:10F268002564292E2E2E0A0D005344204361726412
:10F278003A206E6F74207375706F70727465640ACB
:10F288000D00534420436172643A20434D44302CAE
:10F298002052313D253032780A0D002020202020D0
:10F2A8002020202020202020202020202020202056
:10F2B80020200D007761697420666F722070726F6C
:10F2C8006772616D6D6572202E2E2E0D00496E7667
:10F2D800616C696420617267756D656E743A202788
:10F2E8002573270A0D005354415455533A2025637A
:10F2F8002563256325632563256325632563002529
:10F30800732535337320434845434B53554D3A20B5
:10F31800253032780A0D00556E6B6E6F776E207649
:10F3280061726961626C6520272573270A0D0042A6
:10F338007265616B706F696E74206973206E6F748B
:10F34800207365740A0D004D656D6F727920303039
:10F3580030303030202D202530366C58480D007064
:10F368006879736963616C206472697665722021BB
:10F378003D20300A0D00416D626967756F75732015
:10F38800636F6D6D616E642025730A0D00665F6C96
:10F398007365656B28293A204552524F52202564DF
:10F3A8000A0D00427265616B706F696E7420697333
:10F3B800202530346C580A0D00556E6B6E6F776ED1
:10F3C80020636F6D6D616E643A2025730A0D0064C9
:10F3D800656275675F6661746469736B5F76657291
:10F3E800626F7365006E6F2046415433322070613E
:10F3F80072746974696F6E0A0D00665F73796E6363
:10F4080028293A204552524F522025640A0D006996
:10F418006F5F696E766F6B655F7461726765745F45
:10F4280063707500446973706C61792074686973DE
:10F43800206D6573736167650064656275675F73E6
:10F4480064636172645F766572626F7365005350BE
:10F45800495F494F4558505F636F6E6669677572BB
:10F46800650064656275675F6661746469736B5F84
:10F4780077726974650073697A656F66287061725E
:10F48800616D7329203D3D2035004D3A204D6F6E4A
:10F4980069746F722070726F6D70740A0D006E6FF0
:10F4A800204D4252207369676E61747572650A0D4A
:10F4B80000534420436172643A2074696D656F7526
:10F4C800740A0D00696E76616C69642064726976ED
:10F4D800652025640A0D007772697465205B616494
:10F4E80064725D2C76616C0A0D005B7661726961ED
:10F4F800626C655D5B3D76616C75655D0064656237
:10F5080075675F6661746469736B5F7265616400D7
:10F5180064656275675F6469736B5F766572626F55
:10F5280073650064656275675F7364636172645FC5
:10F5380077726974650052657374617274207468B7
:10F54800652073797374656D005F5F6D656D6370B9
:10F55800795F6F6E5F746172676574006E6F207695
:10F56800616C696420766F6C756D650A0D00534493
:10F5780020436172643A2072656164792E0A0D0035
:10F588007A38305F636C6F636B5F4E434F31494E1F
:10F59800430064656275675F7364636172645F7278
:10F5A8006561640025732069732073656C656374F5
:10F5B80065642E0A0D005350495F53445F636F6EB4
:10F5C800666967757265004D4D553A2062616E6BCC
:10F5D800202530325820200064656275675F6469B1
:10F5E800736B5F77726974650025733D256C6420C1
:10F5F80028256C5868290A0D00427265616B2061E4
:10F608007420253034580A0D005B616464725D5BB8
:10F618002C6C656E6774685D0064656275675F640D
:10F6280069736B5F726561640064656275675F64C6
:10F6380069736B5F6D61736B004E6F20626F6F74DF
:10F64800206469736B2E0A0D002A2B2C3A3B3C3D33
:10F658003E5B5D7C223F7F0053757065724D455A55
:10F6680038302B535049005B4C42415D5B2C6C6534
:10F678006E6774685D0025732F44524956452563AB
:10F688002E44534B004E6F20534420436172643F15
:10F698000A0D00696F5F776169745F7772697465D5
:10F6A8000025733D25642028255868290A0D006423
:10F6B800656275675F6661746469736B004C4420AA
:10F6C800484C2C28253034584829004F55542028B8
:10F6D8002530325848292C41004C442028484C29D0
:10F6E8002C25303258480043414C4C204E432C25A1
:10F6F800303458480043414C4C2050452C25303478
:10F7080058480043414C4C20504F2C253034584821
:10F718000043414C4C204E5A2C2530345848004C5C
:10F728004420282530345848292C484C0064656208
:10F7380075675F736463617264005B616464725DC2
:10F748002C76616C756500494E20412C2825303295
:10F75800584829004C4420412C2825303458482941
:10F76800004C4420282530345848292C4100434176
:10F778004C4C204D2C25303458480043414C4C20EB
:10F78800502C25303458480043414C4C20582C25E7
:10F79800303458480043414C4C205A2C25303458BA
:10F7A8004800646973617373656D626C65005342E8
:10F7B8004320412C25303258480041444320412CF5
:10F7C80025303258480041444420412C25303258D5
:10F7D80048004C442042432C2530345848004A50B5
:10F7E800204E432C2530345848004C442044452CA6
:10F7F8002530345848004A502050452C253034587C
:10F8080048004C4420484C2C2530345848004A5075
:10F8180020504F2C2530345848004C442053502C4D
:10F828002530345848004A50204E5A2C2530345838
:10F838004800426F6172643A2025730A0D007072A5
:10F848006F6772616D3A0A0D0049593A20253034C4
:10F85800580A0D000A0D2020202025730A0D0042A9
:10F86800433A202530345820200050433A20253090
:10F87800345820200044453A2025303458202000B0
:10F8880041463A2025303458202000484C3A20255B
:10F8980030345820200053503A2025303458202046
:10F8A8000049583A20253034582020006465627594
:10F8B800675F6469736B006C656E203C3D20323570
:10F8C800360053424320412C28484C2900414443E8
:10F8D80020412C28484C290041444420412C2848E8
:10F8E8004C29004C4420412C2530325848004C44C7
:10F8F80020422C2530325848004C4420442C2530D6
:10F90800325848004C4420482C253032584800438F
:10F91800414C4C202530345848004A5020432C256F
:10F9280030345848004A50204D2C2530345848006F
:10F938004A5020502C2530345848004A50205A2C20
:10F94800253034584800455820285350292C484C15
:10F958000045582041462C414627004C4420412C64
:10F9680028424329004C4420412C28444529004C76
:10F978004420412C28484C29004C4420422C28483B
:10F988004C29004C4420432C28484C29004C442046
:10F99800442C28484C29004C4420452C28484C2904
:10F9A800004C4420482C28484C29004C44204C2C1E
:10F9B80028484C29004C4420284445292C41004C17
:10F9C800442028484C292C41004C442028484C29E4
:10F9D8002C42004C442028484C292C4300414444E4
:10F9E80020484C2C4243004C442028484C292C44A5
:10F9F800004C442028484C292C45004144442048C8
:10FA08004C2C4445004C442028484C292C48005391
:10FA1800554220253032584800414E442025303286
:10FA2800584800584F52202530325848004C44203E
:10FA380028484C292C4C0041444420484C2C484C24
:10FA48000041444420484C2C5350004C4420432C43
:10FA580025303258004C4420452C25303258004C73
:10FA680044204C2C253032580025732530366C78CC
:10FA78003A00464154333220202000737461636B8E
:10FA88003A0A0D006469736B7265616400636F6E96
:10FA980074696E7565005355422028484C29004406
:10FAA80045432028484C2900494E432028484C29E2
:10FAB80000414E442028484C2900584F52202848DD
:10FAC8004C29004350202530325848004A50202500
:10FAD800303458480045582044452C484C004C4484
:10FAE8002053502C484C004A52204E432C25640089
:10FAF8004A52204E5A2C25640025643A2025730A60
:10FB08000D0053656C6563743A200043504D4449B9
:10FB1800534B53002573253034783A004572726F81
:10FB2800720A0D000D257325730A0D004350202815
:10FB3800484C29004A502028484C29005342432069
:10FB4800412C410041444320412C41004144442080
:10FB5800412C41004C442042432C41005342432055
:10FB6800412C420041444320412C4200414444205E
:10FB7800412C420053424320412C4300414443203E
:10FB8800412C430041444420412C430050555348E4
:10FB98002042430053424320412C44004144432027
:10FBA800412C440041444420412C4400534243200A
:10FBB800412C450041444320412C45004144442008
:10FBC800412C450050555348204445005055534852
:10FBD8002041460053424320412C480041444320E1
:10FBE800412C480041444420412C480052535420A1
:10FBF800303048005253542031304800525354207A
:10FC08003230480052535420333048005253542065
:10FC18003038480052535420313848005253542049
:10FC28003238480052535420333848005342432056
:10FC3800412C4C0041444320412C4C004144442079
:10FC4800412C4C005055534820484C004A52204300
:10FC58002C2564004A52205A2C256400444A4E5AE6
:10FC68002C25640043504D4449537E003C25643E96
:10FC78000A0D00736472656164007374617475734E
:10FC8800004C4420412C41004C4420422C41004C63
:10FC98004420432C41004C4420442C41004C442037
:10FCA800452C41004C4420482C41004C44204C2C0D
:10FCB80041004C4420412C42004C4420422C42003C
:10FCC8004C4420432C42004C4420442C42004C44D9
:10FCD80020452C42004C4420482C42004C44204CE7
:10FCE8002C42004C4420412C43004C4420422C43DD
:10FCF800004C4420432C43004C4420442C43004CEB
:10FD08004420452C43004C4420482C43004C4420BC
:10FD18004C2C430044454320424300494E43204273
:10FD28004300504F5020424300524554204E430058
:10FD38004C4420412C44004C4420422C44004C4468
:10FD480020432C44004C4420442C44004C4420457F
:10FD58002C44004C4420482C44004C44204C2C4457
:10FD6800004C4420412C45004C4420422C45004C7A
:10FD78004420432C45004C4420442C45004C44204E
:10FD8800452C45004C4420482C45004C44204C2C24
:10FD9800450044454320444500494E43204445001E
:10FDA800504F502044450052455420504500504F74
:10FDB80050204146004C4420412C48004C442042ED
:10FDC8002C48004C4420432C48004C4420442C48E8
:10FDD800004C4420452C48004C4420482C48004CFA
:10FDE80044204C2C48004C4420412C4C004C4420CE
:10FDF800422C4C004C4420432C4C004C4420442CB6
:10FE08004C004C4420452C4C004C4420482C4C00C1
:10FE18004C44204C2C4C0044454320484C00494E4F
:10FE28004320484C00504F5020484C005245542025
:10FE3800504F0044454320535000494E43205350EF
:10FE480000524554204E5A002530366C5820002068
:10FE580025303278006661743A20006275663A206F
:10FE6800000D2573200D00726573657400535542AB
:10FE7800204100444543204100494E432041004170
:10FE88004E44204100584F522041005355422042D1
:10FE980000444543204200494E43204200414E441D
:10FEA800204200584F5220420053554220430044FC
:10FEB8004543204300494E43204300414E442043DC
:10FEC80000584F5220430052455420430053554296
:10FED800204400444543204400494E432044004107
:10FEE8004E44204400584F52204400535542204568
:10FEF80000444543204500494E43204500414E44B7
:10FF0800204500584F522045005355422048004490
:10FF18004543204800494E43204800414E4420486C
:10FF280000584F52204800535542204C0044454346
:10FF3800204C00494E43204C00414E44204C005870
:10FF48004F52204C00524554204D005245542050E9
:10FF580000524554205A004A522025640025303268
:10FF680058200053443A20004D4F4E3E0068656CBF
:10FF7800700064756D70004350204100524C43413D
:10FF88000052524341004350204200435020430056
:10FF9800435020440043502045004350204800432C
:10FFA80050204C0048414C5400303A2F2F00696EC5
:10FFB80066006E616E006C6C73000D257300202561
:10FFC800730044414100524C4100525241004343A6
:10FFD80046005343460043504C004E4F5000524594
:10FFE8005400455858003F3F3F004D0A0D006469D2
:08FFF8000044490045490000E6
:020000040001F9
:1000000095C5D9F496C5DAF4DEC4F6F4DDC4F7F488
:10001000000EF86E0800F550250AD8A45EEF86F0B1
:1000200095C5D9F496C5DAF4DE2A000EDD22000E5D
:100030000601F06F000EEF6FEFC658F55268536877
:10004000000E0501A86F000E14D0588095C5D9F494
:1000500096C5DAF4DE2A000EDD2230D05882F6D7BB
:100060005884F4D75886F2D75888F0D7000EA86F76
:10007000010EA76F23D095C5D9F496C5DAF4DEC476
:10008000F6F4DDC4F7F4000EF86E0800F550996F31
:100090009A6B9A51000AD8A4E9D79951200AD8B48A
:1000A000E1D7030AD8B4E0D7080AD8B4D9D7060AEA
:1000B000D8B4CBD71D0AD8B4D1D7D8D7A751A81157
:1000C000D8B4D9D758B0589295C5D9F496C5DAF4B2
:1000D000DEC4F6F4DDC4F7F4000EF86E0800F55047
:1000E0002A0AD8A424D095C5D9F496C5DAF4DE2A14
:1000F000000EDD2297C5D9F498C5DAF4DFC499F56E
:10010000020EDE26DFC49AF5000EDD2299C5D9F471
:100110009AC5DAF4DEC4EFF6DDC4F0F60601F0AFFE
:1001200036D05880EF6DF01FD8B0F02B30D095C589
:10013000D9F496C5DAF4DEC40EF5DDC40FF58EEC05
:10014000F1F00EC5EFF60FC5F0F607D095C5D9F45E
:1001500096C5DAF4DE2A000EDD2295C5D9F496C5DF
:10016000DAF4DEC4F6F4DDC4F7F4000EF86E08002D
:10017000F5C499F5D00E050199259A6F9B6BFF0E7A
:100180009B239B5104E10A0E9A5DD8A0DFD795C549
:10019000D9F496C5DAF4DEC4F6F4DDC4F7F4000E43
:1001A000F86E0800F5502E0AD8A466D0000E536EE3
:1001B000000E526E95C5D9F496C5DAF4DE2A000E0B
:1001C000DD2295C5D9F496C5DAF4DEC4F6F4DDC4B3
:1001D000F7F4000EF86E0800F5502A0AD8A41CD0D7
:1001E00095C5D9F496C5DAF4DE2A000EDD2297C54E
:1001F000D9F498C5DAF4DFC499F5020EDE26DFC41F
:100200009AF5000EDD2299C5D9F49AC5DAF4DEC458
:1002100052F5DDC453F530D095C5D9F496C5DAF45E
:10022000DEC40EF5DDC40FF58EECF1F00EC552F50F
:100230000FC553F507D095C5D9F496C5DAF4DE2A73
:10024000000EDD2295C5D9F496C5DAF4DEC4F6F4C5
:10025000DDC4F7F4000EF86E0800F5C499F5D00E71
:10026000050199259A6F9B6BFF0E9B239B5104E11F
:100270000A0E9A5DD8A0DFD795C5D9F496C5DAF4F1
:10028000DEC4F6F4DDC4F7F4000EF86E0800F55095
:10029000630AD8A427D095C5D9F496C5DAF4DE2A26
:1002A000000EDD2297C5D9F498C5DAF4DFC499F5BC
:1002B000020EDE26DFC49AF5000EDD2299C5D9F4C0
:1002C0009AC5DAF4DF500501B36F93C514F594C5F0
:1002D00015F5B3C516F5C3EC03F014C593F515C5B4
:1002E00094F5120095C5D9F496C5DAF4DEC4B4F5D8
:1002F000DDC4B5F5B4C5F6F4B5C5F7F4000EF86E77
:100300000800F5C4B3F517D0B44BB52BB4C5F6F45B
:10031000B5C5F7F4000EF86E0800F550680AD8A4C9
:1003200035D0480EB36FB44BB52B30D0690E01D029
:10033000000EB36F2BD00501B351996F9A6B9A5190
:10034000000AD8A4F5D79951580AD8B4EFD73C0A77
:10035000D8B4ECD70C0AD8B4D7D7010AD8B4E6D7AA
:10036000050AD8B4E0D7020AD8B4E0D7010AD8B455
:10037000DDD71B0AD8B4D7D7010AD8B4D7D70D0A0E
:10038000D8B4D4D7020AD8B4CED7D2D7B4C5F6F4ED
:10039000B5C5F7F4000EF86E0800F550640AD8B43D
:1003A0009AD0B4C5F6F4B5C5F7F4000EF86E08009F
:1003B000F550690AD8B48FD0D1D097C5D9F498C573
:1003C000DAF4DFC499F5020EDE26DFC49AF5000EDA
:1003D000DD2299C5D9F49AC5DAF4DF50AB6F000E6F
:1003E000ABBFFF0EAC6F51D097C5D9F498C5DAF406
:1003F000DFC499F5040EDE26DFC49AF5000EDD2277
:1004000099C5D9F49AC5DAF4DEC49BF5DEC49CF52F
:10041000DEC49DF5DEC49EF59BC59FF59CC5A0F589
:100420009DC5A1F59EC5A2F5A36BA2BFA369A3C5F7
:10043000A4F5A3C5A5F5A3C5A6F59FC5ABF5A0C5B5
:10044000ACF5A1C5ADF5A2C5AEF5A3C5AFF5A4C584
:10045000B0F5A5C5B1F5A6C5B2F557D097C5D9F485
:1004600098C5DAF4DFC499F5020EDE26DFC49AF5EA
:10047000000EDD2299C5D9F49AC5DAF4DEC4ABF5D5
:10048000DDC4ACF5000EACBFFF0EAD6FAE6FAF6F4D
:10049000B06FB16FB26F39D097C5D9F498C5DAF49F
:1004A000DFC499F5020EDE26DFC49AF5000EDD22C8
:1004B00099C5D9F49AC5DAF4DEC49BF5DDC49CF580
:1004C0009BC5ABF59CC5ACF5AD6BAE6BAF6BB06BC4
:1004D000B16BB26B1AD0B351996F9A6B9A51000AF3
:1004E000D8A413D09951480AD8B467D7200AD8B4F1
:1004F000B5D7010AD8B4B2D7050AD8B475D7180A47
:10050000D8B4ACD70E0AD8B4C7D7010EB425996FAA
:10051000000EB5219A6F95C5D9F496C5DAF499C540
:10052000DEF49AC5DDF493C526F594C527F5ABC571
:1005300028F5ACC529F5ADC52AF5AEC52BF5AFC577
:100540002CF5B0C52DF5B1C52EF5B2C52FF5D3EC00
:10055000C7F026C593F527C594F51200B4C5F6F487
:10056000B5C5F7F4000EF86E0800F550780AD8B457
:1005700096D0B4C5F6F4B5C5F7F4000EF86E0800D1
:10058000F550580AD8B48BD0B4C5F6F4B5C5F7F415
:10059000000EF86E0800F5506F0AD8B480D0B4C5CC
:1005A000F6F4B5C5F7F4000EF86E0800F550750ABC
:1005B000D8B475D012D197C5D9F498C5DAF4DFC490
:1005C00099F5020EDE26DFC49AF5000EDD2299C5EC
:1005D000D9F49AC5DAF4DF509B6F9B51AB6FAC6BCB
:1005E00057D097C5D9F498C5DAF4DFC499F5040E4D
:1005F000DE26DFC49AF5000EDD2299C5D9F49AC52E
:10060000DAF4DEC49BF5DEC49CF5DEC49DF5DEC4E1
:100610009EF59B51AB6F9C51AC6F9D51AD6F9E5140
:10062000AE6F38D097C5D9F498C5DAF4DFC499F520
:10063000020EDE26DFC49AF5000EDD2299C5D9F43C
:100640009AC5DAF4DEC4ABF5DDC4ACF5000EACBF80
:10065000FF0EAD6FAE6FAF6FB06FB16FB26F39D0CD
:1006600097C5D9F498C5DAF4DFC499F5020EDE26F1
:10067000DFC49AF5000EDD2299C5D9F49AC5DAF4E3
:10068000DEC49BF5DDC49CF59BC5ABF59CC5ACF504
:10069000AD6BAE6BAF6BB06BB16BB26B1AD0B351CD
:1006A000996F9A6B9A51000AD8A413D09951480AAD
:1006B000D8B481D7200AD8B4D3D7010AD8B4D0D7B8
:1006C000050AD8B48ED7180AD8B4ACD70E0AD8B455
:1006D000C7D7010EB425996F000EB5219A6F95C545
:1006E000D9F496C5DAF499C5DEF49AC5DDF45AD08A
:1006F00093C526F594C527F5ABC528F5ACC529F5F6
:10070000ADC52AF5AEC52BF5AFC52CF5B0C52DF599
:10071000B1C52EF5B2C52FF5DDECDFF026C593F59A
:1007200027C594F5120093C526F594C527F5ABC5EA
:1007300028F5ACC529F5ADC52AF5AEC52BF5AFC575
:100740002CF5B0C52DF5B1C52EF5B2C52FF541EC90
:10075000D7F026C593F527C594F5120093C526F565
:1007600094C527F5ABC528F5ACC529F5ADC52AF567
:10077000AEC52BF5AFC52CF5B0C52DF5B1C52EF521
:10078000B2C52FF5B4C5F6F4B5C5F7F4000EF86E92
:100790000800F5C430F52DECCEF026C593F527C53D
:1007A00094F51200B4C5F6F4B5C5F7F4000EF86E72
:1007B0000800F550996F9A6B9A51000AD8A40DD091
:1007C0009951580AD8B4CAD7370AD8B491D71A0A57
:1007D000D8B4A9D70D0AD8B4C1D7B4C5F6F4B5C5F5
:1007E000F7F4000EF86E0800F5506E0AD8B408D180
:1007F00035D197C5D9F498C5DAF4DFC499F5020E5E
:10080000DE26DFC49AF5000EDD2299C5D9F49AC51B
:10081000DAF4DEC49BF5DDC49CF59BC5F6F49CC5FB
:10082000F7F4000EF86E250EF76407D022C7F5F432
:100830000D0023C7F5F40C0001D0D9D0FBD097C52B
:10084000D9F498C5DAF4DFC499F5020EDE26DFC4C8
:100850009AF5000EDD2299C5D9F49AC5DAF4DEC402
:100860009BF5DDC49CF59BC5F6F49CC5F7F4000E22
:10087000F86E250EF76407D022C7F5F40D0023C7E4
:10088000F5F40C0001D0B3D0D5D097C5D9F498C5F4
:10089000DAF4DFC499F5020EDE26DFC49AF5000E05
:1008A000DD2299C5D9F49AC5DAF4DEC49BF5DDC41E
:1008B0009CF59BC5F6F49CC5F7F4000EF86E250E6A
:1008C000F76404D022C7F5F40C0006D0F6C4E9F4AE
:1008D000F7C4EAF422C7EFF4ADD022C799F523C7D5
:1008E0009AF5000E9ABFFF0E9B6F9C6F97C5D9F4C7
:1008F00098C5DAF4DFC49DF5020EDE26DFC49EF54E
:10090000000EDD229DC5D9F49EC5DAF4DEC49FF544
:10091000DDC4A0F59FC5F6F4A0C5F7F4000EF86E8F
:10092000250EF7640DD099C5F5F40D009AC5F5F4C0
:100930000D009BC5F5F40D009CC5F5F40C000CD022
:10094000F6C4E9F4F7C4EAF499C5EEF49AC5EEF4F6
:100950009BC5EEF49CC5EFF46DD097C5D9F498C54E
:10096000DAF4DFC499F5020EDE26DFC49AF5000E34
:10097000DD2299C5D9F49AC5DAF4DEC49BF5DDC44D
:100980009CF59BC5F6F49CC5F7F4000EF86E250E99
:10099000F76407D022C7F5F40D0023C7F5F40C0067
:1009A00001D025D047D097C5D9F498C5DAF4DFC473
:1009B00099F5020EDE26DFC49AF5000EDD2299C5F8
:1009C000D9F49AC5DAF4DEC49BF5DDC49CF59BC569
:1009D000F6F49CC5F7F4000EF86E250EF76407D008
:1009E00022C7F5F40D0023C7F5F40C0008D0F6C4B7
:1009F000E9F4F7C4EAF422C7EEF423C7EFF41AD0FF
:100A0000B351996F9A6B9A51000AD8A413D0995197
:100A1000480AD8B43AD7200AD8B411D7010AD8B4B2
:100A2000E8D6050AD8B459D7180AD8B496D70E0A0A
:100A3000D8B4B9D7010E0501B425996F000EB521C0
:100A40009A6F95C5D9F496C5DAF499C5DEF49AC5BE
:100A5000DDF4000E946F000E936F120095C5D9F46B
:100A600096C5DAF4DEC4F6F4DDC4F7F4000EF86ED1
:100A70000800F550730AD8B416D095C5D9F496C5B8
:100A8000DAF4DEC408F5DDC409F5BE0E0A6EFF0E09
:100A90000B6E000E0D6E030E0C6E31ECF6F008506E
:100AA0000910D8A440D095C5D9F496C5DAF4DEC4AF
:100AB000F6F4DDC4F7F4000EF86E0800F550730A82
:100AC000D8B405D0000E0501AA6F030E04D0000EA5
:100AD0000501AA6F010EA96F95C5D9F496C5DAF480
:100AE000A951DE26AA51DD2293C514F594C515F54A
:100AF00097C5D9F498C5DAF4DFC499F5020EDE265D
:100B0000DFC49AF5000EDD2299C5D9F49AC5DAF44E
:100B1000DEC416F5DDC417F56AECEAF014C593F5EA
:100B200015C594F5120095C5D9F496C5DAF4DEC45E
:100B3000B4F5DDC4B5F5B4C5F6F4B5C5F7F4000EEB
:100B4000F86E0800F5C4B3F508D0B44BB52B18D037
:100B50006C0E01D0000EB36F13D00501B351996F25
:100B60009A6B9A51000AD8A4F5D799514C0AD8B477
:100B7000ECD72A0AD8B4ECD70A0AD8B4E6D7EAD711
:100B8000B4C5F6F4B5C5F7F4000EF86E0800F550DC
:100B9000660AD8B41AD064D097C5D9F498C5DAF4E7
:100BA000DFC499F5040EDE26DFC49AF5000EDD22BF
:100BB00099C5D9F49AC5DAF4DEC4ABF5DEC4ACF558
:100BC000DEC4ADF5DEC4AEF50ED0B351996F9A6BAD
:100BD0009A51000AD8A407D099514C0AD8B4DCD74E
:100BE000200AD8B4D9D7010EB425996F000EB521CB
:100BF0009A6F95C5D9F496C5DAF499C5DEF49AC50D
:100C0000DDF41CD093C560F594C561F5ABC562F504
:100C1000ACC563F5ADC564F5AEC565F5B4C5F6F410
:100C2000B5C5F7F4000EF86E0800F5C466F5A1EC42
:100C30008CF060C593F561C594F51200B4C5F6F467
:100C4000B5C5F7F4000EF86E0800F550996F9A6B71
:100C50009A51000AD8A404D09951660AD8B4D2D7C0
:100C600095C5D9F496C5DAF4DEC4F6F4DDC4F7F41C
:100C7000000EF86E0800F550250AD8A417D095C5C7
:100C8000D9F496C5DAF4DE2A000EDD22000E0C6ED1
:100C9000250E0B6E93C50DF594C50EF5D7EC02F03D
:100CA000000E0501946F010E936F120095C5D9F4E3
:100CB00096C5DAF4DE2A000EDD22CBD695C5D9F42E
:100CC00096C5DAF4DEC4F6F4DDC4F7F4000EF86E6F
:100CD0000800F5500B6E0C6A93C50DF594C50EF522
:100CE000D7EC02F095C5D9F496C5DAF4DE2A000EE9
:100CF000DD22D6D7C1ECFBF001D80BD00500FA6E8F
:100D00000701D551FD6ED651FE6ED751FF6EFA50D8
:100D10001200D8A01200000E0901F06F000EEF6F54
:100D200001D80BD00500FA6E0801E551FD6EE651C1
:100D3000FE6EE751FF6EFA5012000901F46F01D800
:100D40000BD00500FA6E0801E251FD6EE351FE6E14
:100D5000E451FF6EFA5012000901F76F01D80BD071
:100D60000500FA6E0701D251FD6ED351FE6ED451CB
:100D7000FF6EFA501200D8A006D0000E07013B6F9C
:100D8000280E3A6F63D2000E07013B6F1E0E3A6FBA
:100D900001D8CDD00500FA6EDE51FD6EDF51FE6E3A
:100DA000E051FF6EFA50000E120007013851391160
:100DB000D8B405D001D8D5D00500FA6EAFD001D88F
:100DC000D0D00500FA6ECF51FD6ED051FE6ED151DC
:100DD000FF6EFA50000E1200EBEC11F0DDEC08F0A3
:100DE0000901EA6F01D8BDD00500FA6E0701CF51A5
:100DF000FD6ED051FE6ED151FF6EFA500901EA51DD
:100E0000120007012E512F11D8B427D0120E2E5DDB
:100E10000601D46F090E07012F590601D56FD5BF02
:100E200006D0D5511AE1800ED45DD8B016D001D8C5
:100E300010D00500FA6E0701CF51FD6ED051FE6E45
:100E4000D151FF6EFA502EC7D9F42FC7DAF4DF5014
:100E5000120007012E4B2F2B84D007017151D8A40B
:100E600009D07251D8A406D07351D8A403D07451BC
:100E7000D8B477D0D90E0501BE6FE60EBF6FF7C6A6
:100E8000C0F5C16BF9C6C2F5C36BF8C6C4F5C56B36
:100E900030C7C6F531C7C7F556C5C8F557C5C9F53A
:100EA000F5C6CAF5CB6BF6C6CCF5CD6BD7EC11F019
:100EB00058D001D856D00500FA6E0701CF51FD6E0B
:100EC000D051FE6ED151FF6EFA500601FD51120055
:100ED00001D847D00500FA6E0701CF51FD6ED05101
:100EE000FE6ED151FF6EFA50BEEC13F01200A70E49
:100EF0000501BE6FED0EBF6FF4C9C0F5C16BF4C93B
:100F0000C2F5C36BD7EC11F0000E0601F46F010EB1
:100F1000F36F01D826D00500FA6E0701CF51FD6EA0
:100F2000D051FE6ED151FF6EFA50FF0E1200090132
:100F3000F4510601D46FD56BD551000AD8A4D7D788
:100F4000D451000AD8B431D7010AD8B445D7090A18
:100F5000D8B457D7060AD8B4ACD7AE0AD8B4B8D7E5
:100F6000C6D70601F351F411D8A4BAEC12F001D897
:100F70000CD00500FA6E0601FA51FD6EFB51FE6EB3
:100F8000FC51FF6EFA50000E120001D80BD0050084
:100F9000FA6E0701CC51FD6ECD51FE6ECE51FF6E43
:100FA000FA50120001D80CD00500FA6E0701C951A1
:100FB000FD6ECA51FE6ECB51FF6EFA50010E12004B
:100FC00001D80BD00500FA6E0701C651FD6EC7515E
:100FD000FE6EC851FF6EFA501200D8A0F1D701D8AA
:100FE0000CD00500FA6E0701DE51FD6EDF51FE6E7A
:100FF000E051FF6EFA50FF0E12000601F351F4119A
:10100000D8A4A3D18DEF8CF00901F7516EEC0DF04F
:101010002A4B2B2B53D107012E512F11D8B42ED090
:10102000120E2E5D0601D46F090E07012F5906011D
:10103000D56FD5BF06D0D55121E1800ED45DD8B093
:101040001DD02EC7D9F42FC7DAF4F7C9DFF4070192
:101050002E4B2F2B120E2E5D0601D46F090E0701A9
:101060002F590601D56F800ED419D511D8A426D1D9
:10107000000E0901F06F010EEF6F20D107017151D1
:10108000D8A409D07251D8A406D07351D8A403D0E3
:101090007451D8B413D1240E0501BE6FE70EBF6F93
:1010A000F7C6C0F5C16BF9C6C2F5C36BF8C6C4F587
:1010B000C56B30C7C6F531C7C7F556C5C8F557C5A6
:1010C000C9F5F5C6CAF5CB6BF6C6CCF5CD6BD7EC3A
:1010D00011F0F4D0F7C9F9F6F1D0F7C9F8F6EED06F
:1010E000000E070130150601D46FFF0E0701311500
:1010F0000601D56F0901F7510601D4110701306FC0
:101100000601D55116D00901F7510601D56FD46BF0
:10111000FF0E070130150601D66F000E07013115CD
:101120000601D76FD451D6110701306F0601D55192
:10113000D7110701316FC2D0F7C9F7F6030EF719BF
:10114000D8A406D0120E07012E6F090E2F6F05D0FE
:10115000000E0901F06F010EEF6F07017251D8B454
:1011600008D00601F751D8B410D0020EF719D8B440
:101170000CD007017351D8B4A1D00601F705D8B43B
:1011800004D0030EF719D8A499D007017451D8B42C
:1011900095D0F9C6D4F6010E0601D56F000ED66FB4
:1011A000D42B03D0D890D537D637D42FFBD707010F
:1011B00075510601D517070176510601D617D5518D
:1011C000D611D8A47BD0020E0501BE6FE80EBF6F0A
:1011D000F7C6C0F5C16BF9C6C2F5C36BF8C6C4F556
:1011E000C56B30C7C6F531C7C7F556C5C8F557C575
:1011F000C9F5F5C6CAF5CB6BF6C6CCF5CD6BD7EC09
:1012000011F05CD0F7C9F6F659D0F7C9F5F656D00B
:101210000901F751AAEC0BF051D0BD0E0501BE6FCC
:10122000E90EBF6FF4C9C0F5C16BF7C9C2F5C36B56
:10123000F4C9C4F5C56BF7C9C6F5C76BD7EC11F097
:10124000000E0601F46F010EF36F38D00901F4515E
:101250000601D46FD56BD551000AD8A4DED7D4517E
