:0400000081EF00F09C
:10000800DC08DC08DC08DC084000DC084000DC0810
:10001800DC08DC08DC08DC08DC08DC08DC08DC08B8
:10002800DC08400040004000DC08DC08DC08DC0894
:10003800DC08DC08DC08DC08DC08DC08DC08DC0898
:10004800DC08DC08DC08DC0840004000DC08DC08D0
:10005800DC08DC08DC084000DC08DC08DC08DC081C
:10006800DC08DC08DC08DC08DC08DC08DC08DC0868
:10007800DC08DC08DC08DC084000DC08DC08DC08FC
:10008800DC08DC08DC08DC08DC08DC08DC08DC0848
:10009800DC08DC08DC08DC084000DC084000400024
:1000A800DC08DC08DC08DC08DC08DC08DC08DC0828
:1000B800DC08DC08DC08DC08DC08DC08DC08DC0818
:1000C800DC08DC08DC08DC08DC08DC08DC08DC0808
:1000D800DC08DC08DC08DC08DC08DC08DC08DC08F8
:1000E8004000DC08DC08DC0840004000400040001C
:1000F800DC08DC08DC08DC08FF00F0EFFCF00A3460
:100108000B34116E1150D8A409D0000E086E000EE1
:10011800096E000E0A6E000E0B6E120008C50CF573
:1001280009C50DF50AC50EF50BC50FF5200E05D04E
:10013800D8900F320E320D320C32E82EF9D70C500F
:10014800106E0A8EFF0E0816FF0E0916FF0E0A160D
:10015800000E0B16960E115E11AE0DD01150800ACE
:10016800970FD8A0D2D7D8900B320A32093208326A
:10017800113EF9D70DD01F0E116407D0C6D7D890FD
:10018800083609360A360B3611061150D8A4F7D7A7
:100198001050D8B408D00B1E0A1E091E086C000E99
:1001A80009220A220B2208C508F509C509F50AC55E
:1001B8000AF50BC50BF5120020EE03F00850D926FE
:1001C8000950DA22DF500C6E0C50116E126A136A55
:1001D800146A20EE02F00850D9260950DA22DF50BE
:1001E8000C6E0C5011C50EF512C50FF513C510F5A0
:1001F8000D6A0D10116E0E50126E0F50136E1050C6
:10020800146E20EE01F00850D9260950DA22DF508A
:100218000C6E0C5011C50EF512C50FF513C510F56F
:100228000D6A0D10116E0E50126E0F50136E105095
:10023800146E08C5D9F409C5DAF4DF500C6E0C50F9
:1002480011C50EF512C50FF513C510F50D6A0D1081
:10025800116E0E50126E0F50136E1050146E11C5A1
:1002680008F512C509F513C50AF514C50BF51200F2
:10027800000E06013F6F20EE2CF03551D92636517D
:10028800DA223751DE180AE13851DE1807E1395110
:10029800DE1804E13A51DE18D8B43FD035C623F64B
:1002A80036C624F603ECE3F006013F6F3F51D8A4AD
:1002B80034D0300E3525196F000E36211A6F37C627
:1002C8001BF638C61CF639C61DF63AC61EF6000ED1
:1002D800206F010E1F6F20EE01F03551D9263651DF
:1002E800DA22DF506FECECF00009D8B407D0060131
:1002F8003769386939693A69010E3F6F060120EE9E
:100308002CF03551D9263651DA2237C6DEF438C6F4
:10031800DEF439C6DEF43AC6DEF43F51120010505E
:100328001110121013101410151016101710D8B43D
:100338003CD0010E186E0AD0D890103611361236FD
:1003480013361436153616361736182A17AEF4D75C
:100358001050085C1150095812500A5813500B5885
:1003680014500C5815500D5816500E5817500F5859
:10037800D8A010D01050085E1150095A12500A5ACD
:1003880013500B5A14500C5A15500D5A16500E5A39
:1003980017500F5AD89017321632153214321332BA
:1003A800123211321032182ED3D708C508F509C5F4
:1003B80009F50AC50AF50BC50BF50CC50CF50DC5F5
:1003C8000DF50EC50EF50FC50FF512000AC513F58C
:1003D8000BC514F50C501324116E0D501420126E19
:1003E80041D008C50EF509C508F50EC509F513C5B0
:1003F800D9F414C5DAF4DF500E6E0E50081A134AF9
:10040800142A08C50EF509C50FF5040E106ED8900C
:100418000F320E32102EFBD70F0E0E16000E0F16CF
:100428000E50081A0F50091A08C50EF509C50FF520
:100438000C0ED8900E360F36E82EFBD70E50081A41
:100448000F50091AFF0E08140E6E000E09140F6ED5
:10045800050ED8900E360F36E82EFBD70E50081A28
:100468000F50091A1150135C12501458D8A0B9D75C
:1004780008C508F509C509F51200A5C6D8F5A6C628
:10048800D9F5A90E0501DA6F060EDB6F7BECFEF0DD
:100498000601AB6FAB51D8A444D0A751A811D8A47A
:1004A8000FD0A5C65AF6A6C65BF6000E5C6F000E06
:1004B8005D6F000E5E6F000E5F6FDFECC2F030D034
:1004C800A5C698F6A6C699F6000E9B6F000E9A6F01
:1004D800BEECF0F0AB6F040EAB19D8A402D0000E3E
:1004E800AB6FAB51D8A41DD0A5C615F5A6C616F599
:1004F800A7C617F5A8C618F504ECD7F0A5C67EF66A
:10050800A6C67FF6000E0601816F000E806F06EC0E
:10051800BBF00601AB6F040EAB19D8A402D0000ED5
:10052800AB6FAB51120008C510F509C511F50AC526
:1005380012F50BC513F507D00C06D8A00D06104A06
:10054800112A124A132A0C500D10D8B41AD010C50B
:10055800D9F411C5DAF4DF500E6E12C5F6F413C5DE
:10056800F7F4000EF86E250EF76403D00800F55076
:1005780005D0F6C4E9F4F7C4EAF4EF500E18D8B47D
:10058800DBD70C500D10D8A405D0000E096E000E54
:10059800086E120010C5D9F411C5DAF4DF500E6EDA
:1005A80012C5F6F413C5F7F4000EF86E250EF764BD
:1005B80003D00800F55005D0F6C4E9F4F7C4EAF40E
:1005C800EF500F6E0F500E5C086E096AD8A009062E
:1005D8001200256E00C72DF501C72EF525504009DC
:1005E800266E22C527F521C528F520C529F51FC582
:1005F8002AF5260E086E050E096E000E0B6E050E06
:100608000A6E15EC0BF001092B6E2DC50CF52EC5E5
:100618000DF5FAEC12F02DC512F52EC513F5000EE6
:10062800156E010E146ED8EC0CF02DC508F52EC50C
:1006380009F5260E0A6E050E0B6E000E0D6E060EDF
:100648000C6E1CEC0AF002C719F503C71AF5FF0E69
:1006580087EC11F02C6E23C5D9F424C5DAF42CC527
:10066800DFF42C28D8A405D0000E206E010E1F6ED2
:100678001200000E206E000E1F6E12000D500E109C
:10068800D8B404D00D500E10D8A404D00B50B8EC38
:1006980013F0120020EE09F00D50D9260E50DA2280
:1006A800DE50DE10D8B416D020EE09F00D50D92651
:1006B8000E50DA2210EE03F00D50E1260E50E22221
:1006C800DE50E65CE650800A136EDE50800A13584E
:1006D800D8B0120020EE03F00D50D9260E50DA22C1
:1006E800DEC40FF5DDC410F50DC5D9F40EC5DAF476
:1006F800DEC411F5DDC412F50F501124D96E105067
:100708001220DA6E0BC5DFF420EE03F00D50D92667
:100718000E50DA22DE2A000EDD221200F729F81127
:10072800D8A457EC0CF02650286E2750296E2A6A58
:100738002B6A29C52BF528C52AF5296A286A660E69
:1007480028241A6E000E29201B6E000E2A201C6E0B
:10075800000E2B201D6E740E1E6E080E1F6E000EEE
:10076800216E030E206E19EC07F02650286E2750D4
:10077800296E2A6A2B6A29C52BF528C52AF5296A04
:10078800286A660E28241A6E000E29201B6E000E99
:100798002A201C6E000E2B201D6E0A0E1E6EE40E03
:1007A8001F6E000E216E030E206EDDEC06F026C5CE
:1007B800F7F727C5F8F7120007011D511E11D8A435
:1007C80005D01DC71AF51EC71BF506D0FF0E1D253F
:1007D8001A6EFF0E1E211B6E58A009D016C50BF508
:1007E8000C6A14C50DF515C50EF542EC03F01BAEE9
:1007F80004D0000E1B6E000E1A6E000E196E000E4D
:10080800186E0CD0000E0C6E200E0B6E14C50DF574
:1008180015C50EF542EC03F0184A192A1A50185C4F
:100828001950800A176E1B50800A1758D8A0EAD7AB
:1008380058B009D016C50BF50C6A14C50DF515C5C9
:100848000EF542EC03F0010E1824146E000E192068
:10085800156E12000A6EAF0EF66EDD0EF76E000E04
:10086800F86E0900F5500A5CD8A03CD0B00EF66EC0
:10087800DD0EF76E000EF86E0A500900F55CD8A080
:1008880005D0000E096E010E086E1200B10EF66E4C
:10089800DD0EF76E000EF86E0900F5500A5CD8A060
:1008A8000BD0B20EF66EDD0EF76E000EF86E0A5023
:1008B8000900F55CD8B0E5D7B30EF66EDD0EF76E1D
:1008C800000EF86E0900F5500A5CD8A00BD0B40EE3
:1008D800F66EDD0EF76E000EF86E0A500900F55C34
:1008E800D8B0CFD7000E096E000E086E120058A0BF
:1008F8000AD01DC514F51EC515F51BC516F51CC572
:1009080017F56CEC10F020BE05D01FC524F520C5E6
:1009180025F504D0000E256E000E246E000E236E01
:10092800000E226E0CD0000E0C6E200E0B6E1BC536
:100938000DF51CC50EF542EC03F0224A232A24507B
:10094800225C2350800A216E2550800A2158D8A0A5
:10095800EAD758B00AD01DC514F51EC515F51BC534
:1009680016F51CC517F56CEC10F01DC508F51EC56D
:1009780009F56FEC0FF0245008241B6E2550092050
:100988001C6E12000501DD6F010E0501DE6F10D02F
:10099800000EDE6F23D0190EBE6FEB0EBF6FDDC5E4
:1009A800C0F5C16BD8C5C2F5C36B68EC12F016D0A0
:1009B800D851DB6FDC6BDC51000AD8A4ECD7DB51D3
:1009C800000AD8B4E5D7010AD8B4E5D7030AD8B4E1
:1009D800E2D7010AD8B4DFD7070ADDD70601EF51FD
:1009E800F011D8B416D0DD0E0501BE6FE80EBF6F4A
:1009F800DDC5C0F5C16BD8C5C2F5C36BD9C5C4F593
:100A0800DAC5C5F5C66BC76BDEC5C8F5C96B68EC3A
:100A180012F00501DE511200F929FA11D8A413D0F9
:100A28009C0E0501D86FEC0ED96F2E0EDA6FE70E0B
:100A3800DB6F000EDD6FC00EDC6FD00EDE6FF30EC5
:100A4800DF6F3CEC11F0F9C72AF5FAC72BF5000E59
:100A58002D6EB70E2C6E0AEC11F0F9510501E06FFE
:100A68000701FA510501E16FE26BE36BE1C5E3F5BC
:100A7800E0C5E2F5E16BE06BE0C51AF5E1C51BF5F1
:100A8800E2C51CF5E3C51DF59F0E1E6EE20E1F6E36
:100A9800000E216EB70E206EDDEC06F0000E070189
:100AA800406F000E3F6F1200000E0814106E000E0B
:100AB8000914116E800E0A14126E7F0E0B14136E39
:100AC8001050111012101310D8A408D0000E086E80
:100AD800000E096E000E0A6E000E0B6E000E0C144E
:100AE800106E000E0D14116E800E0E14126E7F0E15
:100AF8000F14136E1050111012101310D8A408D030
:100B0800000E0C6E000E0D6E000E0E6E000E0F6EB7
:100B18000C5008180AE10D50091807E10E500A1880
:100B280004E10F500B18D8B402D0D8901200D88026
:100B38001200000E0D6E000E0C6E08016451D8B440
:100B480002D0010E01D0000E0C126551D8A40C82FF
:100B58006651D8A40C846751D8A40C860CC508F536
:100B68000DC509F557EC13F0000E0D6E000E0C6E56
:100B780008016851D8B402D0010E01D0000E0C1241
:100B88006951D8A40C826A51D8A40C846B51D8A49A
:100B98000C860CC508F50DC509F564EC13F06CC896
:100BA80043F46DC844F46EC845F46CC843F46DC88A
:100BB80044F46EC845F412000DC7C2F60EC7C3F65A
:100BC8000FC7C4F610C7C5F6BEC6D9F4BFC6DAF457
:100BD800DE50DE10D8B421D0BEC6D9F4BFC6DAF4D0
:100BE800DEC4C0F6DDC4C1F6C0C6D9F4C1C6DAF4A5
:100BF800DF50D8B412D0BEC6D9F4BFC6DAF4DEC40A
:100C080038F5DDC439F5AEECDDF038C5C2F639C5C6
:100C1800C3F63AC5C4F63BC5C5F6C4C6D8F5C5C6BD
:100C2800D9F5A7ECF9F0C2C660F7C3C661F7000EA4
:100C38000601BD6F010EBC6F1200000E106E000E93
:100C4800116E000E126E000E136E0C500D100E1069
:100C58000F10D8B42AD0010E146E06D0D8900C36D6
:100C68000D360E360F36142A0FAEF8D7D890103638
:100C78001136123613360C50085C0D5009580E50B8
:100C88000A580F500B58D8A009D00C50085E0D50C8
:100C9800095A0E500A5A0F500B5A1080D8900F322A
:100CA8000E320D320C32142EE1D710C508F511C5DD
:100CB80009F512C50AF513C50BF51200080E000157
:100CC800B16F000E0401006F000E086F000E106F68
:100CD800000E186F209120932095000E086F000ECB
:100CE800106FC292CA92010E0201D56FA00ED46F86
:100CF800D189D18BC68E070E766FBE8CC69C260E08
:100D0800076FD28FBE94C694C284CA94000EBF6E79
:100D1800000EC76E000EC06E000EC86E3F0E046F48
:100D2800C696320E0401436F330E446F030E456FAF
:100D3800000E476F4691468F12000701F929FA11F4
:100D4800D8A4D3EC0BF02EC52AF52FC52BF5000E31
:100D58002D6EA60E2C6E0AEC11F02E50306E2F5010
:100D6800316E326A336A31C533F530C532F5316ACE
:100D7800306A660E30241A6E000E31201B6E000E8B
:100D880032201C6E000E33201D6E0A0E1E6EE40EFD
:100D98001F6E000E216E2A0E206EDDEC06F02EC5A9
:100DA800F9F72FC5FAF7000E0701406F010E3F6FE4
:100DB80012001AC514F51BC515F51CC516F51DC579
:100DC80017F501D80BD00500FA6E0701E051FD6E4A
:100DD800E151FE6EE251FF6EFA50120001D80CD0BC
:100DE8000500FA6E0701E651FD6EE751FE6EE85107
:100DF800FF6EFA50000E12001AC50EF51BC50FF54E
:100E08001EC510F51FC511F520C512F521C513F52E
:100E180001D812000500FA6E0701E351FD6EE45196
:100E2800FE6EE551FF6EFA5012001AC514F51BC587
:100E380015F51CC516F51DC517F501D80BD005000D
:100E4800FA6E0701E051FD6EE151FE6EE251FF6E50
:100E5800FA50120001D80CD00500FA6E0701E651CD
:100E6800FD6EE751FE6EE851FF6EFA50FF0E12005C
:100E78001AC50EF51BC50FF51EC510F51FC511F5D2
:100E880020C512F521C513F501D812000500FA6E28
:100E98000701DD51FD6EDE51FE6EDF51FF6EFA5027
:100EA80012001A0E1124086E000E1220096E50EC62
:100EB80010F008C517F509C518F5196A1A6A0FC59B
:100EC800D9F410C5DAF4030EDE18D8A41CD0140E19
:100ED8001124086E000E1220096E50EC10F0085014
:100EE800136E0950146E156A166A14C516F513C5E3
:100EF80015F5146A136A1350171214501812155066
:100F0800191216501A1217C50FF518C510F519C57C
:100F180011F51AC512F51200F5C5D8F5F6C5D9F5BB
:100F2800F7C5DAF5F8C5DBF5F9C5DCF5FAC5DDF581
:100F3800BCECF4F0000EFF6FF7C5FBF5F8C5FCF547
:100F4800000EFE6F000EFD6F0AD0FBC5D9F4FCC57C
:100F5800DAF4DF50FF27FB4BFC2BFD4BFE2BF9513E
:100F6800FD5DFA51FE59D8A0F0D7670EBE6FF20E9C
:100F7800BF6FF5C5C0F5F6C5C1F5550EC26FEF0ECA
:100F8800C36FFFC5C4F5C56B68EC12F01200376E6D
:100F980000C738F501C739F533C53CF534C53DF50B
:100FA8002FC51FF530C520F531C521F532C522F50D
:100FB8003CC523F53DC524F53750EDEC02F01FC5BF
:100FC8003AF520C53BF53A503B10D8B403D02BEC8A
:100FD80012F0120038C508F539C509F5010E3C2490
:100FE8000A6E000E3D200B6EFF0E35240C6EFF0EB0
:100FF80036200D6E40ECC9F02BEC12F01200070100
:10100800F929FA11D8A4D3EC0BF02EC52AF52FC56F
:101018002BF5000E2D6EB70E2C6E0AEC11F02E502B
:10102800306E2F50316E326A336A31C533F530C5B0
:1010380032F5316A306A30C51AF531C51BF532C54B
:101048001CF533C51DF59F0E1E6EE20E1F6E000EB9
:10105800216EB70E206EDDEC06F02EC5F9F72FC510
:10106800FAF7000E0701406F000E3F6F12000A6E7C
:10107800AB0EF66EDD0EF76E000EF86E0900F55039
:101088000A5CD8A026D0AC0EF66EDD0EF76E000E08
:10109800F86E0A500900F55CD8A005D0000E096E5C
:1010A800010E086E1200AD0EF66EDD0EF76E000E24
:1010B800F86E0900F5500A5CD8A00BD0AE0EF66E9B
:1010C800DD0EF76E000EF86E0A500900F55CD8B018
:1010D800E5D7000E096E000E086E1200BE920EC50E
:1010E80018F50FC519F518C5BFF4000E176E000ED8
:1010F800166E23D0BE9A16501024146E1750112065
:10110800156E14C5F6F415C5F7F4000EF86E250E25
:10111800F76404D0D0C4F5F40C0006D0F6C4E9F4A2
:10112800F7C4EAF4D0C4EFF4BE8A182A18C5BFF48D
:101138001850D8B4192A164A172A1250165C135098
:101148001758D8A0D7D7BE8212005151D8B426D08C
:10115800C60E0501BE6FF00EBF6F09C7C0F50AC7FE
:10116800C1F50BC7C2F50CC7C3F568EC12F009C787
:101178003DF60AC73EF60BC73FF60CC740F6760E9B
:101188000601416F070E426F000E446F010E436F58
:101198003EECDFF0000E0701516F07D0970E0501F6
:1011A800BE6FF20EBF6F68EC12F0000E0601BD6F45
:1011B800000EBC6F1200BE920EC518F50FC519F5CA
:1011C80018C5BFF4000E176E000E166E22D0C2901E
:1011D80016501024146E17501120156E14C5F6F40D
:1011E80015C5F7F4000EF86E250EF76403D0080055
:1011F800F55005D0F6C4E9F4F7C4EAF4EF50C06E30
:10120800C280182A18C5BFF41850D8B4192A164A2B
:10121800172A1250165C13501758D8A0D8D7BE8278
:101228001200D69E070133513411D8B41FD0B00E26
:101238003125D96E0A0E3221DA6EDF500E6E010E9C
:101248003125086E000E3221096E000E0B6E500E0D
:101258000A6E91EC0FF008C531F709C532F733076C
:10126800D8A03407A780D68E0E50120045514611DB
:10127800D8B403D0D68E000E1200D68E150E0D6E81
:10128800C60EE82EFED70D2EFCD700D0CAD708C54B
:10129800D9F409C5DAF40AC5DFF4084A092A0B505B
:1012A8000A6E0C500B6E0D500C6E0D6A08C5D9F401
:1012B80009C5DAF40AC5DFF4084A092A0B500A6E90
:1012C8000C500B6E0D500C6E0D6A08C5D9F409C58B
:1012D800DAF40AC5DFF4084A092A0B500A6E0C50E2
:1012E8000B6E0D500C6E0D6A08C5D9F409C5DAF4F9
:1012F8000AC5DFF4084A092A120010C5F6F411C518
:10130800F7F4000EF86E0800F5500C6E0D6A15EC37
:1013180012F00CC517F50DC518F5104A112A12C59B
:10132800D9F413C5DAF4DF50146E14500C6E0D6A3C
:1013380015EC12F00CC515F50DC516F5124A132A51
:101348001550171808E116501818D8A404D01750CB
:101358001810D8A4D2D71550175C106E165018580C
:10136800116E12000C500D100E100F10D8B424D0AE
:10137800010E106E06D0D8900C360D360E360F368C
:10138800102A0FAEF8D70C50085C0D5009580E50B3
:101398000A580F500B58D8A008D00C50085E0D50B2
:1013A800095A0E500A5A0F500B5AD8900F320E3263
:1013B8000D320C32102EE7D708C508F509C509F516
:1013C8000AC50AF50BC50BF5120056500501E46F66
:1013D8005750E56FE66BE76BE5C5E7F5E4C5E6F55D
:1013E800E56BE46B900EE4251A6E000EE5211B6E8A
:1013F800000EE6211C6E000EE7211D6E520E1E6EB9
:10140800070E1F6E000E216E160E206E19EC07F0E7
:1014180007016105D8B007D0020E656F000E646F32
:1014280010EC05F01200000E656F000E646F1200DC
:101438000AC510F50BC511F50C500D10D8B41200E3
:101448000DC590F00CC58FF010C5D9F411C5DAF4AC
:10145800DF5000018E6F104A112A000E0F6E010E28
:101468000E6E0ED010C5D9F411C5DAF4DF508E6FA8
:10147800104A112AB3A0FED700018D510E4A0F2A37
:101488000C500E5C0D500F58D8A0ECD7B3A0FED767
:1014980000018D5112005151D8B412002AC52CF503
:1014A800010E2D6E000E2E6E2C2A03D0D8902D36EC
:1014B8002E362C2EFBD7070139512D163A512E16F0
:1014C8002D502E10D8A412002AC522F52BC523F5BD
:1014D800C3EC0EF02AC52CF5010E2D6E000E2E6EF3
:1014E8002C2A03D0D8902D362E362C2EFBD72D50F3
:1014F800070139132E503A131200B8C5BCF5B9C507
:10150800BDF5000E07011C6F000E1B6F17D0B6C586
:1015180093F5B7C594F5BC0E0501956F050E966F4A
:10152800BAC597F5BBC598F590EC87F005019351BE
:1015380007011B270501945107011C23BCC5F6F4BC
:10154800BDC5F7F4000EF86E0800F5500009D8A4E0
:10155800DED7000E0501B76F000EB66F120004D07B
:10156800084A092A0A4A0B2A08C5D9F409C5DAF42F
:10157800DF500C6E0AC5F6F40BC5F7F4000EF86ED2
:101588000800F5500C18D8A407D008C5D9F409C527
:10159800DAF4DF50D8A4E4D708C5D9F409C5DAF4D9
:1015A800DF500C6E0AC5F6F40BC5F7F4000EF86EA2
:1015B8000800F5500C5C086E096AD8A009061200EC
:1015C8002450415D25504259D8B012002250266E51
:1015D8002350276E286A296A27C529F526C528F5C4
:1015E800276A266A415126241A6E425127201B6E0B
:1015F800000E28201C6E000E29201D6E000E4125AD
:101608001E6E0B0E42211F6E4151245C206E42510A
:101618002558216E19EC07F024C541F725C542F776
:101628001200000E106E08C511F509C512F50A5012
:1016380011240C6E0B5012200D6E1CD011C5D9F45C
:1016480012C5DAF4DF50101A114A122A000E0F6E72
:10165800000E0E6E10AE02D0890E101AD8901036F9
:101668000E4A0F2A0FBEF6D70F5004E1080E0E5C83
:10167800D8A0F0D70C50115C0D501258D8A0DED766
:1016880010501200BEC6D9F4BFC6DAF4DE50DE1020
:10169800D8B41ED0BEC6D9F4BFC6DAF4DEC4C0F6CC
:1016A800DDC4C1F6C0C6D9F4C1C6DAF4DF50D8B477
:1016B8000FD0BEC6D9F4BFC6DAF4DEC438F5DDC42F
:1016C80039F5AEECDDF038C53DF739C53EF704D045
:1016D800000E3E6F010E3D6F000E0601BD6F000E3D
:1016E800BC6F12005650226E5750236E246A256A2A
:1016F80023C525F522C524F5236A226AA10E2224D2
:101708001A6E000E23201B6E000E24201C6E000E85
:1017180025201D6E520E1E6E070E1F6E000E216EC6
:10172800160E206E19EC07F007016105D8B005D038
:10173800020E656F000E646F1200000E656F000EDA
:10174800646F12000D6E020E0001D56F000ED66F89
:101758000DB004D0000E0A6E250E03D0000E0A6EDE
:10176800240E096E09C5DAF0800ED66F030ED56F08
:10177800000ED66F0DC508F5D890083208B004D011
:10178800000E0C6E250E03D0000E0C6E240E0B6E90
:101798000BC5DAF0800ED66F000ED56F1200070168
:1017A800F929FA11D8B41200F951226EFA51236EB0
:1017B800246A256A23C525F522C524F5236A226AE9
:1017C80022C51AF523C51BF524C51CF525C51DF52D
:1017D800000E1E6E0B0E1F6E41C720F542C721F585
:1017E800DDEC06F0000E0701FA6FF969000E426F92
:1017F800000E416F1200516E0701FC51D8B404D09D
:10180800AA0E5118D8A41200AA0E5118D8A403D0B1
:10181800000EFC6F120051AC0CD0190E0501BE6F02
:10182800F10EBF6F000EC16FA00EC06F68EC12F012
:10183800FF0051AE1200840E0501BE6FF10EBF6F9E
:10184800000EC16FA00EC06F68EC12F0FFD70BBE80
:1018580007D00B500A1009101DE10804D8B01AD09F
:1018680008C50CF509C50DF50AC50EF50BC50FF52C
:101878000C1E0D1E0E1E0F1E0C2A000E0D220E220F
:101888000F220CC508F50DC509F50EC50AF50FC5DB
:101898000BF5120008C508F509C509F50AC50AF5CA
:1018A8000BC50BF51200F729F811D8B41200F7513F
:1018B800226EF851236E246A256A23C525F522C5B0
:1018C80024F5236A226A660E22241A6E000E23204B
:1018D8001B6E000E24201C6E000E25201D6E740E3B
:1018E8001E6E080E1F6E000E216E030E206EDDECBC
:1018F80006F0000E0701F86FF7691200516E51509B
:10190800D8B40ED00601EF51F011D8B407D0DF0ECD
:101918000501BE6FF20EBF6F68EC12F0020E1200E6
:101928000701E92914E1EA2912E1EB2910E1EC2980
:10193800D8A40DD00601EF51F011D8B4EFD7090E95
:101948000501BE6FF50EBF6F68EC12F0E7D7000E09
:101958001200000E106E000E116E000E126E000EB8
:10196800136E08A008D00C5010260D5011220E50EE
:1019780012220F501322D8900C360D360E360F3621
:10198800D8900B320A3209320832085009100A106E
:101998000B10D8A4E6D710C508F511C509F512C56E
:1019A8000AF513C50BF51200186812C508F513C51A
:1019B80009F533EC0EF0000E176E000E166E10D0FF
:1019C80012C508F513C509F5180E0A6E050E0B6E3B
:1019D800000E0D6E010E0C6E1CEC0AF0164A172A4A
:1019E8001450165C15501758D8A0EAD712C508F538
:1019F80013C509F588EC10F012002B0E0501BE6F17
:101A0800E70EBF6F68EC12F01C0EBE6FF20EBF6FD0
:101A180068EC12F0110E0501D96F3C0ED86FCB0E91
:101A2800E82EFED7D82FFCD7D92FFAD7030E0501F9
:101A3800BE6FF20EBF6F68EC12F02B0EBE6FE70E92
:101A4800BF6F68EC12F01200C20ED16F050ED26F94
:101A5800BEC5C6F5BFC5C7F5000ECA6F000EC96F73
:101A6800000ED06F000ECF6FC60EB66F050EB76FA3
:101A7800C0C5B8F5C1C5B9F5D10EBA6F050EBB6FB3
:101A880081EC0AF0C951BE25D96ECA51BF21DA6E60
:101A9800000EDF6E1200066ED69E070134511AE161
:101AA800500E335DD8B016D033513125016E345104
:101AB8003221026E000E046E500E036ED3EC0FF04E
:101AC800B00E0124D96E0A0E0220DA6E06C5DFF4C4
:101AD800334B342B345103E1400E335DD8B0A7901B
:101AE800D68E1200010E146E200E0E10106E000E0F
:101AF8000F10116E9F0E1024126EFF0E1120136E20
:101B0800135004E11A0E125CD8A00ED0D00E0E2489
:101B1800106EFF0E0F20116E115004E10A0E105CBA
:101B2800D8A002D0000E146E14C50EF50F6A12006C
:101B38000D6ED69E0701305104E1500E2F5DD8A0DE
:101B480004D0B7A2FED7C2EC0DF02F512D25086E98
:101B580030512E21096E000E0B6E500E0A6E91EC5C
:101B68000FF0600E0824D96E0A0E0920DA6E0DC532
:101B7800DFF42F4B302BA782D68E12001DD0600EBB
:101B88002D25D96E0A0E2E21DA6EDF500201C96F9B
:101B9800010E07012D25086E000E2E21096E000E7C
:101BA8000B6E500E0A6E91EC0FF008C52DF709C5A3
:101BB8002EF72F07D8A0300707012F513011D8B4BE
:101BC8001200B7A21200DBD71DD0600E2D25D96EEA
:101BD8000A0E2E21DA6EDF500201C96F010E0701CD
:101BE8002D25016E000E2E21026E000E046E500E81
:101BF800036ED3EC0FF001C52DF702C52EF72F07A2
:101C0800D8A0300707012F513011D8B41200B7A25D
:101C18001200DBD7F4EC0FF0000E0001D56F000EB8
:101C2800D66F000ED86F7F0ED96F7F0EDA6F7F0EDA
:101C3800DB6F010EDC6F000EDD6F000EDE6F000E35
:101C4800DF6F820ED76F8C0ED66F000ED46FAE9AF0
:101C58009E9A010E0201056FBE84C282120008C559
:101C68000AF509C50BF520EE02F00A50D9260B50EB
:101C7800DA22DF50D8A410D0340E02011B6F350EC3
:101C88001A6F20EE03F00A50D9260B50DA22C8C486
:101C9800DFF4C992C994C98620EE02F00A50D92609
:101CA8000B50DA22DF2A120012D008C5D9F409C570
:101CB800DAF4DFC40AF5010EDE26DFC40BF5000EE8
:101CC800DD220AC5D9F40BC5DAF4000EDF6E08C5AB
:101CD800D9F409C5DAF4DEC40AF5DDC40BF50AC582
:101CE800D9F40BC5DAF4200EDE18D8A41200DDD71B
:101CF800286E756C6C29001A0000001A0000001A82
:101D08000000001A000000000000000000000000B1
:101D1800000000000000008000000080000000803B
:101D2800000000800000000000000000000000002B
:071D38000000006440000000
:101D400049ECF8F05650386E5750396E3A6A3B6A93
:101D500039C53BF538C53AF5396A386A38C50EF5E4
:101D600039C50FF53AC510F53BC511F501D812007C
:101D70000500FA6E0701DA51FD6EDB51FE6EDC5193
:101D8000FF6EFA5012002250246E2350256E266AF0
:101D9000276A25C527F524C526F5256A246A080E75
:101DA00024241A6E000E25201B6E000E26201C6EA9
:101DB000000E27201D6EA70E1E6EE20E1F6E000E77
:101DC000216E060E206EDDEC06F01200000E251AC4
:101DD000000E261A000E271A800E281A21C508F5B3
:101DE00022C509F523C50AF524C50BF525C50CF553
:101DF00026C50DF527C50EF528C50FF5E7ECBFF094
:101E000008C521F509C522F50AC523F50BC524F53A
:101E1000120008C5F6F409C5F7F4000EF86E0800C4
:101E2000F5500A18D8A405D008C508F509C509F564
:101E3000120008C5F6F409C5F7F4084A092A000E8D
:101E4000F86E0800F5500009D8A4E3D7000E086E1C
:101E5000000E096E1200CC0E0601CC6F180ECD6F6D
:101E6000B00ECE6FFF0ECF6F010ED06F7EECFAF08A
:101E70000009D8B40DD04F0E0501BE6FF10EBF6F33
:101E800068EC12F0FF0E0601D96FFE0ED86F12003B
:101E9000000ED96F000ED86F12000AC511F50BC5E0
:101EA00012F508C50FF509C510F510D011C5D9F404
:101EB00012C5DAF4DF500E6E114A122A0FC5D9F49A
:101EC00010C5DAF40EC5DFF40F4A102A0C06D8A0AC
:101ED0000D060C28EBE10D28D8B41200E7D708C591
:101EE0000AF509C50BF502D0084A092A08C5F6F417
:101EF00009C5F7F4000EF86E250EF76403D008004C
:101F0000F55005D0F6C4E9F4F7C4EAF4EF5000093F
:101F1000D8A4EAD70A50085C086E0B500958096E1D
:101F200012000A500B10D8B418D0010E0C6E04D059
:101F3000D8900A360B360C2A0BAEFAD70A50085C3A
:101F40000B500958D8A004D00A50085E0B50095A0B
:101F5000D8900B320A320C2EF1D708C508F509C506
:101F600009F512001A0E0E24086E000E0F20096EDD
:101F700010C50AF511C50BF554EC12F00CC5D9F4D7
:101F80000DC5DAF4030EDE18D8A41200140E0E24C8
:101F9000086E000E0F20096E12C50AF513C50BF569
:101FA00054EC12F0120003500410D8B418D0010EF3
:101FB000056E04D0D89003360436052A04AEFAD74D
:101FC0000350015C04500258D8A004D00350015EB5
:101FD0000450025AD89004320332052EF1D701C5BD
:101FE00001F502C502F5120004010969C76811690B
:101FF000C8680181C6800183C682018BC68A21819F
:10200000CA80BE88C698550E596FAA0E596F59914D
:10201000080E5D6F000E5E6F000E5F6F550E596FFC
:10202000AA0E596F598112000701D751D811D91141
:10203000D8B40DD001D812000500FA6ED751FD6E4C
:10204000D851FE6ED951FF6EFA50000E1200F60EF6
:102050000501BE6FF20EBF6FFA0EC06FF30EC16FB7
:1020600068EC12F012000AC50CF50BC50DF508C599
:102070000EF509C50FF50CC5F6F40DC5F7F40C4ABD
:102080000D2A000EF86E0EC5D9F40FC5DAF40E4A0B
:102090000F2A0800F5C4DFF4DF50D8B41200EBD7E4
:1020A00020EE01F00850D9260950DA22DF500A6EDE
:1020B0000A500D6E0E6A08C5D9F409C5DAF4DF506E
:1020C0000A6E0D500B6E0A500D6E0BC50EF50DC548
:1020D00008F50EC509F51200000E1A6E000E196EF5
:1020E0000BD018C50BF50C6A16C50DF517C50EF506
:1020F00042EC03F0194A1A2A19501424D96E1A50C6
:102100001520DA6EDF50186E1850D8B41200E9D7D7
:1021100008C50AF509C50BF520EE02F00A50D926CC
:102120000B50DA22DF06DF50D8A41200000E0201A5
:102130001B6F000E1A6F20EE03F00A50D9260B50C9
:10214000DA22DF50C86E120008C50AF509C50BF582
:1021500020EE02F00A50D9260B50DA22000EDF6E74
:10216000000E0001916F000E926F1A0E02016D6F4A
:102170001B0E6E6FC9900001918F12000701D7519D
:10218000D811D911D8B40DD001D80BD00500FA6EF2
:10219000D751FD6ED851FE6ED951FF6EFA50010E27
:1021A000120056C52EF557C52FF5A1EC06F012000A
:1021B00007D008C5D9F409C5DAF4DE2A000EDD22FD
:1021C00008C5D9F409C5DAF4DEC40AF5DDC40BF597
:1021D0000AC5D9F40BC5DAF4200EDE18D8A4120013
:1021E000E8D732C515F533C516F534C517F535C52D
:1021F00018F536C519F537C51AF5000E1B6EB8EC83
:10220000BCF015C532F516C533F517C534F518C53C
:1022100035F512002A500701F91903E12B50FA197C
:10222000D8A4D3EC0BF02AC522F52BC523F52CC579
:1022300024F52DC525F5E4EC0AF0000E0701406FEA
:10224000010E3F6F120008500910D8B40DD0000ED7
:10225000C76EC19CC99CC19EC99EBE82BE8AC280F7
:10226000C692C69ACA901200C768C98CC98EC8683F
:10227000C682C68ACA801200640EBE6FEE0EBF6FA1
:10228000D8C5C0F5D9C5C1F5DAC5C2F5DBC5C3F5FA
:10229000DEC5C4F5DFC5C5F5DCC5C6F5DDC5C7F5CA
:1022A00068EC12F016EC14F012001BBE05D01B50A7
:1022B00010E11A04D8B00DD01AC51CF51BC51DF5C8
:1022C0001C1E1D1E1C4A1D2A1CC51AF51DC51BF50A
:1022D00012001AC51AF51BC51BF51200010E0C6E73
:1022E000200E08180910D8B40ED0F70E08240A6E74
:1022F000FF0E09200B6E0B5004E1050E0A5CD8A0FE
:1023000002D0000E0C6E0CC508F5096A12001B6E97
:1023100000C71CF501C71DF51CC516F51DC517F531
:10232000E9EC12F01E6E1B501E18D8A407D0190637
:10233000D8A01A0619501A10D8A4EED71E501200B1
:10234000200E08100A6E000E09100B6E9F0E0A2454
:102350000C6EFF0E0B200D6E0D5006E11A0E0C5C7C
:10236000D8B002D0010E01D0000E086E096A12002A
:10237000B7A00ED0C7C207F50750D8B404D0075095
:102380004FEC0DF005D0000E0701466F010E456FB2
:10239000E8EC0DF02F513011D8A41100A7921100D4
:1023A000E3C5D8F5E4C5D9F5E50EDA6F050EDB6FA8
:1023B0007BECFEF0E76FE751D8A41200E3C5D9F437
:1023C000E4C5DAF4000EDE6E000EDD6E1200D851A8
:1023D0000701435D4451800A516E0501D951800ABD
:1023E0005158D8B012000D0EBE6FE80EBF6FD8C5A1
:1023F000C0F5D9C5C1F568EC12F0120008500910FB
:102400000A100B10D8B408D0000E081A000E091AD2
:10241000000E0A1A800E0B1A08C508F509C509F541
:102420000AC50AF50BC50BF512009F0E0C240E6EA3
:10243000FF0E0D200F6E0F5009E11A0E0E5CD8B082
:1024400005D05F0E0C140C6E0D6A12000CC50CF555
:102450000DC50DF5120000C719F501C71AF519C50C
:102460000CF51AC50DF50BEC13F019C512F51AC5CC
:1024700013F5000E156E010E146ED8EC0CF0120060
:1024800014C50EF515C50FF516C510F517C511F5D0
:1024900001D812000500FA6EDA51FD6EDB51FE6EB6
:1024A000DC51FF6EFA50120008C5D9F409C5DAF400
:1024B0000AC5DFF4084A092A0BC50AF50B6A08C5E4
:1024C000D9F409C5DAF40AC5DFF4084A092A12006A
:1024D000C00E0501D66F050ED76F000EB66F000E49
:1024E000B76FBEC5B8F5BFC5B9F5D60EBA6F050E44
:1024F000BB6F81EC0AF012000CD0050E096E0F0EB6
:10250000086EF10EE82EFED7082EFCD7092EFAD75A
:1025100000F007012F513011D8B41200EED7085047
:102520000A02F3C40CF5F4C40DF508500B02F35085
:102530000D2609500A02F3500D260CC508F50DC5ED
:1025400009F512009F0E08240A6EFF0E09200B6E7B
:102550000B5006E11A0E0A5CD8B002D0010E01D071
:10256000000E086E096A1200BF0E08240A6EFF0EE4
:1025700009200B6E0B5006E11A0E0A5CD8B002D08F
:10258000010E01D0000E086E096A1200D00E082458
:102590000A6EFF0E09200B6E0B5006E10A0E0A5C54
:1025A000D8B002D0010E01D0000E086E096A1200E8
:1025B0000AC508F50BC509F501D812000500FA6E29
:1025C0000801DF51FD6EE051FE6EE151FF6EFA50E1
:1025D0001200186816C508F517C509F5180E0A6E19
:1025E000050E0B6E000E0D6E010E0C6E40ECC9F068
:1025F000185012000CC508F50DC509F533EC0EF0A6
:102600000CC508F50DC509F5000E0B6E010E0A6E1E
:10261000C0EC13F012000CC508F50DC509F5000E4D
:102620000B6E000E0A6EC0EC13F00CC508F50DC55C
:1026300009F588EC10F012004C51126E136A10501C
:10264000121804E111501318D8B4120010C54CF739
:102650004C51A6EC0BF012009CECFFF001D81200DC
:102660000500FA6E0801DC51FD6EDD51FE6EDE5193
:10267000FF6EFA5012000701D751D811D911D8B402
:1026800006D056C526F557C527F592EC03F014EC95
:1026900010F0120001D812000500FA6E0801D9519D
:1026A000FD6EDA51FE6EDB51FF6EFA501200EFC67E
:1026B0000AF5F0C60BF508C5EFF609C5F0F60AC530
:1026C00008F50BC509F5120054C50AF555C50BF5FB
:1026D00008C554F509C555F50AC508F50BC509F532
:1026E0001200FFFFFFFF70080100FFFF0F0065FFF2
:1026F000FF00FF0001FFCF0185EC13F00AC508F5CC
:102700000BC509F53BEC14F0120001D04B07070193
:102710004B51800A7F0FD8A01200F8D7000E086E28
:10272000C00E096EFF0E0A6EFF0E0B6E1200000E39
:10273000086E000E096E210E0A6E000E0B6E12005E
:102740009E0E0701186F140E196F000E1A6F1200FB
:10275000AEBA1200070145514611D8A41200F8D7AD
:10276000086E0804D8A412000001D785D79512007E
:102770000A6E7CEC12F0B7A2FED70AC5C9F21200AD
:102780000A500B10D8A402D0C1801200C1901200D0
:10279000FF00000E0601BD6F000EBC6F1200086E38
:1027A00008A002D0C2821200C2921200086E08A0D5
:1027B00002D0C2841200C294120056C52EF557C52D
:1027C0002FF503EC08F01200086E08A002D0BE88B6
:1027D0001200BE981200086E08A002D0BE8412003B
:1027E000BE941200000E0701366F0A0E356F1200FC
:1027F000000E0601BD6F010EBC6F1200086E08C509
:10280000F1F70701F26B1200AEBA02D0D8901200B5
:10281000D8801200CEBA02D0D8901200D880120010
:10282000CEB002D0D8901200D8801200FF0E0B6EEE
:102830000A687CEC13F01200D2B002D0D8901200DB
:10284000D880120035C708F536C709F51200000E0A
:10285000096E08681200086E08C5C0F41200086E00
:1028600008C5C8F41200AE9A1200D0501200CF5022
:082870001200FC511200FFD719
:10DD6400008EF86A0700EBF56B0700BAF56C070044
:10DD7400BDF46D0700FBF56E070191F6640800AA77
:10DD8400F46508000FF466080066F36708000FF7EF
:10DD940068080051F5690800D0F46A0800E5F36BDF
:10DDA40008002DF56C0802819FE0FC407E80FC0099
:10DDB4000090002900A10010000000E1FF0201B45E
:10DDC400F700024AFB000318FD000494FE00058ED0
:10DDD400FE0106D0F8000783FF000847F90009D3C5
:10DDE400F9000A51F9000B11FD000CB2FE000DAC54
:10DDF400FE010E41FA000F88FF011052FC0211CC03
:10DE0400F70012ABF9001396FD0014D6FE0015D0EE
:10DE1400FE0116DBF80017CDFF011854FF0019F1BD
:10DE2400F9001A5BF9001B8FFD001CF4FE001DEEC7
:10DE3400FE011E4BFA001FD1FF0120E6FA0221E485
:10DE4400F7022201F700231BFE002412FF00250C19
:10DE5400FF0126E6F80027C9FF01284AFC00292D06
:10DE6400FA022A9FF6002B14FE002C30FF002D2A04
:10DE7400FF012E55FA002FDDFF0130DDFA0231FCDF
:10DE8400F7023243F7003337FE00349EFA0035952B
:10DE9400FA0136BBF60037D9FF013842FC003937A6
:10DEA400FA023A36F7003B30FE003C76FE003D7045
:10DEB400FE013EC5F8003FD5FF0040B6FC0041E737
:10DEC400FC004234FD004365FD0044B9FD0045EA11
:10DED400FD00466FF9004785FC0048BDFC0049EE93
:10DEE400FC004A3BFD004B6CFD004CC0FD004DF1B5
:10DEF400FD004E79F9004F8CFC0050C4FC0051F534
:10DF0400FC005242FD005373FD0054C7FD0055F858
:10DF1400FD005683F9005793FC0058CBFC0059FCD4
:10DF2400FC005A49FD005B7AFD005CCEFD005DFFFC
:10DF3400FD005E8DF9005F9AFC0060D2FC00610375
:10DF4400FD006250FD006381FD0064D5FD0065069F
:10DF5400FE006697F90067A1FC0068D9FC00690A15
:10DF6400FD006A57FD006B88FD006CDCFD006D0D43
:10DF7400FE006EA1F9006FA8FC0070BFF90071C922
:10DF8400F90072DDF90073E7F90074FBF9007523F9
:10DF9400FA0076ABFF0077B5F90078AFFC0079E0C2
:10DFA400FC007A2DFD007B5EFD007CB2FD007DE36C
:10DFB400FD007E65F9007F7EFC008062FB00817AB3
:10DFC400FB00829AFB0083B2FB0084DAFB008532FB
:10DFD400FC0086BAF8008742FB00885AFB0089726D
:10DFE400FB008A92FB008BAAFB008CD2FB008D2ADB
:10DFF400FC008EAFF8008F3AFB009088FE0091A6DB
:10E00400FE0092CAFE0093E8FE009406FF009524E9
:10E01400FF00968CFA00976AFE009852FB00996AFA
:10E02400FB009A8AFB009BA2FB009CCAFB009D227A
:10E03400FC009EA4F8009F32FB00A09AFE00A1B849
:10E04400FE00A2DCFE00A3FAFE00A418FF00A53621
:10E05400FF00A6A7FA00A77CFE00A8A0FE00A9BEA8
:10E06400FE00AAE2FE00AB00FF00AC1EFF00AD3CC8
:10E07400FF00AEB0FA00AF82FE00B0A1FE00B1BF57
:10E08400FE00B2E3FE00B301FF00B41FFF00B53D84
:10E09400FF00B6B1FA00B783FE00B88DFF00B99255
:10E0A400FF00BA97FF00BB9CFF00BCA1FF00BDA608
:10E0B400FF00BE22FB00BF7EFF00C03EFE00C11F6A
:10E0C400FD02C208F802C3C2FA02C4F3F600C58214
:10E0D400FB01C6A8F700C7E2FB00C84EFF00C9E574
:10E0E400FF02CA1DF900CB000002CC77F702CDF184
:10E0F400F801CE9CF700CF02FC00D026FD00D19D94
:10E10400FD02D2C0F701D3ADF602D4C9F600D5BAE8
:10E11400FB01D605FA00D7EAFB00D8C4FE00D9E912
:10E12400FF02DAFCF801DB29F702DC6AF700DD0004
:10E134000001DE90F700DF0AFC00E029FE00E12286
:10E14400FE02E2F0F700E328F902E4E5F600E53A1E
:10E15400FC01E60FFA00E7F2FB00E8A4FD00E92A5F
:10E16400FB02EAD8F700EBCBFA02ECD7F600ED009D
:10E174000001EE19FA00EF12FC00F048FF00F1ABC9
:10E18400FD02F212F900F3F8FF02F45DF700F5C2A4
:10E19400FB01F61AFA00F7FAFB00F842FF00F9D483
:10E1A400FA02FA07F900FBFBFF02FC50F700FD003E
:10E1B4000001FEB9FA00FF1AFCF0000000C396004B
:10E1C40043502F4D20626F6F742D6C6F61646572C4
:10E1D40020666F72205A38302D53696D756C6174E6
:10E1E4006F720D0A00000000000000000000000033
:10E1F400000000000000000000000000000000001B
:10E20400000000000000000000000000000000000A
:10E2140000000000000000000000000000000000FA
:10E2240000000000000000000000000000000000EA
:10E2340000000000000000000000000000424F4FFA
:10E24400543A206572726F7220626F6F74696E67E0
:10E254000D0A002103007ED30123B7C29900ED46C5
:10E26400FB010100210000AFD30A78D30B79D30C52
:10E274007DD30F7CD310AFD30DDB0EB7CA0000C61D
:10E2840030D3013E0DD3013E0AD3012180007EB775
:10E29400CADC00D30123C3D100F376D3AC182731F1
:10E2A400000000D3AB00C30E00ED73B10031AD002C
:10E2B400F5AF32B500C5D5E5DDE5FDE5ED7BB10093
:10E2C400E122AF0018D52AB3007DB7B4284211006B
:10E2D40000060E1A77231310FA2AB300110400194A
:10E2E40022AD00182B000000000000000000000018
:10E2F400000000000000000000000000000000001A
:10E3040000D3AB00ED73B10031AD00F53E0118A2AE
:10E31400DD2AB3003EAADD77092AB100DD7505DDEB
:10E3240074063AA000DD770B2323F92AAF00E53108
:10E33400A100FDE1DDE1E1D1C1F1FBC90000000074
:10E3440000000000000000000400000000000000C5
:10E35400000010F60154D601000033F9AFF20BF6B9
:10E3640000521100000055EF63F583FA00F0270016
:10E37400000055EF40EE84F702049F010000DBF536
:10E384009DEBF5FF02049F010000000000007AFAF3
:10E39400043264010000A5E961ED74FF0274AA016E
:10E3A4000000DBF512EF79FF01C00B00000069FCEF
:10E3B40035EA64FE009027000000E3F4000070FCDE
:10E3C400028CC401000049F63AED66FE02FA3401FB
:10E3D400010097F4F4EB6AFF018C160000003FF58E
:10E3E400E2F077FC00DC8D01000055EF71F0DDF404
:10E3F40002E4DD0102001CF749EC6FFF008CC1014F
:10E404000000BBF30000D3AE00ED73A000319C000C
:10E41400F53E0132A400C5D5E5DDE5FDE5ED7BA0C3
:10E4240000E1229E0021000036D32336AFC3000052
:10E4340000000000000000000000000000000000D8
:10E44400000000000000D3AC180A31000000D3AA79
:10E4540000FBED4D2A3900310700E52323F92A3763
:10E4640000E5312900FDE1DDE1E1D1C1F118DB0076
:10E474000000000000000000000000040000000094
:10E484000000000000D3AD180500000000002A04BD
:10E4940000ED5B06003A08004FAF47EDB03E0018B0
:10E4A400E43100083E00D3AD7618F600ED45FBEDEF
:10E4B4004D25002400696F5F737461742829203D21
:10E4C4003D20494F5F535441545F4E4F545F535462
:10E4D4004152544544207C7C20696F5F737461749D
:10E4E4002829203D3D20494F5F535441545F5354E4
:10E4F4004F50504544207C7C20696F5F7374617475
:10E504002829203D3D20494F5F535441545F494ED3
:10E51400544552525550544544207C7C20696F5FC9
:10E52400737461742829203D3D20494F5F53544141
:10E53400545F50524550494E564F4B45207C7C20E9
:10E54400696F5F737461742829203D3D20494F5FD2
:10E55400535441545F4D4F4E49544F5200696F5FBD
:10E56400737461742829203D3D20494F5F53544101
:10E57400545F4E4F545F53544152544544207C7C65
:10E5840020696F5F737461742829203D3D20494FD1
:10E594005F535441545F53544F50504544207C7C46
:10E5A40020696F5F737461742829203D3D20494FB1
:10E5B4005F535441545F4D4F4E49544F52004449A8
:10E5C400534B3A204F503D2530327820442F542F5E
:10E5D400533D25642F2533642F25336420202020C8
:10E5E4002020202020202020414444523D25303149
:10E5F4007825303278253032782028524420494713
:10E604004E4F524544290A0D004449534B3A204F7A
:10E61400503D2530327820442F542F533D25642F0C
:10E624002533642F2533642020202020202020201F
:10E63400202020414444523D253031782530327821
:10E6440025303278202857522049474E4F524544AE
:10E65400290A0D0025733A204552524F523A204957
:10E664002F4F20253573202533642C202533642037
:10E674002825303258482C20253032584829207714
:10E6840068696C652077616974696E6720666F726A
:10E6940020256420282530325848290A0D00444991
:10E6A400534B3A204F503D2530327820442F542F7D
:10E6B400533D25642F2533642F2533642078253377
:10E6C400643D25356C6420414444523D2530317805
:10E6D4002530327825303278202E2E2E2053543D8A
:10E6E400253032780A0D004449534B3A204F503DAF
:10E6F4002530327820442F542F533D25642F253361
:10E70400642F253364202020202020202020202056
:10E7140020414444523D253031782530327825302B
:10E724003278202E2E2E200A0D002F557365727319
:10E734002F74616B656D7572612F776F726B737077
:10E744006163652F6769746875622F5375706572AC
:10E754004D455A38302F7372632F6D6F6E69746F25
:10E76400722E63002F55736572732F74616B656D20
:10E774007572612F776F726B73706163652F676950
:10E78400746875622F53757065724D455A38302F11
:10E794007372632F6D656D6F72792E63005344201D
:10E7A400436172643A20726561643531323A2043C0
:10E7B4005243206572726F722028253034782021EC
:10E7C4003D20253034782C2072657472793D25649F
:10E7D400290A0D002F55736572732F74616B656D73
:10E7E4007572612F776F726B73706163652F6769E0
:10E7F400746875622F53757065724D455A38302FA1
:10E804007372632F696F2E63005741524E494E470E
:10E814003A20746F6F206D616E792062616E6B7344
:10E82400207265717565737465642E202872657134
:10E8340075657374206973202564290A0D00747941
:10E844007065202768656C702720746F2073656578
:10E8540020746865206C697374206F66206176612A
:10E86400696C61626C6520636F6D6D616E64730ABF
:10E874000D00496D6167652066696C652025732FFD
:10E88400445249564525632E44534B2069732061F5
:10E89400737369676E656420746F2064726976654A
:10E8A4002025630A0D005741524E494E473A2075C0
:10E8B4006E6B6E6F776E20492F4F20777269746587
:10E8C4002025642C202564202825303258482C200B
:10E8D4002530325848290A0D006469736B5F696FEB
:10E8E40063746C3A20706472763D25642C20636DE9
:10E8F400643D25642C20627566663D3078256C780D
:10E904003A207265733D25640A0D00534420436127
:10E9140072643A2020726561643531323A20616450
:10E9240064723D25386C642C206F6666733D2564E3
:10E934002C20636F756E743D25640A0D00534420CA
:10E94400436172643A2077726974653531323A20D2
:10E95400616464723D25386C642C206F6666733D77
:10E9640025642C20636F756E743D25640A0D005375
:10E974004420436172643A20777269746535313298
:10E984003A206661696C656420746F206765742041
:10E99400746F6B656E2C2074696D656F75740A0DE8
:10E9A400005B64726976655D5B2C747261636B5D98
:10E9B4005B2C736563746F725D5B2C6C656E67743E
:10E9C400685D206F72205B64726976652C5D4C42D1
:10E9D40041004449534B3A20207265616420442F1E
:10E9E400542F533D25642F2533642F253364207819
:10E9F4002533643D25356C643A204552524F520A02
:10EA04000D00534420436172643A2077726974653F
:10EA14003531323A2074696D656F75742C207265D6
:10EA240073706F6E736520697320253032780A0D18
:10EA3400004A756D7020746F207370656369666930
:10EA44006564206164647265737320616E6420730D
:10EA54007461727420657865637574696F6E2000E3
:10EA6400534420436172643A20434D4435382C208A
:10EA740052333D253032782025303278202530320B
:10EA840078202530327820253032780A0D0025731D
:10EA94003A204552524F523A20636C6F636B207395
:10EAA40070656564202564206973206E6F7420731B
:10EAB4007570706F727465640A0D0053442043616D
:10EAC40072643A20434D44382C2052373D2530326D
:10EAD400782025303278202530327820253032785D
:10EAE40020253032780A0D004449534B3A202072D5
:10EAF40065616420442F542F533D25642F253364CE
:10EB04002F25336420782533643D25356C643A2001
:10EB14004F4B0A0D006469736B5F696F63746C3AE1
:10EB240020706472763D25642C20636D643D2564F9
:10EB34003A204E6F742068616E646C65642E0A0D11
:10EB4400006469736B5F726561643A20207064725B
:10EB5400763D25642C20736563746F723D256C6467
:10EB64002C20636F756E743D25640A0D006469730F
:10EB74006B5F77726974653A20706472763D2564C0
:10EB84002C20736563746F723D256C642C20636F55
:10EB9400756E743D25640A0D005472616E736C6168
:10EBA4007465206D616368696E6520636F646520B8
:10EBB4006F6E2074686520746172676574206D657A
:10EBC4006D6F727900534420436172643A20434369
:10EBD40053202843617264204361706163697479CE
:10EBE400205374617475732920697320300A0D00F1
:10EBF400446973706C6179206F72206368616E6719
:10EC0400652073706563696669656420646562750F
:10EC140067207661726961626C65005344204361C8
:10EC240072643A2077726974653531323A204352FE
:10EC340043206572726F72202872657472793D2563
:10EC440064290A0D0057726974652062797465201D
:10EC54006F7220737472696E6720746F20746865B4
:10EC640020746172676574206D656D6F72790053ED
:10EC74004420436172643A204361726420706F7768
:10EC84006572207570207374617475732062697382
:10EC940020697320300A0D007472616D706F6C69A5
:10ECA4006E655F696E7374616C6C656420213D20D0
:10ECB4004D4D555F494E56414C49445F42414E4B80
:10ECC4000072656164204D425220706172746974EF
:10ECD400696F6E207461626C652061742073656372
:10ECE400746F7220300A0D005741524E494E473A14
:10ECF40020756E6B6E6F776E20492F4F20726561A1
:10ED04006420256420282530325848290A0D0053F0
:10ED14004420436172643A20207265616435313263
:10ED24003A20736563746F723D256C643A204552D2
:10ED3400524F520A0D00446973706C61792064610A
:10ED4400746120626C6F636B2873292066726F6D27
:10ED540020746865205344204361726400446973DD
:10ED6400706C617920736563746F722873292066EF
:10ED7400726F6D206469736B20696D6167652066CD
:10ED8400696C6500534420436172643A20534448DB
:10ED940043206F722053445843206361726420649B
:10EDA400657465637465640A0D0025733A204552E1
:10EDB400524F523A206D6F64652025642069732098
:10EDC4006E6F7420737570706F727465640A0D00D1
:10EDD400534420436172643A20696E697469616CBA
:10EDE400697A65202E2E2E207375636365656465CC
:10EDF400640A0D00534420436172643A20756E65C1
:10EE04007870656374656420726573706F6E736582
:10EE140020253032780A0D00534420436172643A4D
:10EE24002020726561643531323A20736563746FF2
:10EE3400723D256C643A204F4B0A0D004578697485
:10EE4400206D6F6E69746F7220616E6420636F6EE3
:10EE540074696E756520657865637574696F6E0095
:10EE6400417373657274696F6E206661696C656461
:10EE74003A202573202825733A2025733A202564E7
:10EE8400290A00534420436172643A2041434D44AB
:10EE9400343120726573706F6E7365206973202539
:10EEA4003032780A0D00534420436172643A20776B
:10EEB400726974653531323A20746F6B656E2069FE
:10EEC4007320253032780A0D004552524F523A20B1
:10EED40062616E6B202564206973206E6F742061FB
:10EEE4007661696C61626C652E0A0D00534420439F
:10EEF4006172643A20434D44353920726573706FF2
:10EF04006E736520697320253032780A0D004469D8
:10EF140073706C61792064617461206F6E20746811
:10EF24006520746172676574206D656D6F72790018
:10EF34004D656D6F727920303030303030202D20A7
:10EF44002530366C5848202564204B42204F4B0D09
:10EF54000A00706172746974696F6E2073746172EF
:10EF6400747320617420736563746F7220256C64FC
:10EF74000A0D0025733A20696E7465727275707497
:10EF8400206973206E6F7420617661696C61626CB4
:10EF9400650A0D0055736520524133206578746508
:10EFA400726E616C20636C6F636B20666F72205AA3
:10EFB40038300A0D00557365204E434F20252E32FC
:10EFC40066204D487A20666F72205A383020636C70
:10EFD4006F636B0A0D00665F777269746528293A5E
:10EFE400204552524F52207265733D25642C206E89
:10EFF4003D25640A0D00665F7265616428293A2024
:10F004004552524F52207265733D25642C206E3D4B
:10F0140025640A0D00696F5F696E766F6B655F74B6
:10F0240061726765745F6370755F74656172646F44
:10F03400776E006661696C656420746F207772690D
:10F04400746520736563746F7220256C640A0D0007
:10F05400696F5F696E766F6B655F74617267657403
:10F064005F6370755F707265706172650044697387
:10F07400706C617920737461747573206F66207489
:10F08400686520746172676574006661696C6564A3
:10F0940020746F207265616420736563746F7220DD
:10F0A400256C640A0D000A0D534420436172643ACE
:10F0B40020696E697469616C697A65202E2E2E0A46
:10F0C4000D00436C65617220627265616B706F69DB
:10F0D4006E74206174202530346C580A0D00457814
:10F0E4006563757465206E65787420696E737472D7
:10F0F400756374696F6E28732900534420436172E9
:10F10400643A2041434D4434312C2052313D253062
:10F1140032780A0D000A0D526573657420627920F5
:10F12400494F20706F72742025303258480A0D0000
:10F134004661696C656420746F206F70656E20533E
:10F144004420436172642E2E0A0D004661696C6589
:10F154006420746F206D6F756E7420534420436176
:10F1640072642E0A0D006661696C656420746F20F8
:10F174007265616420736563746F7220300A0D00D8
:10F184000A0D48414C5420627920494F20706F7217
:10F19400742025303258480A0D0053657420627279
:10F1A40065616B706F696E74206174202530346CF6
:10F1B400580A0D006469736B5F696E697469616CE8
:10F1C400697A65282564292E2E2E0A0D00534420C1
:10F1D400436172643A206E6F74207375706F70723D
:10F1E4007465640A0D00534420436172643A2043F9
:10F1F4004D44302C2052313D253032780A0D002008
:10F2040020202020202020202020202020202020FA
:10F214002020202020200D007761697420666F7201
:10F224002070726F6772616D6D6572202E2E2E0DC7
:10F2340000496E76616C696420617267756D656EF4
:10F24400743A20272573270A0D005354415455530B
:10F254003A20256325632563256325632563256398
:10F2640025630025732535337320434845434B53A9
:10F27400554D3A20253032780A0D00556E6B6E6F6D
:10F28400776E207661726961626C65202725732729
:10F294000A0D00427265616B706F696E7420697348
:10F2A400206E6F74207365740A0D00536574206FAB
:10F2B400722073686F7720627265616B20706F696A
:10F2C4006E74004D656D6F7279203030303030309F
:10F2D400202D202530366C58480D007068797369EC
:10F2E40063616C2064726976657220213D20300A66
:10F2F4000D0025733A206E6F20696E746572727505
:10F3040070742070696E0A0D00416D626967756FD3
:10F31400757320636F6D6D616E642025730A0D0033
:10F32400665F6C7365656B28293A204552524F52CB
:10F334002025640A0D00427265616B706F696E74FA
:10F34400206973202530346C580A0D00556E6B6E9D
:10F354006F776E20636F6D6D616E643A2025730A5A
:10F364000D0064656275675F6661746469736B5FE1
:10F37400766572626F7365006E6F20464154333256
:10F3840020706172746974696F6E0A0D00665F7330
:10F39400796E6328293A204552524F522025640A37
:10F3A4000D00696F5F696E766F6B655F746172677C
:10F3B40065745F63707500446973706C617920745F
:10F3C400686973206D657373616765007265696E42
:10F3D4007374616C6C5F7472616D706F6C696E656F
:10F3E4000064656275675F7364636172645F766508
:10F3F40072626F7365006D6F6E5F617373657274B3
:10F404005F696E74657272757074006465627567A5
:10F414005F6661746469736B5F77726974650073A6
:10F42400697A656F6628706172616D7329203D3D4C
:10F434002035004D3A204D6F6E69746F72207072E2
:10F444006F6D70740A0D006E6F204D425220736907
:10F45400676E61747572650A0D00534420436172CE
:10F46400643A2074696D656F75740A0D00696E766F
:10F47400616C69642064726976652025640A0D00F4
:10F484007772697465205B616464725D2C76616C6B
:10F494000A0D005B7661726961626C655D5B3D7645
:10F4A400616C75655D0064656275675F666174644F
:10F4B40069736B5F726561640064656275675F643C
:10F4C40069736B5F766572626F73650064656275FC
:10F4D400675F7364636172645F7772697465005215
:10F4E40065737461727420746865207379737465CC
:10F4F4006D005F5F6D656D6370795F6F6E5F7461E2
:10F5040072676574006E6F2076616C696420766F33
:10F514006C756D650A0D00534420436172643A2092
:10F5240072656164792E0A0D007A38305F636C6FFE
:10F53400636B5F4E434F31494E43005B6E756D62A2
:10F544006572206F662073746570735D0064656214
:10F5540075675F7364636172645F726561640043BD
:10F564006C65617220627265616B20706F696E7484
:10F574000025732069732073656C65637465642E5C
:10F584000A0D005350495F53445F636F6E666967A9
:10F5940075726500427265616B2061742025303498
:10F5A4006C580A0D004D4D553A2062616E6B202552
:10F5B40030325820200064656275675F6469736B3C
:10F5C4005F77726974650025733D256C6420282576
:10F5D4006C5868290A0D005B616464725D5B2C6C75
:10F5E400656E6774685D0064656275675F646973FE
:10F5F4006B5F726561640064656275675F646973FB
:10F604006B5F6D61736B00636C65617262726561DF
:10F614006B706F696E74004E6F20626F6F7420643C
:10F6240069736B2E0A0D002A2B2C3A3B3C3D3E5B42
:10F634005D7C223F7F0053757065724D455A3830AA
:10F644002D43504D005B4C42415D5B2C6C656E67F5
:10F6540074685D0025732F445249564525632E4432
:10F66400534B004E6F20534420436172643F0A0D94
:10F6740000696F5F776169745F77726974650025EB
:10F68400733D25642028255868290A0D00646562A5
:10F6940075675F6661746469736B004C4420484C01
:10F6A4002C28253034584829004F5554202825301B
:10F6B400325848292C41004C442028484C292C25F8
:10F6C400303258480043414C4C204E432C253034B2
:10F6D40058480043414C4C2050452C253034584860
:10F6E4000043414C4C20504F2C25303458480043A3
:10F6F400414C4C204E5A2C2530345848004C442060
:10F70400282530345848292C484C006465627567B4
:10F714005F736463617264005B616464725D2C7620
:10F72400616C756500494E20412C282530325848BB
:10F7340029004C4420412C28253034584829004CB9
:10F744004420282530345848292C410043414C4C4E
:10F75400204D2C25303458480043414C4C20502C2B
:10F7640025303458480043414C4C20582C25303423
:10F7740058480043414C4C205A2C253034584800FA
:10F78400646973617373656D626C650053424320F1
:10F79400412C25303258480041444320412C253027
:10F7A4003258480041444420412C25303258480006
:10F7B4004C442042432C2530345848004A50204EB3
:10F7C400432C2530345848004C442044452C2530E3
:10F7D400345848004A502050452C253034584800AD
:10F7E4004C4420484C2C2530345848004A50205072
:10F7F4004F2C2530345848004C442053502C25308D
:10F80400345848004A50204E5A2C25303458480069
:10F81400426F6172643A2025730A0D0070726F673B
:10F8240072616D3A0A0D0049593A20253034580A5C
:10F834000D000A0D2020202025730A0D0042433AB2
:10F84400202530345820200050433A2025303458A5
:10F8540020200044453A20253034582020004146D9
:10F864003A2025303458202000484C3A20253034A2
:10F874005820200053503A20253034582020004985
:10F88400583A202530345820200064656275675F3B
:10F894006469736B006C656E203C3D203235360024
:10F8A40053424320412C28484C29004144432041E1
:10F8B4002C28484C290041444420412C28484C29F8
:10F8C400004C4420412C2530325848004C442042FE
:10F8D4002C2530325848004C4420442C25303258D2
:10F8E40048004C4420482C25303258480043414CB1
:10F8F4004C202530345848004A5020432C253034BD
:10F904005848004A50204D2C2530345848004A505D
:10F9140020502C2530345848004A50205A2C253089
:10F9240034584800455820285350292C484C005B33
:10F93400616464726573735D006D6F6E5F7365748B
:10F9440075700045582041462C414627004C442000
:10F95400412C28424329004C4420412C2844452969
:10F96400004C4420412C28484C29004C4420422C73
:10F9740028484C29004C4420432C28484C29004C4E
:10F984004420442C28484C29004C4420452C284829
:10F994004C29004C4420482C28484C29004C442035
:10F9A4004C2C28484C29004C4420284445292C41FF
:10F9B400004C442028484C292C41004C4420284821
:10F9C4004C292C42004C442028484C292C4300410B
:10F9D400444420484C2C4243004C442028484C29A1
:10F9E4002C44004C442028484C292C4500414444D4
:10F9F40020484C2C4445004C442028484C292C4891
:10FA04000053554220253032584800414E442025A9
:10FA14003032584800584F52202530325848004C54
:10FA2400442028484C292C4C0041444420484C2C68
:10FA3400484C0041444420484C2C5350004C442032
:10FA4400432C25303258004C4420452C2530325864
:10FA5400004C44204C2C2530325800257325303678
:10FA64006C783A004641543332202020007374618C
:10FA7400636B3A0A0D006469736B726561640063B9
:10FA84006F6E74696E7565005355422028484C2981
:10FA9400004445432028484C2900494E4320284827
:10FAA4004C2900414E442028484C2900584F5220EC
:10FAB40028484C29004350202530325848004A50E9
:10FAC4002025303458480045582044452C484C00E3
:10FAD4004C442053502C484C004A52204E432C2571
:10FAE40064004A52204E5A2C25640025643A20258D
:10FAF400730A0D0053656C6563743A200043504DDE
:10FB04004449534B53002573253034783A004572E9
:10FB1400726F720A0D000D257325730A0D00435090
:10FB24002028484C29004A502028484C2900534298
:10FB34004320412C410041444320412C4100414495
:10FB44004420412C41004C442042432C4100534268
:10FB54004320412C420041444320412C4200414473
:10FB64004420412C420053424320412C4300414451
:10FB74004320412C430041444420412C4300505530
:10FB840053482042430053424320412C4400414403
:10FB94004320412C440041444420412C440053421E
:10FBA4004320412C450041444320412C450041441D
:10FBB4004420412C4500505553482044450050559D
:10FBC40053482041460053424320412C48004144BD
:10FBD4004320412C480041444420412C48005253C6
:10FBE400542030304800525354203130480052538E
:10FBF400542032304800525354203330480052537A
:10FC0400542030384800525354203138480052535D
:10FC14005420323848005253542033384800534259
:10FC24004320412C4C0041444320412C4C0041448E
:10FC34004420412C4C005055534820484C004A5213
:10FC440020432C2564004A52205A2C256400444A3F
:10FC54004E5A2C25640043504D4449537E003C25A4
:10FC6400643E0A0D005B616464725D0073647265D6
:10FC7400616400737461747573004C4420412C41B9
:10FC8400004C4420422C41004C4420432C41004C65
:10FC94004420442C41004C4420452C41004C442039
:10FCA400482C41004C44204C2C41004C4420412C15
:10FCB40042004C4420422C42004C4420432C42003D
:10FCC4004C4420442C42004C4420452C42004C44DB
:10FCD40020482C42004C44204C2C42004C442041EF
:10FCE4002C43004C4420422C43004C4420432C43DE
:10FCF400004C4420442C43004C4420452C43004CED
:10FD04004420482C43004C44204C2C43004445439D
:10FD140020424300494E4320424300504F5020426A
:10FD24004300524554204E43004C4420412C44008F
:10FD34004C4420422C44004C4420432C44004C446A
:10FD440020442C44004C4420452C44004C4420487E
:10FD54002C44004C44204C2C44004C4420412C4561
:10FD6400004C4420422C45004C4420432C45004C7C
:10FD74004420442C45004C4420452C45004C442050
:10FD8400482C45004C44204C2C4500444543204419
:10FD94004500494E4320444500504F5020444500FF
:10FDA40052455420504500504F50204146004C4489
:10FDB40020412C48004C4420422C48004C44204311
:10FDC4002C48004C4420442C48004C4420452C48EA
:10FDD400004C4420482C48004C44204C2C48004CF7
:10FDE4004420412C4C004C4420422C4C004C4420D8
:10FDF400432C4C004C4420442C4C004C4420452CB7
:10FE04004C004C4420482C4C004C44204C2C4C00BE
:10FE140044454320484C00494E4320484C00504F31
:10FE24005020484C0052455420504F004445432034
:10FE3400535000494E4320535000524554204E5ACB
:10FE4400002530366C582000202530327800666159
:10FE5400743A20006275663A20000D2573200D0067
:10FE64007265736574005355422041004445432034
:10FE74004100494E43204100414E44204100584F27
:10FE84005220410053554220420044454320420041
:10FE9400494E43204200414E44204200584F5220D4
:10FEA4004200535542204300444543204300494EF9
:10FEB40043204300414E44204300584F5220430006
:10FEC40052455420430053554220440044454320A6
:10FED4004400494E43204400414E44204400584FBE
:10FEE40052204400535542204500444543204500D8
:10FEF400494E43204500414E44204500584F52206E
:10FF04004500535542204800444543204800494E8B
:10FF140043204800414E44204800584F5220480096
:10FF2400535542204C00444543204C00494E432045
:10FF34004C00414E44204C00584F52204C00524536
:10FF440054204D00524554205000524554205A002C
:10FF54004A522025640025303258200053443A2068
:10FF6400004D4F4E3E00737465700068656C700000
:10FF740064756D70006A756D7000435020410052C5
:10FF84004C434100525243410043502042004350ED
:10FF94002043004350204400435020450043502058
:10FFA40048004350204C0048414C5400303A2F2F15
:10FFB40000696E66006E616E006C6C73000D2573D3
:10FFC400002025730044414100524C4100525241EB
:10FFD40000434346005343460043504C004E4F50A9
:10FFE4000052455400455858003F3F3F004D0A0D0C
:0BFFF40000646900444900454900001A
:020000040001F9
:10000000B7ECFDF001D80BD00500FA6E0701CE5118
:10001000FD6ECF51FE6ED051FF6EFA501200D8A087
:100020001200000E0901EA6F000EE96F01D80BD033
:100030000500FA6E0801CA51FD6ECB51FE6ECC511F
:10004000FF6EFA5012000901F06F01D80BD00500C5
:10005000FA6E0801C751FD6EC851FE6EC951FF6EA0
:10006000FA5012000901F16F0701D451D511D611D0
:10007000D8A406D0000E0901DA6F010ED96F14D092
:1000800001D80AD00500FA6ED451FD6ED551FE6E2E
:10009000D651FF6EFA501200D8A002D0010E01D046
:1000A000000E0901D96FDA6BD951DA11D8B44AD0F0
:1000B0000701D151D211D311D8A406D0000E0901E5
:1000C000DC6F010EDB6F14D001D80AD00500FA6E88
:1000D000D151FD6ED251FE6ED351FF6EFA50120017
:1000E000D8A002D0010E01D0000E0901DB6FDC6B3D
:1000F000DB51DC11D8B426D00701F2BF23D0000EAB
:10010000366F230E356F01D80BD00500FA6EE6511D
:10011000FD6EE751FE6EE851FF6EFA50000E1200C0
:1001200001D80CD00500FA6E0701C851FD6EC95107
:10013000FE6ECA51FF6EFA50F15112000701F169CB
:10014000F2691CD10701D451D511D611D8A406D01B
:10015000000E0901DE6F010EDD6F14D001D80AD048
:100160000500FA6ED451FD6ED551FE6ED651FF6E6C
:10017000FA501200D8A002D0010E01D0000E0901E1
:10018000DD6FDE6BDD51DE11D8B406D0000E070145
:10019000366F280E356F61D2000E0701366F1E0EC6
:1001A000356F01D8CBD00500FA6EE651FD6EE751F0
:1001B000FE6EE851FF6EFA50000E12000701335137
:1001C0003411D8B405D001D8D3D00500FA6EADD023
:1001D00001D8CED00500FA6EC851FD6EC951FE6E31
:1001E000CA51FF6EFA50000E12007CEC12F015ECB2
:1001F00009F00901D86F01D8BBD00500FA6E0701DC
:10020000C851FD6EC951FE6ECA51FF6EFA50090108
:10021000D8511200070129512A11D8B427D0000E55
:10022000295D0601D46F090E07012A590601D56F11
:10023000D5BF06D0D5511AE1800ED45DD8B016D006
:1002400001D810D00500FA6E0701C851FD6EC951E2
:10025000FE6ECA51FF6EFA5029C7D9F42AC7DAF4E4
:10026000DF5012000701294B2A2B82D007016A5167
:10027000D8A409D06B51D8A406D06C51D8A403D00F
:100280006D51D8B475D0C20E0501BE6FE50EBF6FBB
:10029000F1C6C0F5C16B50C7C2F5C36B4FC7C4F5FB
:1002A000C56B2BC7C6F52CC7C7F556C5C8F557C5CE
:1002B000C9F54DC7CAF5CB6B4EC7CCF5CD6B68EC15
:1002C00012F056D001D854D00500FA6E0701C8517B
:1002D000FD6EC951FE6ECA51FF6EFA50FB511200FD
:1002E00001D846D00500FA6E0701C851FD6EC9510C
:1002F000FE6ECA51FF6EFA5039EC14F01200EC0E8B
:100300000501BE6FEC0EBF6FF0C9C0F5C16BF0C93F
:10031000C2F5C36B68EC12F0000E0701466F010EC8
:10032000456F01D825D00500FA6EC851FD6EC95140
:10033000FE6ECA51FF6EFA50FF0E12000901F05115
:100340000601D46FD56BD551000AD8A4D8D7D451A3
:10035000000AD8B433D7010AD8B447D7090AD8B4A9
:1003600059D7060AD8B4AED7AE0AD8B4B9D7C7D7CA
:10037000070145514611D8A414EC10F001D80CD057
:100380000500FA6E0701CB51FD6ECC51FE6ECD51CA
:10039000FF6EFA50000E120001D80BD00500FA6E65
:1003A0000701C551FD6EC651FE6EC751FF6EFA5072
:1003B000120001D80CD00500FA6E0701C251FD6E83
:1003C000C351FE6EC451FF6EFA50010E120001D8E7
:1003D0000BD00500FA6E0701BF51FD6EC051FE6ED5
:1003E000C151FF6EFA501200D8A0F1D701D80CD03D
:1003F0000500FA6E0701E651FD6EE751FE6EE85109
:10040000FF6EFA50FF0E1200070145514611D8A4A5
:10041000A9D17CEF87F00901F1519CEC0DF0254B3F
:10042000262B59D1070129512A11D8B42ED0000EFC
:10043000295D0601D46F090E07012A590601D56FFF
:10044000D5BF06D0D55121E1800ED45DD8B01DD0E6
:1004500029C7D9F42AC7DAF4F1C9DFF40701294B17
:100460002A2B000E295D0601D46F090E07012A59B7
:100470000601D56F800ED419D511D8A42CD1000E49
:100480000901EA6F010EE96F26D107016A51D8A46C
:1004900009D06B51D8A406D06C51D8A403D06D51AB
:1004A000D8B419D10D0E0501BE6FE60EBF6FF1C6AF
:1004B000C0F5C16B50C7C2F5C36B4FC7C4F5C56B60
:1004C0002BC7C6F52CC7C7F556C5C8F557C5C9F51E
:1004D0004DC7CAF5CB6B4EC7CCF5CD6B68EC12F0AF
:1004E000FAD0F1C950F7F7D0F1C94FF7F4D0000EA8
:1004F00007012B150601D46FFF0E07012C1506010D
:10050000D56F0901F1510601D41107012B6F0601C6
:10051000D55116D00901F1510601D56FD46BFF0EEC
:1005200007012B150601D66F000E07012C150601D9
:10053000D76FD451D61107012B6F0601D551D711B2
:1005400007012C6FC8D0F1C9F1F6030EF119D8A438
:1005500006D0000E0701296F090E2A6F05D0000E84
:100560000901EA6F010EE96F07016B51D8B408D099
:100570000601F151D8B410D0020EF119D8B40CD044
:1005800007016C51D8B4A7D00601F105D8B404D046
:10059000030EF119D8A49FD007016D51D8B49BD098
:1005A00050C7D4F6010E0601D56F000ED66FD42BBE
:1005B00003D0D890D537D637D42FFBD707016E514B
:1005C0000601D51707016F510601D617D551D6116F
:1005D000D8A481D0EB0E0501BE6FE60EBF6FF1C649
:1005E000C0F5C16B50C7C2F5C36B4FC7C4F5C56B2F
:1005F0002BC7C6F52CC7C7F556C5C8F557C5C9F5ED
:100600004DC7CAF5CB6B4EC7CCF5CD6B68EC12F07D
:1006100062D0F1C94EF75FD0F1C94DF75CD0090146
:10062000F151FFEC0BF057D0AA0E0501BE6FE80E9A
:10063000BF6FF0C9C0F5C16BF1C9C2F5C36BF0C99A
:10064000C4F5C56BF1C9C6F5C76B68EC12F0000EB6
:100650000701466F010E456F3ED00901F0510601BA
:10066000D46FD56BD551000AD8A4DED7D451010A76
:10067000D8B4D1D6090AD8B4D5D6020AD8B431D75D
:10068000010AD8B431D7070AD8B431D7010AD8B48F
:100690005AD7020AD8B4BDD71F0AD8B4BDD7010AA9
:1006A000D8B438D7050AD8B4EAD6010AD8B4E7D600
:1006B000B50AD8B4B4D70A0AD8B4E1D6010AD8B476
:1006C000DED6070AD8B4DBD6020AD8B4D8D6010AD7
:1006D000D8B4D5D6A9D701D80CD00500FA6E070139
:1006E000CB51FD6ECC51FE6ECD51FF6EFA50000E17
:1006F000120001D80BD00500FA6E0701C551FD6E3E
:10070000C651FE6EC751FF6EFA50120001D80CD0D0
:100710000500FA6E0701C251FD6EC351FE6EC45151
:10072000FF6EFA50010E120001D80BD00500FA6ED0
:100730000701BF51FD6EC051FE6EC151FF6EFA50F0
:100740001200D8A0F1D7000E0701366F320E356FB8
:100750000901E951EA11D8A405D007014551461114
:10076000D8B4CAD3000E0B6E010E0A6ED8EC12F08C
:100770000901E951EA11D8B4A9D321D1F1C9D8F5B9
:100780000501D96BE7EC11F0A1D3F1C9D8F505014A
:10079000D96BA7ECF9F09AD3AE0E0901F019D8A4E1
:1007A00003D0BEEC10F002D0DDEC13F0000E070118
:1007B000366F460E356F8AD3000E0701366F460E30
:1007C000356F2551271904E126512819D8B40BD0CB
:1007D0002B0E0501BE6FE70EBF6F68EC12F025C748
:1007E00027F726C728F7AF0E0901F019D8A403D0C0
:1007F000E9EC09F002D076EC0BF0000E366F5A0EE1
:10080000356F87ECE1F007013D513E11D8A407D0C8
:100810003CECE9F00601D205D311D8A4F4D7A0EC42
:100820000EF0C4D7000E0701366F460E356F1AEC76
:10083000FEF0000E366F320E356F45514611D8B4BA
:1008400045D3000E096E000E086E01D80AD00500CF
:10085000FA6EBC51FD6EBD51FE6EBE51FF6EFA5078
:100860001200000E0B6E000E0A6ED8EC12F001D8CA
:100870000CD00500FA6E0701CB51FD6ECC51FE6E17
:10088000CD51FF6EFA50010E1200000E0901E46F07
:10089000010EE36F000EE06F050EDF6F5CD0E351D9
:1008A000E411D8A427D00701D451D511D611D8A46A
:1008B00006D0000E0901E26F010EE16F14D001D8DD
:1008C0000AD00500FA6ED451FD6ED551FE6ED65198
:1008D000FF6EFA501200D8A002D0010E01D0000E17
:1008E0000901E16FE26BE105E211D8A403D0DF0753
:1008F000D8A0E0070701D451D511D611D8A406D04D
:10090000000E0901E46F010EE36F14D001D80AD084
:100910000500FA6ED451FD6ED551FE6ED651FF6EB4
:10092000FA501200D8A002D0010E01D0000E090129
:10093000E36FE46BFF0E096EFB0E086E01D80BD05F
:100940000500FA6E0701BC51FD6EBD51FE6EBE5131
:10095000FF6EFA5012000901E0BF05D0E0519FE19F
:10096000DF05D8B09CD701D80CD00500FA6E07017E
:10097000CB51FD6ECC51FE6ECD51FF6EFA50000E84
:100980001200FF0E096E086801D80BD00500FA6E40
:100990000701BC51FD6EBD51FE6EBE51FF6EFA5097
:1009A0001200E40E00D000D0E82EFCD700D000D01A
:1009B000000E0B6E010E0A6ED8EC12F087D2F051C9
:1009C0000601D46FD56BD551000AD8A416D0D451E6
:1009D000140AD8B4D3D6010AD8B4D7D6BF0AD8B42B
:1009E00021D7010AD8B4D8D6070AD8B4E5D6020A66
:1009F000D8B4D2D6010AD8B4DFD6000E0701486FAA
:100A0000010E476F000E0901E56F000EE66F000E44
:100A1000E76F000EE86F100E070150610CD05051C7
:100A2000040D800EF324D96E080EF420DA6EDE5029
:100A3000DE10D8A404D0010E0701FB6FDBD14FC735
:100A400008F5096A5051040D7E0EF324D96E080E84
:100A5000F420DA6EDEC40AF5DDC40BF58FEC12F07B
:100A600007012B5108262C510922FF0E08240601EC
:100A7000D46FFF0E0920D56FD4C6E5F9D5C6E6F9C7
:100A80000901E76BE86B07015051040D800EF32458
:100A9000D96E080EF420DA6EDEC4EBF9DDC4ECF991
:100AA000EBC97EF6ECC97FF6E5C9D4F6E6C9D5F602
:100AB000E7C9D6F6E8C9D7F6070ED8900601D437AD
:100AC000D537D637D737E82EF8D7D4C680F6D5C66F
:100AD00081F6D6C682F6D7C683F630ECA1F00901BE
:100AE000ED6FED51D8B40BD0240E0501BE6FF30E9F
:100AF000BF6FEDC9C0F5C16B68EC12F09CD7060161
:100B0000F151D8B404D0020EF119D8A4AFD0EBC97A
:100B10005AF6ECC95BF6000E5C6F090E5D6F000EB5
:100B20005F6F800E5E6FEE0E606F090E616F74EC8A
:100B3000A4F00901ED6FED51D8A405D0800EEE1997
:100B4000EF11D8B40FD0FA0E0501BE6FEF0EBF6FD4
:100B5000EDC9C0F5C16BEEC9C2F5EFC9C3F568ECCC
:100B600012F069D707016B51D8B42CD06D51D8B4AD
:100B700029D050C7D4F6010E0601D56F000ED66FEE
:100B8000D42B03D0D890D537D637D42FFBD7070135
:100B90006E510601D51707016F510601D617D551C1
:100BA000D611D8A40FD0580E0501F56FFE0EF66FC2
:100BB000000EF76F090EF86F000EFA6F800EF96FD6
:100BC00090EC07F0000E0701FB6F0601F151D8A46D
:100BD00047D007014D510601D56FD46B5650D66FE3
:100BE0005750D76FD86BD96BD7C6D9F6D6C6D8F6BB
:100BF000D76BD66BD451D611DA6FD551D711DB6FC5
:100C0000000ED811DC6F000ED911DD6F07014E51B7
:100C10000601DA110901D06F0601DB510901D16F1C
:100C20000601DC510901D26F0601DD510901D36FC4
:100C3000D0C93DF6D1C93EF6D2C93FF6D3C940F678
:100C4000000E0601416F090E426F000E446F800EC8
:100C5000436F3EECDFF0000E0701296F000E04D059
:100C6000000E0701296F090E2A6FC4D0F105D8B410
:100C700004D0030EF119D8A4B9D0F105D8A442D0FC
:100C800007014D510601D56FD46B5650D66F5750A2
:100C9000D76FD86BD96BD7C6D9F6D6C6D8F6D76B6F
:100CA000D66BD451D611DA6FD551D711DB6F000E48
:100CB000D811DC6F000ED911DD6F07014E5106010E
:100CC000DA110901D46F0601DB510901D56F060164
:100CD000DC510901D66F0601DD510901D76FD4C976
:100CE0003DF6D5C93EF6D6C93FF6D7C940F6000E47
:100CF0000601416F090E426F000E446F800E436F74
:100D000002ECE0F007016C51D8B42CD06D51D8B48E
:100D100029D050C7D4F6010E0601D56F000ED66F4C
:100D2000D42B03D0D890D537D637D42FFBD7070193
:100D30006E510601D51707016F510601D617D5511F
:100D4000D611D8A40FD0580E0501F56FFE0EF66F20
:100D5000000EF76F090EF86F000EFA6F800EF96F34
:100D600090EC07F0EBC97EF6ECC97FF6000E0601A9
:100D7000806F090E816F000E836F800E826FEE0E02
:100D8000846F090E856F09EC97F00901ED6FED5145
:100D9000D8A405D0800EEE19EF11D8B40FD0DA0E1A
:100DA0000501BE6FEF0EBF6FEDC9C0F5C16BEEC997
:100DB000C2F5EFC9C3F568EC12F03DD6EBC940F6B9
:100DC000ECC941F65FECD3F00901ED6FED51D8B4F9
:100DD0000BD0910E0501BE6FF30EBF6FEDC9C0F5CC
:100DE000C16B68EC12F027D6000E01D0010E07018E
:100DF000FB6F31D76B51D8B408D00601F151D8B48C
:100E000010D0020EF119D8B40CD007016C51D8B42F
:100E100058D00601F105D8B404D0030EF119D8A4B6
:100E200050D050C7D4F6010ED56F000ED66FD42B1C
:100E300003D0D890D537D637D42FFBD707016E51C2
:100E40000601D51707016F510601D617D551D611E6
:100E5000D8A437D0A20E0501BE6FE60EBF6FF1C653
:100E6000C0F5C16B50C7C2F5C36B4FC7C4F5C56BA6
:100E70002BC7C6F52CC7C7F507015051040D7E0ED0
:100E8000F324D96E080EF420DA6EDEC4C8F5DDC492
:100E9000C9F5E5C9CAF5E6C9CBF5E7C9CCF5E8C996
:100EA000CDF556C5CEF557C5CFF54DC7D0F50501E3
:100EB000D16B4EC7D2F5D36BFBC7D4F5D56B68ECBD
:100EC00012F0000E0701486F000E476F07014551F1
:100ED0004611D8B406D0000E466F000E456F3BECAD
:100EE00013F0000E0701366F3C0E356F000E0B6ECF
:100EF000000E0A6ED8EC12F001D80CD00500FA6E84
:100F00000701CB51FD6ECC51FE6ECD51FF6EFA50F4
:100F1000010E1200000E0701366F140E356F12001D
:100F200095C5D9F496C5DAF4DEC4F6F4DDC4F7F459
:100F3000000EF86E0800F550250AD8A4EEEF8DF0EB
:100F400095C5D9F496C5DAF4DE2A000EDD22000E2E
:100F500007011E6F000E1D6F1DC758F552685368BC
:100F6000000E0501A86F000E14D0588095C5D9F465
:100F700096C5DAF4DE2A000EDD2230D05882F6D78C
:100F80005884F4D75886F2D75888F0D7000EA86F47
:100F9000010EA76F23D095C5D9F496C5DAF4DEC447
:100FA000F6F4DDC4F7F4000EF86E0800F550996F02
:100FB0009A6B9A51000AD8A4E9D79951200AD8B45B
