:0400000081EF00F09C
:100008009D089D089D089D0840009D0840009D088A
:100018009D089D089D089D089D089D089D089D08B0
:100028009D084000400040009D089D089D089D08CF
:100038009D089D089D089D089D089D089D089D0890
:100048009D089D089D089D08400040009D089D084A
:100058009D089D089D0840009D089D089D089D08D5
:100068009D089D089D089D089D089D089D089D0860
:100078009D089D089D089D0840009D089D089D08B5
:100088009D089D089D089D089D089D089D089D0840
:100098009D089D089D089D0840009D08400040005F
:1000A8009D089D089D089D089D089D089D089D0820
:1000B8009D089D089D089D089D089D089D089D0810
:1000C8009D089D089D089D089D089D089D089D0800
:1000D8009D089D089D089D089D089D089D089D08F0
:1000E80040009D089D089D084000400040004000D9
:1000F8009D089D089D089D08FF00B6EFF7F0000ECB
:1001080006013F6F20EE2CF03551D9263651DA2200
:100118003751DE180AE13851DE1807E13951DE1887
:1001280004E13A51DE18D8B43FD035C623F636C6B6
:1001380024F648ECDFF006013F6F3F51D8A434D0D5
:10014800300E3525196F000E36211A6F37C61BF68B
:1001580038C61CF639C61DF63AC61EF6000E206FC4
:10016800010E1F6F20EE01F03551D9263651DA22E3
:10017800DF504CECE9F00009D8B407D00601376924
:10018800386939693A69010E3F6F060120EE2CF093
:100198003551D9263651DA2237C6DEF438C6DEF4B0
:1001A80039C6DEF43AC6DEF43F5112001050111081
:1001B800121013101410151016101710D8B43CD0C4
:1001C800010E186E0AD0D890103611361236133632
:1001D8001436153616361736182A17AEF4D71050B7
:1001E800085C1150095812500A5813500B581450F3
:1001F8000C5815500D5816500E5817500F58D8A0B7
:1002080010D01050085E1150095A12500A5A135053
:100218000B5A14500C5A15500D5A16500E5A1750A6
:100228000F5AD8901732163215321432133212324E
:1002380011321032182ED3D708C508F509C509F5AB
:100248000AC50AF50BC50BF50CC50CF50DC50DF562
:100258000EC50EF50FC50FF512000AC513F50BC52F
:1002680014F50C501324116E0D501420126E41D049
:1002780008C50EF509C508F50EC509F513C5D9F465
:1002880014C5DAF4DF500E6E0E50081A134A142AF9
:1002980008C50EF509C50FF5040E106ED8900F327B
:1002A8000E32102EFBD70F0E0E16000E0F160E5024
:1002B800081A0F50091A08C50EF509C50FF50C0ED6
:1002C800D8900E360F36E82EFBD70E50081A0F506E
:1002D800091AFF0E08140E6E000E09140F6E050E93
:1002E800D8900E360F36E82EFBD70E50081A0F504E
:1002F800091A1150135C12501458D8A0B9D708C560
:1003080008F509C509F51200A5C6D8F5A6C6D9F598
:10031800A90E0501DA6F060EDB6FA0ECFCF00601F2
:10032800AB6FAB51D8A444D0A751A811D8A40FD013
:10033800A5C65AF6A6C65BF6000E5C6F000E5D6F8A
:10034800000E5E6F000E5F6F6EECC1F030D0A5C678
:1003580098F6A6C699F6000E9B6F000E9A6FD3EC1E
:10036800EEF0AB6F040EAB19D8A402D0000EAB6F41
:10037800AB51D8A41DD0A5C615F5A6C616F5A7C6B7
:1003880017F5A8C618F5D0ECD4F0A5C67EF6A6C613
:100398007FF6000E0601816F000E806F95ECB9F0B4
:1003A8000601AB6F040EAB19D8A402D0000EAB6FD8
:1003B800AB51120008C510F509C511F50AC512F5AB
:1003C8000BC513F507D00C06D8A00D06104A112A44
:1003D800124A132A0C500D10D8B41AD010C5D9F4EB
:1003E80011C5DAF4DF500E6E12C5F6F413C5F7F432
:1003F800000EF86E250EF76403D00800F55005D0FE
:10040800F6C4E9F4F7C4EAF4EF500E18D8B4DBD711
:100418000C500D10D8A405D0000E096E000E086E01
:10042800120010C5D9F411C5DAF4DF500E6E12C5EA
:10043800F6F413C5F7F4000EF86E250EF76403D032
:100448000800F55005D0F6C4E9F4F7C4EAF4EF5013
:100458000F6E0F500E5C086E096AD8A009061200CC
:10046800000E496E000E4A6E000E4B6E000E4C6E6A
:10047800000E4D6E000E4E6E000E4F6E000E506E4A
:10048800498E43B04D8E498441C545F542C546F570
:1004980043C547F544C548F5120E05D0D8904832F3
:1004A800473246324532E82EF9D745A04D84498671
:1004B80041C545F542C546F543C547F544C548F528
:1004C800130E05D0D8904832473246324532E82ECE
:1004D800F9D745B04D86660E356E070E366E49C59E
:1004E80037F54AC538F54BC539F54CC53AF54DC50C
:1004F8003BF54EC53CF54FC53DF550C53EF52FECD7
:10050800FFF01200F929FA11D8A480EC0BF00501CC
:10051800EE51F06FEF51F16FF26BF36BF1C5F3F53C
:10052800F0C5F2F5F16BF06B660EF025E26F000E88
:10053800F121E36F000EF221E46F000EF321E56F65
:10054800770EE66F070EE76F000EE96F030EE86F90
:1005580008EC07F00501EE51F06FEF51F16FF26B07
:10056800F36BF1C5F3F5F0C5F2F5F16BF06B660EC0
:10057800F025E26F000EF121E36F000EF221E46F27
:10058800000EF321E56FA90EE66FE40EE76F000E8B
:10059800E96F030EE86F44EC07F0EEC5F9F7EFC515
:1005A800FAF712000D500E10D8B404D00D500E10EA
:1005B800D8A404D00B5084EC13F0120020EE09F0FC
:1005C8000D50D9260E50DA22DE50DE10D8B416D0DF
:1005D80020EE09F00D50D9260E50DA2210EE03F065
:1005E8000D50E1260E50E222DE50E65CE650800A0D
:1005F800136EDE50800A1358D8B0120020EE03F0B4
:100608000D50D9260E50DA22DEC40FF5DDC410F5E0
:100618000DC5D9F40EC5DAF4DEC411F5DDC412F542
:100628000F501124D96E10501220DA6E0BC5DFF46A
:1006380020EE03F00D50D9260E50DA22DE2A000EE5
:10064800DD2212001CC529F51DC52AF520EE0BF088
:100658002950D9262A50DA22DE50DE10DE10D8B40E
:100668001ED01CC508F51DC509F51EC50AF51FC510
:100678000BF520C50CF521C50DF520EE0BF0295022
:10068800D9262A50DA2201D812000500FA6EDE5067
:10069800FD6EDE50FE6EDE50FF6EFA5012001EC573
:1006A80025F51FC526F5000E286E000E276E11D001
:1006B8001CC50EF51DC50FF5FF0E106ECFECEBF047
:1006C80025C5D9F426C5DAF4DF6E254A262A274A35
:1006D800282A2050275C21502858D8B01200E8D783
:1006E8000701FB29FC11D8A406EC0CF00501EE511A
:1006F800F06FEF51F16FF26BF36BF1C5F3F5F0C5E5
:10070800F2F5F16BF06BF0C5E2F5F1C5E3F5F2C572
:10071800E4F5F3C5E5F5000EE66F0B0EE76F010E85
:10072800E96F000EE86F08EC07F00501EE51F06F75
:10073800EF51F16FF26BF36BF1C5F3F5F0C5F2F51C
:10074800F16BF06BF0C5E2F5F1C5E3F5F2C5E4F540
:10075800F3C5E5F5430EE66FE40EE76F000EE96FAB
:10076800B60EE86F44EC07F0EEC5FBF7EFC5FCF7F3
:10077800000E0701456F000E446F12000601EF518D
:10078800F011D8A405D0EFC61AF5F0C61BF506D0AF
:10079800FF0EEF251A6EFF0EF0211B6E58A009D030
:1007A80016C50BF50C6A14C50DF515C50EF5D6EC76
:1007B80002F01BAE04D0000E1B6E000E1A6E000E67
:1007C800196E000E186E0CD0000E0C6E200E0B6EFB
:1007D80014C50DF515C50EF5D6EC02F0184A192A00
:1007E8001A50185C1950800A176E1B50800A175847
:1007F800D8A0EAD758B009D016C50BF50C6A14C5AD
:100808000DF515C50EF5D6EC02F0010E1824146E80
:10081800000E1920156E12000A6E570EF66EDF0EC6
:10082800F76E000EF86E0900F5500A5CD8A03CD0AF
:10083800580EF66EDF0EF76E000EF86E0A500900BD
:10084800F55CD8A005D0000E096E010E086E1200E6
:10085800590EF66EDF0EF76E000EF86E0900F550B1
:100868000A5CD8A00BD05A0EF66EDF0EF76E000E9B
:10087800F86E0A500900F55CD8B0E5D75B0EF66E45
:10088800DF0EF76E000EF86E0900F5500A5CD8A06E
:100898000BD05C0EF66EDF0EF76E000EF86E0A5087
:1008A8000900F55CD8B0CFD7000E096E000E086EAF
:1008B80012001CC529F51DC52AF520EE08F029509F
:1008C800D9262A50DA22DE50DE10DE10D8B41ED027
:1008D8001CC508F51DC509F51EC50AF51FC50BF58C
:1008E80020C50CF521C50DF520EE08F02950D926B4
:1008F8002A50DA2201D812000500FA6EDE50FD6E89
:10090800DE50FE6EDE50FF6EFA5012001EC525F551
:100918001FC526F5000E286E000E276E10D01CC5C8
:100928000EF51DC50FF525C5D9F426C5DAF4DF5037
:10093800106ECFECEBF0254A262A274A282A2050A9
:10094800275C21502858D8B01200E9D758A00AD0FF
:100958001DC514F51EC515F51BC516F51CC517F5DF
:100968001EEC10F020BE05D01FC524F520C525F5C6
:1009780004D0000E256E000E246E000E236E000EAD
:10098800226E0CD0000E0C6E200E0B6E1BC50DF5E2
:100998001CC50EF5D6EC02F0224A232A2450225C0C
:1009A8002350800A216E2550800A2158D8A0EAD702
:1009B80058B00AD01DC514F51EC515F51BC516F58A
:1009C8001CC517F51EEC10F01DC508F51EC509F568
:1009D80046EC0FF0245008241B6E255009201C6E8D
:1009E80012000501DD6F010E0501DE6F10D0000E4B
:1009F800DE6F23D0D00EBE6FEB0EBF6FDDC5C0F526
:100A0800C16BD8C5C2F5C36B17EC12F016D0D8511C
:100A1800DB6FDC6BDC51000AD8A4ECD7DB51000A91
:100A2800D8B4E5D7010AD8B4E5D7030AD8B4E2D7D1
:100A3800010AD8B4DFD7070ADDD70601F151F21150
:100A4800D8B416D0C30E0501BE6FE90EBF6FDDC561
:100A5800C0F5C16BD8C5C2F5C36BD9C5C4F5DAC535
:100A6800C5F5C66BC76BDEC5C8F5C96B17EC12F0C8
:100A78000501DE51120046ECF7F0DE0E0801FD6FAD
:100A8800230EFE6F000EFF6F380EF76FA40EF86F7F
:100A9800010EF96FCC0EFA6F1F0EFB6F000EFC6F84
:100AA800F40EF46FFC0EF56F010EF66F680E070179
:100AB800DB6F040EDC6F000EDD6F9A0EDE6FC50E65
:100AC800DF6F010EE06F840ED56F270ED66F000E14
:100AD800D76FE80EE46F260EE56F000EE66FE00EA6
:100AE800CC6F270ECD6F000ECE6FF40ED86F250E8B
:100AF800D96F000EDA6FF80EC96F260ECA6F000E96
:100B0800CB6F1200000E0814106E000E0914116E3F
:100B1800800E0A14126E7F0E0B14136E10501110F3
:100B280012101310D8A408D0000E086E000E096E1B
:100B3800000E0A6E000E0B6E000E0C14106E000EE6
:100B48000D14116E800E0E14126E7F0E0F14136E9C
:100B58001050111012101310D8A408D0000E0C6EEB
:100B6800000E0D6E000E0E6E000E0F6E0C50081863
:100B78000AE10D50091807E10E500A1804E10F5058
:100B88000B18D8B402D0D8901200D8801200000EEA
:100B98000D6E000E0C6E0801CF51D8B402D0010EB4
:100BA80001D0000E0C12D051D8A40C82D151D8A477
:100BB8000C84D251D8A40C860CC508F50DC509F5CE
:100BC80016EC13F0000E0D6E000E0C6E0801D351DA
:100BD800D8B402D0010E01D0000E0C12D451D8A402
:100BE8000C82D551D8A40C84D651D8A40C860CC537
:100BF80008F50DC509F523EC13F0D7C843F4D8C898
:100C080044F4D9C845F4D7C843F4D8C844F4D9C87B
:100C180045F41200000E106E000E116E000E126EDA
:100C2800000E136E0C500D100E100F10D8B42AD0F1
:100C3800010E146E06D0D8900C360D360E360F36CF
:100C4800142A0FAEF8D7D89010361136123613364C
:100C58000C50085C0D5009580E500A580F500B588C
:100C6800D8A009D00C50085E0D50095A0E500A5AE7
:100C78000F500B5A1080D8900F320E320D320C32B2
:100C8800142EE1D710C508F511C509F512C50AF5E6
:100C980013C50BF51200080E0001B16F000E040118
:100CA800006F000E086F000E106F000E186F209175
:100CB80020932095000E086F000E106F000E186F1D
:100CC800C292CA92010E0201D56FA00ED46FD189CB
:100CD800D18BC68E070E766FBE8CC69C260E076F0C
:100CE800D28FC290CA90000EBF6E000EC76E000E63
:100CF800C06E000EC86E3F0E046FC696320E040119
:100D0800436F330E446F030E456F000E476F4691D5
:100D1800468B468F120000FF060006A5065A06FFFE
:100D28000A000AA50A5A0AFF008040C020A060E015
:100D3800109050D030B070F00008040C020A060E73
:100D48000109050D030B070F286E756C6C29001A35
:100D58000000001A0000001A0000001A000000003D
:100D680000000000000000000000000000000080FB
:100D780000000080000000800000008000000000EB
:0F0D8800000000000000000000000064400000B8
:100D980006EC0CF080EC0BF060516111D8A429D05E
:100DA80056C5EAF557C5EBF577EC0EF05650050138
:100DB800F06F5750F16FF26BF36BF1C5F3F5F0C5B7
:100DC800F2F5F16BF06B0B0EF025E26F000EF121DE
:100DD800E36F000EF221E46F000EF321E56FA20E1F
:100DE800E66FE50EE76F000EE96F010EE86F44EC61
:100DF80007F0070142514311D8B41200000E060152
:100E0800F46F010EF36F1200E2C5D8F5E3C5D9F50A
:100E1800E4C5DAF5E5C5DBF501D80BD00500FA6EB7
:100E28000701DE51FD6EDF51FE6EE051FF6EFA5094
:100E3800120001D80CD00500FA6E0701E151FD6ED1
:100E4800E251FE6EE351FF6EFA50FF0E1200E2C54A
:100E580008F5E3C509F5E6C50AF5E7C50BF5E8C5E4
:100E68000CF5E9C50DF501D812000500FA6E080168
:100E7800E851FD6EE951FE6EEA51FF6EFA5012001C
:100E8800E2C5D8F5E3C5D9F5E4C5DAF5E5C5DBF57E
:100E980001D80BD00500FA6E0701DE51FD6EDF5157
:100EA800FE6EE051FF6EFA50120001D80CD005001A
:100EB800FA6E0701E151FD6EE251FE6EE351FF6EDD
:100EC800FA50000E1200E2C508F5E3C509F5E6C5BB
:100ED8000AF5E7C50BF5E8C50CF5E9C50DF501D828
:100EE80012000500FA6E0801EE51FD6EEF51FE6E1C
:100EF800F051FF6EFA5012001A0E1124086E000EFF
:100F08001220096E02EC10F008C517F509C518F58E
:100F1800196A1A6A0FC5D9F410C5DAF4030EDE1877
:100F2800D8A41CD0140E1124086E000E1220096ECD
:100F380002EC10F00850136E0950146E156A166A08
:100F480014C516F513C515F5146A136A135017124C
:100F5800145018121550191216501A1217C50FF5F9
:100F680018C510F519C511F51AC512F51200F5C501
:100F7800D8F5F6C5D9F5F7C5DAF5F8C5DBF5F9C53D
:100F8800DCF5FAC5DDF5D1ECF2F0000EFF6FF7C520
:100F9800FBF5F8C5FCF5000EFE6F000EFD6F0AD0DC
:100FA800FBC5D9F4FCC5DAF4DF50FF27FB4BFC2B5B
:100FB800FD4BFE2BF951FD5DFA51FE59D8A0F0D733
:100FC800DA0EBE6FF20EBF6FF5C5C0F5F6C5C1F5F6
:100FD800050EC26FF00EC36FFFC5C4F5C56B17ECE5
:100FE80012F0120008C512F509C513F513C5C1F4AE
:100FF80012C5BFF4000E116E000E106E26D0BE98FA
:1010080010500A240E6E11500B200F6E0EC5F6F408
:101018000FC5F7F4000EF86E250EF76404D0D0C49F
:10102800F5F40C0006D0F6C4E9F4F7C4EAF4D0C429
:10103800EFF4BE88122A12C5BFF41250D8A403D008
:10104800132A13C5C1F4104A112A0C50105C0D5014
:101058001158D8B01200D3D74D51D8B41200F2C5E8
:10106800F4F5010E0501F56F000EF66FF42B03D0B1
:10107800D890F537F637F42FFBD707013E51050115
:10108800F51707013F510501F617F551F611D8A4D8
:101098001200F2C5EAF5F3C5EBF577EC0EF0F2C5F0
:1010A800F4F5010E0501F56F000EF66FF42B03D071
:1010B800D890F537F637F42FFBD70501F55107011E
:1010C8003E130501F65107013F1312002EC5D9F44E
:1010D8002FC5DAF4DEC435F5DDC436F520EE06F0AA
:1010E8002E50D9262F50DA22DF50316ED890313465
:1010F8004109326E30C533F535C50CF536C50DF5E9
:10110800FEEC0CF035C51CF536C51DF5320E1E6E0D
:10111800050E1F6E000E216E020E206E5DEC04F0AF
:1011280035C52BF536C52CF587EC12F0346E35C570
:101138000CF536C50DF597EC11F03450120008C5C2
:1011480012F509C513F513C5C1F412C5BFF4000E95
:10115800116E000E106E25D0BE9410500A240E6E2B
:1011680011500B200F6E0EC5F6F40FC5F7F4000EE4
:10117800F86E250EF76403D00800F55005D0F6C4C4
:10118800E9F4F7C4EAF4EF50C06EBE84122A12C51F
:10119800BFF41250D8A403D0132A13C5C1F4104ABF
:1011A800112A0C50105C0D501158D8B01200D4D729
:1011B8000A6E530EF66EDF0EF76E000EF86E09001B
:1011C800F5500A5CD8A026D0540EF66EDF0EF76EE6
:1011D800000EF86E0A500900F55CD8A005D0000E84
:1011E800096E010E086E1200550EF66EDF0EF76ED0
:1011F800000EF86E0900F5500A5CD8A00BD0560E08
:10120800F66EDF0EF76E000EF86E0A500900F55CF8
:10121800D8B0E5D7000E096E000E086E1200D69EF3
:10122800070138513911D8B41FD0B00E3625D96E00
:101238000A0E3721DA6EDF500E6E010E3625086E63
:10124800000E3721096E000E0B6E500E0A6EDFEC91
:10125800FFF008C536F709C537F73807D8A03907AA
:10126800A780D68E0E5012000601F351F411D8B49F
:1012780003D0D68E000E1200D68E150E0D6EC60E39
:10128800E82EFED70D2EFCD700D0C9D74A6E00C76E
:101298004BF501C74CF56EC54FF56FC550F56AC5DE
:1012A80044F56BC545F56CC546F56DC547F54FC5A5
:1012B80048F550C549F54A5087ECFFF044C54DF54F
:1012C80045C54EF54D504E10D8B403D0DAEC11F0A8
:1012D80012004BC508F54CC509F5010E4F240A6EDE
:1012E800000E50200B6EFF0E70250C6EFF0E712144
:1012F8000D6E1CECC9F0EAD708C5D9F409C5DAF4B3
:101308000AC5DFF4084A092A0B500A6E0C500B6E06
:101318000D500C6E0D6A08C5D9F409C5DAF40AC572
:10132800DFF4084A092A0B500A6E0C500B6E0D5058
:101338000C6E0D6A08C5D9F409C5DAF40AC5DFF4DC
:10134800084A092A0B500A6E0C500B6E0D500C6E91
:101358000D6A08C5D9F409C5DAF40AC5DFF4084AE4
:10136800092A120010C5F6F411C5F7F4000EF86E3C
:101378000800F5500C6E0D6AC4EC11F00CC517F599
:101388000DC518F5104A112A12C5D9F413C5DAF497
:10139800DF50146E14500C6E0D6AC4EC11F00CC5BD
:1013A80015F50DC516F5124A132A1550171808E138
:1013B80016501818D8A404D017501810D8A4D2D78B
:1013C8001550175C106E16501858116E1200660EE4
:1013D800356E070E366E000E386E010E376ECBEC8A
:1013E800DDF035C53FF536C540F5660E356E070E9E
:1013F800366E000E386E050E376E000E3A6E010E10
:10140800396EDDECF4F0660E356E070E366E000EA2
:10141800386E060E376E000E3A6E010E396EDDEC30
:10142800F4F0660E356E070E366E3FC537F540C5CB
:1014380038F5CBECDDF012003EC540F53FC541F56F
:1014480020EE02F04050D9264150DA22000EDF6E1D
:10145800000E0001846F000E856F110E02016A6F85
:10146800120E6B6F660E086E070E096E3DEC13F0D8
:1014780008500910D8B40FD0660E356E070E366EB8
:10148800000E386E000E376E000E3A6E010E396E81
:101498005BECF5F001D0CA940001848F12000C5067
:1014A8000D100E100F10D8B424D0010E106E06D0F7
:1014B800D8900C360D360E360F36102A0FAEF8D7E8
:1014C8000C50085C0D5009580E500A580F500B5814
:1014D800D8A008D00C50085E0D50095A0E500A5A70
:1014E8000F500B5AD8900F320E320D320C32102E8C
:1014F800E7D708C508F509C509F50AC50AF50BC5F2
:101508000BF512002BC5D9F42CC5DAF4DEC433F57B
:10151800DDC434F520EE06F02B50D9262C50DA2203
:10152800DF502F6ED8902F344009306E2DC531F51D
:101538002EC532F533C50CF534C50DF5FEEC0CF0AF
:1015480033C51CF534C51DF5300E1E6E050E1F6E15
:10155800000E216E030E206E5DEC04F033C50CF511
:1015680034C50DF597EC11F012000AC510F50BC53E
:1015780011F50C500D10D8B412000DC583F00CC530
:1015880082F010C5D9F411C5DAF4DF500001816F7B
:10159800104A112A000E0F6E010E0E6E0ED010C5E5
:1015A800D9F411C5DAF4DF50816F104A112AB1A0BD
:1015B800FED7000180510E4A0F2A0C500E5C0D50C8
:1015C8000F58D8A0ECD7B1A0FED700018051120067
:1015D800B8C5BCF5B9C5BDF5000E0701236F000EEF
:1015E800226F17D0B6C593F5B7C594F5BC0E0501A3
:1015F800956F050E966FBAC597F5BBC598F500ECC3
:1016080080F0050193510701222705019451070134
:101618002323BCC5F6F4BDC5F7F4000EF86E080028
:10162800F5500009D8A4DED7000E0501B76F000EEB
:10163800B66F120004D0084A092A0A4A0B2A08C5BC
:10164800D9F409C5DAF4DF500C6E0AC5F6F40BC5F7
:10165800F7F4000EF86E0800F5500C18D8A407D05F
:1016680008C5D9F409C5DAF4DF50D8A4E4D708C509
:10167800D9F409C5DAF4DF500C6E0AC5F6F40BC5C7
:10168800F7F4000EF86E0800F5500C5C086E096A55
:10169800D8A009061200000E106E08C511F509C57C
:1016A80012F50A5011240C6E0B5012200D6E1CD02E
:1016B80011C5D9F412C5DAF4DF50101A114A122AEA
:1016C800000E0F6E000E0E6E10AE02D0890E101AAC
:1016D800D89010360E4A0F2A0FBEF6D70F5004E1E5
:1016E800080E0E5CD8A0F0D70C50115C0D501258A3
:1016F800D8A0DED710501200F929FA11D8B4120078
:10170800F9510501EA6F0701FA510501EB6FEC6B1E
:10171800ED6BEBC5EDF5EAC5ECF5EB6BEA6B660E28
:10172800EA25E26F000EEB21E36F000EEC21E46F77
:10173800000EED21E56F770EE66F070EE76F000EDE
:10174800E96F030EE86F44EC07F0000E0701FA6F2B
:10175800F9691200516E0701FD51D8B404D0AA0EE0
:101768005118D8A41200AA0E5118D8A403D0000EFC
:10177800FD6F120051AC0CD08C0E0501BE6FF10E3E
:10178800BF6F000EC16FA00EC06F17EC12F0FF0004
:1017980051AE1200F70E0501BE6FF10EBF6F000EBD
:1017A800C16FA00EC06F17EC12F0FFD70BBE07D0A9
:1017B8000B500A1009101DE10804D8B01AD008C54A
:1017C8000CF509C50DF50AC50EF50BC50FF50C1E70
:1017D8000D1E0E1E0F1E0C2A000E0D220E220F22A9
:1017E8000CC508F50DC509F50EC50AF50FC50BF5AD
:1017F800120008C508F509C509F50AC50AF50BC59B
:101808000BF512000701FB29FC11D8B41200FB519B
:101818000501EA6F0701FC510501EB6FEC6BED6BFD
:10182800EBC5EDF5EAC5ECF5EB6BEA6BEAC5E2F55D
:10183800EBC5E3F5ECC5E4F5EDC5E5F5000EE66F9F
:101848000B0EE76F010EE96F000EE86F44EC07F02E
:10185800000E0701FC6FFB691200516E5150D8B49D
:101868000ED00601F151F211D8B407D03A0E050195
:10187800BE6FF30EBF6F17EC12F0020E12000701D5
:10188800E72914E1E82912E1E92910E1EA29D8A4B5
:101898000DD00601F151F211D8B4EFD7630E05014E
:1018A800BE6FF50EBF6F17EC12F0E7D7000E1200EF
:1018B800000E106E000E116E000E126E000E136EEA
:1018C80008A008D00C5010260D5011220E501222DC
:1018D8000F501322D8900C360D360E360F36D8908E
:1018E8000B320A3209320832085009100A100B105C
:1018F800D8A4E6D710C508F511C509F512C50AF52B
:1019080013C50BF51200186812C508F513C509F5BB
:101918000AEC0EF0000E176E000E166E10D012C5EF
:1019280008F513C509F5180E0A6E050E0B6E000EA4
:101938000D6E010E0C6EB9EC0AF0164A172A1450F7
:10194800165C15501758D8A0EAD712C508F513C564
:1019580009F53AEC10F01200150E0501BE6FE80EFD
:10196800BF6F17EC12F08F0EBE6FF20EBF6F17EC41
:1019780012F0110E0501D96F3C0ED86FCB0EE82E70
:10198800FED7D82FFCD7D92FFAD7760E0501BE6F10
:10199800F20EBF6F17EC12F0150EBE6FE80EBF6F98
:1019A80017EC12F01200C20ED16F050ED26FBEC531
:1019B800C6F5BFC5C7F5000ECA6F000EC96F000E89
:1019C800D06F000ECF6FC60EB66F050EB76FC0C5CD
:1019D800B8F5C1C5B9F5D10EBA6F050EBB6FECEC01
:1019E8000AF0C951BE25D96ECA51BF21DA6E000E60
:1019F800DF6E12000CC50EF50DC50FF520EE05F0D3
:101A08000E50D9260F50DA22C8C4DFF4C896C898F9
:101A1800C88A20EE03F00E50D9260F50DA22DF5084
:101A2800D8B402D0C08801D0C098C0860CC508F5CB
:101A38000DC509F5000E0B6E010E0A6E8CEC13F045
:101A48001200066ED69E070139511AE1500E385D14
:101A5800D8B016D038513625016E39513721026E6B
:101A6800000E046E500E036E89EC0FF0B00E0124C8
:101A7800D96E0A0E0220DA6E06C5DFF4384B392B10
:101A8800395103E1400E385DD8B0A790D68E1200C8
:101A9800010E146E200E0E10106E000E0F10116E37
:101AA8009F0E1024126EFF0E1120136E135004E1C6
:101AB8001A0E125CD8A00ED0D00E0E24106EFF0E97
:101AC8000F20116E115004E10A0E105CD8A002D04C
:101AD800000E146E14C50EF50F6A12000D6ED69E18
:101AE8000701355104E1500E345DD8A004D0B7A2E7
:101AF800FED798EC0DF034513225086E355133215C
:101B0800096E000E0B6E500E0A6EDFECFFF0600ED1
:101B18000824D96E0A0E0920DA6E0DC5DFF4344B9D
:101B2800352BA782D68E12001DD0600E3225D96EB5
:101B38000A0E3321DA6EDF500201C96F010E070168
:101B48003225086E000E3321096E000E0B6E500E02
:101B58000A6EDFECFFF008C532F709C533F7340722
:101B6800D8A03507070134513511D8B41200B7A2EF
:101B78001200DBD7660E086E070E096E3DEC13F0F7
:101B880008500910D8B414D0660E356E070E366E9C
:101B9800000E386E000E376E40504110D8A402D0A7
:101BA800010E01D0000E396E3A6A5BECF5F01200B6
:101BB80040504110D8A402D0C2841200C29412002E
:101BC8001DD0600E3225D96E0A0E3321DA6EDF5031
:101BD8000201C96F010E07013225016E000E332183
:101BE800026E000E046E500E036E89EC0FF001C5F4
:101BF80032F702C533F73407D8A035070701345147
:101C08003511D8B41200B7A21200DBD708C50AF5FF
:101C180009C50BF520EE02F00A50D9260B50DA223E
:101C2800DF50D8A410D0310E0201126F320E116F9E
:101C380020EE03F00A50D9260B50DA22C8C4DFF48C
:101C4800C890C892C88420EE02F00A50D9260B50DA
:101C5800DA22DF2A120012D008C5D9F409C5DAF44D
:101C6800DFC40AF5010EDE26DFC40BF5000EDD2207
:101C78000AC5D9F40BC5DAF4000EDF6E08C5D9F42D
:101C880009C5DAF4DEC40AF5DDC40BF50AC5D9F4D2
:101C98000BC5DAF4200EDE18D8A41200DDD774ECD8
:101CA800FBF056500501F86F5750F96FFA6BFB6B54
:101CB800F9C5FBF5F8C5FAF5F96BF86BF8C541F508
:101CC800F9C542F5FAC543F5FBC544F501D812003C
:101CD8000500FA6E0701DB51FD6EDC51FE6EDD5129
:101CE800FF6EFA5012000501EA51EC6FEB51ED6FEF
:101CF800EE6BEF6BEDC5EFF5ECC5EEF5ED6BEC6B50
:101D0800080EEC25E26F000EED21E36F000EEE21C8
:101D1800E46F000EEF21E56F4B0EE66FE40EE76F00
:101D2800000EE96F060EE86F44EC07F01200000E93
:101D3800251A000E261A000E271A800E281A21C509
:101D480008F522C509F523C50AF524C50BF525C5EF
:101D58000CF526C50DF527C50EF528C50FF576EC4B
:101D6800BEF008C521F509C522F50AC523F50BC53E
:101D780024F5120008C5F6F409C5F7F4000EF86E4C
:101D88000800F5500A18D8A405D008C508F509C5F3
:101D980009F5120008C5F6F409C5F7F4084A092A36
:101DA800000EF86E0800F5500009D8A4E3D7000E1D
:101DB800086E000E096E120004011969C9680969E4
:101DC800C7681169C8680181C6800183C682018B12
:101DD800C68A198DC98CC18EC99E550E596FAA0E17
:101DE800596F5991080E5D6F000E5E6F000E5F6FA0
:101DF800550E596FAA0E596F59811200CC0E060163
:101E0800CC6F180ECD6FB00ECE6FFF0ECF6F010ED8
:101E1800D06FD4ECF9F00009D8B40DD0C20E05018A
:101E2800BE6FF10EBF6F17EC12F0FF0E0601D96FEF
:101E3800FE0ED86F1200000ED96F000ED86F120078
:101E48000AC511F50BC512F508C50FF509C510F53A
:101E580010D011C5D9F412C5DAF4DF500E6E114A4C
:101E6800122A0FC5D9F410C5DAF40EC5DFF40F4AEB
:101E7800102A0C06D8A00D060C28EBE10D28D8B4C2
:101E88001200E7D708C50AF509C50BF502D0084ABC
:101E9800092A08C5F6F409C5F7F4000EF86E250EF0
:101EA800F76403D00800F55005D0F6C4E9F4F7C488
:101EB800EAF4EF500009D8A4EAD70A50085C086E83
:101EC8000B500958096E12001A0E0E24086E000EE7
:101ED8000F20096E10C50AF511C50BF503EC12F0B9
:101EE8000CC5D9F40DC5DAF4030EDE18D8A4120017
:101EF800140E0E24086E000E0F20096E12C50AF586
:101F080013C50BF503EC12F0120003500410D8B4FB
:101F180018D0010E056E04D0D89003360436052A71
:101F280004AEFAD70350015C04500258D8A004D07C
:101F38000350015E0450025AD89004320332052E31
:101F4800F1D701C501F502C502F512000701D85104
:101F5800D911DA11D8B40DD001D812000500FA6EE3
:101F6800D851FD6ED951FE6EDA51FF6EFA50000E4F
:101F78001200510E0501BE6FF30EBF6F400EC06F09
:101F8800F40EC16F17EC12F012000AC50CF50BC560
:101F98000DF508C50EF509C50FF50CC5F6F40DC508
:101FA800F7F40C4A0D2A000EF86E0EC5D9F40FC5C9
:101FB800DAF40E4A0F2A0800F5C4DFF4DF50D8B46B
:101FC8001200EBD741504210D8B40CD0000E0201D9
:101FD800056F000E036FBE88BE84400EC96E000EEA
:101FE800C76E1200EBEC09F07F0EC96EC768C868AF
:101FF800010E0201056F020E036F120020EE01F0C0
:102008000850D9260950DA22DF500A6E0A500D6EA0
:102018000E6A08C5D9F409C5DAF4DF500A6E0D5006
:102028000B6E0A500D6E0BC50EF50DC508F50EC5E5
:1020380009F51200000E1A6E000E196E0BD018C5A5
:102048000BF50C6A16C50DF517C50EF5D6EC02F0A2
:10205800194A1A2A19501424D96E1A501520DA6E02
:10206800DF50186E1850D8B41200E9D708C50AF521
:1020780009C50BF520EE02F00A50D9260B50DA22DA
:10208800DF06DF50D8A41200000E0201126F000E06
:10209800116F20EE03F00A50D9260B50DA22DF50D8
:1020A800C86E12000D6E0D500F0B086E096A120EE5
:1020B8000824D96E080E0920DA6EDF500A6E0D3832
:1020C8000F0B0F0B0B6E0C6A220E0B24D96E080E29
:1020D8000C20DA6EDF500A1012000701D851D9110E
:1020E800DA11D8B40DD001D80BD00500FA6ED8514A
:1020F800FD6ED951FE6EDA51FF6EFA50010E1200D4
:1021080056C5EEF557C5EFF574EC03F0120007D08D
:1021180008C5D9F409C5DAF4DE2A000EDD2208C59F
:10212800D9F409C5DAF4DEC40AF5DDC40BF50AC52D
:10213800D9F40BC5DAF4200EDE18D8A41200E8D7BB
:1021480032C515F533C516F534C517F535C518F577
:1021580036C519F537C51AF5000E1B6E47ECBBF0EE
:1021680015C532F516C533F517C534F518C535F557
:102178001200F20EBE6FEE0EBF6FD8C5C0F5D9C5FE
:10218800C1F5DAC5C2F5DBC5C3F5DEC5C4F5DFC5E3
:10219800C5F5DCC5C6F5DDC5C7F517EC12F0D4ECFE
:1021A80013F012001BBE05D01B5010E11A04D8B062
:1021B8000DD01AC51CF51BC51DF51C1E1D1E1C4A7D
:1021C8001D2A1CC51AF51DC51BF512001AC51AF5DE
:1021D8001BC51BF51200010E0C6E200E0818091005
:1021E800D8B40ED0F70E08240A6EFF0E09200B6E25
:1021F8000B5004E1050E0A5CD8A002D0000E0C6E4C
:102208000CC508F5096A12001B6E00C71CF501C74A
:102218001DF51CC516F51DC517F5A9EC12F01E6EA7
:102228001B501E18D8A407D01906D8A01A06195092
:102238001A10D8A4EED71E501200200E08100A6EED
:10224800000E09100B6E9F0E0A240C6EFF0E0B2059
:102258000D6E0D5006E11A0E0C5CD8B002D0010EBE
:0A22680001D0000E086E096A120092
:10227400B7A00ED0C7C207F50750D8B404D0075092
:1022840025EC0DF005D0000E0601F46F010EF36F7E
:10229400E4EC0DF034513511D8A41100A7921100CB
:1022A400E3C5D8F5E4C5D9F5E50EDA6F050EDB6FA5
:1022B400A0ECFCF0E76FE751D8A41200E3C5D9F411
:1022C400E4C5DAF4000EDE6E000EDD6E1200D851A5
:1022D4000701465D4751800A516E0501D951800AB4
:1022E4005158D8B01200F30EBE6FE80EBF6FD8C5B8
:1022F400C0F5D9C5C1F517EC12F012000850091049
:102304000A100B10D8B408D0000E081A000E091ACF
:10231400000E0A1A800E0B1A08C508F509C509F53E
:102324000AC50AF50BC50BF512000CC50EF50DC553
:102334000FF50CC508F50DC509F5000E0B6E000E62
:102344000A6E8CEC13F020EE05F00E50D9260F50D7
:10235400DA22DF50C86E12000501F4510701FB199F
:1023640006E10501F5510701FC19D8B406D0F4C5FE
:10237400EEF5F5C5EFF574EC03F0000E456F010EB4
:10238400446F12009F0E0C240E6EFF0E0D200F6E74
:102394000F5009E11A0E0E5CD8B005D05F0E0C1474
:1023A4000C6E0D6A12000CC50CF50DC50DF512006E
:1023B40000C744F501C745F544C542F545C543F595
:1023C400CBEC12F044C512F545C513F5000E156E9D
:1023D400010E146E87EC0CF01200660E086E070EE8
:1023E400096E3DEC13F008500910D8B405D0A00EC6
:1023F4000A6EEF0E0B6E12005F0E0A6EF60E0B6E77
:10240400120008C5D9F409C5DAF40AC5DFF4084A8C
:10241400092A0BC50AF50B6A08C5D9F409C5DAF40B
:102424000AC5DFF4084A092A1200C00E0501D66F56
:10243400050ED76F000EB66F000EB76FBEC5B8F5A8
:10244400BFC5B9F5D60EBA6F050EBB6FECEC0AF03A
:1024540012000CD0050E096E0F0E086EF10EE82E58
:10246400FED7082EFCD7092EFAD700F00701345105
:102474003511D8B41200EED708500A02F3C40CF593
:10248400F4C40DF508500B02F3500D2609500A024E
:10249400F3500D260CC508F50DC509F512009F0E65
:1024A40008240A6EFF0E09200B6E0B5006E11A0E6B
:1024B4000A5CD8B002D0010E01D0000E086E096A81
:1024C4001200BF0E08240A6EFF0E09200B6E0B507B
:1024D40006E11A0E0A5CD8B002D0010E01D0000E3B
:1024E400086E096A1200D00E08240A6EFF0E092035
:1024F4000B6E0B5006E10A0E0A5CD8B002D0010E36
:1025040001D0000E086E096A12002D682BC51CF557
:102514002CC51DF52D0E1E6E050E1F6E000E216EB0
:10252400010E206E26EC03F02D50120043C541F538
:1025340044C542F501D812000500FA6E0801FA51AB
:10254400FD6EFB51FE6EFC51FF6EFA5012001868CE
:1025540016C508F517C509F5180E0A6E050E0B6E9B
:10256400000E0D6E010E0C6E1CECC9F0185012001A
:1025740042C508F543C509F50AEC0EF042C53EF51F
:1025840043C53FF5000E416E010E406EBEEC0DF0EA
:10259400120042C53EF543C53FF5000E416E000EE4
:1025A400406EBEEC0DF042C508F543C509F53AECA2
:1025B40010F012003FEC05F001D812000500FA6E8D
:1025C4000801F751FD6EF851FE6EF951FF6EFA5095
:1025D40012000701D851D911DA11D8B406D056C562
:1025E400EEF557C5EFF586EC02F0AAEC0FF01200F9
:1025F4003E6E660E356E070E366E000E386E040E95
:10260400376E3EC539F53A6A5BECF5F0120001D835
:1026140012000500FA6E0801F451FD6EF551FE6ECC
:10262400F651FF6EFA501200F1C60AF5F2C60BF528
:1026340008C5F1F609C5F2F60AC508F50BC509F592
:10264400120054C50AF555C50BF508C554F509C55E
:1026540055F50AC508F50BC509F51200FFFFFFFF84
:10266400C108DB0801006607FFFF0B006FFFFF00D6
:05267400FF00FFCF0193
:10267A0020EE02F00850D9260950DA22DEC408F505
:10268A00DDC409F5120051EC13F00AC508F50BC5B3
:10269A0009F5F9EC13F0120001D04C0707014C516F
:1026AA00800A7F0FD8A01200F8D7000E086EC00E5D
:1026BA00096EFF0E0A6EFF0E0B6E1200000E086EF8
:1026CA00000E096E210E0A6E000E0B6E1200600ECD
:1026DA0007011D6F100E1E6F000E1F6F1200B5BA94
:1026EA0012000601F351F411D8A41200F8D7086EAB
:1026FA000804D8A412000001D785D79512000A6EE3
:10270A002BEC12F0B7A2FED70AC5C9F212000A5082
:10271A000B10D8A402D0C2841200C2941200FF0087
:10272A00000E0601BD6F000EBC6F1200086E08A0F5
:10273A0002D0C2821200C2921200086E08A002D011
:10274A00C18E1200C19E1200086E08A002D0C2807B
:10275A001200C2901200000E07013B6F0A0E3A6F78
:10276A001200000E0601BD6F010EBC6F1200086E4A
:10277A0008C5F3F70701F46B1200B5BA02D0D89076
:10278A001200D8801200CEBA02D0D8901200D88097
:10279A001200CEB002D0D8901200D8801200FF0EDC
:1027AA000B6E0A6848EC13F0120004012095C284EB
:1027BA00CA9412003AC708F53BC709F512003F0E42
:1027CA00096E08681200086E08C5C0F41200086E87
:1027DA0008C5C8F41200B59A1200D0501200CF50A2
:0B27EA001200FD5112001200FFD70189
:10DF0C0000B3F871070020F6720700DFF573070005
:10DF1C0017F574070030F6750701B6F6CF08000444
:10DF2C00F5D0080069F4D10800C1F3D2080034F729
:10DF3C00D3080099F5D408002AF5D508002BF4D69F
:10DF4C00080087F5D70802819FE0FC407E80FC002A
:10DF5C0000A00010000000E1FF0201D9F700025BF5
:10DF6C00FB000322FD00049EFE000598FE0106F551
:10DF7C00F8000783FF000858F90009E4F9000A6269
:10DF8C00F9000B1BFD000CBCFE000DB6FE010E5281
:10DF9C00FA000F88FF011063FC0211F1F70012BCAC
:10DFAC00F90013A0FD0014E0FE0015DAFE011600C6
:10DFBC00F90017CDFF01185EFF001902FA001A6C68
:10DFCC00F9001B99FD001CFEFE001DF8FE011E5CF5
:10DFDC00FA001FD1FF0120F7FA022109F8022226CC
:10DFEC00F7002325FE00241CFF002516FF01260B3D
:10DFFC00F90027C9FF01285BFC00293EFA022AC45C
:10E00C00F6002B1EFE002C3AFF002D34FF012E666D
:10E01C00FA002FDDFF0130EEFA023121F8023268EE
:10E02C00F7003341FE0034AFFA0035A6FA0136E0B2
:10E03C00F60037D9FF013853FC003948FA023A5B35
:10E04C00F7003B3AFE003C80FE003D7AFE013EEAC2
:10E05C00F8003FD5FF0040C0FC0041F1FC00423EFF
:10E06C00FD00436FFD0044C3FD0045F4FD004680F8
:10E07C00F900478FFC0048C7FC0049F8FC004A45F2
:10E08C00FD004B76FD004CCAFD004DFBFD004E8A99
:10E09C00F9004F96FC0050CEFC0051FFFC00524C96
:10E0AC00FD00537DFD0054D1FD005502FE00569439
:10E0BC00F900579DFC0058D5FC005906FD005A5339
:10E0CC00FD005B84FD005CD8FD005D09FE005E9EDA
:10E0DC00F9005FA4FC0060DCFC00610DFD00625ADD
:10E0EC00FD00638BFD0064DFFD006510FE0066A87B
:10E0FC00F90067ABFC0068E3FC006914FD006A6181
:10E10C00FD006B92FD006CE6FD006D17FE006EB21B
:10E11C00F9006FB2FC0070D0F90071DAF90072EE00
:10E12C00F90073F8F900740CFA007534FA0076AB48
:10E13C00FF0077C6F90078B9FC0079EAFC007A3761
:10E14C00FD007B68FD007CBCFD007DEDFD007E7656
:10E15C00F9007F88FC008073FB00818BFB0082AB95
:10E16C00FB0083C3FB0084EBFB008543FC0086DFD4
:10E17C00F8008753FB00886BFB008983FB008AA3A4
:10E18C00FB008BBBFB008CE3FB008D3BFC008ED4B7
:10E19C00F8008F4BFB009092FE0091B0FE0092D4E1
:10E1AC00FE0093F2FE009410FF00952EFF00969D4A
:10E1BC00FA009774FE009863FB00997BFB009A9B16
:10E1CC00FB009BB3FB009CDBFB009D33FC009EC95A
:10E1DC00F8009F43FB00A0A4FE00A1C2FE00A2E633
:10E1EC00FE00A304FF00A422FF00A540FF00A6B878
:10E1FC00FA00A786FE00A8AAFE00A9C8FE00AAEC99
:10E20C00FE00AB0AFF00AC28FF00AD46FF00AEC11C
:10E21C00FA00AF8CFE00B0ABFE00B1C9FE00B2ED4F
:10E22C00FE00B30BFF00B429FF00B547FF00B6C2D8
:10E23C00FA00B78DFE00B88DFF00B992FF00BA97B7
:10E24C00FF00BB9CFF00BCA1FF00BDA6FF00BE33BE
:10E25C00FB00BF7EFF00C048FE00C129FD02C22D9D
:10E26C00F802C3D3FA02C418F700C593FB01C6CD5C
:10E27C00F700C7F3FB00C858FF00C9E5FF02CA420C
:10E28C00F900CB000002CC9CF702CD16F901CEC1EF
:10E29C00F700CF13FC00D030FD00D1A7FD02D2E572
:10E2AC00F701D3D2F602D4EEF600D5CBFB01D6168D
:10E2BC00FA00D7FBFB00D8CEFE00D9E9FF02DA2129
:10E2CC00F901DB4EF702DC8FF700DD000001DEB553
:10E2DC00F700DF1BFC00E033FE00E12CFE02E21530
:10E2EC00F800E34DF902E40AF700E54BFC01E620E7
:10E2FC00FA00E703FC00E8AEFD00E93BFB02EAFD97
:10E30C00F700EBDCFA02ECFCF600ED000001EE2A63
:10E31C00FA00EF23FC00F052FF00F1B5FD02F237DA
:10E32C00F900F3F8FF02F482F700F5D3FB01F62BAA
:10E33C00FA00F70BFC00F84CFF00F9E5FA02FA2C96
:10E34C00F900FBFBFF02FC75F700FD000001FECAA3
:10E35C00FA00FF2BFCF0000000C3960043502F4D39
:10E36C0020626F6F742D6C6F6164657220666F72C2
:10E37C00205A38302D53696D756C61746F720D0AAB
:10E38C000000000000000000000000000000000081
:10E39C000000000000000000000000000000000071
:10E3AC000000000000000000000000000000000061
:10E3BC000000000000000000000000000000000051
:10E3CC000000000000000000000000000000000041
:10E3DC00000000000000000000424F4F543A20653E
:10E3EC0072726F7220626F6F74696E670D0A002112
:10E3FC0003007ED30123B7C29900ED46FB01010057
:10E40C00210000AFD30A78D30B79D30C7DD30F7CCA
:10E41C00D310AFD30DDB0EB7CA0000C630D3013E0C
:10E42C000DD3013E0AD3012180007EB7CADC00D394
:10E43C000123C3D100F376D3AC182731000000D3ED
:10E44C00AB00C30E00ED73B00031AC00F5AF32B4CD
:10E45C0000C5D5E5DDE5FDE5ED7BB000E122AE00C4
:10E46C0018D53AB400219B00B72803219D004E23F8
:10E47C0046ED4399002AB2007DB7B4282F11000055
:10E48C00060E1A77231310FA2AB20011040019226F
:10E49C00AC001818000000000000000000D3AB0016
:10E4AC00ED73B00031AC00F53E0118A2DD2AB200CC
:10E4BC003EAADD77092AB000DD7505DD74063A9FAA
:10E4CC0000DD770B31A000FDE1DDE1E1D1C1F1FB15
:10E4DC00ED45ED4DED45C9000000000000000000C9
:10E4EC000000000400000000000000000094FA008E
:10E4FC006C2700000005F0CEEEA9F702A29A0100ED
:10E50C000010F654ECF5FF02A29A01000000000086
:10E51C00008BFA04BC5D0100008BEAEFED79FF0281
:10E52C000CA601000010F6C2EF6EFE0028270000BA
:10E53C00003DF500007AFC0216BD0100006EF6C825
:10E54C00ED70FE027232010100F1F4ABEC81FC00C3
:10E55C00948D01000005F000F137F5020EDA01028E
:10E56C000041F700ED74FF0014BA01000016F4002E
:10E57C0000D3AD180500000000002A0400ED5B0676
:10E58C00003A0800477E12231310FA3E0018E23EB0
:10E59C0000D3AD7618F9C9696F5F7374617428295B
:10E5AC00203D3D20494F5F535441545F4E4F545FC3
:10E5BC0053544152544544207C7C20696F5F7374E2
:10E5CC0061742829203D3D20494F5F535441545FCD
:10E5DC0053544F50504544207C7C20696F5F7374BA
:10E5EC0061742829203D3D20494F5F535441545FAD
:10E5FC00494E544552525550544544207C7C206918
:10E60C006F5F737461742829203D3D20494F5F531F
:10E61C005441545F50524550494E564F4B45207C07
:10E62C007C20696F5F737461742829203D3D2049FB
:10E63C004F5F535441545F4D4F4E49544F520069F4
:10E64C006F5F737461742829203D3D20494F5F53DF
:10E65C005441545F4E4F545F5354415254454420DF
:10E66C007C7C20696F5F737461742829203D3D2088
:10E67C00494F5F535441545F53544F5050454420BD
:10E68C007C7C20696F5F737461742829203D3D2068
:10E69C00494F5F535441545F4D4F4E49544F5200B4
:10E6AC004449534B3A204F503D2530327820442F6B
:10E6BC00542F533D25642F2533642F25336420209C
:10E6CC0020202020202020202020414444523D2581
:10E6DC003031782530327825303278202852442059
:10E6EC0049474E4F524544290A0D004449534B3A71
:10E6FC00204F503D2530327820442F542F533D2548
:10E70C00642F2533642F25336420202020202020E3
:10E71C002020202020414444523D253031782530A2
:10E72C00327825303278202857522049474E4F52A4
:10E73C004544290A0D0025733A204552524F523A4E
:10E74C0020492F4F20253573202533642C20253369
:10E75C0064202825303258482C202530325848293E
:10E76C00207768696C652077616974696E672066CB
:10E77C006F7220256420282530325848290A0D0054
:10E78C004449534B3A204F503D2530327820442F8A
:10E79C00542F533D25642F2533642F253364207863
:10E7AC002533643D25356C6420414444523D25306D
:10E7BC0031782530327825303278202E2E2E205389
:10E7CC00543D253032780A0D004449534B3A204FC2
:10E7DC00503D2530327820442F542F533D25642F43
:10E7EC002533642F25336420202020202020202056
:10E7FC00202020414444523D253031782530327858
:10E80C0025303278202E2E2E200A0D002F557365C0
:10E81C0072732F74616B656D7572612F776F726B8C
:10E82C0073706163652F6769746875622F537570B7
:10E83C0065724D455A38302F7372632F6D656D6F4D
:10E84C0072792E6300534420436172643A207265DE
:10E85C0061643531323A20435243206572726F72D3
:10E86C0020282530347820213D20253034782C2068
:10E87C0072657472793D2564290A0D005741524E18
:10E88C00494E473A206E6F204750494F20657870AB
:10E89C00616E64657220746F20636F6E74726F6C3E
:10E8AC002068696768657220616464726573730AB5
:10E8BC000D002F55736572732F74616B656D7572D6
:10E8CC00612F776F726B73706163652F6769746802
:10E8DC0075622F53757065724D455A38302F7372AF
:10E8EC00632F696F2E63005741524E494E473A20B1
:10E8FC00746F6F206D616E792062616E6B73207224
:10E90C0065717565737465642E2028726571756503
:10E91C007374206973202564290A0D00747970655D
:10E92C00202768656C702720746F207365652074D0
:10E93C006865206C697374206F6620617661696C00
:10E94C0061626C6520636F6D6D616E64730A0D009E
:10E95C00496D6167652066696C652025732F44528B
:10E96C0049564525632E44534B20697320617373BC
:10E97C0069676E656420746F206472697665202502
:10E98C00630A0D005741524E494E473A20756E6B43
:10E99C006E6F776E20492F4F207772697465202532
:10E9AC00642C202564202825303258482C20253012
:10E9BC00325848290A0D006469736B5F696F637480
:10E9CC006C3A20706472763D25642C20636D643D36
:10E9DC0025642C20627566663D3078256C783A206B
:10E9EC007265733D25640A0D0053442043617264C3
:10E9FC003A2020726561643531323A206164647268
:10EA0C003D25386C642C206F6666733D25642C2084
:10EA1C00636F756E743D25640A0D00534420436189
:10EA2C0072643A2077726974653531323A206164C8
:10EA3C0064723D25386C642C206F6666733D2564CA
:10EA4C002C20636F756E743D25640A0D00534420B1
:10EA5C00436172643A2077726974653531323A20B9
:10EA6C006661696C656420746F2067657420746FCF
:10EA7C006B656E2C2074696D656F75740A0D005B87
:10EA8C0064726976655D5B2C747261636B5D5B2C83
:10EA9C00736563746F725D5B2C6C656E6774685D17
:10EAAC00206F72205B64726976652C5D4C4241006C
:10EABC004449534B3A20207265616420442F542FF3
:10EACC00533D25642F2533642F253364207825335B
:10EADC00643D25356C643A204552524F520A0D0064
:10EAEC00534420436172643A2077726974653531FE
:10EAFC00323A2074696D656F75742C207265737071
:10EB0C006F6E736520697320253032780A0D0053BF
:10EB1C004420436172643A20434D4435382C2052D2
:10EB2C00333D25303278202530327820253032782C
:10EB3C00202530327820253032780A0D0025733AA2
:10EB4C00204552524F523A20636C6F636B207370A6
:10EB5C00656564202564206973206E6F742073755D
:10EB6C0070706F727465640A0D00534420436172B7
:10EB7C00643A20434D44382C2052373D25303278AE
:10EB8C0020253032782025303278202530327820FC
:10EB9C00253032780A0D004449534B3A20207265D7
:10EBAC00616420442F542F533D25642F2533642F4B
:10EBBC0025336420782533643D25356C643A204F29
:10EBCC004B0A0D006469736B5F696F63746C3A2058
:10EBDC00706472763D25642C20636D643D25643A27
:10EBEC00204E6F742068616E646C65642E0A0D0093
:10EBFC006469736B5F726561643A2020706472762D
:10EC0C003D25642C20736563746F723D256C642CF8
:10EC1C0020636F756E743D25640A0D006469736B17
:10EC2C005F77726974653A20706472763D25642C46
:10EC3C0020736563746F723D256C642C20636F7553
:10EC4C006E743D25640A0D005472616E736C6174B0
:10EC5C0065206D616368696E6520636F6465206F04
:10EC6C006E2074686520746172676574206D656DC3
:10EC7C006F727900534420436172643A20434353CA
:10EC8C002028436172642043617061636974792048
:10EC9C005374617475732920697320300A0D004414
:10ECAC006973706C6179206F72206368616E67653F
:10ECBC002073706563696669656420646562756755
:10ECCC00207661726961626C650053442043617205
:10ECDC00643A2077726974653531323A2043524375
:10ECEC00206572726F72202872657472793D25648A
:10ECFC00290A0D0057726974652062797465206F5A
:10ED0C007220737472696E6720746F20746865204A
:10ED1C00746172676574206D656D6F727900534410
:10ED2C0020436172643A204361726420706F77658E
:10ED3C00722075702073746174757320626973200E
:10ED4C00697320300A0D0072656164204D425220B7
:10ED5C00706172746974696F6E207461626C652085
:10ED6C00617420736563746F7220300A0D00574113
:10ED7C00524E494E473A20756E6B6E6F776E204936
:10ED8C002F4F20726561642025642028253032586D
:10ED9C0048290A0D00534420436172643A202072C2
:10EDAC006561643531323A20736563746F723D2549
:10EDBC006C643A204552524F520A0D0044697370EC
:10EDCC006C6179206461746120626C6F636B287371
:10EDDC00292066726F6D207468652053442043614E
:10EDEC00726400446973706C617920736563746F2D
:10EDFC00722873292066726F6D206469736B2069A9
:10EE0C006D6167652066696C6500534420436172CF
:10EE1C00643A2053444843206F7220534458432093
:10EE2C00636172642064657465637465640A0D00C3
:10EE3C0025733A204552524F523A206D6F6465202B
:10EE4C002564206973206E6F7420737570706F72F7
:10EE5C007465640A0D00534420436172643A20695E
:10EE6C006E697469616C697A65202E2E2E2073751B
:10EE7C00636365656465640A0D00534420436172E5
:10EE8C00643A20756E65787065637465642072658C
:10EE9C0073706F6E736520253032780A0D00534401
:10EEAC0020436172643A2020726561643531323AD4
:10EEBC0020736563746F723D256C643A204F4B0A66
:10EECC000D0045786974206D6F6E69746F722061E6
:10EEDC006E6420636F6E74696E756520657865630A
:10EEEC007574696F6E00417373657274696F6E200F
:10EEFC006661696C65643A202573202825733A2075
:10EF0C0025733A202564290A005344204361726416
:10EF1C003A2041434D44343120726573706F6E73E7
:10EF2C006520697320253032780A0D005344204344
:10EF3C006172643A2077726974653531323A2074A3
:10EF4C006F6B656E20697320253032780A0D004591
:10EF5C0052524F523A2062616E6B202564206973C5
:10EF6C00206E6F7420617661696C61626C652E0A2B
:10EF7C000D00534420436172643A20434D443539AB
:10EF8C0020726573706F6E73652069732025303243
:10EF9C00780A0D0053757065724D455A38302B53F5
:10EFAC0050492077697468204750494F2065787024
:10EFBC00616E64657200446973706C617920646180
:10EFCC007461206F6E20746865207461726765745B
:10EFDC00206D656D6F7279004D656D6F72792030A3
:10EFEC003030303030202D202530366C58482025DC
:10EFFC0064204B42204F4B0D0A007061727469748F
:10F00C00696F6E2073746172747320617420736500
:10F01C0063746F7220256C640A0D00557365205261
:10F02C0041332065787465726E616C20636C6F631C
:10F03C006B20666F72205A38300A0D0055736520AC
:10F04C004E434F20252E3266204D487A20666F7233
:10F05C00205A383020636C6F636B0A0D00665F7743
:10F06C007269746528293A204552524F52207265B4
:10F07C00733D25642C206E3D25640A0D00665F727D
:10F08C0065616428293A204552524F5220726573AB
:10F09C003D25642C206E3D25640A0D00696F5F6967
:10F0AC006E766F6B655F7461726765745F637075A4
:10F0BC005F74656172646F776E006661696C65641C
:10F0CC0020746F20777269746520736563746F7236
:10F0DC0020256C640A0D00696F5F696E766F6B6535
:10F0EC005F7461726765745F6370755F7072657071
:10F0FC0061726500446973706C617920737461741A
:10F10C007573206F6620746865207461726765740E
:10F11C00006661696C656420746F2072656164209F
:10F12C00736563746F7220256C640A0D000A0D53AD
:10F13C004420436172643A20696E697469616C6938
:10F14C007A65202E2E2E0A0D00436C6561722062AA
:10F15C007265616B706F696E742061742025303438
:10F16C006C580A0D00534420436172643A204143A9
:10F17C004D4434312C2052313D253032780A0D006B
:10F18C000A0D526573657420627920494F20706FA7
:10F19C0072742025303258480A0D004661696C653E
:10F1AC006420746F206F70656E205344204361722D
:10F1BC00642E2E0A0D004661696C656420746F2004
:10F1CC006D6F756E7420534420436172642E0A0D6A
:10F1DC00006661696C656420746F207265616420DF
:10F1EC00736563746F7220300A0D000A0D48414C30
:10F1FC005420627920494F20706F72742025303270
:10F20C0058480A0D0053657420627265616B706F0B
:10F21C00696E74206174202530346C580A0D0064BA
:10F22C0069736B5F696E697469616C697A652825AD
:10F23C0064292E2E2E0A0D00534420436172643A29
:10F24C00206E6F74207375706F70727465640A0D24
:10F25C0000534420436172643A20434D44302C20C7
:10F26C0052313D253032780A0D00202020202020FC
:10F27C002020202020202020202020202020202082
:10F28C00200D007761697420666F722070726F6751
:10F29C0072616D6D6572202E2E2E0D00496E766199
:10F2AC006C696420617267756D656E743A202725F0
:10F2BC0073270A0D005354415455533A20256325A6
:10F2CC006325632563256325632563256300257307
:10F2DC002535337320434845434B53554D3A202530
:10F2EC003032780A0D00556E6B6E6F776E2076613A
:10F2FC00726961626C6520272573270A0D004272C2
:10F30C0065616B706F696E74206973206E6F742009
:10F31C007365740A0D004D656D6F72792030303055
:10F32C00303030202D202530366C58480D00706858
:10F33C0079736963616C2064726976657220213D12
:10F34C0020300A0D0025733A206E6F20696E7465AB
:10F35C0072727570742070696E0A0D00416D62696D
:10F36C0067756F757320636F6D6D616E64202573A7
:10F37C000A0D00665F6C7365656B28293A2045524F
:10F38C00524F522025640A0D00427265616B706FFA
:10F39C00696E74206973202530346C580A0D005541
:10F3AC006E6B6E6F776E20636F6D6D616E643A205D
:10F3BC0025730A0D0064656275675F666174646924
:10F3CC00736B5F766572626F7365006E6F2046417A
:10F3DC0054333220706172746974696F6E0A0D0057
:10F3EC00665F73796E6328293A204552524F52203A
:10F3FC0025640A0D00696F5F696E766F6B655F74CB
:10F40C0061726765745F63707500446973706C61D9
:10F41C00792074686973206D657373616765006426
:10F42C00656275675F7364636172645F766572624F
:10F43C006F7365006D6F6E5F6173736572745F6976
:10F44C006E74657272757074005350495F494F4504
:10F45C0058505F636F6E66696775726500646562AC
:10F46C0075675F6661746469736B5F7772697465E5
:10F47C000073697A656F6628706172616D732920FB
:10F48C003D3D2035004D3A204D6F6E69746F7220F2
:10F49C0070726F6D70740A0D006E6F204D425220A9
:10F4AC007369676E61747572650A0D00534420436D
:10F4BC006172643A2074696D656F75740A0D006928
:10F4CC006E76616C69642064726976652025640AC5
:10F4DC000D007772697465205B616464725D2C76D3
:10F4EC00616C0A0D005B7661726961626C655D5BD3
:10F4FC003D76616C75655D0064656275675F66611C
:10F50C00746469736B5F72656164006465627567CE
:10F51C005F6469736B5F766572626F7365006465B7
:10F52C006275675F7364636172645F777269746537
:10F53C0000526573746172742074686520737973FA
:10F54C0074656D005F5F6D656D6370795F6F6E5F85
:10F55C00746172676574006E6F2076616C696420EB
:10F56C00766F6C756D650A0D0053442043617264AF
:10F57C003A2072656164792E0A0D007A38305F6327
:10F58C006C6F636B5F4E434F31494E430064656251
:10F59C0075675F7364636172645F72656164002593
:10F5AC00732069732073656C65637465642E0A0D32
:10F5BC00005350495F53445F636F6E6669677572A1
:10F5CC0065004D4D553A2062616E6B2025303258E6
:10F5DC0020200064656275675F6469736B5F777286
:10F5EC006974650025733D256C642028256C58686A
:10F5FC00290A0D00427265616B206174202530343C
:10F60C00580A0D005B616464725D5B2C6C656E67FF
:10F61C0074685D0064656275675F6469736B5F72C3
:10F62C006561640064656275675F6469736B5F6DC7
:10F63C0061736B004E6F20626F6F74206469736B23
:10F64C002E0A0D002A2B2C3A3B3C3D3E5B5D7C2266
:10F65C003F7F0053757065724D455A38302B5350AF
:10F66C0049005B4C42415D5B2C6C656E6774685D58
:10F67C000025732F445249564525632E44534B00A5
:10F68C004E6F20534420436172643F0A0D00696F32
:10F69C005F776169745F77726974650025733D25C6
:10F6AC00642028255868290A0D0064656275675F17
:10F6BC006661746469736B004C4420484C2C28259B
:10F6CC003034584829004F5554202825303258489A
:10F6DC00292C41004C442028484C292C25303258E8
:10F6EC00480043414C4C204E432C253034584800A4
:10F6FC0043414C4C2050452C253034584800434154
:10F70C004C4C20504F2C25303458480043414C4C25
:10F71C00204E5A2C2530345848004C442028253093
:10F72C00345848292C484C0064656275675F7364D3
:10F73C0063617264005B616464725D2C76616C75EC
:10F74C006500494E20412C28253032584829004C60
:10F75C004420412C28253034584829004C4420287A
:10F76C002530345848292C410043414C4C204D2C19
:10F77C0025303458480043414C4C20502C25303413
:10F78C0058480043414C4C20582C253034584800E4
:10F79C0043414C4C205A2C25303458480064697332
:10F7AC00617373656D626C650053424320412C2577
:10F7BC00303258480041444320412C2530325848BF
:10F7CC000041444420412C2530325848004C442000
:10F7DC0042432C2530345848004A50204E432C25A7
:10F7EC0030345848004C442044452C25303458487B
:10F7FC00004A502050452C2530345848004C4420A9
:10F80C00484C2C2530345848004A5020504F2C2559
:10F81C0030345848004C442053502C253034584830
:10F82C00004A50204E5A2C253034584800426F6103
:10F83C0072643A2025730A0D0070726F6772616DE5
:10F84C003A0A0D0049593A20253034580A0D000A5D
:10F85C000D2020202025730A0D0042433A2025302C
:10F86C00345820200050433A2025303458202000B2
:10F87C0044453A202530345820200041463A202572
:10F88C00303458202000484C3A2025303458202061
:10F89C000053503A202530345820200049583A2043
:10F8AC002530345820200064656275675F64697385
:10F8BC006B006C656E203C3D203235360053424364
:10F8CC0020412C28484C290041444320412C2848F5
:10F8DC004C290041444420412C28484C29004C44DC
:10F8EC0020412C2530325848004C4420422C2530E5
:10F8FC00325848004C4420442C2530325848004C97
:10F90C004420482C25303258480043414C4C20258B
:10F91C0030345848004A5020432C25303458480085
:10F92C004A50204D2C2530345848004A5020502C39
:10F93C002530345848004A50205A2C253034584829
:10F94C0000455820285350292C484C00455820413C
:10F95C00462C414627004C4420412C284243290088
:10F96C004C4420412C28444529004C4420412C284F
:10F97C00484C29004C4420422C28484C29004C442B
:10F98C0020432C28484C29004C4420442C28484C1B
:10F99C0029004C4420452C28484C29004C44204834
:10F9AC002C28484C29004C44204C2C28484C29002D
:10F9BC004C4420284445292C41004C442028484CD8
:10F9CC00292C41004C442028484C292C42004C4402
:10F9DC002028484C292C430041444420484C2C42BC
:10F9EC0043004C442028484C292C44004C442028EB
:10F9FC00484C292C450041444420484C2C4445009B
:10FA0C004C442028484C292C480053554220253082
:10FA1C0032584800414E4420253032584800584F47
:10FA2C0052202530325848004C442028484C292C70
:10FA3C004C0041444420484C2C484C004144442048
:10FA4C00484C2C5350004C4420432C253032580049
:10FA5C004C4420452C25303258004C44204C2C254D
:10FA6C003032580025732530366C783A00464154B4
:10FA7C00333220202000737461636B3A0A0D0064EA
:10FA8C0069736B7265616400636F6E74696E756522
:10FA9C00005355422028484C29004445432028480F
:10FAAC004C2900494E432028484C2900414E442003
:10FABC0028484C2900584F522028484C29004350C4
:10FACC00202530325848004A502025303458480000
:10FADC0045582044452C484C004C442053502C484D
:10FAEC004C004A52204E432C2564004A52204E5A58
:10FAFC002C25640025643A2025730A0D0053656C8F
:10FB0C006563743A200043504D4449534B530025D0
:10FB1C0073253034783A004572726F720A0D000DFD
:10FB2C00257325730A0D0043502028484C29004AA0
:10FB3C00502028484C290053424320412C4100417D
:10FB4C00444320412C410041444420412C41004C71
:10FB5C00442042432C410053424320412C4200415B
:10FB6C00444320412C420041444420412C42005348
:10FB7C00424320412C430041444320412C4300414B
:10FB8C00444420412C4300505553482042430053D9
:10FB9C00424320412C440041444320412C44004129
:10FBAC00444420412C440053424320412C45004105
:10FBBC00444320412C450041444420412C450050F5
:10FBCC005553482044450050555348204146005356
:10FBDC00424320412C480041444320412C480041E1
:10FBEC00444420412C480052535420303048005299
:10FBFC005354203130480052535420323048005274
:10FC0C00535420333048005253542030384800525B
:10FC1C005354203138480052535420323848005243
:10FC2C005354203338480053424320412C4C00415C
:10FC3C00444320412C4C0041444420412C4C005066
:10FC4C0055534820484C004A5220432C2564004A06
:10FC5C0052205A2C256400444A4E5A2C25640043E9
:10FC6C00504D4449537E003C25643E0A0D0073649C
:10FC7C007265616400737461747573004C44204147
:10FC8C002C41004C4420422C41004C4420432C413C
:10FC9C00004C4420442C41004C4420452C41004C49
:10FCAC004420482C41004C44204C2C41004C442016
:10FCBC00412C42004C4420422C42004C4420432C0A
:10FCCC0042004C4420442C42004C4420452C420021
:10FCDC004C4420482C42004C44204C2C42004C44B8
:10FCEC0020412C43004C4420422C43004C442043E4
:10FCFC002C43004C4420442C43004C4420452C43C2
:10FD0C00004C4420482C43004C44204C2C430044D1
:10FD1C00454320424300494E4320424300504F503C
:10FD2C0020424300524554204E43004C4420412C69
:10FD3C0044004C4420422C44004C4420432C4400AE
:10FD4C004C4420442C44004C4420452C44004C444E
:10FD5C0020482C44004C44204C2C44004C44204162
:10FD6C002C45004C4420422C45004C4420432C454F
:10FD7C00004C4420442C45004C4420452C45004C60
:10FD8C004420482C45004C44204C2C450044454311
:10FD9C0020444500494E4320444500504F502044D8
:10FDAC00450052455420504500504F5020414600CC
:10FDBC004C4420412C48004C4420422C48004C44DC
:10FDCC0020432C48004C4420442C48004C442045F3
:10FDDC002C48004C4420482C48004C44204C2C48C7
:10FDEC00004C4420412C4C004C4420422C4C004CE8
:10FDFC004420432C4C004C4420442C4C004C4420BC
:10FE0C00452C4C004C4420482C4C004C44204C2C91
:10FE1C004C0044454320484C00494E4320484C007C
:10FE2C00504F5020484C0052455420504F004445F0
:10FE3C004320535000494E43205350005245542008
:10FE4C004E5A002530366C58200020253032780070
:10FE5C006661743A20006275663A20000D257320A5
:10FE6C000D00726573657400535542204100444582
:10FE7C0043204100494E43204100414E4420410063
:10FE8C00584F5220410053554220420044454320D4
:10FE9C004200494E43204200414E44204200584FFC
:10FEAC005220420053554220430044454320430016
:10FEBC00494E43204300414E44204300584F5220AA
:10FECC0043005245542043005355422044004445BE
:10FEDC0043204400494E43204400414E44204400FA
:10FEEC00584F52204400535542204500444543206E
:10FEFC004500494E43204500414E44204500584F93
:10FF0C0052204500535542204800444543204800A8
:10FF1C00494E43204800414E44204800584F52203F
:10FF2C004800535542204C00444543204C00494E58
:10FF3C0043204C00414E44204C00584F52204C0062
:10FF4C00524554204D0052455420500052455420E7
:10FF5C005A004A5220256400253032582000534460
:10FF6C003A20004D4F4E3E0068656C700064756D14
:10FF7C0070004350204100524C43410052524341C7
:10FF8C000043502042004350204300435020440083
:10FF9C00435020450043502048004350204C00481B
:10FFAC00414C5400303A2F2F00696E66006E616E22
:10FFBC00006C6C73000D25730020257300444141C7
:10FFCC0000524C41005252410043434600534346B9
:10FFDC000043504C004E4F50005245540045585869
:10FFEC00003F3F3F004D0A0D006469004449004545
:03FFFC00490000B9
:020000040001F9
:1000000095C5D9F496C5DAF4DEC4F6F4DDC4F7F488
:10001000000EF86E0800F550250AD8A45EEF86F0B1
:1000200095C5D9F496C5DAF4DE2A000EDD22000E5D
:100030000601F06F000EEF6FEFC658F55268536877
:10004000000E0501A86F000E14D0588095C5D9F494
:1000500096C5DAF4DE2A000EDD2230D05882F6D7BB
:100060005884F4D75886F2D75888F0D7000EA86F76
:10007000010EA76F23D095C5D9F496C5DAF4DEC476
:10008000F6F4DDC4F7F4000EF86E0800F550996F31
:100090009A6B9A51000AD8A4E9D79951200AD8B48A
:1000A000E1D7030AD8B4E0D7080AD8B4D9D7060AEA
:1000B000D8B4CBD71D0AD8B4D1D7D8D7A751A81157
:1000C000D8B4D9D758B0589295C5D9F496C5DAF4B2
:1000D000DEC4F6F4DDC4F7F4000EF86E0800F55047
:1000E0002A0AD8A424D095C5D9F496C5DAF4DE2A14
:1000F000000EDD2297C5D9F498C5DAF4DFC499F56E
:10010000020EDE26DFC49AF5000EDD2299C5D9F471
:100110009AC5DAF4DEC4EFF6DDC4F0F60601F0AFFE
:1001200036D05880EF6DF01FD8B0F02B30D095C589
:10013000D9F496C5DAF4DEC40EF5DDC40FF5B3ECE0
:10014000F1F00EC5EFF60FC5F0F607D095C5D9F45E
:1001500096C5DAF4DE2A000EDD2295C5D9F496C5DF
:10016000DAF4DEC4F6F4DDC4F7F4000EF86E08002D
:10017000F5C499F5D00E050199259A6F9B6BFF0E7A
:100180009B239B5104E10A0E9A5DD8A0DFD795C549
:10019000D9F496C5DAF4DEC4F6F4DDC4F7F4000E43
:1001A000F86E0800F5502E0AD8A466D0000E536EE3
:1001B000000E526E95C5D9F496C5DAF4DE2A000E0B
:1001C000DD2295C5D9F496C5DAF4DEC4F6F4DDC4B3
:1001D000F7F4000EF86E0800F5502A0AD8A41CD0D7
:1001E00095C5D9F496C5DAF4DE2A000EDD2297C54E
:1001F000D9F498C5DAF4DFC499F5020EDE26DFC41F
:100200009AF5000EDD2299C5D9F49AC5DAF4DEC458
:1002100052F5DDC453F530D095C5D9F496C5DAF45E
:10022000DEC40EF5DDC40FF5B3ECF1F00EC552F5EA
:100230000FC553F507D095C5D9F496C5DAF4DE2A73
:10024000000EDD2295C5D9F496C5DAF4DEC4F6F4C5
:10025000DDC4F7F4000EF86E0800F5C499F5D00E71
:10026000050199259A6F9B6BFF0E9B239B5104E11F
:100270000A0E9A5DD8A0DFD795C5D9F496C5DAF4F1
:10028000DEC4F6F4DDC4F7F4000EF86E0800F55095
:10029000630AD8A427D095C5D9F496C5DAF4DE2A26
:1002A000000EDD2297C5D9F498C5DAF4DFC499F5BC
:1002B000020EDE26DFC49AF5000EDD2299C5D9F4C0
:1002C0009AC5DAF4DF500501B36F93C514F594C5F0
:1002D00015F5B3C516F5C2EC03F014C593F515C5B5
:1002E00094F5120095C5D9F496C5DAF4DEC4B4F5D8
:1002F000DDC4B5F5B4C5F6F4B5C5F7F4000EF86E77
:100300000800F5C4B3F517D0B44BB52BB4C5F6F45B
:10031000B5C5F7F4000EF86E0800F550680AD8A4C9
:1003200035D0480EB36FB44BB52B30D0690E01D029
:10033000000EB36F2BD00501B351996F9A6B9A5190
:10034000000AD8A4F5D79951580AD8B4EFD73C0A77
:10035000D8B4ECD70C0AD8B4D7D7010AD8B4E6D7AA
:10036000050AD8B4E0D7020AD8B4E0D7010AD8B455
:10037000DDD71B0AD8B4D7D7010AD8B4D7D70D0A0E
:10038000D8B4D4D7020AD8B4CED7D2D7B4C5F6F4ED
:10039000B5C5F7F4000EF86E0800F550640AD8B43D
:1003A0009AD0B4C5F6F4B5C5F7F4000EF86E08009F
:1003B000F550690AD8B48FD0D1D097C5D9F498C573
:1003C000DAF4DFC499F5020EDE26DFC49AF5000EDA
:1003D000DD2299C5D9F49AC5DAF4DF50AB6F000E6F
:1003E000ABBFFF0EAC6F51D097C5D9F498C5DAF406
:1003F000DFC499F5040EDE26DFC49AF5000EDD2277
:1004000099C5D9F49AC5DAF4DEC49BF5DEC49CF52F
:10041000DEC49DF5DEC49EF59BC59FF59CC5A0F589
:100420009DC5A1F59EC5A2F5A36BA2BFA369A3C5F7
:10043000A4F5A3C5A5F5A3C5A6F59FC5ABF5A0C5B5
:10044000ACF5A1C5ADF5A2C5AEF5A3C5AFF5A4C584
:10045000B0F5A5C5B1F5A6C5B2F557D097C5D9F485
:1004600098C5DAF4DFC499F5020EDE26DFC49AF5EA
:10047000000EDD2299C5D9F49AC5DAF4DEC4ABF5D5
:10048000DDC4ACF5000EACBFFF0EAD6FAE6FAF6F4D
:10049000B06FB16FB26F39D097C5D9F498C5DAF49F
:1004A000DFC499F5020EDE26DFC49AF5000EDD22C8
:1004B00099C5D9F49AC5DAF4DEC49BF5DDC49CF580
:1004C0009BC5ABF59CC5ACF5AD6BAE6BAF6BB06BC4
:1004D000B16BB26B1AD0B351996F9A6B9A51000AF3
:1004E000D8A413D09951480AD8B467D7200AD8B4F1
:1004F000B5D7010AD8B4B2D7050AD8B475D7180A47
:10050000D8B4ACD70E0AD8B4C7D7010EB425996FAA
:10051000000EB5219A6F95C5D9F496C5DAF499C540
:10052000DEF49AC5DDF493C526F594C527F5ABC571
:1005300028F5ACC529F5ADC52AF5AEC52BF5AFC577
:100540002CF5B0C52DF5B1C52EF5B2C52FF5F8ECDB
:10055000C7F026C593F527C594F51200B4C5F6F487
:10056000B5C5F7F4000EF86E0800F550780AD8B457
:1005700096D0B4C5F6F4B5C5F7F4000EF86E0800D1
:10058000F550580AD8B48BD0B4C5F6F4B5C5F7F415
:10059000000EF86E0800F5506F0AD8B480D0B4C5CC
:1005A000F6F4B5C5F7F4000EF86E0800F550750ABC
:1005B000D8B475D012D197C5D9F498C5DAF4DFC490
:1005C00099F5020EDE26DFC49AF5000EDD2299C5EC
:1005D000D9F49AC5DAF4DF509B6F9B51AB6FAC6BCB
:1005E00057D097C5D9F498C5DAF4DFC499F5040E4D
:1005F000DE26DFC49AF5000EDD2299C5D9F49AC52E
:10060000DAF4DEC49BF5DEC49CF5DEC49DF5DEC4E1
:100610009EF59B51AB6F9C51AC6F9D51AD6F9E5140
:10062000AE6F38D097C5D9F498C5DAF4DFC499F520
:10063000020EDE26DFC49AF5000EDD2299C5D9F43C
:100640009AC5DAF4DEC4ABF5DDC4ACF5000EACBF80
:10065000FF0EAD6FAE6FAF6FB06FB16FB26F39D0CD
:1006600097C5D9F498C5DAF4DFC499F5020EDE26F1
:10067000DFC49AF5000EDD2299C5D9F49AC5DAF4E3
:10068000DEC49BF5DDC49CF59BC5ABF59CC5ACF504
:10069000AD6BAE6BAF6BB06BB16BB26B1AD0B351CD
:1006A000996F9A6B9A51000AD8A413D09951480AAD
:1006B000D8B481D7200AD8B4D3D7010AD8B4D0D7B8
:1006C000050AD8B48ED7180AD8B4ACD70E0AD8B455
:1006D000C7D7010EB425996F000EB5219A6F95C545
:1006E000D9F496C5DAF499C5DEF49AC5DDF45AD08A
:1006F00093C526F594C527F5ABC528F5ACC529F5F6
:10070000ADC52AF5AEC52BF5AFC52CF5B0C52DF599
:10071000B1C52EF5B2C52FF502ECE0F026C593F574
:1007200027C594F5120093C526F594C527F5ABC5EA
:1007300028F5ACC529F5ADC52AF5AEC52BF5AFC575
:100740002CF5B0C52DF5B1C52EF5B2C52FF566EC6B
:10075000D7F026C593F527C594F5120093C526F565
:1007600094C527F5ABC528F5ACC529F5ADC52AF567
:10077000AEC52BF5AFC52CF5B0C52DF5B1C52EF521
:10078000B2C52FF5B4C5F6F4B5C5F7F4000EF86E92
:100790000800F5C430F552ECCEF026C593F527C518
:1007A00094F51200B4C5F6F4B5C5F7F4000EF86E72
:1007B0000800F550996F9A6B9A51000AD8A40DD091
:1007C0009951580AD8B4CAD7370AD8B491D71A0A57
:1007D000D8B4A9D70D0AD8B4C1D7B4C5F6F4B5C5F5
:1007E000F7F4000EF86E0800F5506E0AD8B408D180
:1007F00035D197C5D9F498C5DAF4DFC499F5020E5E
:10080000DE26DFC49AF5000EDD2299C5D9F49AC51B
:10081000DAF4DEC49BF5DDC49CF59BC5F6F49CC5FB
:10082000F7F4000EF86E250EF76407D022C7F5F432
:100830000D0023C7F5F40C0001D0D9D0FBD097C52B
:10084000D9F498C5DAF4DFC499F5020EDE26DFC4C8
:100850009AF5000EDD2299C5D9F49AC5DAF4DEC402
:100860009BF5DDC49CF59BC5F6F49CC5F7F4000E22
:10087000F86E250EF76407D022C7F5F40D0023C7E4
:10088000F5F40C0001D0B3D0D5D097C5D9F498C5F4
:10089000DAF4DFC499F5020EDE26DFC49AF5000E05
:1008A000DD2299C5D9F49AC5DAF4DEC49BF5DDC41E
:1008B0009CF59BC5F6F49CC5F7F4000EF86E250E6A
:1008C000F76404D022C7F5F40C0006D0F6C4E9F4AE
:1008D000F7C4EAF422C7EFF4ADD022C799F523C7D5
:1008E0009AF5000E9ABFFF0E9B6F9C6F97C5D9F4C7
:1008F00098C5DAF4DFC49DF5020EDE26DFC49EF54E
:10090000000EDD229DC5D9F49EC5DAF4DEC49FF544
:10091000DDC4A0F59FC5F6F4A0C5F7F4000EF86E8F
:10092000250EF7640DD099C5F5F40D009AC5F5F4C0
:100930000D009BC5F5F40D009CC5F5F40C000CD022
:10094000F6C4E9F4F7C4EAF499C5EEF49AC5EEF4F6
:100950009BC5EEF49CC5EFF46DD097C5D9F498C54E
:10096000DAF4DFC499F5020EDE26DFC49AF5000E34
:10097000DD2299C5D9F49AC5DAF4DEC49BF5DDC44D
:100980009CF59BC5F6F49CC5F7F4000EF86E250E99
:10099000F76407D022C7F5F40D0023C7F5F40C0067
:1009A00001D025D047D097C5D9F498C5DAF4DFC473
:1009B00099F5020EDE26DFC49AF5000EDD2299C5F8
:1009C000D9F49AC5DAF4DEC49BF5DDC49CF59BC569
:1009D000F6F49CC5F7F4000EF86E250EF76407D008
:1009E00022C7F5F40D0023C7F5F40C0008D0F6C4B7
:1009F000E9F4F7C4EAF422C7EEF423C7EFF41AD0FF
:100A0000B351996F9A6B9A51000AD8A413D0995197
:100A1000480AD8B43AD7200AD8B411D7010AD8B4B2
:100A2000E8D6050AD8B459D7180AD8B496D70E0A0A
:100A3000D8B4B9D7010E0501B425996F000EB521C0
:100A40009A6F95C5D9F496C5DAF499C5DEF49AC5BE
:100A5000DDF4000E946F000E936F120095C5D9F46B
:100A600096C5DAF4DEC4F6F4DDC4F7F4000EF86ED1
:100A70000800F550730AD8B416D095C5D9F496C5B8
:100A8000DAF4DEC408F5DDC409F5BD0E0A6EFF0E0A
:100A90000B6E000E0D6E030E0C6ED9ECF5F00850C7
:100AA0000910D8A440D095C5D9F496C5DAF4DEC4AF
:100AB000F6F4DDC4F7F4000EF86E0800F550730A82
:100AC000D8B405D0000E0501AA6F030E04D0000EA5
:100AD0000501AA6F010EA96F95C5D9F496C5DAF480
:100AE000A951DE26AA51DD2293C514F594C515F54A
:100AF00097C5D9F498C5DAF4DFC499F5020EDE265D
:100B0000DFC49AF5000EDD2299C5D9F49AC5DAF44E
:100B1000DEC416F5DDC417F58FECEAF014C593F5C5
:100B200015C594F5120095C5D9F496C5DAF4DEC45E
:100B3000B4F5DDC4B5F5B4C5F6F4B5C5F7F4000EEB
:100B4000F86E0800F5C4B3F508D0B44BB52B18D037
:100B50006C0E01D0000EB36F13D00501B351996F25
:100B60009A6B9A51000AD8A4F5D799514C0AD8B477
:100B7000ECD72A0AD8B4ECD70A0AD8B4E6D7EAD711
:100B8000B4C5F6F4B5C5F7F4000EF86E0800F550DC
:100B9000660AD8B41AD064D097C5D9F498C5DAF4E7
:100BA000DFC499F5040EDE26DFC49AF5000EDD22BF
:100BB00099C5D9F49AC5DAF4DEC4ABF5DEC4ACF558
:100BC000DEC4ADF5DEC4AEF50ED0B351996F9A6BAD
:100BD0009A51000AD8A407D099514C0AD8B4DCD74E
:100BE000200AD8B4D9D7010EB425996F000EB521CB
:100BF0009A6F95C5D9F496C5DAF499C5DEF49AC50D
:100C0000DDF41CD093C560F594C561F5ABC562F504
:100C1000ACC563F5ADC564F5AEC565F5B4C5F6F410
:100C2000B5C5F7F4000EF86E0800F5C466F5C6EC1D
:100C30008CF060C593F561C594F51200B4C5F6F467
:100C4000B5C5F7F4000EF86E0800F550996F9A6B71
:100C50009A51000AD8A404D09951660AD8B4D2D7C0
:100C600095C5D9F496C5DAF4DEC4F6F4DDC4F7F41C
:100C7000000EF86E0800F550250AD8A417D095C5C7
:100C8000D9F496C5DAF4DE2A000EDD22000E0C6ED1
:100C9000250E0B6E93C50DF594C50EF5D6EC02F03E
:100CA000000E0501946F010E936F120095C5D9F4E3
:100CB00096C5DAF4DE2A000EDD22CBD695C5D9F42E
:100CC00096C5DAF4DEC4F6F4DDC4F7F4000EF86E6F
:100CD0000800F5500B6E0C6A93C50DF594C50EF522
:100CE000D6EC02F095C5D9F496C5DAF4DE2A000EEA
:100CF000DD22D6D7D9ECFBF001D80BD00500FA6E77
:100D00000701D551FD6ED651FE6ED751FF6EFA50D8
:100D10001200D8A01200000E0901F06F000EEF6F54
:100D200001D80BD00500FA6E0801E551FD6EE651C1
:100D3000FE6EE751FF6EFA5012000901F46F01D800
:100D40000BD00500FA6E0801E251FD6EE351FE6E14
:100D5000E451FF6EFA5012000901F76F0701F4BF6A
:100D600023D0000E3B6F230E3A6F01D80BD0050045
:100D7000FA6EE151FD6EE251FE6EE351FF6EFA50E4
:100D8000000E120001D80CD00500FA6E0701D251F6
:100D9000FD6ED351FE6ED451FF6EFA50F351120026
:100DA0000701F369F46908D101D80AD00500FA6E89
:100DB000CF51FD6ED051FE6ED151FF6EFA50120030
:100DC000D8A006D0000E07013B6F280E3A6F63D201
:100DD000000E07013B6F1E0E3A6F01D8CDD0050003
:100DE000FA6EE151FD6EE251FE6EE351FF6EFA5074
:100DF000000E1200070138513911D8B405D001D8BE
:100E0000D5D00500FA6EAFD001D8D0D00500FA6E6B
:100E1000D251FD6ED351FE6ED451FF6EFA50000ECA
:100E200012002BEC12F013EC09F00901EA6F01D863
:100E3000BDD00500FA6E0701D251FD6ED351FE6E92
:100E4000D451FF6EFA500901EA51120007012E51E8
:100E50002F11D8B427D0120E2E5D0601D46F090EC3
:100E600007012F590601D56FD5BF06D0D5511AE11C
:100E7000800ED45DD8B016D001D810D00500FA6E1F
:100E80000701D251FD6ED351FE6ED451FF6EFA5060
:100E90002EC7D9F42FC7DAF4DF50120007012E4B0A
:100EA0002F2B84D007017151D8A409D07251D8A436
:100EB00006D07351D8A403D07451D8B477D0AC0EF7
:100EC0000501BE6FE60EBF6FF7C6C0F5C16BF9C670
:100ED000C2F5C36BF8C6C4F5C56B30C7C6F531C7DC
:100EE000C7F556C5C8F557C5C9F5F5C6CAF5CB6BE4
:100EF000F6C6CCF5CD6B17EC12F058D001D856D011
:100F00000500FA6E0701D251FD6ED351FE6ED45129
:100F1000FF6EFA500601FD51120001D847D00500BE
:100F2000FA6E0701D251FD6ED351FE6ED451FF6EA1
:100F3000FA50F6EC13F012007A0E0501BE6FED0EBA
:100F4000BF6FF4C9C0F5C16BF4C9C2F5C36B17EC30
:100F500012F0000E0601F46F010EF36F01D826D0D7
:100F60000500FA6E0701D251FD6ED351FE6ED451C9
:100F7000FF6EFA50FF0E12000901F4510601D46F02
:100F8000D56BD551000AD8A4D7D7D451000AD8B40C
:100F900031D7010AD8B445D7090AD8B457D7060AB9
:100FA000D8B4ACD7AE0AD8B4B8D7C6D70601F35177
:100FB000F411D8A4AAEC0FF001D80CD00500FA6EF9
:100FC0000601FA51FD6EFB51FE6EFC51FF6EFA50A8
:100FD000000E120001D80BD00500FA6E0701CC51AB
:100FE000FD6ECD51FE6ECE51FF6EFA50120001D84B
:100FF0000CD00500FA6E0701C951FD6ECA51FE6E94
:10100000CB51FF6EFA50010E120001D80BD0050033
:10101000FA6E0701C651FD6EC751FE6EC851FF6ED4
:10102000FA501200D8A0F1D701D80CD00500FA6E02
:101030000701E151FD6EE251FE6EE351FF6EFA5081
:10104000FF0E12000601F351F411D8A4A3D1B2EFA0
:101050008CF00901F75172EC0DF02A4B2B2B53D178
:1010600007012E512F11D8B42ED0120E2E5D06017D
:10107000D46F090E07012F590601D56FD5BF06D0D1
:10108000D55121E1800ED45DD8B01DD02EC7D9F442
:101090002FC7DAF4F7C9DFF407012E4B2F2B120EFE
:1010A0002E5D0601D46F090E07012F590601D56F79
:1010B000800ED419D511D8A426D1000E0901F06FE5
:1010C000010EEF6F20D107017151D8A409D07251E0
:1010D000D8A406D07351D8A403D07451D8B413D176
:1010E000F70E0501BE6FE60EBF6FF7C6C0F5C16B08
:1010F000F9C6C2F5C36BF8C6C4F5C56B30C7C6F5F3
:1011000031C7C7F556C5C8F557C5C9F5F5C6CAF5FF
:10111000CB6BF6C6CCF5CD6B17EC12F0F4D0F7C95B
:10112000F9F6F1D0F7C9F8F6EED0000E0701301548
:101130000601D46FFF0E070131150601D56F0901B5
:10114000F7510601D4110701306F0601D55116D0B1
:101150000901F7510601D56FD46BFF0E0701301559
:101160000601D66F000E070131150601D76FD45165
:10117000D6110701306F0601D551D7110701316F24
:10118000C2D0F7C9F7F6030EF719D8A406D0120E8D
:1011900007012E6F090E2F6F05D0000E0901F06FA9
:1011A000010EEF6F07017251D8B408D00601F75154
:1011B000D8B410D0020EF719D8B40CD0070173516F
:1011C000D8B4A1D00601F705D8B404D0030EF7199E
:1011D000D8A499D007017451D8B495D0F9C6D4F6E3
:1011E000010E0601D56F000ED66FD42B03D0D89018
