:0400000081EF00F09C
:10000800A60BA60BA60BA60B4000A60B4000A60B42
:10001800A60BA60BA60BA60BA60BA60BA60BA60B50
:10002800A60B400040004000A60BA60BA60BA60B93
:10003800A60BA60BA60BA60BA60BA60BA60BA60B30
:10004800A60BA60BA60BA60B40004000A60BA60B02
:10005800A60BA60BA60B4000A60BA60BA60BA60B81
:10006800A60BA60BA60BA60BA60BA60BA60BA60B00
:10007800A60BA60BA60BA60B4000A60BA60BA60B61
:10008800A60BA60BA60BA60BA60BA60BA60BA60BE0
:10009800A60BA60BA60BA60B4000A60B4000400023
:1000A800A60BA60BA60BA60BA60BA60BA60BA60BC0
:1000B800A60BA60BA60BA60BA60BA60BA60BA60BB0
:1000C800A60BA60BA60BA60BA60BA60BA60BA60BA0
:1000D800A60BA60BA60BA60BA60BA60BA60BA60B90
:1000E8004000A60BA60BA60B4000400040004000B5
:1000F800A60BA60BA60BA60BFF00F9EFFAF0A4C6F9
:10010800D9F4A5C6DAF4DEC4A6F6DDC4A7F6A4C6FB
:1001180098F6A5C699F6000E9B6F010E9A6F0CEC27
:10012800F8F0A86FA851D8A44BD0A6C635F6A7C634
:1001380036F620EE16F0A451D926A551DA22DEC4EF
:1001480037F6DEC438F6DEC439F6DEC43AF6EBEC30
:1001580004F0A86FA851D8A433D020EE1AF0A45107
:10016800D926A551DA22DEC408F5DDC409F5000E4A
:100178000B6E000E0A6E000E0D6E200E0C6E5DECFE
:10018800F1F020EE1AF0A451D926A551DA22DEC4E6
:1001980008F5DDC409F51C0EA4250A6E000EA5217C
:1001A8000B6E000E0D6E0B0E0C6EFAEC14F00601C1
:1001B80020EE04F0A651D926A751DA22010EDF6EEF
:1001C800A8511200070148514911D8B4120001D8AA
:1001D8000AD00500FA6ED651FD6ED751FE6ED85181
:1001E800FF6EFA501200D8B0120001D80CD00500EA
:1001F800FA6E0701D351FD6ED451FE6ED551FF6ED4
:10020800FA50000E12006A0EE82EFED700D001D870
:100218000BD00500FA6E0701D651FD6ED751FE6E60
:10022800D851FF6EFA501200D8A00ED001D8120093
:100238000500FA6E0701D351FD6ED451FE6ED551FB
:10024800FF6EFA50010E1200000E0701496F000EF2
:10025800486F000E446E010E436EA5EC18F0F8ECE2
:1002680018F0000E446E000E436EA5EC18F001D88D
:1002780012000500FA6E0701D351FD6ED451FE6ECF
:10028800D551FF6EFA50010E120045EC11F0A3ECA7
:1002980011F064516511D8A451D056C5EAF557C577
:1002A800EBF56FEC14F007016651D8B424D0565022
:1002B8000501F06F5750F16FF26BF36BF1C5F3F571
:1002C800F0C5F2F5F16BF06B0B0EF025E26F000E46
:1002D800F121E36F000EF221E46F000EF321E56FC8
:1002E8001B0EE66FE40EE76F000EE96F030EE86F72
:1002F80062EC0BF023D056500501F06F5750F16FA8
:10030800F26BF36BF1C5F3F5F0C5F2F5F16BF06B39
:100318000B0EF025E26F000EF121E36F000EF221C3
:10032800E46F000EF321E56F1E0EE66FE40EE76F33
:10033800000EE96F030EE86F62EC0BF00701405105
:100348004111D8B41200000E496F010E486F120017
:10035800090EE26FD851D911D8B441D0D8C5D9F413
:10036800D9C5DAF4DE50DE10D8B439D0D8C5D9F4FE
:10037800D9C5DAF4DEC4DCF5DDC4DDF5DCC5D9F4B5
:10038800DDC5DAF4DF50D8B42AD0D8C5D9F4D9C538
:10039800DAF410EE06F0DE50E126DD50E22220EE1F
:1003A80002F0D851D926D951DA22E650DE1817E1E1
:1003B800E650DE18D8A413D0D8C5D9F4D9C5DAF4D4
:1003C80010EE01F0DE50E126DD50E222E75029EC84
:1003D80012F00501DC6FDCB102D0000EE26FE251D1
:1003E800D8B405D0000EE06F000EE16F08D0D8C574
:1003F800D9F4D9C5DAF4DEC4E0F5DDC4E1F5DAC52F
:10040800D9F4DBC5DAF4E0C5DEF4E1C5DDF4E25188
:100418001200000E096E000E086E23EC19F008C5D4
:100428000CF509C50DF50CC508F50DC509F523EC46
:1004380019F00CA002D0010E01D0000E0801696F5E
:100448000CA202D0010E01D0000E6A6F0CA402D0DB
:10045800010E01D0000E6B6F0CA602D0010E01D068
:10046800000E6C6F000E096E000E086E30EC19F06D
:1004780008C50CF509C50DF50CC508F50DC509F538
:1004880030EC19F00CA002D0010E01D0000E0801CA
:100498006D6F0CA202D0010E01D0000E6E6F0CA47D
:1004A80002D0010E01D0000E6F6F0CA602D0010E13
:1004B80001D0000E706F040143510801716F0401EF
:1004C80044510801726F040145510801736F746B40
:1004D8001200020E165E000E175A185A195A20EE0C
:1004E80014F01450D9261550DA22FE0EDE241A6EA6
:1004F800FF0EDE201B6EFF0EDE201C6EFF0EDE20C0
:100508001D6E1A50165C1B5017581C5018581D5059
:100518001958D8A009D0000E146E000E156E000EE2
:10052800166E000E176E120020EE28F01450D92611
:100538001550DA22DEC41AF5DEC41BF5DEC41CF53C
:10054800DEC41DF520EE0AF01450D9261550DA2223
:10055800DEC41EF5DDC41FF51EC508F51FC509F567
:100568000A6A0B6A16C50CF517C50DF518C50EF500
:1005780019C50FF554EC12F01A500824146E1B50CC
:100588000920156E1C500A20166E1D500B20176E80
:1005980012000A340B34116E1150D8A409D0000E81
:1005A800086E000E096E000E0A6E000E0B6E120029
:1005B80008C50CF509C50DF50AC50EF50BC50FF5EF
:1005C800200E05D0D8900F320E320D320C32E82EA4
:1005D800F9D70C50106E0A8EFF0E0816FF0E09167A
:1005E800FF0E0A16000E0B16960E115E11AE0DD0F8
:1005F8001150800A970FD8A0D2D7D8900B320A3260
:1006080009320832113EF9D70DD01F0E116407D0F8
:10061800C6D7D890083609360A360B361106115057
:10062800D8A4F7D71050D8B408D00B1E0A1E091E3C
:10063800086C000E09220A220B2208C508F509C514
:1006480009F50AC50AF50BC50BF5120020EE03F0F3
:100658000850D9260950DA22DF500C6E0C50116E62
:10066800126A136A146A20EE02F00850D92609505B
:10067800DA22DF500C6E0C5011C50EF512C50FF5BD
:1006880013C510F50D6A0D10116E0E50126E0F5035
:10069800136E1050146E20EE01F00850D926095040
:1006A800DA22DF500C6E0C5011C50EF512C50FF58D
:1006B80013C510F50D6A0D10116E0E50126E0F5005
:1006C800136E1050146E08C5D9F409C5DAF4DF505A
:1006D8000C6E0C5011C50EF512C50FF513C510F5AB
:1006E8000D6A0D10116E0E50126E0F50136E1050D1
:1006F800146E11C508F512C509F513C50AF514C518
:100708000BF51200D8EC14F0010E0201616F000E17
:10071800626F1E0E636F050E656F010E056F020E88
:10072800036F030E206F000E0001D56F000ED86F07
:10073800020ED96F040EDA6F7F0EDB6F010EDC6FCD
:10074800080EDD6F100EDE6F400EDF6F800ED76F64
:10075800820ED66F010ED56F000ED86F020ED96FBC
:10076800040EDA6F7F0EDB6F010EDC6F080EDD6F93
:10077800200EDE6F400EDF6F800ED76F820ED66FB1
:10078800020ED56F010ED86F7F0ED96F7F0EDA6F0C
:100798007F0EDB6F010EDC6F000EDD6F000EDE6F6B
:1007A800000EDF6F820ED76F8C0ED66F000ED46FDF
:1007B800B59AA59AC280C28212000AC510F50BC567
:1007C80011F50C5010240E6E0D5011200F6E48D0EC
:1007D80010C5D9F411C5DAF4DF50126E104A112A87
:1007E80012AE02D0C08601D0C096C08800F0C09872
:1007F80012AC02D0C08601D0C096C08800F0C09864
:1008080012AA02D0C08601D0C096C08800F0C09855
:1008180012A802D0C08601D0C096C08800F0C09847
:1008280012A602D0C08601D0C096C08800F0C09839
:1008380012A402D0C08601D0C096C08800F0C0982B
:1008480012A202D0C08601D0C096C08800F0C0981D
:1008580012A002D0C08601D0C096C08800F0C0980F
:100868000E50105C0F501158D8B01200B1D720EEBE
:1008780002F03550D9263650DA22DE50DE10D8B4D0
:1008880012003750381039103A10D8B4120020EE40
:1008980004F03550D9263650DA22DE50DE10D8B4AE
:1008A80017D020EE0AF03550D9263650DA223750C4
:1008B8003B143F6E10EE0AF03550E1263650E22226
:1008C800E750406E3750FF0A40143F10DF6E1200A9
:1008D80020EE08F03550D9263650DA2237503B142E
:1008E8003F6E10EE08F03550E1263650E222E75010
:1008F800406E3750FF0A40143F10DF6E35C52BF5A8
:1009080036C52CF50A0E2D6E20EE08F03550D92686
:100918003650DA22DF502E6EBAEC0FF012000501C5
:10092800606F00C768F501C769F5050160514009A6
:10093800616F47C562F546C563F545C564F544C5AD
:1009480065F5610E086E050E096E000E0B6E050E3C
:100958000A6EB4EC10F00109666F68C542F569C506
:1009680043F5C7EC18F068C512F569C513F5000E14
:10097800156E010E146E7FEC12F068C508F569C596
:1009880009F5610E0A6E050E0B6E000E0D6E060E51
:100998000C6EEDEC0FF002C719F503C71AF5FF0E40
:1009A8001BEC17F00501676F48C5D9F449C5DAF49F
:1009B80067C5DFF46729D8A405D0000E456E010E7F
:1009C800446E1200000E456E000E446E1200000EBA
:1009D80006013F6F20EE2CF03551D9263651DA2228
:1009E8003751DE180AE13851DE1807E13951DE18AF
:1009F80004E13A51DE18D8B43FD035C623F636C6DE
:100A080024F669ECE2F006013F6F3F51D8A434D0D8
:100A1800300E3525196F000E36211A6F37C61BF6B2
:100A280038C61CF639C61DF63AC61EF6000E206FEB
:100A3800010E1F6F20EE01F03551D9263651DA220A
:100A4800DF506FECECF00009D8B407D00601376925
:100A5800386939693A69010E3F6F060120EE2CF0BA
:100A68003551D9263651DA2237C6DEF438C6DEF4D7
:100A780039C6DEF43AC6DEF43F51120010501110A8
:100A8800121013101410151016101710D8B43CD0EB
:100A9800010E186E0AD0D890103611361236133659
:100AA8001436153616361736182A17AEF4D71050DE
:100AB800085C1150095812500A5813500B5814501A
:100AC8000C5815500D5816500E5817500F58D8A0DE
:100AD80010D01050085E1150095A12500A5A13507B
:100AE8000B5A14500C5A15500D5A16500E5A1750CE
:100AF8000F5AD89017321632153214321332123276
:100B080011321032182ED3D708C508F509C509F5D2
:100B18000AC50AF50BC50BF50CC50CF50DC50DF589
:100B28000EC50EF50FC50FF512000AC513F50BC556
:100B380014F50C501324116E0D501420126E41D070
:100B480008C50EF509C508F50EC509F513C5D9F48C
:100B580014C5DAF4DF500E6E0E50081A134A142A20
:100B680008C50EF509C50FF5040E106ED8900F32A2
:100B78000E32102EFBD70F0E0E16000E0F160E504B
:100B8800081A0F50091A08C50EF509C50FF50C0EFD
:100B9800D8900E360F36E82EFBD70E50081A0F5095
:100BA800091AFF0E08140E6E000E09140F6E050EBA
:100BB800D8900E360F36E82EFBD70E50081A0F5075
:100BC800091A1150135C12501458D8A0B9D708C587
:100BD80008F509C509F51200A5C6D8F5A6C6D9F5C0
:100BE800A90E0501DA6F060EDB6FACEC01F0060109
:100BF800AB6FAB51D8A444D0A751A811D8A40FD03B
:100C0800A5C65AF6A6C65BF6000E5C6F000E5D6FB1
:100C1800000E5E6F000E5F6FBAECC2F030D0A5C652
:100C280098F6A6C699F6000E9B6F000E9A6FF6EC22
:100C3800F1F0AB6F040EAB19D8A402D0000EAB6F65
:100C4800AB51D8A41DD0A5C615F5A6C616F5A7C6DE
:100C580017F5A8C618F5CFECD5F0A5C67EF6A6C63A
:100C68007FF6000E0601816F000E806FE1ECBAF08E
:100C78000601AB6F040EAB19D8A402D0000EAB6FFF
:100C8800AB51120008C510F509C511F50AC512F5D2
:100C98000BC513F507D00C06D8A00D06104A112A6B
:100CA800124A132A0C500D10D8B41AD010C5D9F412
:100CB80011C5DAF4DF500E6E12C5F6F413C5F7F459
:100CC800000EF86E250EF76403D00800F55005D025
:100CD800F6C4E9F4F7C4EAF4EF500E18D8B4DBD739
:100CE8000C500D10D8A405D0000E096E000E086E29
:100CF800120010C5D9F411C5DAF4DF500E6E12C512
:100D0800F6F413C5F7F4000EF86E250EF76403D059
:100D18000800F55005D0F6C4E9F4F7C4EAF4EF503A
:100D28000F6E0F500E5C086E096AD8A009061200F3
:100D3800F729F811D8A4A3EC11F00501EE51F06FD2
:100D4800EF51F16FF26BF36BF1C5F3F5F0C5F2F506
:100D5800F16BF06B660EF025E26F000EF121E36F88
:100D6800000EF221E46F000EF321E56F790EE66FB5
:100D7800080EE76F000EE96F030EE86F9EEC0BF0AC
:100D88000501EE51F06FEF51F16FF26BF36BF1C5A6
:100D9800F3F5F0C5F2F5F16BF06B660EF025E26F36
:100DA800000EF121E36F000EF221E46F000EF32133
:100DB800E56F760EE66FE30EE76F000EE96F030E40
:100DC800E86F62EC0BF0EEC5F7F7EFC5F8F7120025
:100DD8000D500E10D8B404D00D500E10D8A404D065
:100DE8000B508FEC19F0120020EE09F00D50D926A7
:100DF8000E50DA22DE50DE10D8B416D020EE09F0FC
:100E08000D50D9260E50DA2210EE03F00D50E126CF
:100E18000E50E222DE50E65CE650800A136EDE5089
:100E2800800A1358D8B0120020EE03F00D50D926CE
:100E38000E50DA22DEC40FF5DDC410F50DC5D9F465
:100E48000EC5DAF4DEC411F5DDC412F50F50112415
:100E5800D96E10501220DA6E0BC5DFF420EE03F0C5
:100E68000D50D9260E50DA22DE2A000EDD2212009D
:100E78001CC529F51DC52AF520EE0BF02950D926E9
:100E88002A50DA22DE50DE10DE10D8B41ED01CC57F
:100E980008F51DC509F51EC50AF51FC50BF520C5C2
:100EA8000CF521C50DF520EE0BF02950D9262A5056
:100EB800DA2201D812000500FA6EDE50FD6EDE500F
:100EC800FE6EDE50FF6EFA5012001EC525F51FC5D6
:100ED80026F5000E286E000E276E11D01CC50EF5E3
:100EE8001DC50FF5FF0E106EF2ECEEF025C5D9F416
:100EF80026C5DAF4DF6E254A262A274A282A2050F2
:100F0800275C21502858D8B01200E8D70701205193
:100F18002111D8A405D020C71AF521C71BF506D082
:100F2800FF0E20251A6EFF0E21211B6E58A009D036
:100F380016C50BF50C6A14C50DF515C50EF5ECECC8
:100F480006F01BAE04D0000E1B6E000E1A6E000ECB
:100F5800196E000E186E0CD0000E0C6E200E0B6E63
:100F680014C50DF515C50EF5ECEC06F0184A192A4E
:100F78001A50185C1950800A176E1B50800A1758AF
:100F8800D8A0EAD758B009D016C50BF50C6A14C515
:100F98000DF515C50EF5ECEC06F0010E1824146ECF
:100FA800000E1920156E12000A6E1B0EF66EDD0E6D
:100FB800F76E000EF86E0900F5500A5CD8A03CD018
:100FC8001C0EF66EDD0EF76E000EF86E0A50090064
:100FD800F55CD8A005D0000E096E010E086E12004F
:100FE8001D0EF66EDD0EF76E000EF86E0900F55058
:100FF8000A5CD8A00BD01E0EF66EDD0EF76E000E42
:10100800F86E0A500900F55CD8B0E5D71F0EF66EE9
:10101800DD0EF76E000EF86E0900F5500A5CD8A0D8
:101028000BD0200EF66EDD0EF76E000EF86E0A502D
:101038000900F55CD8B0CFD7000E096E000E086E17
:1010480012001CC529F51DC52AF520EE08F0295007
:10105800D9262A50DA22DE50DE10DE10D8B41ED08F
:101068001CC508F51DC509F51EC50AF51FC50BF5F4
:1010780020C50CF521C50DF520EE08F02950D9261C
:101088002A50DA2201D812000500FA6EDE50FD6EF1
:10109800DE50FE6EDE50FF6EFA5012001EC525F5BA
:1010A8001FC526F5000E286E000E276E10D01CC531
:1010B8000EF51DC50FF525C5D9F426C5DAF4DF50A0
:1010C800106EF2ECEEF0254A262A274A282A2050EC
:1010D800275C21502858D8B01200E9D758A00AD068
:1010E8001DC514F51EC515F51BC516F51CC517F548
:1010F80031EC16F020BE05D01FC524F520C525F516
:1011080004D0000E256E000E246E000E236E000E15
:10111800226E0CD0000E0C6E200E0B6E1BC50DF54A
:101128001CC50EF5ECEC06F0224A232A2450225C5A
:101138002350800A216E2550800A2158D8A0EAD76A
:1011480058B00AD01DC514F51EC515F51BC516F5F2
:101158001CC517F531EC16F01DC508F51EC509F5B7
:101168001CEC15F0245008241B6E255009201C6E19
:1011780012000501DD6F010E0501DE6F10D0000EB3
:10118800DE6F23D0B70EBE6FEA0EBF6FDDC5C0F5A8
:10119800C16BD8C5C2F5C36B13EC18F016D0D85183
:1011A800DB6FDC6BDC51000AD8A4ECD7DB51000AFA
:1011B800D8B4E5D7010AD8B4E5D7030AD8B4E2D73A
:1011C800010AD8B4DFD7070ADDD70601EF51F011BD
:1011D800D8B416D07B0E0501BE6FE80EBF6FDDC513
:1011E800C0F5C16BD8C5C2F5C36BD9C5C4F5DAC59E
:1011F800C5F5C66BC76BDEC5C8F5C96B13EC18F02F
:101208000501DE51120071ECFBF0D60E0801FC6FEF
:101218002F0EFD6F000EFE6F5A0EF36FBA0EF46FAD
:10122800010EF56FE00EF06F1A0EF16F000EF26FFF
:10123800F20EF66F2B0EF76F000EF86F0C0EED6FB7
:10124800070EEE6F000EEF6F5C0E0701DC6FFF0EEE
:10125800DD6F010EDE6FDC0EE26FCB0EE36F010E69
:10126800E46FA80ED66F330ED76F000ED86FFE0E40
:101278000801F96F320EFA6F000EFB6F040E0701BA
:10128800CD6F340ECE6F000ECF6F0E0ECA6F330EB9
:10129800CB6F000ECC6F1200F929FA11D8A413D025
:1012A800660E0501D86FEC0ED96F960EDA6FE60E52
:1012B800DB6F000EDD6FC00EDC6FBC0EDE6FF30E51
:1012C800DF6FD0EC16F0F9C7F2F5FAC7F3F5000EA8
:1012D8000501F56FB70EF46FDDEC15F0F951050156
:1012E800F66F0701FA510501F76FF86BF96BF7C54F
:1012F800F9F5F6C5F8F5F76BF66BF6C5E2F5F7C53F
:10130800E3F5F8C5E4F5F9C5E5F50B0EE66FE20E71
:10131800E76F000EE96FB70EE86F62EC0BF0000E96
:101328000701436F000E426F1200000E0814106E82
:10133800000E0914116E800E0A14126E7F0E0B1423
:10134800136E1050111012101310D8A408D0000EEC
:10135800086E000E096E000E0A6E000E0B6E000E6F
:101368000C14106E000E0D14116E800E0E14126EF9
:101378007F0E0F14136E1050111012101310D8A4F2
:1013880008D0000E0C6E000E0D6E000E0E6E000ED4
:101398000F6E0C5008180AE10D50091807E10E509D
:1013A8000A1804E10F500B18D8B402D0D8901200D4
:1013B800D8801200000E0D6E000E0C6E08016951E7
:1013C800D8B402D0010E01D0000E0C126A51D8A474
:1013D8000C826B51D8A40C846C51D8A40C860CC513
:1013E80008F50DC509F523EC19F0000E0D6E000E79
:1013F8000C6E08016D51D8B402D0010E01D0000E58
:101408000C126E51D8A40C826F51D8A40C84705160
:10141800D8A40C860CC508F50DC509F530EC19F0F3
:1014280071C843F472C844F473C845F471C843F4EE
:1014380072C844F473C845F412000501EC51070161
:10144800445D0501ED5107014559D8B01200050169
:10145800EA51EE6FEB51EF6FF06BF16BEFC5F1F501
:10146800EEC5F0F5EF6BEE6B070144510501EE2573
:10147800E26F070145510501EF21E36F000EF021EE
:10148800E46F000EF121E56F000E07014425050108
:10149800E66F0C0E070145210501E76F070144516E
:1014A8000501EC5DE86F070145510501ED59E96F4C
:1014B8009EEC0BF0ECC544F7EDC545F712000DC7DF
:1014C800C2F60EC7C3F60FC7C4F610C7C5F6BEC628
:1014D800D9F4BFC6DAF4DE50DE10D8B421D0BEC6C7
:1014E800D9F4BFC6DAF4DEC4C0F6DDC4C1F6C0C69E
:1014F800D9F4C1C6DAF4DF50D8B412D0BEC6D9F4D4
:10150800BFC6DAF4DEC438F5DDC439F59DECDBF08E
:1015180038C5C2F639C5C3F63AC5C4F63BC5C5F6E3
:10152800C4C6F7F5C5C6F8F5CCECFCF0C2C660F742
:10153800C3C661F7000E0601BD6F010EBC6F120035
:10154800000E106E000E116E000E126E000E136E5D
:101558000C500D100E100F10D8B42AD0010E146EB6
:1015680006D0D8900C360D360E360F36142A0FAE2C
:10157800F8D7D89010361136123613360C50085C4E
:101588000D5009580E500A580F500B58D8A009D0C2
:101598000C50085E0D50095A0E500A5A0F500B5A3B
:1015A8001080D8900F320E320D320C32142EE1D743
:1015B80010C508F511C509F512C50AF513C50BF5CF
:1015C8001200080E0001B16F000E0401006F000E3A
:1015D800086F000E106F000E186F20912093209551
:1015E800000E086F000E106F000E186FC292CA929C
:1015F800010E0201D56FA00ED46FD189D18BC68E92
:10160800070E766FBE8CC69C260E076FD28FC290CF
:10161800CA90000EBF6E000EC76E000EC06E000EA0
:10162800C86E3F0E046FC696320E0401436F330E28
:10163800446F030E456F000E476F4691468F1200A8
:101648000701F929FA11D8A445EC11F0F6C5F2F50D
:10165800F7C5F3F5000E0501F56FA60EF46FDDEC86
:1016680015F00501F651F86FF751F96FFA6BFB6B3E
:10167800F9C5FBF5F8C5FAF5F96BF86B660EF825B0
:10168800E26F000EF921E36F000EFA21E46F000EFD
:10169800FB21E56F760EE66FE30EE76F000EE96F4C
:1016A8002A0EE86F62EC0BF0F6C5F9F7F7C5FAF702
:1016B800000E0701436F010E426F1200E2C5D8F514
:1016C800E3C5D9F5E4C5DAF5E5C5DBF501D80BD0F6
:1016D8000500FA6E0701E251FD6EE351FE6EE4511A
:1016E800FF6EFA50120001D80CD00500FA6E0701FF
:1016F800E851FD6EE951FE6EEA51FF6EFA50000E98
:101708001200E2C50EF5E3C50FF5E6C510F5E7C50D
:1017180011F5E8C512F5E9C513F501D81200050061
:10172800FA6E0701E551FD6EE651FE6EE751FF6E58
:10173800FA501200E2C5D8F5E3C5D9F5E4C5DAF5E3
:10174800E5C5DBF501D80BD00500FA6E0701E251BB
:10175800FD6EE351FE6EE451FF6EFA50120001D89F
:101768000CD00500FA6E0701E851FD6EE951FE6ED6
:10177800EA51FF6EFA50FF0E1200E2C50EF5E3C5FE
:101788000FF5E6C510F5E7C511F5E8C512F5E9C589
:1017980013F501D812000500FA6E0701DF51FD6E3E
:1017A800E051FE6EE151FF6EFA5012001A0E11243C
:1017B800086E000E1220096E15EC16F008C517F514
:1017C80009C518F5196A1A6A0FC5D9F410C5DAF4EB
:1017D800030EDE18D8A41CD0140E1124086E000EB7
:1017E8001220096E15EC16F00850136E0950146E8D
:1017F800156A166A14C516F513C515F5146A136A21
:1018080013501712145018121550191216501A1294
:1018180017C50FF518C510F519C511F51AC512F534
:101828001200F5C5D8F5F6C5D9F5F7C5DAF5F8C546
:10183800DBF5F9C5DCF5FAC5DDF57EECF6F0000E52
:10184800FF6FF7C5FBF5F8C5FCF5000EFE6F000E3F
:10185800FD6F0AD0FBC5D9F4FCC5DAF4DF50FF27C9
:10186800FB4BFC2BFD4BFE2BF951FD5DFA51FE594C
:10187800D8A0F0D7530EBE6FF20EBF6FF5C5C0F5F6
:10188800F6C5C1F5410EC26FEF0EC36FFFC5C4F5B3
:10189800C56B13EC18F012005151D8B41200F2C500
:1018A800F4F5010E0501F56F000EF66FF42B03D069
:1018B800D890F537F637F42FFBD707013C510501CF
:1018C800F51707013D510501F617F551F611D8A492
:1018D8001200F2C5EAF5F3C5EBF56FEC14F0F2C5AA
:1018E800F4F5010E0501F56F000EF66FF42B03D029
:1018F800D890F537F637F42FFBD70501F5510701D6
:101908003C130501F65107013D1312000701F9299F
:10191800FA11D8A445EC11F0F6C5F2F5F7C5F3F5C0
:10192800000E0501F56FB70EF46FDDEC15F005013B
:10193800F651F86FF751F96FFA6BFB6BF9C5FBF5C8
:10194800F8C5FAF5F96BF86BF8C5E2F5F9C5E3F5F2
:10195800FAC5E4F5FBC5E5F50B0EE66FE20EE76F99
:10196800000EE96FB70EE86F62EC0BF0F6C5F9F7F9
:10197800F7C5FAF7000E0701436F000E426F120019
:101988000EC518F50FC519F519C5C1F418C5BFF46A
:10199800000E176E000E166E26D0BE981650102434
:1019A800146E17501120156E14C5F6F415C5F7F40A
:1019B800000EF86E250EF76404D0D0C4F5F40C00C0
:1019C80006D0F6C4E9F4F7C4EAF4D0C4EFF4BE884C
:1019D800182A18C5BFF41850D8A403D0192A19C555
:1019E800C1F4164A172A1250165C13501758D8B06B
:1019F8001200D3D72EC5D9F42FC5DAF4DEC435F5D5
:101A0800DDC436F520EE06F02E50D9262F50DA2206
:101A1800DF50316ED89031344109326E30C533F51C
:101A280035C50CF536C50DF5F6EC12F035C51CF5C7
:101A380036C51DF5320E1E6E050E1F6E000E216E88
:101A4800020E206E25EC08F035C52BF536C52CF5B1
:101A580094EC18F0346E35C50CF536C50DF5A9ECC7
:101A680017F0345012000EC518F50FC519F519C531
:101A7800C1F418C5BFF4000E176E000E166E25D0FF
:101A8800BE9416501024146E17501120156E14C5EC
:101A9800F6F415C5F7F4000EF86E250EF76403D0BA
:101AA8000800F55005D0F6C4E9F4F7C4EAF4EF509D
:101AB800C06EBE84182A18C5BFF41850D8A403D025
:101AC800192A19C5C1F4164A172A1250165C135060
:101AD8001758D8B01200D4D7000E0701276F000E90
:101AE800266F27BF0ED0275104E1140E265DD8A01B
:101AF80008D0670E0501BE6FF60EBF6F13EC18F025
:101B0800FFD7000E0501E16F000EE06F000EE36FD6
:101B1800030EE26F000EE56F640EE46F9CECB5F007
:101B2800E051E111D8B41200110E0501F06F3C0E1E
:101B3800EF6FCB0EE82EFED7EF2FFCD7F02FFAD79A
:101B48000701264B272BCDD70A6E170EF66EDD0E32
:101B5800F76E000EF86E0900F5500A5CD8A026D082
:101B6800180EF66EDD0EF76E000EF86E0A500900BC
:101B7800F55CD8A005D0000E096E010E086E1200A3
:101B8800190EF66EDD0EF76E000EF86E0900F550B0
:101B98000A5CD8A00BD01A0EF66EDD0EF76E000E9A
:101BA800F86E0A500900F55CD8B0E5D7000E096E4A
:101BB800000E086E12005151D8B426D0B20E05019D
:101BC800BE6FF00EBF6F09C7C0F50AC7C1F50BC7D6
:101BD800C2F50CC7C3F513EC18F009C746F60AC7D7
:101BE80047F60BC748F60CC749F6810E06014A6F3F
:101BF800070E4B6F000E4D6F010E4C6F07ECDAF0BD
:101C0800000E0701516F07D0830E0501BE6FF20E5B
:101C1800BF6F13EC18F0000E0601BD6F000EBC6F0D
:101C28001200D69E070136513711D8B41FD0000EC6
:101C38003425D96E0A0E3521DA6EDF500E6E010E8C
:101C48003425086E000E3521096E000E0B6E500EFD
:101C58000A6E3EEC15F008C534F709C535F73607A6
:101C6800D8A03707A780D68E0E50120048514911C8
:101C7800D8B403D0D68E000E1200D68E150E0D6E77
:101C8800C60EE82EFED70D2EFCD700D0CAD708C541
:101C9800D9F409C5DAF40AC5DFF4084A092A0B5051
:101CA8000A6E0C500B6E0D500C6E0D6A08C5D9F4F7
:101CB80009C5DAF40AC5DFF4084A092A0B500A6E86
:101CC8000C500B6E0D500C6E0D6A08C5D9F409C581
:101CD800DAF40AC5DFF4084A092A0B500A6E0C50D8
:101CE8000B6E0D500C6E0D6A08C5D9F409C5DAF4EF
:101CF8000AC5DFF4084A092A12004A6E00C74BF5E4
:101D080001C74CF56EC54FF56FC550F56AC544F56A
:101D18006BC545F56CC546F56DC547F54FC548F526
:101D280050C549F54A5093EC04F044C54DF545C5F6
:101D38004EF54D504E10D8B403D0D6EC17F0120023
:101D48004BC508F54CC509F5010E4F240A6E000E67
:101D580050200B6EFF0E70250C6EFF0E71210D6E5C
:101D68001BECC9F0EAD710C5F6F411C5F7F4000E5C
:101D7800F86E0800F5500C6E0D6AC0EC17F00CC533
:101D880017F50DC518F5104A112A12C5D9F413C54F
:101D9800DAF4DF50146E14500C6E0D6AC0EC17F0B4
:101DA8000CC515F50DC516F5124A132A1550171846
:101DB80008E116501818D8A404D017501810D8A441
:101DC800D2D71550175C106E16501858116E1200A5
:101DD8006A0E356E070E366E000E386E010E376EBF
:101DE800B2ECDEF035C53FF536C540F56A0E356E06
:101DF800070E366E000E386E050E376E000E3A6E00
:101E0800010E396E8AECF8F06A0E356E070E366EE2
:101E1800000E386E060E376E000E3A6E010E396EE1
:101E28008AECF8F06A0E356E070E366E3FC537F548
:101E380040C538F5B2ECDEF012000C500D100E1053
:101E48000F10D8B424D0010E106E06D0D8900C36DE
:101E58000D360E360F36102A0FAEF8D70C50085C28
:101E68000D5009580E500A580F500B58D8A008D0DA
:101E78000C50085E0D50095A0E500A5A0F500B5A52
:101E8800D8900F320E320D320C32102EE7D708C51B
:101E980008F509C509F50AC50AF50BC50BF51200C1
:101EA80056500501FA6F5750FB6FFC6BFD6BFBC575
:101EB800FDF5FAC5FCF5FB6BFA6B900EFA25E26F9F
:101EC800000EFB21E36F000EFC21E46F000EFD21E4
:101ED800E56F520EE66F070EE76F000EE96F160EFC
:101EE800E86F9EEC0BF007016105D8B007D0020E31
:101EF800656F000E646F50EC09F01200000E656FFC
:101F0800000E646F12003EC540F53FC541F520EE56
:101F180002F04050D9264150DA22000EDF6E000E42
:101F28000001846F000E856F110E02016A6F120E98
:101F38006B6F6A0E086E070E096E3DEC19F00850BB
:101F48000910D8B40FD06A0E356E070E366E000E23
:101F5800386E000E376E000E3A6E010E396E08ECC0
:101F6800F9F001D0CA940001848F12002BC5D9F46E
:101F78002CC5DAF4DEC433F5DDC434F520EE06F002
:101F88002B50D9262C50DA22DF502F6ED8902F34C0
:101F98004009306E2DC531F52EC532F533C50CF527
:101FA80034C50DF5F6EC12F033C51CF534C51DF536
:101FB800300E1E6E050E1F6E000E216E030E206E73
:101FC80025EC08F033C50CF534C50DF5A9EC17F070
:101FD80012000AC510F50BC511F50C500D10D8B438
:101FE80012000DC583F00CC582F010C5D9F411C5D7
:101FF800DAF4DF500001816F104A112A000E0F6ECB
:10200800010E0E6E0ED010C5D9F411C5DAF4DF50EA
:10201800816F104A112AB1A0FED7000180510E4AE3
:102028000F2A0C500E5C0D500F58D8A0ECD7B1A059
:10203800FED7000180511200B8C5BCF5B9C5BDF581
:10204800000E07011F6F000E1E6F17D0B6C593F55F
:10205800B7C594F5BC0E0501956F050E966FBAC508
:1020680097F5BBC598F568EC87F005019351070112
:102078001E270501945107011F23BCC5F6F4BDC5F1
:10208800F7F4000EF86E0800F5500009D8A4DED762
:10209800000E0501B76F000EB66F120004D0084A93
:1020A800092A0A4A0B2A08C5D9F409C5DAF4DF5007
:1020B8000C6E0AC5F6F40BC5F7F4000EF86E0800AE
:1020C800F5500C18D8A407D008C5D9F409C5DAF416
:1020D800DF50D8A4E4D708C5D9F409C5DAF4DF502D
:1020E8000C6E0AC5F6F40BC5F7F4000EF86E08007E
:1020F800F5500C5C086E096AD8A009061200565003
:102108000501EA6F5750EB6FEC6BED6BEBC5EDF526
:10211800EAC5ECF5EB6BEA6BA10EEA25E26F000E5F
:10212800EB21E36F000EEC21E46F000EED21E56F6B
:10213800520EE66F070EE76F000EE96F160EE86F96
:102148009EEC0BF007016105D8B005D0020E656F53
:10215800000E646F1200000E656F000E646F1200AF
:10216800000E106E08C511F509C512F50A501124A4
:102178000C6E0B5012200D6E1CD011C5D9F412C56F
:10218800DAF4DF50101A114A122A000E0F6E000EF0
:102198000E6E10AE02D0890E101AD89010360E4A64
:1021A8000F2A0FBEF6D70F5004E1080E0E5CD8A018
:1021B800F0D70C50115C0D501258D8A0DED7105033
:1021C8001200BEC6D9F4BFC6DAF4DE50DE10D8B4A9
:1021D8001ED0BEC6D9F4BFC6DAF4DEC4C0F6DDC46C
:1021E800C1F6C0C6D9F4C1C6DAF4DF50D8B40FD0EE
:1021F800BEC6D9F4BFC6DAF4DEC438F5DDC439F595
:102208009DECDBF038C540F739C541F704D0000E26
:10221800416F010E406F000E0601BD6F000EBC6FCE
:1022280012000008040C020A060E0109050D030B32
:10223800070F286E756C6C29005B0875086A0765BE
:10224800FF1A0000001A0000001A0000001A00001F
:102258000000000000000000000000000000000076
:102268000080000000800000008000000080000066
:1022780000000000000000000000000000644000B2
:012288000055
:10228A000701F929FA11D8B41200F9510501EA6FC8
:10229A000701FA510501EB6FEC6BED6BEBC5EDF540
:1022AA00EAC5ECF5EB6BEA6BEAC5E2F5EBC5E3F5DB
:1022BA00ECC5E4F5EDC5E5F5000EE66F0C0EE76F2B
:1022CA0044C7E8F545C7E9F562EC0BF0000E0701D3
:1022DA00FA6FF969000E456F000E446F120001D8BB
:1022EA000BD00500FA6E0801F051FD6EF151FE6E39
:1022FA00F251FF6EFA501200CC0E0601CC6F190E85
:10230A00CD6FB00ECE6FFF0ECF6F010ED06F0EECF9
:10231A00FEF00009D8B40DD03B0E0501BE6FF10ED8
:10232A00BF6F13EC18F0FF0E0601D96FFE0ED86FBF
:10233A001200000ED96F000ED86F1200F729F8119B
:10234A00D8B41200F7510501EA6F0701F8510501E7
:10235A00EB6FEC6BED6BEBC5EDF5EAC5ECF5EB6BF2
:10236A00EA6B660EEA25E26F000EEB21E36F000EC0
:10237A00EC21E46F000EED21E56F790EE66F080E91
:10238A00E76F000EE96F030EE86F62EC0BF0000EC8
:10239A000701F86FF7691200516E0701FD51D8B4B1
:1023AA0004D0AA0E5118D8A41200AA0E5118D8A403
:1023BA0003D0000EFD6F120051AC0CD0050E0501C2
:1023CA00BE6FF10EBF6F000EC16FA00EC06F13EC8F
:1023DA0018F0FF0051AE1200700E0501BE6FF10E2B
:1023EA00BF6F000EC16FA00EC06F13EC18F0FFD7BD
:1023FA000BBE07D00B500A1009101DE10804D8B013
:10240A001AD008C50CF509C50DF50AC50EF50BC598
:10241A000FF50C1E0D1E0E1E0F1E0C2A000E0D228D
:10242A000E220F220CC508F50DC509F50EC50AF5D1
:10243A000FC50BF5120008C508F509C509F50AC547
:10244A000AF50BC50BF51200516E5150D8B40ED0D7
:10245A000601EF51F011D8B407D0CB0E0501BE6FBB
:10246A00F20EBF6F13EC18F0020E12000701EB29EF
:10247A0014E1EC2912E1ED2910E1EE29D8A40DD0DE
:10248A000601EF51F011D8B4EFD7090E0501BE6F5E
:10249A00F50EBF6F13EC18F0E7D7000E1200000E0E
:1024AA00106E000E116E000E126E000E136E08A052
:1024BA0008D00C5010260D5011220E5012220F5027
:1024CA001322D8900C360D360E360F36D8900B32B2
:1024DA000A3209320832085009100A100B10D8A41F
:1024EA00E6D710C508F511C509F512C50AF513C5D1
:1024FA000BF51200186812C508F513C509F502ECA8
:10250A0014F0000E176E000E166E10D012C508F5E4
:10251A0013C509F5180E0A6E050E0B6E000E0D6E28
:10252A00010E0C6EEDEC0FF0164A172A1450165CC9
:10253A0015501758D8A0EAD712C508F513C509F5DA
:10254A004DEC16F01200930E0501BE6FE60EBF6F3A
:10255A0013EC18F0080EBE6FF20EBF6F13EC18F0F2
:10256A00110E0501D96F3C0ED86FCB0EE82EFED79F
:10257A00D82FFCD7D92FFAD7EF0E0501BE6FF10E6F
:10258A00BF6F13EC18F0930EBE6FE60EBF6F13EC1D
:10259A0018F01200C20ED16F050ED26FBEC5C6F575
:1025AA00BFC5C7F5000ECA6F000EC96F000ED06F07
:1025BA00000ECF6FC60EB66F050EB76FC0C5B8F561
:1025CA00C1C5B9F5D10EBA6F050EBB6F20EC10F07C
:1025DA00C951BE25D96ECA51BF21DA6E000EDF6E0F
:1025EA0012000CC50EF50DC50FF520EE05F00E50C4
:1025FA00D9260F50DA22C8C4DFF4C896C898C88A08
:10260A0020EE03F00E50D9260F50DA22DF50D8B44C
:10261A0002D0C08801D0C098C0860CC508F50DC587
:10262A0009F5000E0B6E010E0A6E97EC19F01200F6
:10263A00066ED69E070137511AE1500E365DD8B0A4
:10264A0016D036513425016E37513521026E000EEF
:10265A00046E500E036E80EC15F0000E0124D96E44
:10266A000A0E0220DA6E06C5DFF4364B372B3751D5
:10267A0003E1400E365DD8B0A790D68E1200010E47
:10268A00146E200E0E10106E000E0F10116E9F0E9B
:10269A001024126EFF0E1120136E135004E11A0E4D
:1026AA00125CD8A00ED0D00E0E24106EFF0E0F2092
:1026BA00116E115004E10A0E105CD8A002D0000E6F
:1026CA00146E14C50EF50F6A12000D6ED69E070120
:1026DA00335104E1500E325DD8A004D0B7A2FED720
:1026EA0090EC13F032513025086E33513121096EC6
:1026FA00000E0B6E500E0A6E3EEC15F0000E08240A
:10270A00D96E090E0920DA6E0DC5DFF4324B332B70
:10271A00A782D68E12001DD0000E3025D96E090E62
:10272A003121DA6EDF500201C96F010E070130252F
:10273A00086E000E3121096E000E0B6E500E0A6EE5
:10274A003EEC15F008C530F709C531F73207D8A0B5
:10275A003307070132513311D8B41200B7A212005D
:10276A00DBD76A0E086E070E096E3DEC19F00850A9
:10277A000910D8B414D06A0E356E070E366E000EE4
:10278A00386E000E376E40504110D8A402D0010EA8
:10279A0001D0000E396E3A6A08ECF9F01200405086
:1027AA004110D8A402D0C2841200C29412001DD0D3
:1027BA00000E3025D96E090E3121DA6EDF50020182
:1027CA00C96F010E07013025016E000E3121026E1C
:1027DA00000E046E500E036E80EC15F001C530F742
:1027EA0002C531F73207D8A0330707013251331136
:1027FA00D8B41200B7A21200DBD708C50AF509C57A
:10280A000BF520EE02F00A50D9260B50DA22DF50DF
:10281A00D8A410D0310E0201126F320E116F20EEC1
:10282A0003F00A50D9260B50DA22C8C4DFF4C89044
:10283A00C892C88420EE02F00A50D9260B50DA2238
:10284A00DF2A120012D008C5D9F409C5DAF4DFC4A8
:10285A000AF5010EDE26DFC40BF5000EDD220AC5DD
:10286A00D9F40BC5DAF4000EDF6E08C5D9F409C530
:10287A00DAF4DEC40AF5DDC40BF50AC5D9F40BC5D2
:10288A00DAF4200EDE18D8A41200DDD786ECF9F0AF
:10289A0056500601006F5750016F026B036B01C659
:1028AA0003F600C602F6016B006B00C641F501C6CD
:1028BA0042F502C643F503C644F501D812000500E5
:1028CA00FA6E0701DC51FD6EDD51FE6EDE51FF6EC0
:1028DA00FA5012000501EA51EC6FEB51ED6FEE6B05
:1028EA00EF6BEDC5EFF5ECC5EEF5ED6BEC6B080E95
:1028FA00EC25E26F000EED21E36F000EEE21E46F8E
:10290A00000EEF21E56F130EE66FE20EE76F000E81
:10291A00E96F060EE86F62EC0BF01200000E251A42
:10292A00000E261A000E271A800E281A21C508F54D
:10293A0022C509F523C50AF524C50BF525C50CF5ED
:10294A0026C50DF527C50EF528C50FF5C2ECBFF053
:10295A0008C521F509C522F50AC523F50BC524F5D5
:10296A00120008C5F6F409C5F7F4000EF86E08005F
:10297A00F5500A18D8A405D008C508F509C509F5FF
:10298A00120008C5F6F409C5F7F4084A092A000E28
:10299A00F86E0800F5500009D8A4E3D7000E086EB7
:1029AA00000E096E120004011969C9680969C7682D
:1029BA001169C8680181C6800183C682018BC68AF3
:1029CA00198DC98CC18EC99E550E596FAA0E596FA1
:1029DA005991080E5D6F000E5E6F000E5F6F550E07
:1029EA00596FAA0E596F598112000AC511F50BC504
:1029FA0012F508C50FF509C510F510D011C5D9F49F
:102A0A0012C5DAF4DF500E6E114A122A0FC5D9F434
:102A1A0010C5DAF40EC5DFF40F4A102A0C06D8A046
:102A2A000D060C28EBE10D28D8B41200E7D708C52B
:102A3A000AF509C50BF502D0084A092A08C5F6F4B1
:102A4A0009C5F7F4000EF86E250EF76403D00800E6
:102A5A00F55005D0F6C4E9F4F7C4EAF4EF500009DA
:102A6A00D8A4EAD70A50085C086E0B500958096EB8
:102A7A0012000A500B10D8B418D0010E0C6E04D0F4
:102A8A00D8900A360B360C2A0BAEFAD70A50085CD5
:102A9A000B500958D8A004D00A50085E0B50095AA6
:102AAA00D8900B320A320C2EF1D708C508F509C5A1
:102ABA0009F512001A0E0E24086E000E0F20096E78
:102ACA0010C50AF511C50BF5FFEC17F00CC5D9F4C2
:102ADA000DC5DAF4030EDE18D8A41200140E0E2463
:102AEA00086E000E0F20096E12C50AF513C50BF504
:102AFA00FFEC17F0120003500410D8B418D0010EDE
:102B0A00056E04D0D89003360436052A04AEFAD7E7
:102B1A000350015C04500258D8A004D00350015E4F
:102B2A000450025AD89004320332052EF1D701C557
:102B3A0001F502C502F512000701185119111A11FF
:102B4A00D8B40DD001D812000500FA6E1851FD6EE6
:102B5A001951FE6E1A51FF6EFA50000E1200E20E63
:102B6A000501BE6FF20EBF6FE60EC06FF30EC16FA6
:102B7A0013EC18F012000AC50CF50BC50DF508C5C3
:102B8A000EF509C50FF50CC5F6F40DC5F7F40C4A98
:102B9A000D2A000EF86E0EC5D9F40FC5DAF40E4AE6
:102BAA000F2A0800F5C4DFF4DF50D8B41200EBD7BF
:102BBA000501F2510701F91905E10501F351070170
:102BCA00FA19D8A445EC11F0F2C5EAF5F3C5EBF50C
:102BDA00F4C5ECF5F5C5EDF521EC0AF0000E070198
:102BEA00436F010E426F120041504210D8B40CD00C
:102BFA00000E0201056F000E036FBE88BE84400EF0
:102C0A00C96E000EC76E1200ECEC0EF07F0EC96E94
:102C1A00C768C868010E0201056F020E036F120031
:102C2A0020EE01F00850D9260950DA22DF500A6E48
:102C3A000A500D6E0E6A08C5D9F409C5DAF4DF50D8
:102C4A000A6E0D500B6E0A500D6E0BC50EF50DC5B2
:102C5A0008F50EC509F51200000E1A6E000E196E5F
:102C6A000BD018C50BF50C6A16C50DF517C50EF570
:102C7A00ECEC06F0194A1A2A19501424D96E1A5083
:102C8A001520DA6EDF50186E1850D8B41200E9D742
:102C9A0008C50AF509C50BF520EE02F00A50D92637
:102CAA000B50DA22DF06DF50D8A41200000E020110
:102CBA00126F000E116F20EE03F00A50D9260B5046
:102CCA00DA22DF50C86E12000D6E0D500F0B086E1F
:102CDA00096AC40E0824D96E090E0920DA6EDF507B
:102CEA000A6E0D380F0B0F0B0B6E0C6A7C0E0B2441
:102CFA00D96E080E0C20DA6EDF500A101200070196
:102D0A00185119111A11D8B40DD001D80BD00500D9
:102D1A00FA6E1851FD6E1951FE6E1A51FF6EFA5075
:102D2A00010E120056C5F6F557C5F7F524EC0BF05F
:102D3A00120007D008C5D9F409C5DAF4DE2A000E54
:102D4A00DD2208C5D9F409C5DAF4DEC40AF5DDC402
:102D5A000BF50AC5D9F40BC5DAF4200EDE18D8A48F
:102D6A001200E8D732C515F533C516F534C517F57F
:102D7A0035C518F536C519F537C51AF5000E1B6E97
:102D8A0093ECBCF015C532F516C533F517C534F505
:102D9A0018C535F512002E0EBE6FEE0EBF6FD8C5E0
:102DAA00C0F5D9C5C1F5DAC5C2F5DBC5C3F5DEC5BF
:102DBA00C4F5DFC5C5F5DCC5C6F5DDC5C7F513EC39
:102DCA0018F0E6EC19F012001BBE05D01B5010E1FA
:102DDA001A04D8B00DD01AC51CF51BC51DF51C1E4A
:102DEA001D1E1C4A1D2A1CC51AF51DC51BF51200FD
:102DFA001AC51AF51BC51BF51200010E0C6E200E22
:102E0A0008180910D8B40ED0F70E08240A6EFF0E5F
:102E1A0009200B6E0B5004E1050E0A5CD8A002D003
:102E2A00000E0C6E0CC508F5096A12001B6E00C76D
:102E3A001CF501C71DF51CC516F51DC517F5B6EC21
:102E4A0018F01E6E1B501E18D8A407D01906D8A059
:102E5A001A0619501A10D8A4EED71E501200200EC6
:102E6A0008100A6E000E09100B6E9F0E0A240C6ED3
:102E7A00FF0E0B200D6E0D5006E11A0E0C5CD8B039
:102E8A0002D0010E01D0000E086E096A1200B7A026
:102E9A000ED0C7C207F50750D8B404D007501DECAE
:102EAA0013F005D0000E0701496F010E486FDCECE4
:102EBA0013F032513311D8A41100A7921100E3C5BF
:102ECA00D8F5E4C5D9F5E50EDA6F050EDB6FACEC83
:102EDA0001F0E76FE751D8A41200E3C5D9F4E4C5BD
:102EEA00DAF4000EDE6E000EDD6E1200D851070114
:102EFA00465D4751800A516E0501D951800A5158E1
:102F0A00D8B01200AB0EBE6FE70EBF6FD8C5C0F5C2
:102F1A00D9C5C1F513EC18F01200085009100A10AF
:102F2A000B10D8B408D0000E081A000E091A000EA9
:102F3A000A1A800E0B1A08C508F509C509F50AC54B
:102F4A000AF50BC50BF512000CC50EF50DC50FF5EC
:102F5A000CC508F50DC509F5000E0B6E000E0A6EBC
:102F6A0097EC19F020EE05F00E50D9260F50DA2210
:102F7A00DF50C86E12009F0E0C240E6EFF0E0D203D
:102F8A000F6E0F5009E11A0E0E5CD8B005D05F0E15
:102F9A000C140C6E0D6A12000CC50CF50DC50DF55E
:102FAA00120000C744F501C745F544C542F545C5B9
:102FBA0043F5D8EC18F044C512F545C513F5000ED3
:102FCA00156E010E146E7FEC12F012006A0E086E76
:102FDA00070E096E3DEC19F008500910D8B405D057
:102FEA00DC0E0A6EEE0E0B6E12003A0E0A6EF60E2A
:102FFA000B6E120008C5D9F409C5DAF40AC5DFF464
:10300A00084A092A0BC50AF50B6A08C5D9F409C585
:10301A00DAF40AC5DFF4084A092A1200C00E0501CB
:10302A00D66F050ED76F000EB66F000EB76FBEC50E
:10303A00B8F5BFC5B9F5D60EBA6F050EBB6F20EC51
:10304A0010F012000CD0050E096E0F0E086EF10E6C
:10305A00E82EFED7082EFCD7092EFAD700F0070172
:10306A0032513311D8B41200EED708500A02F3C411
:10307A000CF5F4C40DF508500B02F3500D26095057
:10308A000A02F3500D260CC508F50DC509F5120004
:10309A009F0E08240A6EFF0E09200B6E0B5006E1E4
:1030AA001A0E0A5CD8B002D0010E01D0000E086ECA
:1030BA00096A1200BF0E08240A6EFF0E09200B6E61
:1030CA000B5006E11A0E0A5CD8B002D0010E01D0EC
:1030DA00000E086E096A1200D00E08240A6EFF0E4E
:1030EA0009200B6E0B5006E10A0E0A5CD8B002D01A
:1030FA00010E01D0000E086E096A120000FF0600D8
:10310A0006A5065A06FF0A000AA50A5A0AFF0080FF
:10311A0040C020A060E0109050D030B070F02D6810
:10312A002BC51CF52CC51DF52D0E1E6E050E1F6E2A
:10313A00000E216E010E206E3CEC07F02D5012009D
:10314A0043C541F544C542F501D812000500FA6E9F
:10315A000801F651FD6EF751FE6EF851FF6EFA50F6
:10316A001200186816C508F517C509F5180E0A6E73
:10317A00050E0B6E000E0D6E010E0C6E1BECC9F0E7
:10318A001850120042C508F543C509F502EC14F0BF
:10319A0042C53EF543C53FF5000E416E010E406E35
:1031AA00B6EC13F0120042C53EF543C53FF5000EDA
:1031BA00416E000E406EB6EC13F042C508F543C5E9
:1031CA0009F54DEC16F0120007EC09F001D81200CF
:1031DA000500FA6E0801F351FD6EF451FE6EF551C9
:1031EA00FF6EFA5012000701185119111A11D8B4BA
:1031FA0006D056C5EEF557C5EFF59CEC06F0A1ECE6
:10320A0015F012003E6E6A0E356E070E366E000E0F
:10321A00386E040E376E3EC539F53A6A08ECF9F095
:10322A00120001D812000500FA6E0801ED51FD6E78
:10323A00EE51FE6EEF51FF6EFA501200EFC60AF51C
:10324A00F0C60BF508C5EFF609C5F0F60AC508F58C
:10325A000BC509F5120054C50AF555C50BF508C585
:10326A0054F509C555F50AC508F50BC509F5120047
:10327A0020EE02F00850D9260950DA22DEC408F5F9
:10328A00DDC409F51200FFFFFFFF01000100FFFF87
:0B329A000F00FF00FF00FF01FFCF014D
:1032A6005CEC19F00AC508F50BC509F50BEC1AF02C
:1032B600120001D04E0707014E51800A7F0FD8A099
:1032C6001200F8D7000E086EC00E096EFF0E0A6EC9
:1032D600FF0E0B6E1200000E086E000E096E210E18
:1032E6000A6E000E0B6E1200A00E07011B6F180E61
:1032F6001C6F000E1D6F1200B5BA1200070148516F
:103306004911D8A41200F8D7086E0804D8A41200F0
:103316000001D785D79512000A6E27EC18F0B7A2E0
:10332600FED70AC5C9F212000A500B10D8A402D063
:10333600C2841200C2941200FF00000E0601BD6F87
:10334600000EBC6F1200086E08A002D0C2821200E6
:10335600C292120056C5F6F557C5F7F58AEC0CF081
:103366001200086E08A002D0C18E1200C19E120083
:10337600086E08A002D0C2801200C2901200000E91
:103386000701396F0A0E386F1200000E0601BD6F75
:10339600010EBC6F1200086E08C5F3F70701F46B47
:1033A6001200B5BA02D0D8901200D8801200CEBA58
:1033B60002D0D8901200D8801200CEB002D0D89099
:1033C6001200D8801200FF0E0B6E0A6853EC19F03B
:1033D600120004012095C284CA94120038C708F569
:1033E60039C709F512003F0E096E08681200086E0B
:1033F60008C5C0F41200086E08C5C8F41200B59AD4
:103406001200D0501200CF501200FD5112001200CF
:02341600FFD7DE
:10DCD000008EF8750700EBF5760700BAF5770700B8
:10DCE000BDF4780700FBF579070191F6690800AAF1
:10DCF000F46A08000FF46B080052F36C08000FF789
:10DD00006D080051F56E0800D0F46F0800D1F37073
:10DD100008002DF5710802819FE0FC407E80FC0028
:10DD20000090002900A10010000000E1FF0201B4F2
:10DD3000F700024AFB000318FD000494FE00058E64
:10DD4000FE0106D0F8000783FF000847F90009D359
:10DD5000F9000A51F9000B11FD000CB2FE000DACE8
:10DD6000FE010E41FA000F88FF011052FC0211CC97
:10DD7000F70012ABF9001396FD0014D6FE0015D083
:10DD8000FE0116DBF80017CDFF011854FF0019F152
:10DD9000F9001A5BF9001B8FFD001CF4FE001DEE5C
:10DDA000FE011E4BFA001FD1FF0120E6FA0221E41A
:10DDB000F7022201F700231BFE002412FF00250CAE
:10DDC000FF0126E6F80027C9FF01284AFC00292D9B
:10DDD000FA022A9FF6002B14FE002C30FF002D2A99
:10DDE000FF012E55FA002FDDFF0130DDFA0231FC74
:10DDF000F7023243F7003337FE00349EFA003595C0
:10DE0000FA0136BBF60037D9FF013842FC0039373A
:10DE1000FA023A36F7003B30FE003C76FE003D70D9
:10DE2000FE013EC5F8003FD5FF0040B6FC0041E7CB
:10DE3000FC004234FD004365FD0044B9FD0045EAA5
:10DE4000FD00466FF9004785FC0048BDFC0049EE27
:10DE5000FC004A3BFD004B6CFD004CC0FD004DF149
:10DE6000FD004E79F9004F8CFC0050C4FC0051F5C8
:10DE7000FC005242FD005373FD0054C7FD0055F8ED
:10DE8000FD005683F9005793FC0058CBFC0059FC69
:10DE9000FC005A49FD005B7AFD005CCEFD005DFF91
:10DEA000FD005E8DF9005F9AFC0060D2FC0061030A
:10DEB000FD006250FD006381FD0064D5FD00650634
:10DEC000FE006697F90067A1FC0068D9FC00690AAA
:10DED000FD006A57FD006B88FD006CDCFD006D0DD8
:10DEE000FE006EA1F9006FA8FC0070BFF90071C9B7
:10DEF000F90072DDF90073E7F90074FBF90075238E
:10DF0000FA0076ABFF0077B5F90078AFFC0079E056
:10DF1000FC007A2DFD007B5EFD007CB2FD007DE300
:10DF2000FD007E65F9007F7EFC008062FB00817A47
:10DF3000FB00829AFB0083B2FB0084DAFB0085328F
:10DF4000FC0086BAF8008742FB00885AFB00897201
:10DF5000FB008A92FB008BAAFB008CD2FB008D2A6F
:10DF6000FC008EAFF8008F3AFB009088FE0091A66F
:10DF7000FE0092CAFE0093E8FE009406FF0095247E
:10DF8000FF00968CFA00976AFE009852FB00996A8F
:10DF9000FB009A8AFB009BA2FB009CCAFB009D220F
:10DFA000FC009EA4F8009F32FB00A09AFE00A1B8DE
:10DFB000FE00A2DCFE00A3FAFE00A418FF00A536B6
:10DFC000FF00A6A7FA00A77CFE00A8A0FE00A9BE3D
:10DFD000FE00AAE2FE00AB00FF00AC1EFF00AD3C5D
:10DFE000FF00AEB0FA00AF82FE00B0A1FE00B1BFEC
:10DFF000FE00B2E3FE00B301FF00B41FFF00B53D19
:10E00000FF00B6B1FA00B783FE00B88DFF00B992E9
:10E01000FF00BA97FF00BB9CFF00BCA1FF00BDA69C
:10E02000FF00BE22FB00BF7EFF00C03EFE00C11FFE
:10E03000FD02C208F802C3C2FA02C4F3F600C582A8
:10E04000FB01C6A8F700C7E2FB00C84EFF00C9E508
:10E05000FF02CA1DF900CB000002CC77F702CDF118
:10E06000F801CE9CF700CF02FC00D026FD00D19D28
:10E07000FD02D2C0F701D3ADF602D4C9F600D5BA7D
:10E08000FB01D605FA00D7EAFB00D8C4FE00D9E9A7
:10E09000FF02DAFCF801DB29F702DC6AF700DD0099
:10E0A0000001DE90F700DF0AFC00E029FE00E1221B
:10E0B000FE02E2F0F700E328F902E4E5F600E53AB3
:10E0C000FC01E60FFA00E7F2FB00E8A4FD00E92AF4
:10E0D000FB02EAD8F700EBCBFA02ECD7F600ED0032
:10E0E0000001EE19FA00EF12FC00F048FF00F1AB5E
:10E0F000FD02F212F900F3F8FF02F45DF700F5C239
:10E10000FB01F61AFA00F7FAFB00F842FF00F9D417
:10E11000FA02FA07F900FBFBFF02FC50F700FD00D2
:10E120000001FEB9FA00FF1AFCF0000000C39600DF
:10E1300043502F4D20626F6F742D6C6F6164657258
:10E1400020666F72205A38302D53696D756C61747A
:10E150006F720D0A000000000000000000000000C7
:10E1600000000000000000000000000000000000AF
:10E17000000000000000000000000000000000009F
:10E18000000000000000000000000000000000008F
:10E19000000000000000000000000000000000007F
:10E1A00000000000000000000000000000424F4F8F
:10E1B000543A206572726F7220626F6F74696E6775
:10E1C0000D0A002103007ED30123B7C29900ED465A
:10E1D000FB010100210000AFD30A78D30B79D30CE7
:10E1E0007DD30F7CD310AFD30DDB0EB7CA0000C6B2
:10E1F00030D3013E0DD3013E0AD3012180007EB70A
:10E20000CADC00D30123C3D100F376D3AC18273185
:10E21000000000D3AB00C30E00ED73B10031AD00C0
:10E22000F5AF32B500C5D5E5DDE5FDE5ED7BB10027
:10E23000E122AF0018D52AB3007DB7B428421100FF
:10E2400000060E1A77231310FA2AB30011040019DE
:10E2500022AD00182B0000000000000000000000AC
:10E2600000000000000000000000000000000000AE
:10E2700000D3AB00ED73B10031AD00F53E0118A243
:10E28000DD2AB3003EAADD77092AB100DD7505DD80
:10E2900074063AA000DD770B2323F92AAF00E5319D
:10E2A000A100FDE1DDE1E1D1C1F1FBC90000000009
:10E2B000000000000000000004000000000000005A
:10E2C000000010F60154D601000033F99BF20BF662
:10E2D00000BE1B00000041EF63F583FA009033009D
:10E2E000000041EF0AEE84F702A49C010000DBF578
:10E2F00067EBF5FF02A49C010000000000007AFA21
:10E3000004E46301000043E92BED74FF020AA80155
:10E310000000DBF5FEEE79FF01C61400000069FC89
:10E32000D3E964FE003E33000000E3F4000070FC1B
:10E3300002DEC101000049F604ED66FE02AA3401C6
:10E34000010097F4BEEB6AFF01CA210000003FF50F
:10E35000CEF077FC00928D01000041EF5DF0DDF41E
:10E360000254E00102001CF713EC6FFF00E2BB0156
:10E370000000A7F30000D3AE00ED73A000319C00B5
:10E38000F53E0132A400C5D5E5DDE5FDE5ED7BA058
:10E3900000E1229E0021000036D32336AFC30000E7
:10E3A000000000000000000000000000000000006D
:10E3B000000000000000D3AC180A31000000D3AA0E
:10E3C00000FBED4D2A3900310700E52323F92A37F8
:10E3D00000E5312900FDE1DDE1E1D1C1F118DB000B
:10E3E0000000000000000000000000040000000029
:10E3F0000000000000D3AD180500000000002A0452
:10E4000000ED5B06003A08004FAF47EDB03E001844
:10E41000E43100083E00D3AD7618F600ED45FBED83
:10E420004D696F5F737461742829203D3D20494F09
:10E430005F535441545F4E4F545F535441525445BF
:10E4400044207C7C20696F5F737461742829203DAF
:10E450003D20494F5F535441545F53544F505045F2
:10E4600044207C7C20696F5F737461742829203D8F
:10E470003D20494F5F535441545F494E54455252D9
:10E480005550544544207C7C20696F5F73746174DF
:10E490002829203D3D20494F5F535441545F50523D
:10E4A0004550494E564F4B45207C7C20696F5F7329
:10E4B0007461742829203D3D20494F5F53544154D5
:10E4C0005F4D4F4E49544F5200696F5F73746174D2
:10E4D0002829203D3D20494F5F535441545F4E4F02
:10E4E000545F53544152544544207C7C20696F5FF3
:10E4F000737461742829203D3D20494F5F53544176
:10E50000545F53544F50504544207C7C20696F5FCA
:10E51000737461742829203D3D20494F5F53544155
:10E52000545F4D4F4E49544F52004449534B3A208B
:10E530004F503D2530327820442F542F533D2564D1
:10E540002F2533642F2533642020202020202020F5
:10E5500020202020414444523D253031782530325E
:10E560007825303278202852442049474E4F524572
:10E5700044290A0D004449534B3A204F503D253061
:10E58000327820442F542F533D25642F2533642F98
:10E5900025336420202020202020202020202041FE
:10E5A0004444523D25303178253032782530327858
:10E5B000202857522049474E4F524544290A0D0002
:10E5C00025733A204552524F523A20492F4F202569
:10E5D0003573202533642C202533642028253032E0
:10E5E00058482C20253032584829207768696C65B6
:10E5F0002077616974696E6720666F7220256420D8
:10E60000282530325848290A0D004449534B3A20F6
:10E610004F503D2530327820442F542F533D2564F0
:10E620002F2533642F25336420782533643D253529
:10E630006C6420414444523D253031782530327895
:10E6400025303278202E2E2E2053543D253032781E
:10E650000A0D004449534B3A204F503D2530327843
:10E6600020442F542F533D25642F2533642F253309
:10E6700064202020202020202020202020414444ED
:10E68000523D253031782530327825303278202EB1
:10E690002E2E200A0D002F55736572732F74616B37
:10E6A000656D7572612F776F726B73706163652F23
:10E6B0006769746875622F53757065724D455A3875
:10E6C000302F7372632F6D6F6E69746F722E6300DB
:10E6D0002F55736572732F74616B656D7572612F41
:10E6E000776F726B73706163652F676974687562A9
:10E6F0002F53757065724D455A38302F7372632FE2
:10E700006D656D6F72792E630053442043617264AE
:10E710003A20726561643531323A204352432065B4
:10E7200072726F7220282530347820213D202530E8
:10E7300034782C2072657472793D2564290A0D00A5
:10E740005741524E494E473A206E6F204750494F2D
:10E7500020657870616E64657220746F20636F6EDF
:10E7600074726F6C20686967686572206164647296
:10E770006573730A0D002F55736572732F74616B87
:10E78000656D7572612F776F726B73706163652F42
:10E790006769746875622F53757065724D455A3894
:10E7A000302F7372632F696F2E63005741524E49A9
:10E7B0004E473A20746F6F206D616E792062616EF2
:10E7C0006B73207265717565737465642E20287291
:10E7D000657175657374206973202564290A0D00BD
:10E7E00074797065202768656C702720746F2073BA
:10E7F000656520746865206C697374206F6620619C
:10E800007661696C61626C6520636F6D6D616E64C9
:10E81000730A0D00496D6167652066696C65202586
:10E82000732F445249564525632E44534B20697338
:10E830002061737369676E656420746F2064726908
:10E8400076652025630A0D005741524E494E473ADE
:10E8500020756E6B6E6F776E20492F4F207772692F
:10E8600074652025642C20256420282530325848E2
:10E870002C202530325848290A0D006469736B5FDB
:10E88000696F63746C3A20706472763D25642C2045
:10E89000636D643D25642C20627566663D30782585
:10E8A0006C783A207265733D25640A0D005344204C
:10E8B000436172643A2020726561643531323A20D6
:10E8C000616464723D25386C642C206F6666733D0C
:10E8D00025642C20636F756E743D25640A0D00530A
:10E8E0004420436172643A2077726974653531322D
:10E8F0003A20616464723D25386C642C206F666632
:10E90000733D25642C20636F756E743D25640A0D7C
:10E9100000534420436172643A207772697465350C
:10E9200031323A206661696C656420746F206765D6
:10E930007420746F6B656E2C2074696D656F7574CF
:10E940000A0D005B64726976655D5B2C74726163AD
:10E950006B5D5B2C736563746F725D5B2C6C656EB5
:10E960006774685D206F72205B64726976652C5DE8
:10E970004C4241004449534B3A2020726561642067
:10E98000442F542F533D25642F2533642F253364A2
:10E9900020782533643D25356C643A204552524F2A
:10E9A000520A0D00534420436172643A2077726921
:10E9B00074653531323A2074696D656F75742C2039
:10E9C000726573706F6E73652069732025303278BD
:10E9D0000A0D004A756D7020746F2073706563694D
:10E9E00066696564206164647265737320616E6436
:10E9F00020737461727420657865637574696F6ED5
:10EA00002000534420436172643A20434D4435381A
:10EA10002C2052333D253032782025303278202585
:10EA2000303278202530327820253032780A0D00B7
:10EA300025733A204552524F523A20636C6F636BF4
:10EA4000207370656564202564206973206E6F747F
:10EA500020737570706F727465640A0D00534420E2
:10EA6000436172643A20434D44382C2052373D258F
:10EA70003032782025303278202530327820253009
:10EA8000327820253032780A0D004449534B3A2021
:10EA9000207265616420442F542F533D25642F2537
:10EAA00033642F25336420782533643D25356C6429
:10EAB0003A204F4B0A0D006469736B5F696F637492
:10EAC0006C3A20706472763D25642C20636D643D41
:10EAD00025643A204E6F742068616E646C65642E04
:10EAE0000A0D006469736B5F726561643A2020707F
:10EAF0006472763D25642C20736563746F723D25C6
:10EB00006C642C20636F756E743D25640A0D00647F
:10EB100069736B5F77726974653A20706472763DD1
:10EB200025642C20736563746F723D256C642C2002
:10EB3000636F756E743D25640A0D005741524E494E
:10EB40004E473A2025733A206E6F20696E746572C5
:10EB50007275707473206C696E6520617661696C82
:10EB600061626C650A0D005472616E736C6174654C
:10EB7000206D616368696E6520636F6465206F6EE8
:10EB80002074686520746172676574206D656D6FAF
:10EB9000727900534420436172643A204343532006
:10EBA0002843617264204361706163697479205302
:10EBB00074617475732920697320300A0D004469EB
:10EBC00073706C6179206F72206368616E67652075
:10EBD0007370656369666965642064656275672042
:10EBE0007661726961626C650053442043617264AE
:10EBF0003A2077726974653531323A2043524320A6
:10EC00006572726F72202872657472793D2564296D
:10EC10000A0D0057726974652062797465206F72FD
:10EC200020737472696E6720746F20746865207435
:10EC30006172676574206D656D6F72790053442051
:10EC4000436172643A204361726420706F77657229
:10EC50002075702073746174757320626973206904
:10EC60007320300A0D007472616D706F6C696E658F
:10EC70005F696E7374616C6C656420213D204D4D3D
:10EC8000555F494E56414C49445F42414E4B0072DC
:10EC9000656164204D425220706172746974696FBD
:10ECA0006E207461626C6520617420736563746F9B
:10ECB0007220300A0D005741524E494E473A207596
:10ECC0006E6B6E6F776E20492F4F207265616420E6
:10ECD000256420282530325848290A0D0053442045
:10ECE000436172643A2020726561643531323A20A2
:10ECF000736563746F723D256C643A204552524FC0
:10ED0000520A0D00446973706C617920646174610A
:10ED100020626C6F636B2873292066726F6D20749C
:10ED20006865205344204361726400446973706CC9
:10ED3000617920736563746F722873292066726F1E
:10ED40006D206469736B20696D6167652066696C0D
:10ED50006500534420436172643A20534448432081
:10ED60006F72205344584320636172642064657459
:10ED700065637465640A0D0025733A204552524F4D
:10ED8000523A206D6F6465202564206973206E6F90
:10ED90007420737570706F727465640A0D0053444B
:10EDA00020436172643A20696E697469616C697AA2
:10EDB00065202E2E2E207375636365656465640A75
:10EDC0000D00534420436172643A20756E6578707B
:10EDD000656374656420726573706F6E736520255A
:10EDE0003032780A0D00534420436172643A202087
:10EDF000726561643531323A20736563746F723DB8
:10EE0000256C643A204F4B0A0D0045786974206DDB
:10EE10006F6E69746F7220616E6420636F6E7469C7
:10EE20006E756520657865637574696F6E004173F2
:10EE300073657274696F6E206661696C65643A20EF
:10EE40002573202825733A2025733A202564290A42
:10EE500000534420436172643A2041434D443431AD
:10EE600020726573706F6E73652069732025303270
:10EE7000780A0D00534420436172643A2077726926
:10EE800074653531323A20746F6B656E206973207A
:10EE9000253032780A0D004552524F523A206261B5
:10EEA0006E6B202564206973206E6F74206176611B
:10EEB000696C61626C652E0A0D00534420436172D7
:10EEC000643A20434D44353920726573706F6E7318
:10EED0006520697320253032780A0D0053757065FE
:10EEE000724D455A38302B53504920776974682049
:10EEF0004750494F20657870616E646572004469BF
:10EF000073706C61792064617461206F6E20746825
:10EF10006520746172676574206D656D6F7279002C
:10EF20004D656D6F727920303030303030202D20BB
:10EF30002530366C5848202564204B42204F4B0D1D
:10EF40000A00706172746974696F6E207374617203
:10EF5000747320617420736563746F7220256C6410
:10EF60000A0D0025733A20696E74657272757074AB
:10EF7000206973206E6F7420617661696C61626CC8
:10EF8000650A0D005573652052413320657874651C
:10EF9000726E616C20636C6F636B20666F72205AB7
:10EFA00038300A0D00557365204E434F20252E3210
:10EFB00066204D487A20666F72205A383020636C84
:10EFC0006F636B0A0D00665F777269746528293A72
:10EFD000204552524F52207265733D25642C206E9D
:10EFE0003D25640A0D00665F7265616428293A2038
:10EFF0004552524F52207265733D25642C206E3D60
:10F0000025640A0D00696F5F696E766F6B655F74CA
:10F0100061726765745F6370755F74656172646F58
:10F02000776E006661696C656420746F2077726921
:10F03000746520736563746F7220256C640A0D001B
:10F04000696F5F696E766F6B655F74617267657417
:10F050005F6370755F70726570617265004469739B
:10F06000706C617920737461747573206F6620749D
:10F07000686520746172676574006661696C6564B7
:10F0800020746F207265616420736563746F7220F1
:10F09000256C640A0D000A0D534420436172643AE2
:10F0A00020696E697469616C697A65202E2E2E0A5A
:10F0B0000D00436C65617220627265616B706F69EF
:10F0C0006E74206174202530346C580A0D00457828
:10F0D0006563757465206E65787420696E737472EB
:10F0E000756374696F6E28732900534420436172FD
:10F0F000643A2041434D4434312C2052313D253077
:10F1000032780A0D000A0D52657365742062792009
:10F11000494F20706F72742025303258480A0D0014
:10F120004661696C656420746F206F70656E205352
:10F130004420436172642E2E0A0D004661696C659D
:10F140006420746F206D6F756E742053442043618A
:10F1500072642E0A0D006661696C656420746F200C
:10F160007265616420736563746F7220300A0D00EC
:10F170000A0D48414C5420627920494F20706F722B
:10F18000742025303258480A0D005365742062728D
:10F1900065616B706F696E74206174202530346C0A
:10F1A000580A0D006469736B5F696E697469616CFC
:10F1B000697A65282564292E2E2E0A0D00534420D5
:10F1C000436172643A206E6F74207375706F707251
:10F1D0007465640A0D00534420436172643A20430D
:10F1E0004D44302C2052313D253032780A0D00201C
:10F1F000202020202020202020202020202020200F
:10F200002020202020200D007761697420666F7215
:10F210002070726F6772616D6D6572202E2E2E0DDB
:10F2200000496E76616C696420617267756D656E08
:10F23000743A20272573270A0D005354415455531F
:10F240003A202563256325632563256325632563AC
:10F2500025630025732535337320434845434B53BD
:10F26000554D3A20253032780A0D00556E6B6E6F81
:10F27000776E207661726961626C6520272573273D
:10F280000A0D00427265616B706F696E742069735C
:10F29000206E6F74207365740A0D00536574206FBF
:10F2A000722073686F7720627265616B20706F697E
:10F2B0006E74004D656D6F727920303030303030B3
:10F2C000202D202530366C58480D00706879736900
:10F2D00063616C2064726976657220213D20300A7A
:10F2E0000D0025733A206E6F20696E746572727519
:10F2F00070742070696E0A0D00416D626967756FE8
:10F30000757320636F6D6D616E642025730A0D0047
:10F31000665F6C7365656B28293A204552524F52DF
:10F320002025640A0D00427265616B706F696E740E
:10F33000206973202530346C580A0D00556E6B6EB1
:10F340006F776E20636F6D6D616E643A2025730A6E
:10F350000D0064656275675F6661746469736B5FF5
:10F36000766572626F7365006E6F2046415433326A
:10F3700020706172746974696F6E0A0D00665F7344
:10F38000796E6328293A204552524F522025640A4B
:10F390000D00696F5F696E766F6B655F7461726790
:10F3A00065745F63707500446973706C6179207473
:10F3B000686973206D657373616765007265696E56
:10F3C0007374616C6C5F7472616D706F6C696E6583
:10F3D0000064656275675F7364636172645F76651C
:10F3E00072626F7365006D6F6E5F617373657274C7
:10F3F0005F696E74657272757074005350495F492D
:10F400004F4558505F636F6E66696775726500643B
:10F41000656275675F6661746469736B5F77726953
:10F4200074650073697A656F6628706172616D73C7
:10F4300029203D3D2035004D3A204D6F6E69746F97
:10F44000722070726F6D70740A0D006E6F204D42E5
:10F4500052207369676E61747572650A0D005344BA
:10F4600020436172643A2074696D656F75740A0D8A
:10F4700000696E76616C6964206472697665202526
:10F48000640A0D007772697465205B616464725D63
:10F490002C76616C0A0D005B7661726961626C6545
:10F4A0005D5B3D76616C75655D0064656275675F87
:10F4B0006661746469736B5F726561640064656240
:10F4C00075675F6469736B5F766572626F73650001
:10F4D00064656275675F7364636172645F777269A4
:10F4E000746500526573746172742074686520736A
:10F4F000797374656D005F5F6D656D6370795F6FC3
:10F500006E5F746172676574006E6F2076616C69FE
:10F510006420766F6C756D650A0D0053442043615D
:10F5200072643A2072656164792E0A0D007A38306F
:10F530005F636C6F636B5F4E434F31494E43005BBB
:10F540006E756D626572206F662073746570735D91
:10F550000064656275675F7364636172645F72659E
:10F56000616400436C65617220627265616B20703A
:10F570006F696E740025732069732073656C656311
:10F580007465642E0A0D005350495F53445F636FE6
:10F590006E66696775726500427265616B206174A1
:10F5A000202530346C580A0D004D4D553A206261CB
:10F5B0006E6B202530325820200064656275675FCD
:10F5C0006469736B5F77726974650025733D256CA0
:10F5D000642028256C5868290A0D005B61646472F8
:10F5E0005D5B2C6C656E6774685D00646562756751
:10F5F0005F6469736B5F72656164006465627567FF
:10F600005F6469736B5F6D61736B00636C656172DE
:10F61000627265616B706F696E74004E6F20626F0D
:10F620006F74206469736B2E0A0D002A2B2C3A3BF1
:10F630003C3D3E5B5D7C223F7F0053757065724DA3
:10F64000455A38302B535049005B4C42415D5B2C8E
:10F650006C656E6774685D0025732F44524956458A
:10F6600025632E44534B004E6F2053442043617258
:10F67000643F0A0D00696F5F776169745F77726933
:10F6800074650025733D25642028255868290A0DD6
:10F690000064656275675F6661746469736B004CD2
:10F6A0004420484C2C28253034584829004F5554C4
:10F6B00020282530325848292C41004C4420284825
:10F6C0004C292C25303258480043414C4C204E43A5
:10F6D0002C25303458480043414C4C2050452C25B3
:10F6E000303458480043414C4C20504F2C25303486
:10F6F00058480043414C4C204E5A2C253034584831
:10F70000004C4420282530345848292C484C0064AB
:10F71000656275675F736463617264005B616464F2
:10F72000725D2C76616C756500494E20412C282550
:10F730003032584829004C4420412C282530345878
:10F740004829004C4420282530345848292C4100B1
:10F7500043414C4C204D2C25303458480043414CFB
:10F760004C20502C25303458480043414C4C2058F4
:10F770002C25303458480043414C4C205A2C25301D
:10F7800034584800646973617373656D626C650019
:10F7900053424320412C25303258480041444320F5
:10F7A000412C25303258480041444420412C25301A
:10F7B000325848004C442042432C253034584800ED
:10F7C0004A50204E432C2530345848004C442044A5
:10F7D000452C2530345848004A502050452C2530BF
:10F7E000345848004C4420484C2C253034584800AC
:10F7F0004A5020504F2C2530345848004C44205358
:10F80000502C2530345848004A50204E5A2C253070
:10F8100034584800426F6172643A2025730A0D0023
:10F8200070726F6772616D3A0A0D0049593A20256E
:10F830003034580A0D000A0D2020202025730A0DAF
:10F840000042433A202530345820200050433A20CB
:10F850002530345820200044453A202530345820A3
:10F86000200041463A2025303458202000484C3AA8
:10F87000202530345820200053503A202530345869
:10F8800020200049583A2025303458202000646553
:10F890006275675F6469736B006C656E203C3D2028
:10F8A0003235360053424320412C28484C29004130
:10F8B000444320412C28484C290041444420412CF9
:10F8C00028484C29004C4420412C2530325848000F
:10F8D0004C4420422C2530325848004C4420442CC3
:10F8E0002530325848004C4420482C2530325848A6
:10F8F0000043414C4C202530345848004A502043A6
:10F900002C2530345848004A50204D2C253034588E
:10F9100048004A5020502C2530345848004A502086
:10F920005A2C253034584800455820285350292C4B
:10F93000484C005B616464726573735D006D6F6E4B
:10F940005F73657475700045582041462C41462709
:10F95000004C4420412C28424329004C4420412C97
:10F9600028444529004C4420412C28484C29004C6F
:10F970004420422C28484C29004C4420432C284841
:10F980004C29004C4420442C28484C29004C44204D
:10F99000452C28484C29004C4420482C28484C2908
:10F9A000004C44204C2C28484C29004C442028442E
:10F9B00045292C41004C442028484C292C41004C1E
:10F9C000442028484C292C42004C442028484C29EB
:10F9D0002C430041444420484C2C4243004C4420DA
:10F9E00028484C292C44004C442028484C292C45BC
:10F9F0000041444420484C2C4445004C44202848B5
:10FA00004C292C480053554220253032584800419B
:10FA10004E4420253032584800584F52202530326D
:10FA20005848004C442028484C292C4C0041444460
:10FA300020484C2C484C0041444420484C2C535006
:10FA4000004C4420432C25303258004C4420452C97
:10FA500025303258004C44204C2C2530325800259B
:10FA6000732530366C783A004641543332202020DA
:10FA700000737461636B3A0A0D006469736B72659D
:10FA8000616400636F6E74696E7565005355422042
:10FA900028484C29004445432028484C2900494E19
:10FAA000432028484C2900414E442028484C290036
:10FAB000584F522028484C290043502025303258B6
:10FAC00048004A50202530345848004558204445C5
:10FAD0002C484C004C442053502C484C004A522097
:10FAE0004E432C2564004A52204E5A2C2564002592
:10FAF000643A2025730A0D0053656C6563743A20DF
:10FB00000043504D4449534B5300257325303478FE
:10FB10003A004572726F720A0D000D257325730A43
:10FB20000D0043502028484C29004A502028484CBA
:10FB3000290053424320412C410041444320412CA1
:10FB4000410041444420412C41004C442042432C7C
:10FB5000410053424320412C420041444320412C68
:10FB6000420041444420412C420053424320412C56
:10FB7000430041444320412C430041444420412C54
:10FB80004300505553482042430053424320412CE8
:10FB9000440041444320412C440041444420412C32
:10FBA000440053424320412C450041444320412C12
:10FBB000450041444420412C4500505553482044C1
:10FBC0004500505553482041460053424320412CA4
:10FBD000480041444320412C480041444420412CEA
:10FBE0004800525354203030480052535420313092
:10FBF000480052535420323048005253542033307E
:10FC00004800525354203038480052535420313861
:10FC1000480052535420323848005253542033384D
:10FC2000480053424320412C4C0041444320412C86
:10FC30004C0041444420412C4C005055534820482E
:10FC40004C004A5220432C2564004A52205A2C254D
:10FC50006400444A4E5A2C25640043504D44495395
:10FC60007E003C25643E0A0D005B616464725D00A9
:10FC700073647265616400737461747573004C44DD
:10FC800020412C41004C4420422C41004C44204354
:10FC90002C41004C4420442C41004C4420452C4134
:10FCA000004C4420482C41004C44204C2C41004C3A
:10FCB0004420412C42004C4420422C42004C442021
:10FCC000432C42004C4420442C42004C4420452C00
:10FCD00042004C4420482C42004C44204C2C420012
:10FCE0004C4420412C43004C4420422C43004C44C3
:10FCF00020432C43004C4420442C43004C442045DA
:10FD00002C43004C4420482C43004C44204C2C43B2
:10FD10000044454320424300494E432042430050A3
:10FD20004F5020424300524554204E43004C442043
:10FD3000412C44004C4420422C44004C4420432C91
:10FD400044004C4420442C44004C4420452C4400A6
:10FD50004C4420482C44004C44204C2C44004C443F
:10FD600020412C45004C4420422C45004C4420436B
:10FD70002C45004C4420442C45004C4420452C4547
:10FD8000004C4420482C45004C44204C2C45004459
:10FD9000454320444500494E4320444500504F50C0
:10FDA0002044450052455420504500504F502041BA
:10FDB00046004C4420412C48004C4420422C480032
:10FDC0004C4420432C48004C4420442C48004C44D4
:10FDD00020452C48004C4420482C48004C44204CE2
:10FDE0002C48004C4420412C4C004C4420422C4CCC
:10FDF000004C4420432C4C004C4420442C4C004CE0
:10FE00004420452C4C004C4420482C4C004C4420B1
:10FE10004C2C4C0044454320484C00494E4320485C
:10FE20004C00504F5020484C0052455420504F0039
:10FE300044454320535000494E43205350005245FF
:10FE400054204E5A002530366C5820002025303280
:10FE500078006661743A20006275663A20000D25CC
:10FE600073200D0072657365740053554220410084
:10FE7000444543204100494E43204100414E442027
:10FE80004100584F52204100535542204200444502
:10FE900043204200494E43204200414E442042004C
:10FEA000584F5220420053554220430044454320BE
:10FEB0004300494E43204300414E44204300584FE5
:10FEC00052204300524554204300535542204400E1
:10FED000444543204400494E43204400414E4420C1
:10FEE0004400584F52204400535542204500444599
:10FEF00043204500494E43204500414E44204500E3
:10FF0000584F522045005355422048004445432055
:10FF10004800494E43204800414E44204800584F75
:10FF200052204800535542204C00444543204C0089
:10FF3000494E43204C00414E44204C00584F522023
:10FF40004C00524554204D0052455420500052451B
:10FF500054205A004A52202564002530325820008F
:10FF600053443A20004D4F4E3E0073746570006854
:10FF7000656C700064756D70006A756D700043503B
:10FF8000204100524C434100525243410043502013
:10FF9000420043502043004350204400435020453A
:10FFA0000043502048004350204C0048414C54002E
:10FFB000303A2F2F00696E66006E616E006C6C73B4
:10FFC000000D2573002025730044414100524C412F
:10FFD0000052524100434346005343460043504CB5
:10FFE000004E4F500052455400455858003F3F3F87
:0FFFF000004D0A0D0064690044490045490000B6
:020000040001F9
:10000000E6EC00F001D80BD00500FA6E0701D651DE
:10001000FD6ED751FE6ED851FF6EFA501200D8A077
:100020001200000E0901EC6F000EEB6F01D80BD02F
:100030000500FA6E0801E451FD6EE551FE6EE651D1
:10004000FF6EFA5012000901F26F01D80BD00500C3
:10005000FA6E0801E151FD6EE251FE6EE351FF6E52
:10006000FA5012000901F36F0701D951DA11DB11BF
:10007000D8A406D0000E0901DE6F010EDD6F14D08A
:1000800001D80AD00500FA6ED951FD6EDA51FE6E24
:10009000DB51FF6EFA501200D8A002D0010E01D041
:1000A000000E0901DD6FDE6BDD51DE11D8B426D004
:1000B0000701F4BF23D0000E396F230E386F01D82B
:1000C0000BD00500FA6EE851FD6EE951FE6EEA5163
:1000D000FF6EFA50000E120001D80CD00500FA6E27
:1000E0000701D051FD6ED151FE6ED251FF6EFA5014
:1000F000F35112000701F369F4691CD10701D951CA
:10010000DA11DB11D8A406D0000E0901E06F010E50
:10011000DF6F14D001D80AD00500FA6ED951FD6EF8
:10012000DA51FE6EDB51FF6EFA501200D8A002D0F9
:10013000010E01D0000E0901DF6FE06BDF51E0110D
:10014000D8B406D0000E0701396F280E386F61D27F
:10015000000E0701396F1E0E386F01D8CBD0050095
:10016000FA6EE851FD6EE951FE6EEA51FF6EFA50EB
:10017000000E1200070136513711D8B405D001D84E
:10018000D3D00500FA6EADD001D8CED00500FA6EFE
:10019000D051FD6ED151FE6ED251FF6EFA50000E5D
:1001A000120027EC18F015EC0EF00901DC6F01D8F5
:1001B000BBD00500FA6E0701D051FD6ED151FE6E25
:1001C000D251FF6EFA500901DC51120007012C5187
:1001D0002D11D8B427D0500E2C5D0601D46F0A0E15
:1001E00007012D590601D56FD5BF06D0D5511AE1AB
:1001F000800ED45DD8B016D001D810D00500FA6EAC
:100200000701D051FD6ED151FE6ED251FF6EFA50F2
:100210002CC7D9F42DC7DAF4DF50120007012C4B9C
:100220002D2B82D007017551D8A409D07651D8A4BE
:1002300006D07751D8A403D07851D8B475D02A0EFF
:100240000501BE6FE50EBF6FF2C6C0F5C16BF3C608
:10025000C2F5C36B50C7C4F5C56B2EC7C6F52FC713
:10026000C7F556C5C8F557C5C9F54FC7CAF5CB6B15
:10027000F1C6CCF5CD6B13EC18F056D001D854D0A4
:100280000500FA6E0701D051FD6ED151FE6ED251BC
:10029000FF6EFA50FC51120001D846D00500FA6EEC
:1002A0000701D051FD6ED151FE6ED251FF6EFA5052
:1002B00008EC1AF01200B60E0501BE6FEC0EBF6F0F
:1002C000F2C9C0F5C16BF2C9C2F5C36B13EC18F0EB
:1002D000000E0701496F010E486F01D825D00500B7
:1002E000FA6ED051FD6ED151FE6ED251FF6EFA50B2
:1002F000FF0E12000901F2510601D46FD56BD551E2
:10030000000AD8A4D8D7D451000AD8B433D7010AE8
:10031000D8B447D7090AD8B459D7060AD8B4AED743
:10032000AE0AD8B4B9D7C7D7070148514911D8A4E4
:10033000A1EC15F001D80CD00500FA6E0701D351DD
:10034000FD6ED451FE6ED551FF6EFA50000E1200B4
:1003500001D80BD00500FA6E0701CD51FD6ECE51CC
:10036000FE6ECF51FF6EFA50120001D80CD005007E
:10037000FA6E0701CA51FD6ECB51FE6ECC51FF6E75
:10038000FA50010E120001D80BD00500FA6E0701D9
