:0400000081EF00F09C
:100008002D042D042D042D0440002D0440002D0442
:100018002D042D042D042D042D042D042D042D0450
:100028002D044000400040002D042D042D042D0413
:100038002D042D042D042D042D042D042D042D0430
:100048002D042D042D042D04400040002D042D0402
:100058002D042D042D0440002D042D042D042D0401
:100068002D042D042D042D042D042D042D042D0400
:100078002D042D042D042D0440002D042D042D04E1
:100088002D042D042D042D042D042D042D042D04E0
:100098002D042D042D042D0440002D0440004000A3
:1000A8002D042D042D042D042D042D042D042D04C0
:1000B8002D042D042D042D042D042D042D042D04B0
:1000C8002D042D042D042D042D042D042D042D04A0
:1000D8002D042D042D042D042D042D042D042D0490
:1000E80040002D042D042D04400040004000400035
:1000F8002D042D042D042D04FF0037EFF3F0BE92DC
:1001080008C512F509C513F512C5BFF4000E116E26
:10011800000E106E23D0BE9A10500A240E6E115095
:100128000B200F6E0EC5F6F40FC5F7F4000EF86E2F
:10013800250EF76404D0D0C4F5F40C0006D0F6C43C
:10014800E9F4F7C4EAF4D0C4EFF4BE8A122A12C55F
:10015800BFF41250D8B4132A104A112A0C50105C5C
:100168000D501158D8A0D7D7BE821200D69E0701CD
:1001780038513911D8B41FD0600E3625D96E0A0E01
:100188003721DA6EDF500E6E010E3625086E000E2E
:100198003721096E000E0B6E500E0A6E85EC06F0C4
:1001A80008C536F709C537F73807D8A03907A78033
:1001B800D68E0E5012000601F351F411D8B403D0B4
:1001C800D68E000E1200D68E150E0D6EC60EE82EB7
:1001D800FED70D2EFCD700D0C9D7BE9208C512F5A0
:1001E80009C513F512C5BFF4000E116E000E106E8E
:1001F80022D0C29010500A240E6E11500B200F6EA0
:100208000EC5F6F40FC5F7F4000EF86E250EF76468
:1002180003D00800F55005D0F6C4E9F4F7C4EAF4B1
:10022800EF50C06EC280122A12C5BFF41250D8B463
:10023800132A104A112A0C50105C0D501158D8A0DE
:10024800D8D7BE82120008C5D9F409C5DAF40AC5A0
:10025800DFF4084A092A0B500A6E0C500B6E0D5039
:100268000C6E0D6A08C5D9F409C5DAF40AC5DFF4BD
:10027800084A092A0B500A6E0C500B6E0D500C6E72
:100288000D6A08C5D9F409C5DAF40AC5DFF4084AC5
:10029800092A0B500A6E0C500B6E0D500C6E0D6A2D
:1002A80008C5D9F409C5DAF40AC5DFF4084A092AE9
:1002B800120010C5F6F411C5F7F4000EF86E080028
:1002C800F5500C6E0D6AB7EC08F00CC517F50DC5A6
:1002D80018F5104A112A12C5D9F413C5DAF4DF50FB
:1002E800146E14500C6E0D6AB7EC08F00CC515F5B9
:1002F8000DC516F5124A132A1550171808E116509D
:100308001818D8A404D017501810D8A4D2D715504C
:10031800175C106E16501858116E12000C500D1004
:100328000E100F10D8B424D0010E106E06D0D8903D
:100338000C360D360E360F36102A0FAEF8D70C5085
:10034800085C0D5009580E500A580F500B58D8A089
:1003580008D00C50085E0D50095A0E500A5A0F501A
:100368000B5AD8900F320E320D320C32102EE7D7BE
:1003780008C508F509C509F50AC50AF50BC50BF541
:1003880012000AC510F50BC511F50C500D10D8B4A4
:1003980012000DC590F00CC58FF010C5D9F411C529
:1003A800DAF4DF5000018E6F104A112A000E0F6E2A
:1003B800010E0E6E0ED010C5D9F411C5DAF4DF5057
:1003C8008E6F104A112AB3A0FED700018D510E4A34
:1003D8000F2A0C500E5C0D500F58D8A0ECD7B3A0C4
:1003E800FED700018D5112004D51D8B4120028C516
:1003F8002AF5010E2B6E000E2C6E2A2A03D0D890F7
:100408002B362C362A2EFBD707013E512B163F518F
:100418002C162B502C10D8A4120028C520F529C55D
:1004280021F5B7EC05F028C52AF5010E2B6E000E54
:100438002C6E2A2A03D0D8902B362C362A2EFBD79E
:100448002B5007013E132C503F131200B8C5BCF5C2
:10045800B9C5BDF5000E0701236F000E226F17D036
:10046800B6C593F5B7C594F5BC0E0501956F050E95
:10047800966FBAC597F5BBC598F500EC80F00501F5
:100488009351070122270501945107012323BCC575
:10049800F6F4BDC5F7F4000EF86E0800F550000933
:1004A800D8A4DED7000E0501B76F000EB66F120094
:1004B80004D0084A092A0A4A0B2A08C5D9F409C5EA
:1004C800DAF4DF500C6E0AC5F6F40BC5F7F4000E2B
:1004D800F86E0800F5500C18D8A407D008C5D9F450
:1004E80009C5DAF4DF50D8A4E4D708C5D9F409C59A
:1004F800DAF4DF500C6E0AC5F6F40BC5F7F4000EFB
:10050800F86E0800F5500C5C086E096AD8A0090658
:100518001200000E106E08C511F509C512F50A5033
:1005280011240C6E0B5012200D6E1CD011C5D9F47D
:1005380012C5DAF4DF50101A114A122A000E0F6E93
:10054800000E0E6E10AE02D0890E101AD89010361A
:100558000E4A0F2A0FBEF6D70F5004E1080E0E5CA4
:10056800D8A0F0D70C50115C0D501258D8A0DED787
:100578001050120074ECF6F056502E6E57502F6E35
:10058800306A316A2FC531F52EC530F52F6A2E6ACB
:100598002EC508F52FC509F530C50AF531C50BF587
:1005A80001D80AD00500FA6ED351FD6ED451FE6E03
:1005B800D551FF6EFA50120001D812000500FA6EEC
:1005C8000701D051FD6ED151FE6ED251FF6EFA5027
:1005D800010E1200516E0701FC51D8B404D0AA0EC6
:1005E8005118D8A41200AA0E5118D8A403D0000E8E
:1005F800FC6F120051AC0CD0CD0E0501BE6FF10E90
:10060800BF6F000EC16FA00EC06FF5EC08F0FF00C1
:1006180051AE1200380E0501BE6FF20EBF6F000E0C
:10062800C16FA00EC06FF5EC08F0FFD70BBE07D066
:100638000B500A1009101DE10804D8B01AD008C5DB
:100648000CF509C50DF50AC50EF50BC50FF50C1E01
:100658000D1E0E1E0F1E0C2A000E0D220E220F223A
:100668000CC508F50DC509F50EC50AF50FC50BF53E
:10067800120008C508F509C509F50AC50AF50BC52C
:100688000BF51200F829F911D8B41200F851206EB0
:10069800F951216E226A236A21C523F520C522F566
:1006A800216A206A660E2024186E000E2120196E19
:1006B800000E22201A6E000E23201B6E6C0E1C6E7C
:1006C800070E1D6E000E1F6E030E1E6E56ECFEF01A
:1006D800000E0701F96FF8691200516E5150D8B435
:1006E8000ED00601F151F211D8B407D07B0E0501E6
:1006F800BE6FF30EBF6FF5EC08F0020E1200070193
:10070800EE2914E1EF2912E1F02910E1F129D8A42A
:100718000DD00601F151F211D8B4EFD7640E0501DE
:10072800BE6FF50EBF6FF5EC08F0E7D7000E1200AC
:10073800000E106E000E116E000E126E000E136E7B
:1007480008A008D00C5010260D5011220E5012226D
:100758000F501322D8900C360D360E360F36D8901F
:100768000B320A3209320832085009100A100B10ED
:10077800D8A4E6D710C508F511C509F512C50AF5BC
:1007880013C50BF51200186812C508F513C509F54D
:100798004AEC05F0000E176E000E166E10D012C54A
:1007A80008F513C509F5180E0A6E050E0B6E000E36
:1007B8000D6E010E0C6EC5EC01F0164A172A145086
:1007C800165C15501758D8A0EAD712C508F513C5F6
:1007D80009F55DEC07F012000701FA29FB11D8B4FE
:1007E8001200FA51206EFB51216E226A236A21C53C
:1007F80023F520C522F5216A206A20C518F521C5F0
:1008080019F522C51AF523C51BF5000E1C6E0B0E33
:100818001D6E010E1F6E000E1E6E56ECFEF0000ED1
:100828000701FB6FFA691200AE0E0501BE6FE80EF4
:10083800BF6FF5EC08F0D00EBE6FF20EBF6FF5EC8F
:1008480008F0110E0501D96F3C0ED86FCB0EE82EBB
:10085800FED7D82FFCD7D92FFAD7B70E0501BE6F10
:10086800F20EBF6FF5EC08F0AE0EBE6FE80EBF6F6C
:10087800F5EC08F01200C20ED16F050ED26FBEC59E
:10088800C6F5BFC5C7F5000ECA6F000EC96F000ECA
:10089800D06F000ECF6FC60EB66F050EB76FC0C50E
:1008A800B8F5C1C5B9F5D10EBA6F050EBB6F2AEC04
:1008B80002F0C951BE25D96ECA51BF21DA6E000EA9
:1008C800DF6E1200066ED69E070139511AE1500EEE
:1008D800385DD8B016D038513625016E39513721D8
:1008E800026E000E046E500E036EC7EC06F0600E2A
:1008F8000124D96E0A0E0220DA6E06C5DFF4384BE1
:10090800392B395103E1400E385DD8B0A790D68E07
:100918001200010E146E200E0E10106E000E0F1035
:10092800116E9F0E1024126EFF0E1120136E1350BD
:1009380004E11A0E125CD8A00ED0D00E0E24106E50
:10094800FF0E0F20116E115004E10A0E105CD8A0A2
:1009580002D0000E146E14C50EF50F6A12000D6E4B
:10096800D69E0701355104E1500E345DD8A004D05D
:10097800B7A2FED7D9EC04F034513225086E3551B0
:100988003321096E000E0B6E500E0A6E85EC06F0D0
:10099800000E0824D96E090E0920DA6E0DC5DFF4A1
:1009A800344B352BA782D68E12001DD0000E32256F
:1009B800D96E090E3321DA6EDF500201C96F010EBC
:1009C80007013225086E000E3321096E000E0B6EEA
:1009D800500E0A6E85EC06F008C532F709C533F7E4
:1009E8003407D8A03507070134513511D8B412009F
:1009F800B7A21200DBD71DD0000E3225D96E090E22
:100A08003321DA6EDF500201C96F010E070132256A
:100A1800016E000E3321026E000E046E500E036E3E
:100A2800C7EC06F001C532F702C533F73407D8A082
:100A38003507070134513511D8B41200B7A2120096
:100A4800DBD7E8EC06F0000E0001D56F000ED66F7C
:100A5800000ED86F7F0ED96F7F0EDA6F7F0EDB6FB7
:100A6800010EDC6F000EDD6F000EDE6F000EDF6F13
:100A7800820ED76F8C0ED66F000ED46FAE9A9E9AE8
:100A8800010E0201056FBE84C282120008C50AF574
:100A980009C50BF520EE02F00A50D9260B50DA22D0
:100AA800DF50D8A410D0340E02011B6F350E1A6F18
:100AB80020EE03F00A50D9260B50DA22C8C4DFF41E
:100AC800C992C994C98620EE02F00A50D9260B5063
:100AD800DA22DF2A120012D008C5D9F409C5DAF4DF
:100AE800DFC40AF5010EDE26DFC40BF5000EDD2299
:100AF8000AC5D9F40BC5DAF4000EDF6E08C5D9F4BF
:100B080009C5DAF4DEC40AF5DDC40BF50AC5D9F463
:100B18000BC5DAF4200EDE18D8A41200DDD7286E33
:100B2800756C6C29001A0000001A0000001A0000F9
:100B3800001A000000000000000000000000000093
:100B4800000000000080000000800000008000001D
:100B5800008000000000000000000000000000000D
:050B68000064400000E4
:100B6E002050226E2150236E246A256A23C525F556
:100B7E0022C524F5236A226A080E2224186E000E5E
:100B8E002320196E000E24201A6E000E25201B6ED7
:100B9E00E10E1C6EE40E1D6E000E1F6E060E1E6E16
:100BAE0056ECFEF01200000E251A000E261A000E4C
:100BBE00271A800E281A21C508F522C509F523C566
:100BCE000AF524C50BF525C50CF526C50DF527C56B
:100BDE000EF528C50FF54FECBEF008C521F509C579
:100BEE0022F50AC523F50BC524F5120008C5F6F447
:100BFE0009C5F7F4000EF86E0800F5500A18D8A4CF
:100C0E0005D008C508F509C509F5120008C5F6F4A2
:100C1E0009C5F7F4084A092A000EF86E0800F550C7
:100C2E000009D8A4E3D7000E086E000E096E12005C
:100C3E00CC0E0601CC6F180ECD6FB10ECE6FFF0E1F
:100C4E00CF6F010ED06F0DECF4F00009D8B40DD0BB
:100C5E00030E0501BE6FF20EBF6FF5EC08F0FF0E2E
:100C6E000601D96FFE0ED86F1200000ED96F000E5E
:100C7E00D86F12000AC511F50BC512F508C50FF590
:100C8E0009C510F510D011C5D9F412C5DAF4DF502C
:100C9E000E6E114A122A0FC5D9F410C5DAF40EC51C
:100CAE00DFF40F4A102A0C06D8A00D060C28EBE133
:100CBE000D28D8B41200E7D708C50AF509C50BF5FB
:100CCE0002D0084A092A08C5F6F409C5F7F4000E41
:100CDE00F86E250EF76403D00800F55005D0F6C463
:100CEE00E9F4F7C4EAF4EF500009D8A4EAD70A50A1
:100CFE00085C086E0B500958096E12000A500B1052
:100D0E00D8B418D0010E0C6E04D0D8900A360B361B
:100D1E000C2A0BAEFAD70A50085C0B500958D8A013
:100D2E0004D00A50085E0B50095AD8900B320A3282
:100D3E000C2EF1D708C508F509C509F512001A0ED3
:100D4E000E24086E000E0F20096E10C50AF511C58F
:100D5E000BF5E1EC08F00CC5D9F40DC5DAF4030E71
:100D6E00DE18D8A41200140E0E24086E000E0F20EA
:100D7E00096E12C50AF513C50BF5E1EC08F0120069
:100D8E0003500410D8B418D0010E056E04D0D890BC
:100D9E0003360436052A04AEFAD70350015C04501C
:100DAE000258D8A004D00350015E0450025AD890C5
:100DBE0004320332052EF1D701C501F502C502F545
:100DCE00120004010969C7681169C8680181C680EB
:100DDE000183C682018BC68A2181CA80BE88C698CD
:100DEE00550E596FAA0E596F5991080E5D6F000E70
:100DFE005E6F000E5F6F550E596FAA0E596F5981B7
:100E0E0012000AC50CF50BC50DF508C50EF509C582
:100E1E000FF50CC5F6F40DC5F7F40C4A0D2A000EAD
:100E2E00F86E0EC5D9F40FC5DAF40E4A0F2A080073
:100E3E00F5C4DFF4DF50D8B41200EBD720EE01F08A
:100E4E000850D9260950DA22DF500A6E0A500D6E6C
:100E5E000E6A08C5D9F409C5DAF4DF500A6E0D50D2
:100E6E000B6E0A500D6E0BC50EF50DC508F50EC5B1
:100E7E0009F51200000E1A6E000E196E0BD018C571
:100E8E000BF50C6A16C50DF517C50EF5B5ECFAF097
:100E9E00194A1A2A19501424D96E1A501520DA6ECE
:100EAE00DF50186E1850D8B41200E9D708C50AF5ED
:100EBE0009C50BF520EE02F00A50D9260B50DA22A6
:100ECE00DF06DF50D8A41200000E02011B6F000EC9
:100EDE001A6F20EE03F00A50D9260B50DA22DF509B
:100EEE00C86E120008C50AF509C50BF520EE02F012
:100EFE000A50D9260B50DA22000EDF6E000E0001CA
:100F0E00916F000E926F1A0E02016D6F1B0E6E6FB7
:100F1E00C9900001918F120007D008C5D9F409C5F8
:100F2E00DAF4DE2A000EDD2208C5D9F409C5DAF49A
:100F3E00DEC40AF5DDC40BF50AC5D9F40BC5DAF427
:100F4E00200EDE18D8A41200E8D732C515F533C529
:100F5E0016F534C517F535C518F536C519F537C567
:100F6E001AF5000E1B6E20ECBBF015C532F516C53A
:100F7E0033F517C534F518C535F5120008500910AC
:100F8E00D8B40DD0000EC76EC19CC99CC19EC99E1F
:100F9E00BE82BE8AC280C692C69ACA901200C76826
:100FAE00C98CC98EC868C682C68ACA801200550E00
:100FBE00BE6FEF0EBF6FD8C5C0F5D9C5C1F5DAC586
:100FCE00C2F5DBC5C3F5DEC5C4F5DFC5C5F5DCC5A9
:100FDE00C6F5DDC5C7F5F5EC08F0A6EC0AF0120073
:100FEE001BBE05D01B5010E11A04D8B00DD01AC587
:100FFE001CF51BC51DF51C1E1D1E1C4A1D2A1CC5DD
:10100E001AF51DC51BF512001AC51AF51BC51BF5E1
:10101E001200010E0C6E200E08180910D8B40ED056
:10102E00F70E08240A6EFF0E09200B6E0B5004E11A
:10103E00050E0A5CD8A002D0000E0C6E0CC508F589
:10104E00096A12001B6E00C71CF501C71DF51CC5F1
:10105E0016F51DC517F589EC09F01E6E1B501E18EE
:10106E00D8A407D01906D8A01A0619501A10D8A459
:10107E00EED71E501200200E08100A6E000E091038
:10108E000B6E9F0E0A240C6EFF0E0B200D6E0D5074
:10109E0006E11A0E0C5CD8B002D0010E01D0000E83
:1010AE00086E096A1200B7A00ED0C7C207F5075026
:1010BE00D8B404D0075066EC04F005D0000E06013B
:1010CE00F46F010EF36FFFEC04F034513511D8A418
:1010DE001100A7921100E3C5D8F5E4C5D9F5E50EC8
:1010EE00DA6F050EDB6FD5ECF6F0E76FE751D8A49B
:1010FE001200E3C5D9F4E4C5DAF4000EDE6E000E7C
:10110E00DD6E1200D8510701465D4751800A516EBF
:10111E000501D951800A5158D8B01200560EBE6F33
:10112E00E90EBF6FD8C5C0F5D9C5C1F5F5EC08F00D
:10113E001200085009100A100B10D8B408D0000E77
:10114E00081A000E091A000E0A1A800E0B1A08C58C
:10115E0008F509C509F50AC50AF50BC50BF5120008
:10116E009F0E0C240E6EFF0E0D200F6E0F5009E118
:10117E001A0E0E5CD8B005D05F0E0C140C6E0D6AF4
:10118E0012000CC50CF50DC50DF5120014C508F5B1
:10119E0015C509F516C50AF517C50BF501D81200C8
:1011AE000500FA6ED351FD6ED451FE6ED551FF6E11
:1011BE00FA50120008C5D9F409C5DAF40AC5DFF4ED
:1011CE00084A092A0BC50AF50B6A08C5D9F409C5E0
:1011DE00DAF40AC5DFF4084A092A1200C00E050126
:1011EE00D66F050ED76F000EB66F000EB76FBEC569
:1011FE00B8F5BFC5B9F5D60EBA6F050EBB6F2AECA2
:10120E0002F012002A500701FA1904E12B50FB19C3
:10121E00D8B406D02AC524F52BC525F5EFECFBF086
:10122E00000E456F010E446F12000CD0050E096EB4
:10123E000F0E086EF10EE82EFED7082EFCD7092EE3
:10124E00FAD700F0070134513511D8B41200EED799
:10125E0008500A02F3C40CF5F4C40DF508500B0245
:10126E00F3500D2609500A02F3500D260CC508F551
:10127E000DC509F512009F0E08240A6EFF0E0920F7
:10128E000B6E0B5006E11A0E0A5CD8B002D0010E9E
:10129E0001D0000E086E096A1200BF0E08240A6EF5
:1012AE00FF0E09200B6E0B5006E11A0E0A5CD8B029
:1012BE0002D0010E01D0000E086E096A1200D00E87
:1012CE0008240A6EFF0E09200B6E0B5006E10A0E63
:1012DE000A5CD8B002D0010E01D0000E086E096A69
:1012EE0012000AC508F50BC509F501D81200050054
:1012FE00FA6E0801F851FD6EF951FE6EFA51FF6E4D
:10130E00FA501200186816C508F517C509F5180E1B
:10131E000A6E050E0B6E000E0D6E010E0C6EA8EC15
:10132E00C7F0185012000CC508F50DC509F54AECAA
:10133E0005F00CC508F50DC509F5000E0B6E010E76
:10134E000A6E56EC0AF012000CC508F50DC509F52B
:10135E00000E0B6E000E0A6E56EC0AF00CC508F568
:10136E000DC509F55DEC07F0120058ECFDF001D843
:10137E0012000500FA6E0801F551FD6EF651FE6E73
:10138E00F751FF6EFA50120001D812000500FA6EE6
:10139E000701D051FD6ED151FE6ED251FF6EFA5043
:1013AE00000E120001D812000500FA6E0701E85176
:1013BE00FD6EE951FE6EEA51FF6EFA501200F1C653
:1013CE000AF5F2C60BF508C5F1F609C5F2F60AC51F
:1013DE0008F50BC509F5120054C50AF555C50BF5F0
:1013EE0008C554F509C555F50AC508F50BC509F527
:1013FE00120056C524F557C525F505ECFBF0CBECD0
:10140E0009F0120012EC0AF00AC508F50BC509F531
:10141E00CAEC0AF0120001D04C0707014C51800AA9
:10142E007F0FD8A01200F8D7000E086EC00E096EFE
:10143E00FF0E0A6EFF0E0B6E1200000E086E000EEF
:10144E00096E210E0A6E000E0B6E1200FFFFFFFFDB
:0D145E00A1080B0070FFFF00FF00FFCF0191
:10146C00F00E07011D6F030E1E6F000E1F6F120092
:10147C00AEBA12000601F351F411D8A41200F8D739
:10148C00086E0804D8A412000001D785D795120065
:10149C000A6E1CEC09F0B7A2FED70AC5C9F21200FD
:1014AC000A500B10D8A402D0C1801200C1901200B7
:1014BC00FF00000E0601BD6F000EBC6F1200086E1F
:1014CC0008A002D0C2821200C2921200086E08A0BC
:1014DC0002D0C2841200C294120056C524F557C51E
:1014EC0025F5EFECFBF01200086E08A002D0BE88C8
:1014FC001200BE981200086E08A002D0BE84120022
:10150C00BE941200000E07013B6F0A0E3A6F1200D8
:10151C00000E0601BD6F010EBC6F1200AEBA02D0F8
:10152C00D8901200D8801200CEBA02D0D8901200F7
:10153C00D8801200CEB002D0D8901200D880120001
:10154C00FF0E0B6E0A6809EC0AF01200600E086EB2
:10155C00F60E096E12003AC708F53BC709F51200E2
:10156C00000E096E08681200086E08C5C0F412005F
:10157C00086E08C5C8F41200AE9A1200D0501200C2
:0B158C00CF501200FC511200FFD701ED
:10DF800000B4F866070021F6670700E0F5680700AF
:10DF900018F569070031F66A0701B7F6950800051C
:10DFA000F59608006AF4970800EBF398080035F737
:10DFB0009908009AF59A08002BF59B080055F49CE7
:10DFC000080088F59D0802819FE0FC407E80FC00EF
:10DFD000009F0010000000E2FF0201DAF700025C7F
:10DFE000FB000323FD00049FFE000599FE0106F6D9
:10DFF000F8000784FF000859F90009E5F9000A63F1
:10E00000F9000B1CFD000CBDFE000DB7FE010E5308
:10E01000FA000F89FF011064FC0211F2F70012BD33
:10E02000F90013A1FD0014E1FE0015DBFE0116014D
:10E03000F90017CEFF01185FFF001903FA001A6DEF
:10E04000F9001B9AFD001CFFFE001DF9FE011E5D7C
:10E05000FA001FD2FF0120F8FA02210AF802222753
:10E06000F7002326FE00241DFF002517FF01260CC4
:10E07000F90027CAFF01285CFC00293FFA022AC5E3
:10E08000F6002B1FFE002C3BFF002D35FF012E67F5
:10E09000FA002FDEFF0130EFFA023122F802326976
:10E0A000F7003342FE0034B0FA0035A7FA0136E13A
:10E0B000F60037DAFF013854FC003949FA023A5CBD
:10E0C000F7003B3BFE003C81FE003D7BFE013EEB4A
:10E0D000F8003FD6FF0040C1FC0041F2FC00423F87
:10E0E000FD004370FD0044C4FD0045F5FD00468180
:10E0F000F9004790FC0048C8FC0049F9FC004A467A
:10E10000FD004B77FD004CCBFD004DFCFD004E8B20
:10E11000F9004F97FC0050CFFC005100FD00524D1C
:10E12000FD00537EFD0054D2FD005503FE005695C0
:10E13000F900579EFC0058D6FC005907FD005A54C0
:10E14000FD005B85FD005CD9FD005D0AFE005E9F61
:10E15000F9005FA5FC0060DDFC00610EFD00625B64
:10E16000FD00638CFD0064E0FD006511FE0066A902
:10E17000F90067ACFC0068E4FC006915FD006A6208
:10E18000FD006B93FD006CE7FD006D18FE006EB3A3
:10E19000F9006FB3FC0070D1F90071DBF90072EF88
:10E1A000F90073F9F900740DFA007535FA0076ACD0
:10E1B000FF0077C7F90078BAFC0079EBFC007A38E9
:10E1C000FD007B69FD007CBDFD007DEEFD007E77DE
:10E1D000F9007F89FC008074FB00818CFB0082AC1D
:10E1E000FB0083C4FB0084ECFB008544FC0086E05C
:10E1F000F8008754FB00886CFB008984FB008AA42C
:10E20000FB008BBCFB008CE4FB008D3CFC008ED53E
:10E21000F8008F4CFB009093FE0091B1FE0092D568
:10E22000FE0093F3FE009411FF00952FFF00969ED1
:10E23000FA009775FE009864FB00997CFB009A9C9D
:10E24000FB009BB4FB009CDCFB009D34FC009ECAE1
:10E25000F8009F44FB00A0A5FE00A1C3FE00A2E7BA
:10E26000FE00A305FF00A423FF00A541FF00A6B9FF
:10E27000FA00A787FE00A8ABFE00A9C9FE00AAED20
:10E28000FE00AB0BFF00AC29FF00AD47FF00AEC2A4
:10E29000FA00AF8DFE00B0ACFE00B1CAFE00B2EED7
:10E2A000FE00B30CFF00B42AFF00B548FF00B6C360
:10E2B000FA00B78EFE00B88EFF00B993FF00BA983F
:10E2C000FF00BB9DFF00BCA2FF00BDA7FF00BE3446
:10E2D000FB00BF7FFF00C049FE00C12AFD02C22E25
:10E2E000F802C3D4FA02C419F700C594FB01C6CEE4
:10E2F000F700C7F4FB00C859FF00C9E6FF02CA4394
:10E30000F900CB000002CC9DF702CD17F901CEC277
:10E31000F700CF14FC00D031FD00D1A8FD02D2E6F9
:10E32000F701D3D3F602D4EFF600D5CCFB01D61714
:10E33000FA00D7FCFB00D8CFFE00D9EAFF02DA22B0
:10E34000F901DB4FF702DC90F700DD000001DEB6DB
:10E35000F700DF1CFC00E034FE00E12DFE02E216B7
:10E36000F800E34EF902E40BF700E54CFC01E6216E
:10E37000FA00E704FC00E8AFFD00E93CFB02EAFE1E
:10E38000F700EBDDFA02ECFDF600ED000001EE2BEC
:10E39000FA00EF24FC00F053FF00F1B6FD02F23862
:10E3A000F900F3F9FF02F483F700F5D4FB01F62C32
:10E3B000FA00F70CFC00F84DFF00F9E6FA02FA2D1E
:10E3C000F900FBFCFF02FC76F700FD000001FECB2C
:10E3D000FA00FF2CFCF0000000C3BB0000000000AE
:10E3E000000000000000000000000000000000002D
:10E3F000000000000000000000000000000000001D
:10E40000000000000000000000000000000000000C
:10E4100000000000000000000000000000000000FC
:10E4200000000000000000000000000000000000EC
:10E4300000000000000000000000000000000000DC
:10E4400000000000000000000000000000000000CC
:10E45000000000000000000000424F4F543A2065C9
:10E4600072726F7220626F6F74696E670D0A00437B
:10E47000502F4D20626F6F742D6C6F616465722038
:10E48000666F72205A38302D53696D756C61746FE8
:10E49000720D0A002196007ED30123B7C2BE00018F
:10E4A0000100210000AFD30A78D30B79D30C7DD3C0
:10E4B0000F7CD310AFD30DDB0EB7CA0000C630D32C
:10E4C000013E0DD3013E0AD3012180007EB7CAFE72
:10E4D00000D30123C3F300F376D3AC182731000037
:10E4E00000D3AB00C30E00ED73AF0031AB00F5AF4E
:10E4F00032B300C5D5E5DDE5FDE5ED7BAF00E122FA
:10E50000AD0018D53AB300219A00B72803219C002A
:10E510004E2346ED4398002AB1007DB7B4282F1151
:10E520000000060E1A77231310FA2AB10011040016
:10E530001922AB001818000000000000000000D3F2
:10E54000AB00ED73AF0031AB00F53E0118A2DD2A40
:10E55000B1003EAADD77092AAF00DD7505DD74063E
:10E560003A9E00DD770B319F00FDE1DDE1E1D1C195
:10E57000F1ED45ED4DED45C9000000000000000043
:10E58000000000000400000000000000000095FAF8
:10E59000001C1500000046F031EFAAF702DA9901DD
:10E5A000000011F6B7ECF6FF02DA99010000000056
:10E5B00000008CFA04725D010000EEEA52EE7AFF70
:10E5C0000270A301000011F603F06FFE00BC1400FE
:10E5D00000003EF500007BFC02DEB80100006FF693
:10E5E0002BEE71FE022832010100F2F40EED82FCE6
:10E5F00000AC8A01000046F041F138F50236D20144
:10E60000020042F763ED75FF005CB701000040F4C3
:10E610000000D3AD180500000000002A0400ED5BE7
:10E6200006003A0800477E12231310FA3E0018E253
:10E630003E00D3AD7618F925002400C9696F5F73D9
:10E640007461742829203D3D20494F5F5354415443
:10E650005F4E4F545F53544152544544207C7C20BC
:10E66000696F5F737461742829203D3D20494F5FB5
:10E67000535441545F53544F50504544207C7C20A8
:10E68000696F5F737461742829203D3D20494F5F95
:10E69000535441545F494E54455252555054454489
:10E6A000207C7C20696F5F737461742829203D3D54
:10E6B00020494F5F535441545F50524550494E5684
:10E6C0004F4B45207C7C20696F5F737461742829EF
:10E6D000203D3D20494F5F535441545F4D4F4E49BB
:10E6E000544F5200696F5F737461742829203D3D57
:10E6F00020494F5F535441545F4E4F545F53544130
:10E7000052544544207C7C20696F5F737461742887
:10E7100029203D3D20494F5F535441545F53544F8E
:10E7200050504544207C7C20696F5F73746174286D
:10E7300029203D3D20494F5F535441545F4D4F4E7A
:10E7400049544F52004449534B3A204F503D2530D5
:10E75000327820442F542F533D25642F2533642FC6
:10E76000253364202020202020202020202020412C
:10E770004444523D25303178253032782530327886
:10E78000202852442049474E4F524544290A0D0043
:10E790004449534B3A204F503D2530327820442F86
:10E7A000542F533D25642F2533642F2533642020B7
:10E7B00020202020202020202020414444523D259C
:10E7C0003031782530327825303278202857522061
:10E7D00049474E4F524544290A0D0025733A2045BA
:10E7E00052524F523A20492F4F202535732025335E
:10E7F000642C20253364202825303258482C2025CD
:10E800003032584829207768696C652077616974CF
:10E81000696E6720666F7220256420282530325883
:10E8200048290A0D004449534B3A204F503D2530AA
:10E83000327820442F542F533D25642F2533642FE5
:10E8400025336420782533643D25356C64204144AC
:10E8500044523D25303178253032782530327820C9
:10E860002E2E2E2053543D253032780A0D00444977
:10E87000534B3A204F503D2530327820442F542FAF
:10E88000533D25642F2533642F2533642020202019
:10E890002020202020202020414444523D2530319A
:10E8A000782530327825303278202E2E2E200A0D11
:10E8B000002F55736572732F74616B656D7572618E
:10E8C0002F776F726B73706163652F6769746875FA
:10E8D000622F53757065724D455A38302F737263CD
:10E8E0002F6D656D6F72792E630053442043617202
:10E8F000643A20726561643531323A2043524320D4
:10E900006572726F7220282530347820213D2025D1
:10E910003034782C2072657472793D2564290A0D93
:10E92000002F55736572732F74616B656D7572611D
:10E930002F776F726B73706163652F676974687589
:10E94000622F53757065724D455A38302F7372635C
:10E950002F696F2E63005741524E494E473A20743B
:10E960006F6F206D616E792062616E6B73207265CE
:10E97000717565737465642E202872657175657391
:10E9800074206973202564290A0D0074797065204C
:10E990002768656C702720746F2073656520746824
:10E9A00065206C697374206F6620617661696C61A3
:10E9B000626C6520636F6D6D616E64730A0D004952
:10E9C0006D6167652066696C652025732F44524927
:10E9D000564525632E44534B206973206173736938
:10E9E000676E656420746F206472697665202563A4
:10E9F0000A0D005741524E494E473A20756E6B6ED4
:10EA00006F776E20492F4F207772697465202564D7
:10EA10002C202564202825303258482C20253032DF
:10EA20005848290A0D006469736B5F696F63746CE1
:10EA30003A20706472763D25642C20636D643D2518
:10EA4000642C20627566663D3078256C783A2072B9
:10EA500065733D25640A0D00534420436172643A96
:10EA60002020726561643531323A20616464723D00
:10EA700025386C642C206F6666733D25642C2063FA
:10EA80006F756E743D25640A0D0053442043617216
:10EA9000643A2077726974653531323A2061646472
:10EAA000723D25386C642C206F6666733D25642C9E
:10EAB00020636F756E743D25640A0D005344204336
:10EAC0006172643A2077726974653531323A206632
:10EAD00061696C656420746F2067657420746F6B66
:10EAE000656E2C2074696D656F75740A0D005B642A
:10EAF000726976655D5B2C747261636B5D5B2C7310
:10EB00006563746F725D5B2C6C656E6774685D2005
:10EB10006F72205B64726976652C5D4C42410044E3
:10EB200049534B3A20207265616420442F542F537F
:10EB30003D25642F2533642F2533642078253364E5
:10EB40003D25356C643A204552524F520A0D005310
:10EB50004420436172643A207772697465353132BA
:10EB60003A2074696D656F75742C20726573706FCF
:10EB70006E736520697320253032780A0D00534486
:10EB800020436172643A20434D4435382C2052337F
:10EB90003D253032782025303278202530327820DB
:10EBA0002530327820253032780A0D0025733A203E
:10EBB0004552524F523A20636C6F636B20737065FD
:10EBC0006564202564206973206E6F7420737570EE
:10EBD000706F727465640A0D00534420436172645F
:10EBE0003A20434D44382C2052373D25303278208E
:10EBF0002530327820253032782025303278202593
:10EC00003032780A0D004449534B3A202072656136
:10EC10006420442F542F533D25642F2533642F2522
:10EC2000336420782533643D25356C643A204F4B9E
:10EC30000A0D006469736B5F696F63746C3A2070CE
:10EC40006472763D25642C20636D643D25643A2012
:10EC50004E6F742068616E646C65642E0A0D0064EA
:10EC600069736B5F726561643A2020706472763DEF
:10EC700025642C20736563746F723D256C642C20B1
:10EC8000636F756E743D25640A0D006469736B5F74
:10EC900077726974653A20706472763D25642C2021
:10ECA000736563746F723D256C642C20636F756EA1
:10ECB000743D25640A0D005472616E736C61746555
:10ECC000206D616368696E6520636F6465206F6E97
:10ECD0002074686520746172676574206D656D6F5E
:10ECE000727900534420436172643A2043435320B5
:10ECF00028436172642043617061636974792053B1
:10ED000074617475732920697320300A0D00446999
:10ED100073706C6179206F72206368616E67652023
:10ED200073706563696669656420646562756720F0
:10ED30007661726961626C6500534420436172645C
:10ED40003A2077726974653531323A204352432054
:10ED50006572726F72202872657472793D2564291C
:10ED60000A0D0057726974652062797465206F72AC
:10ED700020737472696E6720746F207468652074E4
:10ED80006172676574206D656D6F72790053442000
:10ED9000436172643A204361726420706F776572D8
:10EDA00020757020737461747573206269732069B3
:10EDB0007320300A0D0072656164204D425220704C
:10EDC0006172746974696F6E207461626C65206130
:10EDD0007420736563746F7220300A0D00574152BE
:10EDE0004E494E473A20756E6B6E6F776E20492FF5
:10EDF0004F207265616420256420282530325848F0
:10EE0000290A0D00534420436172643A2020726540
:10EE100061643531323A20736563746F723D256CDD
:10EE2000643A204552524F520A0D00446973706C87
:10EE30006179206461746120626C6F636B2873294F
:10EE40002066726F6D2074686520534420436172A0
:10EE50006400446973706C617920736563746F72C8
:10EE60002873292066726F6D206469736B20696D49
:10EE70006167652066696C65005344204361726474
:10EE80003A2053444843206F722053445843206330
:10EE90006172642064657465637465640A0D00259D
:10EEA000733A204552524F523A206D6F64652025C7
:10EEB00064206973206E6F7420737570706F727444
:10EEC00065640A0D00534420436172643A20696E00
:10EED000697469616C697A65202E2E2E20737563C2
:10EEE0006365656465640A0D005344204361726480
:10EEF0003A20756E65787065637465642072657319
:10EF0000706F6E736520253032780A0D00534420EF
:10EF1000436172643A2020726561643531323A206F
:10EF2000736563746F723D256C643A204F4B0A0D14
:10EF30000045786974206D6F6E69746F7220616E20
:10EF40006420636F6E74696E75652065786563759E
:10EF500074696F6E00417373657274696F6E2066B9
:10EF600061696C65643A202573202825733A202551
:10EF7000733A202564290A00534420436172643A9D
:10EF80002041434D44343120726573706F6E736558
:10EF900020697320253032780A0D005344204361E4
:10EFA00072643A2077726974653531323A20746F31
:10EFB0006B656E20697320253032780A0D0045524A
:10EFC000524F523A2062616E6B2025642069732093
:10EFD0006E6F7420617661696C61626C652E0A0DDA
:10EFE00000534420436172643A20434D4435392034
:10EFF000726573706F6E7365206973202530327887
:10F000000A0D00446973706C617920646174612039
:10F010006F6E2074686520746172676574206D6519
:10F020006D6F7279004D656D6F72792030303030C0
:10F030003030202D202530366C5848202564204B58
:10F0400042204F4B0D0A00706172746974696F6ED3
:10F050002073746172747320617420736563746FBC
:10F060007220256C640A0D005573652052413320CF
:10F0700065787465726E616C20636C6F636B20667B
:10F080006F72205A38300A0D00557365204E434F79
:10F0900020252E3266204D487A20666F72205A381D
:10F0A0003020636C6F636B0A0D00665F7772697462
:10F0B0006528293A204552524F52207265733D25EA
:10F0C000642C206E3D25640A0D00665F72656164E4
:10F0D00028293A204552524F52207265733D2564CB
:10F0E0002C206E3D25640A0D00696F5F696E766F96
:10F0F0006B655F7461726765745F6370755F74657B
:10F100006172646F776E006661696C656420746F0C
:10F1100020777269746520736563746F7220256C43
:10F12000640A0D00696F5F696E766F6B655F74616D
:10F13000726765745F6370755F7072657061726528
:10F1400000446973706C6179207374617475732005
:10F150006F6620746865207461726765740066610B
:10F16000696C656420746F207265616420736563E7
:10F17000746F7220256C640A0D000A0D53442043FD
:10F180006172643A20696E697469616C697A65209C
:10F190002E2E2E0A0D00436C65617220627265612D
:10F1A0006B706F696E74206174202530346C580A5E
:10F1B0000D00534420436172643A2041434D44346E
:10F1C000312C2052313D253032780A0D000A0D5283
:10F1D0006573657420627920494F20706F727420C6
:10F1E00025303258480A0D004661696C6564207408
:10F1F0006F206F70656E20534420436172642E2E21
:10F200000A0D004661696C656420746F206D6F752E
:10F210006E7420534420436172642E0A0D006661AF
:10F22000696C656420746F20726561642073656326
:10F23000746F7220300A0D000A0D48414C54206250
:10F240007920494F20706F72742025303258480A57
:10F250000D0053657420627265616B706F696E7426
:10F26000206174202530346C580A0D006469736B7A
:10F270005F696E697469616C697A65282564292EF5
:10F280002E2E0A0D00534420436172643A206E6FA3
:10F2900074207375706F70727465640A0D00534446
:10F2A00020436172643A20434D44302C2052313D5A
:10F2B000253032780A0D0020202020202020202018
:10F2C00020202020202020202020202020200D0071
:10F2D0007761697420666F722070726F6772616DFA
:10F2E0006D6572202E2E2E0D00496E76616C69645C
:10F2F00020617267756D656E743A20272573270A41
:10F300000D005354415455533A202563256325631A
:10F310002563256325632563256300257325353320
:10F320007320434845434B53554D3A20253032789E
:10F330000A0D00556E6B6E6F776E20766172696193
:10F34000626C6520272573270A0D00427265616B88
:10F35000706F696E74206973206E6F7420736574AA
:10F360000A0D004D656D6F727920303030303030CD
:10F37000202D202530366C58480D0070687973694F
:10F3800063616C2064726976657220213D20300AC9
:10F390000D00416D626967756F757320636F6D6DE8
:10F3A000616E642025730A0D00665F6C7365656B82
:10F3B00028293A204552524F522025640A0D004216
:10F3C0007265616B706F696E7420697320253034CB
:10F3D0006C580A0D00556E6B6E6F776E20636F6D03
:10F3E0006D616E643A2025730A0D0064656275676D
:10F3F0005F6661746469736B5F766572626F736573
:10F40000006E6F204641543332207061727469740B
:10F41000696F6E0A0D00665F73796E6328293A2062
:10F420004552524F522025640A0D00696F5F696E84
:10F43000766F6B655F7461726765745F637075008A
:10F44000446973706C61792074686973206D6573A9
:10F45000736167650064656275675F736463617299
:10F46000645F766572626F73650064656275675F7D
:10F470006661746469736B5F777269746500736940
:10F480007A656F6628706172616D7329203D3D2039
:10F4900035004D3A204D6F6E69746F722070726F37
:10F4A0006D70740A0D006E6F204D425220736967B3
:10F4B0006E61747572650A0D005344204361726475
:10F4C0003A2074696D656F75740A0D00696E766116
:10F4D0006C69642064726976652025640A0D007782
:10F4E00072697465205B616464725D2C76616C0A7C
:10F4F0000D005B7661726961626C655D5B3D766192
:10F500006C75655D0064656275675F6661746469EA
:10F51000736B5F726561640064656275675F6469DF
:10F52000736B5F766572626F7365006465627567A1
:10F530005F7364636172645F7772697465005265BA
:10F540007374617274207468652073797374656D67
:10F55000005F5F6D656D6370795F6F6E5F74617280
:10F56000676574006E6F2076616C696420766F6CDD
:10F57000756D650A0D00534420436172643A207230
:10F58000656164792E0A0D007A38305F636C6F63B1
:10F590006B5F4E434F31494E430064656275675F50
:10F5A0007364636172645F726561640025732069CE
:10F5B000732073656C65637465642E0A0D00535087
:10F5C000495F53445F636F6E666967757265004D8E
:10F5D0004D553A2062616E6B202530325820200054
:10F5E00064656275675F6469736B5F777269746580
:10F5F0000025733D256C642028256C5868290A0D68
:10F6000000427265616B20617420253034580A0D08
:10F61000005B616464725D5B2C6C656E6774685D31
:10F620000064656275675F6469736B5F72656164CE
:10F630000064656275675F6469736B5F6D61736BAE
:10F64000004E6F20626F6F74206469736B2E0A0D19
:10F65000002A2B2C3A3B3C3D3E5B5D7C223F7F00E9
:10F6600053757065724D455A38302D43504D005BCF
:10F670004C42415D5B2C6C656E6774685D00257360
:10F680002F445249564525632E44534B004E6F205C
:10F69000534420436172643F0A0D00696F5F7761D4
:10F6A00069745F77726974650025733D256420284D
:10F6B000255868290A0D0064656275675F66617484
:10F6C0006469736B004C4420484C2C282530345816
:10F6D0004829004F555420282530325848292C41BC
:10F6E000004C442028484C292C25303258480043EF
:10F6F000414C4C204E432C25303458480043414C5B
:10F700004C2050452C25303458480043414C4C2067
:10F71000504F2C25303458480043414C4C204E5A11
:10F720002C2530345848004C442028253034584883
:10F73000292C484C0064656275675F73646361726D
:10F7400064005B616464725D2C76616C7565004970
:10F750004E20412C28253032584829004C44204165
:10F760002C28253034584829004C44202825303492
:10F770005848292C410043414C4C204D2C25303415
:10F7800058480043414C4C20502C253034584800F8
:10F7900043414C4C20582C25303458480043414CB0
:10F7A0004C205A2C253034584800646973617373B7
:10F7B000656D626C650053424320412C2530325800
:10F7C000480041444320412C2530325848004144F0
:10F7D0004420412C2530325848004C442042432CD0
:10F7E0002530345848004A50204E432C2530345898
:10F7F00048004C442044452C2530345848004A5099
:10F800002050452C2530345848004C4420484C2C7E
:10F810002530345848004A5020504F2C2530345859
:10F8200048004C442053502C2530345848004A504E
:10F83000204E5A2C253034584800426F6172643A89
:10F840002025730A0D0070726F6772616D3A0A0DA0
:10F850000049593A20253034580A0D000A0D20205D
:10F86000202025730A0D0042433A202530345820C9
:10F87000200050433A202530345820200044453A97
:10F88000202530345820200041463A202530345875
:10F89000202000484C3A2025303458202000535076
:10F8A0003A202530345820200049583A2025303459
:10F8B0005820200064656275675F6469736B006C33
:10F8C000656E203C3D203235360053424320412CAA
:10F8D00028484C290041444320412C28484C290009
:10F8E00041444420412C28484C29004C4420412CC0
:10F8F0002530325848004C4420422C25303258489C
:10F90000004C4420442C2530325848004C442048B8
:10F910002C25303258480043414C4C202530345877
:10F9200048004A5020432C2530345848004A502083
:10F930004D2C2530345848004A5020502C25303466
:10F940005848004A50205A2C253034584800455811
:10F9500020285350292C484C0045582041462C4122
:10F960004627004C4420412C28424329004C442087
:10F97000412C28444529004C4420412C28484C293E
:10F98000004C4420422C28484C29004C4420432C55
:10F9900028484C29004C4420442C28484C29004C31
:10F9A0004420452C28484C29004C4420482C284809
:10F9B0004C29004C44204C2C28484C29004C442015
:10F9C000284445292C41004C442028484C292C41EE
:10F9D000004C442028484C292C42004C4420284804
:10F9E0004C292C430041444420484C2C4243004CB9
:10F9F000442028484C292C44004C442028484C29B9
:10FA00002C450041444420484C2C4445004C4420A3
:10FA100028484C292C48005355422025303258485C
:10FA200000414E4420253032584800584F5220257E
:10FA300030325848004C442028484C292C4C004176
:10FA4000444420484C2C484C0041444420484C2C11
:10FA50005350004C4420432C25303258004C442055
:10FA6000452C25303258004C44204C2C253032583F
:10FA70000025732530366C783A00464154333220E5
:10FA8000202000737461636B3A0A0D006469736B24
:10FA90007265616400636F6E74696E7565005355BD
:10FAA000422028484C29004445432028484C29003E
:10FAB000494E432028484C2900414E442028484CB8
:10FAC0002900584F522028484C2900435020253007
:10FAD000325848004A5020253034584800455820B4
:10FAE00044452C484C004C442053502C484C004A70
:10FAF00052204E432C2564004A52204E5A2C256435
:10FB00000025643A2025730A0D0053656C65637403
:10FB10003A200043504D4449534B53002573253040
:10FB200034783A004572726F720A0D000D25732504
:10FB3000730A0D0043502028484C29004A502028C1
:10FB4000484C290053424320412C4100414443206A
:10FB5000412C410041444420412C41004C4420426E
:10FB6000432C410053424320412C42004144432056
:10FB7000412C420041444420412C42005342432046
:10FB8000412C430041444320412C43004144442044
:10FB9000412C4300505553482042430053424320D8
:10FBA000412C440041444320412C44004144442022
:10FBB000412C440053424320412C45004144432002
:10FBC000412C450041444420412C450050555348A8
:10FBD000204445005055534820414600534243209D
:10FBE000412C480041444320412C480041444420DA
:10FBF000412C480052535420303048005253542076
:10FC0000313048005253542032304800525354206F
:10FC10003330480052535420303848005253542057
:10FC2000313848005253542032384800525354203F
:10FC30003338480053424320412C4C004144432078
:10FC4000412C4C0041444420412C4C005055534819
:10FC500020484C004A5220432C2564004A52205A26
:10FC60002C256400444A4E5A2C25640043504D44D0
:10FC700049537E003C25643E0A0D00736472656141
:10FC80006400737461747573004C4420412C41000E
:10FC90004C4420422C41004C4420432C41004C4415
:10FCA00020442C41004C4420452C41004C44204829
:10FCB0002C41004C44204C2C41004C4420412C420F
:10FCC000004C4420422C42004C4420432C42004C27
:10FCD0004420442C42004C4420452C42004C4420FB
:10FCE000482C42004C44204C2C42004C4420412CD7
:10FCF00043004C4420422C43004C4420432C4300FE
:10FD00004C4420442C43004C4420452C43004C449C
:10FD100020482C43004C44204C2C430044454320B5
:10FD2000424300494E4320424300504F502042433B
:10FD300000524554204E43004C4420412C44004C7A
:10FD40004420422C44004C4420432C44004C44208A
:10FD5000442C44004C4420452C44004C4420482C66
:10FD600044004C44204C2C44004C4420412C450081
:10FD70004C4420422C45004C4420432C45004C442C
:10FD800020442C45004C4420452C45004C44204840
:10FD90002C45004C44204C2C450044454320444510
:10FDA00000494E4320444500504F502044450052E6
:10FDB000455420504500504F50204146004C4420AF
:10FDC000412C48004C4420422C48004C4420432CF9
:10FDD00048004C4420442C48004C4420452C48000A
:10FDE0004C4420482C48004C44204C2C48004C44A7
:10FDF00020412C4C004C4420422C4C004C442043CD
:10FE00002C4C004C4420442C4C004C4420452C4CA1
:10FE1000004C4420482C4C004C44204C2C4C0044BA
:10FE2000454320484C00494E4320484C00504F5019
:10FE300020484C0052455420504F00444543205325
:10FE40005000494E4320535000524554204E5A0012
:10FE50002530366C582000202530327800666174D9
:10FE60003A20006275663A20000D2573200D00725D
:10FE70006573657400535542204100444543204159
:10FE800000494E43204100414E44204100584F520A
:10FE9000204100535542204200444543204200493E
:10FEA0004E43204200414E44204200584F522042CF
:10FEB00000535542204300444543204300494E43EC
:10FEC000204300414E44204300584F5220430052EB
:10FED00045542043005355422044004445432044A8
:10FEE00000494E43204400414E44204400584F52A4
:10FEF00020440053554220450044454320450049D5
:10FF00004E43204500414E44204500584F52204565
:10FF100000535542204800444543204800494E4381
:10FF2000204800414E44204800584F52204800537A
:10FF30005542204C00444543204C00494E43204C40
:10FF400000414E44204C00584F52204C0052455422
:10FF5000204D00524554205000524554205A004A2A
:10FF6000522025640025303258200053443A2000A6
:10FF70004D4F4E3E0068656C700064756D700043B7
:10FF800050204100524C43410052524341004350E3
:10FF9000204200435020430043502044004350205F
:10FFA000450043502048004350204C0048414C54E9
:10FFB00000303A2F2F00696E66006E616E006C6C27
:10FFC00073000D2573002025730044414100524CFD
:10FFD00041005252410043434600534346004350C0
:10FFE0004C004E4F500052455400455858003F3F7A
:10FFF0003F004D0A0D006469004449004549000076
:020000040001F9
:1000000095C5D9F496C5DAF4DEC4F6F4DDC4F7F488
:10001000000EF86E0800F550250AD8A45EEF86F0B1
:1000200095C5D9F496C5DAF4DE2A000EDD22000E5D
:100030000601F06F000EEF6FEFC658F55268536877
:10004000000E0501A86F000E14D0588095C5D9F494
:1000500096C5DAF4DE2A000EDD2230D05882F6D7BB
:100060005884F4D75886F2D75888F0D7000EA86F76
:10007000010EA76F23D095C5D9F496C5DAF4DEC476
:10008000F6F4DDC4F7F4000EF86E0800F550996F31
:100090009A6B9A51000AD8A4E9D79951200AD8B48A
:1000A000E1D7030AD8B4E0D7080AD8B4D9D7060AEA
:1000B000D8B4CBD71D0AD8B4D1D7D8D7A751A81157
:1000C000D8B4D9D758B0589295C5D9F496C5DAF4B2
:1000D000DEC4F6F4DDC4F7F4000EF86E0800F55047
:1000E0002A0AD8A424D095C5D9F496C5DAF4DE2A14
:1000F000000EDD2297C5D9F498C5DAF4DFC499F56E
:10010000020EDE26DFC49AF5000EDD2299C5D9F471
:100110009AC5DAF4DEC4EFF6DDC4F0F60601F0AFFE
:1001200036D05880EF6DF01FD8B0F02B30D095C589
:10013000D9F496C5DAF4DEC40EF5DDC40FF5C7ECCC
:10014000EDF00EC5EFF60FC5F0F607D095C5D9F462
:1001500096C5DAF4DE2A000EDD2295C5D9F496C5DF
:10016000DAF4DEC4F6F4DDC4F7F4000EF86E08002D
:10017000F5C499F5D00E050199259A6F9B6BFF0E7A
:100180009B239B5104E10A0E9A5DD8A0DFD795C549
:10019000D9F496C5DAF4DEC4F6F4DDC4F7F4000E43
:1001A000F86E0800F5502E0AD8A466D0000E536EE3
:1001B000000E526E95C5D9F496C5DAF4DE2A000E0B
:1001C000DD2295C5D9F496C5DAF4DEC4F6F4DDC4B3
:1001D000F7F4000EF86E0800F5502A0AD8A41CD0D7
:1001E00095C5D9F496C5DAF4DE2A000EDD2297C54E
:1001F000D9F498C5DAF4DFC499F5020EDE26DFC41F
:100200009AF5000EDD2299C5D9F49AC5DAF4DEC458
:1002100052F5DDC453F530D095C5D9F496C5DAF45E
:10022000DEC40EF5DDC40FF5C7ECEDF00EC552F5DA
:100230000FC553F507D095C5D9F496C5DAF4DE2A73
:10024000000EDD2295C5D9F496C5DAF4DEC4F6F4C5
:10025000DDC4F7F4000EF86E0800F5C499F5D00E71
:10026000050199259A6F9B6BFF0E9B239B5104E11F
:100270000A0E9A5DD8A0DFD795C5D9F496C5DAF4F1
:10028000DEC4F6F4DDC4F7F4000EF86E0800F55095
:10029000630AD8A427D095C5D9F496C5DAF4DE2A26
:1002A000000EDD2297C5D9F498C5DAF4DFC499F5BC
:1002B000020EDE26DFC49AF5000EDD2299C5D9F4C0
:1002C0009AC5DAF4DF500501B36F93C514F594C5F0
:1002D00015F5B3C516F554ECFBF014C593F515C52B
:1002E00094F5120095C5D9F496C5DAF4DEC4B4F5D8
:1002F000DDC4B5F5B4C5F6F4B5C5F7F4000EF86E77
:100300000800F5C4B3F517D0B44BB52BB4C5F6F45B
:10031000B5C5F7F4000EF86E0800F550680AD8A4C9
:1003200035D0480EB36FB44BB52B30D0690E01D029
:10033000000EB36F2BD00501B351996F9A6B9A5190
:10034000000AD8A4F5D79951580AD8B4EFD73C0A77
:10035000D8B4ECD70C0AD8B4D7D7010AD8B4E6D7AA
:10036000050AD8B4E0D7020AD8B4E0D7010AD8B455
:10037000DDD71B0AD8B4D7D7010AD8B4D7D70D0A0E
:10038000D8B4D4D7020AD8B4CED7D2D7B4C5F6F4ED
:10039000B5C5F7F4000EF86E0800F550640AD8B43D
:1003A0009AD0B4C5F6F4B5C5F7F4000EF86E08009F
:1003B000F550690AD8B48FD0D1D097C5D9F498C573
:1003C000DAF4DFC499F5020EDE26DFC49AF5000EDA
:1003D000DD2299C5D9F49AC5DAF4DF50AB6F000E6F
:1003E000ABBFFF0EAC6F51D097C5D9F498C5DAF406
:1003F000DFC499F5040EDE26DFC49AF5000EDD2277
:1004000099C5D9F49AC5DAF4DEC49BF5DEC49CF52F
:10041000DEC49DF5DEC49EF59BC59FF59CC5A0F589
:100420009DC5A1F59EC5A2F5A36BA2BFA369A3C5F7
:10043000A4F5A3C5A5F5A3C5A6F59FC5ABF5A0C5B5
:10044000ACF5A1C5ADF5A2C5AEF5A3C5AFF5A4C584
:10045000B0F5A5C5B1F5A6C5B2F557D097C5D9F485
:1004600098C5DAF4DFC499F5020EDE26DFC49AF5EA
:10047000000EDD2299C5D9F49AC5DAF4DEC4ABF5D5
:10048000DDC4ACF5000EACBFFF0EAD6FAE6FAF6F4D
:10049000B06FB16FB26F39D097C5D9F498C5DAF49F
:1004A000DFC499F5020EDE26DFC49AF5000EDD22C8
:1004B00099C5D9F49AC5DAF4DEC49BF5DDC49CF580
:1004C0009BC5ABF59CC5ACF5AD6BAE6BAF6BB06BC4
:1004D000B16BB26B1AD0B351996F9A6B9A51000AF3
:1004E000D8A413D09951480AD8B467D7200AD8B4F1
:1004F000B5D7010AD8B4B2D7050AD8B475D7180A47
:10050000D8B4ACD70E0AD8B4C7D7010EB425996FAA
:10051000000EB5219A6F95C5D9F496C5DAF499C540
:10052000DEF49AC5DDF493C526F594C527F5ABC571
:1005300028F5ACC529F5ADC52AF5AEC52BF5AFC577
:100540002CF5B0C52DF5B1C52EF5B2C52FF584EC4F
:10055000C6F026C593F527C594F51200B4C5F6F488
:10056000B5C5F7F4000EF86E0800F550780AD8B457
:1005700096D0B4C5F6F4B5C5F7F4000EF86E0800D1
:10058000F550580AD8B48BD0B4C5F6F4B5C5F7F415
:10059000000EF86E0800F5506F0AD8B480D0B4C5CC
:1005A000F6F4B5C5F7F4000EF86E0800F550750ABC
:1005B000D8B475D012D197C5D9F498C5DAF4DFC490
:1005C00099F5020EDE26DFC49AF5000EDD2299C5EC
:1005D000D9F49AC5DAF4DF509B6F9B51AB6FAC6BCB
:1005E00057D097C5D9F498C5DAF4DFC499F5040E4D
:1005F000DE26DFC49AF5000EDD2299C5D9F49AC52E
:10060000DAF4DEC49BF5DEC49CF5DEC49DF5DEC4E1
:100610009EF59B51AB6F9C51AC6F9D51AD6F9E5140
:10062000AE6F38D097C5D9F498C5DAF4DFC499F520
:10063000020EDE26DFC49AF5000EDD2299C5D9F43C
:100640009AC5DAF4DEC4ABF5DDC4ACF5000EACBF80
:10065000FF0EAD6FAE6FAF6FB06FB16FB26F39D0CD
:1006600097C5D9F498C5DAF4DFC499F5020EDE26F1
:10067000DFC49AF5000EDD2299C5D9F49AC5DAF4E3
:10068000DEC49BF5DDC49CF59BC5ABF59CC5ACF504
:10069000AD6BAE6BAF6BB06BB16BB26B1AD0B351CD
:1006A000996F9A6B9A51000AD8A413D09951480AAD
:1006B000D8B481D7200AD8B4D3D7010AD8B4D0D7B8
:1006C000050AD8B48ED7180AD8B4ACD70E0AD8B455
:1006D000C7D7010EB425996F000EB5219A6F95C545
:1006E000D9F496C5DAF499C5DEF49AC5DDF45AD08A
:1006F00093C526F594C527F5ABC528F5ACC529F5F6
:10070000ADC52AF5AEC52BF5AFC52CF5B0C52DF599
:10071000B1C52EF5B2C52FF5E6ECDDF026C593F593
:1007200027C594F5120093C526F594C527F5ABC5EA
:1007300028F5ACC529F5ADC52AF5AEC52BF5AFC575
:100740002CF5B0C52DF5B1C52EF5B2C52FF518ECB9
:10075000D6F026C593F527C594F5120093C526F566
:1007600094C527F5ABC528F5ACC529F5ADC52AF567
:10077000AEC52BF5AFC52CF5B0C52DF5B1C52EF521
:10078000B2C52FF5B4C5F6F4B5C5F7F4000EF86E92
:100790000800F5C430F5EEECCDF026C593F527C57D
:1007A00094F51200B4C5F6F4B5C5F7F4000EF86E72
:1007B0000800F550996F9A6B9A51000AD8A40DD091
:1007C0009951580AD8B4CAD7370AD8B491D71A0A57
:1007D000D8B4A9D70D0AD8B4C1D7B4C5F6F4B5C5F5
:1007E000F7F4000EF86E0800F5506E0AD8B408D180
:1007F00035D197C5D9F498C5DAF4DFC499F5020E5E
:10080000DE26DFC49AF5000EDD2299C5D9F49AC51B
:10081000DAF4DEC49BF5DDC49CF59BC5F6F49CC5FB
:10082000F7F4000EF86E250EF76407D022C7F5F432
:100830000D0023C7F5F40C0001D0D9D0FBD097C52B
:10084000D9F498C5DAF4DFC499F5020EDE26DFC4C8
:100850009AF5000EDD2299C5D9F49AC5DAF4DEC402
:100860009BF5DDC49CF59BC5F6F49CC5F7F4000E22
:10087000F86E250EF76407D022C7F5F40D0023C7E4
:10088000F5F40C0001D0B3D0D5D097C5D9F498C5F4
:10089000DAF4DFC499F5020EDE26DFC49AF5000E05
:1008A000DD2299C5D9F49AC5DAF4DEC49BF5DDC41E
:1008B0009CF59BC5F6F49CC5F7F4000EF86E250E6A
:1008C000F76404D022C7F5F40C0006D0F6C4E9F4AE
:1008D000F7C4EAF422C7EFF4ADD022C799F523C7D5
:1008E0009AF5000E9ABFFF0E9B6F9C6F97C5D9F4C7
:1008F00098C5DAF4DFC49DF5020EDE26DFC49EF54E
:10090000000EDD229DC5D9F49EC5DAF4DEC49FF544
:10091000DDC4A0F59FC5F6F4A0C5F7F4000EF86E8F
:10092000250EF7640DD099C5F5F40D009AC5F5F4C0
:100930000D009BC5F5F40D009CC5F5F40C000CD022
:10094000F6C4E9F4F7C4EAF499C5EEF49AC5EEF4F6
:100950009BC5EEF49CC5EFF46DD097C5D9F498C54E
:10096000DAF4DFC499F5020EDE26DFC49AF5000E34
:10097000DD2299C5D9F49AC5DAF4DEC49BF5DDC44D
:100980009CF59BC5F6F49CC5F7F4000EF86E250E99
:10099000F76407D022C7F5F40D0023C7F5F40C0067
:1009A00001D025D047D097C5D9F498C5DAF4DFC473
:1009B00099F5020EDE26DFC49AF5000EDD2299C5F8
:1009C000D9F49AC5DAF4DEC49BF5DDC49CF59BC569
:1009D000F6F49CC5F7F4000EF86E250EF76407D008
:1009E00022C7F5F40D0023C7F5F40C0008D0F6C4B7
:1009F000E9F4F7C4EAF422C7EEF423C7EFF41AD0FF
:100A0000B351996F9A6B9A51000AD8A413D0995197
:100A1000480AD8B43AD7200AD8B411D7010AD8B4B2
:100A2000E8D6050AD8B459D7180AD8B496D70E0A0A
:100A3000D8B4B9D7010E0501B425996F000EB521C0
:100A40009A6F95C5D9F496C5DAF499C5DEF49AC5BE
:100A5000DDF4000E946F000E936F120095C5D9F46B
:100A600096C5DAF4DEC4F6F4DDC4F7F4000EF86ED1
:100A70000800F550730AD8B416D095C5D9F496C5B8
:100A8000DAF4DEC408F5DDC409F5BE0E0A6EFF0E09
:100A90000B6E000E0D6E030E0C6EF1ECF0F00850B4
:100AA0000910D8A440D095C5D9F496C5DAF4DEC4AF
:100AB000F6F4DDC4F7F4000EF86E0800F550730A82
:100AC000D8B405D0000E0501AA6F030E04D0000EA5
:100AD0000501AA6F010EA96F95C5D9F496C5DAF480
:100AE000A951DE26AA51DD2293C514F594C515F54A
:100AF00097C5D9F498C5DAF4DFC499F5020EDE265D
:100B0000DFC49AF5000EDD2299C5D9F49AC5DAF44E
:100B1000DEC416F5DDC417F5DBECE7F014C593F57C
:100B200015C594F5120095C5D9F496C5DAF4DEC45E
:100B3000B4F5DDC4B5F5B4C5F6F4B5C5F7F4000EEB
:100B4000F86E0800F5C4B3F508D0B44BB52B18D037
:100B50006C0E01D0000EB36F13D00501B351996F25
:100B60009A6B9A51000AD8A4F5D799514C0AD8B477
:100B7000ECD72A0AD8B4ECD70A0AD8B4E6D7EAD711
:100B8000B4C5F6F4B5C5F7F4000EF86E0800F550DC
:100B9000660AD8B41AD064D097C5D9F498C5DAF4E7
:100BA000DFC499F5040EDE26DFC49AF5000EDD22BF
:100BB00099C5D9F49AC5DAF4DEC4ABF5DEC4ACF558
:100BC000DEC4ADF5DEC4AEF50ED0B351996F9A6BAD
:100BD0009A51000AD8A407D099514C0AD8B4DCD74E
:100BE000200AD8B4D9D7010EB425996F000EB521CB
:100BF0009A6F95C5D9F496C5DAF499C5DEF49AC50D
:100C0000DDF41CD093C560F594C561F5ABC562F504
:100C1000ACC563F5ADC564F5AEC565F5B4C5F6F410
:100C2000B5C5F7F4000EF86E0800F5C466F5A1EC42
:100C30008CF060C593F561C594F51200B4C5F6F467
:100C4000B5C5F7F4000EF86E0800F550996F9A6B71
:100C50009A51000AD8A404D09951660AD8B4D2D7C0
:100C600095C5D9F496C5DAF4DEC4F6F4DDC4F7F41C
:100C7000000EF86E0800F550250AD8A417D095C5C7
:100C8000D9F496C5DAF4DE2A000EDD22000E0C6ED1
:100C9000250E0B6E93C50DF594C50EF5B5ECFAF067
:100CA000000E0501946F010E936F120095C5D9F4E3
:100CB00096C5DAF4DE2A000EDD22CBD695C5D9F42E
:100CC00096C5DAF4DEC4F6F4DDC4F7F4000EF86E6F
:100CD0000800F5500B6E0C6A93C50DF594C50EF522
:100CE000B5ECFAF095C5D9F496C5DAF4DE2A000E13
:100CF000DD22D6D7ADECF5F001D80BD00500FA6EA9
:100D00000701CD51FD6ECE51FE6ECF51FF6EFA50F0
:100D10001200D8A01200000E0901F06F000EEF6F54
:100D200001D80BD00500FA6E0701CA51FD6ECB51F8
:100D3000FE6ECC51FF6EFA5012000901F46F01D81B
:100D40000BD00500FA6E0801F251FD6EF351FE6EF4
:100D5000F451FF6EFA5012000901F76F01D80BD061
:100D60000500FA6E0701C751FD6EC851FE6EC951EC
:100D7000FF6EFA501200D8A006D0000E07013B6F9C
:100D8000280E3A6F63D2000E07013B6F1E0E3A6FBA
:100D900001D8CDD00500FA6EE251FD6EE351FE6E32
:100DA000E451FF6EFA50000E12000701385139115C
:100DB000D8B405D001D8D5D00500FA6EAFD001D88F
:100DC000D0D00500FA6EC451FD6EC551FE6EC651FD
:100DD000FF6EFA50000E12001CEC09F0BAEC00F0A5
:100DE0000901EA6F01D8BDD00500FA6E0701C451B0
:100DF000FD6EC551FE6EC651FF6EFA500901EA51F3
:100E0000120007012E512F11D8B427D0620E2E5D8B
:100E10000601D46F090E07012F590601D56FD5BF02
:100E200006D0D5511AE1800ED45DD8B016D001D8C5
:100E300010D00500FA6E0701C451FD6EC551FE6E5B
:100E4000C651FF6EFA502EC7D9F42FC7DAF4DF501F
:100E5000120007012E4B2F2B84D007016651D8A416
:100E600009D06751D8A406D06851D8A403D06951DD
:100E7000D8B477D0450E0501BE6FE70EBF6FF7C639
:100E8000C0F5C16BF9C6C2F5C36BF8C6C4F5C56B36
:100E900030C7C6F531C7C7F556C5C8F557C5C9F53A
:100EA000F5C6CAF5CB6BF6C6CCF5CD6BF5EC08F004
:100EB00058D001D856D00500FA6E0701C451FD6E16
:100EC000C551FE6EC651FF6EFA500601FD5112006B
:100ED00001D847D00500FA6E0701C451FD6EC55117
:100EE000FE6EC651FF6EFA50C8EC0AF01200DD0E1D
:100EF0000501BE6FED0EBF6FF4C9C0F5C16BF4C93B
:100F0000C2F5C36BF5EC08F0000E0601F46F010E9C
:100F1000F36F01D826D00500FA6E0701C451FD6EAB
:100F2000C551FE6EC651FF6EFA50FF0E1200090148
:100F3000F4510601D46FD56BD551000AD8A4D7D788
:100F4000D451000AD8B431D7010AD8B445D7090A18
:100F5000D8B457D7060AD8B4ACD7AE0AD8B4B8D7E5
:100F6000C6D70601F351F411D8A4CBEC09F001D88F
:100F70000CD00500FA6E0601FA51FD6EFB51FE6EB3
:100F8000FC51FF6EFA50000E120001D80BD0050084
:100F9000FA6E0701C151FD6EC251FE6EC351FF6E64
:100FA000FA50120001D80CD00500FA6E0701BE51AC
:100FB000FD6EBF51FE6EC051FF6EFA50010E120061
:100FC00001D80BD00500FA6E0701BB51FD6EBC5174
:100FD000FE6EBD51FF6EFA501200D8A0F1D701D8B5
:100FE0000CD00500FA6E0701E251FD6EE351FE6E72
:100FF000E451FF6EFA50FF0E12000601F351F41196
:10100000D8A4A3D18DEF8CF00901F751B3EC04F013
:101010002A4B2B2B53D107012E512F11D8B42ED090
:10102000620E2E5D0601D46F090E07012F590601CD
:10103000D56FD5BF06D0D55121E1800ED45DD8B093
:101040001DD02EC7D9F42FC7DAF4F7C9DFF4070192
:101050002E4B2F2B620E2E5D0601D46F090E070159
:101060002F590601D56F800ED419D511D8A426D1D9
:10107000000E0901F06F010EEF6F20D107016651DC
:10108000D8A409D06751D8A406D06851D8A403D0F9
:101090006951D8B413D1900E0501BE6FE70EBF6F32
:1010A000F7C6C0F5C16BF9C6C2F5C36BF8C6C4F587
:1010B000C56B30C7C6F531C7C7F556C5C8F557C5A6
:1010C000C9F5F5C6CAF5CB6BF6C6CCF5CD6BF5EC1C
:1010D00008F0F4D0F7C9F9F6F1D0F7C9F8F6EED078
:1010E000000E070130150601D46FFF0E0701311500
:1010F0000601D56F0901F7510601D4110701306FC0
:101100000601D55116D00901F7510601D56FD46BF0
:10111000FF0E070130150601D66F000E07013115CD
:101120000601D76FD451D6110701306F0601D55192
:10113000D7110701316FC2D0F7C9F7F6030EF719BF
:10114000D8A406D0620E07012E6F090E2F6F05D0AE
:10115000000E0901F06F010EEF6F07016751D8B45F
:1011600008D00601F751D8B410D0020EF719D8B440
:101170000CD007016851D8B4A1D00601F705D8B446
:1011800004D0030EF719D8A499D007016951D8B437
:1011900095D0F9C6D4F6010E0601D56F000ED66FB4
:1011A000D42B03D0D890D537D637D42FFBD707010F
:1011B0006A510601D51707016B510601D617D551A3
:1011C000D611D8A47BD06E0E0501BE6FE80EBF6F9E
:1011D000F7C6C0F5C16BF9C6C2F5C36BF8C6C4F556
:1011E000C56B30C7C6F531C7C7F556C5C8F557C575
:1011F000C9F5F5C6CAF5CB6BF6C6CCF5CD6BF5ECEB
:1012000008F05CD0F7C9F6F659D0F7C9F5F656D014
:101210000901F751EEEC02F051D0F30E0501BE6F5B
:10122000E90EBF6FF4C9C0F5C16BF7C9C2F5C36B56
:10123000F4C9C4F5C56BF7C9C6F5C76BF5EC08F082
:10124000000E0601F46F010EF36F38D00901F4515E
:101250000601D46FD56BD551000AD8A4DED7D4517E
:10126000010AD8B4D1D6090AD8B4D5D6020AD8B45E
:1012700031D7010AD8B431D7070AD8B431D7010A17
:10128000D8B45AD7020AD8B4BDD71F0AD8B4BDD72C
:10129000010AD8B438D7050AD8B4EAD6010AD8B4B6
:1012A000E7D6B50AD8B4B4D70A0AD8B4E1D6010A49
:1012B000D8B4DED6070AD8B4DBD6AFD701D80CD065
:1012C0000500FA6E0601FA51FD6EFB51FE6EFC51EF
:1012D000FF6EFA50000E120001D80BD00500FA6E16
:1012E0000701C151FD6EC251FE6EC351FF6EFA502F
:1012F000120001D80CD00500FA6E0701BE51FD6E38
:10130000BF51FE6EC051FF6EFA50010E120001D89F
:101310000BD00500FA6E0701BB51FD6EBC51FE6E8D
:10132000BD51FF6EFA501200D8A0F1D7000E070190
:101330003B6F320E3A6F0901EF51F011D8A405D07E
:101340000601F351F411D8B4E8D2000E0B6E010E71
:101350000A6E78EC09F00901EF51F011D8B4C7D248
:101360004ED0F7C9D8F50501D96B89EC08F0BFD28A
:10137000F7C9D8F50501D96BA2ECF3F0B8D273EC3C
:101380000AF0000E07013B6F460E37D0000E070132
:101390003B6F460E3A6F2A512C1904E12B512D193F
:1013A000D8B40BD0AE0E0501BE6FE80EBF6FF5ECE2
:1013B00008F02AC72CF72BC72DF762ECD4F0000EEB
:1013C0003B6F5A0E3A6F070142514311D8A407D020
:1013D000BCECE2F00601D205D311D8A4F4D7BEECE0
:1013E00002F0CFD7000E07013B6F460E3A6F08ECB4
:1013F000FFF0000E07013B6F320E3A6F78D2F451C6
:101400000601D46FD56BD551000AD8A410D0D451A1
:10141000140AD8B4A6D7010AD8B4AAD7BF0AD8B438
:10142000E1D7010AD8B4ABD7070AD8B4AFD7000EBA
:101430000701496F010E486F000E0901EB6F000EA6
:10144000EC6F000EED6F000EEE6F100E0601F961ED
:101450000CD0F951040DAE0EF324D96E080EF42011
:10146000DA6EDE50DE10D8A404D0010E0601FD6F46
:10147000D1D1F8C608F5096AF951040DAC0EF32470
:10148000D96E080EF420DA6EDEC40AF5DDC40BF561
:101490002FEC09F007013051082631510922FF0EC7
:1014A00008240601D46FFF0E0920D56FD4C6EBF9CE
:1014B000D5C6ECF90901ED6BEE6B0601F951040D8F
:1014C000AE0EF324D96E080EF420DA6EDEC4F1F904
:1014D000DDC4F2F9F1C97EF6F2C97FF6EBC9D4F6A4
:1014E000ECC9D5F6EDC9D6F6EEC9D7F6070ED890F9
:1014F000D437D537D637D737E82EF9D7D4C680F6C4
:10150000D5C681F6D6C682F6D7C683F6C7EC9FF05D
:101510000901F36FF351D8B40BD0A90E0501BE6FCA
:10152000F30EBF6FF3C9C0F5C16BF5EC08F09DD7A2
:101530000601F751D8B404D0020EF719D8A4AAD0E6
:10154000F1C95AF6F2C95BF6620E5C6F090E5D6F67
:10155000000E5F6F800E5E6FF50E606F090E616F9B
:101560000BECA3F00901F36FF351D8A405D0800E62
:10157000F519F611D8B40FD0CA0E0501BE6FF00EE2
:10158000BF6FF3C9C0F5C16BF5C9C2F5F6C9C3F5A4
:10159000F5EC08F06AD707016751D8B42CD069512F
:1015A000D8B429D0F9C6D4F6010E0601D56F000EC5
:1015B000D66FD42B03D0D890D537D637D42FFBD7BE
:1015C00007016A510601D51707016B510601D617AD
:1015D000D551D611D8A40FD0630E0501F56FFE0EBC
:1015E000F66F620EF76F090EF86F000EFA6F800E3D
:1015F000F96FCDECFEF0000E0601FD6FF751D8A497
:1016000043D0F551D56FD46B5650D66F5750D76F26
:10161000D86BD96BD7C6D9F6D6C6D8F6D76BD66BEA
:10162000D451D611DA6FD551D711DB6F000ED81116
:10163000DC6F000ED911DD6FF651DA110901E26F8E
:101640000601DB510901E36F0601DC510901E46F7A
:101650000601DD510901E56FE2C980F6E3C981F6B3
:10166000E4C982F6E5C983F6620E0601846F090EAD
:10167000856F000E876F800E866F26ECDAF0000E05
:1016800007012E6F000E04D0620E07012E6F090EA7
:101690002F6FC0D0F705D8B404D0030EF719D8A423
:1016A000B6D0F705D8A43ED0F551D56FD46B5650BF
:1016B000D66F5750D76FD86BD96BD7C6D9F6D6C669
:1016C000D8F6D76BD66BD451D611DA6FD551D71166
:1016D000DB6F000ED811DC6F000ED911DD6FF651F3
:1016E000DA110901E66F0601DB510901E76F060116
:1016F000DC510901E86F0601DD510901E96FE6C916
:1017000080F6E7C981F6E8C982F6E9C983F6620E78
:101710000601846F090E856F000E876F800E866F3D
:10172000EAECDAF007016851D8B42CD06951D8B48A
:1017300029D0F9C6D4F6010E0601D56F000ED66F7A
:10174000D42B03D0D890D537D637D42FFBD7070169
:101750006A510601D51707016B510601D617D551FD
:10176000D611D8A40FD0630E0501F56FFE0EF66FEB
:10177000620EF76F090EF86F000EFA6F800EF96FA8
:10178000CDECFEF0F1C97EF6F2C97FF6620E0601DD
:10179000806F090E816F000E836F800E826FF50ED1
:1017A000846F090E856FA0EC95F00901F36FF3517A
:1017B000D8A405D0800EF519F611D8B40FD0AA0E12
:1017C0000501BE6FF00EBF6FF3C9C0F5C16BF5C95F
:1017D000C2F5F6C9C3F5F5EC08F047D6F1C940F6F5
:1017E000F2C941F6CAECD0F00901F36FF351D8B455
:1017F0000BD0160E0501BE6FF40EBF6FF3C9C0F516
:10180000C16BF5EC08F031D6000E060101D0010ED7
:10181000FD6F35D707016751D8B408D00601F751DD
:10182000D8B410D0020EF719D8B40CD00701685103
:10183000D8B458D00601F705D8B404D0030EF71970
:10184000D8A450D0F9C6D4F6010ED56F000ED66FCD
:10185000D42B03D0D890D537D637D42FFBD7070158
:101860006A510601D51707016B510601D617D551EC
:10187000D611D8A437D0250E0501BE6FE80EBF6F74
:10188000F7C6C0F5C16BF9C6C2F5C36BF8C6C4F59F
:10189000C56B30C7C6F531C7C7F50601F951040D50
:1018A000AC0EF324D96E080EF420DA6EDEC4C8F54F
:1018B000DDC4C9F5EBC9CAF5ECC9CBF5EDC9CCF56A
:1018C000EEC9CDF556C5CEF557C5CFF5F5C6D0F561
:1018D0000501D16BF6C6D2F5D36BFDC6D4F5D56B39
:1018E000F5EC08F0000E0701496F000E486F060185
:1018F000F351F411D8B406D0000EF46F000EF36F5C
:1019000000EC0AF0000E07013B6F3C0E3A6F000E30
:101910000B6E000E0A6E78EC09F001D80CD00500B1
:10192000FA6E0601FA51FD6EFB51FE6EFC51FF6E20
:10193000FA50010E1200000E07013B6F140E3A6FB1
:101940001200000E886F62C589F563C58AF564C50B
:101950008BF565C58CF58CAF14D0010E886F89C5E9
:1019600008F58AC509F58BC50AF58CC50BF5A0EC01
:1019700008F008C589F509C58AF50AC58BF50BC5B8
:101980008CF5000E8E6F000E8D6FEFC67CF5F0C6E5
:101990007DF58851D8A402D058A40ED08851D8A47F
:1019A00004D0000E6E6F2B0E03D0000E6E6F2D0E46
:1019B0006D6F6DC588F504D058A602D0200E886FD3
:1019C00089C508F58AC509F58BC50AF58CC50BF5DF
:1019D00047ECF5F008040910D8A431D0050188516E
:1019E000D8B409D088C507F87C07D8A07D07000EB9
:1019F0008E6F010E8D6F070E8D25086E080E8E21DD
:101A0000096EB60E0A6EFF0E0B6E08EC07F00501AC
:101A1000FD0E7C27FF0E7D2360C51BF561C51CF5FF
:101A2000070E1D6E080E1E6E7CC51FF57DC520F5C8
:101A30003BECFCF01BC560F51CC561F5120089C5C7
:101A400008F58AC509F58BC50AF58CC50BF547EC79
:101A5000F5F008500910D8A41AD005018851D8B45F
:101A600009D088C507F87C07D8A07D07000E8E6FC7
:101A7000010E8D6F070E8D25086E080E8E21096EE2
:101A8000BA0E0A6EFF0E0B6E08EC07F0C0D7000E00
:101A900005018F6F000E906F800E916F3F0E926F59
:101AA000000E776F000E766F89C508F58AC509F5B7
:101AB0008BC50AF58CC50BF5000E0C6E000E0D6E75
:101AC000000E0E6E000E0F6ED0ECFCF0D8A00CD005
:101AD000BED078C58FF579C590F57AC591F57BC5EF
:101AE00092F50501764B772B8FC508F590C509F562
:101AF00091C50AF592C50BF5000E0C6E000E0D6E29
:101B0000200E0E6E410E0F6EB9ECBCF008C578F5D4
:101B100009C579F50AC57AF50BC57BF5050178513C
:101B2000895D086E79518A59096E7A518B590A6E0E
:101B30007B518C590B6E1AEC03F00BBECAD70B50BD
:101B40000A10091004E1020E085CD8A0C2D778C5BB
:101B500021F579C522F57AC523F57BC524F589C51C
:101B600025F58AC526F58BC527F58CC528F578ECB3
:101B7000F4F0D8A0AED705018F51895D086E905161
:101B80008A59096E91518B590A6E92518C590B6E7C
:101B90001AEC03F00BBE08D00B500A10091043E1F9
:101BA000020E085CD8B03FD08FC589F590C58AF584
:101BB00091C58BF592C58CF54AD08FC522F590C59D
:101BC00023F591C524F592C525F5000E266E000E6D
:101BD000276E200E286E410E296E12ECC4F022C52D
:101BE0008FF523C590F524C591F525C592F505011E
:101BF0007607D8A077078F51895D086E90518A5972
:101C0000096E91518B590A6E92518C590B6E1AECD8
:101C100003F00BBEC9D70B500A10091004E1020EE5
:101C2000085CD8A0C1D789C521F58AC522F58BC526
:101C300023F58CC524F58FC525F590C526F591C5EE
:101C400027F592C528F578ECF4F0D8A0B6D766C58C
:101C50006FF56FC570F553BE05D052C569F553C514
:101C60006AF505D0000E05016A6F060E696F69C539
:101C700074F56AC575F50501744B752B660E701900
:101C8000D8A416D077AF0CD0000E8F6F000E906FD7
:101C9000800E916F3F0E926F000E776F000E766F81
:101CA000670E6F19D8B404D0765174277751752315
:101CB000000E876F000E866F89C57EF58AC57FF599
:101CC0008BC580F58CC581F58FC578F590C579F504
:101CD00091C57AF592C57BF57BD07EC522F57FC58F
:101CE00023F580C524F581C525F58FC526F590C55A
:101CF00027F591C528F592C529F512ECC4F022C547
:101D00003BF523C53CF524C53DF525C53EF5EFEC77
:101D1000D6F03BC582F53CC583F53DC584F53EC58F
:101D200085F582C508F583C509F584C50AF585C51D
:101D30000BF5F6ECF7F008C572F509C573F57EC52D
:101D400021F57FC522F580C523F581C524F582C51F
:101D50000CF583C50DF584C50EF585C50FF58FC54A
:101D600008F590C509F591C50AF592C50BF5B9ECD2
:101D7000BCF008C525F509C526F50AC527F50BC52C
:101D800028F5DAEC05F021C57EF522C57FF523C5DF
:101D900080F524C581F58FC522F590C523F591C541
:101DA00024F592C525F5000E266E000E276E200E36
:101DB000286E410E296E12ECC4F022C58FF523C5A2
:101DC00090F524C591F525C592F50501864B872B25
:101DD0007451865D8751800A4F6E7551800A4F5845
:101DE000D8A07BD78FC508F590C509F591C50AF530
:101DF00092C50BF5000E0C6E000E0D6EA00E0E6E51
:101E0000400E0F6EB9ECBCF008C582F509C583F52C
:101E10000AC584F50BC585F57EC521F57FC522F57C
:101E200080C523F581C524F582C525F583C526F532
:101E300084C527F585C528F578ECF4F0D8B003D033
:101E4000000E050118D07EC508F57FC509F580C5CF
:101E50000AF581C50BF582C50CF583C50DF584C562
:101E60000EF585C50FF5D0ECFCF0D8A00BD0050120
:101E700072B108D0000E826F000E836F000E846F67
:101E8000000E856F89C508F58AC509F58BC50AF569
:101E90008CC50BF582C50CF583C50DF584C50EF513
:101EA00085C50FF54FECBEF008C57EF509C57FF579
:101EB0000AC580F50BC581F57EC521F57FC522F5E4
:101EC00080C523F581C524F5000E0C6E000E0D6E45
:101ED000200E0E6E410E0F6E78C508F579C509F516
:101EE0007AC50AF57BC50BF5B9ECBCF008C525F53C
:101EF00009C526F50AC527F50BC528F578ECF4F0D9
:101F0000D8A024D00501764B772B78C508F579C584
:101F100009F57AC50AF57BC50BF5000E0C6E000EAF
:101F20000D6E200E0E6E410E0F6EB9ECBCF008C5A2
:101F300078F509C579F50AC57AF50BC57BF5660E06
:101F400005017019D8A402D0744B752B78C58FF594
:101F500079C590F57AC591F57BC592F576C567F59B
:101F600077C568F5000E0501716F000E6C6F000EED
:101F70006B6F000E876F000E866FCDD07EC522F589
:101F80007FC523F580C524F581C525F58FC526F5C8
:101F900090C527F591C528F592C529F512ECC4F036
:101FA00022C53BF523C53CF524C53DF525C53EF5C9
:101FB000EFECD6F03BC582F53CC583F53DC584F515
:101FC0003EC585F582C508F583C509F584C50AF5C2
:101FD00085C50BF5F6ECF7F009BE06D0095013E104
:101FE0000A0E085CD8B00FD082C508F583C509F584
:101FF00084C50AF585C50BF5F6ECF7F008C572F552
:1020000009C573F505D0000E0501736F090E726FD7
:1020100005017151D8B468AF20D0070E8D25D96E57
:10202000080E8E21DA6E2E0EDF6E8D4B8E2B7C0706
:10203000D8A07D07010E716F10D0070E8D25D96EC7
:10204000080E8E21DA6E300EDF6E8D4B8E2B7C07E4
:10205000D8A07D076B07D8A06C076B516C11D8A472
:10206000ECD7070E8D25D96E080E8E21DA6E7251CF
:10207000300FDF6E8D4B8E2B7C07D8A07D077EC581
:1020800021F57FC522F580C523F581C524F582C5DC
:102090000CF583C50DF584C50EF585C50FF58FC507
:1020A00008F590C509F591C50AF592C50BF5B9EC8F
:1020B000BCF008C525F509C526F50AC527F50BC5E9
:1020C00028F5DAEC05F021C57EF522C57FF523C59C
:1020D00080F524C581F58FC522F590C523F591C5FE
:1020E00024F592C525F5000E266E000E276E200EF3
:1020F000286E410E296E12ECC4F022C58FF523C55F
:1021000090F524C591F525C592F505016707D8A07E
:102110006807864B872B7451865D8751800A4F6E06
:102120007551800A4F58D8B008D08EBF27D78E512E
:1021300004E14B0E8D5DD8A021D77151D8B458A8B9
:102140000AD0070E8D25D96E080E8E21DA6E2E0E5E
:10215000DF6E8D4B8E2B000E876F4F0E866F070E36
:102160008625D96E080E8721DA6E000EDF6E070E07
:102170004F6E080E506E8D514F5E8E51505A8651E3
:102180004F24086E87515020096E070E0A6E080E04
:102190000B6E8DC50CF58EC50DF541EC06F00501F5
:1021A0008D51865D8D6F8E5187598E6F8851D8B451
:1021B00002D0010E01D0000E866F876B58B20FD08F
:1021C00022D08D07D8A08E07070E8D25D96E080E58
:1021D0008E21DA6E300EDF6E7C07D8A07D077C5131
:1021E000865D8751800A4F6E7D51800A4F58D8B066
:1021F0000AD08D51865D8751800A4F6E8E51800ABC
:102200004F58D8A0DED78851D8B40BD08D07D8A0AE
:102210008E07070E8D25D96E080E8E21DA6E88C5C1
:10222000DFF486517C5F87517D5B60C51BF561C51E
:102230001CF5070E8D251D6E080E8E211E6E7CC5A9
:102240001FF57DC520F53BECFCF01BC560F51CC5FA
:1022500061F51200A0C6D9F4A1C6DAF4000EDE6E54
:10226000000EDD6E9EC608F59FC609F5AEECE4F0E3
:1022700008C5AFF609C5B0F60601B0AF02D00B0E27
:102280001200D890AF35D96EB035DA6E260ED92649
:10229000070EDA22DEC4CAF6DDC4CBF6CA51CB1172
:1022A000D8A402D00C0E1200A0C6D9F4A1C6DAF44C
:1022B000CAC6DEF4CBC6DDF4A291CAC6D9F4CBC639
:1022C000DAF4DF50D8B415D020EE01F0CA51D92687
:1022D000CB51DA22DF5071EC03F00601BF6FBFB1C2
:1022E00008D0A251D8A4BFA502D00A0E1200000E39
:1022F0001200CAC6D9F4CBC6DAF4000EDF6E20EEA7
:1023000001F0CA51D926CB51DA22DF50EAECCBF0EA
:102310000601BF6FBFA102D0030E1200A251D8B4B4
:1023200002D0BFB5E2D7CAC64EF6CBC64FF6000EF6
:10233000516F000E506F60ECD9F04EC6C8F64FC614
:10234000C9F6040EC819C911D8A402D0010E120092
:10235000C95104E1020EC85DD8A002D00D0E1200D2
:1023600020EE2CF0CA51D926CB51DA22DEC4BBF6BE
:10237000DEC4BCF6DEC4BDF6DEC4BEF63B0ECA2526
:10238000086E000ECB21096E25EC07F0020E09182D
:102390000810D8A4E3D7460E0601CA25086E000E21
:1023A000CB21096E25EC07F008C5C4F609C5C5F6B2
:1023B0000601C66BC76BC451C511C611C711D8A49D
:1023C00010D0540ECA25086E000ECB21096E53ECB6
:1023D000F8F008C5C4F609C5C5F60AC5C6F60BC5AA
:1023E000C7F6060120EE18F0CA51D926CB51DA22E1
:1023F000C4C6DEF4C5C6DEF4C6C6DEF4C7C6DEF467
:1024000020EE40F0CA51D926CB51DA2210EE03F06B
:10241000CA51E126CB51E222DFC4E7F420EE03F0FB
:10242000CA51D926CB51DA22DE04D8B40AD020EE24
:1024300003F0CA51D926CB51DA22020EDE18D8A4F5
:102440008DD7C4C608F5C5C609F5C6C60AF5C7C600
:102450000BF520EE03F0CA51D926CB51DA22DF501A
:10246000A36FA3510C6E0D6A0E6A0F6A9CEC03F009
:1024700008C5C4F609C5C5F60AC5C6F60BC5C7F634
:10248000060120EE3DF0CA51D926CB51DA22DF50A9
:10249000A36FA46B20EE0AF0CA51D926CB51DA22E1
:1024A000A3C6DEF4A4C6DDF420EE0AF0CA51D92694
:1024B000CB51DA22DE50DE10D8B450D720EE0AF02D
