:0400000081EF00F09C
:10000800840B840B840B840B4000840B4000840B0E
:10001800840B840B840B840B840B840B840B840B60
:10002800840B400040004000840B840B840B840B3D
:10003800840B840B840B840B840B840B840B840B40
:10004800840B840B840B840B40004000840B840BCE
:10005800840B840B840B4000840B840B840B840B6F
:10006800840B840B840B840B840B840B840B840B10
:10007800840B840B840B840B4000840B840B840B4F
:10008800840B840B840B840B840B840B840B840BF0
:10009800840B840B840B840B4000840B40004000CD
:1000A800840B840B840B840B840B840B840B840BD0
:1000B800840B840B840B840B840B840B840B840BC0
:1000C800840B840B840B840B840B840B840B840BB0
:1000D800840B840B840B840B840B840B840B840BA0
:1000E8004000840B840B840B40004000400040001B
:1000F800840B840B840B840BFF00F8EFFAF0A4C682
:10010800D9F4A5C6DAF4DEC4A6F6DDC4A7F6A4C6FB
:1001180098F6A5C699F6000E9B6F010E9A6F0BEC28
:10012800F8F0A86FA851D8A44BD0A6C635F6A7C634
:1001380036F620EE16F0A451D926A551DA22DEC4EF
:1001480037F6DEC438F6DEC439F6DEC43AF6EBEC30
:1001580004F0A86FA851D8A433D020EE1AF0A45107
:10016800D926A551DA22DEC408F5DDC409F5000E4A
:100178000B6E000E0A6E000E0D6E200E0C6E5EECFD
:10018800F1F020EE1AF0A451D926A551DA22DEC4E6
:1001980008F5DDC409F51C0EA4250A6E000EA5217C
:1001A8000B6E000E0D6E0B0E0C6EB6EC14F0060105
:1001B80020EE04F0A651D926A751DA22010EDF6EEF
:1001C800A8511200070145514611D8B4120001D8B0
:1001D8000AD00500FA6ED451FD6ED551FE6ED65187
:1001E800FF6EFA501200D8B0120001D80CD00500EA
:1001F800FA6E0701D151FD6ED251FE6ED351FF6EDA
:10020800FA50000E12006A0EE82EFED700D001D870
:100218000BD00500FA6E0701D451FD6ED551FE6E64
:10022800D651FF6EFA501200D8A00ED001D8120095
:100238000500FA6E0701D151FD6ED251FE6ED35101
:10024800FF6EFA50010E1200000E0701466F000EF5
:10025800456F000E446E010E436E50EC18F0B3EC7F
:1002680018F0000E446E000E436E50EC18F001D8E2
:1002780012000500FA6E0701D151FD6ED251FE6ED3
:10028800D351FF6EFA50010E12000EEC11F03DEC46
:1002980011F05F516011D8A451D056C5EAF557C581
:1002A800EBF509EC14F007016151D8B424D056508D
:1002B8000501F06F5750F16FF26BF36BF1C5F3F571
:1002C800F0C5F2F5F16BF06B0B0EF025E26F000E46
:1002D800F121E36F000EF221E46F000EF321E56FC8
:1002E800470EE66FE40EE76F000EE96F030EE86F46
:1002F80062EC0BF023D056500501F06F5750F16FA8
:10030800F26BF36BF1C5F3F5F0C5F2F5F16BF06B39
:100318000B0EF025E26F000EF121E36F000EF221C3
:10032800E46F000EF321E56F4A0EE66FE40EE76F07
:10033800000EE96F030EE86F62EC0BF007013D5108
:100348003E11D8B41200000E466F010E456F120020
:10035800090EE26FD851D911D8B441D0D8C5D9F413
:10036800D9C5DAF4DE50DE10D8B439D0D8C5D9F4FE
:10037800D9C5DAF4DEC4DCF5DDC4DDF5DCC5D9F4B5
:10038800DDC5DAF4DF50D8B42AD0D8C5D9F4D9C538
:10039800DAF410EE06F0DE50E126DD50E22220EE1F
:1003A80002F0D851D926D951DA22E650DE1817E1E1
:1003B800E650DE18D8A413D0D8C5D9F4D9C5DAF4D4
:1003C80010EE01F0DE50E126DD50E222E750C3ECEA
:1003D80011F00501DC6FDCB102D0000EE26FE251D2
:1003E800D8B405D0000EE06F000EE16F08D0D8C574
:1003F800D9F4D9C5DAF4DEC4E0F5DDC4E1F5DAC52F
:10040800D9F4DBC5DAF4E0C5DEF4E1C5DDF4E25188
:100418001200000E096E000E086EDEEC18F008C51A
:100428000CF509C50DF50CC508F50DC509F5DEEC8B
:1004380018F00CA002D0010E01D0000E08016B6F5D
:100448000CA202D0010E01D0000E6C6F0CA402D0D9
:10045800010E01D0000E6D6F0CA602D0010E01D066
:10046800000E6E6F000E096E000E086EEBEC18F0B1
:1004780008C50CF509C50DF50CC508F50DC509F538
:10048800EBEC18F00CA002D0010E01D0000E080110
:100498006F6F0CA202D0010E01D0000E706F0CA479
:1004A80002D0010E01D0000E716F0CA602D0010E11
:1004B80001D0000E726F040143510801736F0401EB
:1004C80044510801746F040145510801756F766B3A
:1004D8001200020E165E000E175A185A195A20EE0C
:1004E80014F01450D9261550DA22FE0EDE241A6EA6
:1004F800FF0EDE201B6EFF0EDE201C6EFF0EDE20C0
:100508001D6E1A50165C1B5017581C5018581D5059
:100518001958D8A009D0000E146E000E156E000EE2
:10052800166E000E176E120020EE28F01450D92611
:100538001550DA22DEC41AF5DEC41BF5DEC41CF53C
:10054800DEC41DF520EE0AF01450D9261550DA2223
:10055800DEC41EF5DDC41FF51EC508F51FC509F567
:100568000A6A0B6A16C50CF517C50DF518C50EF500
:1005780019C50FF5EEEC11F01A500824146E1B5033
:100588000920156E1C500A20166E1D500B20176E80
:1005980012000A340B34116E1150D8A409D0000E81
:1005A800086E000E096E000E0A6E000E0B6E120029
:1005B80008C50CF509C50DF50AC50EF50BC50FF5EF
:1005C800200E05D0D8900F320E320D320C32E82EA4
:1005D800F9D70C50106E0A8EFF0E0816FF0E09167A
:1005E800FF0E0A16000E0B16960E115E11AE0DD0F8
:1005F8001150800A970FD8A0D2D7D8900B320A3260
:1006080009320832113EF9D70DD01F0E116407D0F8
:10061800C6D7D890083609360A360B361106115057
:10062800D8A4F7D71050D8B408D00B1E0A1E091E3C
:10063800086C000E09220A220B2208C508F509C514
:1006480009F50AC50AF50BC50BF5120020EE03F0F3
:100658000850D9260950DA22DF500C6E0C50116E62
:10066800126A136A146A20EE02F00850D92609505B
:10067800DA22DF500C6E0C5011C50EF512C50FF5BD
:1006880013C510F50D6A0D10116E0E50126E0F5035
:10069800136E1050146E20EE01F00850D926095040
:1006A800DA22DF500C6E0C5011C50EF512C50FF58D
:1006B80013C510F50D6A0D10116E0E50126E0F5005
:1006C800136E1050146E08C5D9F409C5DAF4DF505A
:1006D8000C6E0C5011C50EF512C50FF513C510F5AB
:1006E8000D6A0D10116E0E50126E0F50136E1050D1
:1006F800146E11C508F512C509F513C50AF514C518
:100708000BF5120072EC14F0010E0201616F000E7D
:10071800626F1E0E636F050E656F010E056F020E88
:10072800036F030E206F000E0001D56F000ED86F07
:10073800020ED96F040EDA6F7F0EDB6F010EDC6FCD
:10074800080EDD6F100EDE6F400EDF6F800ED76F64
:10075800820ED66F010ED56F000ED86F020ED96FBC
:10076800040EDA6F7F0EDB6F010EDC6F080EDD6F93
:10077800200EDE6F400EDF6F800ED76F820ED66FB1
:10078800020ED56F010ED86F7F0ED96F7F0EDA6F0C
:100798007F0EDB6F010EDC6F000EDD6F000EDE6F6B
:1007A800000EDF6F820ED76F8C0ED66F000ED46FDF
:1007B800B59AA59AC280C28212000AC510F50BC567
:1007C80011F50C5010240E6E0D5011200F6E48D0EC
:1007D80010C5D9F411C5DAF4DF50126E104A112A87
:1007E80012AE02D0C08601D0C096C08800F0C09872
:1007F80012AC02D0C08601D0C096C08800F0C09864
:1008080012AA02D0C08601D0C096C08800F0C09855
:1008180012A802D0C08601D0C096C08800F0C09847
:1008280012A602D0C08601D0C096C08800F0C09839
:1008380012A402D0C08601D0C096C08800F0C0982B
:1008480012A202D0C08601D0C096C08800F0C0981D
:1008580012A002D0C08601D0C096C08800F0C0980F
:100868000E50105C0F501158D8B01200B1D720EEBE
:1008780002F03550D9263650DA22DE50DE10D8B4D0
:1008880012003750381039103A10D8B4120020EE40
:1008980004F03550D9263650DA22DE50DE10D8B4AE
:1008A80017D020EE0AF03550D9263650DA223750C4
:1008B8003B143F6E10EE0AF03550E1263650E22226
:1008C800E750406E3750FF0A40143F10DF6E1200A9
:1008D80020EE08F03550D9263650DA2237503B142E
:1008E8003F6E10EE08F03550E1263650E222E75010
:1008F800406E3750FF0A40143F10DF6E35C52BF5A8
:1009080036C52CF50A0E2D6E20EE08F03550D92686
:100918003650DA22DF502E6E82EC0FF012000501FD
:10092800606F00C768F501C769F5050160514009A6
:10093800616F47C562F546C563F545C564F544C5AD
:1009480065F5610E086E050E096E000E0B6E050E3C
:100958000A6E7CEC10F00109666F68C542F569C53E
:1009680043F572EC18F068C512F569C513F5000E69
:10097800156E010E146E19EC12F068C508F569C5FC
:1009880009F5610E0A6E050E0B6E000E0D6E060E51
:100998000C6EB5EC0FF002C719F503C71AF5FF0E78
:1009A800D7EC16F00501676F48C5D9F449C5DAF4E4
:1009B80067C5DFF46729D8A405D0000E456E010E7F
:1009C800446E1200000E456E000E446E1200000EBA
:1009D80006013F6F20EE2CF03551D9263651DA2228
:1009E8003751DE180AE13851DE1807E13951DE18AF
:1009F80004E13A51DE18D8B43FD035C623F636C6DE
:100A080024F672ECE2F006013F6F3F51D8A434D0CF
:100A1800300E3525196F000E36211A6F37C61BF6B2
:100A280038C61CF639C61DF63AC61EF6000E206FEB
:100A3800010E1F6F20EE01F03551D9263651DA220A
:100A4800DF5070ECECF00009D8B407D00601376924
:100A5800386939693A69010E3F6F060120EE2CF0BA
:100A68003551D9263651DA2237C6DEF438C6DEF4D7
:100A780039C6DEF43AC6DEF43F51120010501110A8
:100A8800121013101410151016101710D8B43CD0EB
:100A9800010E186E0AD0D890103611361236133659
:100AA8001436153616361736182A17AEF4D71050DE
:100AB800085C1150095812500A5813500B5814501A
:100AC8000C5815500D5816500E5817500F58D8A0DE
:100AD80010D01050085E1150095A12500A5A13507B
:100AE8000B5A14500C5A15500D5A16500E5A1750CE
:100AF8000F5AD89017321632153214321332123276
:100B080011321032182ED3D708C508F509C509F5D2
:100B18000AC50AF50BC50BF50CC50CF50DC50DF589
:100B28000EC50EF50FC50FF512000AC513F50BC556
:100B380014F50C501324116E0D501420126E41D070
:100B480008C50EF509C508F50EC509F513C5D9F48C
:100B580014C5DAF4DF500E6E0E50081A134A142A20
:100B680008C50EF509C50FF5040E106ED8900F32A2
:100B78000E32102EFBD70F0E0E16000E0F160E504B
:100B8800081A0F50091A08C50EF509C50FF50C0EFD
:100B9800D8900E360F36E82EFBD70E50081A0F5095
:100BA800091AFF0E08140E6E000E09140F6E050EBA
:100BB800D8900E360F36E82EFBD70E50081A0F5075
:100BC800091A1150135C12501458D8A0B9D708C587
:100BD80008F509C509F51200A5C6D8F5A6C6D9F5C0
:100BE800A90E0501DA6F060EDB6FACEC01F0060109
:100BF800AB6FAB51D8A444D0A751A811D8A40FD03B
:100C0800A5C65AF6A6C65BF6000E5C6F000E5D6FB1
:100C1800000E5E6F000E5F6FC4ECC2F030D0A5C648
:100C280098F6A6C699F6000E9B6F000E9A6FF7EC21
:100C3800F1F0AB6F040EAB19D8A402D0000EAB6F65
:100C4800AB51D8A41DD0A5C615F5A6C616F5A7C6DE
:100C580017F5A8C618F5C1ECD5F0A5C67EF6A6C648
:100C68007FF6000E0601816F000E806FEBECBAF084
:100C78000601AB6F040EAB19D8A402D0000EAB6FFF
:100C8800AB51120008C510F509C511F50AC512F5D2
:100C98000BC513F507D00C06D8A00D06104A112A6B
:100CA800124A132A0C500D10D8B41AD010C5D9F412
:100CB80011C5DAF4DF500E6E12C5F6F413C5F7F459
:100CC800000EF86E250EF76403D00800F55005D025
:100CD800F6C4E9F4F7C4EAF4EF500E18D8B4DBD739
:100CE8000C500D10D8A405D0000E096E000E086E29
:100CF800120010C5D9F411C5DAF4DF500E6E12C512
:100D0800F6F413C5F7F4000EF86E250EF76403D059
:100D18000800F55005D0F6C4E9F4F7C4EAF4EF503A
:100D28000F6E0F500E5C086E096AD8A009061200F3
:100D3800F829F911D8A43DEC11F00501EE51F06F36
:100D4800EF51F16FF26BF36BF1C5F3F5F0C5F2F506
:100D5800F16BF06B660EF025E26F000EF121E36F88
:100D6800000EF221E46F000EF321E56F7B0EE66FB3
:100D7800080EE76F000EE96F030EE86F9EEC0BF0AC
:100D88000501EE51F06FEF51F16FF26BF36BF1C5A6
:100D9800F3F5F0C5F2F5F16BF06B660EF025E26F36
:100DA800000EF121E36F000EF221E46F000EF32133
:100DB800E56FA20EE66FE30EE76F000EE96F030E14
:100DC800E86F62EC0BF0EEC5F8F7EFC5F9F7120023
:100DD8000D500E10D8B404D00D500E10D8A404D065
:100DE8000B5049EC19F0120020EE09F00D50D926ED
:100DF8000E50DA22DE50DE10D8B416D020EE09F0FC
:100E08000D50D9260E50DA2210EE03F00D50E126CF
:100E18000E50E222DE50E65CE650800A136EDE5089
:100E2800800A1358D8B0120020EE03F00D50D926CE
:100E38000E50DA22DEC40FF5DDC410F50DC5D9F465
:100E48000EC5DAF4DEC411F5DDC412F50F50112415
:100E5800D96E10501220DA6E0BC5DFF420EE03F0C5
:100E68000D50D9260E50DA22DE2A000EDD2212009D
:100E78001CC529F51DC52AF520EE0BF02950D926E9
:100E88002A50DA22DE50DE10DE10D8B41ED01CC57F
:100E980008F51DC509F51EC50AF51FC50BF520C5C2
:100EA8000CF521C50DF520EE0BF02950D9262A5056
:100EB800DA2201D812000500FA6EDE50FD6EDE500F
:100EC800FE6EDE50FF6EFA5012001EC525F51FC5D6
:100ED80026F5000E286E000E276E11D01CC50EF5E3
:100EE8001DC50FF5FF0E106EF3ECEEF025C5D9F415
:100EF80026C5DAF4DF6E254A262A274A282A2050F2
:100F0800275C21502858D8B01200E8D707011D5196
:100F18001E11D8A405D01DC71AF51EC71BF506D08B
:100F2800FF0E1D251A6EFF0E1E211B6E58A009D03C
:100F380016C50BF50C6A14C50DF515C50EF5ECECC8
:100F480006F01BAE04D0000E1B6E000E1A6E000ECB
:100F5800196E000E186E0CD0000E0C6E200E0B6E63
:100F680014C50DF515C50EF5ECEC06F0184A192A4E
:100F78001A50185C1950800A176E1B50800A1758AF
:100F8800D8A0EAD758B009D016C50BF50C6A14C515
:100F98000DF515C50EF5ECEC06F0010E1824146ECF
:100FA800000E1920156E12000A6E470EF66EDD0E41
:100FB800F76E000EF86E0900F5500A5CD8A03CD018
:100FC800480EF66EDD0EF76E000EF86E0A50090038
:100FD800F55CD8A005D0000E096E010E086E12004F
:100FE800490EF66EDD0EF76E000EF86E0900F5502C
:100FF8000A5CD8A00BD04A0EF66EDD0EF76E000E16
:10100800F86E0A500900F55CD8B0E5D74B0EF66EBD
:10101800DD0EF76E000EF86E0900F5500A5CD8A0D8
:101028000BD04C0EF66EDD0EF76E000EF86E0A5001
:101038000900F55CD8B0CFD7000E096E000E086E17
:1010480012001CC529F51DC52AF520EE08F0295007
:10105800D9262A50DA22DE50DE10DE10D8B41ED08F
:101068001CC508F51DC509F51EC50AF51FC50BF5F4
:1010780020C50CF521C50DF520EE08F02950D9261C
:101088002A50DA2201D812000500FA6EDE50FD6EF1
:10109800DE50FE6EDE50FF6EFA5012001EC525F5BA
:1010A8001FC526F5000E286E000E276E10D01CC531
:1010B8000EF51DC50FF525C5D9F426C5DAF4DF50A0
:1010C800106EF3ECEEF0254A262A274A282A2050EB
:1010D800275C21502858D8B01200E9D758A00AD068
:1010E8001DC514F51EC515F51BC516F51CC517F548
:1010F800EDEC15F020BE05D01FC524F520C525F55B
:1011080004D0000E256E000E246E000E236E000E15
:10111800226E0CD0000E0C6E200E0B6E1BC50DF54A
:101128001CC50EF5ECEC06F0224A232A2450225C5A
:101138002350800A216E2550800A2158D8A0EAD76A
:1011480058B00AD01DC514F51EC515F51BC516F5F2
:101158001CC517F5EDEC15F01DC508F51EC509F5FC
:10116800D8EC14F0245008241B6E255009201C6E5E
:1011780012000501DD6F010E0501DE6F10D0000EB3
:10118800DE6F23D0E30EBE6FEA0EBF6FDDC5C0F57C
:10119800C16BD8C5C2F5C36BCFEC17F016D0D851C8
:1011A800DB6FDC6BDC51000AD8A4ECD7DB51000AFA
:1011B800D8B4E5D7010AD8B4E5D7030AD8B4E2D73A
:1011C800010AD8B4DFD7070ADDD70601EF51F011BD
:1011D800D8B416D0A70E0501BE6FE80EBF6FDDC5E7
:1011E800C0F5C16BD8C5C2F5C36BD9C5C4F5DAC59E
:1011F800C5F5C66BC76BDEC5C8F5C96BCFEC17F074
:101208000501DE511200E7ECFBF04E0E0801FD6F00
:101218002F0EFE6F000EFF6F4A0EF46FA40EF56FCF
:10122800010EF66F6A0EF76F2B0EF86F000EF96F4E
:101238000C0EF16F070EF26F000EF36F560E0701DA
:10124800DD6FFF0EDE6F010EDF6FEE0EE36FCB0E6C
:10125800E46F010EE56F1C0ED46F330ED56F000ED0
:10126800D66F720E0801FA6F320EFB6F000EFC6F1C
:10127800FA0E0701CB6FFF0ECC6F010ECD6F840EF7
:10128800DA6F310EDB6F000EDC6F820EC86F320E24
:10129800C96F000ECA6F1200FA29FB11D8A413D027
:1012A800660E0501D86FEC0ED96FC20EDA6FE60E26
:1012B800DB6F000EDD6FC00EDC6FBC0EDE6FF30E51
:1012C800DF6F8CEC16F0FAC7F2F5FBC7F3F5000EEA
:1012D8000501F56FB70EF46F99EC15F0FA51050199
:1012E800F66F0701FB510501F76FF86BF96BF7C54E
:1012F800F9F5F6C5F8F5F76BF66BF6C5E2F5F7C53F
:10130800E3F5F8C5E4F5F9C5E5F5370EE66FE20E45
:10131800E76F000EE96FB70EE86F62EC0BF0000E96
:101328000701406F000E3F6F1200000E0814106E88
:10133800000E0914116E800E0A14126E7F0E0B1423
:10134800136E1050111012101310D8A408D0000EEC
:10135800086E000E096E000E0A6E000E0B6E000E6F
:101368000C14106E000E0D14116E800E0E14126EF9
:101378007F0E0F14136E1050111012101310D8A4F2
:1013880008D0000E0C6E000E0D6E000E0E6E000ED4
:101398000F6E0C5008180AE10D50091807E10E509D
:1013A8000A1804E10F500B18D8B402D0D8901200D4
:1013B800D8801200000E0D6E000E0C6E08016B51E5
:1013C800D8B402D0010E01D0000E0C126C51D8A472
:1013D8000C826D51D8A40C846E51D8A40C860CC50F
:1013E80008F50DC509F5DEEC18F0000E0D6E000EBF
:1013F8000C6E08016F51D8B402D0010E01D0000E56
:101408000C127051D8A40C827151D8A40C8472515A
:10141800D8A40C860CC508F50DC509F5EBEC18F039
:1014280073C843F474C844F475C845F473C843F4E6
:1014380074C844F475C845F412000501EC5107015D
:10144800415D0501ED5107014259D8B0120005016F
:10145800EA51EE6FEB51EF6FF06BF16BEFC5F1F501
:10146800EEC5F0F5EF6BEE6B070141510501EE2576
:10147800E26F070142510501EF21E36F000EF021F1
:10148800E46F000EF121E56F000E0701412505010B
:10149800E66F0C0E070142210501E76F0701415174
:1014A8000501EC5DE86F070142510501ED59E96F4F
:1014B8009EEC0BF0ECC541F7EDC542F712000DC7E5
:1014C800C2F60EC7C3F60FC7C4F610C7C5F6BEC628
:1014D800D9F4BFC6DAF4DE50DE10D8B421D0BEC6C7
:1014E800D9F4BFC6DAF4DEC4C0F6DDC4C1F6C0C69E
:1014F800D9F4C1C6DAF4DF50D8B412D0BEC6D9F4D4
:10150800BFC6DAF4DEC438F5DDC439F56AECDCF0C0
:1015180038C5C2F639C5C3F63AC5C4F63BC5C5F6E3
:10152800C4C6F7F5C5C6F8F5C9ECFCF0C2C65BF74A
:10153800C3C65CF7000E0601BD6F010EBC6F12003A
:10154800000E106E000E116E000E126E000E136E5D
:101558000C500D100E100F10D8B42AD0010E146EB6
:1015680006D0D8900C360D360E360F36142A0FAE2C
:10157800F8D7D89010361136123613360C50085C4E
:101588000D5009580E500A580F500B58D8A009D0C2
:101598000C50085E0D50095A0E500A5A0F500B5A3B
:1015A8001080D8900F320E320D320C32142EE1D743
:1015B80010C508F511C509F512C50AF513C50BF5CF
:1015C8001200080E0001B16F000E0401006F000E3A
:1015D800086F000E106F000E186F20912093209551
:1015E800000E086F000E106F000E186FC292CA929C
:1015F800010E0201D56FA00ED46FD189D18BC68E92
:10160800070E766FBE8CC69C260E076FD28FC290CF
:10161800CA90000EBF6E000EC76E000EC06E000EA0
:10162800C86E3F0E046FC696320E0401436F330E28
:10163800446F030E456F000E476F4691468F1200A8
:101648000701FA29FB11D8A40EEC11F0F6C5F2F542
:10165800F7C5F3F5000E0501F56FA60EF46F99ECCA
:1016680015F00501F651F86FF751F96FFA6BFB6B3E
:10167800F9C5FBF5F8C5FAF5F96BF86B660EF825B0
:10168800E26F000EF921E36F000EFA21E46F000EFD
:10169800FB21E56FA20EE66FE30EE76F000EE96F20
:1016A8002A0EE86F62EC0BF0F6C5FAF7F7C5FBF700
:1016B800000E0701406F010E3F6F1200E2C5D8F51A
:1016C800E3C5D9F5E4C5DAF5E5C5DBF501D80BD0F6
:1016D8000500FA6E0701E351FD6EE451FE6EE55117
:1016E800FF6EFA50120001D80CD00500FA6E0701FF
:1016F800E951FD6EEA51FE6EEB51FF6EFA50000E95
:101708001200E2C50EF5E3C50FF5E6C510F5E7C50D
:1017180011F5E8C512F5E9C513F501D81200050061
:10172800FA6E0701E651FD6EE751FE6EE851FF6E55
:10173800FA501200E2C5D8F5E3C5D9F5E4C5DAF5E3
:10174800E5C5DBF501D80BD00500FA6E0701E351BA
:10175800FD6EE451FE6EE551FF6EFA50120001D89D
:101768000CD00500FA6E0701E951FD6EEA51FE6ED4
:10177800EB51FF6EFA50FF0E1200E2C50EF5E3C5FD
:101788000FF5E6C510F5E7C511F5E8C512F5E9C589
:1017980013F501D812000500FA6E0701E051FD6E3D
:1017A800E151FE6EE251FF6EFA5012001A0E11243A
:1017B800086E000E1220096ED1EC15F008C517F559
:1017C80009C518F5196A1A6A0FC5D9F410C5DAF4EB
:1017D800030EDE18D8A41CD0140E1124086E000EB7
:1017E8001220096ED1EC15F00850136E0950146ED2
:1017F800156A166A14C516F513C515F5146A136A21
:1018080013501712145018121550191216501A1294
:1018180017C50FF518C510F519C511F51AC512F534
:101828001200F5C5D8F5F6C5D9F5F7C5DAF5F8C546
:10183800DBF5F9C5DCF5FAC5DDF5F5ECF5F0000EDC
:10184800FF6FF7C5FBF5F8C5FCF5000EFE6F000E3F
:10185800FD6F0AD0FBC5D9F4FCC5DAF4DF50FF27C9
:10186800FB4BFC2BFD4BFE2BF951FD5DFA51FE594C
:10187800D8A0F0D7530EBE6FF20EBF6FF5C5C0F5F6
:10188800F6C5C1F5410EC26FEF0EC36FFFC5C4F5B3
:10189800C56BCFEC17F012004C51D8B41200F2C54A
:1018A800F4F5010E0501F56F000EF66FF42B03D069
:1018B800D890F537F637F42FFBD7070139510501D2
:1018C800F51707013A510501F617F551F611D8A495
:1018D8001200F2C5EAF5F3C5EBF509EC14F0F2C510
:1018E800F4F5010E0501F56F000EF66FF42B03D029
:1018F800D890F537F637F42FFBD70501F5510701D6
:1019080039130501F65107013A1312000701FA29A4
:10191800FB11D8A40EEC11F0F6C5F2F5F7C5F3F5F6
:10192800000E0501F56FB70EF46F99EC15F005017F
:10193800F651F86FF751F96FFA6BFB6BF9C5FBF5C8
:10194800F8C5FAF5F96BF86BF8C5E2F5F9C5E3F5F2
:10195800FAC5E4F5FBC5E5F5370EE66FE20EE76F6D
:10196800000EE96FB70EE86F62EC0BF0F6C5FAF7F8
:10197800F7C5FBF7000E0701406F000E3F6F12001E
:101988000EC518F50FC519F519C5C1F418C5BFF46A
:10199800000E176E000E166E26D0BE981650102434
:1019A800146E17501120156E14C5F6F415C5F7F40A
:1019B800000EF86E250EF76404D0D0C4F5F40C00C0
:1019C80006D0F6C4E9F4F7C4EAF4D0C4EFF4BE884C
:1019D800182A18C5BFF41850D8A403D0192A19C555
:1019E800C1F4164A172A1250165C13501758D8B06B
:1019F8001200D3D72EC5D9F42FC5DAF4DEC435F5D5
:101A0800DDC436F520EE06F02E50D9262F50DA2206
:101A1800DF50316ED89031344109326E30C533F51C
:101A280035C50CF536C50DF590EC12F035C51CF52D
:101A380036C51DF5320E1E6E050E1F6E000E216E88
:101A4800020E206E25EC08F035C52BF536C52CF5B1
:101A58003FEC18F0346E35C50CF536C50DF565EC60
:101A680017F0345012000EC518F50FC519F519C531
:101A7800C1F418C5BFF4000E176E000E166E25D0FF
:101A8800BE9416501024146E17501120156E14C5EC
:101A9800F6F415C5F7F4000EF86E250EF76403D0BA
:101AA8000800F55005D0F6C4E9F4F7C4EAF4EF509D
:101AB800C06EBE84182A18C5BFF41850D8A403D025
:101AC800192A19C5C1F4164A172A1250165C135060
:101AD8001758D8B01200D4D70A6E430EF66EDD0E32
:101AE800F76E000EF86E0900F5500A5CD8A026D0F3
:101AF800440EF66EDD0EF76E000EF86E0A50090001
:101B0800F55CD8A005D0000E096E010E086E120013
:101B1800450EF66EDD0EF76E000EF86E0900F550F4
:101B28000A5CD8A00BD0460EF66EDD0EF76E000EDE
:101B3800F86E0A500900F55CD8B0E5D7000E096EBA
:101B4800000E086E12004A6E00C74BF501C74CF52F
:101B58006EC54FF56FC550F56AC544F56BC545F5BB
:101B68006CC546F56DC547F54FC548F550C549F5EF
:101B78004A5093EC04F044C54DF545C54EF54D501B
:101B88004E10D8B403D092EC17F012004BC508F5EC
:101B98004CC509F5010E4F240A6E000E50200B6E3D
:101BA800FF0E70250C6EFF0E71210D6E25ECC9F02D
:101BB800EAD74C51D8B426D0B20E0501BE6FF00E4C
:101BC800BF6F09C7C0F50AC7C1F50BC7C2F50CC777
:101BD800C3F5CFEC17F009C746F60AC747F60BC797
:101BE80048F60CC749F67C0E06014A6F070E4B6F84
:101BF800000E4D6F010E4C6FD4ECDAF0000E0701A9
:101C08004C6F07D0830E0501BE6FF20EBF6FCFEC8D
:101C180017F0000E0601BD6F000EBC6F1200D69EB5
:101C2800070133513411D8B41FD0000E3125D96EB5
:101C38000A0E3221DA6EDF500E6E010E3125086E63
:101C4800000E3221096E000E0B6E500E0A6EFAEC71
:101C580014F008C531F709C532F73307D8A034079F
:101C6800A780D68E0E50120045514611D8B403D025
:101C7800D68E000E1200D68E150E0D6EC60EE82EEC
:101C8800FED70D2EFCD700D0CAD708C5D9F409C590
:101C9800DAF40AC5DFF4084A092A0B500A6E0C5018
:101CA8000B6E0D500C6E0D6A08C5D9F409C5DAF42F
:101CB8000AC5DFF4084A092A0B500A6E0C500B6E4D
:101CC8000D500C6E0D6A08C5D9F409C5DAF40AC5B9
:101CD800DFF4084A092A0B500A6E0C500B6E0D509F
:101CE8000C6E0D6A08C5D9F409C5DAF40AC5DFF423
:101CF800084A092A120010C5F6F411C5F7F4000EB7
:101D0800F86E0800F5500C6E0D6A7CEC17F00CC5E7
:101D180017F50DC518F5104A112A12C5D9F413C5BF
:101D2800DAF4DF50146E14500C6E0D6A7CEC17F068
:101D38000CC515F50DC516F5124A132A15501718B6
:101D480008E116501818D8A404D017501810D8A4B1
:101D5800D2D71550175C106E16501858116E120015
:101D6800650E356E070E366E000E386E010E376E34
:101D7800BBECDEF035C53FF536C540F5650E356E72
:101D8800070E366E000E386E050E376E000E3A6E70
:101D9800010E396E89ECF8F0650E356E070E366E59
:101DA800000E386E060E376E000E3A6E010E396E52
:101DB80089ECF8F0650E356E070E366E3FC537F5BF
:101DC80040C538F5BBECDEF012003EC540F53FC516
:101DD80041F520EE02F04050D9264150DA22000E9B
:101DE800DF6E000E0001846F000E856F110E020178
:101DF8006A6F120E6B6F650E086E070E096EF8ECAF
:101E080018F008500910D8B40FD0650E356E070EBB
:101E1800366E000E386E000E376E000E3A6E010EEA
:101E2800396E07ECF9F001D0CA940001848F1200D2
:101E38000C500D100E100F10D8B424D0010E106ED7
:101E480006D0D8900C360D360E360F36102A0FAE47
:101E5800F8D70C50085C0D5009580E500A580F500E
:101E68000B58D8A008D00C50085E0D50095A0E50D7
:101E78000A5A0F500B5AD8900F320E320D320C32CC
:101E8800102EE7D708C508F509C509F50AC50AF5EA
:101E98000BC50BF5120056500501FA6F5750FB6F32
:101EA800FC6BFD6BFBC5FDF5FAC5FCF5FB6BFA6B2E
:101EB800900EFA25E26F000EFB21E36F000EFC2165
:101EC800E46F000EFD21E56F4D0EE66F070EE76F1C
:101ED800000EE96F160EE86F9EEC0BF007015C052B
:101EE800D8B007D0020E606F000E5F6F50EC09F09B
:101EF8001200000E606F000E5F6F12002BC5D9F440
:101F08002CC5DAF4DEC433F5DDC434F520EE06F072
:101F18002B50D9262C50DA22DF502F6ED8902F3430
:101F28004009306E2DC531F52EC532F533C50CF597
:101F380034C50DF590EC12F033C51CF534C51DF50C
:101F4800300E1E6E050E1F6E000E216E030E206EE3
:101F580025EC08F033C50CF534C50DF565EC17F024
:101F680012000AC510F50BC511F50C500D10D8B4A8
:101F780012000DC583F00CC582F010C5D9F411C547
:101F8800DAF4DF500001816F104A112A000E0F6E3B
:101F9800010E0E6E0ED010C5D9F411C5DAF4DF505B
:101FA800816F104A112AB1A0FED7000180510E4A54
:101FB8000F2A0C500E5C0D500F58D8A0ECD7B1A0CA
:101FC800FED7000180511200B8C5BCF5B9C5BDF5F2
:101FD800000E07011C6F000E1B6F17D0B6C593F5D6
:101FE800B7C594F5BC0E0501956F050E966FBAC579
:101FF80097F5BBC598F567EC87F005019351070184
:102008001B270501945107011C23BCC5F6F4BDC567
:10201800F7F4000EF86E0800F5500009D8A4DED7D2
:10202800000E0501B76F000EB66F120004D0084A03
:10203800092A0A4A0B2A08C5D9F409C5DAF4DF5077
:102048000C6E0AC5F6F40BC5F7F4000EF86E08001E
:10205800F5500C18D8A407D008C5D9F409C5DAF486
:10206800DF50D8A4E4D708C5D9F409C5DAF4DF509D
:102078000C6E0AC5F6F40BC5F7F4000EF86E0800EE
:10208800F5500C5C086E096AD8A009061200565073
:102098000501EA6F5750EB6FEC6BED6BEBC5EDF597
:1020A800EAC5ECF5EB6BEA6BA10EEA25E26F000ED0
:1020B800EB21E36F000EEC21E46F000EED21E56FDC
:1020C8004D0EE66F070EE76F000EE96F160EE86F0C
:1020D8009EEC0BF007015C05D8B005D0020E606FCE
:1020E800000E5F6F1200000E606F000E5F6F12002F
:1020F800000E106E08C511F509C512F50A50112415
:102108000C6E0B5012200D6E1CD011C5D9F412C5DF
:10211800DAF4DF50101A114A122A000E0F6E000E60
:102128000E6E10AE02D0890E101AD89010360E4AD4
:102138000F2A0FBEF6D70F5004E1080E0E5CD8A088
:10214800F0D70C50115C0D501258D8A0DED71050A3
:10215800120000FF060006A5065A06FF0A000AA597
:102168000A5A0AFF286E756C6C29005D08770865A5
:102178000765FF1A0000001A0000001A0000001A84
:102188000000000000000000000000000000000047
:102198000000008000000080000000800000008037
:1021A80000000000000000000000000000000064C3
:0321B800400000E4
:1021BC00BEC6D9F4BFC6DAF4DE50DE10D8B41ED0D9
:1021CC00BEC6D9F4BFC6DAF4DEC4C0F6DDC4C1F6AF
:1021DC00C0C6D9F4C1C6DAF4DF50D8B40FD0BEC62D
:1021EC00D9F4BFC6DAF4DEC438F5DDC439F56AECCF
:1021FC00DCF038C53DF739C53EF704D0000E3E6F14
:10220C00010E3D6F000E0601BD6F000EBC6F12007B
:10221C000701FA29FB11D8B41200FA510501EA6F33
:10222C000701FB510501EB6FEC6BED6BEBC5EDF5AD
:10223C00EAC5ECF5EB6BEA6BEAC5E2F5EBC5E3F549
:10224C00ECC5E4F5EDC5E5F5000EE66F0C0EE76F99
:10225C0041C7E8F542C7E9F562EC0BF0000E070147
:10226C00FB6FFA69000E426F000E416F1200F829E5
:10227C00F911D8B41200F8510501EA6F0701F951B0
:10228C000501EB6FEC6BED6BEBC5EDF5EAC5ECF511
:10229C00EB6BEA6B660EEA25E26F000EEB21E36F47
:1022AC00000EEC21E46F000EED21E56F7B0EE66F66
:1022BC00080EE76F000EE96F030EE86F62EC0BF08F
:1022CC00000E0701F96FF8691200516E0701FD51FC
:1022DC00D8B404D0AA0E5118D8A41200AA0E5118C2
:1022EC00D8A403D0000EFD6F120051AC0CD0050E1B
:1022FC000501BE6FF10EBF6F000EC16FA00EC06F57
:10230C00CFEC17F0FF0051AE1200700E0501BE6F3E
:10231C00F10EBF6F000EC16FA00EC06FCFEC17F0A7
:10232C00FFD70BBE07D00B500A1009101DE1080493
:10233C00D8B01AD008C50CF509C50DF50AC50EF5AF
:10234C000BC50FF50C1E0D1E0E1E0F1E0C2A000EBB
:10235C000D220E220F220CC508F50DC509F50EC570
:10236C000AF50FC50BF5120008C508F509C509F5E6
:10237C000AC50AF50BC50BF51200516E5150D8B4B5
:10238C000ED00601EF51F011D8B407D0CB0E0501D9
:10239C00BE6FF20EBF6FCFEC17F0020E12000701EA
:1023AC00EC2914E1ED2912E1EE2910E1EF29D8A472
:1023BC000DD00601EF51F011D8B4EFD7090E05017D
:1023CC00BE6FF50EBF6FCFEC17F0E7D7000E120003
:1023DC00000E106E000E116E000E126E000E136EBB
:1023EC0008A008D00C5010260D5011220E501222AD
:1023FC000F501322D8900C360D360E360F36D8905F
:10240C000B320A3209320832085009100A100B102C
:10241C00D8A4E6D710C508F511C509F512C50AF5FB
:10242C0013C50BF51200186812C508F513C509F58C
:10243C009CEC13F0000E176E000E166E10D012C529
:10244C0008F513C509F5180E0A6E050E0B6E000E75
:10245C000D6E010E0C6EB5EC0FF0164A172A1450C7
:10246C00165C15501758D8A0EAD712C508F513C535
:10247C0009F509EC16F01200BF0E0501BE6FE60E51
:10248C00BF6FCFEC17F0080EBE6FF20EBF6FCFEC24
:10249C0017F0110E0501D96F3C0ED86FCB0EE82E3C
:1024AC00FED7D82FFCD7D92FFAD7EF0E0501BE6F68
:1024BC00F10EBF6FCFEC17F0BF0EBE6FE60EBF6F05
:1024CC00CFEC17F01200C20ED16F050ED26FBEC545
:1024DC00C6F5BFC5C7F5000ECA6F000EC96F000E5A
:1024EC00D06F000ECF6FC60EB66F050EB76FC0C59E
:1024FC00B8F5C1C5B9F5D10EBA6F050EBB6FE8ECD6
:10250C000FF0C951BE25D96ECA51BF21DA6E000E2B
:10251C00DF6E12000CC50EF50DC50FF520EE05F0A3
:10252C000E50D9260F50DA22C8C4DFF4C896C898CA
:10253C00C88A20EE03F00E50D9260F50DA22DF5055
:10254C00D8B402D0C08801D0C098C0860CC508F59C
:10255C000DC509F5000E0B6E010E0A6E51EC19F04B
:10256C001200066ED69E070134511AE1500E335DEF
:10257C00D8B016D033513125016E34513221026E50
:10258C00000E046E500E036E3CEC15F0000E012490
:10259C00D96E0A0E0220DA6E06C5DFF4334B342BEB
:1025AC00345103E1400E335DD8B0A790D68E1200A3
:1025BC00010E146E200E0E10106E000E0F10116E08
:1025CC009F0E1024126EFF0E1120136E135004E197
:1025DC001A0E125CD8A00ED0D00E0E24106EFF0E68
:1025EC000F20116E115004E10A0E105CD8A002D01D
:1025FC00000E146E14C50EF50F6A12000D6ED69EE9
:10260C000701305104E1500E2F5DD8A004D0B7A2C1
:10261C00FED72AEC13F02F512D25086E30512E21A8
:10262C00096E000E0B6E500E0A6EFAEC14F0000ED2
:10263C000824D96E090E0920DA6E0DC5DFF42F4B74
:10264C00302BA782D68E12001DD0000E2D25D96EF0
:10265C00090E2E21DA6EDF500201C96F010E07013F
:10266C002D25086E000E2E21096E000E0B6E500EDD
:10267C000A6EFAEC14F008C52DF709C52EF72F07D2
:10268C00D8A0300707012F513011D8B41200B7A2CF
:10269C001200DBD7650E086E070E096EF8EC18F009
:1026AC0008500910D8B414D0650E356E070E366E6E
:1026BC00000E386E000E376E40504110D8A402D078
:1026CC00010E01D0000E396E3A6A07ECF9F01200D7
:1026DC0040504110D8A402D0C2841200C2941200FF
:1026EC001DD0000E2D25D96E090E2E21DA6EDF506D
:1026FC000201C96F010E07012D25016E000E2E215E
:10270C00026E000E046E500E036E3CEC15F001C50B
:10271C002DF702C52EF72F07D8A0300707012F5130
:10272C003011D8B41200B7A21200DBD708C50AF5D5
:10273C0009C50BF520EE02F00A50D9260B50DA220F
:10274C00DF50D8A410D0310E0201126F320E116F6F
:10275C0020EE03F00A50D9260B50DA22C8C4DFF45D
:10276C00C890C892C88420EE02F00A50D9260B50AB
:10277C00DA22DF2A120012D008C5D9F409C5DAF41E
:10278C00DFC40AF5010EDE26DFC40BF5000EDD22D8
:10279C000AC5D9F40BC5DAF4000EDF6E08C5D9F4FE
:1027AC0009C5DAF4DEC40AF5DDC40BF50AC5D9F4A3
:1027BC000BC5DAF4200EDE18D8A41200DDD785EC98
:1027CC00F9F056500601006F5750016F026B036B06
:1027DC0001C603F600C602F6016B006B00C641F59C
:1027EC0001C642F502C643F503C644F501D81200F2
:1027FC000500FA6E0701DD51FD6EDE51FE6EDF51F4
:10280C00FF6EFA5012000501EA51EC6FEB51ED6FBF
:10281C00EE6BEF6BEDC5EFF5ECC5EEF5ED6BEC6B20
:10282C00080EEC25E26F000EED21E36F000EEE2199
:10283C00E46F000EEF21E56F3F0EE66FE20EE76FDF
:10284C00000EE96F060EE86F62EC0BF01200000E42
:10285C00251A000E261A000E271A800E281A21C5DA
:10286C0008F522C509F523C50AF524C50BF525C5C0
:10287C000CF526C50DF527C50EF528C50FF5CCECC6
:10288C00BFF008C521F509C522F50AC523F50BC50E
:10289C0024F5120008C5F6F409C5F7F4000EF86E1D
:1028AC000800F5500A18D8A405D008C508F509C5C4
:1028BC0009F5120008C5F6F409C5F7F4084A092A07
:1028CC00000EF86E0800F5500009D8A4E3D7000EEE
:1028DC00086E000E096E120004011969C9680969B5
:1028EC00C7681169C8680181C6800183C682018BE3
:1028FC00C68A198DC98CC18EC99E550E596FAA0EE8
:10290C00596F5991080E5D6F000E5E6F000E5F6F70
:10291C00550E596FAA0E596F59811200CC0E060133
:10292C00CC6F190ECD6FB00ECE6FFF0ECF6F010EA8
:10293C00D06F0BECFEF00009D8B40DD03B0E0501A6
:10294C00BE6FF10EBF6FCFEC17F0FF0E0601D96F03
:10295C00FE0ED86F1200000ED96F000ED86F120049
:10296C000AC511F50BC512F508C50FF509C510F50B
:10297C0010D011C5D9F412C5DAF4DF500E6E114A1D
:10298C00122A0FC5D9F410C5DAF40EC5DFF40F4ABC
:10299C00102A0C06D8A00D060C28EBE10D28D8B493
:1029AC001200E7D708C50AF509C50BF502D0084A8D
:1029BC00092A08C5F6F409C5F7F4000EF86E250EC1
:1029CC00F76403D00800F55005D0F6C4E9F4F7C459
:1029DC00EAF4EF500009D8A4EAD70A50085C086E54
:1029EC000B500958096E12000A500B10D8B418D0AD
:1029FC00010E0C6E04D0D8900A360B360C2A0BAE96
:102A0C00FAD70A50085C0B500958D8A004D00A50C9
:102A1C00085E0B50095AD8900B320A320C2EF1D7A3
:102A2C0008C508F509C509F512001A0E0E24086E22
:102A3C00000E0F20096E10C50AF511C50BF5BBEC85
:102A4C0017F00CC5D9F40DC5DAF4030EDE18D8A4B2
:102A5C001200140E0E24086E000E0F20096E12C503
:102A6C000AF513C50BF5BBEC17F01200035004105C
:102A7C00D8B418D0010E056E04D0D89003360436A5
:102A8C00052A04AEFAD70350015C04500258D8A0B2
:102A9C0004D00350015E0450025AD8900432033221
:102AAC00052EF1D701C501F502C502F5120007018B
:102ABC00DA51DB11DC11D8B40DD001D812000500AD
:102ACC00FA6EDA51FD6EDB51FE6EDC51FF6EFA5080
:102ADC00000E1200E20E0501BE6FF20EBF6FE60E85
:102AEC00C06FF30EC16FCFEC17F012000AC50CF5D6
:102AFC000BC50DF508C50EF509C50FF50CC5F6F49B
:102B0C000DC5F7F40C4A0D2A000EF86E0EC5D9F45B
:102B1C000FC5DAF40E4A0F2A0800F5C4DFF4DF50B3
:102B2C00D8B41200EBD70501F2510701FA1905E1EF
:102B3C000501F3510701FB19D8A40EEC11F0F2C5F5
:102B4C00EAF5F3C5EBF5F4C5ECF5F5C5EDF521ECBF
:102B5C000AF0000E0701406F010E3F6F120041504A
:102B6C004210D8B40CD0000E0201056F000E036F9A
:102B7C00BE88BE84400EC96E000EC76E1200B4EC47
:102B8C000EF07F0EC96EC768C868010E0201056F92
:102B9C00020E036F120020EE01F00850D9260950E6
:102BAC00DA22DF500A6E0A500D6E0E6A08C5D9F48F
:102BBC0009C5DAF4DF500A6E0D500B6E0A500D6E1B
:102BCC000BC50EF50DC508F50EC509F51200000E66
:102BDC001A6E000E196E0BD018C50BF50C6A16C5C3
:102BEC000DF517C50EF5ECEC06F0194A1A2A19501A
:102BFC001424D96E1A501520DA6EDF50186E185046
:102C0C00D8B41200E9D708C50AF509C50BF520EEB2
:102C1C0002F00A50D9260B50DA22DF06DF50D8A476
:102C2C001200000E0201126F000E116F20EE03F065
:102C3C000A50D9260B50DA22DF50C86E12000D6EE6
:102C4C000D500F0B086E096AB20E0824D96E090ECE
:102C5C000920DA6EDF500A6E0D380F0B0F0B0B6E5E
:102C6C000C6AC20E0B24D96E090E0C20DA6EDF50E2
:102C7C000A1012000701DA51DB11DC11D8B40DD0A7
:102C8C0001D80BD00500FA6EDA51FD6EDB51FE6EE9
:102C9C00DC51FF6EFA50010E120056C5F6F557C501
:102CAC00F7F524EC0BF0120007D008C5D9F409C5D0
:102CBC00DAF4DE2A000EDD2208C5D9F409C5DAF4EF
:102CCC00DEC40AF5DDC40BF50AC5D9F40BC5DAF47C
:102CDC00200EDE18D8A41200E8D732C515F533C57E
:102CEC0016F534C517F535C518F536C519F537C5BC
:102CFC001AF5000E1B6E9DECBCF015C532F516C511
:102D0C0033F517C534F518C535F512002E0EBE6F08
:102D1C00EE0EBF6FD8C5C0F5D9C5C1F5DAC5C2F581
:102D2C00DBC5C3F5DEC5C4F5DFC5C5F5DCC5C6F529
:102D3C00DDC5C7F5CFEC17F0A0EC19F012001BBEE7
:102D4C0005D01B5010E11A04D8B00DD01AC51CF5D3
:102D5C001BC51DF51C1E1D1E1C4A1D2A1CC51AF563
:102D6C001DC51BF512001AC51AF51BC51BF5120063
:102D7C00010E0C6E200E08180910D8B40ED0F70EE8
:102D8C0008240A6EFF0E09200B6E0B5004E1050E91
:102D9C000A5CD8A002D0000E0C6E0CC508F5096AAE
:102DAC0012001B6E00C71CF501C71DF51CC516F5DE
:102DBC001DC517F561EC18F01E6E1B501E18D8A41B
:102DCC0007D01906D8A01A0619501A10D8A4EED795
:102DDC001E501200200E08100A6E000E09100B6E09
:102DEC009F0E0A240C6EFF0E0B200D6E0D5006E18B
:102DFC001A0E0C5CD8B002D0010E01D0000E086E79
:102E0C00096A1200B7A00ED0C7C207F50750D8B494
:102E1C0004D00750B7EC12F005D0000E0701466F36
:102E2C00010E456F76EC13F02F513011D8A4110020
:102E3C00A7921100E3C5D8F5E4C5D9F5E50EDA6F14
:102E4C00050EDB6FACEC01F0E76FE751D8A4120074
:102E5C00E3C5D9F4E4C5DAF4000EDE6E000EDD6EC7
:102E6C001200D8510701435D4451800A516E05018F
:102E7C00D951800A5158D8B01200D70EBE6FE70E48
:102E8C00BF6FD8C5C0F5D9C5C1F5CFEC17F012008E
:102E9C00085009100A100B10D8B408D0000E081AEC
:102EAC00000E091A000E0A1A800E0B1A08C508F536
:102EBC0009C509F50AC50AF50BC50BF512000CC5B9
:102ECC000EF50DC50FF50CC508F50DC509F5000E71
:102EDC000B6E000E0A6E51EC19F020EE05F00E5040
:102EEC00D9260F50DA22DF50C86E12009F0E0C2428
:102EFC000E6EFF0E0D200F6E0F5009E11A0E0E5CB8
:102F0C00D8B005D05F0E0C140C6E0D6A12000CC5F7
:102F1C000CF50DC50DF5120000C744F501C745F5BC
:102F2C0044C542F545C543F583EC18F044C512F58C
:102F3C0045C513F5000E156E010E146E19EC12F04A
:102F4C001200650E086E070E096EF8EC18F00850AA
:102F5C000910D8B405D0DC0E0A6EEE0E0B6E120002
:102F6C003A0E0A6EF60E0B6E120008C5D9F409C59E
:102F7C00DAF40AC5DFF4084A092A0BC50AF50B6A0C
:102F8C0008C5D9F409C5DAF40AC5DFF4084A092AD8
:102F9C001200C00E0501D66F050ED76F000EB66F6E
:102FAC00000EB76FBEC5B8F5BFC5B9F5D60EBA6F72
:102FBC00050EBB6FE8EC0FF012000CD0050E096E7D
:102FCC000F0E086EF10EE82EFED7082EFCD7092E38
:102FDC00FAD700F007012F513011D8B41200EED7F8
:102FEC0008500A02F3C40CF5F4C40DF508500B029A
:102FFC00F3500D2609500A02F3500D260CC508F5A6
:10300C000DC509F512009F0E08240A6EFF0E09204B
:10301C000B6E0B5006E11A0E0A5CD8B002D0010EF2
:10302C0001D0000E086E096A1200BF0E08240A6E49
:10303C00FF0E09200B6E0B5006E11A0E0A5CD8B07D
:10304C0002D0010E01D0000E086E096A1200D00EDB
:10305C0008240A6EFF0E09200B6E0B5006E10A0EB7
:10306C000A5CD8B002D0010E01D0000E086E096ABD
:10307C0012002D682BC51CF52CC51DF52D0E1E6ED2
:10308C00050E1F6E000E216E010E206E3CEC07F03B
:10309C002D50120043C541F544C542F501D812002C
:1030AC000500FA6E0801F751FD6EF851FE6EF951EC
:1030BC00FF6EFA501200186816C508F517C509F509
:1030CC00180E0A6E050E0B6E000E0D6E010E0C6EB8
:1030DC0025ECC9F01850120042C508F543C509F596
:1030EC009CEC13F042C53EF543C53FF5000E416E16
:1030FC00010E406E50EC13F0120042C53EF543C574
:10310C003FF5000E416E000E406E50EC13F042C5C0
:10311C0008F543C509F509EC16F01200008040C013
:10312C0020A060E0109050D030B070F00008040C7B
:10313C00020A060E0109050D030B070F07EC09F037
:10314C0001D812000500FA6E0801F451FD6EF5511C
:10315C00FE6EF651FF6EFA5012000701DA51DB11C8
:10316C00DC11D8B406D056C5EEF557C5EFF59CEC7E
:10317C0006F05DEC15F012003E6E650E356E070E16
:10318C00366E000E386E040E376E3EC539F53A6A4F
:10319C0007ECF9F0120001D812000500FA6E0801D4
:1031AC00F151FD6EF251FE6EF351FF6EFA501200AA
:1031BC00EFC60AF5F0C60BF508C5EFF609C5F0F633
:1031CC000AC508F50BC509F5120054C50AF555C515
:1031DC000BF508C554F509C555F50AC508F50BC519
:1031EC0009F5120020EE02F00850D9260950DA2217
:1031FC00DEC408F5DDC409F51200FFFFFFFF010076
:10320C000100FFFF0F00FF00FF0001FFCF0116ECD4
:10321C0019F00AC508F50BC509F5C2EC19F0120036
:10322C0001D0490707014951800A7F0FD8A012002D
:10323C00F8D7000E086EC00E096EFF0E0A6EFF0E58
:10324C000B6E1200000E086E000E096E210E0A6E37
:10325C00000E0B6E1200A00E0701186F180E196FDE
:10326C00000E1A6F1200B5BA120007014551461133
:10327C00D8A41200F8D7086E0804D8A412000001D4
:10328C00D785D79512000A6EE3EC17F0B7A2FED7DC
:10329C000AC5C9F212000A500B10D8A402D0C2847D
:1032AC001200C2941200FF00000E0601BD6F000E4A
:1032BC00BC6F1200086E08A002D0C2821200C2922B
:1032CC00120056C5F6F557C5F7F58AEC0CF012004E
:1032DC00086E08A002D0C18E1200C19E1200086EAA
:1032EC0008A002D0C2801200C2901200000E07018A
:1032FC00366F0A0E356F1200000E0601BD6F010EFF
:10330C00BC6F1200086E08C5F4F70701F56B1200CC
:10331C00B5BA02D0D8901200D8801200CEBA02D022
:10332C00D8901200D8801200CEB002D0D8901200E3
:10333C00D8801200FF0E0B6E0A680DEC19F012000B
:10334C0004012095C284CA94120035C708F536C70B
:10335C0009F512003F0E096E08681200086E08C5C8
:10336C00C0F41200086E08C5C8F41200D050120048
:0A337C00CF501200FD511200FFD7E0
:10DCFC00008EF8700700EBF5710700BAF57207009B
:10DD0C00BDF4730700FBF574070191F66B0800AACC
:10DD1C00F46C08000FF46D080052F36E08000FF756
:10DD2C006F080051F5700800D0F4710800D1F3723F
:10DD3C0008002DF5730802819FE0FC407E80FC00FA
:10DD4C000090002900A10010000000E1FF0201B4C6
:10DD5C00F700024AFB000318FD000494FE00058E38
:10DD6C00FE0106D0F8000783FF000847F90009D32D
:10DD7C00F9000A51F9000B11FD000CB2FE000DACBC
:10DD8C00FE010E41FA000F88FF011052FC0211CC6B
:10DD9C00F70012ABF9001396FD0014D6FE0015D057
:10DDAC00FE0116DBF80017CDFF011854FF0019F126
:10DDBC00F9001A5BF9001B8FFD001CF4FE001DEE30
:10DDCC00FE011E4BFA001FD1FF0120E6FA0221E4EE
:10DDDC00F7022201F700231BFE002412FF00250C82
:10DDEC00FF0126E6F80027C9FF01284AFC00292D6F
:10DDFC00FA022A9FF6002B14FE002C30FF002D2A6D
:10DE0C00FF012E55FA002FDDFF0130DDFA0231FC47
:10DE1C00F7023243F7003337FE00349EFA00359593
:10DE2C00FA0136BBF60037D9FF013842FC0039370E
:10DE3C00FA023A36F7003B30FE003C76FE003D70AD
:10DE4C00FE013EC5F8003FD5FF0040B6FC0041E79F
:10DE5C00FC004234FD004365FD0044B9FD0045EA79
:10DE6C00FD00466FF9004785FC0048BDFC0049EEFB
:10DE7C00FC004A3BFD004B6CFD004CC0FD004DF11D
:10DE8C00FD004E79F9004F8CFC0050C4FC0051F59C
:10DE9C00FC005242FD005373FD0054C7FD0055F8C1
:10DEAC00FD005683F9005793FC0058CBFC0059FC3D
:10DEBC00FC005A49FD005B7AFD005CCEFD005DFF65
:10DECC00FD005E8DF9005F9AFC0060D2FC006103DE
:10DEDC00FD006250FD006381FD0064D5FD00650608
:10DEEC00FE006697F90067A1FC0068D9FC00690A7E
:10DEFC00FD006A57FD006B88FD006CDCFD006D0DAC
:10DF0C00FE006EA1F9006FA8FC0070BFF90071C98A
:10DF1C00F90072DDF90073E7F90074FBF900752361
:10DF2C00FA0076ABFF0077B5F90078AFFC0079E02A
:10DF3C00FC007A2DFD007B5EFD007CB2FD007DE3D4
:10DF4C00FD007E65F9007F7EFC008062FB00817A1B
:10DF5C00FB00829AFB0083B2FB0084DAFB00853263
:10DF6C00FC0086BAF8008742FB00885AFB008972D5
:10DF7C00FB008A92FB008BAAFB008CD2FB008D2A43
:10DF8C00FC008EAFF8008F3AFB009088FE0091A643
:10DF9C00FE0092CAFE0093E8FE009406FF00952452
:10DFAC00FF00968CFA00976AFE009852FB00996A63
:10DFBC00FB009A8AFB009BA2FB009CCAFB009D22E3
:10DFCC00FC009EA4F8009F32FB00A09AFE00A1B8B2
:10DFDC00FE00A2DCFE00A3FAFE00A418FF00A5368A
:10DFEC00FF00A6A7FA00A77CFE00A8A0FE00A9BE11
:10DFFC00FE00AAE2FE00AB00FF00AC1EFF00AD3C31
:10E00C00FF00AEB0FA00AF82FE00B0A1FE00B1BFBF
:10E01C00FE00B2E3FE00B301FF00B41FFF00B53DEC
:10E02C00FF00B6B1FA00B783FE00B88DFF00B992BD
:10E03C00FF00BA97FF00BB9CFF00BCA1FF00BDA670
:10E04C00FF00BE22FB00BF7EFF00C03EFE00C11FD2
:10E05C00FD02C208F802C3C2FA02C4F3F600C5827C
:10E06C00FB01C6A8F700C7E2FB00C84EFF00C9E5DC
:10E07C00FF02CA1DF900CB000002CC77F702CDF1EC
:10E08C00F801CE9CF700CF02FC00D026FD00D19DFC
:10E09C00FD02D2C0F701D3ADF602D4C9F600D5BA51
:10E0AC00FB01D605FA00D7EAFB00D8C4FE00D9E97B
:10E0BC00FF02DAFCF801DB29F702DC6AF700DD006D
:10E0CC000001DE90F700DF0AFC00E029FE00E122EF
:10E0DC00FE02E2F0F700E328F902E4E5F600E53A87
:10E0EC00FC01E60FFA00E7F2FB00E8A4FD00E92AC8
:10E0FC00FB02EAD8F700EBCBFA02ECD7F600ED0006
:10E10C000001EE19FA00EF12FC00F048FF00F1AB31
:10E11C00FD02F212F900F3F8FF02F45DF700F5C20C
:10E12C00FB01F61AFA00F7FAFB00F842FF00F9D4EB
:10E13C00FA02FA07F900FBFBFF02FC50F700FD00A6
:10E14C000001FEB9FA00FF1AFCF0000000C39600B3
:10E15C0043502F4D20626F6F742D6C6F616465722C
:10E16C0020666F72205A38302D53696D756C61744E
:10E17C006F720D0A0000000000000000000000009B
:10E18C000000000000000000000000000000000083
:10E19C000000000000000000000000000000000073
:10E1AC000000000000000000000000000000000063
:10E1BC000000000000000000000000000000000053
:10E1CC0000000000000000000000000000424F4F63
:10E1DC00543A206572726F7220626F6F74696E6749
:10E1EC000D0A002103007ED30123B7C29900ED462E
:10E1FC00FB010100210000AFD30A78D30B79D30CBB
:10E20C007DD30F7CD310AFD30DDB0EB7CA0000C685
:10E21C0030D3013E0DD3013E0AD3012180007EB7DD
:10E22C00CADC00D30123C3D100F376D3AC18273159
:10E23C00000000D3AB00C30E00ED73B10031AD0094
:10E24C00F5AF32B500C5D5E5DDE5FDE5ED7BB100FB
:10E25C00E122AF0018D52AB3007DB7B428421100D3
:10E26C0000060E1A77231310FA2AB30011040019B2
:10E27C0022AD00182B000000000000000000000080
:10E28C000000000000000000000000000000000082
:10E29C0000D3AB00ED73B10031AD00F53E0118A217
:10E2AC00DD2AB3003EAADD77092AB100DD7505DD54
:10E2BC0074063AA000DD770B2323F92AAF00E53171
:10E2CC00A100FDE1DDE1E1D1C1F1FBC900000000DD
:10E2DC00000000000000000004000000000000002E
:10E2EC00000010F60156D601000033F99BF20BF634
:10E2FC0000BA1B00000041EF63F583FA0004330001
:10E30C00000041EF0AEE84F702B49A010000DBF53D
:10E31C0067EBF5FF02B49A010000000000007AFAE6
:10E32C0004F8630100006FE92BED74FF02EEA70106
:10E33C000000DBF5FEEE79FF01C61400000069FC5D
:10E34C00FFE964FE00B232000000E3F4000070FC50
:10E35C0002F0C101000049F604ED66FE02A834018A
:10E36C00010097F4BEEB6AFF01BC210000003FF5F1
:10E37C00CEF077FC00A68D01000041EF5DF0DDF4DE
:10E38C000256E00102001CF713EC6FFF00F4BB0116
:10E39C000000A7F30000D3AE00ED73A000319C0089
:10E3AC00F53E0132A400C5D5E5DDE5FDE5ED7BA02C
:10E3BC0000E1229E0021000036D32336AFC30000BB
:10E3CC000000000000000000000000000000000041
:10E3DC00000000000000D3AC180A31000000D3AAE2
:10E3EC0000FBED4D2A3900310700E52323F92A37CC
:10E3FC0000E5312900FDE1DDE1E1D1C1F118DB00DF
:10E40C0000000000000000000000000400000000FC
:10E41C000000000000D3AD180500000000002A0425
:10E42C0000ED5B06003A08004FAF47EDB03E001818
:10E43C00E43100083E00D3AD7618F600ED45FBED57
:10E44C004D696F5F737461742829203D3D20494FDD
:10E45C005F535441545F4E4F545F53544152544593
:10E46C0044207C7C20696F5F737461742829203D83
:10E47C003D20494F5F535441545F53544F505045C6
:10E48C0044207C7C20696F5F737461742829203D63
:10E49C003D20494F5F535441545F494E54455252AD
:10E4AC005550544544207C7C20696F5F73746174B3
:10E4BC002829203D3D20494F5F535441545F505211
:10E4CC004550494E564F4B45207C7C20696F5F73FD
:10E4DC007461742829203D3D20494F5F53544154A9
:10E4EC005F4D4F4E49544F5200696F5F73746174A6
:10E4FC002829203D3D20494F5F535441545F4E4FD6
:10E50C00545F53544152544544207C7C20696F5FC6
:10E51C00737461742829203D3D20494F5F53544149
:10E52C00545F53544F50504544207C7C20696F5F9E
:10E53C00737461742829203D3D20494F5F53544129
:10E54C00545F4D4F4E49544F52004449534B3A205F
:10E55C004F503D2530327820442F542F533D2564A5
:10E56C002F2533642F2533642020202020202020C9
:10E57C0020202020414444523D2530317825303232
:10E58C007825303278202852442049474E4F524546
:10E59C0044290A0D004449534B3A204F503D253035
:10E5AC00327820442F542F533D25642F2533642F6C
:10E5BC0025336420202020202020202020202041D2
:10E5CC004444523D2530317825303278253032782C
:10E5DC00202857522049474E4F524544290A0D00D6
:10E5EC0025733A204552524F523A20492F4F20253D
:10E5FC003573202533642C202533642028253032B4
:10E60C0058482C20253032584829207768696C6589
:10E61C002077616974696E6720666F7220256420AB
:10E62C00282530325848290A0D004449534B3A20CA
:10E63C004F503D2530327820442F542F533D2564C4
:10E64C002F2533642F25336420782533643D2535FD
:10E65C006C6420414444523D253031782530327869
:10E66C0025303278202E2E2E2053543D25303278F2
:10E67C000A0D004449534B3A204F503D2530327817
:10E68C0020442F542F533D25642F2533642F2533DD
:10E69C0064202020202020202020202020414444C1
:10E6AC00523D253031782530327825303278202E85
:10E6BC002E2E200A0D002F55736572732F74616B0B
:10E6CC00656D7572612F776F726B73706163652FF7
:10E6DC006769746875622F53757065724D455A3849
:10E6EC00302F7372632F6D6F6E69746F722E6300AF
:10E6FC002F55736572732F74616B656D7572612F15
:10E70C00776F726B73706163652F6769746875627C
:10E71C002F53757065724D455A38302F7372632FB5
:10E72C006D656D6F72792E63005344204361726482
:10E73C003A20726561643531323A20435243206588
:10E74C0072726F7220282530347820213D202530BC
:10E75C0034782C2072657472793D2564290A0D0079
:10E76C005741524E494E473A206E6F204750494F01
:10E77C0020657870616E64657220746F20636F6EB3
:10E78C0074726F6C2068696768657220616464726A
:10E79C006573730A0D002F55736572732F74616B5B
:10E7AC00656D7572612F776F726B73706163652F16
:10E7BC006769746875622F53757065724D455A3868
:10E7CC00302F7372632F696F2E63005741524E497D
:10E7DC004E473A20746F6F206D616E792062616EC6
:10E7EC006B73207265717565737465642E20287265
:10E7FC00657175657374206973202564290A0D0091
:10E80C0074797065202768656C702720746F20738D
:10E81C00656520746865206C697374206F6620616F
:10E82C007661696C61626C6520636F6D6D616E649D
:10E83C00730A0D00496D6167652066696C6520255A
:10E84C00732F445249564525632E44534B2069730C
:10E85C002061737369676E656420746F20647269DC
:10E86C0076652025630A0D005741524E494E473AB2
:10E87C0020756E6B6E6F776E20492F4F2077726903
:10E88C0074652025642C20256420282530325848B6
:10E89C002C202530325848290A0D006469736B5FAF
:10E8AC00696F63746C3A20706472763D25642C2019
:10E8BC00636D643D25642C20627566663D30782559
:10E8CC006C783A207265733D25640A0D0053442020
:10E8DC00436172643A2020726561643531323A20AA
:10E8EC00616464723D25386C642C206F6666733DE0
:10E8FC0025642C20636F756E743D25640A0D0053DE
:10E90C004420436172643A20777269746535313200
:10E91C003A20616464723D25386C642C206F666605
:10E92C00733D25642C20636F756E743D25640A0D50
:10E93C0000534420436172643A20777269746535E0
:10E94C0031323A206661696C656420746F206765AA
:10E95C007420746F6B656E2C2074696D656F7574A3
:10E96C000A0D005B64726976655D5B2C7472616381
:10E97C006B5D5B2C736563746F725D5B2C6C656E89
:10E98C006774685D206F72205B64726976652C5DBC
:10E99C004C4241004449534B3A202072656164203B
:10E9AC00442F542F533D25642F2533642F25336476
:10E9BC0020782533643D25356C643A204552524FFE
:10E9CC00520A0D00534420436172643A20777269F5
:10E9DC0074653531323A2074696D656F75742C200D
:10E9EC00726573706F6E7365206973202530327891
:10E9FC000A0D004A756D7020746F20737065636921
:10EA0C0066696564206164647265737320616E6409
:10EA1C0020737461727420657865637574696F6EA8
:10EA2C002000534420436172643A20434D443538EE
:10EA3C002C2052333D253032782025303278202559
:10EA4C00303278202530327820253032780A0D008B
:10EA5C0025733A204552524F523A20636C6F636BC8
:10EA6C00207370656564202564206973206E6F7453
:10EA7C0020737570706F727465640A0D00534420B6
:10EA8C00436172643A20434D44382C2052373D2563
:10EA9C0030327820253032782025303278202530DD
:10EAAC00327820253032780A0D004449534B3A20F5
:10EABC00207265616420442F542F533D25642F250B
:10EACC0033642F25336420782533643D25356C64FD
:10EADC003A204F4B0A0D006469736B5F696F637466
:10EAEC006C3A20706472763D25642C20636D643D15
:10EAFC0025643A204E6F742068616E646C65642ED8
:10EB0C000A0D006469736B5F726561643A20207052
:10EB1C006472763D25642C20736563746F723D2599
:10EB2C006C642C20636F756E743D25640A0D006453
:10EB3C0069736B5F77726974653A20706472763DA5
:10EB4C0025642C20736563746F723D256C642C20D6
:10EB5C00636F756E743D25640A0D005472616E739B
:10EB6C006C617465206D616368696E6520636F64A8
:10EB7C0065206F6E207468652074617267657420FF
:10EB8C006D656D6F727900534420436172643A2055
:10EB9C00434353202843617264204361706163696D
:10EBAC007479205374617475732920697320300A49
:10EBBC000D00446973706C6179206F722063686119
:10EBCC006E6765207370656369666965642064654A
:10EBDC00627567207661726961626C6500534420CE
:10EBEC00436172643A2077726974653531323A2028
:10EBFC00435243206572726F722028726574727969
:10EC0C003D2564290A0D0057726974652062797478
:10EC1C0065206F7220737472696E6720746F207434
:10EC2C00686520746172676574206D656D6F7279AB
:10EC3C0000534420436172643A2043617264207033
:10EC4C006F776572207570207374617475732062B0
:10EC5C00697320697320300A0D007472616D706FD6
:10EC6C006C696E655F696E7374616C6C6564202190
:10EC7C003D204D4D555F494E56414C49445F4241F4
:10EC8C004E4B0072656164204D425220706172746B
:10EC9C006974696F6E207461626C65206174207395
:10ECAC006563746F7220300A0D005741524E494E05
:10ECBC00473A20756E6B6E6F776E20492F4F20721E
:10ECCC0065616420256420282530325848290A0DB6
:10ECDC0000534420436172643A20207265616435AC
:10ECEC0031323A20736563746F723D256C643A203F
:10ECFC004552524F520A0D00446973706C61792071
:10ED0C006461746120626C6F636B28732920667276
:10ED1C006F6D207468652053442043617264004415
:10ED2C006973706C617920736563746F72287329D1
:10ED3C002066726F6D206469736B20696D61676505
:10ED4C002066696C6500534420436172643A205319
:10ED5C00444843206F7220534458432063617264CB
:10ED6C002064657465637465640A0D0025733A202C
:10ED7C004552524F523A206D6F64652025642069CC
:10ED8C0073206E6F7420737570706F727465640A83
:10ED9C000D00534420436172643A20696E697469B2
:10EDAC00616C697A65202E2E2E2073756363656500
:10EDBC006465640A0D00534420436172643A207503
:10EDCC006E657870656374656420726573706F6EC0
:10EDDC00736520253032780A0D005344204361724C
:10EDEC00643A2020726561643531323A2073656370
:10EDFC00746F723D256C643A204F4B0A0D004578B8
:10EE0C006974206D6F6E69746F7220616E6420631B
:10EE1C006F6E74696E756520657865637574696F5E
:10EE2C006E00417373657274696F6E206661696CF4
:10EE3C0065643A202573202825733A2025733A20DF
:10EE4C002564290A00534420436172643A204143EB
:10EE5C004D44343120726573706F6E736520697325
:10EE6C0020253032780A0D00534420436172643AF5
:10EE7C002077726974653531323A20746F6B656E28
:10EE8C0020697320253032780A0D004552524F52BA
:10EE9C003A2062616E6B202564206973206E6F745A
:10EEAC0020617661696C61626C652E0A0D005344B9
:10EEBC0020436172643A20434D44353920726573A6
:10EECC00706F6E736520697320253032780A0D00DF
:10EEDC0053757065724D455A38302B535049207715
:10EEEC00697468204750494F20657870616E64657D
:10EEFC007200446973706C61792064617461206F75
:10EF0C006E2074686520746172676574206D656D20
:10EF1C006F7279004D656D6F727920303030303002
:10EF2C0030202D202530366C5848202564204B424B
:10EF3C00204F4B0D0A00706172746974696F6E20FA
:10EF4C0073746172747320617420736563746F726F
:10EF5C0020256C640A0D0025733A20696E74657265
:10EF6C0072757074206973206E6F7420617661699C
:10EF7C006C61626C650A0D0055736520524133203B
:10EF8C0065787465726E616C20636C6F636B206660
:10EF9C006F72205A38300A0D00557365204E434F5E
:10EFAC0020252E3266204D487A20666F72205A3802
:10EFBC003020636C6F636B0A0D00665F7772697447
:10EFCC006528293A204552524F52207265733D25CF
:10EFDC00642C206E3D25640A0D00665F72656164C9
:10EFEC0028293A204552524F52207265733D2564B0
:10EFFC002C206E3D25640A0D00696F5F696E766F7B
:10F00C006B655F7461726765745F6370755F74655F
:10F01C006172646F776E006661696C656420746FF1
:10F02C0020777269746520736563746F7220256C28
:10F03C00640A0D00696F5F696E766F6B655F746152
:10F04C00726765745F6370755F707265706172650D
:10F05C0000446973706C61792073746174757320EA
:10F06C006F662074686520746172676574006661F0
:10F07C00696C656420746F207265616420736563CC
:10F08C00746F7220256C640A0D000A0D53442043E2
:10F09C006172643A20696E697469616C697A652081
:10F0AC002E2E2E0A0D00436C656172206272656112
:10F0BC006B706F696E74206174202530346C580A43
:10F0CC000D0045786563757465206E6578742069EC
:10F0DC006E737472756374696F6E28732900534470
:10F0EC0020436172643A2041434D4434312C205208
:10F0FC00313D253032780A0D000A0D526573657466
:10F10C0020627920494F20706F727420253032585C
:10F11C00480A0D004661696C656420746F206F703D
:10F12C00656E20534420436172642E2E0A0D0046F6
:10F13C0061696C656420746F206D6F756E742053FB
:10F14C004420436172642E0A0D006661696C65642B
:10F15C0020746F207265616420736563746F722014
:10F16C00300A0D000A0D48414C5420627920494F59
:10F17C0020706F72742025303258480A0D00536588
:10F18C007420627265616B706F696E74206174209B
:10F19C002530346C580A0D006469736B5F696E69B5
:10F1AC007469616C697A65282564292E2E2E0A0DE6
:10F1BC0000534420436172643A206E6F742073755F
:10F1CC00706F70727465640A0D0053442043617251
:10F1DC00643A20434D44302C2052313D2530327856
:10F1EC000A0D00202020202020202020202020205C
:10F1FC00202020202020202020200D007761697401
:10F20C0020666F722070726F6772616D6D6572200F
:10F21C002E2E2E0D00496E76616C6964206172672A
:10F22C00756D656E743A20272573270A0D005354AB
:10F23C00415455533A202563256325632563256383
:10F24C0025632563256300257325353373204348D7
:10F25C0045434B53554D3A20253032780A0D005515
:10F26C006E6B6E6F776E207661726961626C652071
:10F27C00272573270A0D00427265616B706F696EEA
:10F28C0074206973206E6F74207365740A0D0053BB
:10F29C006574206F722073686F7720627265616B82
:10F2AC0020706F696E74004D656D6F72792030300F
:10F2BC0030303030202D202530366C58480D007001
:10F2CC006879736963616C20647269766572202158
:10F2DC003D20300A0D0025733A206E6F20696E7444
:10F2EC006572727570742070696E0A0D00416D62E2
:10F2FC006967756F757320636F6D6D616E64202522
:10F30C00730A0D00665F6C7365656B28293A20459E
:10F31C0052524F522025640A0D00427265616B7087
:10F32C006F696E74206973202530346C580A0D0097
:10F33C00556E6B6E6F776E20636F6D6D616E643A98
:10F34C002025730A0D0064656275675F66617464DD
:10F35C0069736B5F766572626F7365006E6F2046C2
:10F36C004154333220706172746974696F6E0A0D86
:10F37C0000665F73796E6328293A204552524F52CA
:10F38C002025640A0D00696F5F696E766F6B655F8F
:10F39C007461726765745F63707500446973706C37
:10F3AC0061792074686973206D657373616765009A
:10F3BC007265696E7374616C6C5F7472616D706F81
:10F3CC006C696E650064656275675F736463617216
:10F3DC00645F766572626F7365006D6F6E5F6173EB
:10F3EC00736572745F696E746572727570740053B4
:10F3FC0050495F494F4558505F636F6E666967753A
:10F40C0072650064656275675F6661746469736BCD
:10F41C005F77726974650073697A656F66287061CD
:10F42C0072616D7329203D3D2035004D3A204D6FA2
:10F43C006E69746F722070726F6D70740A0D006E4D
:10F44C006F204D4252207369676E61747572650A44
:10F45C000D00534420436172643A2074696D656FEA
:10F46C0075740A0D00696E76616C6964206472694A
:10F47C0076652025640A0D007772697465205B61DE
:10F48C006464725D2C76616C0A0D005B7661726946
:10F49C0061626C655D5B3D76616C75655D00646594
:10F4AC006275675F6661746469736B5F72656164D2
:10F4BC000064656275675F6469736B5F7665726221
:10F4CC006F73650064656275675F73646361726412
:10F4DC005F7772697465005265737461727420741D
:10F4EC0068652073797374656D005F5F6D656D631E
:10F4FC0070795F6F6E5F746172676574006E6F20F8
:10F50C0076616C696420766F6C756D650A0D0053BD
:10F51C004420436172643A2072656164792E0A0D4D
:10F52C00007A38305F636C6F636B5F4E434F3149C9
:10F53C004E43005B6E756D626572206F662073744E
:10F54C006570735D0064656275675F736463617297
:10F55C00645F7265616400436C6561722062726500
:10F56C00616B20706F696E74002573206973207352
:10F57C00656C65637465642E0A0D005350495F53C6
:10F58C00445F636F6E666967757265004272656190
:10F59C006B206174202530346C580A0D004D4D558C
:10F5AC003A2062616E6B2025303258202000646551
:10F5BC006275675F6469736B5F7772697465002548
:10F5CC00733D256C642028256C5868290A0D005B56
:10F5DC00616464725D5B2C6C656E6774685D00645D
:10F5EC00656275675F6469736B5F72656164006403
:10F5FC00656275675F6469736B5F6D61736B0063E4
:10F60C006C656172627265616B706F696E74004ECD
:10F61C006F20626F6F74206469736B2E0A0D002A61
:10F62C002B2C3A3B3C3D3E5B5D7C223F7F0053756F
:10F63C007065724D455A38302B535049005B4C4223
:10F64C00415D5B2C6C656E6774685D0025732F449F
:10F65C005249564525632E44534B004E6F2053445C
:10F66C0020436172643F0A0D00696F5F77616974B2
:10F67C005F77726974650025733D256420282558D1
:10F68C0068290A0D0064656275675F666174646958
:10F69C00736B004C4420484C2C2825303458482996
:10F6AC00004F555420282530325848292C41004C05
:10F6BC00442028484C292C25303258480043414CD2
:10F6CC004C204E432C25303458480043414C4C20A0
:10F6DC0050452C25303458480043414C4C20504F59
:10F6EC002C25303458480043414C4C204E5A2C2584
:10F6FC0030345848004C4420282530345848292CA4
:10F70C00484C0064656275675F7364636172640082
:10F71C005B616464725D2C76616C756500494E208A
:10F72C00412C28253032584829004C4420412C28A3
:10F73C00253034584829004C44202825303458486A
:10F74C00292C410043414C4C204D2C253034584839
:10F75C000043414C4C20502C253034584800434138
:10F76C004C4C20582C25303458480043414C4C20EC
:10F77C005A2C253034584800646973617373656D75
:10F78C00626C650053424320412C253032584800AE
:10F79C0041444320412C25303258480041444420F8
:10F7AC00412C2530325848004C442042432C253003
:10F7BC00345848004A50204E432C253034584800C9
:10F7CC004C442044452C2530345848004A50205095
:10F7DC00452C2530345848004C4420484C2C2530BE
:10F7EC00345848004A5020504F2C2530345848008B
:10F7FC004C442053502C2530345848004A50204E4D
:10F80C005A2C253034584800426F6172643A2025D6
:10F81C00730A0D0070726F6772616D3A0A0D0049C0
:10F82C00593A20253034580A0D000A0D202020208A
:10F83C0025730A0D0042433A20253034582020000D
:10F84C0050433A202530345820200044453A202596
:10F85C0030345820200041463A202530345820209E
:10F86C0000484C3A202530345820200053503A2080
:10F87C002530345820200049583A2025303458205F
:10F88C00200064656275675F6469736B006C656EFC
:10F89C00203C3D203235360053424320412C284831
:10F8AC004C290041444320412C28484C2900414418
:10F8BC004420412C28484C29004C4420412C253014
:10F8CC00325848004C4420422C2530325848004CC9
:10F8DC004420442C2530325848004C4420482C25D8
:10F8EC00303258480043414C4C20253034584800A5
:10F8FC004A5020432C2530345848004A50204D2C77
:10F90C002530345848004A5020502C253034584863
:10F91C00004A50205A2C253034584800455820288D
:10F92C005350292C484C005B616464726573735DA1
:10F93C00006D6F6E5F73657475700045582041469D
:10F94C002C414627004C4420412C28424329004C92
:10F95C004420412C28444529004C4420412C284863
:10F96C004C29004C4420422C28484C29004C442063
:10F97C00432C28484C29004C4420442C28484C2922
:10F98C00004C4420452C28484C29004C4420482C41
:10F99C0028484C29004C44204C2C28484C29004C1D
:10F9AC004420284445292C41004C442028484C290B
:10F9BC002C41004C442028484C292C42004C44201B
:10F9CC0028484C292C430041444420484C2C4243A9
:10F9DC00004C442028484C292C44004C44202848F6
:10F9EC004C292C450041444420484C2C4445004CA7
:10F9FC00442028484C292C480053554220253032AD
:10FA0C00584800414E4420253032584800584F5237
:10FA1C00202530325848004C442028484C292C4C86
:10FA2C000041444420484C2C484C0041444420485C
:10FA3C004C2C5350004C4420432C25303258004C55
:10FA4C004420452C25303258004C44204C2C253079
:10FA5C0032580025732530366C783A0046415433C1
:10FA6C003220202000737461636B3A0A0D006469C4
:10FA7C00736B7265616400636F6E74696E7565009B
:10FA8C005355422028484C29004445432028484CD3
:10FA9C002900494E432028484C2900414E44202837
:10FAAC00484C2900584F522028484C2900435020DC
:10FABC002530325848004A502025303458480045EB
:10FACC00582044452C484C004C442053502C484C56
:10FADC00004A52204E432C2564004A52204E5A2C88
:10FAEC0025640025643A2025730A0D0053656C6566
:10FAFC0063743A200043504D4449534B53002573D3
:10FB0C00253034783A004572726F720A0D000D255B
:10FB1C007325730A0D0043502028484C29004A5085
:10FB2C002028484C290053424320412C4100414499
:10FB3C004320412C410041444420412C41004C4481
:10FB4C002042432C410053424320412C420041446B
:10FB5C004320412C420041444420412C420053425A
:10FB6C004320412C430041444320412C4300414459
:10FB7C004420412C430050555348204243005342EB
:10FB8C004320412C440041444320412C4400414437
:10FB9C004420412C440053424320412C4500414415
:10FBAC004320412C450041444420412C45005055F4
:10FBBC005348204445005055534820414600534279
:10FBCC004320412C480041444320412C48004144EF
:10FBDC004420412C4800525354203030480052539A
:10FBEC005420313048005253542032304800525384
:10FBFC00542033304800525354203038480052536C
:10FC0C005420313848005253542032384800525353
:10FC1C0054203338480053424320412C4C0041447B
:10FC2C004320412C4C0041444420412C4C00505565
:10FC3C00534820484C004A5220432C2564004A5219
:10FC4C00205A2C256400444A4E5A2C2564004350FB
:10FC5C004D4449537E003C25643E0A0D005B6164B3
:10FC6C0064725D00736472656164007374617475B1
:10FC7C0073004C4420412C41004C4420422C410048
:10FC8C004C4420432C41004C4420442C41004C4417
:10FC9C0020452C41004C4420482C41004C44204C25
:10FCAC002C41004C4420412C42004C4420422C421C
:10FCBC00004C4420432C42004C4420442C42004C29
:10FCCC004420452C42004C4420482C42004C4420FB
:10FCDC004C2C42004C4420412C43004C4420422CE0
:10FCEC0043004C4420432C43004C4420442C430000
:10FCFC004C4420452C43004C4420482C43004C449D
:10FD0C00204C2C430044454320424300494E4320A1
:10FD1C00424300504F5020424300524554204E4322
:10FD2C00004C4420412C44004C4420422C44004CB8
:10FD3C004420432C44004C4420442C44004C44208C
:10FD4C00452C44004C4420482C44004C44204C2C62
:10FD5C0044004C4420412C45004C4420422C45008E
:10FD6C004C4420432C45004C4420442C45004C442E
:10FD7C0020452C45004C4420482C45004C44204C3C
:10FD8C002C450044454320444500494E43204445FE
:10FD9C0000504F50204445005245542050450050CF
:10FDAC004F50204146004C4420412C48004C4420EC
:10FDBC00422C48004C4420432C48004C4420442CFA
:10FDCC0048004C4420452C48004C4420482C48000A
:10FDDC004C44204C2C48004C4420412C4C004C44AE
:10FDEC0020422C4C004C4420432C4C004C442044CE
:10FDFC002C4C004C4420452C4C004C4420482C4CA2
:10FE0C00004C44204C2C4C0044454320484C0049A9
:10FE1C004E4320484C00504F5020484C0052455403
:10FE2C0020504F0044454320535000494E4320532B
:10FE3C005000524554204E5A002530366C58200044
:10FE4C002025303278006661743A20006275663A7B
:10FE5C0020000D2573200D007265736574005355D9
:10FE6C0042204100444543204100494E432041007B
:10FE7C00414E44204100584F5220410053554220DE
:10FE8C004200444543204200494E43204200414E2B
:10FE9C0044204200584F5220420053554220430008
:10FEAC00444543204300494E43204300414E4420E7
:10FEBC004300584F522043005245542043005355A1
:10FECC0042204400444543204400494E4320440012
:10FEDC00414E44204400584F522044005355422078
:10FEEC004500444543204500494E43204500414EC2
:10FEFC0044204500584F522045005355422048009D
:10FF0C00444543204800494E43204800414E44207C
:10FF1C004800584F52204800535542204C0044454D
:10FF2C0043204C00494E43204C00414E44204C0091
:10FF3C00584F52204C00524554204D0052455420ED
:10FF4C005000524554205A004A5220256400253056
:10FF5C003258200053443A20004D4F4E3E007374EB
:10FF6C0065700068656C700064756D70006A756D05
:10FF7C0070004350204100524C43410052524341C7
:10FF8C000043502042004350204300435020440083
:10FF9C00435020450043502048004350204C00481B
:10FFAC00414C5400303A2F2F00696E66006E616E22
:10FFBC00006C6C73000D25730020257300444141C7
:10FFCC0000524C41005252410043434600534346B9
:10FFDC000043504C004E4F50005245540045585869
:10FFEC00003F3F3F004D0A0D006469004449004545
:03FFFC00490000B9
:020000040001F9
:10000000E6EC00F001D80BD00500FA6E0701D451E0
:10001000FD6ED551FE6ED651FF6EFA501200D8A07B
:100020001200000E0901EA6F000EE96F01D80BD033
:100030000500FA6E0801E851FD6EE951FE6EEA51C5
:10004000FF6EFA5012000901F06F01D80BD00500C5
:10005000FA6E0801E551FD6EE651FE6EE751FF6E46
:10006000FA5012000901F16F0701D751D811D911C7
:10007000D8A406D0000E0901DC6F010EDB6F14D08E
:1000800001D80AD00500FA6ED751FD6ED851FE6E28
:10009000D951FF6EFA501200D8A002D0010E01D043
:1000A000000E0901DB6FDC6BDB51DC11D8B426D00C
:1000B0000701F5BF23D0000E366F230E356F01D830
:1000C0000BD00500FA6EE951FD6EEA51FE6EEB5160
:1000D000FF6EFA50000E120001D80CD00500FA6E27
:1000E0000701CE51FD6ECF51FE6ED051FF6EFA501A
:1000F000F45112000701F469F5691CD10701D751C9
:10010000D811D911D8A406D0000E0901DE6F010E56
:10011000DD6F14D001D80AD00500FA6ED751FD6EFC
:10012000D851FE6ED951FF6EFA501200D8A002D0FD
:10013000010E01D0000E0901DD6FDE6BDD51DE1115
:10014000D8B406D0000E0701366F280E356F61D285
:10015000000E0701366F1E0E356F01D8CBD005009B
:10016000FA6EE951FD6EEA51FE6EEB51FF6EFA50E8
:10017000000E1200070133513411D8B405D001D854
:10018000D3D00500FA6EADD001D8CED00500FA6EFE
:10019000CE51FD6ECF51FE6ED051FF6EFA50000E63
:1001A0001200E3EC17F013EC0EF00901DA6F01D83E
:1001B000BBD00500FA6E0701CE51FD6ECF51FE6E29
:1001C000D051FF6EFA500901DA511200070129518E
:1001D0002A11D8B427D0500E295D0601D46F0A0E1B
:1001E00007012A590601D56FD5BF06D0D5511AE1AE
:1001F000800ED45DD8B016D001D810D00500FA6EAC
:100200000701CE51FD6ECF51FE6ED051FF6EFA50F8
:1002100029C7D9F42AC7DAF4DF5012000701294BA5
:100220002A2B82D007017051D8A409D07151D8A4CB
:1002300006D07251D8A403D07351D8B475D0560EDD
:100240000501BE6FE50EBF6FF2C6C0F5C16BF3C608
:10025000C2F5C36B4BC7C4F5C56B2BC7C6F52CC71E
:10026000C7F556C5C8F557C5C9F54AC7CAF5CB6B1A
:10027000F1C6CCF5CD6BCFEC17F056D001D854D0E9
:100280000500FA6E0701CE51FD6ECF51FE6ED051C2
:10029000FF6EFA50FC51120001D846D00500FA6EEC
:1002A0000701CE51FD6ECF51FE6ED051FF6EFA5058
:1002B000C0EC19F01200B60E0501BE6FEC0EBF6F58
:1002C000F0C9C0F5C16BF0C9C2F5C36BCFEC17F034
:1002D000000E0701466F010E456F01D825D00500BD
:1002E000FA6ECE51FD6ECF51FE6ED051FF6EFA50B8
:1002F000FF0E12000901F0510601D46FD56BD551E4
:10030000000AD8A4D8D7D451000AD8B433D7010AE8
:10031000D8B447D7090AD8B459D7060AD8B4AED743
:10032000AE0AD8B4B9D7C7D7070145514611D8A4EA
:100330005DEC15F001D80CD00500FA6E0701D15123
:10034000FD6ED251FE6ED351FF6EFA50000E1200B8
:1003500001D80BD00500FA6E0701CB51FD6ECC51D0
:10036000FE6ECD51FF6EFA50120001D80CD0050080
:10037000FA6E0701C851FD6EC951FE6ECA51FF6E7B
:10038000FA50010E120001D80BD00500FA6E0701D9
:10039000C551FD6EC651FE6EC751FF6EFA50120078
:1003A000D8A0F1D701D80CD00500FA6E0701E951A9
:1003B000FD6EEA51FE6EEB51FF6EFA50FF0E120019
:1003C000070145514611D8A4A9D153EF87F009017F
:1003D000F15104EC13F0254B262B59D1070129517B
:1003E0002A11D8B42ED0500E295D0601D46F0A0E02
:1003F00007012A590601D56FD5BF06D0D55121E195
:10040000800ED45DD8B01DD029C7D9F42AC7DAF43C
:10041000F1C9DFF40701294B2A2B500E295D060193
:10042000D46F0A0E07012A590601D56F800ED41920
:10043000D511D8A42CD1000E0901EA6F010EE96F85
:1004400026D107017051D8A409D07151D8A406D083
