:0400000081EF00F09C
:10000800B022B022B022B0224000B0224000B0227C
:10001800B022B022B022B022B022B022B022B02248
:10002800B022400040004000B022B022B022B022EE
:10003800B022B022B022B022B022B022B0229D2439
:10004800B022B022B022B02240004000B022B0223C
:10005800B022B022B0224000B022B022B022B0229A
:10006800B022B022B022B022B022B022B022B022F8
:10007800B022B022B022B0224000B022B022B0227A
:10008800B022B022B022B022B022B022B022B022D8
:10009800B022B022B022B0224000B022400040007E
:1000A800B022B022B022B022B022B022B022B022B8
:1000B800B022B022B022B022B022B022B022B022A8
:1000C800B022B022B022B022B022B022B022B02298
:1000D800B022B022B022B022B022B022B022B02288
:1000E8004000B022B022B022400040004000400052
:1000F800B022B022B022B022FF00C2EF1AF000C92D
:100108004BF501C94CF502C94DF503C94EF53BC580
:100118004BF53CC54CF53DC54DF53EC54EF5810E3C
:100128003F6EFF0E406E4BC541F54CC542F54DC5BF
:1001380043F54EC544F5180E05D0D89044324332E5
:1001480042324132E82EF9D741503F24496E000E21
:1001580040204A6E4ABE0FD04A5004E1170E495C4F
:10016800D8A009D03BC53BF53CC53CF53DC53DF5A0
:100178003EC53EF512004ABE5BD049C53FF5FF0EAD
:10018800406EFF0E416E7F0E426E000E436E3F665C
:1001980001D007D0433443324232413240323F2EFD
:1001A800F6D740C545F541C546F542C547F543C5AF
:1001B80048F545504B143F6E46504C14406E47501E
:1001C8004D14416E48504E14426E3F50401041103D
:1001D8004210D8B4C7D74BC53FF54CC540F54DC5FF
:1001E80041F54EC542F5200E05D0D8904232413235
:1001F80040323F32E82EF9D73F50D8B408D04550A6
:100208004B2646504C2247504D2248504E22451C02
:100218003F6E461C406E471C416E481C426E3F5064
:100228004B1640504C1641504D1642504E1632D087
:100238004BC53FF54CC540F54DC541F54EC542F59A
:10024800200E05D0D8904232413240323F32E82E5B
:10025800F9D73F6608D0000E4B6E000E4C6E000EAC
:100268004D6E000E16D0D8904B343F6E4C34406E15
:100278004D34416E4E34426E3F5040104110421092
:10028800D8B408D0000E4B6E000E4C6E800E4D6E2A
:10029800BF0E4E6E4BC53BF54CC53CF54DC53DF507
:1002A8004EC53EF5120068C513F569C514F5F6ECA0
:1002B8003EF0090134513511D8A406D0000E0501CD
:1002C800776F1F0E766F04D034C976F535C977F588
:1002D800000E0501796F000E786F57D068C50AF5D2
:1002E80069C50BF545EC22F00AC57AF50BC57BF517
:1002F80005017A2912E17B29D8A40FD009013451CC
:100308003511D8A405D0050178517911D8A405D0A4
:100318007AC568F57BC569F5120078517911D8A4BA
:1003280018D02B0E7A197B11D8B405D02D0E7A1956
:100338007B11D8A40ED0620E7825D96E0A0E7921C9
:10034800DA6E7AC5DFF4784B792B0901304B312B03
:100358001CD0D00E7A256C6FFF0E7B216D6F6D510E
:1003680004E10A0E6C5DD8A0E6D77A2903E17B295F
:10037800D8B41CD07AC508F57BC509F568C50AF557
:1003880069C50BF574EC35F011D005017651785D2F
:100398007951800A6C6F7751800A6C59D8B006D0B1
:1003A800795104E11F0E785DD8A098D7620E050137
:1003B8007825D96E0A0E7921DA6E000EDF6E620E8C
:1003C800606F0A0E616F740E626F050E636F000E28
:1003D800656F0A0E646F7DEC44F060C56CF561C50D
:1003E8006DF562C56EF563C56FF564C570F565C5D5
:1003F80071F566C572F567C573F56AC5D9F46BC53D
:10040800DAF46CC5DEF46DC5DEF46EC5DEF46FC5D6
:10041800DEF470C5DEF471C5DEF472C5DEF473C5B2
:10042800DEF4090138513911D8A40AD005017851F0
:100438007911D8B405D0000E696F010E686F1200EB
:10044800FF0E0501696FFE0E686F12000801FB05BB
:10045800D8B41CD0FB51D8A404D00501F869F969B7
:100468001200E951EA11EB11D8A40ED0F10E0501E2
:10047800C76FE20EC86F030EC96FEB0ECA6F03ECAD
:1004880048F0000EFB6FE9D7010EFB6F12EC4AF043
:100498000A0E08180910D8B421D012EC4AF0320E0E
:1004A80008180910D8B41AD012EC4AF05A0E0818D5
:1004B8000910D8B413D0A70E0501E36FDB0EE46F63
:1004C800600EE56FDF0EE66F030EE86F490EE76F0B
:1004D800030EE96FEB0EEA6FBFEC46F012EC4AF040
:1004E800F8C5D9F4F9C5DAF408C5DEF409C5DDF4B0
:1004F80012EC4AF05A0E08180910D8A406D0000EBB
:100508000501F96F000EF86F120012EC4AF00A0E9E
:1005180008180910D8A442D0000E0B6E010E0A6EFE
:1005280096EC48F0000E1A6E000E1B6E000E1C6E44
:10053800000E1D6E770E1E6EDA0E1F6E000E216EF7
:100548000A0E206EF7EC37F001D80BD00500FA6ED2
:100558000901D451FD6ED551FE6ED651FF6EFA5089
:100568001200000E086E000E096E000E0A6E000ED4
:100578000B6E01D80BD00500FA6E0901C551FD6E4E
:10058800C651FE6EC751FF6EFA501200000E0501EB
:10059800EB6F000EEC6F9D0ED1ECC2F0000E0B6EEF
:1005A800010E0A6E96EC48F000EC41F0000E0501D1
:1005B800EB6F000EEC6F9B0ED1ECC2F040EC46F0F6
:1005C800000E0501EB6F000EEC6F9C0ED1ECC2F033
:1005D800000E0901516F500E506FB1EC3DF0000E46
:1005E800516F5A0E506F8BD79F0E086E090E096E09
:1005F800000E0A6E000E0B6E63EC12F038C5D9F4CB
:1006080039C5DAF4DF50D8A409D0000E386E000ED0
:10061800396E000E3A6E000E3B6E120038C5D9F4E2
:1006280039C5DAF4300EDE18D8A423D020EE01F054
:100638003850D9263950DA22780EDE18D8A419D0C5
:10064800020E3824326E000E3920336E000E346EDE
:10065800000E356E000E376E100E366E8DEC46F0BD
:1006680032C538F533C539F534C53AF535C53BF5E6
:10067800120038C508F539C509F53AEC44F00850B8
:1006880038243C6E095039203D6EFF0E3C24D96E4B
:10069800FF0E3D20DA6E680EDE18D8B416D038C5C5
:1006A80008F539C509F53AEC44F0085038243C6E91
:1006B800095039203D6EFF0E3C24D96EFF0E3D20B7
:1006C800DA6E480EDE18D8A417D038C532F539C509
:1006D80033F5000E346E000E356E000E376E100EB8
:1006E800366E8DEC46F032C538F533C539F534C56C
:1006F8003AF535C53BF5120038C5D9F439C5DAF4F1
:10070800270EDE18D8A423D0010E38243F6E000E21
:100718003920406E3F0E086E050E096E410E0A6EB6
:10072800050E0B6E63EC12F008500910D8B406D011
:100738004150386E396A3A6A3B6A1200270E386EA1
:10074800000E396E000E3A6E000E3B6E120038C570
:1007580032F539C533F5000E346E000E356E000ED5
:10076800376E0A0E366E8DEC46F032C538F533C555
:1007780039F534C53AF535C53BF512005AC64CF67D
:100788005BC64DF6000E4E6F000E4F6F000E506F99
:10079800000E516F44ECEEF04CC674F64DC675F67B
:1007A800020E74197511D8B40FD0755108E1030EF3
:1007B800745DD8B004D05C515D11D8A405D074C65E
:1007C8005AF675C65BF61200000E776F000E766F4C
:1007D80076C65EF677C65FF65E3B5F3BF00E5F1748
:1007E8005E510F0B5F13F00E5E175E515A25606F56
:1007F8005F515B21616FFA0E6025086E010E612161
:10080800096ECEEC2DF0640E0601626F060E636F62
:10081800D8907635D96E7735DA6ED890D936DA36FB
:100828006251D9266351DA2208C5DEF409C5DEF41F
:100838000AC5DEF40BC5DEF4764B772B775104E15D
:10084800040E765DD8A0C4D75C515D11D8A405D03C
:10085800000E776F000E766F06D0FF0E5C25766F60
:10086800FF0E5D21776F640E5E6F060E5F6FD89086
:100878007635D96E7735DA6ED890D936DA365E5154
:10088800D9265F51DA22DE50DE10DE10DE10D8A441
:1008980005D0000E756F030E746F22D05AC64CF641
:1008A8005BC64DF6640E5E6F060E5F6FD8907635A8
:1008B800D96E7735DA6ED890D936DA365E51D926C0
:1008C8005F51DA22DEC44EF6DEC44FF6DEC450F6BF
:1008D800DEC451F644ECEEF04CC674F64DC675F61F
:1008E8005C515D11D8A46BD7755104E1020E745D9B
:1008F800D8A065D7764B772B775105E1040E765D46
:10090800D8B05DD7B0D75BD701D80BD00500FA6E49
:100918000901CB51FD6ECC51FE6ECD51FF6EFA50E0
:10092800120008C55DF609C55EF60AC55FF60BC577
:1009380060F606015D1D536F5E1D546F4B515315D4
:100948005B6F4C5154155C6F000E626F000E616F47
:100958005B515125536F5C515221546F556BD8B080
:10096800552B566B5DC657F65EC658F65FC659F6E8
:1009780060C65AF6571F581F591F5A1F572B000E8B
:10098800582359235A235351575D54515859555197
:10099800595956515A59D8B00CD051515B25536FFB
:1009A80052515C21546F5D515325616F5E51542142
:1009B800626F4BC60EF54CC60FF54DC610F54EC608
:1009C80011F501D80BD00500FA6E0801EC51FD6E47
:1009D800ED51FE6EEE51FF6EFA5012004BC635F621
:1009E8004CC636F64DC637F64EC638F64FC639F6FB
:1009F80050C63AF606016151515D3B6F625152593A
:100A08003C6F33EC0DF0060161516211D8B412004D
:100A18006151515D536F62515259546F556BD8A053
:100A280055075551566F4B5153250E6E4C51542155
:100A38000F6E4D515521106E4E515621116E01D831
:100A48000BD00500FA6E0801EC51FD6EED51FE6EFB
:100A5800EE51FF6EFA5012004BC635F64CC636F60C
:100A68004DC637F64EC638F6060161514F5D536FD5
:100A780062515059546F51515325396F5251542175
:100A88003A6F61C63BF662C63CF633EC0DF01200D5
:100A980001D80BD00500FA6E0901CB51FD6ECC517F
:100AA800FE6ECD51FF6EFA50120008C55DF609C5FD
:100AB8005EF60AC55FF60BC560F606015D1D536F4D
:100AC8005E1D546F4B5153155B6F4C5154155C6F41
:100AD800000E626F000E616F5B515125536F5C51C0
:100AE8005221546F556BD8B0552B566B5DC657F6CF
:100AF8005EC658F65FC659F660C65AF6571F581FA5
:100B0800591F5A1F572B000E582359235A23535144
:100B1800575D545158595551595956515A59D8B089
:100B28000CD051515B25536F52515C21546F5D516C
:100B38005325616F5E515421626F4BC60EF54CC64A
:100B48000FF54DC610F54EC611F501D80BD00500AE
:100B5800FA6E0801EC51FD6EED51FE6EEE51FF6E1E
:100B6800FA5012004BC635F64CC636F64DC637F667
:100B78004EC638F64FC639F650C63AF606016151E8
:100B8800515D3B6F625152593C6FDDEC0DF006012F
:100B980061516211D8B412006151515D536F6251B5
:100BA8005259546F556BD8A055075551566F4B5134
:100BB80053250E6E4C5154210F6E4D515521106E18
:100BC8004E515621116E01D80BD00500FA6E08015E
:100BD800EC51FD6EED51FE6EEE51FF6EFA501200B3
:100BE8004BC635F64CC636F64DC637F64EC638F601
:100BF800060161514F5D536F62515059546F515105
:100C08005325396F525154213A6F61C63BF662C67B
:100C18003CF6DDEC0DF01200000E0701806F000EAF
:100C28007F6F7FC708F580C709F5000E0B6E0C0EA5
:100C38000A6E17EC48F00A0E0826000E0922330E39
:100C48000824F66ED70E0920F76EF86A000EF8220F
:100C58000900F5500900F510D8B491D07FC708F500
:100C680080C709F5000E0B6E0C0E0A6E17EC48F0E3
:100C7800330E0824F66ED70E0920F76EF86A000EB8
:100C8800F8220900F5C47DF70A00F5C47EF7AD0E19
:100C98000501C76FFF0EC86F7DC7C9F57EC7CAF5C6
:100CA80003EC48F07FC708F580C709F5000E0B6E06
:100CB8000C0E0A6E17EC48F0080E0826000E0922E2
:100CC800330E0824F66ED70E0920F76EF86A000E68
:100CD800F8220900F5500900F510D8B428D07FC7CC
:100CE80008F580C709F5000E0B6E0C0E0A6E17EC9E
:100CF80048F0080E0826000E0922330E0824F66E66
:100D0800D70E0920F76EF86A000EF8220900F5C41C
:100D18007DF70A00F5C47EF7B00E0501C76FFF0E18
:100D2800C86F7DC7C9F57EC7CAF503EC48F07FC711
:100D380008F580C709F5000E0B6E0C0E0A6E17EC4D
:100D480048F00A0E0826000E0922330E0824F66E13
:100D5800D70E0920F76EF86A000EF8220900F5C4CC
:100D68007DF70A00F5C47EF7770E0501C76FF70E09
:100D7800C86F7DC7C9F57EC7CAF503EC48F00701FF
:100D88007F4B802B805104E1170E7F5DD8A049D797
:100D9800000E7A6F000E796F1200000E0501F16FD8
:100DA800050EF06F89D0010E17EC4AF0050120EE10
:100DB80001F0EA51D926EB51DA22DF5017EC4AF05C
:100DC800050120EE01F0EA51D926EB51DA22DF5075
:100DD800FF0A17EC4AF0000E0501F56F000EF46FDC
:100DE80020EE02F0EA51D926EB51DA22DEC4ECF506
:100DF800DDC4EDF5F451EC25D96EF551ED21DA6E2F
:100E0800DF5017EC4AF00501F44BF52BF55104E1DE
:100E1800800EF45DD8A0E4D7000E096E000E086EAF
:100E280020EE02F0EA51D926EB51DA22DEC40AF5A7
:100E3800DDC40BF5000E0D6E800E0C6E33EC2FF03A
:100E480008C5F2F509C5F3F50501F35117EC4AF0A9
:100E58000501F25117EC4AF0F60E1B6E050E1C6EDA
:100E6800000E1E6E010E1D6E130E206E880E1F6E74
:100E78008AEC3CF01BC5EEF51CC5EFF50501EE0547
:100E8800EF11D8A419D0060EF619D8A40CD020EE6C
:100E980001F0EA51D926EB51DA22DF2A000EEB6F76
:100EA800000EEA6F1200180EF619D8A405D0000E2D
:100EB800EB6F010EEA6F1200F051EC6FF151ED6F1C
:100EC800010EF05F000EF15BEDBF05D0ED5102E1C0
:100ED800EC05D8B068D7000E0601016F020E006F4E
:100EE800880E026FF10E036F050120EE01F0EA5142
:100EF800D926EB51DA22DF50EC6FEC510601046F72
:100F0800056BE90E066FF00E076FB6EC2CF0000EBD
:100F18000501EB6F020EEA6F1200000E0601406F2A
:100F280020EE04F02E51D9262F51DA22DF50D8B402
:100F3800AED0340E2E251F6F000E2F21206F20EE0D
:100F480030F02E51D9262F51DA22DEC421F6DEC424
:100F580022F6DEC423F6DEC424F6000E266F010E48
:100F6800256F20EE01F02E51D9262F51DA22DF50BD
:100F7800E5EC14F00009D8A487D0060120EE04F0AF
:100F88002E51D9262F51DA22000EDF6E20EE1CF0EA
:100F98002E51D9262F51DA2210EE24F02E51E126B7
:100FA8002F51E222E6C434F6E6C435F6E6C436F636
:100FB800E6C437F610EE30F02E51E1262F51E2222A
:100FC800E6C438F6E6C439F6E6C43AF6E6C43BF6B3
:100FD8003451385D3C6F355139593D6F36513A5966
:100FE8003E6F37513B593F6FDE503C5DDE503D59F7
:100FF800DE503E59DE503F59D8B049D020EE03F0BC
:101008002E51D9262F51DA22020EDE18D8A43FD04D
:10101800340E2E251F6F000E2F21206F20EE1CF09E
:101028002E51D9262F51DA22DEC430F6DEC431F62D
:10103800DEC432F6DEC433F620EE30F02E51D92667
:101048002F51DA22DEC434F6DEC435F6DEC436F6B5
:10105800DEC437F630513425216F31513521226FE6
:1010680032513621236F33513721246F000E266FFA
:10107800010E256F20EE01F02E51D9262F51DA22CC
:10108800DF50E5EC14F003D0010E0601406F0601B5
:101098004051120053AE589253BE05D0535008E148
:1010A8005204D8B005D0000E396E010E386E04D047
:1010B80052C538F553C539F5F7C73BF5F8C73CF5C0
:1010C80028C53DF529C53EF52AC53FF52BC540F590
:1010D8002CC541F52DC542F52EC543F52FC544F560
:1010E800000E466E4F0E456E000E0A01616F000E2F
:1010F8003A6E42D04506D8A046063D50070B3A6ED8
:10110800120E4524D96E0A0E4620DA6E3A50300F78
:10111800DF6E3806D8A039063B06D8A03C063DC588
:1011280030F53EC531F53FC532F540C533F541C50B
:1011380034F542C535F543C536F544C537F5040ED3
:1011480009D0D890373236323532343233323232EF
:1011580031323032E82EF5D730C53DF531C53EF590
:1011680032C53FF533C540F534C541F535C542F5BF
:1011780036C543F537C544F546BE1FD0465003E192
:101188004504D8A01AD03D503E103F1040104110E1
:10119800421043104410D8A4ADD739BE05D03950F9
:1011A800A9E13804D8B0A6D73CBE07D03C5003E12B
:1011B8003B04D8A002D058B29DD73A50D8A458A81A
:1011C8000ED04506D8A04606120E4524D96E0A0E42
:1011D8004620DA6E300EDF6E3B06D8A03C0626C5E8
:1011E8001BF527C51CF5120E45241D6E0A0E462058
:1011F8001E6E3BC51FF53CC520F5BFEC33F01BC583
:1012080026F51CC527F51200000EC56F000EC46F29
:10121800B4511CE1100EB35DD8B018D0AE0EBD6F3E
:101228000A0EBE6F020EBD27000EBE23D890B3353E
:10123800D96EB435DA6ED890D936DA36BD51D9269A
:10124800BE51DA22DE50DE10D8A40FD0D40E05012C
:10125800C76FF10EC86FB3C6C9F5B4C6CAF503ECBB
:1012680048F00601B369B4691200AE0EBD6F0A0EEC
:10127800BE6F020EBD27000EBE23D890B335D96EBF
:10128800B435DA6ED890D936DA36BD51D926BE5182
:10129800DA22DEC4C1F6DDC4C2F6C1C68AF6C2C609
:1012A8008BF6B5C6BDF6B6C6BEF6B7C6BFF6B8C6A7
:1012B800C0F6070ED890BD37BE37BF37C037E82E07
:1012C800F9D7BDC68CF6BEC68DF6BFC68EF6C0C6AB
:1012D8008FF6DEECADF0C36FC351D8B445D0BF0E66
:1012E8000501C76FEF0EC86FC3C6C9F5CA6B03EC1B
:1012F80048F0B7D7C1C666F6C2C667F6B9C668F67B
:10130800BAC669F6000E6B6F800E6A6FC60E6C6FF8
:10131800060E6D6F63ECB4F0C36FC351D8A405D04B
:10132800800EC619C711D8B413D0BA0E0501C76FFD
:10133800E90EC86FC3C6C9F5CA6BC6C6CBF5C7C622
:10134800CCF503EC48F0C4C6B3F6C5C6B4F6120033
:10135800800EB96F000EBA6F010EB527000EB623C6
:10136800B723B823C44BC52BBB51C45DBC51C55969
:10137800D8B0E9D7BFD7000E0501F06F000EEF6FA8
:1013880075D0F10E1B6E050E1C6E000E1E6E010E42
:101398001D6E030E206EE80E1F6E8AEC3CF01BC516
:1013A800EDF51CC5EEF50501ED05EE11D8A45ED0EE
:1013B800430EF119D8A406D0000E0601476F000E9F
:1013C800466F1200180EF119D8A425D0000E060198
:1013D800016F020E006F9B0E026FE90E036F20EE85
:1013E80001F04651D9264751DA22DF500501EA6F4C
:1013F800EA510601046F056B170E066FF00E076FB2
:10140800F1C508F6096BB6EC2CF0000E0601476F23
:10141800010E466F1200F151D8B408D0030EF1192D
:10142800D8B404D01A0EF119D8A420D0000E0601A1
:10143800016F020E006F970E026FE80E036F20EE29
:1014480001F04651D9264751DA22DF500501EA6FEB
:10145800EA510601046F056B170E066FF00E076F51
:10146800F1C508F6096BB6EC2CF0CFD70601485148
:101478004911D8B486D70501EF51EA6FF051EB6FE7
:10148800EF4BF02B060148510501EA5DEB51800A4C
:10149800EC6F06014951800A0501EC59D8A071D7B3
:1014A800000E0601016F020E006F880E026FF10E2A
:1014B800036F20EE01F04651D9264751DA22DF505A
:1014C8000501EA6FEA510601046F056B170E066FF6
:1014D800F00E076FB6EC2CF0000E0601476F020EF7
:1014E800466F120001D80CD00500FA6E0801EF51C2
:1014F800FD6EF051FE6EF151FF6EFA50000E1200B3
:10150800000E296E000E286E96D028C508F529C54C
:1015180009F5000E0B6E060E0A6E17EC48F008501F
:101528001A24206E09501B20216E020E2024D96E29
:10153800000E2120DA6EDEC422F5DDC423F51E502C
:10154800246E1F50256E266A276A25C527F524C5EF
:1015580026F5256A246A225024240E6E235025205D
:101568000F6E000E2620106E000E2720116E01D877
:101578000BD00500FA6E0801EC51FD6EED51FE6EC0
:10158800EE51FF6EFA50120028C508F529C509F575
:10159800000E0B6E060E0A6E17EC48F008501A245F
:1015A800206E09501B20216E020E2024D96E000ED9
:1015B8002120DA6EDEC40EF5DDC40FF528C508F566
:1015C80029C509F5000E0B6E060E0A6E17EC48F0D9
:1015D80008501A24D96E09501B20DA6EDEC410F5A3
:1015E800DDC411F528C508F529C509F5000E0B6EEF
:1015F800060E0A6E17EC48F008501A24226E09509D
:101608001B20236E040E2224D96E000E2320DA6ECE
:10161800DEC412F5DDC413F501D80BD00500FA6E4F
:101628000901CE51FD6ECF51FE6ED051FF6EFA50BA
:101638001200284A292A1C50285C1D502958D8B065
:10164800120063D701D80CD00500FA6E0801EF51DB
:10165800FD6EF051FE6EF151FF6EFA50FF0E120052
:10166800000E296E000E286E96D028C508F529C5EB
:1016780009F5000E0B6E060E0A6E17EC48F00850BE
:101688001A24206E09501B20216E020E2024D96EC8
:10169800000E2120DA6EDEC422F5DDC423F51E50CB
:1016A800246E1F50256E266A276A25C527F524C58E
:1016B80026F5256A246A225024240E6E23502520FC
:1016C8000F6E000E2620106E000E2720116E01D816
:1016D8000BD00500FA6E0801EC51FD6EED51FE6E5F
:1016E800EE51FF6EFA50120028C508F529C509F514
:1016F800000E0B6E060E0A6E17EC48F008501A24FE
:10170800206E09501B20216E020E2024D96E000E77
:101718002120DA6EDEC40EF5DDC40FF528C508F504
:1017280029C509F5000E0B6E060E0A6E17EC48F077
:1017380008501A24D96E09501B20DA6EDEC410F541
:10174800DDC411F528C508F529C509F5000E0B6E8D
:10175800060E0A6E17EC48F008501A24226E09503B
:101768001B20236E040E2224D96E000E2320DA6E6D
:10177800DEC412F5DDC413F501D80BD00500FA6EEE
:101788000901C851FD6EC951FE6ECA51FF6EFA506B
:101798001200284A292A1C50285C1D502958D8B004
:1017A800120063D7000E0601666F000E656F95D0B4
:1017B800F1C5DCF5F2C5DDF5F7C5DEF5F8C5DFF5F1
:1017C800060165510501F95DE06F060166510501E5
:1017D800FA59E16F010EE26F060EE36F000EE56F36
:1017E800640EE46F35ECEDF0DCC569F6DDC56AF62C
:1017F800060169516A11D8B47FD00501FD51FE1167
:10180800FF11D8A44FD0FF0EC76FFD0EC86FF3C5E8
:10181800C9F5F4C5CAF5F5C5CBF5F6C5CCF503ECA5
:1018280048F0000E0601686F000E676F6951675D2A
:101838006A516859D8B019D0260E0501C76FFF0E36
:10184800C86F060167510501F725D96E0601685171
:101858000501F821DA6EDF500601006F005105011D
:10186800C96FCA6B03EC48F007D0E70E0501C76FD4
:10187800F90EC86F03EC48F00601674B682B68BF88
:10188800D5D7685104E1040E675DD8A0CFD77D0E87
:101898000501C76FF70EC86F010EC96F060ECA6F34
:1018A80003EC48F00601695165276A5166236951BE
:1018B8000501F32706016A510501F423000EF523FB
:1018C800000EF623060169510501F72706016A5142
:1018D8000501F823FB07D8A0FC070501F95106010B
:1018E800655D0501FA5106016659D8B005D00501B4
:1018F800FB51FC11D8A45CD765C6F1F566C6F2F5B4
:101908001200E551E611D8B408D0E5C5D9F4E6C50A
:10191800DAF4AD0EDE6EDE0EDD6EE751E811D8B4F6
:1019280008D0E7C5D9F4E8C5DAF4EF0EDE6EBE0ECE
:10193800DD6EE4511CE1100EE35DD8B018D0AE0E98
:10194800ED6F0A0EEE6F020EED27000EEE23D89013
:10195800E335D96EE435DA6ED890D936DA36ED51FA
:10196800D926EE51DA22DE50DE10D8A40ED0D40EDD
:10197800C76FF10EC86FE3C5C9F5E4C5CAF503EC36
:1019880048F00501E369E4691200E551E611D8B4AD
:101998002CD0E9C514F5EAC515F5EBC516F5ECC567
:1019A80017F5AE0EED6F0A0EEE6FD890E335D96ECF
:1019B800E435DA6ED890D936DA36ED51D926EE51BB
:1019C800DA22DEC4EFF5DDC4F0F5EFC518F5F0C591
:1019D80019F51A6A1B6AC4EC36F0E5C5D9F4E6C5F0
:1019E800DAF414C5DEF415C5DDF40501E751E81194
:1019F800D8B430D0E9C508F5EAC509F5EBC50AF54C
:101A0800ECC50BF5AE0EED6F0A0EEE6FD890E33510
:101A1800D96EE435DA6ED890D936DA36ED51D92652
:101A2800EE51DA22DEC4EFF5DDC4F0F5EFC50CF5B2
:101A3800F0C50DF50E6A0F6AF1EC3BF0010E0826B1
:101A4800000E0922E7C5D9F4E8C5DAF408C5DEF4C2
:101A580009C5DDF4000EE46F000EE36F120001D833
:101A68000BD00500FA6E0901D151FD6ED251FE6E00
:101A7800D351FF6EFA501200081C0601436F091C6F
:101A8800446F35C647F636C648F637C641F638C6F7
:101A980042F6435147153D6F445148153E6F3D513D
:101AA8003E11D8A43BD03B5147253D6F3C514821BE
:101AB8003E6FFF0E3D253F6FFF0E3E21406F4351A5
:101AC8003F17445140173F514011D8A427D001D89F
:101AD8000CD00500FA6E0801EF51FD6EF051FE6E54
:101AE800F151FF6EFA50000E120047C60EF548C6B7
:101AF8000FF539C610F53AC611F53BC612F53CC6C6
:101B080013F501D812000500FA6E0901CE51FD6ED9
:101B1800CF51FE6ED051FF6EFA501200450E0501EE
:101B2800F86F060EF96F2AEC02F0F851F911D8A4F3
:101B3800120032D03C5109E1810E3B5DD8B005D08E
:101B48003BC649F63CC64AF604D0000E4A6F800EE2
:101B5800496F47C614F648C615F6000E176F1C0ED7
:101B6800166F39C618F63AC619F649C61AF64AC69D
:101B78001BF641C61CF642C61DF6DDEC1BF006013D
:101B880049513B5F4A513C5B495147274A514823D9
:101B9800495139274A513A2306013B513C11D8A4EF
:101BA800C9D7450E0501F86F060EF96F92EC23F0C0
:101BB800120001D80BD00500FA6E0901D151FD6E53
:101BC800D251FE6ED351FF6EFA501200081C060166
:101BD800436F091C446F35C647F636C648F637C604
:101BE80041F638C642F6435147153D6F44514815F2
:101BF8003E6F3D513E11D8A43BD03B5147253D6F28
:101C08003C5148213E6FFF0E3D253F6FFF0E3E21A0
:101C1800406F43513F17445140173F514011D8A4DA
:101C280027D001D80CD00500FA6E0801EF51FD6EDF
:101C3800F051FE6EF151FF6EFA50FF0E120047C6CA
:101C48000EF548C60FF539C610F53AC611F53BC66C
:101C580012F53CC613F501D812000500FA6E090109
:101C6800C851FD6EC951FE6ECA51FF6EFA5012007E
:101C7800450E0501F86F060EF96F2AEC02F0F851CF
:101C8800F911D8A4120032D03C5109E1810E3B5D14
:101C9800D8B005D03BC649F63CC64AF604D0000E7B
:101CA8004A6F800E496F000E156F1C0E146F47C6E1
:101CB80016F648C617F639C618F63AC619F649C6CA
:101CC8001AF64AC61BF641C61CF642C61DF6DDECDE
:101CD8001BF0060149513B5F4A513C5B495147277C
:101CE8004A514823495139274A513A2306013B5161
:101CF8003C11D8A4C9D7450E0501F86F060EF96F37
:101D080092EC23F01200E9C511F6EAC512F60F0E9F
:101D1800EB25ED6F000EEC21EE6FF00EED15EB6F7D
:101D2800FF0EEE15EC6F000E0601146F000E136F18
:101D380087D013C6EDF50F0E0501ED17D8A41AD0FC
:101D4800D00EC76FF90EC86FE3C5C9F5E4C5CAF56B
:101D5800060113510501E525CB6F06011451050154
:101D6800E621CC6F000EE721CD6F000EE821CE6F83
:101D780003EC48F00C0E0501C76FFE0EC86F060194
:101D880013511125D96E14511221DA6EDF50050155
:101D9800ED6FED51C96FCA6B03EC48F006011351A2
:101DA8001125D96E14511221DA6E1F0EDF6421D06D
:101DB80013511125D96E14511221DA6E7F0EDF608E
:101DC80018D013511125D96E14511221DA6E0F0E45
:101DD80013150501ED6F000E060114150501EE6FD0
:101DE800000EED25E16E060EEE21E26EDFC4E7F48B
:101DF80011D00F0E13150501ED6F000E0601141515
:101E08000501EE6F000EED25D96E060EEE21DA6E95
:101E18002E0EDF6E060113510F0B0F0AD8A40DD03A
:101E2800000E106F7C0E0501C76FF70EC86F000E0D
:101E3800C96F060ECA6F03EC48F00601134B142B4A
:101E48000501EB510601135D0501EC51060114591A
:101E5800D8B012006ED7360E086EFF0E096E3AEC37
:101E680044F008C53BF809C53CF8000E08013B25BD
:101E7800336F080E3C21346F000E0501C76F080E42
:101E8800C86FAD0EC96FFF0ECA6F360ECB6FFF0E4F
:101E9800CC6FA4EC41F0000EE36F080EE46F000E67
:101EA800E66F300EE56F3BC8E7F53CC8E8F53BC880
:101EB800E9F53CC8EAF564ECCEF0FC0EC76FDD0E20
:101EC800C86F03EC48F033C8E3F534C8E4F5390EBD
:101ED8000501E56F080EE66F3D0EE76F080EE86F27
:101EE8000BECBAF0E3C535F8E4C536F8080136AFAF
:101EF8000DD0CA0E0501C76FDF0EC86F03EC48F09E
:101F0800000E0701CA6F000EC96F120039C808F524
:101F18003AC809F5000E0B6E0C0E0A6E17EC48F065
:101F2800030E0826000E0922330E0824F66ED70E7B
:101F38000920F76EF86A000EF8220900F5C430F897
:101F48000900F5C431F80A00F5C432F835C879F744
:101F580036C87AF73D0E07017B6F080E7C6F01D8F3
:101F68000BD00500FA6E08013051FD6E3151FE6E3E
:101F78003251FF6EFA50120079C737F87AC738F82D
:101F8800080137290AE13829D8A407D0C50E050168
:101F9800C76FFA0EC86F03EC48F037C8C9F738C8DE
:101FA800CAF712001168126808C5D9F409C5DAF42D
:101FB800DEC413F5DDC414F513C50FF514C510F50B
:101FC80013501410D8A403D00868096812000FC56C
:101FD800F6F410C5F7F4000EF86E250EF76403D07A
:101FE8000800F55005D0F6C4E9F4F7C4EAF4EF5058
:101FF8000E6E0F4A102A200E0E6404D03A0E0E18E8
:10200800D8A4E5D73A0E0E18D8A46BD0000E0D6EE2
:10201800010E0C6E13C5F6F414C5F7F4000EF86E35
:10202800250EF76403D00800F55005D0F6C4E9F48E
:10203800F7C4EAF4EF500A6E2F0E0A643AD013C5BB
:10204800F6F414C5F7F4000EF86E250EF76403D005
:102058000800F55005D0F6C4E9F4F7C4EAF4EF50E7
:102068000A6E3A0E0A6025D0020E13240A6E000E7C
:1020780014200B6E0F500A181CE110500B18D8A42E
:1020880018D013C5F6F414C5F7F4000EF86E250E33
:10209800F76403D00800F55005D0F6C4E9F4F7C496
:1020A800EAF4EF500A6ED00E0A240C6E0D6AFF0E89
:1020B8000D220DBE05D00D500FE10C04D8B00CD088
:1020C8000CC511F50DC512F508C5D9F409C5DAF422
:1020D8000FC5DEF410C5DDF411C508F512C509F504
:1020E8001200000E096E000E086E1200000E196E26
:1020F80017AE12D0171E161E151E141E131E121E02
:10210800111E106C000E1122122213221422152205
:1021180016221722010E196E0FAE12D00F1E0E1EB8
:102128000D1E0C1E0B1E0A1E091E086C000E09222D
:102138000A220B220C220D220E220F22010E191A3E
:1021480021EE1AF1070EDE6AE806FDE210501110C2
:10215800121013101410151016101710D8B446D0FA
:10216800010E186E0AD0D890103611361236133672
:102178001436153616361736182A17AEF4D7D890EF
:102188001A361B361C361D361E361F3620362136AB
:102198001050085C1150095812500A5813500B5827
:1021A80014500C5815500D5816500E5817500F58FB
:1021B800D8A011D01050085E1150095A12500A5A6E
:1021C80013500B5A14500C5A15500D5A16500E5ADB
:1021D80017500F5A1A80D890173216321532143207
:1021E8001332123211321032182EC9D71950D8B4FE
:1021F80010D0211E201E1F1E1E1E1D1E1C1E1B1E53
:102208001A6C000E1B221C221D221E221F222022B5
:1022180021221AC508F51BC509F51CC50AF51DC5F7
:102228000BF51EC50CF51FC50DF520C50EF521C50E
:102238000FF51200FEC87DF77BC7D9F47CC7DAF426
:10224800DE50DE10D8B479D07BC7D9F47CC7DAF475
:10225800DEC4FEF6DDC4FFF6FEC6D9F4FFC6DAF426
:10226800DF50D8B46AD0D851D8B416D09EC84BF62F
:102278009FC84CF6A0C84DF6A1C84EF6DF0E060161
:102288004F6F080E506F000E526F010E516F88ECA1
:1022980004F0000E0801D86F7BC7D9F47CC7DAF4C4
:1022A800DEC438F5DDC439F5F8EC02F038C59EF81F
:1022B80039C59FF83AC5A0F83BC5A1F87B0E0501C2
:1022C800C76FED0EC86F9EC8C9F59FC8CAF5A0C8EC
:1022D800CBF5A1C8CCF503EC48F09EC84BF69FC8D7
:1022E8004CF6A0C84DF6A1C84EF6DF0E06014F6F9A
:1022F800080E506F000E526F010E516F4CEC05F036
:102308009EC84BF69FC84CF6A0C84DF6A1C84EF61D
:102318007D0E06014F6F070E506F000E526F010EB3
:10232800516F88EC04F0010E0801D86F56C522F5EC
:1023380057C523F58DEC43F01AD0D851D8B410D036
:10234800D50E0501C76FEF0EC86F9EC8C9F59FC8A7
:10235800CAF5A0C8CBF5A1C8CCF503EC48F007D066
:10236800BF0E0501C76FEE0EC86F03EC48F0000EF4
:1023780007017A6F000E796F12000501F76F0701E8
:10238800F9A316D0990E0501C76FE20EC86FF7C5FD
:10239800C9F5CA6B30C6CBF531C6CCF532C6CDF51A
:1023A80033C6CEF534C6CFF535C6D0F503EC48F0C4
:1023B800000E0501F96F000EF86F75D00601305157
:1023C8000801F5250601156F31510801F6210601AE
:1023D800166F32510801F7210601176F33510801B2
:1023E800F8210601186F000E1A6F000E196F2EC61D
:1023F8001BF62FC61CF6020E1E6F000E1D6F89EC11
:10240800DBF0060115511611D8B416D00701F951A1
:10241800FA11D8B40FD0930E0501C76FEB0EC86F31
:1024280030C6C9F531C6CAF532C6CBF533C6CCF5C8
:1024380003EC48F0010E12000701F9B3F9A727D001
:10244800120E0501E36FFE0EE46F30C6F3F531C6D8
:10245800F4F532C6F5F533C6F6F5090ED890F3371C
:10246800F437F537F637E82EF9D7F3C5E5F5F4C5AF
:10247800E6F5F5C5E7F5F6C5E8F52EC6E9F52FC684
:10248800EAF5020EEC6F000EEB6F87EC0EF0010E12
:1024980006013027000E312332233323020E2F2763
:1024A8000501F84BF92B060134510501F85D0601C9
:1024B80035510501F959D8A081D7000E12000850EE
:1024C8000910D8B409D008C5D9F409C5DAF4DEC4AE
:1024D80010F5DDC411F504D054C910F555C911F52E
:1024E80010501110D8B407D010C5D9F411C5DAF4BA
:1024F800DF50D8A402D0000E1ED010C5D9F411C5E3
:10250800DAF4270EDE18D8A405D0000E0E6E104A95
:10251800112A58D010C5D9F411C5DAF45C0EDE18AA
:10252800D8B40BD010C5D9F411C5DAF4DF500F6E4A
:10253800104A112A010E0E6E45D020EE01F01050FF
:10254800D9261150DA22DF50D8B4DFD715D05C0E67
:1025580011D0270E0FD0220E0DD0090E0BD00A0E67
:1025680009D00D0E07D020EE01F01050D9261150D9
:10257800DA22DF500F6E21D020EE01F01050D9265C
:102588001150DA22DF500C6E0D6A0D50000AD8A4E3
:10259800EAD70C50220AD8B4DED7050AD8B4D9D75E
:1025A8007B0AD8B4D4D7320AD8B4D9D71C0AD8B43D
:1025B800D8D7060AD8B4D1D7D6D7020E1026000E1F
:1025C8001122B8D70A500B10D8B406D00AC5D9F4CE
:1025D8000BC5DAF40FC5DFF408500910D8B408D0D9
:1025E80008C5D9F409C5DAF410C5DEF411C5DDF45F
:1025F80010C554F911C555F90EC508F5096A120038
:102608000801D551D8A404D00601C769C8691200C9
:10261800000E0601D06F000ECF6F8ED00801D75183
:102628000701FD19D8A44BD0820E0601A76F0A0E28
:10263800A86FD10EA96F060EAA6F22ECB1F0A7C63B
:10264800CDF6A8C6CEF6CD51CE11D8A404D0D1511E
:10265800D211D8A42FD0CD51CE11D8B40ED0000E9F
:10266800016F000E006F1D0E026FE60E036FCDC6E0
:1026780004F6CEC605F6B6EC2CF0000E0801D56FB0
:102688000601D0BF0AD0D05103E1CF05D8A005D0AC
:10269800CFC6C7F6D0C6C8F61200D151D211D8A4F9
:1026A80005D0000EC86F000EC76F1200010E08019A
:1026B800D36FAAD7000E0701FD6FD1C6D7F8FD5119
:1026C800D7C8CBF60601CC6BCB5F000ECC5BC951EB
:1026D800CB5DCA51CC59D8A005D0C9C6D1F6CAC657
:1026E800D2F609D00701FD510801D75D0601D16F67
:1026F800D26BD8A0D207C7C608F5C8C609F5070126
:10270800FD510801C2250A6E0701000E0801C32108
:102718000B6ED1C60CF5D2C60DF56EEC3EF0060177
:10272800D1510701FD270601D151C95FD251CA5BBA
:10273800D151CF27D251D023C951CA11D8B4A8D763
:102748006DD722EEEAF111EE19F1060EDBC4E3F4BF
:10275800E806FCE216C524F517C525F52450251012
:10276800D8A404D0190E246E050E256E24C508F5CC
:1027780025C509F53AEC44F008C528F509C529F539
:1027880052C526F553C527F527BE0ED02850265C1E
:102798002750800A186E2950800A1858D8B004D0DB
:1027A80026C528F527C529F528C526F529C527F5FD
:1027B800F7C722F5F8C723F558A00DD016D0000E9C
:1027C8000C6E200E0B6E14C50DF515C50EF585ECB7
:1027D80032F0284A292A2250285C2950800A186E8B
:1027E8002350800A1858D8A0EAD7000E216E000E90
:1027F800206E1FD024C5F6F425C5F7F4000EF86E38
:10280800250EF76403D00800F55005D0F6C4E9F4A6
:10281800F7C4EAF4EF50186E18500B6E0C6A14C522
:102828000DF515C50EF585EC32F0244A252A204A07
:10283800212A2650205C2150800A186E2750800AD1
:102848001858D8A0D7D758B00DD016D0000E0C6E97
:10285800200E0B6E14C50DF515C50EF585EC32F07E
:10286800284A292A2250285C2950800A186E2350A9
:10287800800A1858D8A0EAD728C514F529C515F52F
:1028880012001C6E1C50D8A417AE1AD014C518F527
:1028980015C519F516C51AF517C51BF5181E191E05
:1028A8001A1E1B1E182A000E19221A221B2218C5CE
:1028B8001EF519C51FF51AC520F51BC521F508D049
:1028C80014C51EF515C51FF516C520F517C521F544
:1028D8001450151016101710D8A409D0000E146E35
:1028E800000E156E000E166E000E176E1200960E74
:1028F8001D6E06D01D2AD890213220321F321E327A
:10290800000E1E14186E000E1F14196E000E2014EF
:102918001A6EFE0E21141B6E185019101A101B1077
:10292800D8B40DD0E7D71D2A010E1E26000E1F228F
:1029380020222122D890213220321F321E32000E4E
:102948001E14186E000E1F14196E000E20141A6E35
:10295800FF0E21141B6E185019101A101B10D8B432
:1029680007D0E1D71D06D8901E361F3620362136EF
:1029780020BE03D0020E1D60F5D71DA0209ED89062
:102988001D321DC518F5196A1A6A1B6A18C51BF588
:102998001A6A196A186A18501E1219501F121A500A
:1029A80020121B5021121C50D8A417AE01D0218E22
:1029B8001EC514F51FC515F520C516F521C517F553
:1029C80012002B6F0701F9A516D0C50E0501C76FB8
:1029D800E20EC86F2BC6C9F5CA6B21C6CBF522C655
:1029E800CCF523C6CDF524C6CEF525C6CFF526C62B
:1029F800D0F503EC48F0000E06012D6F000E2C6F89
:102A080075D021510801F5250601156F22510801DD
:102A1800F6210601166F23510801F7210601176FE9
:102A280024510801F8210601186F000E1A6F000ED4
:102A3800196F1FC61BF620C61CF6020E1E6F000E6D
:102A48001D6F2DECD0F0060115511611D8B416D013
:102A58000701F951FA11D8B40FD0AC0E0501C76FB0
:102A6800EA0EC86F21C6C9F522C6CAF523C6CBF53A
:102A780024C6CCF503EC48F0010E12000701F9B5A5
:102A8800F9A729D0120E0501E36FFE0EE46F21C6E7
:102A980027F622C628F623C629F624C62AF6090EE2
:102AA800D89006012737283729372A37E82EF8D74C
:102AB80027C6E5F528C6E6F529C6E7F52AC6E8F5E6
:102AC8001FC6E9F520C6EAF5020E0501EC6F000EF7
:102AD800EB6F87EC0EF0010E06012127000E222372
:102AE80023232423020E20272C4B2D2B25512C5D2C
:102AF80026512D59D8A085D7000E1200A2C87DF7FF
:102B0800A3C87EF7A4C87FF7A5C880F77BC7D9F408
:102B18007CC7DAF4DE50DE10D8B421D07BC7D9F4F4
:102B28007CC7DAF4DEC4FEF6DDC4FFF6FEC6D9F4CF
:102B3800FFC6DAF4DF50D8B412D07BC7D9F47CC70B
:102B4800DAF4DEC438F5DDC439F5F8EC02F038C53E
:102B58007DF739C57EF73AC57FF73BC580F7070192
:102B680020EE02F07B51D9267C51DA22DE50DE10AD
:102B7800D8B411D020EE02F07B51D9267C51DA224C
:102B8800DEC4FEF6DDC4FFF6FEC6D9F4FFC6DAF4ED
:102B9800DF50D8A40DD0200E0501C76FF20EC86F04
:102BA80003EC48F0000E07017A6F000E796F1200EF
:102BB80020EE02F07B51D9267C51DA22DEC438F5AA
:102BC800DDC439F5F8EC02F038500701816F7DC794
:102BD8004BF67EC74CF67FC74DF680C74EF6810E82
:102BE80006014F6F070E506F000E526F010E516FA6
:102BF80088EC04F0010E07017D27000E7E237F2359
:102C08008023000E086E000E096E810E0A6E070EF4
:102C18000B6E63EC12F008500910D8A4D8D77DC702
:102C2800A2F87EC7A3F87FC7A4F880C7A5F8BAD7CB
:102C380008C512F509C513F50C500D10D8B41200CB
:102C480012C5D9F413C5DAF40AC5DFF40C501224FE
:102C58000E6E0D5013200F6EFF0E0E24D96EFF0E50
:102C68000F20DA6E0AC5DFF40D5004E1030E0C5C88
:102C7800D8A0120020EE01F01250D9261350DA2203
:102C88000AC5DFF420EE02F01250D9261350DA22DA
:102C98000AC5DFF40C5012240E6E0D5013200F6E6F
:102CA800FE0E0E24D96EFF0E0F20DA6E0AC5DFF471
:102CB8000C5012240E6E0D5013200F6EFD0E0E24B4
:102CC800D96EFF0E0F20DA6E0AC5DFF40D5004E14D
:102CD800070E0C5CD8A0120020EE03F01250D92683
:102CE8001350DA220AC5DFF40C5012240E6E0D5070
:102CF80013200F6EFC0E0E24D96EFF0E0F20DA6E15
:102D08000AC5DFF40D5004E1090E0C5CD8A01200CE
:102D180012C50EF513C50FF50E1E0F1E0E4A0F2A0B
:102D2800030E0E14106E116A105012261150132241
:102D380010500C5E11500D5AFC0E0C16FF0E0D169D
:102D48000BD012C5D9F413C5DAF40AC5DFF40C06A2
:102D5800D8A00D06124A132A0C500D10D8B4120030
:102D6800F0D7A4C6D9F4A5C6DAF4DEC4A8F6DDC443
:102D7800A9F6A4C666F6A5C667F6000E686F000E2B
:102D8800696F000E6A6F000E6B6FFBECDCF0AB6FC7
:102D9800AB51D8B403D00601AB511200A8C641F616
:102DA800A9C642F620EE16F0A451D926A551DA227A
:102DB800DEC443F6DEC444F6DEC445F6DEC446F699
:102DC8008EEC30F0AB6FAB51D8A4E5D720EE1AF0FB
:102DD800A451D926A551DA22DEC4A6F6DDC4A7F689
:102DE800A6C6D9F4A7C6DAF4DF50AA6FAA51D8A4A8
:102DF80003D0040EAB6FCFD720EE04F0A451D92630
:102E0800A551DA2210EE1AF0A451E126A551E222CA
:102E180000EE0BF0E650E926E550EA22EF503F0BB2
:102E2800DF6E20EE1AF0A451D926A551DA2210EE51
:102E38000BF0DE50E126DD50E222E7B61AD020EE94
:102E48001AF0A451D926A551DA22DEC408F5DDC44A
:102E580009F51C0EA4250A6E000EA5210B6E000EA6
:102E68000D6E0B0E0C6EE4EC30F008500910D8B45F
:102E780092D7A4C68AF6A5C68BF6000E06018D6FFA
:102E8800000E8C6FAAECD3F0AB6FAB51D8A483D7EC
:102E980085D7040EB06FA4C6D9F4A5C6DAF4DEC48B
:102EA800ACF6DDC4ADF670D0ACC641F6ADC642F6A0
:102EB80020EE16F0A451D926A551DA22DEC443F635
:102EC800DEC444F6DEC445F6DEC446F68EEC30F0C9
:102ED800B06FB051D8A464D020EE1AF0A451D9260E
:102EE800A551DA22DEC4A8F6DDC4A9F6A8C6D9F42D
:102EF800A9C6DAF4DF50AF6FAF51D8A403D0040EDF
:102F0800B06F4ED020EE1AF0A451D926A551DA227E
:102F180010EE0BF0DE50E126DD50E222E7503F0BC9
:102F2800AE6F20EE04F0A451D926A551DA22AEC620
:102F3800DFF4E50EAF19D8B419D02E0EAF19D8B4F6
:102F480015D00F0EAE19D8B411D0AE51DF0B080A48
:102F5800D8A402D0010E01D0000EA86FA96BA6510B
:102F6800A81904E1A751A919D8B41AD0A4C68AF699
:102F7800A5C68BF6000E8D6F000E8C6FAAECD3F0F1
:102F8800B06FB051D8A40CD020EE16F0A451D926B9
:102F9800A551DA22DE50DE10DE10DE10D8A484D768
:102FA800B051D8B40AD020EE16F0A451D926A551B4
:102FB800DA22DE6ADE6ADE6ADD6AB05112000801D2
:102FC800CB51D8B409D0000ECB6FD3C6D9F4D4C630
:102FD800DAF40A0EDF6E1200040ECD19D8B433D01D
:102FE800000ECB6F000E0601016F030E006F7E0E00
:102FF800026FF80E036F170E046FF50E056F010EC2
:10300800076F220E066FB6EC2CF0870E0601B06F24
:10301800090EB16FB3EC42F0ADEC40F0AF51B01116
:10302800D8B40ED0A70E0501C76FEC0EC86F03EC1D
:1030380048F0D3C6D9F4D4C6DAF41A0EDF6E1200FB
:10304800040E0801CD6F870E216E090E226EC80E80
:10305800236E920E246E000E256E130E276E880EB8
:10306800266E72EC2DF0D3C6C7F6D4C6C8F6000E8D
:103078000601CA6F010EC96F04EC13F0C7C6D5F676
:10308800C8C6D6F6D505D611D8B411D0D6AF07D054
:10309800A90E0501C76FEF0EC86F03EC48F0870E45
:1030A8000601B06F090EB16FB3EC42F0C2D7870EBC
:1030B800216E090E226EC80E236E920E246E000E2B
:1030C800256E270E276E100E266E72EC2DF0000E60
:1030D8000801CC6FD3C608F5D4C609F5BFEC44F097
:1030E80008500910D8A46BD71200E151E211D8A4F6
:1030F80002D0090E1200E30EB36F060EB46FE50E90
:10310800B56F060EB66F000EB76F36EC9FF006016E
:10311800E76FE751D8A470D0E1C6D9F4E2C6DAF473
:10312800E5C6DEF4E6C6DDF4E1C6ACF6E2C6ADF609
:10313800E3C6AEF6E4C6AFF6EEECE9F0E76FE751AA
:10314800D8A454D020EE27F0E151D926E251DA2252
:10315800DFBE2AD020EE04F0E151D926E251DA226E
:10316800DFA820D0E5C60FF5E6C610F520EE1AF068
:10317800E151D926E251DA22DEC411F5DDC412F597
:10318800E6EC38F0060120EE06F0E151D926E251CE
:10319800DA220FC5DEF410C5DEF411C5DEF412C55F
:1031A800DEF402D0050EE76FE751D8A41FD020EE59
:1031B80006F0E551D926E651DA2210EE02F0E15187
:1031C800E126E251E222DEC4E6F4DDC4E5F4E1C61C
:1031D80066F6E2C667F6000E686F000E696F000EAD
:1031E8006A6F000E6B6FFBECDCF0E76F040EE719FB
:1031F800D8A402D0050EE76FE751D8B408D0E1C6CD
:10320800D9F4E2C6DAF4000EDE6E000EDD6EE75188
:10321800120041C62EF642C62FF691EC07F00009BF
:10322800D8B402D0010E120041C61BF542C61CF5E7
:1032380043C61DF544C61EF545C61FF546C620F50E
:10324800F7EC2BF01BC54BF61CC54CF61DC54DF60F
:103258001EC54EF6060120EE30F04151D9264251E6
:10326800DA224BC6DEF44CC6DEF44DC6DEF44EC69A
:10327800DEF4340E4125086E000E4221096E000E60
:103288000B6E000E0A6E020E0D6E000E0C6E1CEC1C
:1032980016F0340E06014125496F000E42214A6F8F
:1032A800000E506F010E4F6F000E526F000E516FDF
:1032B80005D006014F5151275051522320EE0AF0F4
:1032C8004151D9264251DA22DE50515DDE50525921
:1032D800D8B020D049C61FF64AC620F651514B2512
:1032E800216F52514C21226F000E4D21236F000E89
:1032F8004E21246F4FC625F650C626F620EE01F063
:103308004151D9264251DA22DF50E5EC14F0000988
:10331800D8B4CFD7060120EE0AF04151D926425140
:10332800DA225151DE1804E15251DE18D8B402D025
:10333800010E1200000E1200000E196E0FAE12D010
:103348000F1E0E1E0D1E0C1E0B1E0A1E091E086CDB
:10335800000E09220A220B220C220D220E220F2215
:10336800010E196E17AE10D0171E161E151E141E4C
:10337800131E121E111E106C000E1122122213228F
:103388001422152216221722105011101210131091
:103398001410151016101710D8B43CD0010E186E62
:1033A8000AD0D89010361136123613361436153620
:1033B80016361736182A17AEF4D71050085C115075
:1033C800095812500A5813500B5814500C581550DD
:1033D8000D5816500E5817500F58D8A010D010502E
:1033E800085E1150095A12500A5A13500B5A1450B9
:1033F8000C5A15500D5A16500E5A17500F5AD8908D
:103408001732163215321432133212321132103288
:10341800182ED3D71950D8B410D00F1E0E1E0D1E5B
:103428000C1E0B1E0A1E091E086C000E09220A2219
:103438000B220C220D220E220F2208C508F509C501
:1034480009F50AC50AF50BC50BF50CC50CF50DC534
:103458000DF50EC50EF50FC50FF51200000E166E10
:10346800000E156E000E146E000E136E02D00E4A7A
:103478000F2A0EC5F6F40FC5F7F4000EF86E080013
:10348800F550200AD8B4F3D70EC5F6F40FC5F7F4F3
:10349800000EF86E0800F5C410F5F70E1024116E32
:1034A800126AFF0E122212500CE1050E115CD8B000
:1034B80008D0DDD7000E146E010E136E0E4A0F2AC7
:1034C80032D00EC5F6F40FC5F7F4000EF86E0800FA
:1034D800F550106E116A1150000AD8A424D010506B
:1034E8002B0AD8B4EBD7060AD8B4E4D71CD015C534
:1034F80008F516C509F5000E0B6E0A0E0A6E17ECD4
:1035080048F00EC5F6F40FC5F7F4000EF86E080083
:10351800F550085E000E095A300E0824156E000E8C
:103528000920166ECBD70EC5F6F40FC5F7F4000EBA
:10353800F86E0800F5C410F5D00E1024116E126A4A
:10354800FF0E1222125004E10A0E115CD8A0CFD748
:1035580013501410D8A40DD015C510F516C511F5C3
:10356800101E111E104A112A10C50EF511C50FF5AF
:10357800120015C50EF516C50FF51200880EF66E69
:103588008F0EF76E000EF86E02EED0F310EE2AF0F2
:103598000900F5C4EEF4E550E150FAE1020EF66ECA
:1035A8008A0EF76E000EF86E02EEAEF210EE40F0E4
:1035B8000900F5C4EEF4E550E150FAE18C0EF66E20
:1035C800920EF76E000EF86E02EEEAF110EE16F0AB
:1035D8000900F5C4EEF4E550E150FAE10E0EF66E7E
:1035E800940EF76E000EF86E02EEF5F010EE0BF08A
:1035F8000900F5C4EEF4E550E150FAE103EE00F3FA
:1036080014EE00F1EE6AE550E150FCE1E250FAE117
:1036180003EE00F210EE00F1EE6AE550E150FCE135
:10362800E250FAE103EE00F1C00EEE6AE806FDE1B1
:1036380003EE00F0600EEE6AE806FDE102EE00F32C
:10364800D00EEE6AE806FDE102EE00F2AE0EEE6A7A
:10365800E806FDE102EE00F1A10EEE6AE806FDE1E2
:1036680002EE99F0470EEE6AE806FDE101EEF7F387
:10367800070EEE6AE806FDE101EE52F1070EEE6A6A
:10368800E806FDE10401080E5D6F000E5E6F000E96
:103698005F6F000160EFF2F0E5C5FCF5E6C5FDF5EA
:1036A8000F0E0501E725E96F000EE821EA6FF00E1D
:1036B800E915E76FFF0EEA15E86F000EFF6F000EC1
:1036C800FE6F70D0FEC5E9F50F0EE917D8A40ED02D
:1036D8009D0EC76FFA0EC86FE3C5C9F5E4C5CAF5F4
:1036E800FEC5CBF5FFC5CCF503EC48F00C0E050183
:1036F800C76FFE0EC86FFE51FC25D96EFF51FD2124
:10370800DA6EDF50E96FE951C96FCA6B03EC48F014
:103718000501FE51FC25D96EFF51FD21DA6E1F0E01
:10372800DF641ED0FE51FC25D96EFF51FD21DA6EF3
:103738007F0EDF6015D0FE51FC25D96EFF51FD21AB
:10374800DA6E0F0EFE15E96F000EFF15EA6FEB0E2D
:10375800E925E16E050EEA21E26EDFC4E7F40ED03A
:103768000F0EFE15E96F000EFF15EA6FEB0EE92547
:10377800D96E050EEA21DA6E2E0EDF6EFE510F0BA2
:103788000F0AD8A40CD0000EFB6F7C0EC76FF70E83
:10379800C86FEB0EC96F050ECA6F03EC48F0050140
:1037A800FE4BFF2BE751FE5DE851FF59D8B01200E0
:1037B80089D721EE23F2110EDE6AE806FDE25B0EE0
:1037C800236FDA0E246F000E266F000E256F000E91
:1037D800286F1C0E276F1E0E296F060E2A6F000E0B
:1037E8002C6F040E2B6F000E2E6F050E2D6F1A0511
:1037F800010E1B59D8A013D0DA0E0501E36FF70E9E
:10380800E46FF00EE56FDE0EE66F000EE86F960EC1
:10381800E76F920EE96FF20EEA6FBFEC46F016C63C
:103828001EF617C61FF614C620F615C621F61AC6C8
:1038380022F61C0E060116191711D8A423D018C693
:103848002FF619C630F616C631F617C632F61AC65E
:1038580033F61BC634F6230E006F060E016F000EFA
:10386800036F030E026F000E046F000E056F000E4B
:10387800076F000E066F1CC608F61DC609F6EEECAB
:10388800F9F0120018C62FF619C630F614C631F62C
:1038980015C632F61AC633F61BC634F6230E006F69
:1038A800060E016F000E036F020E026F2F0E046FDB
:1038B800060E056F000E076F010E066F1CC608F690
:1038C8001DC609F6EEECF9F01200140E0901DA6FC4
:1038D800680EDB6F000EDC6F300ED46F880ED56F6C
:1038E800000ED66FB60ECB6F920ECC6F000ECD6F5A
:1038F800520ED16F940ED26F000ED36F420ECE6F60
:10390800720ECF6F000ED06FDE0EC86F700EC96FCB
:10391800000ECA6FE20EAA6F390EAB6F000EAC6FC5
:10392800B40EBF6F910EC06F000EC16F5C0EB96F01
:10393800940EBA6F000EBB6F000EA46F000EA56F39
:10394800000EA66F580EB66F940EB76F000EB86FC4
:10395800420E0801E06F940EE16F000EE26F4A0E0E
:10396800EF6F940EF06F000EF16FD20E0901AD6F7C
:10397800930EAE6F000EAF6F000EA16F000EA26F18
:10398800000EA36FC60E0801E66F930EE76F000ED8
:10399800E86FEA0E0901C26F930EC36F000EC46F81
:1039A800940E0801E36F930EE46F000EE56F5C0E52
:1039B8000901A76F930EA86F000EA96F780E080172
:1039C800E96F930EEA6F000EEB6F860E0901B06F78
:1039D800930EB16F000EB26F120065D0F351F4115F
:1039E800D8B4120043C41CF944C41DF945C41EF9D7
:1039F800000E0401436F000E446F000E456F000E69
:103A0800436F000E446F000E456F000E0901F46FFE
:103A1800000EF36F040146AB1200040146B902D050
:103A280046891200040146991200F351F411D8A4F2
:103A380012001CC943F41DC944F41EC945F41CC92D
:103A480043F41DC944F41EC945F4000EF46F010E79
:103A5800F36F1200040146BB1200DFD709BE120043
:103A6800095011E10804D8A012000DD0040146B98C
:103A780002D0468902D00401469946B902D0468947
:103A880002D00401469908500A6E09500B6E010EC7
:103A9800085E000E095A0BBE12000B50E7E10A043B
:103AA800D8A01200E3D708C50AF509C50BF50B50D5
:103AB800000AD8B404D0FF0AD8B406D0CFD70A5029
:103AC800000AD8B48BD7CAD70A50FB0AD8B4A5D7EE
:103AD800070AD8B49FD7010AD8B4BCD7030AD8B408
:103AE8001200010AD8B4A1D7B9D7000E136E000E80
:103AF800126E0DC5D9F40EC5DAF4DEC40FF5DDC4B7
:103B080010F50FC5D9F410C5DAF4300EDE18D8A4B4
:103B180016D00DC5D9F40EC5DAF410EE01F0DE505A
:103B2800E126DD50E222780EE618D8A408D0020E6D
:103B38000DC5D9F40EC5DAF4DE26000EDD220DC55A
:103B4800D9F40EC5DAF4DEC40FF5DDC410F50FC5DF
:103B5800D9F410C5DAF4DF50146E600E146405D081
:103B6800670E146002D0200E145E2F0E146403D06A
:103B7800390E146407D0400E14640CD0460E146439
:103B880001D008D0124A132A0DC5D9F40EC5DAF4AB
:103B9800DE2AD3D70DC5D9F40EC5DAF4DEC40FF585
:103BA800DDC410F50FC5D9F410C5DAF4680EDE18B7
:103BB800D8B410D00DC5D9F40EC5DAF4DEC40FF5AB
:103BC800DDC410F50FC5D9F410C5DAF4480EDE18B7
:103BD800D8A407D00DC5D9F40EC5DAF4DE2A000E34
:103BE800DD220DC508F50EC509F574EC46F012C5C1
:103BF8000DF513C50EF51200A4C6D9F4A5C6DAF45E
:103C0800DEC4ABF6DDC4ACF6A4C666F6A5C667F698
:103C1800000E686F000E696F000E6A6F000E6B6F02
:103C2800FBECDCF0AF6FAF51D8A45BD0000EAE6FE9
:103C3800000EAD6FABC641F6ACC642F620EE16F0EC
:103C4800A451D926A551DA22DEC443F6DEC444F6CF
:103C5800DEC445F6DEC446F68EEC30F0AF6FAF51E9
:103C6800D8A43FD020EE1AF0A451D926A551DA22C3
:103C7800DEC4A8F6DDC4A9F6A8C6D9F4A9C6DAF444
:103C8800E50EDE18D8B411D020EE1AF0A451D926CA
:103C9800A551DA22DEC4A8F6DDC4A9F6A8C6D9F46F
:103CA800A9C6DAF4DF50D8A40AD0AD4BAE2BA65182
:103CB800AD1909E1A751AE19D8B413D004D0000E3C
:103CC800AE6F000EAD6FA4C68AF6A5C68BF6000EC1
:103CD8008D6F010E8C6FAAECD3F0AF6FAF51D8B4D3
:103CE800A9D7040EAF19D8A402D0070EAF6FAF51F1
:103CF80012000801AC51AD11D8A413D02C0E050147
:103D0800E36FF00EE46F780EE56FDD0EE66F000EE0
:103D1800E86F3D0EE76F440EE96FF50EEA6FBFECF2
:103D280046F00501EB510801AA250501ED6FEC519C
:103D38000801AB210501EE6F0801A851AC2505016A
:103D4800EF6F0801A951AD210501F06FED51EF5D4D
:103D5800EE51F059D8B039D0FF0EC76FDD0EC86FDD
:103D6800440EC96FF50ECA6FEBC5CBF5ECC5CCF5A3
:103D7800AAC8CDF5ABC8CEF5CF6BD06B0801AA5158
:103D8800AC5D0501ED6F0801AB51AD590501EE6F52
:103D98000801A8510501ED25D16F0801A9510501B8
:103DA800EE21D26F03EC48F0850E0501C76FE50ED2
:103DB800C86F440EC96FF50ECA6F03EC48F0000EC9
:103DC8000501EB6F000EEC6F1200AAC8F1F5ABC845
:103DD800F2F5EB510801AA270501EC510801AB23C4
:103DE800F1C5EBF5F2C5ECF512000AC511F50BC5E6
:103DF80012F50CC513F50DC514F50E06D8A00F065F
:103E08000E280FE10F28D8A40CD0000E0B6E000E60
:103E18000A6E1200114A122A134A142A0E06D8A052
:103E28000F0611C5F6F412C5F7F4000EF86E250E4C
:103E3800F76403D00800F55005D0F6C4E9F4F7C4D8
:103E4800EAF4EF500009D8B42CD013C5F6F414C521
:103E5800F7F4000EF86E0800F5500009D8B421D028
:103E68000E500F10D8B41DD013C5F6F414C5F7F4CE
:103E7800000EF86E0800F5C410F511C5F6F412C569
:103E8800F7F4000EF86E250EF76403D00800F5501D
:103E980005D0F6C4E9F4F7C4EAF4EF501018D8B422
:103EA800B9D711C5F6F412C5F7F4000EF86E250E51
:103EB800F76403D00800F55005D0F6C4E9F4F7C458
:103EC800EAF4EF50106E13C5F6F414C5F7F4000EBB
:103ED800F86E0800F550105C0A6E0B6AD8A00B0645
:103EE800120056500801F9194EE15750FA19D8A492
:103EF8004AD009015A515B11D8B445D07551761191
:103F0800D8A441D05650346E5750356E366A376A49
:103F180035C537F534C536F5356A346A34C51AF50A
:103F280035C51BF536C51CF537C51DF51C0E1E6EAF
:103F3800DA0E1F6E000E216E290E206EF7EC37F098
:103F48005650346E5750356E366A376A35C537F570
:103F580034C536F5356A346A290E34241A6E000ED3
:103F680035201B6E000E36201C6E000E37201D6E8D
:103F7800630E1E6E090E1F6E000E216E160E206E49
:103F8800F7EC37F0120056C52EF557C52FF507EC9C
:103F98003AF05650346E5750356E366A376A35C522
:103FA80037F534C536F5356A346AA10E34241A6EED
:103FB800000E35201B6E000E36201C6E000E3720BA
:103FC8001D6E630E1E6E090E1F6E000E216E160EFC
:103FD800206EF7EC37F01200000184838481000E14
:103FE800886F000E8B6F8599868386810501E705AA
:103FF800D8A403D00001849502D00001848505016E
:10400800E851D8A405D00001859F858D859B0ED0E9
:10401800D10EC76FE50EC86F7D0EC96FF30ECA6F5C
:10402800E8C5CBF5CC6B03EC48F0FFD7000E8C6FDE
:104038002DD0020E00018C6F020E896F12000F0E38
:104048000001896F1200070E0001896F1200050E2A
:104058000001896F1200040E0001896F1200030E1F
:104068000001896F1200020E0001896F1200E60E2E
:10407800C76FE10EC86F7D0EC96FF30ECA6FE5C535
:10408800CBF5E6C5CCF503EC48F01200E5C5E9F53B
:10409800E6C5EAF50501EA51000AD8A4E8D7E951CE
:1040A800000AD8B4C6D7010AD8B4C9D7030AD8B405
:1040B800CAD7010AD8B4CBD7070AD8B4CCD7010AD3
:1040C800D8B4CDD7030AD8B4CED7D1D7E951EA119D
:1040D800D8B40CD0E9C5D9F4EAC5DAF4EF0EDE6E2F
:1040E800BE0EDE6EAD0EDE6EDE0EDD6EE4511CE140
:1040F800100EE35DD8B018D0AE0EEB6F0A0EEC6F61
:10410800020EEB27000EEC23D890E335D96EE43588
:10411800DA6ED890D936DA36EB51D926EC51DA2254
:10412800DE50DE10D8A40ED0D40EC76FF10EC86FC3
:10413800E3C5C9F5E4C5CAF503EC48F00501E36930
:10414800E4691200E951EA11D8B433D0AE0EEB6F2E
:104158000A0EEC6FD890E335D96EE435DA6ED89054
:10416800D936DA36EB51D926EC51DA22DEC408F515
:10417800DDC409F5E5C50AF5E6C50BF517EC48F009
:104188000501E7510826E8510922FF0E0824ED6FC2
:10419800FF0E0920EE6FEF6BF06BE9C5D9F4EAC5A5
:1041A800DAF4EDC5DEF4EEC5DEF4EFC5DEF4F0C5F5
:1041B800DEF4000EE46F000EE36F12000801D55123
:1041C800D8A404D00601486949691200000E060106
:1041D8004D6F000E4C6F64D0800E0501FD6F000E10
:1041E800FE6F0701FD510501FD5F000EFE5B060134
:1041F8004A510501FD5D06014B510501FE59D8A044
:1042080005D04AC64EF64BC64FF60CD00701FD51F5
:10421800800806014E6F0701000ED8A0E82A0008A2
:1042280006014F6F0701FD510801C225086E0701FD
:10423800000E0801C321096E48C60AF549C60BF5E8
:104248004EC60CF54FC60DF56EEC3EF006014E510C
:104258000701FD27800EFD19D8A419D0C9EC3EF03E
:1042680046514711D8B410D04DBF0AD04D5103E183
:104278004C05D8A005D04CC648F64DC649F61200E4
:10428800010E0801D36F9ED7000E0701FD6F0601CE
:104298004E514A5F4F514B5B4E514C274F514D2366
:1042A8004A514B11D8B4E7D797D7D90E1D6E080ECF
:1042B8001E6E0EC508F50FC509F5E8EC34F00EC5FD
:1042C800D9F40FC5DAF413C5DEF414C5DEF415C548
:1042D800DEF416C5DEF420EE04F00E50D9260F5099
:1042E800DA2210C5DEF411C5DEF412C5DEF441D0C1
:1042F8001DC5D9F41EC5DAF4DEC417F5DDC418F5FA
:1043080017C5D9F418C5DAF41350DE5C1450DE581A
:104318001550DE581650DE58D8A01DD01DC5D9F44A
:104328001EC5DAF410EE07F0DE50E126DD50E22279
:1043380020EE07F00E50D9260F50DA22E6C4DEF43C
:10434800E5C4DDF41DC5D9F41EC5DAF40EC5DEF4E6
:104358000FC5DDF412001DC5D9F41EC5DAF4DEC49C
:1043680017F5DDC418F5070E17241D6E000E18206A
:104378001E6E1DC5D9F41EC5DAF4DE50DE10D8A4B1
:10438800B7D720EE07F00E50D9260F50DA22000ECC
:10439800DE6E000EDD6ED6D70601B76FB70E0601CA
:1043A800B46F060EB56F29EC41F0B451B511D8A41D
:1043B8001200030E0801CD19D8B432D0870E0601B9
:1043C800B06F090EB16FB3EC42F0B70E0501C76FBD
:1043D800DE0EC86F03EC48F0A40E0601AF6FF60EB0
:1043E800B06FFF0EB16FFF0EB26FFF0EB36FFF0E0F
:1043F800B46FD3EC24F0AF51B011D8B40ED008018B
:10440800CC51D8A41200010ECC6F8C0E0501C76FD9
:10441800EC0EC86F03EC48F01200030E0801CD6FD4
:10442800B70E0601486F060E496F000E4B6F010E5E
:104438004A6FE2EC20F048054911D8B40ED00801C3
:10444800CC51D8A40DD0010ECC6F4D0E0501C76F0D
:10445800EF0EC86F03EC48F003D0000E0801CC6FD4
:10446800870E216E090E226EC80E236E920E246EE0
:10447800000E256E030E276EE80E266E72EC2DF0E8
:1044880012000A500B10D8A416D00801C851D8B48D
:104498000BD0C8072E0EC825D96EDA6A090EDA22A3
:1044A800DF500C6E0C502DD001EC4AF008C511F508
:1044B80009C512F556D020EE07F00A50D9260B5040
:1044C800DA22DE50DE10D8B41FD020EE07F00A50F2
:1044D800D9260B50DA22DE06000EDD5ADEC40CF5B2
:1044E800DDC40DF50C500A240E6E0D500B200F6E16
:1044F800050E0E24D96E000E0F20DA6EDF50106EF6
:104508001050116E126A2DD020EE03F00A50D926F1
:104518000B50DA22DEC40CF5DDC40DF50AC5D9F45A
:104528000BC5DAF4DEC40EF5DDC40FF50C500E240D
:10453800D96E0D500F20DA6EDF50106E1050116ECC
:10454800126A11501210D8A403D01168126809D049
:1045580020EE03F00A50D9260B50DA22DE2A000E8C
:10456800DD2211C50AF512C50BF51200000E1A6EF0
:10457800000E196E12C5D9F413C5DAF4DEC414F5A9
:10458800DDC415F514C5D9F415C5DAF4270EDE18FF
:10459800D8A432D012C5D9F413C5DAF4DE2A000E35
:1045A800DD22DEC417F5DDC418F512C508F513C5FC
:1045B80009F5000E0A6E000E0B6E63EC12F008503F
:1045C8000910D8A4F2D712C5D9F413C5DAF4DEC499
:1045D80014F5DDC415F51750145C196E18501558EC
:1045E8001A6E12C508F513C509F522EC43F019C572
:1045F80012F51AC513F5120012C5D9F413C5DAF469
:10460800DEC414F5DDC415F514C5D9F415C5DAF4FE
:10461800DF501B6E200E1B18D8B4E3D72C0E1B18C6
:10462800D8B4DFD73D0E1B18D8B4DBD71B50D8B48D
:10463800D8D7194A1A2A12C5D9F413C5DAF4DE2ACA
:10464800000EDD22D9D70501E351561804E1E451E3
:104658005718D8B4120009015E510501E35DE45111
:10466800800AE56F09015F51800A0501E559D8A064
:1046780015D00801FF51D8B411D0000EFF6FCB0E32
:104688000501C76FE70EC86FE3C5C9F5E4C5CAF5EC
:1046980003EC48F0000EC76F010EC66F09012551E3
:1046A80026112711D8B414D056C528F557C529F5B1
:1046B800E3C52AF5E4C52BF501D80AD00500FA6E42
:1046C8002551FD6E2651FE6E2751FF6EFA501200DD
:1046D800E3C556F5E4C557F556500501E56F575043
:1046E800E66FE76BE86BE6C5E8F5E5C5E7F5E66B69
:1046F800E56BE5C508F5E6C509F5E7C50AF5E8C5BA
:104708000BF501D812000500FA6E0901C551FD6EBE
:10471800C651FE6EC751FF6EFA501200F8C5D9F4A3
:10472800F9C5DAF45A0EDE18DE10D8B41200F8C54E
:10473800D9F4F9C5DAF4DE50DE10D8B4120012EC60
:104748004AF05A0E08180910D8B413D0EB0E050118
:10475800E36FDB0EE46F600EE56FDF0EE66F030EAE
:10476800E86F970EE76F350EE96FEA0EEA6FBFEC58
:1047780046F06AEC43F0000E0901516F460E506F87
:10478800000E0501EB6F000EEC6F9A0ED1ECC2F033
:10479800D4EC2AF0000E0901516F320E506FF8C5A3
:1047A800D9F4F9C5DAF40A0EDE18DE10D8A418D048
:1047B80001D80BD00500FA6EA751FD6EA851FE6E08
:1047C800A951FF6EFA50000E1200000E0B6E010E7A
:1047D8000A6E96EC48F0000E0901516F0A0E506FF0
:1047E800F8C5D9F4F9C5DAF4000EDE6E000EDD6EF8
:1047F8001200000E0501F16F000EF06FF0C508F50C
:10480800F1C509F5020E0B6E220E0A6E17EC48F080
:10481800000E08240501ED6F0F0E0920EE6FED5113
:10482800EB1946E1EE51EC19D8A442D0F0C5EDF5EC
:10483800010EEE6F000EEF6FED2B03D0D890EE3720
:10484800EF37ED2FFBD70901FD510501EE170901DF
:10485800FE510501EF17EE51EF11D8B412D0710EC9
:10486800E36FEA0EE46F400EE56FDE0EE66F000EB2
:10487800E86F880EE76F840EE96FFA0EEA6FBFECF7
:1048880046F0F0C5EDF5010E0501EE6F000EEF6F75
:10489800ED2B03D0D890EE37EF37ED2FFBD705017E
:1048A800EE510901FD130501EF510901FE13120034
:1048B800F04BF12BF1BFA2D7F15105E1060EF05DE7
:1048C800D8B012009BD71200E3C6E7F6E4C6E8F6B4
:1048D800E70E086E060E096ED6EC0FF008C5EBF66B
:1048E80009C5ECF60601ECAF02D00B0E1200D89009
:1048F800EB35D96EEC35DA6EAE0ED926080EDA2213
:10490800DEC4E9F6DDC4EAF6E951EA11D8B413D0F9
:10491800D890EB35D96EEC35DA6EAE0ED926080E86
:10492800DA22000EDE6E000EDD6EE9C6D9F4EAC6A4
:10493800DAF4000EDF6EE151E211D8B41BD020EE9C
:1049480001F0E151D926E251DA22EBC6DFF4E1C6E3
:10495800D9F4E2C6DAF4000EDF6ED890EB35D96EE2
:10496800EC35DA6EAE0ED926080EDA22E1C6DEF490
:10497800E2C6DDF4E551D8A402D0000E1200E30E21
:10498800B36F060EB46FE10EB56F060EB66F000E6C
:10499800B76F36EC9FF00601E66FE6511200E1ECC6
:1049A80026F0ADC6B5F6AEC6B6F6B551B611D8B452
:1049B80005D0B5C6AFF6B6C6B0F61200000E0801AF
:1049C800D46F820E086E0A0E096EC2C80AF5C3C8F3
:1049D8000BF59CEC3EF0820E06014A6F0A0E4B6FF7
:1049E800AFC64CF6B0C64DF6B1C64EF6B2C64FF6D7
:1049F800B3C650F6B4C651F630ECE5F04AC6B5F683
:104A08004BC6B6F60601B551B611D8B426D0000E7D
:104A1800016F000E006F100E026FE80E036FB5C62F
:104A280004F6B6C605F6B6EC2CF0010E0801D36FF5
:104A380059ECF0F09F0E0501C76FF30EC86F690EB1
:104A4800C96FF40ECA6F000ECC6F680ECB6F03EC03
:104A580048F00601AF69B0691200010E0801D56F70
:104A6800000E0701FD6F000E0601B06F000EAF6F5C
:104A7800120006012C6F22EED0F311EE00F2290E7F
:104A8800DBC4E3F4E806FCE2000E06012E6F000E1C
:104A98002D6F2DC608F52EC609F5000E0B6E030EF8
:104AA8000A6E17EC48F0000E0824D96E060E09208D
:104AB800DA6E06012C51DE18D8B408D02D4B2E2BF7
:104AC8002E5104E10E0E2D5DD8A0E3D72E512CE116
:104AD8000E0E2D5DD8B028D02DC608F52EC609F5C6
:104AE800000E0B6E030E0A6E17EC48F0010E082636
:104AF800000E0922000E0824D96E060E0920DA6E6F
:104B0800DEC42AF6DDC42BF6C70E0501C76FF90E01
:104B1800C86FE3C5C9F5E4C5CAF52AC6CBF52BC6E7
:104B2800CCF503EC48F01200BE0E0501C76FF90E74
:104B3800C86FE3C5C9F5E4C5CAF52CC6CBF5CC6B7F
:104B480003EC48F01200FCC54AF6FDC54BF6870E8B
:104B580006014C6FF80E4D6F000E4E6F000E4F6F32
:104B6800000E506F000E516F30ECE5F04AC654F657
:104B78004BC655F6060154515511D8B406D0FCC59C
:104B8800EAF5FDC5EBF59BEC45F0050120EE04F0D8
:104B9800FC51D926FD51DA22010EDBBE07D0010EE9
:104BA800DB5009E1020EDE5CD8B005D0870E0601A5
:104BB800526FF80E04D0AE0E0601526FFF0E536FFF
:104BC800000E016F020E006F760E026FE80E036F83
:104BD800050120EE04F0FC51D926FD51DA22DEC48D
:104BE80004F6DDC405F652C606F653C607F620EEEF
:104BF8001BF0FC51D926FD51DA22DEC408F6DEC4CA
:104C080009F6DEC40AF6DEC40BF6B6EC2CF054C680
:104C1800FCF555C6FDF51200000E2B6E050E2A6E2A
:104C280050D0040E17EC4AF02E0E1B6E050E1C6EAB
:104C3800000E1E6E010E1D6E130E206E880E1F6E66
:104C48008AEC3CF01BC52CF51CC52DF52C042D1049
:104C5800D8A437D0060E2E18D8A405D0000E276E7B
:104C6800000E266E1200180E2E18D8A405D0000EBD
:104C7800276E010E266E1200150E2E18D8A421D00C
:104C8800040E17EC4AF02E0E1B6E050E1C6E000E5D
:104C98001E6E010E1D6E130E206E880E1F6E8AEC9E
:104CA8003CF01BC52CF51CC52DF52C042D10D8A4E3
:104CB80008D0180E2E18D8B4DAD7060E2E18D8B485
:104CC800CDD72A50286E2B50296E010E2A5E000E71
:104CD8002B5A29BE05D02950A4E12804D8B0A1D761
:104CE800000E276E020E266E1200000E2114296E89
:104CF800000E22142A6E800E23142B6E7F0E2414AD
:104D08002C6E29502A102B102C10D8A408D0000E75
:104D1800216E000E226E000E236E000E246E000E11
:104D28002514296E000E26142A6E800E27142B6E69
:104D38007F0E28142C6E29502A102B102C10D8A462
:104D480008D0000E256E000E266E000E276E000E8F
:104D5800286E24AE09D0216C221ED8B0222A231E28
:104D6800D8B0232A800E245628AE09D0256C261EDA
:104D7800D8B0262A271ED8B0272A800E2856000E1B
:104D8800211A000E221A000E231A800E241A000E71
:104D9800251A000E261A000E271A800E281A2550EA
:104DA800215C265022582750235828502458D8B020
:104DB80002D0D8901200D88012000801D651D8B479
:104DC8000FD0110E0501C76FF10EC86F140EC96F11
:104DD800F60ECA6F03EC48F00601AD69AE69120021
:104DE800010ED66F000ED36F010E0501EC6F000E99
:104DF800EB6F7DEC1EF0EBC5BEF8ECC5BFF8000EFE
:104E08000501EC6F800EEB6F7DEC1EF0EBC5BAF878
:104E1800ECC5BBF8000E0501EC6F800EEB6F7DEC66
:104E28001EF0EBC5C2F8ECC5C3F80801BE51BF11AE
:104E3800D8B408D0BA51BB11D8B404D0C251C311E8
:104E4800D8A410D0010ED36F59ECF0F0F80E05017C
:104E5800C76FE90EC86F140EC96FF60ECA6F03EC60
:104E680048F0BAD7000E096E010E086E51EC49F0F1
:104E780008C552F909C553F9010ED26F000E060193
:104E8800AE6F000EAD6F1200800ECA5DD8A006D0BE
:104E9800000E0901396F4B0E386F1200CD0EE76F07
:104EA800050EE86FC7C5DCF5C8C5DDF5CA5104E1D4
:104EB800020EC95DD8A00AD0FF0EC925E56FFF0E06
:104EC800CA21E66F000EE06F000E07D0000EE66FF5
:104ED800010EE56F000EE06F010EDF6FDC0EBF6F95
:104EE800050EC06FCBC5C1F5CCC5C2F5E70EC36FC3
:104EF800050EC46F4FEC3DF0BFC5DAF5C0C5DBF554
:104F08000501C951CA11D8B41200DBBF1200FF0E47
:104F1800C925D56FFF0ECA21D66FD551DA5DDB5191
:104F2800800AD76FD651800AD759D8A007D0FF0E6C
:104F3800C925D86FFF0ECA21D96F04D0DAC5D8F5B4
:104F4800DBC5D9F5D851C725D96ED951C821DA6E34
:104F5800000EDF6E120021EE18F1070EDE6AE80679
:104F6800FDE2105011101210131014101510161025
:104F78001710D8B446D0010E206E0AD0D89010363B
:104F88001136123613361436153616361736202AC9
:104F980017AEF4D7D890183619361A361B361C3681
:104FA8001D361E361F361050085C11500958125015
:104FB8000A5813500B5814500C5815500D581650C9
:104FC8000E5817500F58D8A011D01050085E115025
:104FD800095A12500A5A13500B5A14500C5A1550A9
:104FE8000D5A16500E5A17500F5A1880D89017326B
:104FF8001632153214321332123211321032202E78
:10500800C9D718C508F519C509F51AC50AF51BC584
:105018000BF51CC50CF51DC50DF51EC50EF51FC5F8
:105028000FF51200000E156E000E146E48D0D69EB5
:105038000801B851B911D8B42DD0000E09014E2578
:10504800D96E0D0E4F21DA6EDF50166E010E4E2509
:10505800086E000E4F21096E000E0B6EC00E0A6E10
:105068009EEC44F008C54EF909C54FF90801B80788
:10507800D8A0B907A780D68E0DC5D9F40EC5DAF425
:1050880016C5DFF409014A4B4B2B000E0E6E010EBC
:105098000D6E1200C651C711D8B408D0D68E0DC5F2
:1050A800D9F40EC5DAF4000EDF6EEFD7D68E150EE2
:1050B800116EC60EE82EFED7112EFCD700D00F5069
:1050C8001010D8B4B4D71450116E1550126E144A7B
:1050D800152A0F50115C1250800A136E1050800A66
:1050E8001358D8A0A4D7000E0E6E000E0D6E120035
:1050F80004C912F505C913F506C914F507C915F54C
:1051080008C512F509C513F50AC514F50BC515F53B
:1051180012C50CF513C50DF514C50EF515C50FF51B
:10512800180E05D0D8900F320E320D320C32E82E00
:10513800F9D70C50106E116A10501110D8A419D05C
:10514800D89012340C6E13340D6E14340E6E153460
:105158000F6E0C500D100E100F10D8A405D0000EB5
:10516800096E020E086E1200000E096E030E086E1C
:10517800120010281110D8A41CD012C50CF513C5A4
:105188000DF514C50EF515C50FF5090ED8900C369A
:105198000D360E360F36E82EF9D70C500D100E10BE
:1051A8000F10D8A402D0010E01D0000E086E096AB3
:1051B8001200000E096E040E086E120013C508F5E1
:1051C80014C509F53AEC44F008C51BF509C51CF5EA
:1051D8001B500801BC25156E1C50BD21166E160407
:1051E800D8A039D01B50BC25156E1C50BD21166E99
:1051F800000E1524176EFF0E1620186E000E1A6E7C
:10520800000E196E16D01750BE25156E1850BF2106
:10521800166E19501524D96E1A501620DA6E1950C8
:10522800BE25E16E1A50BF21E26EDFC4E7F4194AC9
:105238001A2A000E156E010E166E1750155E1850BC
:10524800165A1550195C16501A58D8A0DCD71750A2
:10525800BC5F1850BD5BBC51BE25086EBD51BF2157
:10526800096E13C50AF514C50BF5010E1B240C6E47
:10527800000E1C200D6E6EEC3EF01B500801BC2782
:105288001C50BD2312000801C651C711D8B4120022
:1052980001D80BD00500FA6E0901BC51FD6EBD5155
:1052A800FE6EBE51FF6EFA501200D8B0120001D83F
:1052B8000CD00500FA6E0801E351FD6EE451FE6E54
:1052C800E551FF6EFA50000E12006A0EE82EFED766
:1052D80000D001D80BD00500FA6E0901BC51FD6E53
:1052E800BD51FE6EBE51FF6EFA501200D8A00ED00E
:1052F80001D812000500FA6E0801E351FD6EE45171
:10530800FE6EE551FF6EFA50010E1200000E080104
:10531800C76F000EC66F000E0B6E010E0A6E96EC7C
:1053280048F000EC41F0000E0B6E000E0A6E96EC91
:1053380048F001D812000500FA6E0801E351FD6E2D
:10534800E451FE6EE551FF6EFA50010E1200B0C630
:10535800D9F4B1C6DAF4DEC4B2F6DDC4B3F6B0C629
:10536800A4F6B1C6A5F6000EA76F010EA66F00EC55
:105378001EF0B46FB451D8A44CD0B2C641F6B3C62F
:1053880042F620EE16F0B051D926B151DA22DEC429
:1053980043F6DEC444F6DEC445F6DEC446F68EECBB
:1053A80030F0B46FB451D8A434D020EE1AF0B05114
:1053B800D926B151DA22DEC408F5DDC409F5000E9C
:1053C8000B6E000E0A6E000E0D6E200E0C6E1CEC9D
:1053D80016F0060120EE1AF0B051D926B151DA22A2
:1053E800DEC408F5DDC409F51C0EB0250A6E000EF2
:1053F800B1210B6E000E0D6E0B0E0C6E6EEC3EF0B6
:10540800060120EE04F0B251D926B351DA22010E7A
:10541800DF6EB4511200800ECA5DD8A006D0000E0F
:105428000901396F4B0E386F1200C7C5D6F5C8C5CC
:10543800D7F5CA5104E1020EC95DD8A00AD0FF0E03
:10544800C925DF6FFF0ECA21E06F000EDA6F000E6C
:1054580007D0000EE06F010EDF6F000EDA6F010E4D
:10546800D96FD60EBF6F050EC06FCBC5C1F5CCC5C1
:10547800C2F5CDC5C3F5CEC5C4F54FEC3DF0BFC5EB
:10548800D4F5C0C5D5F50501C951CA11D8B4120063
:10549800D5BF1200FF0EC925CF6FFF0ECA21D06FEE
:1054A800CF51D45DD551800AD16FD051800AD159DE
:1054B800D8A007D0FF0EC925D26FFF0ECA21D36F1F
:1054C80004D0D4C5D2F5D5C5D3F5D251C725D96EE8
:1054D800D351C821DA6E000EDF6E12007BC7D9F4F3
:1054E8007CC7DAF4DE50DE10D8B42BD07BC7D9F4F1
:1054F8007CC7DAF4DEC4FEF6DDC4FFF6FEC6D9F4D6
:10550800FFC6DAF4DF50D8B41CD0070120EE02F051
:105518007B51D9267C51DA22DE50DE10D8B411D066
:1055280020EE02F07B51D9267C51DA22DEC4FEF649
:10553800DDC4FFF6FEC6D9F4FFC6DAF4DF50D8A4FE
:105548000DD0530E0501C76FEA0EC86F03EC48F083
:10555800000E07017A6F000E796F12007BC7D9F42D
:105568007CC7DAF4DEC4E1F6DDC4E2F620EE02F030
:105578007B51D9267C51DA22DEC4E3F6DDC4E4F699
:105588003AECE1F07D6F7D51D8B4E2D7ED0E05011C
:10559800E36FF20EE46F07017D513DEC25F0D8D79B
:1055A80000EC40F0D4EC3FF075517611D8A44FD000
:1055B80056C522F557C523F58DEC43F009017751FF
:1055C800D8B423D05650286E5750296E2A6A2B6AB1
:1055D80029C52BF528C52AF5296A286A0B0E28241F
:1055E8001A6E000E29201B6E000E2A201C6E000E5B
:1055F8002B201D6E810E1E6EDA0E1F6E000E216EA0
:10560800030E206EF7EC37F022D05650286E575014
:10561800296E2A6A2B6A29C52BF528C52AF5296A15
:10562800286A0B0E28241A6E000E29201B6E000E05
:105638002A201C6E000E2B201D6E840E1E6EDA0EA4
:105648001F6E000E216E030E206EF7EC37F0090175
:105658005C515D11D8B41200000E0801C76F010E2D
:10566800C66F1200090EEE6FE451E511D8B441D0AF
:10567800E4C5D9F4E5C5DAF4DE50DE10D8B439D083
:10568800E4C5D9F4E5C5DAF4DEC4E8F5DDC4E9F526
:10569800E8C5D9F4E9C5DAF4DF50D8B42AD0E4C5AE
:1056A800D9F4E5C5DAF410EE06F0DE50E126DD5057
:1056B800E22220EE02F0E451D926E551DA22E65042
:1056C800DE1817E1E650DE18D8A413D0E4C5D9F4E3
:1056D800E5C5DAF410EE01F0DE50E126DD50E222F5
:1056E800E75023EC3FF00501E86FE8B102D0000E67
:1056F800EE6FEE51D8B405D0000EEC6F000EED6FD2
:1057080008D0E4C5D9F4E5C5DAF4DEC4ECF5DDC4A7
:10571800EDF5E6C5D9F4E7C5DAF4ECC5DEF4EDC578
:10572800DDF4EE511200000E096E000E086E13EC47
:1057380049F008C50CF509C50DF50CC508F50DC5EA
:1057480009F513EC49F00CA002D0010E01D0000EAF
:1057580009017B6F0CA202D0010E01D0000E7C6FF4
:105768000CA402D0010E01D0000E7D6F0CA602D051
:10577800010E01D0000E7E6F000E096E000E086E3D
:1057880020EC49F008C50CF509C50DF50CC508F560
:105798000DC509F520EC49F00CA002D0010E01D08E
:1057A800000E09017F6F0CA202D0010E01D0000E7D
:1057B800806F0CA402D0010E01D0000E816F0CA6E0
:1057C80002D0010E01D0000E826F0401435109017D
:1057D800836F040144510901846F04014551090193
:1057E800856F866B1200020E1D5E000E1E5A1F5A30
:1057F800205A20EE18F01B50D9261C50DA22FE0E33
:10580800DE24216EFF0EDE20226EFF0EDE20236EC8
:10581800FF0EDE20246E21501D5C22501E5823509E
:105828001F5824502058D8A009D0000E1B6E000E17
:105838001C6E000E1D6E000E1E6E120020EE2CF067
:105848001B50D9261C50DA22DEC421F5DEC422F50D
:10585800DEC423F5DEC424F520EE0AF01B50D92659
:105868001C50DA22DEC425F5DDC426F525C508F569
:1058780026C509F50A6A0B6A1DC50CF51EC50DF586
:105888001FC50EF520C50FF558EC40F0215008242F
:105898001B6E225009201C6E23500A201D6E2450B6
:1058A8000B201E6E1200E10E0601B36F060EB46FD8
:1058B800010EB56F070EB66F000EB76F36EC9FF08E
:1058C8000701006F0051D8A44BD001C703F702C7E6
:1058D80004F7030E0601AC6F070EAD6FE1C6AEF616
:1058E800E2C6AFF6EEECE9F00701006F0051D8A46C
:1058F80031D02AAF11D021EE09F310EE14F0015186
:10590800E1260251E222DEC4E6F4DEC4E6F4DEC497
:10591800E6F4DEC4E6F41ED007A91AD001C70FF5D5
:1059280002C710F51DC711F51EC712F5E6EC38F0D1
:10593800070120EE14F00151D9260251DA220FC5D1
:10594800DEF410C5DEF411C5DEF412C5DEF402D0B3
:10595800050E006F040E0019D8A402D0050E006FC2
:1059680000511200BAC8E6F5BBC8E7F5040E0501F8
:10597800E86F060EE96FE6C5C7F5E7C5C8F5000E7E
:10598800CA6F800EC96F02C6CBF503C6CCF5E80E08
:10599800CD6F050ECE6F0FEC2AF0E6C508F5E7C50A
:1059A80009F53AEC44F008C5E4F509C5E5F5050143
:1059B800E451E511D8B42ED0E451E625E16FE55164
:1059C800E721E26FFF0EE125D96EFF0EE221DA6EC4
:1059D8000A0EDE18D8A41ED0E451E625E16FE55181
:1059E800E721E26FFF0EE125D96EFF0EE221DA6EA4
:1059F8000D0EDF6EE6C513F5E7C514F5E2EC28F0E9
:105A0800860E136EF80E146EE2EC28F0010E0901F2
:105A1800FF6F1200E6C513F5E7C514F5E2EC28F0B0
:105A280012000A340B34116E1150D8A409D0000E9C
:105A3800086E000E096E000E0A6E000E0B6E120044
:105A480008C50CF509C50DF50AC50EF50BC50FF50A
:105A5800200E05D0D8900F320E320D320C32E82EBF
:105A6800F9D70C50106E0A8EFF0E0816FF0E091695
:105A7800FF0E0A16000E0B16960E115E11AE0DD013
:105A88001150800A970FD8A0D2D7D8900B320A327B
:105A980009320832113EF9D70DD01F0E116407D014
:105AA800C6D7D890083609360A360B361106115073
:105AB800D8A4F7D71050D8B408D00B1E0A1E091E58
:105AC800086C000E09220A220B2208C508F509C530
:105AD80009F50AC50AF50BC50BF512002C0E086E60
