:0400000081EF00F09C
:10000800240924092409240940002409400024095A
:100018002409240924092409240924092409240970
:100028002409400040004000240924092409240927
:100038002409240924092409240924092409240950
:10004800240924092409240940004000240924091A
:10005800240924092409400024092409240924091D
:100068002409240924092409240924092409240920
:1000780024092409240924094000240924092409FD
:100088002409240924092409240924092409240900
:1000980024092409240924094000240940004000B7
:1000A80024092409240924092409240924092409E0
:1000B80024092409240924092409240924092409D0
:1000C80024092409240924092409240924092409C0
:1000D80024092409240924092409240924092409B0
:1000E8004000240924092409400040004000400041
:1000F8002409240924092409FF0036EFFDF0020E23
:10010800165E000E175A185A195A20EE14F0145099
:10011800D9261550DA22FE0EDE241A6EFF0EDE20D6
:100128001B6EFF0EDE201C6EFF0EDE201D6E1A50A9
:10013800165C1B5017581C5018581D501958D8A039
:1001480009D0000E146E000E156E000E166E000E0D
:10015800176E120020EE28F01450D9261550DA2216
:10016800DEC41AF5DEC41BF5DEC41CF5DEC41DF5BD
:1001780020EE0AF01450D9261550DA22DEC41EF5F6
:10018800DDC41FF51EC508F51FC509F50A6A0B6A07
:1001980016C50CF517C50DF518C50EF519C50FF5DB
:1001A80074EC0DF01A500824146E1B500920156EBB
:1001B8001C500A20166E1D500B20176E12000A34B0
:1001C8000B34116E1150D8A409D0000E086E000E21
:1001D800096E000E0A6E000E0B6E120008C50CF5B3
:1001E80009C50DF50AC50EF50BC50FF5200E05D08E
:1001F800D8900F320E320D320C32E82EF9D70C504F
:10020800106E0A8EFF0E0816FF0E0916FF0E0A164C
:10021800000E0B16960E115E11AE0DD01150800A0D
:10022800970FD8A0D2D7D8900B320A3209320832A9
:10023800113EF9D70DD01F0E116407D0C6D7D8903C
:10024800083609360A360B3611061150D8A4F7D7E6
:100258001050D8B408D00B1E0A1E091E086C000ED8
:1002680009220A220B2208C508F509C509F50AC59D
:100278000AF50BC50BF5120020EE03F00850D9263D
:100288000950DA22DF500C6E0C50116E126A136A94
:10029800146A20EE02F00850D9260950DA22DF50FD
:1002A8000C6E0C5011C50EF512C50FF513C510F5DF
:1002B8000D6A0D10116E0E50126E0F50136E105005
:1002C800146E20EE01F00850D9260950DA22DF50CA
:1002D8000C6E0C5011C50EF512C50FF513C510F5AF
:1002E8000D6A0D10116E0E50126E0F50136E1050D5
:1002F800146E08C5D9F409C5DAF4DF500C6E0C5039
:1003080011C50EF512C50FF513C510F50D6A0D10C0
:10031800116E0E50126E0F50136E1050146E11C5E0
:1003280008F512C509F513C50AF514C50BF5120031
:10033800000E06013F6F20EE2CF03551D9263651BC
:10034800DA223751DE180AE13851DE1807E139514F
:10035800DE1804E13A51DE18D8B43FD035C623F68A
:1003680036C624F621ECE4F006013F6F3F51D8A4CD
:1003780034D0300E3525196F000E36211A6F37C666
:100388001BF638C61CF639C61DF63AC61EF6000E10
:10039800206F010E1F6F20EE01F03551D92636511E
:1003A800DA22DF5041ECECF00009D8B407D006019E
:1003B8003769386939693A69010E3F6F060120EEDD
:1003C8002CF03551D9263651DA2237C6DEF438C634
:1003D800DEF439C6DEF43AC6DEF43F51120010509E
:1003E8001110121013101410151016101710D8B47D
:1003F8003CD0010E186E0AD0D8901036113612363D
:1004080013361436153616361736182A17AEF4D79B
:100418001050085C1150095812500A5813500B58C4
:1004280014500C5815500D5816500E5817500F5898
:10043800D8A010D01050085E1150095A12500A5A0C
:1004480013500B5A14500C5A15500D5A16500E5A78
:1004580017500F5AD89017321632153214321332F9
:10046800123211321032182ED3D708C508F509C533
:1004780009F50AC50AF50BC50BF50CC50CF50DC534
:100488000DF50EC50EF50FC50FF512000AC513F5CB
:100498000BC514F50C501324116E0D501420126E58
:1004A80041D008C50EF509C508F50EC509F513C5EF
:1004B800D9F414C5DAF4DF500E6E0E50081A134A38
:1004C800142A08C50EF509C50FF5040E106ED8904C
:1004D8000F320E32102EFBD70F0E0E16000E0F160F
:1004E8000E50081A0F50091A08C50EF509C50FF560
:1004F8000C0ED8900E360F36E82EFBD70E50081A81
:100508000F50091AFF0E08140E6E000E09140F6E14
:10051800050ED8900E360F36E82EFBD70E50081A67
:100528000F50091A1150135C12501458D8A0B9D79B
:1005380008C508F509C509F51200A5C6D8F5A6C667
:10054800D9F5A90E0501DA6F060EDB6F27ECFFF06F
:100558000601AB6FAB51D8A444D0A751A811D8A4B9
:100568000FD0A5C65AF6A6C65BF6000E5C6F000E45
:100578005D6F000E5E6F000E5F6FF5ECC2F030D05D
:10058800A5C698F6A6C699F6000E9B6F000E9A6F40
:1005980090ECF0F0AB6F040EAB19D8A402D0000EAB
:1005A800AB6FAB51D8A41DD0A5C615F5A6C616F5D8
:1005B800A7C617F5A8C618F5F8ECD8F0A5C67EF6B4
:1005C800A6C67FF6000E0601816F000E806F1CEC38
:1005D800BBF00601AB6F040EAB19D8A402D0000E15
:1005E800AB6FAB51120008C510F509C511F50AC566
:1005F80012F50BC513F507D00C06D8A00D06104A46
:10060800112A124A132A0C500D10D8B41AD010C54A
:10061800D9F411C5DAF4DF500E6E12C5F6F413C51D
:10062800F7F4000EF86E250EF76403D00800F550B5
:1006380005D0F6C4E9F4F7C4EAF4EF500E18D8B4BC
:10064800DBD70C500D10D8A405D0000E096E000E93
:10065800086E120010C5D9F411C5DAF4DF500E6E19
:1006680012C5F6F413C5F7F4000EF86E250EF764FC
:1006780003D00800F55005D0F6C4E9F4F7C4EAF44D
:10068800EF500F6E0F500E5C086E096AD8A009066D
:100698001200256E00C72DF501C72EF5255040091B
:1006A800266E22C527F521C528F520C529F51FC5C1
:1006B8002AF5260E086E050E096E000E0B6E050E45
:1006C8000A6EADEC0BF001092B6E2DC50CF52EC58D
:1006D8000DF58AEC13F02DC512F52EC513F5000E95
:1006E800156E010E146E9FEC0DF02DC508F52EC584
:1006F80009F5260E0A6E050E0B6E000E0D6E060E1F
:100708000C6EB4EC0AF002C719F503C71AF5FF0E10
:100718002EEC12F02C6E23C5D9F424C5DAF42CC5BE
:10072800DFF42C28D8A405D0000E206E010E1F6E11
:100738001200000E206E000E1F6E12000D500E10DB
:10074800D8B404D00D500E10D8A404D00B5047ECE8
:1007580014F0120020EE09F00D50D9260E50DA22BE
:10076800DE50DE10D8B416D020EE09F00D50D92690
:100778000E50DA2210EE03F00D50E1260E50E22260
:10078800DE50E65CE650800A136EDE50800A13588D
:10079800D8B0120020EE03F00D50D9260E50DA2200
:1007A800DEC40FF5DDC410F50DC5D9F40EC5DAF4B5
:1007B800DEC411F5DDC412F50F501124D96E1050A6
:1007C8001220DA6E0BC5DFF420EE03F00D50D926A7
:1007D8000E50DA22DE2A000EDD221200EF29F01177
:1007E800D8A41EEC0DF02650286E2750296E2A6AD0
:1007F8002B6A29C52BF528C52AF5296A286A660EA9
:1008080028241A6E000E29201B6E000E2A201C6E4A
:10081800000E2B201D6E7B0E1E6E080E1F6E000E26
:10082800216E030E206E79EC07F02650286E2750B3
:10083800296E2A6A2B6A29C52BF528C52AF5296A43
:10084800286A660E28241A6E000E29201B6E000ED8
:100858002A201C6E000E2B201D6ECC0E1E6EE30E81
:100868001F6E000E216E030E206E3DEC07F026C5AC
:10087800EFF727C5F0F7120007011D511E11D8A484
:1008880005D01DC71AF51EC71BF506D0FF0E1D257E
:100898001A6EFF0E1E211B6E58A009D016C50BF547
:1008A8000C6A14C50DF515C50EF5A2EC03F01BAEC8
:1008B80004D0000E1B6E000E1A6E000E196E000E8C
:1008C800186E0CD0000E0C6E200E0B6E14C50DF5B4
:1008D80015C50EF5A2EC03F0184A192A1A50185C2F
:1008E8001950800A176E1B50800A1758D8A0EAD7EB
:1008F80058B009D016C50BF50C6A14C50DF515C509
:100908000EF5A2EC03F0010E1824146E000E192047
:10091800156E12000A6E710EF66EDD0EF76E000E81
:10092800F86E0900F5500A5CD8A03CD0720EF66E3D
:10093800DD0EF76E000EF86E0A500900F55CD8A0BF
:1009480005D0000E096E010E086E1200730EF66EC9
:10095800DD0EF76E000EF86E0900F5500A5CD8A09F
:100968000BD0740EF66EDD0EF76E000EF86E0A50A0
:100978000900F55CD8B0E5D7750EF66EDD0EF76E9A
:10098800000EF86E0900F5500A5CD8A00BD0760E60
:10099800F66EDD0EF76E000EF86E0A500900F55C73
:1009A800D8B0CFD7000E096E000E086E120058A0FE
:1009B8000AD01DC514F51EC515F51BC516F51CC5B1
:1009C80017F513EC11F020BE05D01FC524F520C57E
:1009D80025F504D0000E256E000E246E000E236E41
:1009E800000E226E0CD0000E0C6E200E0B6E1BC576
:1009F8000DF51CC50EF5A2EC03F0224A232A24505B
:100A0800225C2350800A216E2550800A2158D8A0E4
:100A1800EAD758B00AD01DC514F51EC515F51BC573
:100A280016F51CC517F513EC11F01DC508F51EC504
:100A380009F516EC10F0245008241B6E25500920E7
:100A48001C6E12000501DD6F010E0501DE6F10D06E
:100A5800000EDE6F23D0DB0EBE6FEA0EBF6FDDC562
:100A6800C0F5C16BD8C5C2F5C36BF8EC12F016D04F
:100A7800D851DB6FDC6BDC51000AD8A4ECD7DB5112
:100A8800000AD8B4E5D7010AD8B4E5D7030AD8B420
:100A9800E2D7010AD8B4DFD7070ADDD70601F55136
:100AA800F611D8B416D09F0E0501BE6FE80EBF6FC1
:100AB800DDC5C0F5C16BD8C5C2F5C36BD9C5C4F5D2
:100AC800DAC5C5F5C66BC76BDEC5C8F5C96BF8ECEA
:100AD80012F00501DE511200F129F211D8A413D049
:100AE8008A0E0501D86FEC0ED96FF00EDA6FE60E9C
:100AF800DB6F000EDD6FC20EDC6F970EDE6FF30E3C
:100B0800DF6FE3EC11F0F1C72AF5F2C72BF5000E01
:100B18002D6EB70E2C6EB1EC11F0F1510501E06F9E
:100B28000701F2510501E16FE26BE36BE1C5E3F503
:100B3800E0C5E2F5E16BE06BE0C51AF5E1C51BF530
:100B4800E2C51CF5E3C51DF5610E1E6EE20E1F6EB3
:100B5800000E216EB70E206E3DEC07F0000E070167
:100B68003E6F000E3D6F1200000E0814106E000E4E
:100B78000914116E800E0A14126E7F0E0B14136E78
:100B88001050111012101310D8A408D0000E086EBF
:100B9800000E096E000E0A6E000E0B6E000E0C148D
:100BA800106E000E0D14116E800E0E14126E7F0E54
:100BB8000F14136E1050111012101310D8A408D06F
:100BC800000E0C6E000E0D6E000E0E6E000E0F6EF7
:100BD8000C5008180AE10D50091807E10E500A18C0
:100BE80004E10F500B18D8B402D0D8901200D88066
:100BF8001200000E0D6E000E0C6E08016B51D8B479
:100C080002D0010E01D0000E0C126C51D8A40C8237
:100C18006D51D8A40C846E51D8A40C860CC508F567
:100C28000DC509F5E7EC13F0000E0D6E000E0C6E05
:100C380008016F51D8B402D0010E01D0000E0C1279
:100C48007051D8A40C827151D8A40C847251D8A4C4
:100C58000C860CC508F50DC509F5F4EC13F073C83E
:100C680043F474C844F475C845F473C843F474C8AD
:100C780044F475C845F412000DC7C2F60EC7C3F692
:100C88000FC7C4F610C7C5F6BEC6D9F4BFC6DAF496
:100C9800DE50DE10D8B421D0BEC6D9F4BFC6DAF40F
:100CA800DEC4C0F6DDC4C1F6C0C6D9F4C1C6DAF4E4
:100CB800DF50D8B412D0BEC6D9F4BFC6DAF4DEC449
:100CC80038F5DDC439F5CCECDEF038C5C2F639C5E7
:100CD800C3F63AC5C4F63BC5C5F6C4C6D8F5C5C6FD
:100CE800D9F5EDECF9F0C2C65FF7C3C660F7000EA0
:100CF8000601BD6F010EBC6F1200000E106E000ED3
:100D0800116E000E126E000E136E0C500D100E10A8
:100D18000F10D8B42AD0010E146E06D0D8900C3615
:100D28000D360E360F36142A0FAEF8D7D890103677
:100D38001136123613360C50085C0D5009580E50F7
:100D48000A580F500B58D8A009D00C50085E0D5007
:100D5800095A0E500A5A0F500B5A1080D8900F3269
:100D68000E320D320C32142EE1D710C508F511C51C
:100D780009F512C50AF513C50BF51200080E000196
:100D8800B16F000E0401006F000E086F000E106FA7
:100D9800000E186F209120932095000E086F000E0A
:100DA800106FC292CA92010E0201D56FA00ED46FC5
:100DB800D189D18BC68E070E766FBE8CC69C260E47
:100DC800076FD28FBE94C694C284CA94000EBF6EB9
:100DD800000EC76E000EC06E000EC86E3F0E046F88
:100DE800C696320E0401436F330E446F030E456FEF
:100DF800000E476F4691468F12000701F129F21144
:100E0800D8A49AEC0CF02EC52AF52FC52BF5000EA8
:100E18002D6EA60E2C6EB1EC11F02E50306E2F50A8
:100E2800316E326A336A31C533F530C532F5316A0D
:100E3800306A660E30241A6E000E31201B6E000ECA
:100E480032201C6E000E33201D6ECC0E1E6EE30E7B
:100E58001F6E000E216E2A0E206E3DEC07F02EC587
:100E6800F1F72FC5F2F7000E07013E6F010E3D6F37
:100E780012001AC514F51BC515F51CC516F51DC5B8
:100E880017F501D80BD00500FA6E0701DC51FD6E8D
:100E9800DD51FE6EDE51FF6EFA50120001D80CD003
:100EA8000500FA6E0701E251FD6EE351FE6EE45152
:100EB800FF6EFA50000E12001AC50EF51BC50FF58D
:100EC8001EC510F51FC511F520C512F521C513F56E
:100ED80001D812000500FA6E0701DF51FD6EE051DE
:100EE800FE6EE151FF6EFA5012001AC514F51BC5CB
:100EF80015F51CC516F51DC517F501D80BD005004D
:100F0800FA6E0701DC51FD6EDD51FE6EDE51FF6E9B
:100F1800FA50120001D80CD00500FA6E0701E25110
:100F2800FD6EE351FE6EE451FF6EFA50FF0E1200A3
:100F38001AC50EF51BC50FF51EC510F51FC511F511
:100F480020C512F521C513F501D812000500FA6E67
:100F58000701D951FD6EDA51FE6EDB51FF6EFA5072
:100F680012001A0E1124086E000E1220096EF7ECFA
:100F780010F008C517F509C518F5196A1A6A0FC5DA
:100F8800D9F410C5DAF4030EDE18D8A41CD0140E58
:100F98001124086E000E1220096EF7EC10F00850AC
:100FA800136E0950146E156A166A14C516F513C522
:100FB80015F5146A136A13501712145018121550A5
:100FC800191216501A1217C50FF518C510F519C5BC
:100FD80011F51AC512F51200F5C5D8F5F6C5D9F5FB
:100FE800F7C5DAF5F8C5DBF5F9C5DCF5FAC5DDF5C1
:100FF8008EECF4F0000EFF6FF7C5FBF5F8C5FCF5B5
:10100800000EFE6F000EFD6F0AD0FBC5D9F4FCC5BB
:10101800DAF4DF50FF27FB4BFC2BFD4BFE2BF9517D
:10102800FD5DFA51FE59D8A0F0D72E0EBE6FF20E14
:10103800BF6FF5C5C0F5F6C5C1F5430EC26FEF0E1B
:10104800C36FFFC5C4F5C56BF8EC12F012000701B9
:10105800F129F211D8A49AEC0CF02EC52AF52FC567
:101068002BF5000E2D6EB70E2C6EB1EC11F02E5034
:10107800306E2F50316E326A336A31C533F530C560
:1010880032F5316A306A30C51AF531C51BF532C5FB
:101098001CF533C51DF5610E1E6EE20E1F6E000EA7
:1010A800216EB70E206E3DEC07F02EC5F1F72FC567
:1010B800F2F7000E07013E6F000E3D6F1200000EA2
:1010C8000701246F000E236F24BF0ED0245104E1C2
:1010D800140E235DD8A008D0500E0501BE6FF60E81
:1010E800BF6FF8EC12F0FFD7000E0501E16F000E9C
:1010F800E06F000EE36F050EE26F000EE56F640E01
:10110800E46FD9ECB5F0E051E111D8B41200110E3A
:101118000501F06F3C0EEF6FCB0EE82EFED7EF2FD8
:10112800FCD7F02FFAD70701234B242BCDD7376EE6
:1011380000C738F501C739F533C53CF534C53DF569
:101148002FC51FF530C520F531C521F532C522F56B
:101158003CC523F53DC524F537504DEC03F01FC5BC
:101168003AF520C53BF53A503B10D8B403D0BBEC58
:1011780012F0120038C508F539C509F5010E3C24EE
:101188000A6E000E3D200B6EFF0E35240C6EFF0E0E
:1011980036200D6E56ECC9F0BBEC12F012000A6E48
:1011A8006D0EF66EDD0EF76E000EF86E0900F55046
:1011B8000A5CD8A026D06E0EF66EDD0EF76E000E15
:1011C800F86E0A500900F55CD8A005D0000E096E2B
:1011D800010E086E12006F0EF66EDD0EF76E000E31
:1011E800F86E0900F5500A5CD8A00BD0700EF66EA8
:1011F800DD0EF76E000EF86E0A500900F55CD8B0E7
:10120800E5D7000E096E000E086E1200BE920EC5DC
:1012180018F50FC519F518C5BFF4000E176E000EA6
:10122800166E23D0BE9A16501024146E1750112033
:10123800156E14C5F6F415C5F7F4000EF86E250EF4
:10124800F76404D0D0C4F5F40C0006D0F6C4E9F471
:10125800F7C4EAF4D0C4EFF4BE8A182A18C5BFF45C
:101268001850D8B4192A164A172A1250165C135067
:101278001758D8A0D7D7BE8212005051D8B426D05C
:10128800720E0501BE6FF00EBF6F09C7C0F50AC721
:10129800C1F50BC7C2F50CC7C3F5F8EC12F009C7C6
:1012A8003DF60AC73EF60BC73FF60CC740F6750E6B
:1012B8000601416F070E426F000E446F010E436F27
:1012C8005CECE0F0000E0701506F07D05E0E0501E0
:1012D800BE6FF20EBF6FF8EC12F0000E0601BD6F84
:1012E800000EBC6F1200BE920EC518F50FC519F599
:1012F80018C5BFF4000E176E000E166E22D0C290ED
:1013080016501024146E17501120156E14C5F6F4DB
:1013180015C5F7F4000EF86E250EF76403D0080023
:10132800F55005D0F6C4E9F4F7C4EAF4EF50C06EFE
:10133800C280182A18C5BFF41850D8B4192A164AFA
:10134800172A1250165C13501758D8A0D8D7BE8247
:101358001200D69E070133513411D8B41FD0B00EF5
:101368003125D96E0A0E3221DA6EDF500E6E010E6B
:101378003125086E000E3221096E000E0B6E500EDC
:101388000A6E38EC10F008C531F709C532F7330793
:10139800D8A03407A780D68E0E50120045514611AA
:1013A800D8B403D0D68E000E1200D68E150E0D6E50
:1013B800C60EE82EFED70D2EFCD700D0CAD708C51A
:1013C800D9F409C5DAF40AC5DFF4084A092A0B502A
:1013D8000A6E0C500B6E0D500C6E0D6A08C5D9F4D0
:1013E80009C5DAF40AC5DFF4084A092A0B500A6E5F
:1013F8000C500B6E0D500C6E0D6A08C5D9F409C55A
:10140800DAF40AC5DFF4084A092A0B500A6E0C50B0
:101418000B6E0D500C6E0D6A08C5D9F409C5DAF4C7
:101428000AC5DFF4084A092A120010C5F6F411C5E6
:10143800F7F4000EF86E0800F5500C6E0D6AA5EC76
:1014480012F00CC517F50DC518F5104A112A12C56A
:10145800D9F413C5DAF4DF50146E14500C6E0D6A0B
:10146800A5EC12F00CC515F50DC516F5124A132A90
:101478001550171808E116501818D8A404D017509A
:101488001810D8A4D2D71550175C106E16501858DB
:10149800116E12000C500D100E100F10D8B424D07D
:1014A800010E106E06D0D8900C360D360E360F365B
:1014B800102A0FAEF8D70C50085C0D5009580E5082
:1014C8000A580F500B58D8A008D00C50085E0D5081
:1014D800095A0E500A5A0F500B5AD8900F320E3232
:1014E8000D320C32102EE7D708C508F509C509F5E5
:1014F8000AC50AF50BC50BF5120056500501E46F35
:101508005750E56FE66BE76BE5C5E7F5E4C5E6F52B
:10151800E56BE46B900EE4251A6E000EE5211B6E58
:10152800000EE6211C6E000EE7211D6E510E1E6E88
:10153800070E1F6E000E216E160E206E79EC07F056
:1015480007016005D8B007D0020E646F000E636F04
:1015580070EC05F01200000E646F000E636F12004D
:101568000AC510F50BC511F50C500D10D8B41200B2
:101578000DC590F00CC58FF010C5D9F411C5DAF47B
:10158800DF5000018E6F104A112A000E0F6E010EF7
:101598000E6E0ED010C5D9F411C5DAF4DF508E6F77
:1015A800104A112AB3A0FED700018D510E4A0F2A06
:1015B8000C500E5C0D500F58D8A0ECD7B3A0FED736
:1015C80000018D5112005051D8B412002AC52CF5D3
:1015D800010E2D6E000E2E6E2C2A03D0D8902D36BB
:1015E8002E362C2EFBD7070139512D163A512E16BF
:1015F8002D502E10D8A412002AC522F52BC523F58C
:101608008CEC0FF02AC52CF5010E2D6E000E2E6EF7
:101618002C2A03D0D8902D362E362C2EFBD72D50C1
:10162800070139132E503A131200B8C5BCF5B9C5D5
:10163800BDF5000E07011C6F000E1B6F17D0B6C555
:1016480093F5B7C594F5BC0E0501956F050E966F19
:10165800BAC597F5BBC598F58FEC87F0050193518E
:1016680007011B270501945107011C23BCC5F6F48B
:10167800BDC5F7F4000EF86E0800F5500009D8A4AF
:10168800DED7000E0501B76F000EB66F120004D04A
:10169800084A092A0A4A0B2A08C5D9F409C5DAF4FE
:1016A800DF500C6E0AC5F6F40BC5F7F4000EF86EA1
:1016B8000800F5500C18D8A407D008C5D9F409C5F6
:1016C800DAF4DF50D8A4E4D708C5D9F409C5DAF4A8
:1016D800DF500C6E0AC5F6F40BC5F7F4000EF86E71
:1016E8000800F5500C5C086E096AD8A009061200BB
:1016F80024503F5D25504059D8B012002250266E24
:101708002350276E286A296A27C529F526C528F592
:10171800276A266A3F5126241A6E405127201B6EDD
:10172800000E28201C6E000E29201D6E000E3F257D
:101738001E6E0B0E40211F6E3F51245C206E4051DF
:101748002558216E79EC07F024C53FF725C540F7E9
:101758001200000E106E08C511F509C512F50A50E1
:1017680011240C6E0B5012200D6E1CD011C5D9F42B
:1017780012C5DAF4DF50101A114A122A000E0F6E41
:10178800000E0E6E10AE02D0890E101AD8901036C8
:101798000E4A0F2A0FBEF6D70F5004E1080E0E5C52
:1017A800D8A0F0D70C50115C0D501258D8A0DED735
:1017B80010501200BEC6D9F4BFC6DAF4DE50DE10EF
:1017C800D8B41ED0BEC6D9F4BFC6DAF4DEC4C0F69B
:1017D800DDC4C1F6C0C6D9F4C1C6DAF4DF50D8B446
:1017E8000FD0BEC6D9F4BFC6DAF4DEC438F5DDC4FE
:1017F80039F5CCECDEF038C541F739C542F704D0ED
:10180800000E426F010E416F000E0601BD6F000E03
:10181800BC6F12005650226E5750236E246A256AF8
:1018280023C525F522C524F5236A226AA10E2224A0
:101838001A6E000E23201B6E000E24201C6E000E54
:1018480025201D6E510E1E6E070E1F6E000E216E96
:10185800160E206E79EC07F007016005D8B005D0A8
:10186800020E646F000E636F1200000E646F000EAC
:10187800636F120001D80BD00500FA6E0801E7511A
:10188800FD6EE851FE6EE951FF6EFA501200CC0E63
:101898000601CC6F180ECD6FB00ECE6FFF0ECF6F56
:1018A800010ED06FC4ECFAF00009D8B40DD0FB0ECD
:1018B8000501BE6FF00EBF6FF8EC12F0FF0E0601C7
:1018C800D96FFE0ED86F1200000ED96F000ED86FB8
:1018D80012000D6E020E0001D56F000ED66F0DB00E
:1018E80004D0000E0A6E250E03D0000E0A6E240ED8
:1018F800096E09C5DAF0800ED66F030ED56F000E9B
:10190800D66F0DC508F5D890083208B004D0000E7F
:101918000C6E250E03D0000E0C6E240E0B6E0BC53C
:10192800DAF0800ED66F000ED56F12000701F1298C
:10193800F211D8B41200F151226EF251236E246ACA
:10194800256A23C525F522C524F5236A226A22C5FE
:101958001AF523C51BF524C51CF525C51DF5000E74
:101968001E6E0B0E1F6E3FC720F540C721F53DECDC
:1019780007F0000E0701F26FF169000E406F000ECC
:101988003F6F1200516E0701F551D8B404D0AA0E6A
:101998005118D8A41200AA0E5118D8A403D0000ECA
:1019A800F56F120051AC0CD0C50E0501BE6FF00EDC
:1019B800BF6F000EC16FA00EC06FF8EC12F0FF00F1
:1019C80051AE12004B0E0501BE6FF10EBF6F000E37
:1019D800C16FA00EC06FF8EC12F0FFD70BBE07D096
:1019E8000B500A1009101DE10804D8B01AD008C518
:1019F8000CF509C50DF50AC50EF50BC50FF50C1E3E
:101A08000D1E0E1E0F1E0C2A000E0D220E220F2276
:101A18000CC508F50DC509F50EC50AF50FC50BF57A
:101A2800120008C508F509C509F50AC50AF50BC568
:101A38000BF51200EF29F011D8B41200EF51226E05
:101A4800F051236E246A256A23C525F522C524F59D
:101A5800236A226A660E22241A6E000E23201B6E49
:101A6800000E24201C6E000E25201D6E7B0E1E6E9F
:101A7800080E1F6E000E216E030E206E3DEC07F05F
:101A8800000E0701F06FEF691200516E5150D8B483
:101A98000ED00601F551F611D8B407D0A60E0501EF
:101AA800BE6FF20EBF6FF8EC12F0020E12000701C3
:101AB800E52914E1E62912E1E72910E1E829D8A48B
:101AC8000DD00601F551F611D8B4EFD7D00E0501A7
:101AD800BE6FF40EBF6FF8EC12F0E7D7000E1200DD
:101AE800000E106E000E116E000E126E000E136EB8
:101AF80008A008D00C5010260D5011220E501222AA
:101B08000F501322D8900C360D360E360F36D8905B
:101B18000B320A3209320832085009100A100B1029
:101B2800D8A4E6D710C508F511C509F512C50AF5F8
:101B380013C50BF51200186812C508F513C509F589
:101B480020EC0FF0000E176E000E166E10D012C5A6
:101B580008F513C509F5180E0A6E050E0B6E000E72
:101B68000D6E010E0C6EB4EC0AF0164A172A1450CA
:101B7800165C15501758D8A0EAD712C508F513C532
:101B880009F52FEC11F01200ED0E0501BE6FE60EFF
:101B9800BF6FF8EC12F0E30EBE6FF10EBF6FF8ECFA
:101BA80012F0110E0501D96F3C0ED86FCB0EE82E3E
:101BB800FED7D82FFCD7D92FFAD7CA0E0501BE6F8A
:101BC800F10EBF6FF8EC12F0ED0EBE6FE60EBF6FB0
:101BD800F8EC12F01200C20ED16F050ED26FBEC51E
:101BE800C6F5BFC5C7F5000ECA6F000EC96F000E57
:101BF800D06F000ECF6FC60EB66F050EB76FC0C59B
:101C0800B8F5C1C5B9F5D10EBA6F050EBB6F19ECA1
:101C18000BF0C951BE25D96ECA51BF21DA6E000E2C
:101C2800DF6E1200066ED69E070134511AE1500E7F
:101C3800335DD8B016D033513125016E345132217D
:101C4800026E000E046E500E036E7AEC10F0B00EA9
:101C58000124D96E0A0E0220DA6E06C5DFF4334B72
:101C6800342B345103E1400E335DD8B0A790D68EA3
:101C78001200010E146E200E0E10106E000E0F10C2
:101C8800116E9F0E1024126EFF0E1120136E13504A
:101C980004E11A0E125CD8A00ED0D00E0E24106EDD
:101CA800FF0E0F20116E115004E10A0E105CD8A02F
:101CB80002D0000E146E14C50EF50F6A12000D6ED8
:101CC800D69E0701305104E1500E2F5DD8A004D0F4
:101CD800B7A2FED789EC0EF02F512D25086E305192
:101CE8002E21096E000E0B6E500E0A6E38EC10F0A5
:101CF800600E0824D96E0A0E0920DA6E0DC5DFF4CD
:101D08002F4B302BA782D68E12001DD0600E2D25AA
:101D1800D96E0A0E2E21DA6EDF500201C96F010E4C
:101D280007012D25086E000E2E21096E000E0B6E80
:101D3800500E0A6E38EC10F008C52DF709C52EF7BD
:101D48002F07D8A0300707012F513011D8B412003F
:101D5800B7A21200DBD71DD0600E2D25D96E0A0E52
:101D68002E21DA6EDF500201C96F010E07012D2501
:101D7800016E000E2E21026E000E046E500E036ED0
:101D88007AEC10F001C52DF702C52EF72F07D8A061
:101D9800300707012F513011D8B41200B7A2120032
:101DA800DBD7286E756C6C2900770865FF1A000070
:101DB800001A0000001A0000001A000000000000CD
:101DC800000000000000000000000000008000008B
:101DD800008000000080000000800000000000007B
:0D1DE800000000000000000000644000004A
:101DF6009BEC10F0000E0001D56F000ED66F000EA2
:101E0600D86F7F0ED96F7F0EDA6F7F0EDB6F010EF4
:101E1600DC6F000EDD6F000EDE6F000EDF6F820ED0
:101E2600D76F8C0ED66F000ED46FAE9A9E9A010EA7
:101E36000201056FBE84C282120008C50AF509C5F3
:101E46000BF520EE02F00A50D9260B50DA22DF50AD
:101E5600D8A410D0340E02011B6F350E1A6F20EE77
:101E660003F00A50D9260B50DA22C8C4DFF4C9920F
:101E7600C994C98620EE02F00A50D9260B50DA2200
:101E8600DF2A120012D008C5D9F409C5DAF4DFC476
:101E96000AF5010EDE26DFC40BF5000EDD220AC5AB
:101EA600D9F40BC5DAF4000EDF6E08C5D9F409C5FE
:101EB600DAF4DEC40AF5DDC40BF50AC5D9F40BC5A0
:101EC600DAF4200EDE18D8A41200DDD7A2ECF7F063
:101ED6005650386E5750396E3A6A3B6A39C53BF5EB
:101EE60038C53AF5396A386A38C50EF539C50FF579
:101EF6003AC510F53BC511F501D812000500FA6E7A
:101F06000701D651FD6ED751FE6ED851FF6EFA50BD
:101F160012002250246E2350256E266A276A25C594
:101F260027F524C526F5256A246A080E24241A6E88
:101F3600000E25201B6E000E26201C6E000E27208C
:101F46001D6E690E1E6EE20E1F6E000E216E060ECF
:101F5600206E3DEC07F01200000E251A000E261A20
:101F6600000E271A800E281A21C508F522C509F584
:101F760023C50AF524C50BF525C50CF526C50DF5B3
:101F860027C50EF528C50FF5FDECBFF008C521F5F0
:101F960009C522F50AC523F50BC524F5120008C5A7
:101FA600F6F409C5F7F4000EF86E0800F5500A18A5
:101FB600D8A405D008C508F509C509F5120008C555
:101FC600F6F409C5F7F4084A092A000EF86E080067
:101FD600F5500009D8A4E3D7000E086E000E096E6E
:101FE60012000AC511F50BC512F508C50FF509C58E
:101FF60010F510D011C5D9F412C5DAF4DF500E6E03
:10200600114A122A0FC5D9F410C5DAF40EC5DFF449
:102016000F4A102A0C06D8A00D060C28EBE10D2855
:10202600D8B41200E7D708C50AF509C50BF502D0E2
:10203600084A092A08C5F6F409C5F7F4000EF86E31
:10204600250EF76403D00800F55005D0F6C4E9F470
:10205600F7C4EAF4EF500009D8A4EAD70A50085C9E
:10206600086E0B500958096E12000A500B10D8B4AE
:1020760018D0010E0C6E04D0D8900A360B360C2AF6
:102086000BAEFAD70A50085C0B500958D8A004D0FA
:102096000A50085E0B50095AD8900B320A320C2EA1
:1020A600F1D708C508F509C509F512001A0E0E2460
:1020B600086E000E0F20096E10C50AF511C50BF546
:1020C600E4EC12F00CC5D9F40DC5DAF4030EDE18F3
:1020D600D8A41200140E0E24086E000E0F20096EEE
:1020E60012C50AF513C50BF5E4EC12F01200035005
:1020F6000410D8B418D0010E056E04D0D89003365B
:102106000436052A04AEFAD70350015C045002587F
:10211600D8A004D00350015E0450025AD89004326D
:102126000332052EF1D701C501F502C502F51200ED
:1021360004010969C7681169C8680181C6800183FD
:10214600C682018BC68A2181CA80BE88C698550E72
:10215600596FAA0E596F5991080E5D6F000E5E6F8A
:10216600000E5F6F550E596FAA0E596F59811200F6
:102176000701D351D411D511D8B40DD001D812000E
:102186000500FA6ED351FD6ED451FE6ED551FF6E29
:10219600FA50000E1200BD0E0501BE6FF20EBF6FA3
:1021A600C10EC06FF30EC16FF8EC12F012000AC533
:1021B6000CF50BC50DF508C50EF509C50FF50CC5D3
:1021C600F6F40DC5F7F40C4A0D2A000EF86E0EC58E
:1021D600D9F40FC5DAF40E4A0F2A0800F5C4DFF465
:1021E600DF50D8B41200EBD720EE01F00850D92604
:1021F6000950DA22DF500A6E0A500D6E0E6A08C5C3
:10220600D9F409C5DAF4DF500A6E0D500B6E0A5088
:102216000D6E0BC50EF50DC508F50EC509F51200B8
:10222600000E1A6E000E196E0BD018C50BF50C6A4F
:1022360016C50DF517C50EF5A2EC03F0194A1A2AB4
:1022460019501424D96E1A501520DA6EDF50186E04
:102256001850D8B41200E9D708C50AF509C50BF518
:1022660020EE02F00A50D9260B50DA22DF06DF50A4
:10227600D8A41200000E02011B6F000E1A6F20EE8A
:1022860003F00A50D9260B50DA22DF50C86E12002E
:102296000701D351D411D511D8B40DD001D80BD024
:1022A6000500FA6ED351FD6ED451FE6ED551FF6E08
:1022B600FA50010E120056C52EF557C52FF501EC42
:1022C60007F0120008C50AF509C50BF520EE02F065
:1022D6000A50D9260B50DA22000EDF6E000E0001DE
:1022E600916F000E926F1A0E02016D6F1B0E6E6FCC
:1022F600C9900001918F120007D008C5D9F409C50D
:10230600DAF4DE2A000EDD2208C5D9F409C5DAF4AE
:10231600DEC40AF5DDC40BF50AC5D9F40BC5DAF43B
:10232600200EDE18D8A41200E8D732C515F533C53D
:1023360016F534C517F535C518F536C519F537C57B
:102346001AF5000E1B6ECEECBCF015C532F516C59F
:1023560033F517C534F518C535F512002A500701AF
:10236600F11903E12B50F219D8A49AEC0CF02AC506
:1023760022F52BC523F52CC524F52DC525F57CECBA
:102386000BF0000E07013E6F010E3D6F1200085064
:102396000910D8B40DD0000EC76EC19CC99CC19E51
:1023A600C99EBE82BE8AC280C692C69ACA901200D2
:1023B600C768C98CC98EC868C682C68ACA80120018
:1023C600520EBE6FEE0EBF6FD8C5C0F5D9C5C1F5AA
:1023D600DAC5C2F5DBC5C3F5DEC5C4F5DFC5C5F58F
:1023E600DCC5C6F5DDC5C7F5F8EC12F0A5EC14F0B2
:1023F60012001BBE05D01B5010E11A04D8B00DD038
:102406001AC51CF51BC51DF51C1E1D1E1C4A1D2AC2
:102416001CC51AF51DC51BF512001AC51AF51BC5F4
:102426001BF51200010E0C6E200E08180910D8B408
:102436000ED0F70E08240A6EFF0E09200B6E0B5005
:1024460004E1050E0A5CD8A002D0000E0C6E0CC585
:1024560008F5096A12001B6E00C71CF501C71DF5B9
:102466001CC516F51DC517F579EC13F01E6E1B502D
:102476001E18D8A407D01906D8A01A0619501A1083
:08248600D8A4EED71E5012008D
:10249000B7A00ED0C7C207F50750D8B404D0075074
:1024A00016EC0EF005D0000E0701466F010E456FC9
:1024B000AFEC0EF02F513011D8A41100A7921100EB
:1024C000E3C5D8F5E4C5D9F5E50EDA6F050EDB6F87
:1024D00027ECFFF0E76FE751D8A41200E3C5D9F469
:1024E000E4C5DAF4000EDE6E000EDD6E1200D85187
:1024F0000701435D4451800A516E0501D951800A9C
:102500005158D8B01200CF0EBE6FE70EBF6FD8C5BE
:10251000C0F5D9C5C1F5F8EC12F012000850091049
:102520000A100B10D8B408D0000E081A000E091AB1
:10253000000E0A1A800E0B1A08C508F509C509F520
:102540000AC50AF50BC50BF512009F0E0C240E6E82
:10255000FF0E0D200F6E0F5009E11A0E0E5CD8B061
:1025600005D05F0E0C140C6E0D6A12000CC50CF534
:102570000DC50DF5120000C719F501C71AF519C5EB
:102580000CF51AC50DF59BEC13F019C512F51AC51B
:1025900013F5000E156E010E146E9FEC0DF0120077
:1025A00014C50EF515C50FF516C510F517C511F5AF
:1025B00001D812000500FA6ED651FD6ED751FE6E9D
:1025C000D851FF6EFA50120008C5D9F409C5DAF4E3
:1025D0000AC5DFF4084A092A0BC50AF50B6A08C5C3
:1025E000D9F409C5DAF40AC5DFF4084A092A120049
:1025F000C00E0501D66F050ED76F000EB66F000E28
:10260000B76FBEC5B8F5BFC5B9F5D60EBA6F050E22
:10261000BB6F19EC0BF012000CD0050E096E0F0EFB
:10262000086EF10EE82EFED7082EFCD7092EFAD739
:1026300000F007012F513011D8B41200EED7085026
:102640000A02F3C40CF5F4C40DF508500B02F35064
:102650000D2609500A02F3500D260CC508F50DC5CC
:1026600009F512009F0E08240A6EFF0E09200B6E5A
:102670000B5006E11A0E0A5CD8B002D0010E01D050
:10268000000E086E096A1200BF0E08240A6EFF0EC3
:1026900009200B6E0B5006E11A0E0A5CD8B002D06E
:1026A000010E01D0000E086E096A1200D00E082437
:1026B0000A6EFF0E09200B6E0B5006E10A0E0A5C33
:1026C000D8B002D0010E01D0000E086E096A1200C7
:1026D0000AC508F50BC509F501D812000500FA6E08
:1026E0000801ED51FD6EEE51FE6EEF51FF6EFA5096
:1026F0001200186816C508F517C509F5180E0A6EF8
:10270000050E0B6E000E0D6E010E0C6E56ECC9F030
:10271000185012000CC508F50DC509F520EC0FF096
:102720000CC508F50DC509F5000E0B6E010E0A6EFD
:102730004FEC14F012000CC508F50DC509F5000E9C
:102740000B6E000E0A6E4FEC14F00CC508F50DC5AB
:1027500009F52FEC11F012004C51126E136A105053
:10276000121804E111501318D8B4120010C54CF718
:102770004C516DEC0CF012009BECFDF001D81200F6
:102780000500FA6E0801EA51FD6EEB51FE6EEC5148
:10279000FF6EFA5012000701D351D411D511D8B4ED
:1027A00006D056C526F557C527F5F2EC03F0BBEC6D
:1027B00010F0120001D812000500FA6E0801E45171
:1027C000FD6EE551FE6EE651FF6EFA501200F5C641
:1027D0000AF5F6C60BF508C5F5F609C5F6F60AC5FD
:1027E00008F50BC509F5120054C50AF555C50BF5DA
:1027F00008C554F509C555F50AC508F50BC509F511
:102800001200FFFFFFFF0100FFFF0F00FF00FF00AE
:05281000FF01FFCF01F4
:1028160014EC14F00AC508F50BC509F5CFEC14F055
:10282600120001D04B0707014B51800A7F0FD8A039
:102836001200F8D7000E086EC00E096EFF0E0A6E63
:10284600FF0E0B6E1200000E086E000E096E210EB2
:102856000A6E000E0B6E1200CE0E0701186F150ED3
:10286600196F000E1A6F1200AEBA12000701455119
:102876004611D8A41200F8D7086E0804D8A412008E
:102886000001D785D79512000A6E0CEC13F0B7A29B
:10289600FED70AC5C9F212000A500B10D8A402D0FE
:1028A600C1801200C1901200FF00000E0601BD6F2C
:1028B600000EBC6F1200086E08A002D0C282120081
:1028C600C2921200086E08A002D0C2841200C294FE
:1028D600120056C52EF557C52FF52BEC08F0120041
:1028E600086E08A002D0BE881200BE981200086EBC
:1028F60008A002D0BE841200BE941200000E07018A
:10290600366F0A0E356F1200000E0601BD6F010EFE
:10291600BC6F1200086E08C5EBF70701EC6B1200DE
:10292600AEBA02D0D8901200D8801200CEBA02D029
:10293600D8901200D8801200CEB002D0D8901200E3
:10294600D8801200FF0E0B6E0A680BEC14F0120012
:10295600D2B002D0D8901200D8801200230E086E92
:10296600F60E096E120035C708F536C709F51200CE
:10297600000E096E08681200086E08C5C0F4120041
:10298600086E08C5C8F41200AE9A1200D0501200A4
:0A299600CF501200F5511200FFD7D8
:10DD26000084F8690700D4F56A070081F56B0700DF
:10DD360084F46C0700E4F56D07017AF66B08007150
:10DD4600F46C0800D6F36D08002DF36E0800F8F6A3
:10DD56006F080018F570080097F4710800ACF372AC
:10DD66000800F4F4730802819FE0FC407E80FC000A
:10DD76000090002900A10010000000E1FF0201AAA6
:10DD8600F700024AFB000318FD000494FE00058E0E
:10DD9600FE0106C6F8000783FF00083DF90009C921
:10DDA600F9000A47F9000B11FD000CB2FE000DAC9C
:10DDB600FE010E37FA000F88FF011052FC0211C255
:10DDC600F70012A1F9001396FD0014D6FE0015D037
:10DDD600FE0116D1F80017CDFF011854FF0019E710
:10DDE600F9001A51F9001B8FFD001CF4FE001DEE10
:10DDF600FE011E41FA001FD1FF0120E6FA0221DAD8
:10DE0600F70222EAF600231BFE002412FF00250C6F
:10DE1600FF0126DCF80027C9FF01284AFC00292358
:10DE2600FA022A88F6002B14FE002C30FF002D2A59
:10DE3600FF012E4BFA002FDDFF0130DDFA0231F231
:10DE4600F702322CF7003337FE00349EFA00359580
:10DE5600FA0136A4F60037D9FF013842FC00392D05
:10DE6600FA023A1FF7003B30FE003C76FE003D709A
:10DE7600FE013EBBF8003FD5FF0040B6FC0041E77F
:10DE8600FC004234FD004365FD0044B9FD0045EA4F
:10DE9600FD004665F9004785FC0048BDFC0049EEDB
:10DEA600FC004A3BFD004B6CFD004CC0FD004DF1F3
:10DEB600FD004E6FF9004F8CFC0050C4FC0051F57C
:10DEC600FC005242FD005373FD0054C7FD0055F897
:10DED600FD005679F9005793FC0058CBFC0059FC1D
:10DEE600FC005A49FD005B7AFD005CCEFD005DFF3B
:10DEF600FD005E83F9005F9AFC0060D2FC006103BE
:10DF0600FD006250FD006381FD0064D5FD006506DD
:10DF1600FE00668DF90067A1FC0068D9FC00690A5D
:10DF2600FD006A57FD006B88FD006CDCFD006D0D81
:10DF3600FE006E97F9006FA8FC0070B5F90071BF7E
:10DF4600F90072D3F90073DDF90074F1F90075195F
:10DF5600FA0076ABFF0077ABF90078AFFC0079E00A
:10DF6600FC007A2DFD007B5EFD007CB2FD007DE3AA
:10DF7600FD007E5BF9007F7EFC008062FB00817AFB
:10DF8600FB00829AFB0083B2FB0084DAFB00853239
:10DF9600FC0086B0F8008742FB00885AFB008972B5
:10DFA600FB008A92FB008BAAFB008CD2FB008D2A19
:10DFB600FC008EA5F8008F3AFB009088FE0091A623
:10DFC600FE0092CAFE0093E8FE009406FF00952428
:10DFD600FF00968CFA00976AFE009852FB00996A39
:10DFE600FB009A8AFB009BA2FB009CCAFB009D22B9
:10DFF600FC009E9AF8009F32FB00A09AFE00A1B892
:10E00600FE00A2DCFE00A3FAFE00A418FF00A5365F
:10E01600FF00A6A7FA00A77CFE00A8A0FE00A9BEE6
:10E02600FE00AAE2FE00AB00FF00AC1EFF00AD3C06
:10E03600FF00AEB0FA00AF82FE00B0A1FE00B1BF95
:10E04600FE00B2E3FE00B301FF00B41FFF00B53DC2
:10E05600FF00B6B1FA00B783FE00B88DFF00B99293
:10E06600FF00BA97FF00BB9CFF00BCA1FF00BDA646
:10E07600FF00BE22FB00BF7EFF00C03EFE00C11FA8
:10E08600FD02C2FEF702C3C2FA02C4DCF600C58274
:10E09600FB01C69EF700C7E2FB00C84EFF00C9E5BC
:10E0A600FF02CA13F900CB000002CC60F702CDE7ED
:10E0B600F801CE92F700CF02FC00D026FD00D19DDC
:10E0C600FD02D2B6F701D396F602D4B2F600D5BA5F
:10E0D600FB01D6FBF900D7EAFB00D8C4FE00D9E95C
:10E0E600FF02DAF2F801DB12F702DC53F700DD007B
:10E0F6000001DE86F700DF0AFC00E029FE00E122CF
:10E10600FE02E2E6F700E31EF902E4CEF600E53A87
:10E11600FC01E605FA00E7F2FB00E8A4FD00E92AA7
:10E12600FB02EACEF700EBCBFA02ECC0F600ED00FC
:10E136000001EE0FFA00EF12FC00F048FF00F1AB11
:10E14600FD02F208F900F3F8FF02F446F700F5C203
:10E15600FB01F610FA00F7FAFB00F842FF00F9D4CB
:10E16600FA02FAFDF800FBFBFF02FC39F700FD009E
:10E176000001FEB9FA00FF1AFCF0000000C3960089
:10E1860043502F4D20626F6F742D6C6F6164657202
:10E1960020666F72205A38302D53696D756C617424
:10E1A6006F720D0A00000000000000000000000071
:10E1B6000000000000000000000000000000000059
:10E1C6000000000000000000000000000000000049
:10E1D6000000000000000000000000000000000039
:10E1E6000000000000000000000000000000000029
:10E1F60000000000000000000000000000424F4F39
:10E20600543A206572726F7220626F6F74696E671E
:10E216000D0A002103007ED30123B7C29900ED4603
:10E22600FB010100210000AFD30A78D30B79D30C90
:10E236007DD30F7CD310AFD30DDB0EB7CA0000C65B
:10E2460030D3013E0DD3013E0AD3012180007EB7B3
:10E25600CADC00D30123C3D100F376D31C182731BF
:10E26600000000D31B00C30E00ED73B10031AD00FA
:10E27600F5AF32B500C5D5E5DDE5FDE5ED7BB100D1
:10E28600E122AF0018D52AB3007DB428431100005F
:10E29600060E1A77231310FA2AB300110400192266
:10E2A600AD00182C00000000000000000000000077
:10E2B6000000000000000000000000000000000058
:10E2C60000D31B00ED73B10031AD00F53E0118A27D
:10E2D600DD2AB3003E1ADD77092AB100DD7505DDBA
:10E2E60074063AA000DD770B2323F92AAF00E53147
:10E2F600A100FDE1DDE1E1D1C1F1FBC900000000B3
:10E306000000000000000000040000000000000003
:10E316000000F9F501F8D501000029F976F2F4F5C7
:10E3260000821200000043EF2AF583FA000E29004E
:10E33600000043EF2EEE7AF702309F010000C4F58D
:10E346008BEBF5FF02309F010000000000007AFA17
:10E35600045E6401000067E94FED74FF029AAC01A8
:10E366000000C4F500EF79FF01800C00000069FC95
:10E37600F7E964FE00AE28000000AAF4000070FC75
:10E3860002C8C601000032F628ED66FE02F8340126
:10E3960001005EF4E2EB6AFF01BC1700000006F51F
:10E3A6008EF077FC00088E01000043EF1DF0A4F408
:10E3B6000288DD01020005F737EC6FFF00C8C301D4
:10E3C600000082F30000D31E00ED73A000319C0014
:10E3D600F53E0132A400C5D5E5DDE5FDE5ED7BA002
:10E3E60000E1229E0021000036D323361FC3000021
:10E3F6000000000000000000000000000000000017
:10E40600000000000000D31C180A31000000D31AD7
:10E4160000FBED4D2A3900310700E52323F92A37A1
:10E4260000E5312900FDE1DDE1E1D1C1F118DB00B4
:10E4360000000000000000000000000400000000D2
:10E446000000000000D31D180500000000002A048B
:10E4560000ED5B06003A08004FAF47EDB03E0018EE
:10E46600E43100083E00D31D7618F600ED45FBEDBD
:10E476004D25002400696F5F737461742829203D5F
:10E486003D20494F5F535441545F4E4F545F5354A0
:10E496004152544544207C7C20696F5F73746174DB
:10E4A6002829203D3D20494F5F535441545F535422
:10E4B6004F50504544207C7C20696F5F73746174B3
:10E4C6002829203D3D20494F5F535441545F494E12
:10E4D600544552525550544544207C7C20696F5F08
:10E4E600737461742829203D3D20494F5F53544180
:10E4F600545F50524550494E564F4B45207C7C2028
:10E50600696F5F737461742829203D3D20494F5F10
:10E51600535441545F4D4F4E49544F5200696F5FFB
:10E52600737461742829203D3D20494F5F5354413F
:10E53600545F4E4F545F53544152544544207C7CA3
:10E5460020696F5F737461742829203D3D20494F0F
:10E556005F535441545F53544F50504544207C7C84
:10E5660020696F5F737461742829203D3D20494FEF
:10E576005F535441545F4D4F4E49544F52004449E6
:10E58600534B3A204F503D2530327820442F542F9C
:10E59600533D25642F2533642F2533642020202006
:10E5A6002020202020202020414444523D25303187
:10E5B6007825303278253032782028524420494751
:10E5C6004E4F524544290A0D004449534B3A204FB9
:10E5D600503D2530327820442F542F533D25642F4B
:10E5E6002533642F2533642020202020202020205E
:10E5F600202020414444523D253031782530327860
:10E6060025303278202857522049474E4F524544EC
:10E61600290A0D0025733A204552524F523A204995
:10E626002F4F20253573202533642C202533642075
:10E636002825303258482C20253032584829207752
:10E6460068696C652077616974696E6720666F72A8
:10E6560020256420282530325848290A0D004449CF
:10E66600534B3A204F503D2530327820442F542FBB
:10E67600533D25642F2533642F25336420782533B5
:10E68600643D25356C6420414444523D2530317843
:10E696002530327825303278202E2E2E2053543DC8
:10E6A600253032780A0D004449534B3A204F503DED
:10E6B6002530327820442F542F533D25642F25339F
:10E6C600642F253364202020202020202020202095
:10E6D60020414444523D253031782530327825306A
:10E6E6003278202E2E2E200A0D002F557365727358
:10E6F6002F74616B656D7572612F776F726B7370B6
:10E706006163652F6769746875622F5375706572EA
:10E716004D455A38302F7372632F6D6F6E69746F63
:10E72600722E63002F55736572732F74616B656D5E
:10E736007572612F776F726B73706163652F67698E
:10E74600746875622F53757065724D455A38302F4F
:10E756007372632F6D656D6F72792E63005344205B
:10E76600436172643A20726561643531323A2043FE
:10E776005243206572726F7220282530347820212A
:10E786003D20253034782C2072657472793D2564DD
:10E79600290A0D002F55736572732F74616B656DB1
:10E7A6007572612F776F726B73706163652F67691E
:10E7B600746875622F53757065724D455A38302FDF
:10E7C6007372632F696F2E63005741524E494E474D
:10E7D6003A20746F6F206D616E792062616E6B7383
:10E7E600207265717565737465642E202872657173
:10E7F60075657374206973202564290A0D00747980
:10E806007065202768656C702720746F20736565B6
:10E8160020746865206C697374206F662061766168
:10E82600696C61626C6520636F6D6D616E64730AFD
:10E836000D00496D6167652066696C652025732F3B
:10E84600445249564525632E44534B206973206133
:10E85600737369676E656420746F20647269766588
:10E866002025630A0D005741524E494E473A2075FE
:10E876006E6B6E6F776E20492F4F207772697465C5
:10E886002025642C202564202825303258482C2049
:10E896002530325848290A0D006469736B5F696F29
:10E8A60063746C3A20706472763D25642C20636D27
:10E8B600643D25642C20627566663D3078256C784B
:10E8C6003A207265733D25640A0D00534420436166
:10E8D60072643A2020726561643531323A2061648F
:10E8E60064723D25386C642C206F6666733D256422
:10E8F6002C20636F756E743D25640A0D0053442009
:10E90600436172643A2077726974653531323A2010
:10E91600616464723D25386C642C206F6666733DB5
:10E9260025642C20636F756E743D25640A0D0053B3
:10E936004420436172643A207772697465353132D6
:10E946003A206661696C656420746F20676574207F
:10E95600746F6B656E2C2074696D656F75740A0D26
:10E96600005B64726976655D5B2C747261636B5DD6
:10E976005B2C736563746F725D5B2C6C656E67747C
:10E98600685D206F72205B64726976652C5D4C420F
:10E9960041004449534B3A20207265616420442F5C
:10E9A600542F533D25642F2533642F253364207857
:10E9B6002533643D25356C643A204552524F520A40
:10E9C6000D00534420436172643A2077726974657E
:10E9D6003531323A2074696D656F75742C20726515
:10E9E60073706F6E736520697320253032780A0D57
:10E9F600004A756D7020746F20737065636966696F
:10EA06006564206164647265737320616E6420734B
:10EA16007461727420657865637574696F6E200021
:10EA2600534420436172643A20434D4435382C20C8
:10EA360052333D2530327820253032782025303249
:10EA460078202530327820253032780A0D0025735B
:10EA56003A204552524F523A20636C6F636B2073D3
:10EA660070656564202564206973206E6F74207359
:10EA76007570706F727465640A0D005344204361AB
:10EA860072643A20434D44382C2052373D253032AB
:10EA9600782025303278202530327820253032789B
:10EAA60020253032780A0D004449534B3A20207213
:10EAB60065616420442F542F533D25642F2533640C
:10EAC6002F25336420782533643D25356C643A2040
:10EAD6004F4B0A0D006469736B5F696F63746C3A20
:10EAE60020706472763D25642C20636D643D256438
:10EAF6003A204E6F742068616E646C65642E0A0D50
:10EB0600006469736B5F726561643A202070647299
:10EB1600763D25642C20736563746F723D256C64A5
:10EB26002C20636F756E743D25640A0D006469734D
:10EB36006B5F77726974653A20706472763D2564FE
:10EB46002C20736563746F723D256C642C20636F93
:10EB5600756E743D25640A0D005741524E494E4765
:10EB66003A2025733A206E6F20696E74657272754D
:10EB7600707473206C696E6520617661696C616280
:10EB86006C650A0D005472616E736C617465206D5C
:10EB9600616368696E6520636F6465206F6E2074BB
:10EBA600686520746172676574206D656D6F727932
:10EBB60000534420436172643A2043435320284360
:10EBC6006172642043617061636974792053746172
:10EBD6007475732920697320300A0D0044697370B7
:10EBE6006C6179206F72206368616E67652073704F
:10EBF6006563696669656420646562756720766128
:10EC0600726961626C6500534420436172643A2004
:10EC160077726974653531323A2043524320657202
:10EC2600726F72202872657472793D2564290A0D07
:10EC36000057726974652062797465206F7220735B
:10EC46007472696E6720746F2074686520746172CF
:10EC5600676574206D656D6F72790053442043615A
:10EC660072643A204361726420706F776572207512
:10EC760070207374617475732062697320697320E0
:10EC8600300A0D007472616D706F6C696E655F6934
:10EC96006E7374616C6C656420213D204D4D555F2B
:10ECA600494E56414C49445F42414E4B00726561A4
:10ECB60064204D425220706172746974696F6E20CF
:10ECC6007461626C6520617420736563746F722071
:10ECD600300A0D005741524E494E473A20756E6B29
:10ECE6006E6F776E20492F4F207265616420256410
:10ECF60020282530325848290A0D00534420436104
:10ED060072643A2020726561643531323A20736547
:10ED160063746F723D256C643A204552524F520A15
:10ED26000D00446973706C617920646174612062BE
:10ED36006C6F636B2873292066726F6D207468652B
:10ED4600205344204361726400446973706C617996
:10ED560020736563746F722873292066726F6D2045
:10ED66006469736B20696D6167652066696C65000F
:10ED7600534420436172643A2053444843206F72DF
:10ED8600205344584320636172642064657465634C
:10ED96007465640A0D0025733A204552524F523A63
:10EDA600206D6F6465202564206973206E6F742062
:10EDB600737570706F727465640A0D005344204356
:10EDC6006172643A20696E697469616C697A65205A
:10EDD6002E2E2E207375636365656465640A0D00C7
:10EDE600534420436172643A20756E65787065639A
:10EDF60074656420726573706F6E7365202530329A
:10EE0600780A0D00534420436172643A20207265EB
:10EE160061643531323A20736563746F723D256CD7
:10EE2600643A204F4B0A0D0045786974206D6F6E69
:10EE360069746F7220616E6420636F6E74696E759B
:10EE46006520657865637574696F6E0041737365D7
:10EE56007274696F6E206661696C65643A20257309
:10EE6600202825733A2025733A202564290A005361
:10EE76004420436172643A2041434D443431207248
:10EE86006573706F6E736520697320253032780A5A
:10EE96000D00534420436172643A207772697465A9
:10EEA6003531323A20746F6B656E206973202530D8
:10EEB60032780A0D004552524F523A2062616E6B0B
:10EEC600202564206973206E6F7420617661696CF9
:10EED60061626C652E0A0D00534420436172643AE8
:10EEE60020434D44353920726573706F6E7365200B
:10EEF600697320253032780A0D00446973706C619D
:10EF0600792064617461206F6E2074686520746175
:10EF160072676574206D656D6F7279004D656D6FF2
:10EF2600727920303030303030202D202530366C4C
:10EF36005848202564204B42204F4B0D0A00706133
:10EF460072746974696F6E20737461727473206170
:10EF56007420736563746F7220256C640A0D002536
:10EF6600733A20696E7465727275707420697320C5
:10EF76006E6F7420617661696C61626C650A0D0062
:10EF8600665F777269746528293A204552524F5256
:10EF9600207265733D25642C206E3D25640A0D00A4
:10EFA600665F7265616428293A204552524F5220A5
:10EFB6007265733D25642C206E3D25640A0D00693B
:10EFC6006F5F696E766F6B655F7461726765745F9C
:10EFD6006370755F74656172646F776E00666169F0
:10EFE6006C656420746F207772697465207365633D
:10EFF600746F7220256C640A0D00696F5F696E7606
:10F006006F6B655F7461726765745F6370755F705F
:10F0160072657061726500446973706C6179207302
:10F026007461747573206F662074686520746172EC
:10F03600676574006661696C656420746F2072652B
:10F04600616420736563746F7220256C640A0D0019
:10F056000A0D534420436172643A20696E697469EB
:10F06600616C697A65202E2E2E0A0D00436C65614F
:10F076007220627265616B706F696E7420617420B4
:10F086002530346C580A0D00457865637574652023
:10F096006E65787420696E737472756374696F6EC9
:10F0A60028732900534420436172643A2041434D3A
:10F0B6004434312C2052313D253032780A0D000A75
:10F0C6000D526573657420627920494F20706F7206
:10F0D600742025303258480A0D004661696C656413
:10F0E60020746F206F70656E2053442043617264F4
:10F0F6002E2E0A0D004661696C656420746F206DC2
:10F106006F756E7420534420436172642E0A0D009D
:10F11600507265666572726564206469736B2069F6
:10F126006D6167653A2025730A0D006661696C6535
:10F136006420746F207265616420736563746F72F6
:10F1460020300A0D000A0D48414C542062792049AE
:10F156004F20706F72742025303258480A0D0053C4
:10F16600657420627265616B706F696E742061747C
:10F17600202530346C580A0D006469736B5F696E24
:10F18600697469616C697A65282564292E2E2E0AB0
:10F196000D00534420436172643A206E6F742073ED
:10F1A60075706F70727465640A0D00534420436174
:10F1B60072643A20434D44302C2052313D25303282
:10F1C600780A0D002020202020202020202020202A
:10F1D60020202020202020202020200D007761697B
:10F1E6007420666F722070726F6772616D6D6572E2
:10F1F600202E2E2E0D00496E76616C696420617298
:10F2060067756D656E743A20272573270A0D0053BE
:10F2160054415455533A20256325632563256325B8
:10F2260063256325632563002573253533732043E2
:10F236004845434B53554D3A20253032780A0D0048
:10F24600556E6B6E6F776E207661726961626C6562
:10F2560020272573270A0D00427265616B706F695E
:10F266006E74206973206E6F74207365740A0D00C6
:10F27600536574206F722073686F772062726561C0
:10F286006B20706F696E74004D656D6F72792030FA
:10F296003030303030202D202530366C58480D0067
:10F2A600706879736963616C20647269766572202F
:10F2B600213D20300A0D0025733A206E6F20696EBD
:10F2C600746572727570742070696E0A0D00416DF6
:10F2D600626967756F757320636F6D6D616E64200B
:10F2E60025730A0D00665F6C7365656B28293A20E5
:10F2F6004552524F522025640A0D00427265616BD9
:10F30600706F696E74206973202530346C580A0D4D
:10F3160000556E6B6E6F776E20636F6D6D616E64F8
:10F326003A2025730A0D0064656275675F6661742D
:10F336006469736B5F766572626F7365006E6F20CA
:10F34600464154333220706172746974696F6E0A73
:10F356000D00665F73796E6328293A204552524F35
:10F36600522025640A0D00696F5F696E766F6B65C2
:10F376005F7461726765745F63707500446973706A
:10F386006C61792074686973206D65737361676554
:10F39600007265696E7374616C6C5F7472616D7016
:10F3A6006F6C696E650064656275675F736463613F
:10F3B60072645F766572626F7365006D6F6E5F6112
:10F3C60073736572745F696E7465727275707400BA
:10F3D60064656275675F6661746469736B5F777293
:10F3E6006974650073697A656F6628706172616D0C
:10F3F6007329203D3D2035004D3A204D6F6E6974CE
:10F406006F722070726F6D70740A0D006E6F204DF2
:10F416004252207369676E61747572650A0D0053F6
:10F426004420436172643A2074696D656F75740A8D
:10F436000D00696E76616C69642064726976652078
:10F4460025640A0D007772697465205B61646472D5
:10F456005D2C76616C0A0D005B7661726961626C87
:10F46600655D5B3D76616C75655D006465627567BB
:10F476005F6661746469736B5F726561640064657D
:10F486006275675F6469736B5F766572626F7365D9
:10F496000064656275675F7364636172645F777247
:10F4A60069746500526573746172742074686520AE
:10F4B60073797374656D005F5F6D656D6370795FF9
:10F4C6006F6E5F746172676574006E6F2076616C33
:10F4D600696420766F6C756D650A0D005344204390
:10F4E6006172643A2072656164792E0A0D007A3879
:10F4F600305F636C6F636B5F4E434F31494E430021
:10F506005B6E756D626572206F66207374657073CD
:10F516005D0064656275675F7364636172645F72E0
:10F5260065616400436C65617220627265616B207F
:10F53600706F696E740025732069732073656C653E
:10F54600637465642E0A0D005350495F53445F632C
:10F556006F6E66696775726500427265616B2061E0
:10F5660074202530346C580A0D004D4D553A2062F2
:10F57600616E6B2025303258202000646562756705
:10F586005F6469736B5F7772697465004E434F31D0
:10F596003A20252E3266204B487A0A0D004E434FFC
:10F5A600313A20252E3266204D487A0A0D00257301
:10F5B6003D256C642028256C5868290A0D005B617E
:10F5C6006464725D5B2C6C656E6774685D0064656F
:10F5D6006275675F6469736B5F7265616400646519
:10F5E6006275675F6469736B5F6D61736B00636CF3
:10F5F600656172627265616B706F696E74004E6FE1
:10F6060020626F6F74206469736B2E0A0D002A2BBB
:10F616002C3A3B3C3D3E5B5D7C223F7F0053757040
:10F6260065724D455A38302D43504D005B4C424172
:10F636005D5B2C6C656E6774685D0025732F4452A4
:10F6460049564525632E44534B004E6F20534420A4
:10F65600436172643F0A0D00696F5F776169745F89
:10F6660077726974650025733D25642028255868DE
:10F67600290A0D0064656275675F66617464697363
:10F686006B004C4420484C2C28253034584829001F
:10F696004F555420282530325848292C41004C44D7
:10F6A6002028484C292C25303258480043414C4CE0
:10F6B600204E432C25303458480043414C4C2050B2
:10F6C600452C25303458480043414C4C20504F2C93
:10F6D60025303458480043414C4C204E5A2C253096
:10F6E600345848004C4420282530345848292C48A2
:10F6F6004C0064656275675F736463617264005B86
:10F70600616464725D2C76616C756500494E2041BA
:10F716002C28253032584829004C4420412C2825D5
:10F726003034584829004C4420282530345848297C
:10F736002C410043414C4C204D2C25303458480078
:10F7460043414C4C20502C25303458480043414C02
:10F756004C20582C25303458480043414C4C205AF4
:10F766002C25303458480053656C6563745B2564FA
:10F776005D3A2000646973617373656D626C650040
:10F7860053424320412C25303258480041444320FF
:10F79600412C25303258480041444420412C253024
:10F7A600325848004C442042432C253034584800F7
:10F7B6004A50204E432C2530345848004C442044AF
:10F7C600452C2530345848004A502050452C2530C9
:10F7D600345848004C4420484C2C253034584800B6
:10F7E6004A5020504F2C2530345848004C44205362
:10F7F600502C2530345848004A50204E5A2C25307B
:10F8060034584800426F6172643A2025730A0D002D
:10F8160070726F6772616D3A0A0D0049593A202578
:10F826003034580A0D000A0D2020202025730A0DB9
:10F836000042433A202530345820200050433A20D5
:10F846002530345820200044453A202530345820AD
:10F85600200041463A2025303458202000484C3AB2
:10F86600202530345820200053503A202530345873
:10F8760020200049583A202530345820200064655D
:10F886006275675F6469736B006C656E203C3D2032
:10F896003235360053424320412C28484C2900413A
:10F8A600444320412C28484C290041444420412C03
:10F8B60028484C29004C4420412C25303258480019
:10F8C6004C4420422C2530325848004C4420442CCD
:10F8D6002530325848004C4420482C2530325848B0
:10F8E6000043414C4C202530345848004A502043B0
:10F8F6002C2530345848004A50204D2C2530345899
:10F9060048004A5020502C2530345848004A502090
:10F916005A2C253034584800455820285350292C55
:10F92600484C005B616464726573735D006D6F6E55
:10F936005F73657475700045582041462C41462713
:10F94600004C4420412C28424329004C4420412CA1
:10F9560028444529004C4420412C28484C29004C79
:10F966004420422C28484C29004C4420432C28484B
:10F976004C29004C4420442C28484C29004C442057
:10F98600452C28484C29004C4420482C28484C2912
:10F99600004C44204C2C28484C29004C4420284438
:10F9A60045292C41004C442028484C292C41004C28
:10F9B600442028484C292C42004C442028484C29F5
:10F9C6002C430041444420484C2C4243004C4420E4
:10F9D60028484C292C44004C442028484C292C45C6
:10F9E6000041444420484C2C4445004C44202848BF
:10F9F6004C292C48005355422025303258480041A6
:10FA06004E4420253032584800584F522025303277
:10FA16005848004C442028484C292C4C004144446A
:10FA260020484C2C484C0041444420484C2C535010
:10FA3600004C4420432C25303258004C4420452CA1
:10FA460025303258004C44204C2C25303258004387
:10FA5600504D4449534B532E0025732530366C7850
:10FA66003A00464154333220202000737461636BA0
:10FA76003A0A0D006469736B7265616400636F6EA8
:10FA860074696E7565005355422028484C29004418
:10FA960045432028484C2900494E432028484C29F4
:10FAA60000414E442028484C2900584F52202848EF
:10FAB6004C29004350202530325848004A50202512
:10FAC600303458480045582044452C484C004C4496
:10FAD6002053502C484C004A52204E432C2564009B
:10FAE6004A52204E5A2C25640025643A2025730A72
:10FAF6000D0053656C6563743A200043504D4449CC
:10FB0600534B53002573253034783A004572726F93
:10FB1600720A0D000D257325730A0D004350202827
:10FB2600484C29004A502028484C2900534243207B
:10FB3600412C410041444320412C41004144442092
:10FB4600412C41004C442042432C41005342432067
:10FB5600412C420041444320412C42004144442070
:10FB6600412C420053424320412C43004144432050
:10FB7600412C430041444420412C430050555348F6
:10FB86002042430053424320412C44004144432039
:10FB9600412C440041444420412C4400534243201C
:10FBA600412C450041444320412C4500414444201A
:10FBB600412C450050555348204445005055534864
:10FBC6002041460053424320412C480041444320F3
:10FBD600412C480041444420412C480052535420B3
:10FBE600303048005253542031304800525354208C
:10FBF6003230480052535420333048005253542078
:10FC0600303848005253542031384800525354205B
:10FC16003238480052535420333848005342432068
:10FC2600412C4C0041444320412C4C00414444208B
:10FC3600412C4C005055534820484C004A52204312
:10FC46002C2564004A52205A2C256400444A4E5AF8
:10FC56002C25640043504D4449537E003C25643EA8
:10FC66000A0D005B616464725D00736472656164B1
:10FC760000737461747573004C4420412C41004C30
:10FC86004420422C41004C4420432C41004C44204B
:10FC9600442C41004C4420452C41004C4420482C27
:10FCA60041004C44204C2C41004C4420412C420045
:10FCB6004C4420422C42004C4420432C42004C44ED
:10FCC60020442C42004C4420452C42004C44204801
:10FCD6002C42004C44204C2C42004C4420412C43E6
:10FCE600004C4420422C43004C4420432C43004CFF
:10FCF6004420442C43004C4420452C43004C4420D3
:10FD0600482C43004C44204C2C430044454320429D
:10FD16004300494E4320424300504F502042430087
:10FD2600524554204E43004C4420412C44004C4440
:10FD360020422C44004C4420432C44004C44204494
:10FD46002C44004C4420452C44004C4420482C4470
:10FD5600004C44204C2C44004C4420412C45004C83
:10FD66004420422C45004C4420432C45004C442062
:10FD7600442C45004C4420452C45004C4420482C3E
:10FD860045004C44204C2C45004445432044450046
:10FD9600494E4320444500504F50204445005245AB
:10FDA6005420504500504F50204146004C442041BD
:10FDB6002C48004C4420422C48004C4420432C48FC
:10FDC600004C4420442C48004C4420452C48004C10
:10FDD6004420482C48004C44204C2C48004C4420DD
:10FDE600412C4C004C4420422C4C004C4420432CCB
:10FDF6004C004C4420442C4C004C4420452C4C00D8
:10FE06004C4420482C4C004C44204C2C4C0044457F
:10FE16004320484C00494E4320484C00504F502048
:10FE2600484C0052455420504F00444543205350FF
:10FE360000494E4320535000524554204E5A002547
:10FE460030366C5820002025303278006661743ACE
:10FE560020006275663A20000D2573200D0072653C
:10FE660073657400535542204100444543204100C8
:10FE7600494E43204100414E44204100584F5220F4
:10FE86004100535542204200444543204200494E1A
:10FE960043204200414E44204200584F5220420027
:10FEA600535542204300444543204300494E4320D6
:10FEB6004300414E44204300584F522043005245D0
:10FEC60054204300535542204400444543204400F7
:10FED600494E43204400414E44204400584F52208E
:10FEE6004400535542204500444543204500494EB1
:10FEF60043204500414E44204500584F52204500BE
:10FF0600535542204800444543204800494E43206B
:10FF16004800414E44204800584F5220480053554F
:10FF260042204C00444543204C00494E43204C009F
:10FF3600414E44204C00584F52204C00524554200C
:10FF46004D00524554205000524554205A004A5202
:10FF56002025640025303258200053443A20004DB5
:10FF66004F4E3E00737465700068656C7000647572
:10FF76006D70006A756D70004350204100524C430D
:10FF86004100525243410043502042004350204317
:10FF96000043502044004350204500435020480071
:10FFA6004350204C0048414C5400303A2F2F0069F2
:10FFB6006E66006E616E006C6C73000D257300201A
:10FFC60025730044414100524C41005252410043C6
:10FFD6004346005343460043504C004E4F50005298
:10FFE600455400455858003F3F3F004D0A0D0064F8
:09FFF6006900444900454900007E
:020000040001F9
:1000000063ECFEF001D80BD00500FA6E0701CD516C
:10001000FD6ECE51FE6ECF51FF6EFA501200D8A089
:100020001200000E0901EA6F000EE96F01D80BD033
:100030000500FA6E0801D551FD6ED651FE6ED751FE
:10004000FF6EFA5012000901F06F01D80BD00500C5
:10005000FA6E0801D251FD6ED351FE6ED451FF6E7F
:10006000FA5012000901F16F0601F951FA11FB1162
:10007000D8A406D0000E0901DA6F010ED96F14D092
:1000800001D80AD00500FA6EF951FD6EFA51FE6EE4
:10009000FB51FF6EFA501200D8A002D0010E01D021
:1000A000000E0901D96FDA6BD951DA11D8B44AD0F0
:1000B0000701D051D111D211D8A406D0000E0901E8
:1000C000DC6F010EDB6F14D001D80AD00500FA6E88
:1000D000D051FD6ED151FE6ED251FF6EFA5012001A
:1000E000D8A002D0010E01D0000E0901DB6FDC6B3D
:1000F000DB51DC11D8B426D00701ECBF23D0000EB1
:10010000366F230E356F01D80BD00500FA6EE25121
:10011000FD6EE351FE6EE451FF6EFA50000E1200C8
:1001200001D80CD00500FA6E0701C751FD6EC85109
:10013000FE6EC951FF6EFA50EB5112000701EB69D8
:10014000EC691CD10601F951FA11FB11D8A406D0B3
:10015000000E0901DE6F010EDD6F14D001D80AD048
:100160000500FA6EF951FD6EFA51FE6EFB51FF6EFD
:10017000FA501200D8A002D0010E01D0000E0901E1
:10018000DD6FDE6BDD51DE11D8B406D0000E070145
:10019000366F280E356F61D2000E0701366F1E0EC6
:1001A000356F01D8CBD00500FA6EE251FD6EE351F8
:1001B000FE6EE451FF6EFA50000E1200070133513B
:1001C0003411D8B405D001D8D3D00500FA6EADD023
:1001D00001D8CED00500FA6EC751FD6EC851FE6E33
:1001E000C951FF6EFA50000E12000CEC13F0ADEC8A
:1001F00009F00901D86F01D8BBD00500FA6E0701DC
:10020000C751FD6EC851FE6EC951FF6EFA5009010B
:10021000D8511200070129512A11D8B427D0000E55
:10022000295D0601D46F090E07012A590601D56F11
:10023000D5BF06D0D5511AE1800ED45DD8B016D006
:1002400001D810D00500FA6E0701C751FD6EC851E4
:10025000FE6EC951FF6EFA5029C7D9F42AC7DAF4E5
:10026000DF5012000701294B2A2B82D00701695168
:10027000D8A409D06A51D8A406D06B51D8A403D011
:100280006C51D8B475D0840E0501BE6FE50EBF6FFA
:10029000F7C6C0F5C16BF8C6C2F5C36B4FC7C4F54E
:1002A000C56B2BC7C6F52CC7C7F556C5C8F557C5CE
:1002B000C9F54DC7CAF5CB6B4EC7CCF5CD6BF8EC85
:1002C00012F056D001D854D00500FA6E0701C7517C
:1002D000FD6EC851FE6EC951FF6EFA50F451120006
:1002E00001D846D00500FA6E0701C751FD6EC8510E
:1002F000FE6EC951FF6EFA50CDEC14F01200DA0E0A
:100300000501BE6FEC0EBF6FF0C9C0F5C16BF0C93F
:10031000C2F5C36BF8EC12F0000E0701466F010E38
:10032000456F01D825D00500FA6EC751FD6EC85142
:10033000FE6EC951FF6EFA50FF0E12000901F05116
:100340000601D46FD56BD551000AD8A4D8D7D451A3
:10035000000AD8B433D7010AD8B447D7090AD8B4A9
:1003600059D7060AD8B4AED7AE0AD8B4B9D7C7D7CA
:10037000070145514611D8A4BBEC10F001D80CD0B0
:100380000500FA6E0701CA51FD6ECB51FE6ECC51CD
:10039000FF6EFA50000E120001D80BD00500FA6E65
:1003A0000701C451FD6EC551FE6EC651FF6EFA5075
:1003B000120001D80CD00500FA6E0701C151FD6E84
:1003C000C251FE6EC351FF6EFA50010E120001D8E9
:1003D0000BD00500FA6E0701BE51FD6EBF51FE6ED7
:1003E000C051FF6EFA501200D8A0F1D701D80CD03E
:1003F0000500FA6E0701E251FD6EE351FE6EE45115
:10040000FF6EFA50FF0E1200070145514611D8A4A5
:10041000A9D17BEF87F00901F15163EC0EF0254B78
:10042000262B59D1070129512A11D8B42ED0000EFC
:10043000295D0601D46F090E07012A590601D56FFF
:10044000D5BF06D0D55121E1800ED45DD8B01DD0E6
:1004500029C7D9F42AC7DAF4F1C9DFF40701294B17
:100460002A2B000E295D0601D46F090E07012A59B7
:100470000601D56F800ED419D511D8A42CD1000E49
:100480000901EA6F010EE96F26D107016951D8A46D
:1004900009D06A51D8A406D06B51D8A403D06C51AE
:1004A000D8B419D1CF0E0501BE6FE50EBF6FF7C6E8
:1004B000C0F5C16BF8C6C2F5C36B4FC7C4F5C56BB9
:1004C0002BC7C6F52CC7C7F556C5C8F557C5C9F51E
:1004D0004DC7CAF5CB6B4EC7CCF5CD6BF8EC12F01F
:1004E000FAD0F1C9F8F6F7D0F1C94FF7F4D0000E01
:1004F00007012B150601D46FFF0E07012C1506010D
:10050000D56F0901F1510601D41107012B6F0601C6
:10051000D55116D00901F1510601D56FD46BFF0EEC
:1005200007012B150601D66F000E07012C150601D9
:10053000D76FD451D61107012B6F0601D551D711B2
:1005400007012C6FC8D0F1C9F7F6030EF719D8A42C
:1005500006D0000E0701296F090E2A6F05D0000E84
:100560000901EA6F010EE96F07016A51D8B408D09A
:100570000601F751D8B410D0020EF719D8B40CD038
:1005800007016B51D8B4A7D00601F705D8B404D041
:10059000030EF719D8A49FD007016C51D8B49BD093
:1005A000F8C6D4F6010E0601D56F000ED66FD42B17
:1005B00003D0D890D537D637D42FFBD707016D514C
:1005C0000601D51707016E510601D617D551D61170
:1005D000D8A481D0AD0E0501BE6FE60EBF6FF7C681
:1005E000C0F5C16BF8C6C2F5C36B4FC7C4F5C56B88
:1005F0002BC7C6F52CC7C7F556C5C8F557C5C9F5ED
:100600004DC7CAF5CB6B4EC7CCF5CD6BF8EC12F0ED
:1006100062D0F1C94EF75FD0F1C94DF75CD0090146
:10062000F151C6EC0CF057D06C0E0501BE6FE80E10
:10063000BF6FF0C9C0F5C16BF1C9C2F5C36BF0C99A
:10064000C4F5C56BF1C9C6F5C76BF8EC12F0000E26
:100650000701466F010E456F3ED00901F0510601BA
:10066000D46FD56BD551000AD8A4DED7D451010A76
:10067000D8B4D1D6090AD8B4D5D6020AD8B431D75D
:10068000010AD8B431D7070AD8B431D7010AD8B48F
:100690005AD7020AD8B4BDD71F0AD8B4BDD7010AA9
:1006A000D8B438D7050AD8B4EAD6010AD8B4E7D600
:1006B0000F0AD8B4E4D6010AD8B4E1D6070AD8B4F0
:1006C000DED6020AD8B4DBD6010AD8B4D8D6BF0A1F
:1006D000D8B4A5D7A9D701D80CD00500FA6E070168
:1006E000CA51FD6ECB51FE6ECC51FF6EFA50000E1A
:1006F000120001D80BD00500FA6E0701C451FD6E3F
:10070000C551FE6EC651FF6EFA50120001D80CD0D2
:100710000500FA6E0701C151FD6EC251FE6EC35154
:10072000FF6EFA50010E120001D80BD00500FA6ED0
:100730000701BE51FD6EBF51FE6EC051FF6EFA50F3
:100740001200D8A0F1D7000E0701366F320E356FB8
:100750000901E951EA11D8A405D007014551461114
:10076000D8B4C9D3000E0B6E010E0A6E68EC13F0FC
:100770000901E951EA11D8B4A8D321D1F1C9D8F5BA
:100780000501D96B77EC12F0A0D3F1C9D8F50501BA
:10079000D96BEDECF9F099D31E0E0901F019D8A42C
:1007A00003D04BEC11F002D06CEC14F0000E0701FA
:1007B000366F460E356F89D3000E0701366F460E31
:1007C000356F2551271904E126512819D8B40BD0CB
:1007D000ED0E0501BE6FE60EBF6FF8EC12F025C7F7
:1007E00027F726C728F71F0E0901F019D8A403D050
:1007F00081EC0AF002D00EEC0CF0000E366F5A0EAF
:10080000356FA5ECE2F0070141514211D8A407D0A1
:100810000EECE9F00601D205D311D8A4F4D769ECA7
:100820000FF0C4D7000E0701366F460E356FC6ECC9
:10083000FEF0000E366F320E356F45514611D8B4BA
:1008400044D3000E096E000E086E01D80AD00500D0
:10085000FA6EBB51FD6EBC51FE6EBD51FF6EFA507B
:100860001200000E0B6E000E0A6E68EC13F001D839
:100870000CD00500FA6E0701CA51FD6ECB51FE6E19
:10088000CC51FF6EFA50010E1200000E0901E46F08
:10089000010EE36F000EE06F050EDF6F5CD0E351D9
:1008A000E411D8A427D00601F951FA11FB11D8A4FC
:1008B00006D0000E0901E26F010EE16F14D001D8DD
:1008C0000AD00500FA6EF951FD6EFA51FE6EFB5129
:1008D000FF6EFA501200D8A002D0010E01D0000E17
:1008E0000901E16FE26BE105E211D8A403D0DF0753
:1008F000D8A0E0070601F951FA11FB11D8A406D0DF
:10090000000E0901E46F010EE36F14D001D80AD084
:100910000500FA6EF951FD6EFA51FE6EFB51FF6E45
:10092000FA501200D8A002D0010E01D0000E090129
:10093000E36FE46BFF0E096EFB0E086E01D80BD05F
:100940000500FA6E0701BB51FD6EBC51FE6EBD5134
:10095000FF6EFA5012000901E0BF05D0E0519FE19F
:10096000DF05D8B09CD701D80CD00500FA6E07017E
:10097000CA51FD6ECB51FE6ECC51FF6EFA50000E87
:100980001200FF0E096E086801D80BD00500FA6E40
:100990000701BB51FD6EBC51FE6EBD51FF6EFA509A
:1009A0001200E40E00D000D0E82EFCD700D000D01A
:1009B000000E0B6E010E0A6E68EC13F086D2F05139
:1009C0000601D46FD56BD551000AD8A416D0D451E6
:1009D000140AD8B4D3D6010AD8B4D7D60F0AD8B4DB
:1009E00021D7010AD8B4D8D6070AD8B4E5D6020A66
:1009F000D8B4D2D6010AD8B4DFD6000E08012A6FC7
:100A0000010E296F000E0901E56F000EE66F000E62
:100A1000E76F000EE86F100E0601F8610CD0F85178
:100A2000040D8B0EF324D96E080EF420DA6EDE501E
:100A3000DE10D8A404D0010E0701F46FDAD14FC73D
:100A400008F5096AF851040D890EF324D96E080ED1
:100A5000F420DA6EDEC40AF5DDC40BF51FEC13F0EA
:100A600007012B5108262C510922FF0E08240601EC
:100A7000D46FFF0E0920D56FD4C6E5F9D5C6E6F9C7
:100A80000901E76BE86B0601F851040D8B0EF324A6
:100A9000D96E080EF420DA6EDEC4EBF9DDC4ECF991
:100AA000EBC97EF6ECC97FF6E5C9D4F6E6C9D5F602
:100AB000E7C9D6F6E8C9D7F6070ED890D437D537A8
:100AC000D637D737E82EF9D7D4C680F6D5C681F603
:100AD000D6C682F6D7C683F62FECA1F00901ED6FDA
:100AE000ED51D8B40BD0EB0E0501BE6FF20EBF6F07
:100AF000EDC9C0F5C16BF8EC12F09DD70601F751B6
:100B0000D8B404D0020EF719D8A4AFD0EBC95AF666
:100B1000ECC95BF6000E5C6F090E5D6F000E5F6F37
:100B2000800E5E6FEE0E606F090E616F73ECA4F0C5
:100B30000901ED6FED51D8A405D0800EEE19EF112B
:100B4000D8B40FD0A60E0501BE6FEF0EBF6FEDC972
:100B5000C0F5C16BEEC9C2F5EFC9C3F5F8EC12F0F0
:100B60006AD707016A51D8B42CD06C51D8B429D0B7
:100B7000F8C6D4F6010E0601D56F000ED66FD42B41
:100B800003D0D890D537D637D42FFBD707016D5176
:100B90000601D51707016E510601D617D551D6119A
:100BA000D8A40FD0580E0501F56FFE0EF66F000E9B
:100BB000F76F090EF86F000EFA6F800EF96FF0EC08
:100BC00007F0000E0701F46F0601F751D8A447D0D3
:100BD00007014D510601D56FD46B5650D66F575053
:100BE000D76FD86BD96BD7C6D9F6D6C6D8F6D76B20
:100BF000D66BD451D611DA6FD551D711DB6F000EF9
:100C0000D811DC6F000ED911DD6F07014E510601BE
:100C1000DA110901D06F0601DB510901D16F06011C
:100C2000DC510901D26F0601DD510901D36FD0C932
:100C30003DF6D1C93EF6D2C93FF6D3C940F6000E03
:100C40000601416F090E426F000E446F800E436F24
:100C50005CECE0F0000E0701296F000E04D0000EDE
:100C60000701296F090E2A6FC4D0F705D8B404D044
:100C7000030EF719D8A4B9D0F705D8A442D00701BC
:100C80004D510601D56FD46B5650D66F5750D76F64
:100C9000D86BD96BD7C6D9F6D6C6D8F6D76BD66B74
:100CA000D451D611DA6FD551D711DB6F000ED811A0
:100CB000DC6F000ED911DD6F07014E510601DA110C
:100CC0000901D46F0601DB510901D56F0601DC5122
:100CD0000901D66F0601DD510901D76FD4C93DF670
:100CE000D5C93EF6D6C93FF6D7C940F6000E060173
:100CF000416F090E426F000E446F800E436F20EC6F
:100D0000E1F007016B51D8B42CD06C51D8B429D084
:100D1000F8C6D4F6010E0601D56F000ED66FD42B9F
:100D200003D0D890D537D637D42FFBD707016D51D4
:100D30000601D51707016E510601D617D551D611F8
:100D4000D8A40FD0580E0501F56FFE0EF66F000EF9
:100D5000F76F090EF86F000EFA6F800EF96FF0EC66
:100D600007F0EBC97EF6ECC97FF6000E0601806F36
:100D7000090E816F000E836F800E826FEE0E846FFE
:100D8000090E856F08EC97F00901ED6FED51D8A4BD
:100D900005D0800EEE19EF11D8B40FD0860E0501E4
:100DA000BE6FEF0EBF6FEDC9C0F5C16BEEC9C2F5E6
:100DB000EFC9C3F5F8EC12F03ED6EBC940F6ECC92A
:100DC00041F672ECD4F00901ED6FED51D8B40BD0BF
:100DD000580E0501BE6FF30EBF6FEDC9C0F5C16BB4
:100DE000F8EC12F028D6000E01D0010E0701F46FC6
:100DF00031D76A51D8B408D00601F751D8B410D011
:100E0000020EF719D8B40CD007016B51D8B458D0E2
:100E10000601F705D8B404D0030EF719D8A450D0B2
:100E2000F8C6D4F6010ED56F000ED66FD42B03D0C2
:100E3000D890D537D637D42FFBD707016D5106018F
:100E4000D51707016E510601D617D551D611D8A472
:100E500037D0640E0501BE6FE60EBF6FF7C6C0F552
