:0400000081EF00F09C
:10000800A007A007A007A0074000A0074000A0077E
:10001800A007A007A007A007A007A007A007A007A0
:10002800A007400040004000A007A007A007A007C5
:10003800A007A007A007A007A007A007A007A00780
:10004800A007A007A007A00740004000A007A0073E
:10005800A007A007A0074000A007A007A007A007C7
:10006800A007A007A007A007A007A007A007A00750
:10007800A007A007A007A0074000A007A007A007A7
:10008800A007A007A007A007A007A007A007A00730
:10009800A007A007A007A0074000A0074000400055
:1000A800A007A007A007A007A007A007A007A00710
:1000B800A007A007A007A007A007A007A007A00700
:1000C800A007A007A007A007A007A007A007A007F0
:1000D800A007A007A007A007A007A007A007A007E0
:1000E8004000A007A007A0074000400040004000D3
:1000F800A007A007A007A007FF00B2EFF9F00D5076
:100108000E10D8B404D00D500E10D8A404D00B5043
:1001180036EC11F0120020EE09F00D50D9260E50E1
:10012800DA22DE50DE10D8B416D020EE09F00D50D9
:10013800D9260E50DA2210EE03F00D50E1260E50AB
:10014800E222DE50E65CE650800A136EDE50800A3A
:100158001358D8B0120020EE03F00D50D9260E50D7
:10016800DA22DEC40FF5DDC410F50DC5D9F40EC5CD
:10017800DAF4DEC411F5DDC412F50F501124D96E7E
:1001880010501220DA6E0BC5DFF420EE03F00D508C
:10019800D9260E50DA22DE2A000EDD2212000701CF
:1001A800EE29EF11D8A40BEC0AF02650286E275040
:1001B800296E2A6A2B6A29C52BF528C52AF5296ACA
:1001C800286A660E28241A6E000E29201B6E000E5F
:1001D8002A201C6E000E2B201D6E7C0E1E6E080E33
:1001E8001F6E000E216E030E206E5DEC04F026508B
:1001F800286E2750296E2A6A2B6A29C52BF528C52F
:100208002AF5296A286A660E28241A6E000E292003
:100218001B6E000E2A201C6E000E2B201D6ED00EA9
:100228001E6EE30E1F6E000E216E030E206E21EC73
:1002380004F026C5EEF727C5EFF7120007011D5198
:100248001E11D8A405D01DC71AF51EC71BF506D068
:10025800FF0E1D251A6EFF0E1E211B6E58A009D019
:1002680016C50BF50C6A14C50DF515C50EF583EC0E
:1002780000F01BAE04D0000E1B6E000E1A6E000EAE
:10028800196E000E186E0CD0000E0C6E200E0B6E40
:1002980014C50DF515C50EF583EC00F0184A192A9A
:1002A8001A50185C1950800A176E1B50800A17588C
:1002B800D8A0EAD758B009D016C50BF50C6A14C5F2
:1002C8000DF515C50EF583EC00F0010E1824146E1B
:1002D800000E1920156E12000A6E150EF66EDC0E51
:1002E800F76E000EF86E0900F5500A5CD8A03CD0F5
:1002F800160EF66EDC0EF76E000EF86E0A50090048
:10030800F55CD8A005D0000E096E010E086E12002B
:10031800170EF66EDC0EF76E000EF86E0900F5503B
:100328000A5CD8A00BD0180EF66EDC0EF76E000E25
:10033800F86E0A500900F55CD8B0E5D7190EF66ECC
:10034800DC0EF76E000EF86E0900F5500A5CD8A0B6
:100358000BD01A0EF66EDC0EF76E000EF86E0A5011
:100368000900F55CD8B0CFD7000E096E000E086EF4
:10037800120058A00AD01DC514F51EC515F51BC5D9
:1003880016F51CC517F50CEC0EF020BE05D01FC5E0
:1003980024F520C525F504D0000E256E000E246E28
:1003A800000E236E000E226E0CD0000E0C6E200E76
:1003B8000B6E1BC50DF51CC50EF583EC00F0224A2B
:1003C800232A2450225C2350800A216E2550800A5B
:1003D8002158D8A0EAD758B00AD01DC514F51EC5B3
:1003E80015F51BC516F51CC517F50CEC0EF01DC54B
:1003F80008F51EC509F530EC0DF0245008241B6ED5
:10040800255009201C6E12000501DD6F010E050143
:10041800DE6F10D0000EDE6F23D0DB0EBE6FEA0E4B
:10042800BF6FDDC5C0F5C16BD8C5C2F5C36B06EC9F
:1004380010F016D0D851DB6FDC6BDC51000AD8A461
:10044800ECD7DB51000AD8B4E5D7010AD8B4E5D710
:10045800030AD8B4E2D7010AD8B4DFD7070ADDD730
:100468000601F551F611D8B416D09F0E0501BE6FDE
:10047800E80EBF6FDDC5C0F5C16BD8C5C2F5C36B4B
:10048800D9C5C4F5DAC5C5F5C66BC76BDEC5C8F5F1
:10049800C96B06EC10F00501DE511200F029F111CC
:1004A800D8A413D08A0E0501D86FEC0ED96FF00EC0
:1004B800DA6FE60EDB6F000EDD6FC20EDC6F970E93
:1004C800DE6FF30EDF6FC3EC0EF0F0C72AF5F1C74D
:1004D8002BF5000E2D6EB70E2C6EAAEC0EF0F05117
:1004E8000501E06F0701F1510501E16FE26BE36B74
:1004F800E1C5E3F5E0C5E2F5E16BE06BE0C51AF5AF
:10050800E1C51BF5E2C51CF5E3C51DF5650E1E6EBC
:10051800E20E1F6E000E216EB70E206E21EC04F065
:10052800000E07013E6F000E3D6F1200000E08140A
:10053800106E000E0914116E800E0A14126E7F0ED2
:100548000B14136E1050111012101310D8A408D0E9
:10055800000E086E000E096E000E0A6E000E0B6E7D
:10056800000E0C14106E000E0D14116E800E0E1479
:10057800126E7F0E0F14136E1050111012101310FC
:10058800D8A408D0000E0C6E000E0D6E000E0E6E74
:10059800000E0F6E0C5008180AE10D50091807E1FB
:1005A8000E500A1804E10F500B18D8B402D0D89096
:1005B8001200D8801200000E0D6E000E0C6E08019D
:1005C8006C51D8B402D0010E01D0000E0C126D513E
:1005D800D8A40C826E51D8A40C846F51D8A40C8670
:1005E8000CC508F50DC509F5D6EC10F0000E0D6E1A
:1005F800000E0C6E08017051D8B402D0010E01D063
:10060800000E0C127151D8A40C827251D8A40C841B
:100618007351D8A40C860CC508F50DC509F5E3EC93
:1006280010F074C843F475C844F476C845F474C827
:1006380043F475C844F476C845F41200080E000166
:10064800B16F000E0401006F000E086F000E106FEE
:10065800000E186F209120932095000E086F000E51
:10066800286F000E186FC292CA92010E0201D56F50
:10067800A00ED46FD189D18BC68E070E766FBE8C33
:10068800C69C260E076FD28FC290CA90C284CA94A5
:10069800000EBF6E000EC76E000EC36E000ECB6E4E
:1006A8003F0E046FC696320E0401436F330E446F3B
:1006B800030E456F000E476F4691468F12000DC717
:1006C800C2F60EC7C3F60FC7C4F610C7C5F6BEC636
:1006D800D9F4BFC6DAF4DE50DE10D8B421D0BEC6D5
:1006E800D9F4BFC6DAF4DEC4C0F6DDC4C1F6C0C6AC
:1006F800D9F4C1C6DAF4DF50D8B412D0BEC6D9F4E2
:10070800BFC6DAF4DEC438F5DDC439F593ECDBF0A6
:1007180038C5C2F639C5C3F63AC5C4F63BC5C5F6F1
:10072800C4C6D8F5C5C6D9F5A1ECF7F0C2C65BF7C3
:10073800C3C65CF7000E0601BD6F010EBC6F120048
:10074800000E106E000E116E000E126E000E136E6B
:100758000C500D100E100F10D8B42AD0010E146EC4
:1007680006D0D8900C360D360E360F36142A0FAE3A
:10077800F8D7D89010361136123613360C50085C5C
:100788000D5009580E500A580F500B58D8A009D0D0
:100798000C50085E0D50095A0E500A5A0F500B5A49
:1007A8001080D8900F320E320D320C32142EE1D751
:1007B80010C508F511C509F512C50AF513C50BF5DD
:1007C80012000701F029F111D8A487EC09F02EC511
:1007D8002AF52FC52BF5000E2D6EA60E2C6EAAEC51
:1007E8000EF02E50306E2F50316E326A336A31C59A
:1007F80033F530C532F5316A306A660E30241A6E28
:10080800000E31201B6E000E32201C6E000E3320AD
:100818001D6ED00E1E6EE30E1F6E000E216E2A0E88
:10082800206E21EC04F02EC5F0F72FC5F1F7000E6D
:1008380007013E6F010E3D6F12001AC50EF51BC56C
:100848000FF51CC510F51DC511F501D80BD0050015
:10085800FA6E0701D851FD6ED951FE6EDA51FF6E5E
:10086800FA50120001D80CD00500FA6E0701DE51CB
:10087800FD6EDF51FE6EE051FF6EFA50000E120061
:100888001AC50EF51BC50FF51EC510F51FC511F5C8
:1008980020C512F521C513F501D812000500FA6E1E
:1008A8000701DB51FD6EDC51FE6EDD51FF6EFA5023
:1008B80012001AC50EF51BC50FF51CC510F51DC590
:1008C80011F501D80BD00500FA6E0701D851FD6E5D
:1008D800D951FE6EDA51FF6EFA50120001D80CD0D1
:1008E8000500FA6E0701DE51FD6EDF51FE6EE05124
:1008F800FF6EFA50FF0E12001AC50EF51BC50FF554
:100908001EC510F51FC511F520C512F521C513F533
:1009180001D812000500FA6E0701D551FD6ED651B7
:10092800FE6ED751FF6EFA501200BE920EC518F532
:100938000FC519F519C5C1F418C5BFF4000E176E17
:10094800000E166E26D0BE9A16501024146E17503C
:100958001120156E14C5F6F415C5F7F4000EF86EDF
:10096800250EF76404D0D3C4F5F40C0006D0F6C401
:10097800E9F4F7C4EAF4D3C4EFF4BE8A182A18C518
:10098800BFF41850D8A403D0192A19C5C1F4164ABF
:10099800172A1250165C13501758D8A0D4D7BE8205
:1009A80012001A0E1124086E000E1220096EF0ECC7
:1009B8000DF008C517F509C518F5196A1A6A0FC5A3
:1009C800D9F410C5DAF4030EDE18D8A41CD0140E1E
:1009D8001124086E000E1220096EF0EC0DF008507C
:1009E800136E0950146E156A166A14C516F513C5E8
:1009F80015F5146A136A135017121450181215506B
:100A0800191216501A1217C50FF518C510F519C581
:100A180011F51AC512F51200F5C5D8F5F6C5D9F5C0
:100A2800F7C5DAF5F8C5DBF5F9C5DCF5FAC5DDF586
:100A38003EECF3F0000EFF6FF7C5FBF5F8C5FCF5CB
:100A4800000EFE6F000EFD6F0AD0FBC5D9F4FCC581
:100A5800DAF4DF50FF27FB4BFC2BFD4BFE2BF95143
:100A6800FD5DFA51FE59D8A0F0D72E0EBE6FF20EDA
:100A7800BF6FF5C5C0F5F6C5C1F5430EC26FEF0EE1
:100A8800C36FFFC5C4F5C56B06EC10F01200BE922B
:100A98000EC518F50FC519F519C5C1F418C5BFF469
:100AA800000E176E000E166E25D0C09A1650102430
:100AB800146E17501120156E14C5F6F415C5F7F409
:100AC800000EF86E250EF76403D00800F55005D027
:100AD800F6C4E9F4F7C4EAF4EF50C36EC08A182AE2
:100AE80018C5BFF41850D8A403D0192A19C5C1F4E1
:100AF800164A172A1250165C13501758D8A0D5D783
:100B0800BE8212000701F029F111D8A487EC09F080
:100B18002EC52AF52FC52BF5000E2D6EB70E2C6E9F
:100B2800AAEC0EF02E50306E2F50316E326A336AB6
:100B380031C533F530C532F5316A306A30C51AF53A
:100B480031C51BF532C51CF533C51DF5650E1E6E86
:100B5800E20E1F6E000E216EB70E206E21EC04F01F
:100B68002EC5F0F72FC5F1F7000E07013E6F000EF6
:100B78003D6F1200000E0701246F000E236F24BF83
:100B88000ED0245104E1140E235DD8A008D0410EE4
:100B98000501BE6FF60EBF6F06EC10F0FFD7000E12
:100BA8000501E16F000EE06F000EE36F050EE26FC6
:100BB800000EE56F640EE46F5EECB6F0E051E111F3
:100BC800D8B41200110E0501F06F3C0EEF6FCB0E7A
:100BD800E82EFED7EF2FFCD7F02FFAD70701234BCB
:100BE800242BCDD7376E00C738F501C739F533C583
:100BF8003CF534C53DF52FC51FF530C520F531C589
:100C080021F532C522F53CC523F53DC524F53750FD
:100C180089ECFFF01FC53AF520C53BF53A503B106B
:100C2800D8B403D0C9EC0FF0120038C508F539C59F
:100C380009F5010E3C240A6E000E3D200B6EFF0ED6
:100C480035240C6EFF0E36200D6EDBECC9F0C9ECB6
:100C58000FF012000A6E110EF66EDC0EF76E000E23
:100C6800F86E0900F5500A5CD8A026D0120EF66E70
:100C7800DC0EF76E000EF86E0A500900F55CD8A07D
:100C880005D0000E096E010E086E1200130EF66EE6
:100C9800DC0EF76E000EF86E0900F5500A5CD8A05D
:100CA8000BD0140EF66EDC0EF76E000EF86E0A50BE
:100CB8000900F55CD8B0E5D7000E096E000E086E85
:100CC80012004C51D8B426D0720E0501BE6FF00E3A
:100CD800BF6F09C7C0F50AC7C1F50BC7C2F50CC776
:100CE800C3F506EC10F009C73DF60AC73EF60BC778
:100CF8003FF60CC740F6710E0601416F070E426FB2
:100D0800000E446F010E436F23ECDDF0000E070167
:100D18004C6F07D05E0E0501BE6FF20EBF6F06EC7A
:100D280010F0000E0601BD6F000EBC6F1200D69EBB
:100D3800070133513411D8B41FD0B00E3125D96E04
:100D48000A0E3221DA6EDF500E6E010E3125086E62
:100D5800000E3221096E000E0B6E500E0A6E52EC18
:100D68000DF008C531F709C532F73307D8A03407A5
:100D7800A780D68E0E50120045514611D8B403D024
:100D8800D68E000E1200D68E150E0D6EC60EE82EEB
:100D9800FED70D2EFCD700D0CAD708C5D9F409C58F
:100DA800DAF40AC5DFF4084A092A0B500A6E0C5017
:100DB8000B6E0D500C6E0D6A08C5D9F409C5DAF42E
:100DC8000AC5DFF4084A092A0B500A6E0C500B6E4C
:100DD8000D500C6E0D6A08C5D9F409C5DAF40AC5B8
:100DE800DFF4084A092A0B500A6E0C500B6E0D509E
:100DF8000C6E0D6A08C5D9F409C5DAF40AC5DFF422
:100E0800084A092A120010C5F6F411C5F7F4000EB5
:100E1800F86E0800F5500C6E0D6AB3EC0FF00CC5B7
:100E280017F50DC518F5104A112A12C5D9F413C5BE
:100E3800DAF4DF50146E14500C6E0D6AB3EC0FF038
:100E48000CC515F50DC516F5124A132A15501718B5
:100E580008E116501818D8A404D017501810D8A4B0
:100E6800D2D71550175C106E16501858116E120014
:100E78000C500D100E100F10D8B424D0010E106EA7
:100E880006D0D8900C360D360E360F36102A0FAE17
:100E9800F8D70C50085C0D5009580E500A580F50DE
:100EA8000B58D8A008D00C50085E0D50095A0E50A7
:100EB8000A5A0F500B5AD8900F320E320D320C329C
:100EC800102EE7D708C508F509C509F50AC50AF5BA
:100ED8000BC50BF5120056500501E46F5750E56F2E
:100EE800E66BE76BE5C5E7F5E4C5E6F5E56BE46BAE
:100EF800900EE4251A6E000EE5211B6E000EE62109
:100F08001C6E000EE7211D6E4D0E1E6E070E1F6E25
:100F1800000E216E160E206E5DEC04F007015C05D4
:100F2800D8B007D0020E606F000E5F6F52EC02F06F
:100F38001200000E606F000E5F6F12000AC510F5F8
:100F48000BC511F50C500D10D8B412000DC583F067
:100F58000CC582F010C5D9F411C5DAF4DF500001D0
:100F6800816F104A112A000E0F6E010E0E6E0ED000
:100F780010C5D9F411C5DAF4DF50816F104A112A6F
:100F8800B1A0FED7000180510E4A0F2A0C500E5C0A
:100F98000D500F58D8A0ECD7B1A0FED70001805152
:100FA80012004C51D8B412002AC52CF5010E2D6E32
:100FB800000E2E6E2C2A03D0D8902D362E362C2ECD
:100FC800FBD7070139512D163A512E162D502E10E8
:100FD800D8A412002AC522F52BC523F5A6EC0CF0DF
:100FE8002AC52CF5010E2D6E000E2E6E2C2A03D06C
:100FF800D8902D362E362C2EFBD72D5007013913BD
:101008002E503A131200B8C5BCF5B9C5BDF5000E8F
:1010180007011C6F000E1B6F17D0B6C593F5B7C537
:1010280094F5BC0E0501956F050E966FBAC597F538
:10103800BBC598F58CEC87F00501935107011B2778
:101048000501945107011C23BCC5F6F4BDC5F7F48E
:10105800000EF86E0800F5500009D8A4DED7000E7F
:101068000501B76F000EB66F120004D0084A092AAE
:101078000A4A0B2A08C5D9F409C5DAF4DF500C6E00
:101088000AC5F6F40BC5F7F4000EF86E0800F55023
:101098000C18D8A407D008C5D9F409C5DAF4DF506C
:1010A800D8A4E4D708C5D9F409C5DAF4DF500C6E22
:1010B8000AC5F6F40BC5F7F4000EF86E0800F550F3
:1010C8000C5C086E096AD8A00906120024503F5D1E
:1010D80025504059D8B012002250266E2350276E52
:1010E800286A296A27C529F526C528F5276A266AA0
:1010F8003F5126241A6E405127201B6E000E2820CF
:101108001C6E000E29201D6E000E3F251E6E0B0E54
:1011180040211F6E3F51245C206E40512558216E9E
:101128005DEC04F024C53FF725C540F71200000E1A
:10113800106E08C511F509C512F50A5011240C6E78
:101148000B5012200D6E1CD011C5D9F412C5DAF45B
:10115800DF50101A114A122A000E0F6E000E0E6E82
:1011680010AE02D0890E101AD89010360E4A0F2AE7
:101178000FBEF6D70F5004E1080E0E5CD8A0F0D7CA
:101188000C50115C0D501258D8A0DED71050120028
:10119800BEC6D9F4BFC6DAF4DE50DE10D8B41ED00D
:1011A800BEC6D9F4BFC6DAF4DEC4C0F6DDC4C1F6E3
:1011B800C0C6D9F4C1C6DAF4DF50D8B40FD0BEC661
:1011C800D9F4BFC6DAF4DEC438F5DDC439F593ECDA
:1011D800DBF038C541F739C542F704D0000E426F3D
:1011E800010E416F000E0601BD6F000EBC6F1200AC
:1011F8005650226E5750236E246A256A23C525F55A
:1012080022C524F5236A226AA10E22241A6E000E32
:1012180023201B6E000E24201C6E000E25201D6E40
:101228004D0E1E6E070E1F6E000E216E160E206EDE
:101238005DEC04F007015C05D8B005D0020E606FC4
:10124800000E5F6F1200000E606F000E5F6F1200DD
:1012580001D80BD00500FA6E0801E551FD6EE65184
:10126800FE6EE751FF6EFA501200CC0E0601CC6FED
:10127800180ECD6FAC0ECE6FFF0ECF6F010ED06F74
:1012880078ECF8F00009D8B40DD0FB0E0501BE6F5C
:10129800F00EBF6F06EC10F0FF0E0601D96FFE0EC0
:1012A800D86F1200000ED96F000ED86F120022EC12
:1012B80003F0C284CA94000EC16E000EC96EBE82CD
:1012C800C692C08AC89ABE8AC69A000E0201056FE5
:1012D800040113931391139507EC0BF0000E086E9D
:1012E800000E096E000E0A6E000E0B6E01D8120079
:1012F8000500FA6E0701D251FD6ED351FE6ED4512E
:10130800FF6EFA5012000701F029F111D8B412004B
:10131800F051226EF151236E246A256A23C525F502
:1013280022C524F5236A226A22C51AF523C51BF5AE
:1013380024C51CF525C51DF5000E1E6E0B0E1F6E6F
:101348003FC720F540C721F521EC04F0000E070146
:10135800F16FF069000E406F000E3F6F1200516E82
:101368000701F451D8B404D0AA0E5118D8A4120019
:10137800AA0E5118D8A403D0000EF46F120051AC75
:101388000CD0C50E0501BE6FF00EBF6F000EC16F09
:10139800A00EC06F06EC10F0FF0051AE12004B0E0D
:1013A8000501BE6FF10EBF6F000EC16FA00EC06FBA
:1013B80006EC10F0FFD70BBE07D00B500A1009102F
:1013C8001DE10804D8B01AD008C50CF509C50DF5FB
:1013D8000AC50EF50BC50FF50C1E0D1E0E1E0F1EB1
:1013E8000C2A000E0D220E220F220CC508F50DC581
:1013F80009F50EC50AF50FC50BF5120008C508F565
:1014080009C509F50AC50AF50BC50BF51200EE2941
:10141800EF11D8B41200EE51226EEF51236E246AF8
:10142800256A23C525F522C524F5236A226A660E96
:1014380022241A6E000E23201B6E000E24201C6E20
:10144800000E25201D6E7C0E1E6E080E1F6E000EEF
:10145800216E030E206E21EC04F0000E0701EF6FE1
:10146800EE691200516E5150D8B40ED00601F551F4
:10147800F611D8B407D0A60E0501BE6FF20EBF6FE5
:1014880006EC10F0020E12000701E42914E1E52928
:1014980012E1E62910E1E729D8A40DD00601F5519B
:1014A800F611D8B4EFD7D00E0501BE6FF40EBF6F9A
:1014B80006EC10F0E7D7000E1200000E106E000EBA
:1014C800116E000E126E000E136E08A008D00C509C
:1014D80010260D5011220E5012220F501322D890B0
:1014E8000C360D360E360F36D8900B320A320932CA
:1014F8000832085009100A100B10D8A4E6D710C5F6
:1015080008F511C509F512C50AF513C50BF5120042
:10151800ECEC0CF0000E0201616F0F0E636F000E11
:101528000001D56F000ED66F000ED86F020ED96F6E
:101538007F0EDA6F7F0EDB6F010EDC6F080EDD6F3A
:10154800000EDE6F000EDF6F800ED76F8C0ED66F29
:10155800000ED46FAE9A9E9A010E0201056FC280EA
:10156800C2821200186812C508F513C509F53AECCD
:101578000CF0000E176E000E166E10D012C508F58E
:1015880013C509F5180E0A6E050E0B6E000E0D6ECA
:10159800010E0C6EA2EC07F0164A172A1450165CBE
:1015A80015501758D8A0EAD712C508F513C509F57C
:1015B80028EC0EF012000701CF51D011D111D8B488
:1015C8001FD0CC51CD11CE11D8B405D0C951CA11F4
:1015D800CB11D8A40CD0650E0501BE6FEF0EBF6FFE
:1015E8002F0EC06FF90EC16F06EC10F0120056C531
:1015F80022F557C523F5A6EC0CF0CF0E7CEC11F0C4
:10160800B5EC0DF01200ED0E0501BE6FE60EBF6FD2
:1016180006EC10F0E30EBE6FF10EBF6F06EC10F093
:10162800110E0501D96F3C0ED86FCB0EE82EFED7F0
:10163800D82FFCD7D92FFAD7CA0E0501BE6FF10EE5
:10164800BF6F06EC10F0ED0EBE6FE60EBF6F06EC36
:1016580010F01200C20ED16F050ED26FBEC5C6F5CE
:10166800BFC5C7F5000ECA6F000EC96F000ED06F58
:10167800000ECF6FC60EB66F050EB76FC0C5B8F5B2
:10168800C1C5B9F5D10EBA6F050EBB6F07EC08F0EE
:10169800C951BE25D96ECA51BF21DA6E000EDF6E60
:1016A8001200066ED69E070134511AE1500E335DC2
:1016B800D8B016D033513125016E34513221026E23
:1016C800000E046E500E036E94EC0DF0B00E012463
:1016D800D96E0A0E0220DA6E06C5DFF4334B342BBE
:1016E800345103E1400E335DD8B0A790D68E120076
:1016F800010E146E200E0E10106E000E0F10116EDB
:101708009F0E1024126EFF0E1120136E135004E169
:101718001A0E125CD8A00ED0D00E0E24106EFF0E3A
:101728000F20116E115004E10A0E105CD8A002D0EF
:10173800000E146E14C50EF50F6A12000D6ED69EBB
:101748000701305104E1500E2F5DD8A004D0B7A294
:10175800FED7C8EC0BF02F512D25086E30512E21E5
:10176800096E000E0B6E500E0A6E52EC0DF0600EF4
:101778000824D96E0A0E0920DA6E0DC5DFF42F4B46
:10178800302BA782D68E12001DD0600E2D25D96E63
:101798000A0E2E21DA6EDF500201C96F010E070111
:1017A8002D25086E000E2E21096E000E0B6E500EB0
:1017B8000A6E52EC0DF008C52DF709C52EF72F0754
:1017C800D8A0300707012F513011D8B41200B7A2A2
:1017D8001200DBD71DD0600E2D25D96E0A0E2E21E2
:1017E800DA6EDF500201C96F010E07012D25016E67
:1017F800000E2E21026E000E046E500E036E94EC45
:101808000DF001C52DF702C52EF72F07D8A0300718
:1018180007012F513011D8B41200B7A21200DBD73C
:10182800286E756C6C2900780861FF1A0000001A90
:101838000000001A0000001A00000000000000006C
:101848000000000000000000000000800000008090
:101858000000008000000080000000000000000080
:0B1868000000000000000064400000D1
:1018740008C50AF509C50BF520EE02F00A50D92671
:101884000B50DA22DF50D8A410D0310E0201116FB0
:10189400320E126F20EE03F00A50D9260B50DA22D2
:1018A400CBC4DFF4C892C890C88420EE02F00A507A
:1018B400D9260B50DA22DF2A120012D008C5D9F437
:1018C40009C5DAF4DFC40AF5010EDE26DFC40BF520
:1018D400000EDD220AC5D9F40BC5DAF4000EDF6E62
:1018E40008C5D9F409C5DAF4DEC40AF5DDC40BF57C
:1018F4000AC5D9F40BC5DAF4200EDE18D8A41200F8
:10190400DDD7C9ECF5F05650386E5750396E3A6A47
:101914003B6A39C53BF538C53AF5396A386A38C582
:1019240008F539C509F53AC50AF53BC50BF501D8E3
:1019340012000500FA6E0701D251FD6ED351FE6EFE
:10194400D451FF6EFA5012002250246E2350256E9B
:10195400266A276A25C527F524C526F5256A246A3B
:10196400080E24241A6E000E25201B6E000E26205D
:101974001C6E000E27201D6E6D0E1E6EE20E1F6E75
:10198400000E216E060E206E21EC04F01200000EF3
:10199400251A000E261A000E271A800E281A21C5B1
:1019A40008F522C509F523C50AF524C50BF525C597
:1019B4000CF526C50DF527C50EF528C50FF582ECE7
:1019C400C0F008C521F509C522F50AC523F50BC5E4
:1019D40024F5120004011969C9680969C7682969ED
:1019E400CB680181C6800183C682018BC68A118BB4
:1019F400C88ABE88C698550E596FAA0E596F599158
:101A0400080E5D6F000E5E6F000E5F6F550E596F0E
:101A1400AA0E596F598112000AC511F50BC512F5AA
:101A240008C50FF509C510F510D011C5D9F412C5B4
:101A3400DAF4DF500E6E114A122A0FC5D9F410C51C
:101A4400DAF40EC5DFF40F4A102A0C06D8A00D06EE
:101A54000C28EBE10D28D8B41200E7D708C50AF525
:101A640009C50BF502D0084A092A08C5F6F409C5C8
:101A7400F7F4000EF86E250EF76403D00800F55055
:101A840005D0F6C4E9F4F7C4EAF4EF500009D8A489
:101A9400EAD70A50085C086E0B500958096E120008
:101AA4000A500B10D8B418D0010E0C6E04D0D89084
:101AB4000A360B360C2A0BAEFAD70A50085C0B50C8
:101AC4000958D8A004D00A50085E0B50095AD8907F
:101AD4000B320A320C2EF1D708C508F509C509F5F1
:101AE40012001A0E0E24086E000E0F20096E10C587
:101AF4000AF511C50BF5F2EC0FF00CC5D9F40DC5C0
:101B0400DAF4030EDE18D8A41200140E0E24086EA4
:101B1400000E0F20096E12C50AF513C50BF5F2EC81
:101B24000FF0120003500410D8B418D0010E056E43
:101B340004D0D89003360436052A04AEFAD70350ED
:101B4400015C04500258D8A004D00350015E045034
:101B5400025AD89004320332052EF1D701C501F59B
:101B640002C502F51200CF51D011D111D8B40DD055
:101B740001D812000500FA6ECF51FD6ED051FE6EF1
:101B8400D151FF6EFA50000E1200BD0E0501BE6F5A
:101B9400F20EBF6FC10EC06FF30EC16F06EC10F0F2
:101BA40012000AC50CF50BC50DF508C50EF509C5DF
:101BB4000FF50CC5F6F40DC5F7F40C4A0D2A000E0A
:101BC400F86E0EC5D9F40FC5DAF40E4A0F2A0800D0
:101BD400F5C4DFF4DF50D8B41200EBD720EE01F0E7
:101BE4000850D9260950DA22DF500A6E0A500D6EC9
:101BF4000E6A08C5D9F409C5DAF4DF500A6E0D502F
:101C04000B6E0A500D6E0BC50EF50DC508F50EC50D
:101C140009F51200000E1A6E000E196E0BD018C5CD
:101C24000BF50C6A16C50DF517C50EF583EC00F01F
:101C3400194A1A2A19501424D96E1A501520DA6E2A
:101C4400DF50186E1850D8B41200E9D708C50AF549
:101C540009C50BF520EE02F00A50D9260B50DA2202
:101C6400DF06DF50D8A41200000E0201116F000E2F
:101C7400126F20EE03F00A50D9260B50DA22DF50FF
:101C8400CB6E12000701CF51D011D111D8B40DD0B1
:101C940001D80BD00500FA6ECF51FD6ED051FE6E07
:101CA400D151FF6EFA50010E120056C52EF557C5DC
:101CB4002FF586EC05F0120008C50AF509C50BF5E9
:101CC40020EE02F00A50D9260B50DA22000EDF6E05
:101CD400000E0001846F000E856F100E02016A6F02
:101CE400120E6B6FC8980001848F120007D008C5CC
:101CF400D9F409C5DAF4DE2A000EDD2208C5D9F4C8
:101D040009C5DAF4DEC40AF5DDC40BF50AC5D9F455
:101D14000BC5DAF4200EDE18D8A41200E8D732C5B9
:101D240015F533C516F534C517F535C518F536C59B
:101D340019F537C51AF5000E1B6E53ECBDF015C529
:101D440032F516C533F517C534F518C535F5120047
:101D54002A500701F01903E12B50F119D8A487EC9C
:101D640009F02AC522F52BC523F52CC524F52DC56C
:101D740025F56AEC08F0000E07013E6F010E3D6F79
:101D84001200520EBE6FEE0EBF6FD8C5C0F5D9C596
:101D9400C1F5DAC5C2F5DBC5C3F5DEC5C4F5DFC5DB
:101DA400C5F5DCC5C6F5DDC5C7F506EC10F094EC49
:101DB40011F012001BBE05D01B5010E11A04D8B05C
:101DC4000DD01AC51CF51BC51DF51C1E1D1E1C4A75
:101DD4001D2A1CC51AF51DC51BF512001AC51AF5D6
:101DE4001BC51BF51200010E0C6E200E08180910FD
:101DF400D8B40ED0F70E08240A6EFF0E09200B6E1D
:101E04000B5004E1050E0A5CD8A002D0000E0C6E43
:101E14000CC508F5096A12001B6E00C71CF501C742
:101E24001DF51CC516F51DC517F587EC10F01E6EC3
:101E34001B501E18D8A407D01906D8A01A0619508A
:101E44001A10D8A4EED71E501200200E08100A6EE5
:101E5400000E09100B6E9F0E0A240C6EFF0E0B2051
:101E64000D6E0D5006E11A0E0C5CD8B002D0010EB6
:0A1E740001D0000E086E096A12008A
:101E8000B7A00ED0C7C207F50750D8B404D007508A
:101E900055EC0BF005D0000E0701466F010E456FA3
:101EA000EEEC0BF02F513011D8A41100A7921100C5
:101EB000E3C5D8F5E4C5D9F5E50EDA6F050EDB6F9D
:101EC000A5ECFBF0E76FE751D8A41200E3C5D9F405
:101ED000E4C5DAF4000EDE6E000EDD6E1200D8519D
:101EE0000701435D4451800A516E0501D951800AB2
:101EF0005158D8B01200CF0EBE6FE70EBF6FD8C5D5
:101F0000C0F5D9C5C1F506EC10F012000850091053
:101F10000A100B10D8B408D0000E081A000E091AC7
:101F2000000E0A1A800E0B1A08C508F509C509F536
:101F30000AC50AF50BC50BF5120008500910D8B4F4
:101F40000BD0000EC76E000EC96EBE82BE8AC08A5C
:101F5000C692C69AC89A1200C768C968CB68C6827A
:101F6000C68AC88A12009F0E0C240E6EFF0E0D202A
:101F70000F6E0F5009E11A0E0E5CD8B005D05F0E3F
:101F80000C140C6E0D6A12000CC50CF50DC50DF588
:101F9000120000C719F501C71AF519C50CF51AC5C5
:101FA0000DF5A9EC10F019C512F51AC513F5000EC0
:101FB000156E010E146EB6EC0AF012000EC508F58F
:101FC0000FC509F510C50AF511C50BF501D81200AA
:101FD0000500FA6ED251FD6ED351FE6ED451FF6EE4
:101FE000FA50120008C5D9F409C5DAF40AC5DFF4BD
:101FF000084A092A0BC50AF50B6A08C5D9F409C5B0
:10200000DAF40AC5DFF4084A092A1200C00E0501F5
:10201000D66F050ED76F000EB66F000EB76FBEC538
:10202000B8F5BFC5B9F5D60EBA6F050EBB6F07EC94
:1020300008F012000CD0050E096E0F0E086EF10E9E
:10204000E82EFED7082EFCD7092EFAD700F007019C
:102050002F513011D8B41200EED708500A02F3C441
:102060000CF5F4C40DF508500B02F3500D26095081
:102070000A02F3500D260CC508F50DC509F512002E
:102080009F0E08240A6EFF0E09200B6E0B5006E10E
:102090001A0E0A5CD8B002D0010E01D0000E086EF4
:1020A000096A1200BF0E08240A6EFF0E09200B6E8B
:1020B0000B5006E11A0E0A5CD8B002D0010E01D016
:1020C000000E086E096A1200D00E08240A6EFF0E78
:1020D00009200B6E0B5006E10A0E0A5CD8B002D044
:1020E000010E01D0000E086E096A12000AC508F53B
:1020F0000BC509F501D812000500FA6E0801EB5175
:10210000FD6EEC51FE6EED51FF6EFA501200186834
:1021100016C508F517C509F5180E0A6E050E0B6EE3
:10212000000E0D6E010E0C6EDBECC9F018501200A3
:102130000CC508F50DC509F53AEC0CF00CC508F511
:102140000DC509F5000E0B6E010E0A6E3EEC11F086
:1021500012000CC508F50DC509F5000E0B6E000E3A
:102160000A6E3EEC11F00CC508F50DC509F528EC1A
:102170000EF012007FECFDF001D812000500FA6E9F
:102180000801E851FD6EE951FE6EEA51FF6EFA500A
:10219000120001D812000500FA6E0801E251FD6E2E
:1021A000E351FE6EE451FF6EFA501200F5C60AF5D7
:1021B000F6C60BF508C5F5F609C5F6F60AC508F525
:1021C0000BC509F5120054C50AF555C50BF508C530
:1021D00054F509C555F50AC508F50BC509F51200F2
:1021E000FFFFFFFF0100FFFF0F00FF00FF00FF01E7
:0321F000FFCF011D
:1021F40003EC11F00AC508F50BC509F5C2EC11F0A2
:10220400120001D0490707014951800A7F0FD8A065
:102214001200F8D7000E086E000E096EF00E0A6E5A
:10222400FF0E0B6E1200000E086E000E096E210EDA
:102234000A6E000E0B6E1200AA0E0701186F0F0E25
:10224400196F000E1A6F1200086E0804D8A4120049
:102254000001D785D7951200AEBA12000701455187
:102264004611D8A41200F8D70A6E1AEC10F0B7A2DF
:10227400FED70AC5C9F212000A500B10D8A402D026
:10228400C0881200C0981200FF00000E0601BD6F46
:10229400000EBC6F1200086E08A002D0C2821200A9
:1022A400C292120056C52EF557C52FF5E5EC03F082
:1022B4001200086E08A002D0C2841200C294120058
:1022C400086E08A002D0BE881200BE981200086EE4
:1022D40008A002D0C2801200C2901200000E0701B2
:1022E400366F0A0E356F1200000E0601BD6F010E27
:1022F400BC6F1200086E08C5EAF70701EB6B120009
:10230400CEBA02D0D8901200D8801200CEB002D03B
:10231400D8901200D8801200AEBA02D0D890120021
:10232400D8801200FF0E0B6E0A68FAEC10F012004F
:10233400D0BA02D0D8901200D8801200BD0E086E18
:10234400FF0E096E120035C708F536C709F51200ED
:10235400070E086EF80E096E1200086E08C5C3F465
:102364001200086E08C5CBF4120008680968120050
:10237400D3501200CF501200AE9A1200F451120042
:04238400FFD712006D
:10DBCA000080F8650700D4F566070081F56707004D
:10DBDA0084F4680700E4F56907016BF66C080071C4
:10DBEA00F46D0800D6F36E08002DF36F0800E9F60D
:10DBFA0070080018F571080097F4720800ACF37306
:10DC0A000800F4F4740802819FE0FC407E80FC0066
:10DC1A000090002900A10010000000E1FF02019B12
:10DC2A00F7000246FB000314FD000490FE00058A7B
:10DC3A00FE0106C2F800077FFF000839F90009C58E
:10DC4A00F9000A43F9000B0DFD000CAEFE000DA809
:10DC5A00FE010E33FA000F84FF01104EFC0211B3CD
:10DC6A00F700129DF9001392FD0014D2FE0015CCA4
:10DC7A00FE0116CDF80017CDFF011850FF0019E379
:10DC8A00F9001A4DF9001B8BFD001CF0FE001DEA7D
:10DC9A00FE011E3DFA001FD1FF0120E2FA0221CB4C
:10DCAA00F70222DBF6002317FE00240EFF002508E8
:10DCBA00FF0126D8F80027C9FF012846FC00291FC2
:10DCCA00FA022A79F6002B10FE002C2CFF002D26D2
:10DCDA00FF012E47FA002FDDFF0130D9FA0231E3A6
:10DCEA00F702321DF7003333FE00349AFA003591F9
:10DCFA00FA013695F60037D9FF01383EFC0039297A
:10DD0A00FA023A10F7003B2CFE003C72FE003D6C12
:10DD1A00FE013EB7F8003FD5FF0040B2FC0041E3E8
:10DD2A00FC004230FD004361FD0044B5FD0045E6BC
:10DD3A00FD004661F9004781FC0048B9FC0049EA48
:10DD4A00FC004A37FD004B68FD004CBCFD004DED60
:10DD5A00FD004E6BF9004F88FC0050C0FC0051F1E9
:10DD6A00FC00523EFD00536FFD0054C3FD0055F404
:10DD7A00FD005675F900578FFC0058C7FC0059F88A
:10DD8A00FC005A45FD005B76FD005CCAFD005DFBA8
:10DD9A00FD005E7FF9005F96FC0060CEFC0061FF2B
:10DDAA00FC00624CFD00637DFD0064D1FD0065024C
:10DDBA00FE006689F900679DFC0068D5FC006906CB
:10DDCA00FD006A53FD006B84FD006CD8FD006D09EF
:10DDDA00FE006E93F9006FA4FC0070B1F90071BBEC
:10DDEA00F90072CFF90073D9F90074EDF9007515CD
:10DDFA00FA0076A7FF0077A7F90078ABFC0079DC78
:10DE0A00FC007A29FD007B5AFD007CAEFD007DDF17
:10DE1A00FD007E57F9007F7AFC00805EFB00817668
:10DE2A00FB008296FB0083AEFB0084D6FB00852EA6
:10DE3A00FC0086ACF800873EFB008856FB00896E22
:10DE4A00FB008A8EFB008BA6FB008CCEFB008D2686
:10DE5A00FC008EA1F8008F36FB009084FE0091A290
:10DE6A00FE0092C6FE0093E4FE009402FF00952095
:10DE7A00FF009688FA009766FE00984EFB009966A6
:10DE8A00FB009A86FB009B9EFB009CC6FB009D1E26
:10DE9A00FC009E96F8009F2EFB00A096FE00A1B4FF
:10DEAA00FE00A2D8FE00A3F6FE00A414FF00A532CD
:10DEBA00FF00A6A3FA00A778FE00A89CFE00A9BA54
:10DECA00FE00AADEFE00ABFCFE00AC1AFF00AD3875
:10DEDA00FF00AEACFA00AF7EFE00B09DFE00B1BB03
:10DEEA00FE00B2DFFE00B3FDFE00B41BFF00B53931
:10DEFA00FF00B6ADFA00B77FFE00B889FF00B98E01
:10DF0A00FF00BA93FF00BB98FF00BC9DFF00BDA2B3
:10DF1A00FF00BE1EFB00BF7AFF00C03AFE00C11B15
:10DF2A00FD02C2EFF702C3BEFA02C4CDF600C57EF7
:10DF3A00FB01C68FF700C7DEFB00C84AFF00C9E530
:10DF4A00FF02CA0FF900CB000002CC51F702CDE361
:10DF5A00F801CE83F700CFFEFB00D022FD00D19955
:10DF6A00FD02D2A7F701D387F602D4A3F600D5B6ED
:10DF7A00FB01D6F7F900D7E6FB00D8C0FE00D9E9C5
:10DF8A00FF02DAEEF801DB03F702DC44F700DD00FA
:10DF9A000001DE77F700DF06FC00E025FE00E11E47
:10DFAA00FE02E2D7F700E31AF902E4BFF600E5360B
:10DFBA00FC01E601FA00E7EEFB00E8A0FD00E92615
:10DFCA00FB02EABFF700EBC7FA02ECB1F600ED007C
:10DFDA000001EE0BFA00EF0EFC00F044FF00F1A77F
:10DFEA00FD02F204F900F3F8FF02F437F700F5BE78
:10DFFA00FB01F60CFA00F7F6FB00F83EFF00F9D039
:10E00A00FA02FAF9F800FBFBFF02FC2AF700FD000E
:10E01A000001FEB5FA00FF16FCF0000000C3BB00C9
:10E02A0000000000000000000000000000000000E6
:10E03A0000000000000000000000000000000000D6
:10E04A0000000000000000000000000000000000C6
:10E05A0000000000000000000000000000000000B6
:10E06A0000000000000000000000000000000000A6
:10E07A000000000000000000000000000000000096
:10E08A000000000000000000000000000000000086
:10E09A0000000000000000000000000000424F4F96
:10E0AA00543A206572726F7220626F6F74696E677C
:10E0BA000D0A0043502F4D20626F6F742D6C6F61F3
:10E0CA0064657220666F72205A38302D53696D75F7
:10E0DA006C61746F720D0A00F331600101FF00ED8B
:10E0EA004C78B1203F3E00ED393F3E00ED39323EDB
:10E0FA0000ED39363E7FED393EED383EE680201A96
:10E10A003EE0ED393EAFED3912ED3812E640200A15
:10E11A003E80ED391F3EFFED391E3E64ED39003E6B
:10E12A0007ED3902219600CD4101ED46FB010100C0
:10E13A00210000AFD38A78D38B79D38C7DD38F7C9F
:10E14A00D3903E00D38DDB8EB7CA0000C630CD4ACD
:10E15A000121B800CD4101218000CD4101767ED355
:10E16A008123B7C24101C9D381C9FFFFFFFFFFFF66
:10E17A00FFFFFFFFFFFFFFFFFFFFFFFFFFC3960049
:10E18A0043502F4D20626F6F742D6C6F61646572FE
:10E19A0020666F72205A38302D53696D756C617420
:10E1AA006F720D0A0000000000000000000000006D
:10E1BA000000000000000000000000000000000055
:10E1CA000000000000000000000000000000000045
:10E1DA000000000000000000000000000000000035
:10E1EA000000000000000000000000000000000025
:10E1FA0000000000000000000000000000424F4F35
:10E20A00543A206572726F7220626F6F74696E671A
:10E21A000D0A002103007ED38123B7C29900ED467F
:10E22A00FB010100210000AFD38A78D38B79D38C0C
:10E23A007DD38F7CD390AFD38DDB8EB7CA0000C657
:10E24A0030D3813E0DD3813E0AD3812180007EB72F
:10E25A00CADC00D38123C3D100F376D39C182731BB
:10E26A00000000D39B00C30E00ED73B10031AD0076
:10E27A00F5AF32B500C5D5E5DDE5FDE5ED7BB100CD
:10E28A00E122AF0018D52AB3007DB428431100005B
:10E29A00060E1A77231310FA2AB300110400192262
:10E2AA00AD00182C00000000000000000000000073
:10E2BA000000000000000000000000000000000054
:10E2CA0000D39B00ED73B10031AD00F53E0118A2F9
:10E2DA00DD2AB3003E9ADD77092AB100DD7505DD36
:10E2EA0074063AA000DD770B2323F92AAF00E53143
:10E2FA00A100FDE1DDE1E1D1C1F1FBC900000000AF
:10E30A0000000000000000000400000000000000FF
:10E31A000000F9F50144D201000025F976F2F4F57E
:10E32A0000CA0C00000043EF2AF57FFA00EC220035
:10E33A00000043EF2EEE6BF702209C010000C4F5AB
:10E34A008BEBF5FF02209C0100000000000076FA2A
:10E35A0004686501000067E94FED70FF0284A901B6
:10E36A000000C4F500EF75FF01C60600000065FC59
:10E37A00F7E960FE008C22000000AAF400006CFCA1
:10E38A000256C001000023F628ED62FE02F23401B3
:10E39A0001005EF4E2EB66FF01981100000006F549
:10E3AA008EF073FC00128F01000043EF1DF0A4F4FD
:10E3BA0002D4D9010200F6F637EC6BFF0056BD0114
:10E3CA00000082F30000D39E00ED73A000319C0090
:10E3DA00F53E0132A400C5D5E5DDE5FDE5ED7BA0FE
:10E3EA0000E1229E0021000036D323369FC300009D
:10E3FA000000000000000000000000000000000013
:10E40A00000000000000D39C180A31000000D39AD3
:10E41A0000FBED4D2A3900310700E52323F92A379D
:10E42A0000E5312900FDE1DDE1E1D1C1F118DB00B0
:10E43A0000000000000000000000000400000000CE
:10E44A000000000000D39D180500000000002A0407
:10E45A0000ED5B06003A08004FAF47EDB03E0018EA
:10E46A00E43100083E00D39D7618F600ED45FBED39
:10E47A004D696F5F737461742829203D3D20494FAF
:10E48A005F535441545F4E4F545F53544152544565
:10E49A0044207C7C20696F5F737461742829203D55
:10E4AA003D20494F5F535441545F53544F50504598
:10E4BA0044207C7C20696F5F737461742829203D35
:10E4CA003D20494F5F535441545F494E544552527F
:10E4DA005550544544207C7C20696F5F7374617485
:10E4EA002829203D3D20494F5F535441545F5052E3
:10E4FA004550494E564F4B45207C7C20696F5F73CF
:10E50A007461742829203D3D20494F5F535441547A
:10E51A005F4D4F4E49544F5200696F5F7374617477
:10E52A002829203D3D20494F5F535441545F4E4FA7
:10E53A00545F53544152544544207C7C20696F5F98
:10E54A00737461742829203D3D20494F5F5354411B
:10E55A00545F53544F50504544207C7C20696F5F70
:10E56A00737461742829203D3D20494F5F535441FB
:10E57A00545F4D4F4E49544F52004449534B3A2031
:10E58A004F503D2530327820442F542F533D256477
:10E59A002F2533642F25336420202020202020209B
:10E5AA0020202020414444523D2530317825303204
:10E5BA007825303278202852442049474E4F524518
:10E5CA0044290A0D004449534B3A204F503D253007
:10E5DA00327820442F542F533D25642F2533642F3E
:10E5EA0025336420202020202020202020202041A4
:10E5FA004444523D253031782530327825303278FE
:10E60A00202857522049474E4F524544290A0D00A7
:10E61A0025733A204552524F523A20492F4F20250E
:10E62A003573202533642C20253364202825303285
:10E63A0058482C20253032584829207768696C655B
:10E64A002077616974696E6720666F72202564207D
:10E65A00282530325848290A0D004449534B3A209C
:10E66A004F503D2530327820442F542F533D256496
:10E67A002F2533642F25336420782533643D2535CF
:10E68A006C6420414444523D25303178253032783B
:10E69A0025303278202E2E2E2053543D25303278C4
:10E6AA000A0D004449534B3A204F503D25303278E9
:10E6BA0020442F542F533D25642F2533642F2533AF
:10E6CA006420202020202020202020202041444493
:10E6DA00523D253031782530327825303278202E57
:10E6EA002E2E200A0D002F55736572732F74616BDD
:10E6FA00656D7572612F776F726B73706163652FC9
:10E70A006769746875622F53757065724D455A381A
:10E71A00302F7372632F6D6F6E69746F722E630080
:10E72A002F55736572732F74616B656D7572612FE6
:10E73A00776F726B73706163652F6769746875624E
:10E74A002F53757065724D455A38302F7372632F87
:10E75A006D656D6F72792E63005344204361726454
:10E76A003A20726561643531323A2043524320655A
:10E77A0072726F7220282530347820213D2025308E
:10E78A0034782C2072657472793D2564290A0D004B
:10E79A002F55736572732F74616B656D7572612F76
:10E7AA00776F726B73706163652F676974687562DE
:10E7BA002F53757065724D455A38302F7372632F17
:10E7CA00696F2E63005741524E494E473A20746F83
:10E7DA006F206D616E792062616E6B732072657154
:10E7EA007565737465642E20287265717565737416
:10E7FA00206973202564290A0D0074797065202721
:10E80A0068656C702720746F20736565207468656D
:10E81A00206C697374206F6620617661696C61622D
:10E82A006C6520636F6D6D616E64730A0D00496DCE
:10E83A006167652066696C652025732F44524956C5
:10E84A004525632E44534B206973206173736967AE
:10E85A006E656420746F2064726976652025630A88
:10E86A000D005741524E494E473A20756E6B6E6FF6
:10E87A00776E20492F4F2077726974652025642CA2
:10E88A00202564202825303258482C20253032583B
:10E89A0048290A0D006469736B5F696F63746C3A87
:10E8AA0020706472763D25642C20636D643D256476
:10E8BA002C20627566663D3078256C783A20726540
:10E8CA00733D25640A0D00534420436172643A2063
:10E8DA0020726561643531323A20616464723D2583
:10E8EA00386C642C206F6666733D25642C20636F38
:10E8FA00756E743D25640A0D0053442043617264A9
:10E90A003A2077726974653531323A2061646472EB
:10E91A003D25386C642C206F6666733D25642C2077
:10E92A00636F756E743D25640A0D0053442043617C
:10E93A0072643A2077726974653531323A206661B9
:10E94A00696C656420746F2067657420746F6B65E9
:10E95A006E2C2074696D656F75740A0D005B6472A4
:10E96A006976655D5B2C747261636B5D5B2C7365A4
:10E97A0063746F725D5B2C6C656E6774685D206F83
:10E98A0072205B64726976652C5D4C424100444991
:10E99A00534B3A20207265616420442F542F533D13
:10E9AA0025642F2533642F25336420782533643D6D
:10E9BA0025356C643A204552524F520A0D00534491
:10E9CA0020436172643A2077726974653531323A4C
:10E9DA002074696D656F75742C20726573706F6E23
:10E9EA00736520697320253032780A0D004A756DE7
:10E9FA007020746F2073706563696669656420614D
:10EA0A0064647265737320616E64207374617274D6
:10EA1A0020657865637574696F6E200053442043DE
:10EA2A006172643A20434D4435382C2052333D25D7
:10EA3A00303278202530327820253032782025303F
:10EA4A00327820253032780A0D0025733A20455253
:10EA5A00524F523A20636C6F636B20737065656422
:10EA6A00202564206973206E6F7420737570706F2F
:10EA7A00727465640A0D00534420436172643A203B
:10EA8A00434D44382C2052373D25303278202530EA
:10EA9A0032782025303278202530327820253032DD
:10EAAA00780A0D004449534B3A202072656164206C
:10EABA00442F542F533D25642F2533642F25336467
:10EACA0020782533643D25356C643A204F4B0A0D76
:10EADA00006469736B5F696F63746C3A2070647267
:10EAEA00763D25642C20636D643D25643A204E6F83
:10EAFA00742068616E646C65642E0A0D0064697323
:10EB0A006B5F726561643A2020706472763D256499
:10EB1A002C20736563746F723D256C642C20636FBF
:10EB2A00756E743D25640A0D006469736B5F7772B4
:10EB3A006974653A20706472763D25642C20736589
:10EB4A0063746F723D256C642C20636F756E743D1F
:10EB5A0025640A0D005741524E494E473A20257303
:10EB6A003A206E6F20696E746572727570747320C4
:10EB7A006C696E6520617661696C61626C650A0D0B
:10EB8A00005472616E736C617465206D61636869AB
:10EB9A006E6520636F6465206F6E207468652074EB
:10EBAA006172676574206D656D6F727900534420D8
:10EBBA00436172643A2043435320284361726420BC
:10EBCA004361706163697479205374617475732940
:10EBDA0020697320300A0D00446973706C617920D2
:10EBEA006F72206368616E6765207370656369661A
:10EBFA00696564206465627567207661726961621D
:10EC0A006C6500534420436172643A2077726974D8
:10EC1A00653531323A20435243206572726F722051
:10EC2A002872657472793D2564290A0D0057726944
:10EC3A0074652062797465206F7220737472696ECC
:10EC4A006720746F20746865207461726765742028
:10EC5A006D656D6F727900534420436172643A2086
:10EC6A004361726420706F776572207570207374C7
:10EC7A00617475732062697320697320300A0D000C
:10EC8A007472616D706F6C696E655F696E737461C1
:10EC9A006C6C656420213D204D4D555F494E5641AF
:10ECAA004C49445F42414E4B0072656164204D42BB
:10ECBA005220706172746974696F6E207461626C3B
:10ECCA006520617420736563746F7220300A0D00C9
:10ECDA005741524E494E473A20756E6B6E6F776EAA
:10ECEA0020492F4F20726561642025642028253031
:10ECFA00325848290A0D00534420436172643A206D
:10ED0A0020726561643531323A20736563746F72BB
:10ED1A003D256C643A204552524F520A0D0044690F
:10ED2A0073706C6179206461746120626C6F636BCB
:10ED3A002873292066726F6D2074686520534420F9
:10ED4A004361726400446973706C6179207365630E
:10ED5A00746F722873292066726F6D206469736BF1
:10ED6A0020696D6167652066696C650053442043BC
:10ED7A006172643A2053444843206F7220534458C6
:10ED8A004320636172642064657465637465640A10
:10ED9A000D0025733A204552524F523A206D6F6446
:10EDAA0065202564206973206E6F742073757070F6
:10EDBA006F727465640A0D00534420436172643AA9
:10EDCA0020696E697469616C697A65202E2E2E201D
:10EDDA007375636365656465640A0D005344204373
:10EDEA006172643A20756E65787065637465642033
:10EDFA00726573706F6E736520253032780A0D0064
:10EE0A00534420436172643A20207265616435314B
:10EE1A00323A20736563746F723D256C643A204FF1
:10EE2A004B0A0D0045786974206D6F6E69746F72B4
:10EE3A0020616E6420636F6E74696E7565206578F3
:10EE4A0065637574696F6E00417373657274696F77
:10EE5A006E206661696C65643A20257320282573E3
:10EE6A003A2025733A202564290A00534420436135
:10EE7A0072643A2041434D44343120726573706F95
:10EE8A006E736520697320253032780A0D00534469
:10EE9A0020436172643A2077726974653531323A77
:10EEAA0020746F6B656E20697320253032780A0DE5
:10EEBA00004552524F523A2062616E6B20256420FF
:10EECA006973206E6F7420617661696C61626C652A
:10EEDA002E0A0D00534420436172643A20434D4484
:10EEEA00353920726573706F6E73652069732025DA
:10EEFA003032780A0D00446973706C61792064615C
:10EF0A007461206F6E20746865207461726765741D
:10EF1A00206D656D6F7279004D656D6F7279203065
:10EF2A003030303030202D202530366C584820259E
:10EF3A0064204B42204F4B0D0A0070617274697451
:10EF4A00696F6E20737461727473206174207365C3
:10EF5A0063746F7220256C640A0D0025733A206968
:10EF6A006E74657272757074206973206E6F742086
:10EF7A00617661696C61626C650A0D00665F777221
:10EF8A0069746528293A204552524F522072657396
:10EF9A003D25642C206E3D25640A0D00665F72656E
:10EFAA00616428293A204552524F52207265733DB6
:10EFBA0025642C206E3D25640A0D00696F5F696E19
:10EFCA00766F6B655F7461726765745F6370755F96
:10EFDA0074656172646F776E006661696C6564203E
:10EFEA00746F20777269746520736563746F722019
:10EFFA00256C640A0D00696F5F696E766F6B655FD9
:10F00A007461726765745F6370755F707265706151
:10F01A00726500446973706C6179207374617475E8
:10F02A0073206F6620746865207461726765740066
:10F03A006661696C656420746F207265616420730F
:10F04A006563746F7220256C640A0D000A0D5344BF
:10F05A0020436172643A20696E697469616C697AE5
:10F06A0065202E2E2E0A0D00436C65617220627295
:10F07A0065616B706F696E74206174202530346C21
:10F08A00580A0D0045786563757465206E65787455
:10F09A0020696E737472756374696F6E28732900C0
:10F0AA00534420436172643A2041434D4434312C25
:10F0BA002052313D253032780A0D000A0D5265730F
:10F0CA00657420627920494F20706F727420253050
:10F0DA003258480A0D004661696C656420746F20D5
:10F0EA006F70656E20534420436172642E2E0A0DA0
:10F0FA00004661696C656420746F206D6F756E746B
:10F10A0020534420436172642E0A0D0050726566D2
:10F11A006572726564206469736B20696D616765E5
:10F12A003A2025730A0D006661696C656420746F64
:10F13A00207265616420736563746F7220300A0DF2
:10F14A00000A0D48414C5420627920494F20706FC3
:10F15A0072742025303258480A0D005365742062B3
:10F16A007265616B706F696E74206174202530342A
:10F17A006C580A0D006469736B5F696E6974696122
:10F18A006C697A65282564292E2E2E0A0D005344AF
:10F19A0020436172643A206E6F74207375706F70C9
:10F1AA00727465640A0D00534420436172643A2004
:10F1BA00434D44302C2052313D253032780A0D001F
:10F1CA002020202020202020202020202020202035
:10F1DA00202020202020200D007761697420666F8E
:10F1EA00722070726F6772616D6D6572202E2E2E9D
:10F1FA000D00496E76616C696420617267756D6590
:10F20A006E743A20272573270A0D0053544154552A
:10F21A00533A2025632563256325632563256325E2
:10F22A006325630025732535337320434845434BD3
:10F23A0053554D3A20253032780A0D00556E6B6EC3
:10F24A006F776E207661726961626C65202725731B
:10F25A00270A0D00427265616B706F696E742069CE
:10F26A0073206E6F74207365740A0D0053657420E1
:10F27A006F722073686F7720627265616B20706F9E
:10F28A00696E74004D656D6F7279203030303030A0
:10F29A0030202D202530366C58480D00706879735F
:10F2AA006963616C2064726976657220213D203041
:10F2BA000A0D0025733A206E6F20696E74657272AA
:10F2CA007570742070696E0A0D00416D6269677508
:10F2DA006F757320636F6D6D616E642025730A0DFF
:10F2EA0000665F6C7365656B28293A204552524F58
:10F2FA00522025640A0D00427265616B706F696E57
:10F30A0074206973202530346C580A0D00556E6BD1
:10F31A006E6F776E20636F6D6D616E643A20257330
:10F32A000A0D0064656275675F6661746469736B70
:10F33A005F766572626F7365006E6F204641543363
:10F34A003220706172746974696F6E0A0D00665FAB
:10F35A0073796E6328293A204552524F5220256408
:10F36A000A0D00696F5F696E766F6B655F74617213
:10F37A006765745F63707500446973706C617920A6
:10F38A0074686973206D6573736167650072656976
:10F39A006E7374616C6C5F7472616D706F6C696EA0
:10F3AA00650064656275675F7364636172645F7642
:10F3BA006572626F7365006D6F6E5F6173736572FC
:10F3CA00745F696E746572727570740064656275D3
:10F3DA00675F6661746469736B5F777269746500ED
:10F3EA0073697A656F6628706172616D7329203D51
:10F3FA003D2035004D3A204D6F6E69746F72207052
:10F40A00726F6D70740A0D006E6F204D4252207338
:10F41A0069676E61747572650A0D00534420436111
:10F42A0072643A2074696D656F75740A0D00696EAD
:10F43A0076616C69642064726976652025640A0DB8
:10F44A00007772697465205B616464725D2C766111
:10F45A006C0A0D005B7661726961626C655D5B3D89
:10F46A0076616C75655D0064656275675F66617477
:10F47A006469736B5F726561640064656275675F76
:10F48A006469736B5F766572626F73650064656247
:10F49A0075675F7364636172645F7772697465002C
:10F4AA005265737461727420746865207379737419
:10F4BA00656D005F5F6D656D6370795F6F6E5F7418
:10F4CA006172676574006E6F2076616C696420767C
:10F4DA006F6C756D650A0D00534420436172643A7E
:10F4EA002072656164792E0A0D007A38305F636C88
:10F4FA006F636B5F4E434F31494E43005B6E756DD0
:10F50A00626572206F662073746570735D0064654E
:10F51A006275675F7364636172645F7265616400D8
:10F52A00436C65617220627265616B20706F696EEF
:10F53A00740025732069732073656C656374656450
:10F54A002E0A0D005350495F53445F636F6E66691C
:10F55A006775726500427265616B2061742025309F
:10F56A00346C580A0D004D4D553A2062616E6B207D
:10F57A002530325820200064656275675F646973BC
:10F58A006B5F7772697465004E434F313A20252EBE
:10F59A003266204B487A0A0D004E434F313A2025F5
:10F5AA002E3266204D487A0A0D0025733D256C647B
:10F5BA002028256C5868290A0D005B616464725D15
:10F5CA005B2C6C656E6774685D0064656275675F65
:10F5DA006469736B5F726561640064656275675F15
:10F5EA006469736B5F6D61736B00636C65617262F2
:10F5FA007265616B706F696E74004E6F20626F6F17
:10F60A0074206469736B2E0A0D002A2B2C3A3B3C3A
:10F61A003D3E5B5D7C223F7F005B4C42415D5B2C43
:10F62A006C656E6774685D0025732F4452495645B0
:10F63A0025632E44534B004E6F205344204361727E
:10F64A00643F0A0D00696F5F776169745F77726959
:10F65A0074650025733D25642028255868290A0DFC
:10F66A000064656275675F6661746469736B004CF8
:10F67A004420484C2C28253034584829004F5554EA
:10F68A0020282530325848292C41004C442028484B
:10F69A004C292C25303258480043414C4C204E43CB
:10F6AA002C25303458480043414C4C2050452C25D9
:10F6BA00303458480043414C4C20504F2C253034AC
:10F6CA0058480043414C4C204E5A2C253034584857
:10F6DA00004C4420282530345848292C484C0064D2
:10F6EA00656275675F736463617264005B61646419
:10F6FA00725D2C76616C756500494E20412C282577
:10F70A003032584829004C4420412C28253034589E
:10F71A004829004C4420282530345848292C4100D7
:10F72A0043414C4C204D2C25303458480043414C21
:10F73A004C20502C25303458480043414C4C20581A
:10F74A002C25303458480043414C4C205A2C253043
:10F75A003458480053656C6563745B25645D3A20D0
:10F76A0000646973617373656D626C65005342432B
:10F77A0020412C25303258480041444320412C2551
:10F78A00303258480041444420412C2530325848F0
:10F79A00004C442042432C2530345848004A50201B
:10F7AA004E432C2530345848004C442044452C25DF
:10F7BA0030345848004A502050452C253034584897
:10F7CA00004C4420484C2C2530345848004A5020DC
:10F7DA00504F2C2530345848004C442053502C2587
:10F7EA0030345848004A50204E5A2C253034584854
:10F7FA0000426F6172643A2025730A0D005A385329
:10F80A003138302D3537510070726F6772616D3A39
:10F81A000A0D0049593A20253034580A0D000A0DBC
:10F82A002020202025730A0D0042433A2025303437
:10F83A005820200050433A202530345820200044D4
:10F84A00453A202530345820200041463A202530B8
:10F85A003458202000484C3A2025303458202000C3
:10F86A0053503A202530345820200049583A202550
:10F87A0030345820200064656275675F6469736B71
:10F88A00006C656E203C3D203235360053424320E1
:10F89A00412C28484C290041444320412C28484CFB
:10F8AA00290041444420412C28484C29004C44203A
:10F8BA00412C2530325848004C4420422C25303205
:10F8CA005848004C4420442C2530325848004C44B7
:10F8DA0020482C25303258480043414C4C202530D2
:10F8EA00345848004A5020432C2530345848004A9E
:10F8FA0050204D2C2530345848004A5020502C2591
:10F90A0030345848004A50205A2C25303458480080
:10F91A00455820285350292C484C005B6164647276
:10F92A006573735D006D6F6E5F7365747570004506
:10F93A00582041462C414627004C4420412C28425D
:10F94A004329004C4420412C28444529004C44209A
:10F95A00412C28484C29004C4420422C28484C2948
:10F96A00004C4420432C28484C29004C4420442C69
:10F97A0028484C29004C4420452C28484C29004C46
:10F98A004420482C28484C29004C44204C2C284818
:10F99A004C29004C4420284445292C41004C442041
:10F9AA0028484C292C41004C442028484C292C42F8
:10F9BA00004C442028484C292C4300414444204808
:10F9CA004C2C4243004C442028484C292C44004CDF
:10F9DA00442028484C292C450041444420484C2CBA
:10F9EA004445004C442028484C292C480053554291
:10F9FA0020253032584800414E442025303258489C
:10FA0A0000584F52202530325848004C442028488C
:10FA1A004C292C4C0041444420484C2C484C004171
:10FA2A00444420484C2C5350004C4420432C25304D
:10FA3A003258004C4420452C25303258004C442082
:10FA4A004C2C253032580043504D4449534B532EC9
:10FA5A000025732530366C783A00464154333220FB
:10FA6A00202000737461636B3A0A0D006469736B3A
:10FA7A007265616400636F6E74696E7565005355D3
:10FA8A00422028484C29004445432028484C290054
:10FA9A00494E432028484C2900414E442028484CCE
:10FAAA002900584F522028484C290043502025301D
:10FABA00325848004A5020253034584800455820CA
:10FACA0044452C484C004C442053502C484C004A86
:10FADA0052204E432C2564004A52204E5A2C25644B
:10FAEA000025643A2025730A0D0053656C6563741A
:10FAFA003A200043504D4449534B53002573253057
:10FB0A0034783A004572726F720A0D000D2573251A
:10FB1A00730A0D0043502028484C29004A502028D7
:10FB2A00484C290053424320412C41004144432080
:10FB3A00412C410041444420412C41004C44204284
:10FB4A00432C410053424320412C4200414443206C
:10FB5A00412C420041444420412C4200534243205C
:10FB6A00412C430041444320412C4300414444205A
:10FB7A00412C4300505553482042430053424320EE
:10FB8A00412C440041444320412C44004144442038
:10FB9A00412C440053424320412C45004144432018
:10FBAA00412C450041444420412C450050555348BE
:10FBBA0020444500505553482041460053424320B3
:10FBCA00412C480041444320412C480041444420F0
:10FBDA00412C48005253542030304800525354208C
:10FBEA003130480052535420323048005253542086
:10FBFA00333048005253542030384800525354206E
:10FC0A003138480052535420323848005253542055
:10FC1A003338480053424320412C4C00414443208E
:10FC2A00412C4C0041444420412C4C00505553482F
:10FC3A0020484C004A5220432C2564004A52205A3C
:10FC4A002C256400444A4E5A2C25640043504D44E6
:10FC5A0049537E003C25643E0A0D005B6164647270
:10FC6A005D00736472656164007374617475730016
:10FC7A004C4420412C41004C4420422C41004C442D
:10FC8A0020432C41004C4420442C41004C44204544
:10FC9A002C41004C4420482C41004C44204C2C411F
:10FCAA00004C4420412C42004C4420422C42004C3F
:10FCBA004420432C42004C4420442C42004C442013
:10FCCA00452C42004C4420482C42004C44204C2CE9
:10FCDA0042004C4420412C43004C4420422C430017
:10FCEA004C4420432C43004C4420442C43004C44B5
:10FCFA0020452C43004C4420482C43004C44204CC3
:10FD0A002C430044454320424300494E432042438A
:10FD1A0000504F5020424300524554204E43004C5D
:10FD2A004420412C44004C4420422C44004C4420A2
:10FD3A00432C44004C4420442C44004C4420452C81
:10FD4A0044004C4420482C44004C44204C2C440091
:10FD5A004C4420412C45004C4420422C45004C4444
:10FD6A0020432C45004C4420442C45004C4420455B
:10FD7A002C45004C4420482C45004C44204C2C4532
:10FD8A000044454320444500494E43204445005021
:10FD9A004F502044450052455420504500504F5082
:10FDAA00204146004C4420412C48004C4420422C1F
:10FDBA0048004C4420432C48004C4420442C480022
:10FDCA004C4420452C48004C4420482C48004C44C4
:10FDDA00204C2C48004C4420412C4C004C442042DE
:10FDEA002C4C004C4420432C4C004C4420442C4CBA
:10FDFA00004C4420452C4C004C4420482C4C004CD0
:10FE0A0044204C2C4C0044454320484C00494E4366
:10FE1A0020484C00504F5020484C00524554205026
:10FE2A004F0044454320535000494E43205350004D
:10FE3A00524554204E5A002530366C582000202551
:10FE4A00303278006661743A20006275663A2000A2
:10FE5A000D2573200D007265736574005355422099
:10FE6A004100444543204100494E43204100414E50
:10FE7A0044204100584F522041005355422042002D
:10FE8A00444543204200494E43204200414E44200B
:10FE9A004200584F522042005355422043004445E5
:10FEAA0043204300494E43204300414E442043002F
:10FEBA00584F522043005245542043005355422084
:10FECA004400444543204400494E43204400414EE7
:10FEDA0044204400584F52204400535542204500C4
:10FEEA00444543204500494E43204500414E4420A5
:10FEFA004500584F5220450053554220480044457A
:10FF0A0043204800494E43204800414E44204800BF
:10FF1A00584F52204800535542204C004445432034
:10FF2A004C00494E43204C00414E44204C00584F4F
:10FF3A0052204C00524554204D0052455420500046
:10FF4A00524554205A004A5220256400253032581E
:10FF5A00200053443A20004D4F4E3E0073746570A2
:10FF6A000068656C700064756D70006A756D70006C
:10FF7A004350204100524C434100525243410043F6
:10FF8A005020420043502043004350204400435035
:10FF9A0020450043502048004350204C0048414C23
:10FFAA005400303A2F2F00696E66006E616E006C45
:10FFBA006C7300313830000D25730020257300441E
:10FFCA00414100524C4100525241004343460053C2
:10FFDA0043460043504C004E4F5000524554004592
:10FFEA005858003F3F3F004D0A0D006469004449DC
:05FFFA00004549000074
:020000040001F9
:10000000E1ECFAF001D80BD00500FA6E0701C651F9
:10001000FD6EC751FE6EC851FF6EFA501200D8A097
:100020001200000E0901EA6F000EE96F01D80BD033
:100030000500FA6E0801D951FD6EDA51FE6EDB51F2
:10004000FF6EFA5012000901F06F01D80BD00500C5
:10005000FA6E0801D651FD6ED751FE6ED851FF6E73
:10006000FA5012000901F16F0701CC51CD11CE11E8
:10007000D8A406D0000E0901DA6F010ED96F14D092
:1000800001D80AD00500FA6ECC51FD6ECD51FE6E3E
:10009000CE51FF6EFA501200D8A002D0010E01D04E
:1000A000000E0901D96FDA6BD951DA11D8B44AD0F0
:1000B0000701C951CA11CB11D8A406D0000E0901FD
:1000C000DC6F010EDB6F14D001D80AD00500FA6E88
:1000D000C951FD6ECA51FE6ECB51FF6EFA5012002F
:1000E000D8A002D0010E01D0000E0901DB6FDC6B3D
:1000F000DB51DC11D8B426D00701EBBF23D0000EB2
:10010000366F230E356F01D80BD00500FA6EDE5125
:10011000FD6EDF51FE6EE051FF6EFA50000E1200D0
:1001200001D80CD00500FA6E0701C051FD6EC15117
:10013000FE6EC251FF6EFA50EA5112000701EA69E1
:10014000EB691CD10701CC51CD11CE11D8A406D03A
:10015000000E0901DE6F010EDD6F14D001D80AD048
:100160000500FA6ECC51FD6ECD51FE6ECE51FF6E84
:10017000FA501200D8A002D0010E01D0000E0901E1
:10018000DD6FDE6BDD51DE11D8B406D0000E070145
:10019000366F280E356F61D2000E0701366F1E0EC6
:1001A000356F01D8CBD00500FA6EDE51FD6EDF5100
:1001B000FE6EE051FF6EFA50000E1200070133513F
:1001C0003411D8B405D001D8D3D00500FA6EADD023
:1001D00001D8CED00500FA6EC051FD6EC151FE6E41
:1001E000C251FF6EFA50000E12001AEC10F09BEC98
:1001F00006F00901D86F01D8BBD00500FA6E0701DF
:10020000C051FD6EC151FE6EC251FF6EFA50090120
:10021000D8511200070129512A11D8B427D0000E55
:10022000295D0601D46F090E07012A590601D56F11
:10023000D5BF06D0D5511AE1800ED45DD8B016D006
:1002400001D810D00500FA6E0701C051FD6EC151F2
:10025000FE6EC251FF6EFA5029C7D9F42AC7DAF4EC
:10026000DF5012000701294B2A2B82D0070165516C
:10027000D8A409D06651D8A406D06751D8A403D019
:100280006851D8B475D0840E0501BE6FE50EBF6FFE
:10029000F8C6C0F5C16BF9C6C2F5C36B4BC7C4F550
:1002A000C56B2BC7C6F52CC7C7F556C5C8F557C5CE
:1002B000C9F54AC7CAF5CB6BF7C6CCF5CD6B06ECD2
:1002C00010F056D001D854D00500FA6E0701C05185
:1002D000FD6EC151FE6EC251FF6EFA50F351120015
:1002E00001D846D00500FA6E0701C051FD6EC1511C
:1002F000FE6EC251FF6EFA50C0EC11F01200DA0E21
:100300000501BE6FEC0EBF6FF0C9C0F5C16BF0C93F
:10031000C2F5C36B06EC10F0000E0701466F010E2C
:10032000456F01D825D00500FA6EC051FD6EC15150
:10033000FE6EC251FF6EFA50FF0E12000901F0511D
:100340000601D46FD56BD551000AD8A4D8D7D451A3
:10035000800AD8B433D7010AD8B447D7090AD8B429
:1003600059D7060AD8B4AED72E0AD8B4B9D7C7D74A
:10037000070145514611D8A4B5EC0DF001D80CD0B9
:100380000500FA6E0701C351FD6EC451FE6EC551E2
:10039000FF6EFA50000E120001D80BD00500FA6E65
:1003A0000701BD51FD6EBE51FE6EBF51FF6EFA508A
:1003B000120001D80CD00500FA6E0701BA51FD6E8B
:1003C000BB51FE6EBC51FF6EFA50010E120001D8F7
:1003D0000BD00500FA6E0701B751FD6EB851FE6EE5
:1003E000B951FF6EFA501200D8A0F1D701D80CD045
:1003F0000500FA6E0701DE51FD6EDF51FE6EE05121
:10040000FF6EFA50FF0E1200070145514611D8A4A5
:10041000A9D178EF87F00901F151A2EC0BF0254B3F
:10042000262B59D1070129512A11D8B42ED0000EFC
:10043000295D0601D46F090E07012A590601D56FFF
:10044000D5BF06D0D55121E1800ED45DD8B01DD0E6
:1004500029C7D9F42AC7DAF4F1C9DFF40701294B17
:100460002A2B000E295D0601D46F090E07012A59B7
:100470000601D56F800ED419D511D8A42CD1000E49
:100480000901EA6F010EE96F26D107016551D8A471
:1004900009D06651D8A406D06751D8A403D06851BA
:1004A000D8B419D1CF0E0501BE6FE50EBF6FF8C6E7
:1004B000C0F5C16BF9C6C2F5C36B4BC7C4F5C56BBC
:1004C0002BC7C6F52CC7C7F556C5C8F557C5C9F51E
:1004D0004AC7CAF5CB6BF7C6CCF5CD6B06EC10F06E
:1004E000FAD0F1C9F9F6F7D0F1C94BF7F4D0000E04
:1004F00007012B150601D46FFF0E07012C1506010D
:10050000D56F0901F1510601D41107012B6F0601C6
:10051000D55116D00901F1510601D56FD46BFF0EEC
:1005200007012B150601D66F000E07012C150601D9
:10053000D76FD451D61107012B6F0601D551D711B2
:1005400007012C6FC8D0F1C9F8F6030EF819D8A42A
:1005500006D0000E0701296F090E2A6F05D0000E84
:100560000901EA6F010EE96F07016651D8B408D09E
:100570000601F851D8B410D0020EF819D8B40CD036
:1005800007016751D8B4A7D00601F805D8B404D044
:10059000030EF819D8A49FD007016851D8B49BD096
:1005A000F9C6D4F6010E0601D56F000ED66FD42B16
:1005B00003D0D890D537D637D42FFBD70701695150
:1005C0000601D51707016A510601D617D551D61174
:1005D000D8A481D0AD0E0501BE6FE60EBF6FF8C680
:1005E000C0F5C16BF9C6C2F5C36B4BC7C4F5C56B8B
:1005F0002BC7C6F52CC7C7F556C5C8F557C5C9F5ED
:100600004AC7CAF5CB6BF7C6CCF5CD6B06EC10F03C
:1006100062D0F1C9F7F65FD0F1C94AF75CD00901A1
:10062000F151B3EC09F057D06C0E0501BE6FE80E26
:10063000BF6FF0C9C0F5C16BF1C9C2F5C36BF0C99A
:10064000C4F5C56BF1C9C6F5C76B06EC10F0000E1A
:100650000701466F010E456F3ED00901F0510601BA
:10066000D46FD56BD551000AD8A4DED7D451810AF6
:10067000D8B4D1D6090AD8B4D5D6020AD8B431D75D
:10068000010AD8B431D7070AD8B431D7010AD8B48F
:100690005AD7020AD8B4BDD71F0AD8B4BDD7010AA9
:1006A000D8B438D7050AD8B4EAD6010AD8B4E7D600
:1006B0000F0AD8B4E4D6010AD8B4E1D6070AD8B4F0
:1006C000DED6020AD8B4DBD6010AD8B4D8D63F0A9F
:1006D000D8B4A5D7A9D701D80CD00500FA6E070168
:1006E000C351FD6EC451FE6EC551FF6EFA50000E2F
:1006F000120001D80BD00500FA6E0701BD51FD6E46
:10070000BE51FE6EBF51FF6EFA50120001D80CD0E0
:100710000500FA6E0701BA51FD6EBB51FE6EBC5169
:10072000FF6EFA50010E120001D80BD00500FA6ED0
:100730000701B751FD6EB851FE6EB951FF6EFA5008
:100740001200D8A0F1D7000E0701366F320E356FB8
:100750000901E951EA11D8A405D007014551461114
:10076000D8B4C6D3000E0B6E010E0A6E76EC10F0F4
:100770000901E951EA11D8B4A5D322D1F1C9D8F5BC
:100780000501D96B6FEC0FF09DD3F1C9D8F50501C8
:10079000D96BA1ECF7F096D39E0E0901F019D8A4FD
:1007A00003D054EC11F002D044EC0EF0000E07011F
:1007B000366F460E356F86D3000E0701366F460E34
:1007C000356F2551271904E126512819D8B40BD0CB
:1007D000ED0E0501BE6FE60EBF6F06EC10F025C7EB
:1007E00027F726C728F79F0E0901F019D8A403D0D0
:1007F0006FEC07F002D0FCEC08F0000E366F5A0EDA
:10080000356F6CECDFF0070141514211D8A407D0DD
:1008100034ECE7F00601D205D311D8A4F4D783EC69
:100820000CF0C4D7000E0701366F460E356F44EC4E
:10083000FBF0000E366F320E356F45514611D8B4BD
:1008400041D3000E096E000E086E01D80BD00500D2
:10085000FA6E0801D351FD6ED451FE6ED551FF6E74
:10086000FA501200000E0B6E000E0A6E76EC10F0BD
:1008700001D80CD00500FA6E0701C351FD6EC451BA
:10088000FE6EC551FF6EFA50010E1200000E0901F6
:10089000E46F010EE36F000EE06F050EDF6F5CD0BA
:1008A000E351E411D8A427D00701CC51CD11CE11CA
:1008B000D8A406D0000E0901E26F010EE16F14D03A
:1008C00001D80AD00500FA6ECC51FD6ECD51FE6EF6
:1008D000CE51FF6EFA501200D8A002D0010E01D006
:1008E000000E0901E16FE26BE105E211D8A403D02B
:1008F000DF07D8A0E0070701CC51CD11CE11D8A455
:1009000006D0000E0901E46F010EE36F14D001D888
:100910000AD00500FA6ECC51FD6ECD51FE6ECE515F
:10092000FF6EFA501200D8A002D0010E01D0000EC6
:100930000901E36FE46BFF0E096EFB0E086E01D830
:100940000BD00500FA6E0801D351FD6ED451FE6E36
:10095000D551FF6EFA5012000901E0BF05D0E051F9
:100960009FE1DF05D8B09CD701D80CD00500FA6E06
:100970000701C351FD6EC451FE6EC551FF6EFA50A2
:10098000000E1200FF0E096E086801D80BD005009A
:10099000FA6E0801D351FD6ED451FE6ED551FF6E33
:1009A000FA501200E40E00D000D0E82EFCD700D0A0
:1009B00000D0000E0B6E010E0A6E76EC10F082D2A3
:1009C000F0510601D46FD56BD551000AD8A416D0CA
:1009D000D451940AD8B4D2D6010AD8B4D6D60F0AC4
:1009E000D8B420D7010AD8B4D7D6070AD8B4E4D6E9
:1009F000020AD8B4D1D6010AD8B4DED6000E080156
:100A00002D6F010E2C6F000E0901E56F000EE66FD1
:100A1000000EE76F000EE86F100E0601F9610CD0B2
:100A2000F951040D8C0EF324D96E080EF420DA6E01
:100A3000DE50DE10D8A404D0010E0701F36FD6D12A
:100A40004BC708F5096AF951040D8A0EF324D96ED3
:100A5000080EF420DA6EDEC40AF5DDC40BF52DECC9
:100A600010F007012B5108262C510922FF0E0824F3
:100A70000601D46FFF0E0920D56FD4C6E5F9D5C69F
:100A8000E6F90901E76BE86B0601F951040D8C0EDC
:100A9000F324D96E080EF420DA6EDEC4EBF9DDC45F
:100AA000ECF9EBC97EF6ECC97FF6E5C9D4F6E6C9E8
:100AB000D5F6E7C9D6F6E8C9D7F6070ED890D437E9
:100AC000D537D637D737E82EF9D7D4C680F6D5C66E
:100AD00081F6D6C682F6D7C683F62CECA1F00901C2
:100AE000ED6FED51D8B40BD0EB0E0501BE6FF20ED9
:100AF000BF6FEDC9C0F5C16B06EC10F09DD70601C4
:100B0000F851D8B404D0020EF819D8A4ADD0EBC96E
:100B10005AF6ECC95BF6000E5C6F090E5D6F000EB5
:100B20005F6F800E5E6FEE0E606F090E616F70EC8E
:100B3000A4F00901ED6FED51D8A405D0800EEE1997
:100B4000EF11D8B40FD0A60E0501BE6FEF0EBF6F28
:100B5000EDC9C0F5C16BEEC9C2F5EFC9C3F506EC2E
:100B600010F06AD707016651D8B42CD06851D8B4B8
:100B700029D0F9C6D4F6010E0601D56F000ED66F46
:100B8000D42B03D0D890D537D637D42FFBD7070135
:100B900069510601D51707016A510601D617D551CB
:100BA000D611D8A40FD0540E0501F56FFE0EF66FC6
:100BB000000EF76F090EF86F000EFA6F800EF96FD6
:100BC00010EC05F0000E0701F36F0601F851D8A4F0
:100BD00045D007014A510601D56FD46B5650D66FE8
:100BE0005750D76FD86BD96BD7C6D9F6D6C6D8F6BB
:100BF000D76BD66BD451D611DA6FD551D711DB6FC5
:100C0000000ED811DC6F000ED911DD6FF751DA112B
:100C10000901D06F0601DB510901D16F0601DC51DA
:100C20000901D26F0601DD510901D36FD0C93DF62C
:100C3000D1C93EF6D2C93FF6D3C940F6000E06012F
:100C4000416F090E426F000E446F800E436F23EC1C
:100C5000DDF0000E0701296F000E04D0000E070121
:100C6000296F090E2A6FC2D0F805D8B404D0030E3C
:100C7000F819D8A4B7D0F805D8A440D007014A5134
:100C80000601D56FD46B5650D66F5750D76FD86BBF
:100C9000D96BD7C6D9F6D6C6D8F6D76BD66BD45192
:100CA000D611DA6FD551D711DB6F000ED811DC6F7A
:100CB000000ED911DD6FF751DA110901D46F060169
:100CC000DB510901D56F0601DC510901D66F060120
:100CD000DD510901D76FD4C93DF6D5C93EF6D6C955
:100CE0003FF6D7C940F6000E0601416F090E426F6C
:100CF000000E446F800E436FE7ECDDF00701675193
:100D0000D8B42CD06851D8B429D0F9C6D4F6010E85
:100D10000601D56F000ED66FD42B03D0D890D537EF
:100D2000D637D42FFBD7070169510601D517070124
:100D30006A510601D617D551D611D8A40FD0540E3A
:100D40000501F56FFE0EF66F000EF76F090EF86FD6
:100D5000000EFA6F800EF96F10EC05F0EBC97EF60D
:100D6000ECC97FF6000E0601806F090E816F000E40
:100D7000836F800E826FEE0E846F090E856F05EC17
:100D800097F00901ED6FED51D8A405D0800EEE1952
:100D9000EF11D8B40FD0860E0501BE6FEF0EBF6FF6
:100DA000EDC9C0F5C16BEEC9C2F5EFC9C3F506ECDC
:100DB00010F042D6EBC940F6ECC941F6E7ECD2F0B0
:100DC0000901ED6FED51D8B40BD0580E0501BE6F7F
:100DD000F30EBF6FEDC9C0F5C16B06EC10F02CD659
:100DE000000E01D0010E0701F36F33D76651D8B45E
:100DF00008D00601F851D8B410D0020EF819D8B4B2
:100E00000CD007016751D8B458D00601F805D8B402
:100E100004D0030EF819D8A450D0F9C6D4F6010EA8
:100E2000D56F000ED66FD42B03D0D890D537D637D8
:100E3000D42FFBD7070169510601D51707016A5165
:100E40000601D617D551D611D8A437D0640E0501A6
:100E5000BE6FE60EBF6FF8C6C0F5C16BF9C6C2F52E
:100E6000C36B4BC7C4F5C56B2BC7C6F52CC7C7F5FD
:100E70000601F951040D8A0EF324D96E080EF420F0
:100E8000DA6EDEC4C8F5DDC4C9F5E5C9CAF5E6C940
:100E9000CBF5E7C9CCF5E8C9CDF556C5CEF557C5B4
:100EA000CFF54AC7D0F50501D16BF7C6D2F5D36BA4
:100EB000F3C7D4F5D56B06EC10F0000E08012D6FCA
:100EC000000E2C6F070145514611D8B406D0000E14
:100ED000466F000E456FDFEC0AF0000E0701366F1B
:100EE0003C0E356F000E0B6E000E0A6E76EC10F0A5
:100EF00001D80CD00500FA6E0701C351FD6EC45134
:100F0000FE6EC551FF6EFA50010E1200000E070171
:100F1000366F140E356F120095C5D9F496C5DAF404
:100F2000DEC4F6F4DDC4F7F4000EF86E0800F550E8
:100F3000250AD8A4EAEF8DF095C5D9F496C5DAF460
:100F4000DE2A000EDD22000E07011E6F000E1D6F4F
:100F50001DC758F552685368000E0501A86F000EB2
:100F600014D0588095C5D9F496C5DAF4DE2A000E5F
:100F7000DD2230D05882F6D75884F4D75886F2D77D
:100F80005888F0D7000EA86F010EA76F23D095C523
:100F9000D9F496C5DAF4DEC4F6F4DDC4F7F4000E35
:100FA000F86E0800F550996F9A6B9A51000AD8A410
:100FB000E9D79951200AD8B4E1D7030AD8B4E0D7C9
:100FC000080AD8B4D9D7060AD8B4CBD71D0AD8B4E2
:100FD000D1D7D8D7A751A811D8B4D9D758B05892DB
:100FE00095C5D9F496C5DAF4DEC4F6F4DDC4F7F499
:100FF000000EF86E0800F5502A0AD8A424D095C532
:10100000D9F496C5DAF4DE2A000EDD2297C5D9F4AC
:1010100098C5DAF4DFC499F5020EDE26DFC49AF52E
:10102000000EDD2299C5D9F49AC5DAF4DEC41DF7A5
:10103000DDC41EF707011EAF36D058801D6D1E1F80
:10104000D8B01E2B30D095C5D9F496C5DAF4DEC4DD
:101050000EF5DDC40FF596ECF1F00EC51DF70FC5CA
:101060001EF707D095C5D9F496C5DAF4DE2A000E2E
:10107000DD2295C5D9F496C5DAF4DEC4F6F4DDC4F4
:10108000F7F4000EF86E0800F5C499F5D00E0501CE
:1010900099259A6F9B6BFF0E9B239B5104E10A0ECF
:1010A0009A5DD8A0DFD795C5D9F496C5DAF4DEC429
:1010B000F6F4DDC4F7F4000EF86E0800F5502E0AC1
:1010C000D8A466D0000E536E000E526E95C5D9F4AA
:1010D00096C5DAF4DE2A000EDD2295C5D9F496C550
:1010E000DAF4DEC4F6F4DDC4F7F4000EF86E08009E
:1010F000F5502A0AD8A41CD095C5D9F496C5DAF4BF
:10110000DE2A000EDD2297C5D9F498C5DAF4DFC4D3
:1011100099F5020EDE26DFC49AF5000EDD2299C590
:10112000D9F49AC5DAF4DEC452F5DDC453F530D0F3
:1011300095C5D9F496C5DAF4DEC40EF5DDC40FF515
:1011400096ECF1F00EC552F50FC553F507D095C5D5
:10115000D9F496C5DAF4DE2A000EDD2295C5D9F45D
:1011600096C5DAF4DEC4F6F4DDC4F7F4000EF86ECA
:101170000800F5C499F5D00E050199259A6F9B6B6F
:10118000FF0E9B239B5104E10A0E9A5DD8A0DFD786
:1011900095C5D9F496C5DAF4DEC4F6F4DDC4F7F4E7
:1011A000000EF86E0800F550630AD8A427D095C544
:1011B000D9F496C5DAF4DE2A000EDD2297C5D9F4FB
:1011C00098C5DAF4DFC499F5020EDE26DFC49AF57D
:1011D000000EDD2299C5D9F49AC5DAF4DF50050175
:1011E000B36F93C514F594C515F5B3C516F522EC88
:1011F00001F014C593F515C594F5120095C5D9F401
:1012000096C5DAF4DEC4B4F5DDC4B5F5B4C5F6F4BC
:10121000B5C5F7F4000EF86E0800F5C4B3F517D0A5
:10122000B44BB52BB4C5F6F4B5C5F7F4000EF86EA3
:101230000800F550680AD8A435D0480EB36FB44BF7
:10124000B52B30D0690E01D0000EB36F2BD0050145
:10125000B351996F9A6B9A51000AD8A4F5D7995156
:10126000580AD8B4EFD73C0AD8B4ECD70C0AD8B493
:10127000D7D7010AD8B4E6D7050AD8B4E0D7020A0E
:10128000D8B4E0D7010AD8B4DDD71B0AD8B4D7D771
:10129000010AD8B4D7D70D0AD8B4D4D7020AD8B423
:1012A000CED7D2D7B4C5F6F4B5C5F7F4000EF86EB4
:1012B0000800F550640AD8B49AD0B4C5F6F4B5C5A0
:1012C000F7F4000EF86E0800F550690AD8B48FD014
:1012D000D1D097C5D9F498C5DAF4DFC499F5020ED8
:1012E000DE26DFC49AF5000EDD2299C5D9F49AC531
:1012F000DAF4DF50AB6F000EABBFFF0EAC6F51D016
:1013000097C5D9F498C5DAF4DFC499F5040EDE2642
